{
	"contracts/test1.sol": {
		"ElectiveSystem": {
			"abi": [
				{
					"inputs": [
						{
							"internalType": "bytes32[]",
							"name": "_proposalNames",
							"type": "bytes32[]"
						}
					],
					"stateMutability": "nonpayable",
					"type": "constructor"
				},
				{
					"inputs": [],
					"name": "chairman",
					"outputs": [
						{
							"internalType": "address",
							"name": "",
							"type": "address"
						}
					],
					"stateMutability": "view",
					"type": "function"
				},
				{
					"inputs": [
						{
							"internalType": "uint256",
							"name": "",
							"type": "uint256"
						}
					],
					"name": "proposal",
					"outputs": [
						{
							"internalType": "bytes",
							"name": "",
							"type": "bytes"
						}
					],
					"stateMutability": "view",
					"type": "function"
				}
			],
			"devdoc": {
				"kind": "dev",
				"methods": {},
				"version": 1
			},
			"evm": {
				"assembly": "    /* \"contracts/test1.sol\":66:211  contract ElectiveSystem {... */\n  mstore(0x40, 0x80)\n    /* \"contracts/test1.sol\":156:208  constructor(bytes32[] memory _proposalNames){... */\n  callvalue\n  dup1\n  iszero\n  tag_1\n  jumpi\n  0x00\n  dup1\n  revert\ntag_1:\n  pop\n  mload(0x40)\n  sub(codesize, bytecodeSize)\n  dup1\n  bytecodeSize\n  dup4\n  codecopy\n  dup2\n  dup2\n  add\n  0x40\n  mstore\n  dup2\n  add\n  swap1\n  tag_2\n  swap2\n  swap1\n  tag_3\n  jump\t// in\ntag_2:\n  pop\n    /* \"contracts/test1.sol\":66:211  contract ElectiveSystem {... */\n  jump(tag_6)\n    /* \"#utility.yul\":7:82   */\ntag_7:\n    /* \"#utility.yul\":40:46   */\n  0x00\n    /* \"#utility.yul\":73:75   */\n  0x40\n    /* \"#utility.yul\":67:76   */\n  mload\n    /* \"#utility.yul\":57:76   */\n  swap1\n  pop\n    /* \"#utility.yul\":7:82   */\n  swap1\n  jump\t// out\n    /* \"#utility.yul\":88:205   */\ntag_8:\n    /* \"#utility.yul\":197:198   */\n  0x00\n    /* \"#utility.yul\":194:195   */\n  dup1\n    /* \"#utility.yul\":187:199   */\n  revert\n    /* \"#utility.yul\":211:328   */\ntag_9:\n    /* \"#utility.yul\":320:321   */\n  0x00\n    /* \"#utility.yul\":317:318   */\n  dup1\n    /* \"#utility.yul\":310:322   */\n  revert\n    /* \"#utility.yul\":334:451   */\ntag_10:\n    /* \"#utility.yul\":443:444   */\n  0x00\n    /* \"#utility.yul\":440:441   */\n  dup1\n    /* \"#utility.yul\":433:445   */\n  revert\n    /* \"#utility.yul\":457:559   */\ntag_11:\n    /* \"#utility.yul\":498:504   */\n  0x00\n    /* \"#utility.yul\":549:551   */\n  0x1f\n    /* \"#utility.yul\":545:552   */\n  not\n    /* \"#utility.yul\":540:542   */\n  0x1f\n    /* \"#utility.yul\":533:538   */\n  dup4\n    /* \"#utility.yul\":529:543   */\n  add\n    /* \"#utility.yul\":525:553   */\n  and\n    /* \"#utility.yul\":515:553   */\n  swap1\n  pop\n    /* \"#utility.yul\":457:559   */\n  swap2\n  swap1\n  pop\n  jump\t// out\n    /* \"#utility.yul\":565:745   */\ntag_12:\n    /* \"#utility.yul\":613:690   */\n  0x4e487b7100000000000000000000000000000000000000000000000000000000\n    /* \"#utility.yul\":610:611   */\n  0x00\n    /* \"#utility.yul\":603:691   */\n  mstore\n    /* \"#utility.yul\":710:714   */\n  0x41\n    /* \"#utility.yul\":707:708   */\n  0x04\n    /* \"#utility.yul\":700:715   */\n  mstore\n    /* \"#utility.yul\":734:738   */\n  0x24\n    /* \"#utility.yul\":731:732   */\n  0x00\n    /* \"#utility.yul\":724:739   */\n  revert\n    /* \"#utility.yul\":751:1032   */\ntag_13:\n    /* \"#utility.yul\":834:861   */\n  tag_30\n    /* \"#utility.yul\":856:860   */\n  dup3\n    /* \"#utility.yul\":834:861   */\n  tag_11\n  jump\t// in\ntag_30:\n    /* \"#utility.yul\":826:832   */\n  dup2\n    /* \"#utility.yul\":822:862   */\n  add\n    /* \"#utility.yul\":964:970   */\n  dup2\n    /* \"#utility.yul\":952:962   */\n  dup2\n    /* \"#utility.yul\":949:971   */\n  lt\n    /* \"#utility.yul\":928:946   */\n  0xffffffffffffffff\n    /* \"#utility.yul\":916:926   */\n  dup3\n    /* \"#utility.yul\":913:947   */\n  gt\n    /* \"#utility.yul\":910:972   */\n  or\n    /* \"#utility.yul\":907:995   */\n  iszero\n  tag_31\n  jumpi\n    /* \"#utility.yul\":975:993   */\n  tag_32\n  tag_12\n  jump\t// in\ntag_32:\n    /* \"#utility.yul\":907:995   */\ntag_31:\n    /* \"#utility.yul\":1015:1025   */\n  dup1\n    /* \"#utility.yul\":1011:1013   */\n  0x40\n    /* \"#utility.yul\":1004:1026   */\n  mstore\n    /* \"#utility.yul\":794:1032   */\n  pop\n    /* \"#utility.yul\":751:1032   */\n  pop\n  pop\n  jump\t// out\n    /* \"#utility.yul\":1038:1167   */\ntag_14:\n    /* \"#utility.yul\":1072:1078   */\n  0x00\n    /* \"#utility.yul\":1099:1119   */\n  tag_34\n  tag_7\n  jump\t// in\ntag_34:\n    /* \"#utility.yul\":1089:1119   */\n  swap1\n  pop\n    /* \"#utility.yul\":1128:1161   */\n  tag_35\n    /* \"#utility.yul\":1156:1160   */\n  dup3\n    /* \"#utility.yul\":1148:1154   */\n  dup3\n    /* \"#utility.yul\":1128:1161   */\n  tag_13\n  jump\t// in\ntag_35:\n    /* \"#utility.yul\":1038:1167   */\n  swap2\n  swap1\n  pop\n  jump\t// out\n    /* \"#utility.yul\":1173:1484   */\ntag_15:\n    /* \"#utility.yul\":1250:1254   */\n  0x00\n    /* \"#utility.yul\":1340:1358   */\n  0xffffffffffffffff\n    /* \"#utility.yul\":1332:1338   */\n  dup3\n    /* \"#utility.yul\":1329:1359   */\n  gt\n    /* \"#utility.yul\":1326:1382   */\n  iszero\n  tag_37\n  jumpi\n    /* \"#utility.yul\":1362:1380   */\n  tag_38\n  tag_12\n  jump\t// in\ntag_38:\n    /* \"#utility.yul\":1326:1382   */\ntag_37:\n    /* \"#utility.yul\":1412:1416   */\n  0x20\n    /* \"#utility.yul\":1404:1410   */\n  dup3\n    /* \"#utility.yul\":1400:1417   */\n  mul\n    /* \"#utility.yul\":1392:1417   */\n  swap1\n  pop\n    /* \"#utility.yul\":1472:1476   */\n  0x20\n    /* \"#utility.yul\":1466:1470   */\n  dup2\n    /* \"#utility.yul\":1462:1477   */\n  add\n    /* \"#utility.yul\":1454:1477   */\n  swap1\n  pop\n    /* \"#utility.yul\":1173:1484   */\n  swap2\n  swap1\n  pop\n  jump\t// out\n    /* \"#utility.yul\":1490:1607   */\ntag_16:\n    /* \"#utility.yul\":1599:1600   */\n  0x00\n    /* \"#utility.yul\":1596:1597   */\n  dup1\n    /* \"#utility.yul\":1589:1601   */\n  revert\n    /* \"#utility.yul\":1613:1690   */\ntag_17:\n    /* \"#utility.yul\":1650:1657   */\n  0x00\n    /* \"#utility.yul\":1679:1684   */\n  dup2\n    /* \"#utility.yul\":1668:1684   */\n  swap1\n  pop\n    /* \"#utility.yul\":1613:1690   */\n  swap2\n  swap1\n  pop\n  jump\t// out\n    /* \"#utility.yul\":1696:1818   */\ntag_18:\n    /* \"#utility.yul\":1769:1793   */\n  tag_42\n    /* \"#utility.yul\":1787:1792   */\n  dup2\n    /* \"#utility.yul\":1769:1793   */\n  tag_17\n  jump\t// in\ntag_42:\n    /* \"#utility.yul\":1762:1767   */\n  dup2\n    /* \"#utility.yul\":1759:1794   */\n  eq\n    /* \"#utility.yul\":1749:1812   */\n  tag_43\n  jumpi\n    /* \"#utility.yul\":1808:1809   */\n  0x00\n    /* \"#utility.yul\":1805:1806   */\n  dup1\n    /* \"#utility.yul\":1798:1810   */\n  revert\n    /* \"#utility.yul\":1749:1812   */\ntag_43:\n    /* \"#utility.yul\":1696:1818   */\n  pop\n  jump\t// out\n    /* \"#utility.yul\":1824:1967   */\ntag_19:\n    /* \"#utility.yul\":1881:1886   */\n  0x00\n    /* \"#utility.yul\":1912:1918   */\n  dup2\n    /* \"#utility.yul\":1906:1919   */\n  mload\n    /* \"#utility.yul\":1897:1919   */\n  swap1\n  pop\n    /* \"#utility.yul\":1928:1961   */\n  tag_45\n    /* \"#utility.yul\":1955:1960   */\n  dup2\n    /* \"#utility.yul\":1928:1961   */\n  tag_18\n  jump\t// in\ntag_45:\n    /* \"#utility.yul\":1824:1967   */\n  swap3\n  swap2\n  pop\n  pop\n  jump\t// out\n    /* \"#utility.yul\":1990:2722   */\ntag_20:\n    /* \"#utility.yul\":2097:2102   */\n  0x00\n    /* \"#utility.yul\":2122:2203   */\n  tag_47\n    /* \"#utility.yul\":2138:2202   */\n  tag_48\n    /* \"#utility.yul\":2195:2201   */\n  dup5\n    /* \"#utility.yul\":2138:2202   */\n  tag_15\n  jump\t// in\ntag_48:\n    /* \"#utility.yul\":2122:2203   */\n  tag_14\n  jump\t// in\ntag_47:\n    /* \"#utility.yul\":2113:2203   */\n  swap1\n  pop\n    /* \"#utility.yul\":2223:2228   */\n  dup1\n    /* \"#utility.yul\":2252:2258   */\n  dup4\n    /* \"#utility.yul\":2245:2250   */\n  dup3\n    /* \"#utility.yul\":2238:2259   */\n  mstore\n    /* \"#utility.yul\":2286:2290   */\n  0x20\n    /* \"#utility.yul\":2279:2284   */\n  dup3\n    /* \"#utility.yul\":2275:2291   */\n  add\n    /* \"#utility.yul\":2268:2291   */\n  swap1\n  pop\n    /* \"#utility.yul\":2339:2343   */\n  0x20\n    /* \"#utility.yul\":2331:2337   */\n  dup5\n    /* \"#utility.yul\":2327:2344   */\n  mul\n    /* \"#utility.yul\":2319:2325   */\n  dup4\n    /* \"#utility.yul\":2315:2345   */\n  add\n    /* \"#utility.yul\":2368:2371   */\n  dup6\n    /* \"#utility.yul\":2360:2366   */\n  dup2\n    /* \"#utility.yul\":2357:2372   */\n  gt\n    /* \"#utility.yul\":2354:2476   */\n  iszero\n  tag_49\n  jumpi\n    /* \"#utility.yul\":2387:2466   */\n  tag_50\n  tag_16\n  jump\t// in\ntag_50:\n    /* \"#utility.yul\":2354:2476   */\ntag_49:\n    /* \"#utility.yul\":2502:2508   */\n  dup4\n    /* \"#utility.yul\":2485:2716   */\ntag_51:\n    /* \"#utility.yul\":2519:2525   */\n  dup2\n    /* \"#utility.yul\":2514:2517   */\n  dup2\n    /* \"#utility.yul\":2511:2526   */\n  lt\n    /* \"#utility.yul\":2485:2716   */\n  iszero\n  tag_53\n  jumpi\n    /* \"#utility.yul\":2594:2597   */\n  dup1\n    /* \"#utility.yul\":2623:2671   */\n  tag_54\n    /* \"#utility.yul\":2667:2670   */\n  dup9\n    /* \"#utility.yul\":2655:2665   */\n  dup3\n    /* \"#utility.yul\":2623:2671   */\n  tag_19\n  jump\t// in\ntag_54:\n    /* \"#utility.yul\":2618:2621   */\n  dup5\n    /* \"#utility.yul\":2611:2672   */\n  mstore\n    /* \"#utility.yul\":2701:2705   */\n  0x20\n    /* \"#utility.yul\":2696:2699   */\n  dup5\n    /* \"#utility.yul\":2692:2706   */\n  add\n    /* \"#utility.yul\":2685:2706   */\n  swap4\n  pop\n    /* \"#utility.yul\":2561:2716   */\n  pop\n    /* \"#utility.yul\":2545:2549   */\n  0x20\n    /* \"#utility.yul\":2540:2543   */\n  dup2\n    /* \"#utility.yul\":2536:2550   */\n  add\n    /* \"#utility.yul\":2529:2550   */\n  swap1\n  pop\n    /* \"#utility.yul\":2485:2716   */\n  jump(tag_51)\ntag_53:\n    /* \"#utility.yul\":2489:2510   */\n  pop\n    /* \"#utility.yul\":2103:2722   */\n  pop\n  pop\n    /* \"#utility.yul\":1990:2722   */\n  swap4\n  swap3\n  pop\n  pop\n  pop\n  jump\t// out\n    /* \"#utility.yul\":2745:3130   */\ntag_21:\n    /* \"#utility.yul\":2827:2832   */\n  0x00\n    /* \"#utility.yul\":2876:2879   */\n  dup3\n    /* \"#utility.yul\":2869:2873   */\n  0x1f\n    /* \"#utility.yul\":2861:2867   */\n  dup4\n    /* \"#utility.yul\":2857:2874   */\n  add\n    /* \"#utility.yul\":2853:2880   */\n  slt\n    /* \"#utility.yul\":2843:2965   */\n  tag_56\n  jumpi\n    /* \"#utility.yul\":2884:2963   */\n  tag_57\n  tag_10\n  jump\t// in\ntag_57:\n    /* \"#utility.yul\":2843:2965   */\ntag_56:\n    /* \"#utility.yul\":2994:3000   */\n  dup2\n    /* \"#utility.yul\":2988:3001   */\n  mload\n    /* \"#utility.yul\":3019:3124   */\n  tag_58\n    /* \"#utility.yul\":3120:3123   */\n  dup5\n    /* \"#utility.yul\":3112:3118   */\n  dup3\n    /* \"#utility.yul\":3105:3109   */\n  0x20\n    /* \"#utility.yul\":3097:3103   */\n  dup7\n    /* \"#utility.yul\":3093:3110   */\n  add\n    /* \"#utility.yul\":3019:3124   */\n  tag_20\n  jump\t// in\ntag_58:\n    /* \"#utility.yul\":3010:3124   */\n  swap2\n  pop\n    /* \"#utility.yul\":2833:3130   */\n  pop\n    /* \"#utility.yul\":2745:3130   */\n  swap3\n  swap2\n  pop\n  pop\n  jump\t// out\n    /* \"#utility.yul\":3136:3690   */\ntag_3:\n    /* \"#utility.yul\":3231:3237   */\n  0x00\n    /* \"#utility.yul\":3280:3282   */\n  0x20\n    /* \"#utility.yul\":3268:3277   */\n  dup3\n    /* \"#utility.yul\":3259:3266   */\n  dup5\n    /* \"#utility.yul\":3255:3278   */\n  sub\n    /* \"#utility.yul\":3251:3283   */\n  slt\n    /* \"#utility.yul\":3248:3367   */\n  iszero\n  tag_60\n  jumpi\n    /* \"#utility.yul\":3286:3365   */\n  tag_61\n  tag_8\n  jump\t// in\ntag_61:\n    /* \"#utility.yul\":3248:3367   */\ntag_60:\n    /* \"#utility.yul\":3427:3428   */\n  0x00\n    /* \"#utility.yul\":3416:3425   */\n  dup3\n    /* \"#utility.yul\":3412:3429   */\n  add\n    /* \"#utility.yul\":3406:3430   */\n  mload\n    /* \"#utility.yul\":3457:3475   */\n  0xffffffffffffffff\n    /* \"#utility.yul\":3449:3455   */\n  dup2\n    /* \"#utility.yul\":3446:3476   */\n  gt\n    /* \"#utility.yul\":3443:3560   */\n  iszero\n  tag_62\n  jumpi\n    /* \"#utility.yul\":3479:3558   */\n  tag_63\n  tag_9\n  jump\t// in\ntag_63:\n    /* \"#utility.yul\":3443:3560   */\ntag_62:\n    /* \"#utility.yul\":3584:3673   */\n  tag_64\n    /* \"#utility.yul\":3665:3672   */\n  dup5\n    /* \"#utility.yul\":3656:3662   */\n  dup3\n    /* \"#utility.yul\":3645:3654   */\n  dup6\n    /* \"#utility.yul\":3641:3663   */\n  add\n    /* \"#utility.yul\":3584:3673   */\n  tag_21\n  jump\t// in\ntag_64:\n    /* \"#utility.yul\":3574:3673   */\n  swap2\n  pop\n    /* \"#utility.yul\":3377:3683   */\n  pop\n    /* \"#utility.yul\":3136:3690   */\n  swap3\n  swap2\n  pop\n  pop\n  jump\t// out\n    /* \"contracts/test1.sol\":66:211  contract ElectiveSystem {... */\ntag_6:\n  dataSize(sub_0)\n  dup1\n  dataOffset(sub_0)\n  0x00\n  codecopy\n  0x00\n  return\nstop\n\nsub_0: assembly {\n        /* \"contracts/test1.sol\":66:211  contract ElectiveSystem {... */\n      mstore(0x40, 0x80)\n      callvalue\n      dup1\n      iszero\n      tag_1\n      jumpi\n      0x00\n      dup1\n      revert\n    tag_1:\n      pop\n      jumpi(tag_2, lt(calldatasize, 0x04))\n      shr(0xe0, calldataload(0x00))\n      dup1\n      0x30326c17\n      eq\n      tag_3\n      jumpi\n      dup1\n      0x87f7b975\n      eq\n      tag_4\n      jumpi\n    tag_2:\n      0x00\n      dup1\n      revert\n        /* \"contracts/test1.sol\":126:149  bytes[] public proposal */\n    tag_3:\n      tag_5\n      0x04\n      dup1\n      calldatasize\n      sub\n      dup2\n      add\n      swap1\n      tag_6\n      swap2\n      swap1\n      tag_7\n      jump\t// in\n    tag_6:\n      tag_8\n      jump\t// in\n    tag_5:\n      mload(0x40)\n      tag_9\n      swap2\n      swap1\n      tag_10\n      jump\t// in\n    tag_9:\n      mload(0x40)\n      dup1\n      swap2\n      sub\n      swap1\n      return\n        /* \"contracts/test1.sol\":96:119  address public chairman */\n    tag_4:\n      tag_11\n      tag_12\n      jump\t// in\n    tag_11:\n      mload(0x40)\n      tag_13\n      swap2\n      swap1\n      tag_14\n      jump\t// in\n    tag_13:\n      mload(0x40)\n      dup1\n      swap2\n      sub\n      swap1\n      return\n        /* \"contracts/test1.sol\":126:149  bytes[] public proposal */\n    tag_8:\n      0x01\n      dup2\n      dup2\n      sload\n      dup2\n      lt\n      tag_15\n      jumpi\n      0x00\n      dup1\n      revert\n    tag_15:\n      swap1\n      0x00\n      mstore\n      keccak256(0x00, 0x20)\n      add\n      0x00\n      swap2\n      pop\n      swap1\n      pop\n      dup1\n      sload\n      tag_17\n      swap1\n      tag_18\n      jump\t// in\n    tag_17:\n      dup1\n      0x1f\n      add\n      0x20\n      dup1\n      swap2\n      div\n      mul\n      0x20\n      add\n      mload(0x40)\n      swap1\n      dup2\n      add\n      0x40\n      mstore\n      dup1\n      swap3\n      swap2\n      swap1\n      dup2\n      dup2\n      mstore\n      0x20\n      add\n      dup3\n      dup1\n      sload\n      tag_19\n      swap1\n      tag_18\n      jump\t// in\n    tag_19:\n      dup1\n      iszero\n      tag_20\n      jumpi\n      dup1\n      0x1f\n      lt\n      tag_21\n      jumpi\n      0x0100\n      dup1\n      dup4\n      sload\n      div\n      mul\n      dup4\n      mstore\n      swap2\n      0x20\n      add\n      swap2\n      jump(tag_20)\n    tag_21:\n      dup3\n      add\n      swap2\n      swap1\n      0x00\n      mstore\n      keccak256(0x00, 0x20)\n      swap1\n    tag_22:\n      dup2\n      sload\n      dup2\n      mstore\n      swap1\n      0x01\n      add\n      swap1\n      0x20\n      add\n      dup1\n      dup4\n      gt\n      tag_22\n      jumpi\n      dup3\n      swap1\n      sub\n      0x1f\n      and\n      dup3\n      add\n      swap2\n    tag_20:\n      pop\n      pop\n      pop\n      pop\n      pop\n      dup2\n      jump\t// out\n        /* \"contracts/test1.sol\":96:119  address public chairman */\n    tag_12:\n      0x00\n      dup1\n      sload\n      swap1\n      0x0100\n      exp\n      swap1\n      div\n      0xffffffffffffffffffffffffffffffffffffffff\n      and\n      dup2\n      jump\t// out\n        /* \"#utility.yul\":88:205   */\n    tag_24:\n        /* \"#utility.yul\":197:198   */\n      0x00\n        /* \"#utility.yul\":194:195   */\n      dup1\n        /* \"#utility.yul\":187:199   */\n      revert\n        /* \"#utility.yul\":334:411   */\n    tag_26:\n        /* \"#utility.yul\":371:378   */\n      0x00\n        /* \"#utility.yul\":400:405   */\n      dup2\n        /* \"#utility.yul\":389:405   */\n      swap1\n      pop\n        /* \"#utility.yul\":334:411   */\n      swap2\n      swap1\n      pop\n      jump\t// out\n        /* \"#utility.yul\":417:539   */\n    tag_27:\n        /* \"#utility.yul\":490:514   */\n      tag_44\n        /* \"#utility.yul\":508:513   */\n      dup2\n        /* \"#utility.yul\":490:514   */\n      tag_26\n      jump\t// in\n    tag_44:\n        /* \"#utility.yul\":483:488   */\n      dup2\n        /* \"#utility.yul\":480:515   */\n      eq\n        /* \"#utility.yul\":470:533   */\n      tag_45\n      jumpi\n        /* \"#utility.yul\":529:530   */\n      0x00\n        /* \"#utility.yul\":526:527   */\n      dup1\n        /* \"#utility.yul\":519:531   */\n      revert\n        /* \"#utility.yul\":470:533   */\n    tag_45:\n        /* \"#utility.yul\":417:539   */\n      pop\n      jump\t// out\n        /* \"#utility.yul\":545:684   */\n    tag_28:\n        /* \"#utility.yul\":591:596   */\n      0x00\n        /* \"#utility.yul\":629:635   */\n      dup2\n        /* \"#utility.yul\":616:636   */\n      calldataload\n        /* \"#utility.yul\":607:636   */\n      swap1\n      pop\n        /* \"#utility.yul\":645:678   */\n      tag_47\n        /* \"#utility.yul\":672:677   */\n      dup2\n        /* \"#utility.yul\":645:678   */\n      tag_27\n      jump\t// in\n    tag_47:\n        /* \"#utility.yul\":545:684   */\n      swap3\n      swap2\n      pop\n      pop\n      jump\t// out\n        /* \"#utility.yul\":690:1019   */\n    tag_7:\n        /* \"#utility.yul\":749:755   */\n      0x00\n        /* \"#utility.yul\":798:800   */\n      0x20\n        /* \"#utility.yul\":786:795   */\n      dup3\n        /* \"#utility.yul\":777:784   */\n      dup5\n        /* \"#utility.yul\":773:796   */\n      sub\n        /* \"#utility.yul\":769:801   */\n      slt\n        /* \"#utility.yul\":766:885   */\n      iszero\n      tag_49\n      jumpi\n        /* \"#utility.yul\":804:883   */\n      tag_50\n      tag_24\n      jump\t// in\n    tag_50:\n        /* \"#utility.yul\":766:885   */\n    tag_49:\n        /* \"#utility.yul\":924:925   */\n      0x00\n        /* \"#utility.yul\":949:1002   */\n      tag_51\n        /* \"#utility.yul\":994:1001   */\n      dup5\n        /* \"#utility.yul\":985:991   */\n      dup3\n        /* \"#utility.yul\":974:983   */\n      dup6\n        /* \"#utility.yul\":970:992   */\n      add\n        /* \"#utility.yul\":949:1002   */\n      tag_28\n      jump\t// in\n    tag_51:\n        /* \"#utility.yul\":939:1002   */\n      swap2\n      pop\n        /* \"#utility.yul\":895:1012   */\n      pop\n        /* \"#utility.yul\":690:1019   */\n      swap3\n      swap2\n      pop\n      pop\n      jump\t// out\n        /* \"#utility.yul\":1025:1123   */\n    tag_29:\n        /* \"#utility.yul\":1076:1082   */\n      0x00\n        /* \"#utility.yul\":1110:1115   */\n      dup2\n        /* \"#utility.yul\":1104:1116   */\n      mload\n        /* \"#utility.yul\":1094:1116   */\n      swap1\n      pop\n        /* \"#utility.yul\":1025:1123   */\n      swap2\n      swap1\n      pop\n      jump\t// out\n        /* \"#utility.yul\":1129:1297   */\n    tag_30:\n        /* \"#utility.yul\":1212:1223   */\n      0x00\n        /* \"#utility.yul\":1246:1252   */\n      dup3\n        /* \"#utility.yul\":1241:1244   */\n      dup3\n        /* \"#utility.yul\":1234:1253   */\n      mstore\n        /* \"#utility.yul\":1286:1290   */\n      0x20\n        /* \"#utility.yul\":1281:1284   */\n      dup3\n        /* \"#utility.yul\":1277:1291   */\n      add\n        /* \"#utility.yul\":1262:1291   */\n      swap1\n      pop\n        /* \"#utility.yul\":1129:1297   */\n      swap3\n      swap2\n      pop\n      pop\n      jump\t// out\n        /* \"#utility.yul\":1303:1610   */\n    tag_31:\n        /* \"#utility.yul\":1371:1372   */\n      0x00\n        /* \"#utility.yul\":1381:1494   */\n    tag_55:\n        /* \"#utility.yul\":1395:1401   */\n      dup4\n        /* \"#utility.yul\":1392:1393   */\n      dup2\n        /* \"#utility.yul\":1389:1402   */\n      lt\n        /* \"#utility.yul\":1381:1494   */\n      iszero\n      tag_57\n      jumpi\n        /* \"#utility.yul\":1480:1481   */\n      dup1\n        /* \"#utility.yul\":1475:1478   */\n      dup3\n        /* \"#utility.yul\":1471:1482   */\n      add\n        /* \"#utility.yul\":1465:1483   */\n      mload\n        /* \"#utility.yul\":1461:1462   */\n      dup2\n        /* \"#utility.yul\":1456:1459   */\n      dup5\n        /* \"#utility.yul\":1452:1463   */\n      add\n        /* \"#utility.yul\":1445:1484   */\n      mstore\n        /* \"#utility.yul\":1417:1419   */\n      0x20\n        /* \"#utility.yul\":1414:1415   */\n      dup2\n        /* \"#utility.yul\":1410:1420   */\n      add\n        /* \"#utility.yul\":1405:1420   */\n      swap1\n      pop\n        /* \"#utility.yul\":1381:1494   */\n      jump(tag_55)\n    tag_57:\n        /* \"#utility.yul\":1512:1518   */\n      dup4\n        /* \"#utility.yul\":1509:1510   */\n      dup2\n        /* \"#utility.yul\":1506:1519   */\n      gt\n        /* \"#utility.yul\":1503:1604   */\n      iszero\n      tag_58\n      jumpi\n        /* \"#utility.yul\":1592:1593   */\n      0x00\n        /* \"#utility.yul\":1583:1589   */\n      dup5\n        /* \"#utility.yul\":1578:1581   */\n      dup5\n        /* \"#utility.yul\":1574:1590   */\n      add\n        /* \"#utility.yul\":1567:1594   */\n      mstore\n        /* \"#utility.yul\":1503:1604   */\n    tag_58:\n        /* \"#utility.yul\":1352:1610   */\n      pop\n        /* \"#utility.yul\":1303:1610   */\n      pop\n      pop\n      pop\n      jump\t// out\n        /* \"#utility.yul\":1616:1718   */\n    tag_32:\n        /* \"#utility.yul\":1657:1663   */\n      0x00\n        /* \"#utility.yul\":1708:1710   */\n      0x1f\n        /* \"#utility.yul\":1704:1711   */\n      not\n        /* \"#utility.yul\":1699:1701   */\n      0x1f\n        /* \"#utility.yul\":1692:1697   */\n      dup4\n        /* \"#utility.yul\":1688:1702   */\n      add\n        /* \"#utility.yul\":1684:1712   */\n      and\n        /* \"#utility.yul\":1674:1712   */\n      swap1\n      pop\n        /* \"#utility.yul\":1616:1718   */\n      swap2\n      swap1\n      pop\n      jump\t// out\n        /* \"#utility.yul\":1724:2084   */\n    tag_33:\n        /* \"#utility.yul\":1810:1813   */\n      0x00\n        /* \"#utility.yul\":1838:1876   */\n      tag_61\n        /* \"#utility.yul\":1870:1875   */\n      dup3\n        /* \"#utility.yul\":1838:1876   */\n      tag_29\n      jump\t// in\n    tag_61:\n        /* \"#utility.yul\":1892:1962   */\n      tag_62\n        /* \"#utility.yul\":1955:1961   */\n      dup2\n        /* \"#utility.yul\":1950:1953   */\n      dup6\n        /* \"#utility.yul\":1892:1962   */\n      tag_30\n      jump\t// in\n    tag_62:\n        /* \"#utility.yul\":1885:1962   */\n      swap4\n      pop\n        /* \"#utility.yul\":1971:2023   */\n      tag_63\n        /* \"#utility.yul\":2016:2022   */\n      dup2\n        /* \"#utility.yul\":2011:2014   */\n      dup6\n        /* \"#utility.yul\":2004:2008   */\n      0x20\n        /* \"#utility.yul\":1997:2002   */\n      dup7\n        /* \"#utility.yul\":1993:2009   */\n      add\n        /* \"#utility.yul\":1971:2023   */\n      tag_31\n      jump\t// in\n    tag_63:\n        /* \"#utility.yul\":2048:2077   */\n      tag_64\n        /* \"#utility.yul\":2070:2076   */\n      dup2\n        /* \"#utility.yul\":2048:2077   */\n      tag_32\n      jump\t// in\n    tag_64:\n        /* \"#utility.yul\":2043:2046   */\n      dup5\n        /* \"#utility.yul\":2039:2078   */\n      add\n        /* \"#utility.yul\":2032:2078   */\n      swap2\n      pop\n        /* \"#utility.yul\":1814:2084   */\n      pop\n        /* \"#utility.yul\":1724:2084   */\n      swap3\n      swap2\n      pop\n      pop\n      jump\t// out\n        /* \"#utility.yul\":2090:2399   */\n    tag_10:\n        /* \"#utility.yul\":2201:2205   */\n      0x00\n        /* \"#utility.yul\":2239:2241   */\n      0x20\n        /* \"#utility.yul\":2228:2237   */\n      dup3\n        /* \"#utility.yul\":2224:2242   */\n      add\n        /* \"#utility.yul\":2216:2242   */\n      swap1\n      pop\n        /* \"#utility.yul\":2288:2297   */\n      dup2\n        /* \"#utility.yul\":2282:2286   */\n      dup2\n        /* \"#utility.yul\":2278:2298   */\n      sub\n        /* \"#utility.yul\":2274:2275   */\n      0x00\n        /* \"#utility.yul\":2263:2272   */\n      dup4\n        /* \"#utility.yul\":2259:2276   */\n      add\n        /* \"#utility.yul\":2252:2299   */\n      mstore\n        /* \"#utility.yul\":2316:2392   */\n      tag_66\n        /* \"#utility.yul\":2387:2391   */\n      dup2\n        /* \"#utility.yul\":2378:2384   */\n      dup5\n        /* \"#utility.yul\":2316:2392   */\n      tag_33\n      jump\t// in\n    tag_66:\n        /* \"#utility.yul\":2308:2392   */\n      swap1\n      pop\n        /* \"#utility.yul\":2090:2399   */\n      swap3\n      swap2\n      pop\n      pop\n      jump\t// out\n        /* \"#utility.yul\":2405:2531   */\n    tag_34:\n        /* \"#utility.yul\":2442:2449   */\n      0x00\n        /* \"#utility.yul\":2482:2524   */\n      0xffffffffffffffffffffffffffffffffffffffff\n        /* \"#utility.yul\":2475:2480   */\n      dup3\n        /* \"#utility.yul\":2471:2525   */\n      and\n        /* \"#utility.yul\":2460:2525   */\n      swap1\n      pop\n        /* \"#utility.yul\":2405:2531   */\n      swap2\n      swap1\n      pop\n      jump\t// out\n        /* \"#utility.yul\":2537:2633   */\n    tag_35:\n        /* \"#utility.yul\":2574:2581   */\n      0x00\n        /* \"#utility.yul\":2603:2627   */\n      tag_69\n        /* \"#utility.yul\":2621:2626   */\n      dup3\n        /* \"#utility.yul\":2603:2627   */\n      tag_34\n      jump\t// in\n    tag_69:\n        /* \"#utility.yul\":2592:2627   */\n      swap1\n      pop\n        /* \"#utility.yul\":2537:2633   */\n      swap2\n      swap1\n      pop\n      jump\t// out\n        /* \"#utility.yul\":2639:2757   */\n    tag_36:\n        /* \"#utility.yul\":2726:2750   */\n      tag_71\n        /* \"#utility.yul\":2744:2749   */\n      dup2\n        /* \"#utility.yul\":2726:2750   */\n      tag_35\n      jump\t// in\n    tag_71:\n        /* \"#utility.yul\":2721:2724   */\n      dup3\n        /* \"#utility.yul\":2714:2751   */\n      mstore\n        /* \"#utility.yul\":2639:2757   */\n      pop\n      pop\n      jump\t// out\n        /* \"#utility.yul\":2763:2985   */\n    tag_14:\n        /* \"#utility.yul\":2856:2860   */\n      0x00\n        /* \"#utility.yul\":2894:2896   */\n      0x20\n        /* \"#utility.yul\":2883:2892   */\n      dup3\n        /* \"#utility.yul\":2879:2897   */\n      add\n        /* \"#utility.yul\":2871:2897   */\n      swap1\n      pop\n        /* \"#utility.yul\":2907:2978   */\n      tag_73\n        /* \"#utility.yul\":2975:2976   */\n      0x00\n        /* \"#utility.yul\":2964:2973   */\n      dup4\n        /* \"#utility.yul\":2960:2977   */\n      add\n        /* \"#utility.yul\":2951:2957   */\n      dup5\n        /* \"#utility.yul\":2907:2978   */\n      tag_36\n      jump\t// in\n    tag_73:\n        /* \"#utility.yul\":2763:2985   */\n      swap3\n      swap2\n      pop\n      pop\n      jump\t// out\n        /* \"#utility.yul\":2991:3171   */\n    tag_37:\n        /* \"#utility.yul\":3039:3116   */\n      0x4e487b7100000000000000000000000000000000000000000000000000000000\n        /* \"#utility.yul\":3036:3037   */\n      0x00\n        /* \"#utility.yul\":3029:3117   */\n      mstore\n        /* \"#utility.yul\":3136:3140   */\n      0x22\n        /* \"#utility.yul\":3133:3134   */\n      0x04\n        /* \"#utility.yul\":3126:3141   */\n      mstore\n        /* \"#utility.yul\":3160:3164   */\n      0x24\n        /* \"#utility.yul\":3157:3158   */\n      0x00\n        /* \"#utility.yul\":3150:3165   */\n      revert\n        /* \"#utility.yul\":3177:3497   */\n    tag_18:\n        /* \"#utility.yul\":3221:3227   */\n      0x00\n        /* \"#utility.yul\":3258:3259   */\n      0x02\n        /* \"#utility.yul\":3252:3256   */\n      dup3\n        /* \"#utility.yul\":3248:3260   */\n      div\n        /* \"#utility.yul\":3238:3260   */\n      swap1\n      pop\n        /* \"#utility.yul\":3305:3306   */\n      0x01\n        /* \"#utility.yul\":3299:3303   */\n      dup3\n        /* \"#utility.yul\":3295:3307   */\n      and\n        /* \"#utility.yul\":3326:3344   */\n      dup1\n        /* \"#utility.yul\":3316:3397   */\n      tag_76\n      jumpi\n        /* \"#utility.yul\":3382:3386   */\n      0x7f\n        /* \"#utility.yul\":3374:3380   */\n      dup3\n        /* \"#utility.yul\":3370:3387   */\n      and\n        /* \"#utility.yul\":3360:3387   */\n      swap2\n      pop\n        /* \"#utility.yul\":3316:3397   */\n    tag_76:\n        /* \"#utility.yul\":3444:3446   */\n      0x20\n        /* \"#utility.yul\":3436:3442   */\n      dup3\n        /* \"#utility.yul\":3433:3447   */\n      lt\n        /* \"#utility.yul\":3413:3431   */\n      dup2\n        /* \"#utility.yul\":3410:3448   */\n      sub\n        /* \"#utility.yul\":3407:3491   */\n      tag_77\n      jumpi\n        /* \"#utility.yul\":3463:3481   */\n      tag_78\n      tag_37\n      jump\t// in\n    tag_78:\n        /* \"#utility.yul\":3407:3491   */\n    tag_77:\n        /* \"#utility.yul\":3228:3497   */\n      pop\n        /* \"#utility.yul\":3177:3497   */\n      swap2\n      swap1\n      pop\n      jump\t// out\n\n    auxdata: 0xa2646970667358221220769c611770be032db6b8d68608a94062cd0bd20dc333dc879e160cac478d4f6e64736f6c634300080d0033\n}\n",
				"bytecode": {
					"linkReferences": {},
					"object": "608060405234801561001057600080fd5b506040516105a13803806105a1833981810160405281019061003291906101db565b50610224565b6000604051905090565b600080fd5b600080fd5b600080fd5b6000601f19601f8301169050919050565b7f4e487b7100000000000000000000000000000000000000000000000000000000600052604160045260246000fd5b61009a82610051565b810181811067ffffffffffffffff821117156100b9576100b8610062565b5b80604052505050565b60006100cc610038565b90506100d88282610091565b919050565b600067ffffffffffffffff8211156100f8576100f7610062565b5b602082029050602081019050919050565b600080fd5b6000819050919050565b6101218161010e565b811461012c57600080fd5b50565b60008151905061013e81610118565b92915050565b6000610157610152846100dd565b6100c2565b9050808382526020820190506020840283018581111561017a57610179610109565b5b835b818110156101a3578061018f888261012f565b84526020840193505060208101905061017c565b5050509392505050565b600082601f8301126101c2576101c161004c565b5b81516101d2848260208601610144565b91505092915050565b6000602082840312156101f1576101f0610042565b5b600082015167ffffffffffffffff81111561020f5761020e610047565b5b61021b848285016101ad565b91505092915050565b61036e806102336000396000f3fe608060405234801561001057600080fd5b50600436106100365760003560e01c806330326c171461003b57806387f7b9751461006b575b600080fd5b61005560048036038101906100509190610194565b610089565b604051610062919061025a565b60405180910390f35b610073610135565b60405161008091906102bd565b60405180910390f35b6001818154811061009957600080fd5b9060005260206000200160009150905080546100b490610307565b80601f01602080910402602001604051908101604052809291908181526020018280546100e090610307565b801561012d5780601f106101025761010080835404028352916020019161012d565b820191906000526020600020905b81548152906001019060200180831161011057829003601f168201915b505050505081565b60008054906101000a900473ffffffffffffffffffffffffffffffffffffffff1681565b600080fd5b6000819050919050565b6101718161015e565b811461017c57600080fd5b50565b60008135905061018e81610168565b92915050565b6000602082840312156101aa576101a9610159565b5b60006101b88482850161017f565b91505092915050565b600081519050919050565b600082825260208201905092915050565b60005b838110156101fb5780820151818401526020810190506101e0565b8381111561020a576000848401525b50505050565b6000601f19601f8301169050919050565b600061022c826101c1565b61023681856101cc565b93506102468185602086016101dd565b61024f81610210565b840191505092915050565b600060208201905081810360008301526102748184610221565b905092915050565b600073ffffffffffffffffffffffffffffffffffffffff82169050919050565b60006102a78261027c565b9050919050565b6102b78161029c565b82525050565b60006020820190506102d260008301846102ae565b92915050565b7f4e487b7100000000000000000000000000000000000000000000000000000000600052602260045260246000fd5b6000600282049050600182168061031f57607f821691505b602082108103610332576103316102d8565b5b5091905056fea2646970667358221220769c611770be032db6b8d68608a94062cd0bd20dc333dc879e160cac478d4f6e64736f6c634300080d0033",
					"opcodes": "PUSH1 0x80 PUSH1 0x40 MSTORE CALLVALUE DUP1 ISZERO PUSH2 0x10 JUMPI PUSH1 0x0 DUP1 REVERT JUMPDEST POP PUSH1 0x40 MLOAD PUSH2 0x5A1 CODESIZE SUB DUP1 PUSH2 0x5A1 DUP4 CODECOPY DUP2 DUP2 ADD PUSH1 0x40 MSTORE DUP2 ADD SWAP1 PUSH2 0x32 SWAP2 SWAP1 PUSH2 0x1DB JUMP JUMPDEST POP PUSH2 0x224 JUMP JUMPDEST PUSH1 0x0 PUSH1 0x40 MLOAD SWAP1 POP SWAP1 JUMP JUMPDEST PUSH1 0x0 DUP1 REVERT JUMPDEST PUSH1 0x0 DUP1 REVERT JUMPDEST PUSH1 0x0 DUP1 REVERT JUMPDEST PUSH1 0x0 PUSH1 0x1F NOT PUSH1 0x1F DUP4 ADD AND SWAP1 POP SWAP2 SWAP1 POP JUMP JUMPDEST PUSH32 0x4E487B7100000000000000000000000000000000000000000000000000000000 PUSH1 0x0 MSTORE PUSH1 0x41 PUSH1 0x4 MSTORE PUSH1 0x24 PUSH1 0x0 REVERT JUMPDEST PUSH2 0x9A DUP3 PUSH2 0x51 JUMP JUMPDEST DUP2 ADD DUP2 DUP2 LT PUSH8 0xFFFFFFFFFFFFFFFF DUP3 GT OR ISZERO PUSH2 0xB9 JUMPI PUSH2 0xB8 PUSH2 0x62 JUMP JUMPDEST JUMPDEST DUP1 PUSH1 0x40 MSTORE POP POP POP JUMP JUMPDEST PUSH1 0x0 PUSH2 0xCC PUSH2 0x38 JUMP JUMPDEST SWAP1 POP PUSH2 0xD8 DUP3 DUP3 PUSH2 0x91 JUMP JUMPDEST SWAP2 SWAP1 POP JUMP JUMPDEST PUSH1 0x0 PUSH8 0xFFFFFFFFFFFFFFFF DUP3 GT ISZERO PUSH2 0xF8 JUMPI PUSH2 0xF7 PUSH2 0x62 JUMP JUMPDEST JUMPDEST PUSH1 0x20 DUP3 MUL SWAP1 POP PUSH1 0x20 DUP2 ADD SWAP1 POP SWAP2 SWAP1 POP JUMP JUMPDEST PUSH1 0x0 DUP1 REVERT JUMPDEST PUSH1 0x0 DUP2 SWAP1 POP SWAP2 SWAP1 POP JUMP JUMPDEST PUSH2 0x121 DUP2 PUSH2 0x10E JUMP JUMPDEST DUP2 EQ PUSH2 0x12C JUMPI PUSH1 0x0 DUP1 REVERT JUMPDEST POP JUMP JUMPDEST PUSH1 0x0 DUP2 MLOAD SWAP1 POP PUSH2 0x13E DUP2 PUSH2 0x118 JUMP JUMPDEST SWAP3 SWAP2 POP POP JUMP JUMPDEST PUSH1 0x0 PUSH2 0x157 PUSH2 0x152 DUP5 PUSH2 0xDD JUMP JUMPDEST PUSH2 0xC2 JUMP JUMPDEST SWAP1 POP DUP1 DUP4 DUP3 MSTORE PUSH1 0x20 DUP3 ADD SWAP1 POP PUSH1 0x20 DUP5 MUL DUP4 ADD DUP6 DUP2 GT ISZERO PUSH2 0x17A JUMPI PUSH2 0x179 PUSH2 0x109 JUMP JUMPDEST JUMPDEST DUP4 JUMPDEST DUP2 DUP2 LT ISZERO PUSH2 0x1A3 JUMPI DUP1 PUSH2 0x18F DUP9 DUP3 PUSH2 0x12F JUMP JUMPDEST DUP5 MSTORE PUSH1 0x20 DUP5 ADD SWAP4 POP POP PUSH1 0x20 DUP2 ADD SWAP1 POP PUSH2 0x17C JUMP JUMPDEST POP POP POP SWAP4 SWAP3 POP POP POP JUMP JUMPDEST PUSH1 0x0 DUP3 PUSH1 0x1F DUP4 ADD SLT PUSH2 0x1C2 JUMPI PUSH2 0x1C1 PUSH2 0x4C JUMP JUMPDEST JUMPDEST DUP2 MLOAD PUSH2 0x1D2 DUP5 DUP3 PUSH1 0x20 DUP7 ADD PUSH2 0x144 JUMP JUMPDEST SWAP2 POP POP SWAP3 SWAP2 POP POP JUMP JUMPDEST PUSH1 0x0 PUSH1 0x20 DUP3 DUP5 SUB SLT ISZERO PUSH2 0x1F1 JUMPI PUSH2 0x1F0 PUSH2 0x42 JUMP JUMPDEST JUMPDEST PUSH1 0x0 DUP3 ADD MLOAD PUSH8 0xFFFFFFFFFFFFFFFF DUP2 GT ISZERO PUSH2 0x20F JUMPI PUSH2 0x20E PUSH2 0x47 JUMP JUMPDEST JUMPDEST PUSH2 0x21B DUP5 DUP3 DUP6 ADD PUSH2 0x1AD JUMP JUMPDEST SWAP2 POP POP SWAP3 SWAP2 POP POP JUMP JUMPDEST PUSH2 0x36E DUP1 PUSH2 0x233 PUSH1 0x0 CODECOPY PUSH1 0x0 RETURN INVALID PUSH1 0x80 PUSH1 0x40 MSTORE CALLVALUE DUP1 ISZERO PUSH2 0x10 JUMPI PUSH1 0x0 DUP1 REVERT JUMPDEST POP PUSH1 0x4 CALLDATASIZE LT PUSH2 0x36 JUMPI PUSH1 0x0 CALLDATALOAD PUSH1 0xE0 SHR DUP1 PUSH4 0x30326C17 EQ PUSH2 0x3B JUMPI DUP1 PUSH4 0x87F7B975 EQ PUSH2 0x6B JUMPI JUMPDEST PUSH1 0x0 DUP1 REVERT JUMPDEST PUSH2 0x55 PUSH1 0x4 DUP1 CALLDATASIZE SUB DUP2 ADD SWAP1 PUSH2 0x50 SWAP2 SWAP1 PUSH2 0x194 JUMP JUMPDEST PUSH2 0x89 JUMP JUMPDEST PUSH1 0x40 MLOAD PUSH2 0x62 SWAP2 SWAP1 PUSH2 0x25A JUMP JUMPDEST PUSH1 0x40 MLOAD DUP1 SWAP2 SUB SWAP1 RETURN JUMPDEST PUSH2 0x73 PUSH2 0x135 JUMP JUMPDEST PUSH1 0x40 MLOAD PUSH2 0x80 SWAP2 SWAP1 PUSH2 0x2BD JUMP JUMPDEST PUSH1 0x40 MLOAD DUP1 SWAP2 SUB SWAP1 RETURN JUMPDEST PUSH1 0x1 DUP2 DUP2 SLOAD DUP2 LT PUSH2 0x99 JUMPI PUSH1 0x0 DUP1 REVERT JUMPDEST SWAP1 PUSH1 0x0 MSTORE PUSH1 0x20 PUSH1 0x0 KECCAK256 ADD PUSH1 0x0 SWAP2 POP SWAP1 POP DUP1 SLOAD PUSH2 0xB4 SWAP1 PUSH2 0x307 JUMP JUMPDEST DUP1 PUSH1 0x1F ADD PUSH1 0x20 DUP1 SWAP2 DIV MUL PUSH1 0x20 ADD PUSH1 0x40 MLOAD SWAP1 DUP2 ADD PUSH1 0x40 MSTORE DUP1 SWAP3 SWAP2 SWAP1 DUP2 DUP2 MSTORE PUSH1 0x20 ADD DUP3 DUP1 SLOAD PUSH2 0xE0 SWAP1 PUSH2 0x307 JUMP JUMPDEST DUP1 ISZERO PUSH2 0x12D JUMPI DUP1 PUSH1 0x1F LT PUSH2 0x102 JUMPI PUSH2 0x100 DUP1 DUP4 SLOAD DIV MUL DUP4 MSTORE SWAP2 PUSH1 0x20 ADD SWAP2 PUSH2 0x12D JUMP JUMPDEST DUP3 ADD SWAP2 SWAP1 PUSH1 0x0 MSTORE PUSH1 0x20 PUSH1 0x0 KECCAK256 SWAP1 JUMPDEST DUP2 SLOAD DUP2 MSTORE SWAP1 PUSH1 0x1 ADD SWAP1 PUSH1 0x20 ADD DUP1 DUP4 GT PUSH2 0x110 JUMPI DUP3 SWAP1 SUB PUSH1 0x1F AND DUP3 ADD SWAP2 JUMPDEST POP POP POP POP POP DUP2 JUMP JUMPDEST PUSH1 0x0 DUP1 SLOAD SWAP1 PUSH2 0x100 EXP SWAP1 DIV PUSH20 0xFFFFFFFFFFFFFFFFFFFFFFFFFFFFFFFFFFFFFFFF AND DUP2 JUMP JUMPDEST PUSH1 0x0 DUP1 REVERT JUMPDEST PUSH1 0x0 DUP2 SWAP1 POP SWAP2 SWAP1 POP JUMP JUMPDEST PUSH2 0x171 DUP2 PUSH2 0x15E JUMP JUMPDEST DUP2 EQ PUSH2 0x17C JUMPI PUSH1 0x0 DUP1 REVERT JUMPDEST POP JUMP JUMPDEST PUSH1 0x0 DUP2 CALLDATALOAD SWAP1 POP PUSH2 0x18E DUP2 PUSH2 0x168 JUMP JUMPDEST SWAP3 SWAP2 POP POP JUMP JUMPDEST PUSH1 0x0 PUSH1 0x20 DUP3 DUP5 SUB SLT ISZERO PUSH2 0x1AA JUMPI PUSH2 0x1A9 PUSH2 0x159 JUMP JUMPDEST JUMPDEST PUSH1 0x0 PUSH2 0x1B8 DUP5 DUP3 DUP6 ADD PUSH2 0x17F JUMP JUMPDEST SWAP2 POP POP SWAP3 SWAP2 POP POP JUMP JUMPDEST PUSH1 0x0 DUP2 MLOAD SWAP1 POP SWAP2 SWAP1 POP JUMP JUMPDEST PUSH1 0x0 DUP3 DUP3 MSTORE PUSH1 0x20 DUP3 ADD SWAP1 POP SWAP3 SWAP2 POP POP JUMP JUMPDEST PUSH1 0x0 JUMPDEST DUP4 DUP2 LT ISZERO PUSH2 0x1FB JUMPI DUP1 DUP3 ADD MLOAD DUP2 DUP5 ADD MSTORE PUSH1 0x20 DUP2 ADD SWAP1 POP PUSH2 0x1E0 JUMP JUMPDEST DUP4 DUP2 GT ISZERO PUSH2 0x20A JUMPI PUSH1 0x0 DUP5 DUP5 ADD MSTORE JUMPDEST POP POP POP POP JUMP JUMPDEST PUSH1 0x0 PUSH1 0x1F NOT PUSH1 0x1F DUP4 ADD AND SWAP1 POP SWAP2 SWAP1 POP JUMP JUMPDEST PUSH1 0x0 PUSH2 0x22C DUP3 PUSH2 0x1C1 JUMP JUMPDEST PUSH2 0x236 DUP2 DUP6 PUSH2 0x1CC JUMP JUMPDEST SWAP4 POP PUSH2 0x246 DUP2 DUP6 PUSH1 0x20 DUP7 ADD PUSH2 0x1DD JUMP JUMPDEST PUSH2 0x24F DUP2 PUSH2 0x210 JUMP JUMPDEST DUP5 ADD SWAP2 POP POP SWAP3 SWAP2 POP POP JUMP JUMPDEST PUSH1 0x0 PUSH1 0x20 DUP3 ADD SWAP1 POP DUP2 DUP2 SUB PUSH1 0x0 DUP4 ADD MSTORE PUSH2 0x274 DUP2 DUP5 PUSH2 0x221 JUMP JUMPDEST SWAP1 POP SWAP3 SWAP2 POP POP JUMP JUMPDEST PUSH1 0x0 PUSH20 0xFFFFFFFFFFFFFFFFFFFFFFFFFFFFFFFFFFFFFFFF DUP3 AND SWAP1 POP SWAP2 SWAP1 POP JUMP JUMPDEST PUSH1 0x0 PUSH2 0x2A7 DUP3 PUSH2 0x27C JUMP JUMPDEST SWAP1 POP SWAP2 SWAP1 POP JUMP JUMPDEST PUSH2 0x2B7 DUP2 PUSH2 0x29C JUMP JUMPDEST DUP3 MSTORE POP POP JUMP JUMPDEST PUSH1 0x0 PUSH1 0x20 DUP3 ADD SWAP1 POP PUSH2 0x2D2 PUSH1 0x0 DUP4 ADD DUP5 PUSH2 0x2AE JUMP JUMPDEST SWAP3 SWAP2 POP POP JUMP JUMPDEST PUSH32 0x4E487B7100000000000000000000000000000000000000000000000000000000 PUSH1 0x0 MSTORE PUSH1 0x22 PUSH1 0x4 MSTORE PUSH1 0x24 PUSH1 0x0 REVERT JUMPDEST PUSH1 0x0 PUSH1 0x2 DUP3 DIV SWAP1 POP PUSH1 0x1 DUP3 AND DUP1 PUSH2 0x31F JUMPI PUSH1 0x7F DUP3 AND SWAP2 POP JUMPDEST PUSH1 0x20 DUP3 LT DUP2 SUB PUSH2 0x332 JUMPI PUSH2 0x331 PUSH2 0x2D8 JUMP JUMPDEST JUMPDEST POP SWAP2 SWAP1 POP JUMP INVALID LOG2 PUSH5 0x6970667358 0x22 SLT KECCAK256 PUSH23 0x9C611770BE032DB6B8D68608A94062CD0BD20DC333DC87 SWAP15 AND 0xC 0xAC SELFBALANCE DUP14 0x4F PUSH15 0x64736F6C634300080D003300000000 "
				},
				"gasEstimates": {
					"creation": {
						"codeDepositCost": "175600",
						"executionCost": "infinite",
						"totalCost": "infinite"
					},
					"external": {
						"chairman()": "2511",
						"proposal(uint256)": "infinite"
					}
				},
				"methodIdentifiers": {
					"chairman()": "87f7b975",
					"proposal(uint256)": "30326c17"
				}
			},
			"userdoc": {
				"kind": "user",
				"methods": {},
				"version": 1
			}
		}
	}
}