{
	"contracts/Ballot.sol": {
		"Ballot": {
			"abi": [
				{
					"inputs": [
						{
							"internalType": "bytes32[]",
							"name": "proposalNames",
							"type": "bytes32[]"
						}
					],
					"stateMutability": "nonpayable",
					"type": "constructor"
				},
				{
					"inputs": [
						{
							"internalType": "uint256",
							"name": "",
							"type": "uint256"
						}
					],
					"name": "Proposals",
					"outputs": [
						{
							"internalType": "bytes32",
							"name": "name",
							"type": "bytes32"
						},
						{
							"internalType": "uint256",
							"name": "voteCount",
							"type": "uint256"
						}
					],
					"stateMutability": "view",
					"type": "function"
				},
				{
					"inputs": [],
					"name": "chairperson",
					"outputs": [
						{
							"internalType": "address",
							"name": "",
							"type": "address"
						}
					],
					"stateMutability": "view",
					"type": "function"
				},
				{
					"inputs": [
						{
							"internalType": "address",
							"name": "",
							"type": "address"
						}
					],
					"name": "voters",
					"outputs": [
						{
							"internalType": "uint256",
							"name": "weight",
							"type": "uint256"
						},
						{
							"internalType": "bool",
							"name": "voted",
							"type": "bool"
						},
						{
							"internalType": "address",
							"name": "delegate",
							"type": "address"
						},
						{
							"internalType": "uint256",
							"name": "vote",
							"type": "uint256"
						}
					],
					"stateMutability": "view",
					"type": "function"
				}
			],
			"devdoc": {
				"kind": "dev",
				"methods": {},
				"version": 1
			},
			"evm": {
				"assembly": "    /* \"contracts/Ballot.sol\":66:750  contract Ballot {... */\n  mstore(0x40, 0x80)\n    /* \"contracts/Ballot.sol\":557:747  constructor(bytes32[] memory proposalNames) {... */\n  callvalue\n  dup1\n  iszero\n  tag_1\n  jumpi\n  0x00\n  dup1\n  revert\ntag_1:\n  pop\n  mload(0x40)\n  sub(codesize, bytecodeSize)\n  dup1\n  bytecodeSize\n  dup4\n  codecopy\n  dup2\n  dup2\n  add\n  0x40\n  mstore\n  dup2\n  add\n  swap1\n  tag_2\n  swap2\n  swap1\n  tag_3\n  jump\t// in\ntag_2:\n    /* \"contracts/Ballot.sol\":623:633  msg.sender */\n  caller\n    /* \"contracts/Ballot.sol\":609:620  chairperson */\n  0x00\n  dup1\n    /* \"contracts/Ballot.sol\":609:633  chairperson = msg.sender */\n  0x0100\n  exp\n  dup2\n  sload\n  dup2\n  0xffffffffffffffffffffffffffffffffffffffff\n  mul\n  not\n  and\n  swap1\n  dup4\n  0xffffffffffffffffffffffffffffffffffffffff\n  and\n  mul\n  or\n  swap1\n  sstore\n  pop\n    /* \"contracts/Ballot.sol\":670:671  1 */\n  0x01\n    /* \"contracts/Ballot.sol\":641:647  voters */\n  dup1\n    /* \"contracts/Ballot.sol\":641:660  voters[chairperson] */\n  0x00\n    /* \"contracts/Ballot.sol\":648:659  chairperson */\n  dup1\n  0x00\n  swap1\n  sload\n  swap1\n  0x0100\n  exp\n  swap1\n  div\n  0xffffffffffffffffffffffffffffffffffffffff\n  and\n    /* \"contracts/Ballot.sol\":641:660  voters[chairperson] */\n  0xffffffffffffffffffffffffffffffffffffffff\n  and\n  0xffffffffffffffffffffffffffffffffffffffff\n  and\n  dup2\n  mstore\n  0x20\n  add\n  swap1\n  dup2\n  mstore\n  0x20\n  add\n  0x00\n  keccak256\n    /* \"contracts/Ballot.sol\":641:667  voters[chairperson].weight */\n  0x00\n  add\n    /* \"contracts/Ballot.sol\":641:671  voters[chairperson].weight = 1 */\n  dup2\n  swap1\n  sstore\n  pop\n    /* \"contracts/Ballot.sol\":684:690  uint i */\n  0x00\n    /* \"contracts/Ballot.sol\":679:743  for (uint i=0; i<proposalNames.length; i++) {... */\ntag_6:\n    /* \"contracts/Ballot.sol\":696:709  proposalNames */\n  dup2\n    /* \"contracts/Ballot.sol\":696:716  proposalNames.length */\n  mload\n    /* \"contracts/Ballot.sol\":694:695  i */\n  dup2\n    /* \"contracts/Ballot.sol\":694:716  i<proposalNames.length */\n  lt\n    /* \"contracts/Ballot.sol\":679:743  for (uint i=0; i<proposalNames.length; i++) {... */\n  iszero\n  tag_7\n  jumpi\n    /* \"contracts/Ballot.sol\":718:721  i++ */\n  dup1\n  dup1\n  tag_9\n  swap1\n  tag_10\n  jump\t// in\ntag_9:\n  swap2\n  pop\n  pop\n    /* \"contracts/Ballot.sol\":679:743  for (uint i=0; i<proposalNames.length; i++) {... */\n  jump(tag_6)\ntag_7:\n  pop\n    /* \"contracts/Ballot.sol\":557:747  constructor(bytes32[] memory proposalNames) {... */\n  pop\n    /* \"contracts/Ballot.sol\":66:750  contract Ballot {... */\n  jump(tag_11)\n    /* \"#utility.yul\":7:82   */\ntag_12:\n    /* \"#utility.yul\":40:46   */\n  0x00\n    /* \"#utility.yul\":73:75   */\n  0x40\n    /* \"#utility.yul\":67:76   */\n  mload\n    /* \"#utility.yul\":57:76   */\n  swap1\n  pop\n    /* \"#utility.yul\":7:82   */\n  swap1\n  jump\t// out\n    /* \"#utility.yul\":88:205   */\ntag_13:\n    /* \"#utility.yul\":197:198   */\n  0x00\n    /* \"#utility.yul\":194:195   */\n  dup1\n    /* \"#utility.yul\":187:199   */\n  revert\n    /* \"#utility.yul\":211:328   */\ntag_14:\n    /* \"#utility.yul\":320:321   */\n  0x00\n    /* \"#utility.yul\":317:318   */\n  dup1\n    /* \"#utility.yul\":310:322   */\n  revert\n    /* \"#utility.yul\":334:451   */\ntag_15:\n    /* \"#utility.yul\":443:444   */\n  0x00\n    /* \"#utility.yul\":440:441   */\n  dup1\n    /* \"#utility.yul\":433:445   */\n  revert\n    /* \"#utility.yul\":457:559   */\ntag_16:\n    /* \"#utility.yul\":498:504   */\n  0x00\n    /* \"#utility.yul\":549:551   */\n  0x1f\n    /* \"#utility.yul\":545:552   */\n  not\n    /* \"#utility.yul\":540:542   */\n  0x1f\n    /* \"#utility.yul\":533:538   */\n  dup4\n    /* \"#utility.yul\":529:543   */\n  add\n    /* \"#utility.yul\":525:553   */\n  and\n    /* \"#utility.yul\":515:553   */\n  swap1\n  pop\n    /* \"#utility.yul\":457:559   */\n  swap2\n  swap1\n  pop\n  jump\t// out\n    /* \"#utility.yul\":565:745   */\ntag_17:\n    /* \"#utility.yul\":613:690   */\n  0x4e487b7100000000000000000000000000000000000000000000000000000000\n    /* \"#utility.yul\":610:611   */\n  0x00\n    /* \"#utility.yul\":603:691   */\n  mstore\n    /* \"#utility.yul\":710:714   */\n  0x41\n    /* \"#utility.yul\":707:708   */\n  0x04\n    /* \"#utility.yul\":700:715   */\n  mstore\n    /* \"#utility.yul\":734:738   */\n  0x24\n    /* \"#utility.yul\":731:732   */\n  0x00\n    /* \"#utility.yul\":724:739   */\n  revert\n    /* \"#utility.yul\":751:1032   */\ntag_18:\n    /* \"#utility.yul\":834:861   */\n  tag_37\n    /* \"#utility.yul\":856:860   */\n  dup3\n    /* \"#utility.yul\":834:861   */\n  tag_16\n  jump\t// in\ntag_37:\n    /* \"#utility.yul\":826:832   */\n  dup2\n    /* \"#utility.yul\":822:862   */\n  add\n    /* \"#utility.yul\":964:970   */\n  dup2\n    /* \"#utility.yul\":952:962   */\n  dup2\n    /* \"#utility.yul\":949:971   */\n  lt\n    /* \"#utility.yul\":928:946   */\n  0xffffffffffffffff\n    /* \"#utility.yul\":916:926   */\n  dup3\n    /* \"#utility.yul\":913:947   */\n  gt\n    /* \"#utility.yul\":910:972   */\n  or\n    /* \"#utility.yul\":907:995   */\n  iszero\n  tag_38\n  jumpi\n    /* \"#utility.yul\":975:993   */\n  tag_39\n  tag_17\n  jump\t// in\ntag_39:\n    /* \"#utility.yul\":907:995   */\ntag_38:\n    /* \"#utility.yul\":1015:1025   */\n  dup1\n    /* \"#utility.yul\":1011:1013   */\n  0x40\n    /* \"#utility.yul\":1004:1026   */\n  mstore\n    /* \"#utility.yul\":794:1032   */\n  pop\n    /* \"#utility.yul\":751:1032   */\n  pop\n  pop\n  jump\t// out\n    /* \"#utility.yul\":1038:1167   */\ntag_19:\n    /* \"#utility.yul\":1072:1078   */\n  0x00\n    /* \"#utility.yul\":1099:1119   */\n  tag_41\n  tag_12\n  jump\t// in\ntag_41:\n    /* \"#utility.yul\":1089:1119   */\n  swap1\n  pop\n    /* \"#utility.yul\":1128:1161   */\n  tag_42\n    /* \"#utility.yul\":1156:1160   */\n  dup3\n    /* \"#utility.yul\":1148:1154   */\n  dup3\n    /* \"#utility.yul\":1128:1161   */\n  tag_18\n  jump\t// in\ntag_42:\n    /* \"#utility.yul\":1038:1167   */\n  swap2\n  swap1\n  pop\n  jump\t// out\n    /* \"#utility.yul\":1173:1484   */\ntag_20:\n    /* \"#utility.yul\":1250:1254   */\n  0x00\n    /* \"#utility.yul\":1340:1358   */\n  0xffffffffffffffff\n    /* \"#utility.yul\":1332:1338   */\n  dup3\n    /* \"#utility.yul\":1329:1359   */\n  gt\n    /* \"#utility.yul\":1326:1382   */\n  iszero\n  tag_44\n  jumpi\n    /* \"#utility.yul\":1362:1380   */\n  tag_45\n  tag_17\n  jump\t// in\ntag_45:\n    /* \"#utility.yul\":1326:1382   */\ntag_44:\n    /* \"#utility.yul\":1412:1416   */\n  0x20\n    /* \"#utility.yul\":1404:1410   */\n  dup3\n    /* \"#utility.yul\":1400:1417   */\n  mul\n    /* \"#utility.yul\":1392:1417   */\n  swap1\n  pop\n    /* \"#utility.yul\":1472:1476   */\n  0x20\n    /* \"#utility.yul\":1466:1470   */\n  dup2\n    /* \"#utility.yul\":1462:1477   */\n  add\n    /* \"#utility.yul\":1454:1477   */\n  swap1\n  pop\n    /* \"#utility.yul\":1173:1484   */\n  swap2\n  swap1\n  pop\n  jump\t// out\n    /* \"#utility.yul\":1490:1607   */\ntag_21:\n    /* \"#utility.yul\":1599:1600   */\n  0x00\n    /* \"#utility.yul\":1596:1597   */\n  dup1\n    /* \"#utility.yul\":1589:1601   */\n  revert\n    /* \"#utility.yul\":1613:1690   */\ntag_22:\n    /* \"#utility.yul\":1650:1657   */\n  0x00\n    /* \"#utility.yul\":1679:1684   */\n  dup2\n    /* \"#utility.yul\":1668:1684   */\n  swap1\n  pop\n    /* \"#utility.yul\":1613:1690   */\n  swap2\n  swap1\n  pop\n  jump\t// out\n    /* \"#utility.yul\":1696:1818   */\ntag_23:\n    /* \"#utility.yul\":1769:1793   */\n  tag_49\n    /* \"#utility.yul\":1787:1792   */\n  dup2\n    /* \"#utility.yul\":1769:1793   */\n  tag_22\n  jump\t// in\ntag_49:\n    /* \"#utility.yul\":1762:1767   */\n  dup2\n    /* \"#utility.yul\":1759:1794   */\n  eq\n    /* \"#utility.yul\":1749:1812   */\n  tag_50\n  jumpi\n    /* \"#utility.yul\":1808:1809   */\n  0x00\n    /* \"#utility.yul\":1805:1806   */\n  dup1\n    /* \"#utility.yul\":1798:1810   */\n  revert\n    /* \"#utility.yul\":1749:1812   */\ntag_50:\n    /* \"#utility.yul\":1696:1818   */\n  pop\n  jump\t// out\n    /* \"#utility.yul\":1824:1967   */\ntag_24:\n    /* \"#utility.yul\":1881:1886   */\n  0x00\n    /* \"#utility.yul\":1912:1918   */\n  dup2\n    /* \"#utility.yul\":1906:1919   */\n  mload\n    /* \"#utility.yul\":1897:1919   */\n  swap1\n  pop\n    /* \"#utility.yul\":1928:1961   */\n  tag_52\n    /* \"#utility.yul\":1955:1960   */\n  dup2\n    /* \"#utility.yul\":1928:1961   */\n  tag_23\n  jump\t// in\ntag_52:\n    /* \"#utility.yul\":1824:1967   */\n  swap3\n  swap2\n  pop\n  pop\n  jump\t// out\n    /* \"#utility.yul\":1990:2722   */\ntag_25:\n    /* \"#utility.yul\":2097:2102   */\n  0x00\n    /* \"#utility.yul\":2122:2203   */\n  tag_54\n    /* \"#utility.yul\":2138:2202   */\n  tag_55\n    /* \"#utility.yul\":2195:2201   */\n  dup5\n    /* \"#utility.yul\":2138:2202   */\n  tag_20\n  jump\t// in\ntag_55:\n    /* \"#utility.yul\":2122:2203   */\n  tag_19\n  jump\t// in\ntag_54:\n    /* \"#utility.yul\":2113:2203   */\n  swap1\n  pop\n    /* \"#utility.yul\":2223:2228   */\n  dup1\n    /* \"#utility.yul\":2252:2258   */\n  dup4\n    /* \"#utility.yul\":2245:2250   */\n  dup3\n    /* \"#utility.yul\":2238:2259   */\n  mstore\n    /* \"#utility.yul\":2286:2290   */\n  0x20\n    /* \"#utility.yul\":2279:2284   */\n  dup3\n    /* \"#utility.yul\":2275:2291   */\n  add\n    /* \"#utility.yul\":2268:2291   */\n  swap1\n  pop\n    /* \"#utility.yul\":2339:2343   */\n  0x20\n    /* \"#utility.yul\":2331:2337   */\n  dup5\n    /* \"#utility.yul\":2327:2344   */\n  mul\n    /* \"#utility.yul\":2319:2325   */\n  dup4\n    /* \"#utility.yul\":2315:2345   */\n  add\n    /* \"#utility.yul\":2368:2371   */\n  dup6\n    /* \"#utility.yul\":2360:2366   */\n  dup2\n    /* \"#utility.yul\":2357:2372   */\n  gt\n    /* \"#utility.yul\":2354:2476   */\n  iszero\n  tag_56\n  jumpi\n    /* \"#utility.yul\":2387:2466   */\n  tag_57\n  tag_21\n  jump\t// in\ntag_57:\n    /* \"#utility.yul\":2354:2476   */\ntag_56:\n    /* \"#utility.yul\":2502:2508   */\n  dup4\n    /* \"#utility.yul\":2485:2716   */\ntag_58:\n    /* \"#utility.yul\":2519:2525   */\n  dup2\n    /* \"#utility.yul\":2514:2517   */\n  dup2\n    /* \"#utility.yul\":2511:2526   */\n  lt\n    /* \"#utility.yul\":2485:2716   */\n  iszero\n  tag_60\n  jumpi\n    /* \"#utility.yul\":2594:2597   */\n  dup1\n    /* \"#utility.yul\":2623:2671   */\n  tag_61\n    /* \"#utility.yul\":2667:2670   */\n  dup9\n    /* \"#utility.yul\":2655:2665   */\n  dup3\n    /* \"#utility.yul\":2623:2671   */\n  tag_24\n  jump\t// in\ntag_61:\n    /* \"#utility.yul\":2618:2621   */\n  dup5\n    /* \"#utility.yul\":2611:2672   */\n  mstore\n    /* \"#utility.yul\":2701:2705   */\n  0x20\n    /* \"#utility.yul\":2696:2699   */\n  dup5\n    /* \"#utility.yul\":2692:2706   */\n  add\n    /* \"#utility.yul\":2685:2706   */\n  swap4\n  pop\n    /* \"#utility.yul\":2561:2716   */\n  pop\n    /* \"#utility.yul\":2545:2549   */\n  0x20\n    /* \"#utility.yul\":2540:2543   */\n  dup2\n    /* \"#utility.yul\":2536:2550   */\n  add\n    /* \"#utility.yul\":2529:2550   */\n  swap1\n  pop\n    /* \"#utility.yul\":2485:2716   */\n  jump(tag_58)\ntag_60:\n    /* \"#utility.yul\":2489:2510   */\n  pop\n    /* \"#utility.yul\":2103:2722   */\n  pop\n  pop\n    /* \"#utility.yul\":1990:2722   */\n  swap4\n  swap3\n  pop\n  pop\n  pop\n  jump\t// out\n    /* \"#utility.yul\":2745:3130   */\ntag_26:\n    /* \"#utility.yul\":2827:2832   */\n  0x00\n    /* \"#utility.yul\":2876:2879   */\n  dup3\n    /* \"#utility.yul\":2869:2873   */\n  0x1f\n    /* \"#utility.yul\":2861:2867   */\n  dup4\n    /* \"#utility.yul\":2857:2874   */\n  add\n    /* \"#utility.yul\":2853:2880   */\n  slt\n    /* \"#utility.yul\":2843:2965   */\n  tag_63\n  jumpi\n    /* \"#utility.yul\":2884:2963   */\n  tag_64\n  tag_15\n  jump\t// in\ntag_64:\n    /* \"#utility.yul\":2843:2965   */\ntag_63:\n    /* \"#utility.yul\":2994:3000   */\n  dup2\n    /* \"#utility.yul\":2988:3001   */\n  mload\n    /* \"#utility.yul\":3019:3124   */\n  tag_65\n    /* \"#utility.yul\":3120:3123   */\n  dup5\n    /* \"#utility.yul\":3112:3118   */\n  dup3\n    /* \"#utility.yul\":3105:3109   */\n  0x20\n    /* \"#utility.yul\":3097:3103   */\n  dup7\n    /* \"#utility.yul\":3093:3110   */\n  add\n    /* \"#utility.yul\":3019:3124   */\n  tag_25\n  jump\t// in\ntag_65:\n    /* \"#utility.yul\":3010:3124   */\n  swap2\n  pop\n    /* \"#utility.yul\":2833:3130   */\n  pop\n    /* \"#utility.yul\":2745:3130   */\n  swap3\n  swap2\n  pop\n  pop\n  jump\t// out\n    /* \"#utility.yul\":3136:3690   */\ntag_3:\n    /* \"#utility.yul\":3231:3237   */\n  0x00\n    /* \"#utility.yul\":3280:3282   */\n  0x20\n    /* \"#utility.yul\":3268:3277   */\n  dup3\n    /* \"#utility.yul\":3259:3266   */\n  dup5\n    /* \"#utility.yul\":3255:3278   */\n  sub\n    /* \"#utility.yul\":3251:3283   */\n  slt\n    /* \"#utility.yul\":3248:3367   */\n  iszero\n  tag_67\n  jumpi\n    /* \"#utility.yul\":3286:3365   */\n  tag_68\n  tag_13\n  jump\t// in\ntag_68:\n    /* \"#utility.yul\":3248:3367   */\ntag_67:\n    /* \"#utility.yul\":3427:3428   */\n  0x00\n    /* \"#utility.yul\":3416:3425   */\n  dup3\n    /* \"#utility.yul\":3412:3429   */\n  add\n    /* \"#utility.yul\":3406:3430   */\n  mload\n    /* \"#utility.yul\":3457:3475   */\n  0xffffffffffffffff\n    /* \"#utility.yul\":3449:3455   */\n  dup2\n    /* \"#utility.yul\":3446:3476   */\n  gt\n    /* \"#utility.yul\":3443:3560   */\n  iszero\n  tag_69\n  jumpi\n    /* \"#utility.yul\":3479:3558   */\n  tag_70\n  tag_14\n  jump\t// in\ntag_70:\n    /* \"#utility.yul\":3443:3560   */\ntag_69:\n    /* \"#utility.yul\":3584:3673   */\n  tag_71\n    /* \"#utility.yul\":3665:3672   */\n  dup5\n    /* \"#utility.yul\":3656:3662   */\n  dup3\n    /* \"#utility.yul\":3645:3654   */\n  dup6\n    /* \"#utility.yul\":3641:3663   */\n  add\n    /* \"#utility.yul\":3584:3673   */\n  tag_26\n  jump\t// in\ntag_71:\n    /* \"#utility.yul\":3574:3673   */\n  swap2\n  pop\n    /* \"#utility.yul\":3377:3683   */\n  pop\n    /* \"#utility.yul\":3136:3690   */\n  swap3\n  swap2\n  pop\n  pop\n  jump\t// out\n    /* \"#utility.yul\":3696:3876   */\ntag_27:\n    /* \"#utility.yul\":3744:3821   */\n  0x4e487b7100000000000000000000000000000000000000000000000000000000\n    /* \"#utility.yul\":3741:3742   */\n  0x00\n    /* \"#utility.yul\":3734:3822   */\n  mstore\n    /* \"#utility.yul\":3841:3845   */\n  0x11\n    /* \"#utility.yul\":3838:3839   */\n  0x04\n    /* \"#utility.yul\":3831:3846   */\n  mstore\n    /* \"#utility.yul\":3865:3869   */\n  0x24\n    /* \"#utility.yul\":3862:3863   */\n  0x00\n    /* \"#utility.yul\":3855:3870   */\n  revert\n    /* \"#utility.yul\":3882:3959   */\ntag_28:\n    /* \"#utility.yul\":3919:3926   */\n  0x00\n    /* \"#utility.yul\":3948:3953   */\n  dup2\n    /* \"#utility.yul\":3937:3953   */\n  swap1\n  pop\n    /* \"#utility.yul\":3882:3959   */\n  swap2\n  swap1\n  pop\n  jump\t// out\n    /* \"#utility.yul\":3965:4198   */\ntag_10:\n    /* \"#utility.yul\":4004:4007   */\n  0x00\n    /* \"#utility.yul\":4027:4051   */\n  tag_75\n    /* \"#utility.yul\":4045:4050   */\n  dup3\n    /* \"#utility.yul\":4027:4051   */\n  tag_28\n  jump\t// in\ntag_75:\n    /* \"#utility.yul\":4018:4051   */\n  swap2\n  pop\n    /* \"#utility.yul\":4073:4139   */\n  0xffffffffffffffffffffffffffffffffffffffffffffffffffffffffffffffff\n    /* \"#utility.yul\":4066:4071   */\n  dup3\n    /* \"#utility.yul\":4063:4140   */\n  sub\n    /* \"#utility.yul\":4060:4163   */\n  tag_76\n  jumpi\n    /* \"#utility.yul\":4143:4161   */\n  tag_77\n  tag_27\n  jump\t// in\ntag_77:\n    /* \"#utility.yul\":4060:4163   */\ntag_76:\n    /* \"#utility.yul\":4190:4191   */\n  0x01\n    /* \"#utility.yul\":4183:4188   */\n  dup3\n    /* \"#utility.yul\":4179:4192   */\n  add\n    /* \"#utility.yul\":4172:4192   */\n  swap1\n  pop\n    /* \"#utility.yul\":3965:4198   */\n  swap2\n  swap1\n  pop\n  jump\t// out\n    /* \"contracts/Ballot.sol\":66:750  contract Ballot {... */\ntag_11:\n  dataSize(sub_0)\n  dup1\n  dataOffset(sub_0)\n  0x00\n  codecopy\n  0x00\n  return\nstop\n\nsub_0: assembly {\n        /* \"contracts/Ballot.sol\":66:750  contract Ballot {... */\n      mstore(0x40, 0x80)\n      callvalue\n      dup1\n      iszero\n      tag_1\n      jumpi\n      0x00\n      dup1\n      revert\n    tag_1:\n      pop\n      jumpi(tag_2, lt(calldatasize, 0x04))\n      shr(0xe0, calldataload(0x00))\n      dup1\n      0x2e4176cf\n      eq\n      tag_3\n      jumpi\n      dup1\n      0xa3ec138d\n      eq\n      tag_4\n      jumpi\n      dup1\n      0xd1dbe7d8\n      eq\n      tag_5\n      jumpi\n    tag_2:\n      0x00\n      dup1\n      revert\n        /* \"contracts/Ballot.sol\":335:361  address public chairperson */\n    tag_3:\n      tag_6\n      tag_7\n      jump\t// in\n    tag_6:\n      mload(0x40)\n      tag_8\n      swap2\n      swap1\n      tag_9\n      jump\t// in\n    tag_8:\n      mload(0x40)\n      dup1\n      swap2\n      sub\n      swap1\n      return\n        /* \"contracts/Ballot.sol\":441:480  mapping(address => Voter) public voters */\n    tag_4:\n      tag_10\n      0x04\n      dup1\n      calldatasize\n      sub\n      dup2\n      add\n      swap1\n      tag_11\n      swap2\n      swap1\n      tag_12\n      jump\t// in\n    tag_11:\n      tag_13\n      jump\t// in\n    tag_10:\n      mload(0x40)\n      tag_14\n      swap5\n      swap4\n      swap3\n      swap2\n      swap1\n      tag_15\n      jump\t// in\n    tag_14:\n      mload(0x40)\n      dup1\n      swap2\n      sub\n      swap1\n      return\n        /* \"contracts/Ballot.sol\":523:550  Proposal[] public Proposals */\n    tag_5:\n      tag_16\n      0x04\n      dup1\n      calldatasize\n      sub\n      dup2\n      add\n      swap1\n      tag_17\n      swap2\n      swap1\n      tag_18\n      jump\t// in\n    tag_17:\n      tag_19\n      jump\t// in\n    tag_16:\n      mload(0x40)\n      tag_20\n      swap3\n      swap2\n      swap1\n      tag_21\n      jump\t// in\n    tag_20:\n      mload(0x40)\n      dup1\n      swap2\n      sub\n      swap1\n      return\n        /* \"contracts/Ballot.sol\":335:361  address public chairperson */\n    tag_7:\n      0x00\n      dup1\n      sload\n      swap1\n      0x0100\n      exp\n      swap1\n      div\n      0xffffffffffffffffffffffffffffffffffffffff\n      and\n      dup2\n      jump\t// out\n        /* \"contracts/Ballot.sol\":441:480  mapping(address => Voter) public voters */\n    tag_13:\n      mstore(0x20, 0x01)\n      dup1\n      0x00\n      mstore\n      keccak256(0x00, 0x40)\n      0x00\n      swap2\n      pop\n      swap1\n      pop\n      dup1\n      0x00\n      add\n      sload\n      swap1\n      dup1\n      0x01\n      add\n      0x00\n      swap1\n      sload\n      swap1\n      0x0100\n      exp\n      swap1\n      div\n      0xff\n      and\n      swap1\n      dup1\n      0x01\n      add\n      0x01\n      swap1\n      sload\n      swap1\n      0x0100\n      exp\n      swap1\n      div\n      0xffffffffffffffffffffffffffffffffffffffff\n      and\n      swap1\n      dup1\n      0x02\n      add\n      sload\n      swap1\n      pop\n      dup5\n      jump\t// out\n        /* \"contracts/Ballot.sol\":523:550  Proposal[] public Proposals */\n    tag_19:\n      0x02\n      dup2\n      dup2\n      sload\n      dup2\n      lt\n      tag_22\n      jumpi\n      0x00\n      dup1\n      revert\n    tag_22:\n      swap1\n      0x00\n      mstore\n      keccak256(0x00, 0x20)\n      swap1\n      0x02\n      mul\n      add\n      0x00\n      swap2\n      pop\n      swap1\n      pop\n      dup1\n      0x00\n      add\n      sload\n      swap1\n      dup1\n      0x01\n      add\n      sload\n      swap1\n      pop\n      dup3\n      jump\t// out\n        /* \"#utility.yul\":7:133   */\n    tag_24:\n        /* \"#utility.yul\":44:51   */\n      0x00\n        /* \"#utility.yul\":84:126   */\n      0xffffffffffffffffffffffffffffffffffffffff\n        /* \"#utility.yul\":77:82   */\n      dup3\n        /* \"#utility.yul\":73:127   */\n      and\n        /* \"#utility.yul\":62:127   */\n      swap1\n      pop\n        /* \"#utility.yul\":7:133   */\n      swap2\n      swap1\n      pop\n      jump\t// out\n        /* \"#utility.yul\":139:235   */\n    tag_25:\n        /* \"#utility.yul\":176:183   */\n      0x00\n        /* \"#utility.yul\":205:229   */\n      tag_43\n        /* \"#utility.yul\":223:228   */\n      dup3\n        /* \"#utility.yul\":205:229   */\n      tag_24\n      jump\t// in\n    tag_43:\n        /* \"#utility.yul\":194:229   */\n      swap1\n      pop\n        /* \"#utility.yul\":139:235   */\n      swap2\n      swap1\n      pop\n      jump\t// out\n        /* \"#utility.yul\":241:359   */\n    tag_26:\n        /* \"#utility.yul\":328:352   */\n      tag_45\n        /* \"#utility.yul\":346:351   */\n      dup2\n        /* \"#utility.yul\":328:352   */\n      tag_25\n      jump\t// in\n    tag_45:\n        /* \"#utility.yul\":323:326   */\n      dup3\n        /* \"#utility.yul\":316:353   */\n      mstore\n        /* \"#utility.yul\":241:359   */\n      pop\n      pop\n      jump\t// out\n        /* \"#utility.yul\":365:587   */\n    tag_9:\n        /* \"#utility.yul\":458:462   */\n      0x00\n        /* \"#utility.yul\":496:498   */\n      0x20\n        /* \"#utility.yul\":485:494   */\n      dup3\n        /* \"#utility.yul\":481:499   */\n      add\n        /* \"#utility.yul\":473:499   */\n      swap1\n      pop\n        /* \"#utility.yul\":509:580   */\n      tag_47\n        /* \"#utility.yul\":577:578   */\n      0x00\n        /* \"#utility.yul\":566:575   */\n      dup4\n        /* \"#utility.yul\":562:579   */\n      add\n        /* \"#utility.yul\":553:559   */\n      dup5\n        /* \"#utility.yul\":509:580   */\n      tag_26\n      jump\t// in\n    tag_47:\n        /* \"#utility.yul\":365:587   */\n      swap3\n      swap2\n      pop\n      pop\n      jump\t// out\n        /* \"#utility.yul\":674:791   */\n    tag_28:\n        /* \"#utility.yul\":783:784   */\n      0x00\n        /* \"#utility.yul\":780:781   */\n      dup1\n        /* \"#utility.yul\":773:785   */\n      revert\n        /* \"#utility.yul\":920:1042   */\n    tag_30:\n        /* \"#utility.yul\":993:1017   */\n      tag_52\n        /* \"#utility.yul\":1011:1016   */\n      dup2\n        /* \"#utility.yul\":993:1017   */\n      tag_25\n      jump\t// in\n    tag_52:\n        /* \"#utility.yul\":986:991   */\n      dup2\n        /* \"#utility.yul\":983:1018   */\n      eq\n        /* \"#utility.yul\":973:1036   */\n      tag_53\n      jumpi\n        /* \"#utility.yul\":1032:1033   */\n      0x00\n        /* \"#utility.yul\":1029:1030   */\n      dup1\n        /* \"#utility.yul\":1022:1034   */\n      revert\n        /* \"#utility.yul\":973:1036   */\n    tag_53:\n        /* \"#utility.yul\":920:1042   */\n      pop\n      jump\t// out\n        /* \"#utility.yul\":1048:1187   */\n    tag_31:\n        /* \"#utility.yul\":1094:1099   */\n      0x00\n        /* \"#utility.yul\":1132:1138   */\n      dup2\n        /* \"#utility.yul\":1119:1139   */\n      calldataload\n        /* \"#utility.yul\":1110:1139   */\n      swap1\n      pop\n        /* \"#utility.yul\":1148:1181   */\n      tag_55\n        /* \"#utility.yul\":1175:1180   */\n      dup2\n        /* \"#utility.yul\":1148:1181   */\n      tag_30\n      jump\t// in\n    tag_55:\n        /* \"#utility.yul\":1048:1187   */\n      swap3\n      swap2\n      pop\n      pop\n      jump\t// out\n        /* \"#utility.yul\":1193:1522   */\n    tag_12:\n        /* \"#utility.yul\":1252:1258   */\n      0x00\n        /* \"#utility.yul\":1301:1303   */\n      0x20\n        /* \"#utility.yul\":1289:1298   */\n      dup3\n        /* \"#utility.yul\":1280:1287   */\n      dup5\n        /* \"#utility.yul\":1276:1299   */\n      sub\n        /* \"#utility.yul\":1272:1304   */\n      slt\n        /* \"#utility.yul\":1269:1388   */\n      iszero\n      tag_57\n      jumpi\n        /* \"#utility.yul\":1307:1386   */\n      tag_58\n      tag_28\n      jump\t// in\n    tag_58:\n        /* \"#utility.yul\":1269:1388   */\n    tag_57:\n        /* \"#utility.yul\":1427:1428   */\n      0x00\n        /* \"#utility.yul\":1452:1505   */\n      tag_59\n        /* \"#utility.yul\":1497:1504   */\n      dup5\n        /* \"#utility.yul\":1488:1494   */\n      dup3\n        /* \"#utility.yul\":1477:1486   */\n      dup6\n        /* \"#utility.yul\":1473:1495   */\n      add\n        /* \"#utility.yul\":1452:1505   */\n      tag_31\n      jump\t// in\n    tag_59:\n        /* \"#utility.yul\":1442:1505   */\n      swap2\n      pop\n        /* \"#utility.yul\":1398:1515   */\n      pop\n        /* \"#utility.yul\":1193:1522   */\n      swap3\n      swap2\n      pop\n      pop\n      jump\t// out\n        /* \"#utility.yul\":1528:1605   */\n    tag_32:\n        /* \"#utility.yul\":1565:1572   */\n      0x00\n        /* \"#utility.yul\":1594:1599   */\n      dup2\n        /* \"#utility.yul\":1583:1599   */\n      swap1\n      pop\n        /* \"#utility.yul\":1528:1605   */\n      swap2\n      swap1\n      pop\n      jump\t// out\n        /* \"#utility.yul\":1611:1729   */\n    tag_33:\n        /* \"#utility.yul\":1698:1722   */\n      tag_62\n        /* \"#utility.yul\":1716:1721   */\n      dup2\n        /* \"#utility.yul\":1698:1722   */\n      tag_32\n      jump\t// in\n    tag_62:\n        /* \"#utility.yul\":1693:1696   */\n      dup3\n        /* \"#utility.yul\":1686:1723   */\n      mstore\n        /* \"#utility.yul\":1611:1729   */\n      pop\n      pop\n      jump\t// out\n        /* \"#utility.yul\":1735:1825   */\n    tag_34:\n        /* \"#utility.yul\":1769:1776   */\n      0x00\n        /* \"#utility.yul\":1812:1817   */\n      dup2\n        /* \"#utility.yul\":1805:1818   */\n      iszero\n        /* \"#utility.yul\":1798:1819   */\n      iszero\n        /* \"#utility.yul\":1787:1819   */\n      swap1\n      pop\n        /* \"#utility.yul\":1735:1825   */\n      swap2\n      swap1\n      pop\n      jump\t// out\n        /* \"#utility.yul\":1831:1940   */\n    tag_35:\n        /* \"#utility.yul\":1912:1933   */\n      tag_65\n        /* \"#utility.yul\":1927:1932   */\n      dup2\n        /* \"#utility.yul\":1912:1933   */\n      tag_34\n      jump\t// in\n    tag_65:\n        /* \"#utility.yul\":1907:1910   */\n      dup3\n        /* \"#utility.yul\":1900:1934   */\n      mstore\n        /* \"#utility.yul\":1831:1940   */\n      pop\n      pop\n      jump\t// out\n        /* \"#utility.yul\":1946:2487   */\n    tag_15:\n        /* \"#utility.yul\":2117:2121   */\n      0x00\n        /* \"#utility.yul\":2155:2158   */\n      0x80\n        /* \"#utility.yul\":2144:2153   */\n      dup3\n        /* \"#utility.yul\":2140:2159   */\n      add\n        /* \"#utility.yul\":2132:2159   */\n      swap1\n      pop\n        /* \"#utility.yul\":2169:2240   */\n      tag_67\n        /* \"#utility.yul\":2237:2238   */\n      0x00\n        /* \"#utility.yul\":2226:2235   */\n      dup4\n        /* \"#utility.yul\":2222:2239   */\n      add\n        /* \"#utility.yul\":2213:2219   */\n      dup8\n        /* \"#utility.yul\":2169:2240   */\n      tag_33\n      jump\t// in\n    tag_67:\n        /* \"#utility.yul\":2250:2316   */\n      tag_68\n        /* \"#utility.yul\":2312:2314   */\n      0x20\n        /* \"#utility.yul\":2301:2310   */\n      dup4\n        /* \"#utility.yul\":2297:2315   */\n      add\n        /* \"#utility.yul\":2288:2294   */\n      dup7\n        /* \"#utility.yul\":2250:2316   */\n      tag_35\n      jump\t// in\n    tag_68:\n        /* \"#utility.yul\":2326:2398   */\n      tag_69\n        /* \"#utility.yul\":2394:2396   */\n      0x40\n        /* \"#utility.yul\":2383:2392   */\n      dup4\n        /* \"#utility.yul\":2379:2397   */\n      add\n        /* \"#utility.yul\":2370:2376   */\n      dup6\n        /* \"#utility.yul\":2326:2398   */\n      tag_26\n      jump\t// in\n    tag_69:\n        /* \"#utility.yul\":2408:2480   */\n      tag_70\n        /* \"#utility.yul\":2476:2478   */\n      0x60\n        /* \"#utility.yul\":2465:2474   */\n      dup4\n        /* \"#utility.yul\":2461:2479   */\n      add\n        /* \"#utility.yul\":2452:2458   */\n      dup5\n        /* \"#utility.yul\":2408:2480   */\n      tag_33\n      jump\t// in\n    tag_70:\n        /* \"#utility.yul\":1946:2487   */\n      swap6\n      swap5\n      pop\n      pop\n      pop\n      pop\n      pop\n      jump\t// out\n        /* \"#utility.yul\":2493:2615   */\n    tag_36:\n        /* \"#utility.yul\":2566:2590   */\n      tag_72\n        /* \"#utility.yul\":2584:2589   */\n      dup2\n        /* \"#utility.yul\":2566:2590   */\n      tag_32\n      jump\t// in\n    tag_72:\n        /* \"#utility.yul\":2559:2564   */\n      dup2\n        /* \"#utility.yul\":2556:2591   */\n      eq\n        /* \"#utility.yul\":2546:2609   */\n      tag_73\n      jumpi\n        /* \"#utility.yul\":2605:2606   */\n      0x00\n        /* \"#utility.yul\":2602:2603   */\n      dup1\n        /* \"#utility.yul\":2595:2607   */\n      revert\n        /* \"#utility.yul\":2546:2609   */\n    tag_73:\n        /* \"#utility.yul\":2493:2615   */\n      pop\n      jump\t// out\n        /* \"#utility.yul\":2621:2760   */\n    tag_37:\n        /* \"#utility.yul\":2667:2672   */\n      0x00\n        /* \"#utility.yul\":2705:2711   */\n      dup2\n        /* \"#utility.yul\":2692:2712   */\n      calldataload\n        /* \"#utility.yul\":2683:2712   */\n      swap1\n      pop\n        /* \"#utility.yul\":2721:2754   */\n      tag_75\n        /* \"#utility.yul\":2748:2753   */\n      dup2\n        /* \"#utility.yul\":2721:2754   */\n      tag_36\n      jump\t// in\n    tag_75:\n        /* \"#utility.yul\":2621:2760   */\n      swap3\n      swap2\n      pop\n      pop\n      jump\t// out\n        /* \"#utility.yul\":2766:3095   */\n    tag_18:\n        /* \"#utility.yul\":2825:2831   */\n      0x00\n        /* \"#utility.yul\":2874:2876   */\n      0x20\n        /* \"#utility.yul\":2862:2871   */\n      dup3\n        /* \"#utility.yul\":2853:2860   */\n      dup5\n        /* \"#utility.yul\":2849:2872   */\n      sub\n        /* \"#utility.yul\":2845:2877   */\n      slt\n        /* \"#utility.yul\":2842:2961   */\n      iszero\n      tag_77\n      jumpi\n        /* \"#utility.yul\":2880:2959   */\n      tag_78\n      tag_28\n      jump\t// in\n    tag_78:\n        /* \"#utility.yul\":2842:2961   */\n    tag_77:\n        /* \"#utility.yul\":3000:3001   */\n      0x00\n        /* \"#utility.yul\":3025:3078   */\n      tag_79\n        /* \"#utility.yul\":3070:3077   */\n      dup5\n        /* \"#utility.yul\":3061:3067   */\n      dup3\n        /* \"#utility.yul\":3050:3059   */\n      dup6\n        /* \"#utility.yul\":3046:3068   */\n      add\n        /* \"#utility.yul\":3025:3078   */\n      tag_37\n      jump\t// in\n    tag_79:\n        /* \"#utility.yul\":3015:3078   */\n      swap2\n      pop\n        /* \"#utility.yul\":2971:3088   */\n      pop\n        /* \"#utility.yul\":2766:3095   */\n      swap3\n      swap2\n      pop\n      pop\n      jump\t// out\n        /* \"#utility.yul\":3101:3178   */\n    tag_38:\n        /* \"#utility.yul\":3138:3145   */\n      0x00\n        /* \"#utility.yul\":3167:3172   */\n      dup2\n        /* \"#utility.yul\":3156:3172   */\n      swap1\n      pop\n        /* \"#utility.yul\":3101:3178   */\n      swap2\n      swap1\n      pop\n      jump\t// out\n        /* \"#utility.yul\":3184:3302   */\n    tag_39:\n        /* \"#utility.yul\":3271:3295   */\n      tag_82\n        /* \"#utility.yul\":3289:3294   */\n      dup2\n        /* \"#utility.yul\":3271:3295   */\n      tag_38\n      jump\t// in\n    tag_82:\n        /* \"#utility.yul\":3266:3269   */\n      dup3\n        /* \"#utility.yul\":3259:3296   */\n      mstore\n        /* \"#utility.yul\":3184:3302   */\n      pop\n      pop\n      jump\t// out\n        /* \"#utility.yul\":3308:3640   */\n    tag_21:\n        /* \"#utility.yul\":3429:3433   */\n      0x00\n        /* \"#utility.yul\":3467:3469   */\n      0x40\n        /* \"#utility.yul\":3456:3465   */\n      dup3\n        /* \"#utility.yul\":3452:3470   */\n      add\n        /* \"#utility.yul\":3444:3470   */\n      swap1\n      pop\n        /* \"#utility.yul\":3480:3551   */\n      tag_84\n        /* \"#utility.yul\":3548:3549   */\n      0x00\n        /* \"#utility.yul\":3537:3546   */\n      dup4\n        /* \"#utility.yul\":3533:3550   */\n      add\n        /* \"#utility.yul\":3524:3530   */\n      dup6\n        /* \"#utility.yul\":3480:3551   */\n      tag_39\n      jump\t// in\n    tag_84:\n        /* \"#utility.yul\":3561:3633   */\n      tag_85\n        /* \"#utility.yul\":3629:3631   */\n      0x20\n        /* \"#utility.yul\":3618:3627   */\n      dup4\n        /* \"#utility.yul\":3614:3632   */\n      add\n        /* \"#utility.yul\":3605:3611   */\n      dup5\n        /* \"#utility.yul\":3561:3633   */\n      tag_33\n      jump\t// in\n    tag_85:\n        /* \"#utility.yul\":3308:3640   */\n      swap4\n      swap3\n      pop\n      pop\n      pop\n      jump\t// out\n\n    auxdata: 0xa26469706673582212209c27424514854f9e36655014403bcc9925532c453aa0ca1ea675d74941f4949464736f6c634300080d0033\n}\n",
				"bytecode": {
					"linkReferences": {},
					"object": "608060405234801561001057600080fd5b506040516106fd3803806106fd833981810160405281019061003291906102a3565b336000806101000a81548173ffffffffffffffffffffffffffffffffffffffff021916908373ffffffffffffffffffffffffffffffffffffffff16021790555060018060008060009054906101000a900473ffffffffffffffffffffffffffffffffffffffff1673ffffffffffffffffffffffffffffffffffffffff1673ffffffffffffffffffffffffffffffffffffffff1681526020019081526020016000206000018190555060005b81518110156100f95780806100f190610325565b9150506100dd565b505061036d565b6000604051905090565b600080fd5b600080fd5b600080fd5b6000601f19601f8301169050919050565b7f4e487b7100000000000000000000000000000000000000000000000000000000600052604160045260246000fd5b61016282610119565b810181811067ffffffffffffffff821117156101815761018061012a565b5b80604052505050565b6000610194610100565b90506101a08282610159565b919050565b600067ffffffffffffffff8211156101c0576101bf61012a565b5b602082029050602081019050919050565b600080fd5b6000819050919050565b6101e9816101d6565b81146101f457600080fd5b50565b600081519050610206816101e0565b92915050565b600061021f61021a846101a5565b61018a565b90508083825260208201905060208402830185811115610242576102416101d1565b5b835b8181101561026b578061025788826101f7565b845260208401935050602081019050610244565b5050509392505050565b600082601f83011261028a57610289610114565b5b815161029a84826020860161020c565b91505092915050565b6000602082840312156102b9576102b861010a565b5b600082015167ffffffffffffffff8111156102d7576102d661010f565b5b6102e384828501610275565b91505092915050565b7f4e487b7100000000000000000000000000000000000000000000000000000000600052601160045260246000fd5b6000819050919050565b60006103308261031b565b91507fffffffffffffffffffffffffffffffffffffffffffffffffffffffffffffffff8203610362576103616102ec565b5b600182019050919050565b6103818061037c6000396000f3fe608060405234801561001057600080fd5b50600436106100415760003560e01c80632e4176cf14610046578063a3ec138d14610064578063d1dbe7d814610097575b600080fd5b61004e6100c8565b60405161005b91906101be565b60405180910390f35b61007e6004803603810190610079919061020a565b6100ec565b60405161008e949392919061026b565b60405180910390f35b6100b160048036038101906100ac91906102dc565b610149565b6040516100bf929190610322565b60405180910390f35b60008054906101000a900473ffffffffffffffffffffffffffffffffffffffff1681565b60016020528060005260406000206000915090508060000154908060010160009054906101000a900460ff16908060010160019054906101000a900473ffffffffffffffffffffffffffffffffffffffff16908060020154905084565b6002818154811061015957600080fd5b90600052602060002090600202016000915090508060000154908060010154905082565b600073ffffffffffffffffffffffffffffffffffffffff82169050919050565b60006101a88261017d565b9050919050565b6101b88161019d565b82525050565b60006020820190506101d360008301846101af565b92915050565b600080fd5b6101e78161019d565b81146101f257600080fd5b50565b600081359050610204816101de565b92915050565b6000602082840312156102205761021f6101d9565b5b600061022e848285016101f5565b91505092915050565b6000819050919050565b61024a81610237565b82525050565b60008115159050919050565b61026581610250565b82525050565b60006080820190506102806000830187610241565b61028d602083018661025c565b61029a60408301856101af565b6102a76060830184610241565b95945050505050565b6102b981610237565b81146102c457600080fd5b50565b6000813590506102d6816102b0565b92915050565b6000602082840312156102f2576102f16101d9565b5b6000610300848285016102c7565b91505092915050565b6000819050919050565b61031c81610309565b82525050565b60006040820190506103376000830185610313565b6103446020830184610241565b939250505056fea26469706673582212209c27424514854f9e36655014403bcc9925532c453aa0ca1ea675d74941f4949464736f6c634300080d0033",
					"opcodes": "PUSH1 0x80 PUSH1 0x40 MSTORE CALLVALUE DUP1 ISZERO PUSH2 0x10 JUMPI PUSH1 0x0 DUP1 REVERT JUMPDEST POP PUSH1 0x40 MLOAD PUSH2 0x6FD CODESIZE SUB DUP1 PUSH2 0x6FD DUP4 CODECOPY DUP2 DUP2 ADD PUSH1 0x40 MSTORE DUP2 ADD SWAP1 PUSH2 0x32 SWAP2 SWAP1 PUSH2 0x2A3 JUMP JUMPDEST CALLER PUSH1 0x0 DUP1 PUSH2 0x100 EXP DUP2 SLOAD DUP2 PUSH20 0xFFFFFFFFFFFFFFFFFFFFFFFFFFFFFFFFFFFFFFFF MUL NOT AND SWAP1 DUP4 PUSH20 0xFFFFFFFFFFFFFFFFFFFFFFFFFFFFFFFFFFFFFFFF AND MUL OR SWAP1 SSTORE POP PUSH1 0x1 DUP1 PUSH1 0x0 DUP1 PUSH1 0x0 SWAP1 SLOAD SWAP1 PUSH2 0x100 EXP SWAP1 DIV PUSH20 0xFFFFFFFFFFFFFFFFFFFFFFFFFFFFFFFFFFFFFFFF AND PUSH20 0xFFFFFFFFFFFFFFFFFFFFFFFFFFFFFFFFFFFFFFFF AND PUSH20 0xFFFFFFFFFFFFFFFFFFFFFFFFFFFFFFFFFFFFFFFF AND DUP2 MSTORE PUSH1 0x20 ADD SWAP1 DUP2 MSTORE PUSH1 0x20 ADD PUSH1 0x0 KECCAK256 PUSH1 0x0 ADD DUP2 SWAP1 SSTORE POP PUSH1 0x0 JUMPDEST DUP2 MLOAD DUP2 LT ISZERO PUSH2 0xF9 JUMPI DUP1 DUP1 PUSH2 0xF1 SWAP1 PUSH2 0x325 JUMP JUMPDEST SWAP2 POP POP PUSH2 0xDD JUMP JUMPDEST POP POP PUSH2 0x36D JUMP JUMPDEST PUSH1 0x0 PUSH1 0x40 MLOAD SWAP1 POP SWAP1 JUMP JUMPDEST PUSH1 0x0 DUP1 REVERT JUMPDEST PUSH1 0x0 DUP1 REVERT JUMPDEST PUSH1 0x0 DUP1 REVERT JUMPDEST PUSH1 0x0 PUSH1 0x1F NOT PUSH1 0x1F DUP4 ADD AND SWAP1 POP SWAP2 SWAP1 POP JUMP JUMPDEST PUSH32 0x4E487B7100000000000000000000000000000000000000000000000000000000 PUSH1 0x0 MSTORE PUSH1 0x41 PUSH1 0x4 MSTORE PUSH1 0x24 PUSH1 0x0 REVERT JUMPDEST PUSH2 0x162 DUP3 PUSH2 0x119 JUMP JUMPDEST DUP2 ADD DUP2 DUP2 LT PUSH8 0xFFFFFFFFFFFFFFFF DUP3 GT OR ISZERO PUSH2 0x181 JUMPI PUSH2 0x180 PUSH2 0x12A JUMP JUMPDEST JUMPDEST DUP1 PUSH1 0x40 MSTORE POP POP POP JUMP JUMPDEST PUSH1 0x0 PUSH2 0x194 PUSH2 0x100 JUMP JUMPDEST SWAP1 POP PUSH2 0x1A0 DUP3 DUP3 PUSH2 0x159 JUMP JUMPDEST SWAP2 SWAP1 POP JUMP JUMPDEST PUSH1 0x0 PUSH8 0xFFFFFFFFFFFFFFFF DUP3 GT ISZERO PUSH2 0x1C0 JUMPI PUSH2 0x1BF PUSH2 0x12A JUMP JUMPDEST JUMPDEST PUSH1 0x20 DUP3 MUL SWAP1 POP PUSH1 0x20 DUP2 ADD SWAP1 POP SWAP2 SWAP1 POP JUMP JUMPDEST PUSH1 0x0 DUP1 REVERT JUMPDEST PUSH1 0x0 DUP2 SWAP1 POP SWAP2 SWAP1 POP JUMP JUMPDEST PUSH2 0x1E9 DUP2 PUSH2 0x1D6 JUMP JUMPDEST DUP2 EQ PUSH2 0x1F4 JUMPI PUSH1 0x0 DUP1 REVERT JUMPDEST POP JUMP JUMPDEST PUSH1 0x0 DUP2 MLOAD SWAP1 POP PUSH2 0x206 DUP2 PUSH2 0x1E0 JUMP JUMPDEST SWAP3 SWAP2 POP POP JUMP JUMPDEST PUSH1 0x0 PUSH2 0x21F PUSH2 0x21A DUP5 PUSH2 0x1A5 JUMP JUMPDEST PUSH2 0x18A JUMP JUMPDEST SWAP1 POP DUP1 DUP4 DUP3 MSTORE PUSH1 0x20 DUP3 ADD SWAP1 POP PUSH1 0x20 DUP5 MUL DUP4 ADD DUP6 DUP2 GT ISZERO PUSH2 0x242 JUMPI PUSH2 0x241 PUSH2 0x1D1 JUMP JUMPDEST JUMPDEST DUP4 JUMPDEST DUP2 DUP2 LT ISZERO PUSH2 0x26B JUMPI DUP1 PUSH2 0x257 DUP9 DUP3 PUSH2 0x1F7 JUMP JUMPDEST DUP5 MSTORE PUSH1 0x20 DUP5 ADD SWAP4 POP POP PUSH1 0x20 DUP2 ADD SWAP1 POP PUSH2 0x244 JUMP JUMPDEST POP POP POP SWAP4 SWAP3 POP POP POP JUMP JUMPDEST PUSH1 0x0 DUP3 PUSH1 0x1F DUP4 ADD SLT PUSH2 0x28A JUMPI PUSH2 0x289 PUSH2 0x114 JUMP JUMPDEST JUMPDEST DUP2 MLOAD PUSH2 0x29A DUP5 DUP3 PUSH1 0x20 DUP7 ADD PUSH2 0x20C JUMP JUMPDEST SWAP2 POP POP SWAP3 SWAP2 POP POP JUMP JUMPDEST PUSH1 0x0 PUSH1 0x20 DUP3 DUP5 SUB SLT ISZERO PUSH2 0x2B9 JUMPI PUSH2 0x2B8 PUSH2 0x10A JUMP JUMPDEST JUMPDEST PUSH1 0x0 DUP3 ADD MLOAD PUSH8 0xFFFFFFFFFFFFFFFF DUP2 GT ISZERO PUSH2 0x2D7 JUMPI PUSH2 0x2D6 PUSH2 0x10F JUMP JUMPDEST JUMPDEST PUSH2 0x2E3 DUP5 DUP3 DUP6 ADD PUSH2 0x275 JUMP JUMPDEST SWAP2 POP POP SWAP3 SWAP2 POP POP JUMP JUMPDEST PUSH32 0x4E487B7100000000000000000000000000000000000000000000000000000000 PUSH1 0x0 MSTORE PUSH1 0x11 PUSH1 0x4 MSTORE PUSH1 0x24 PUSH1 0x0 REVERT JUMPDEST PUSH1 0x0 DUP2 SWAP1 POP SWAP2 SWAP1 POP JUMP JUMPDEST PUSH1 0x0 PUSH2 0x330 DUP3 PUSH2 0x31B JUMP JUMPDEST SWAP2 POP PUSH32 0xFFFFFFFFFFFFFFFFFFFFFFFFFFFFFFFFFFFFFFFFFFFFFFFFFFFFFFFFFFFFFFFF DUP3 SUB PUSH2 0x362 JUMPI PUSH2 0x361 PUSH2 0x2EC JUMP JUMPDEST JUMPDEST PUSH1 0x1 DUP3 ADD SWAP1 POP SWAP2 SWAP1 POP JUMP JUMPDEST PUSH2 0x381 DUP1 PUSH2 0x37C PUSH1 0x0 CODECOPY PUSH1 0x0 RETURN INVALID PUSH1 0x80 PUSH1 0x40 MSTORE CALLVALUE DUP1 ISZERO PUSH2 0x10 JUMPI PUSH1 0x0 DUP1 REVERT JUMPDEST POP PUSH1 0x4 CALLDATASIZE LT PUSH2 0x41 JUMPI PUSH1 0x0 CALLDATALOAD PUSH1 0xE0 SHR DUP1 PUSH4 0x2E4176CF EQ PUSH2 0x46 JUMPI DUP1 PUSH4 0xA3EC138D EQ PUSH2 0x64 JUMPI DUP1 PUSH4 0xD1DBE7D8 EQ PUSH2 0x97 JUMPI JUMPDEST PUSH1 0x0 DUP1 REVERT JUMPDEST PUSH2 0x4E PUSH2 0xC8 JUMP JUMPDEST PUSH1 0x40 MLOAD PUSH2 0x5B SWAP2 SWAP1 PUSH2 0x1BE JUMP JUMPDEST PUSH1 0x40 MLOAD DUP1 SWAP2 SUB SWAP1 RETURN JUMPDEST PUSH2 0x7E PUSH1 0x4 DUP1 CALLDATASIZE SUB DUP2 ADD SWAP1 PUSH2 0x79 SWAP2 SWAP1 PUSH2 0x20A JUMP JUMPDEST PUSH2 0xEC JUMP JUMPDEST PUSH1 0x40 MLOAD PUSH2 0x8E SWAP5 SWAP4 SWAP3 SWAP2 SWAP1 PUSH2 0x26B JUMP JUMPDEST PUSH1 0x40 MLOAD DUP1 SWAP2 SUB SWAP1 RETURN JUMPDEST PUSH2 0xB1 PUSH1 0x4 DUP1 CALLDATASIZE SUB DUP2 ADD SWAP1 PUSH2 0xAC SWAP2 SWAP1 PUSH2 0x2DC JUMP JUMPDEST PUSH2 0x149 JUMP JUMPDEST PUSH1 0x40 MLOAD PUSH2 0xBF SWAP3 SWAP2 SWAP1 PUSH2 0x322 JUMP JUMPDEST PUSH1 0x40 MLOAD DUP1 SWAP2 SUB SWAP1 RETURN JUMPDEST PUSH1 0x0 DUP1 SLOAD SWAP1 PUSH2 0x100 EXP SWAP1 DIV PUSH20 0xFFFFFFFFFFFFFFFFFFFFFFFFFFFFFFFFFFFFFFFF AND DUP2 JUMP JUMPDEST PUSH1 0x1 PUSH1 0x20 MSTORE DUP1 PUSH1 0x0 MSTORE PUSH1 0x40 PUSH1 0x0 KECCAK256 PUSH1 0x0 SWAP2 POP SWAP1 POP DUP1 PUSH1 0x0 ADD SLOAD SWAP1 DUP1 PUSH1 0x1 ADD PUSH1 0x0 SWAP1 SLOAD SWAP1 PUSH2 0x100 EXP SWAP1 DIV PUSH1 0xFF AND SWAP1 DUP1 PUSH1 0x1 ADD PUSH1 0x1 SWAP1 SLOAD SWAP1 PUSH2 0x100 EXP SWAP1 DIV PUSH20 0xFFFFFFFFFFFFFFFFFFFFFFFFFFFFFFFFFFFFFFFF AND SWAP1 DUP1 PUSH1 0x2 ADD SLOAD SWAP1 POP DUP5 JUMP JUMPDEST PUSH1 0x2 DUP2 DUP2 SLOAD DUP2 LT PUSH2 0x159 JUMPI PUSH1 0x0 DUP1 REVERT JUMPDEST SWAP1 PUSH1 0x0 MSTORE PUSH1 0x20 PUSH1 0x0 KECCAK256 SWAP1 PUSH1 0x2 MUL ADD PUSH1 0x0 SWAP2 POP SWAP1 POP DUP1 PUSH1 0x0 ADD SLOAD SWAP1 DUP1 PUSH1 0x1 ADD SLOAD SWAP1 POP DUP3 JUMP JUMPDEST PUSH1 0x0 PUSH20 0xFFFFFFFFFFFFFFFFFFFFFFFFFFFFFFFFFFFFFFFF DUP3 AND SWAP1 POP SWAP2 SWAP1 POP JUMP JUMPDEST PUSH1 0x0 PUSH2 0x1A8 DUP3 PUSH2 0x17D JUMP JUMPDEST SWAP1 POP SWAP2 SWAP1 POP JUMP JUMPDEST PUSH2 0x1B8 DUP2 PUSH2 0x19D JUMP JUMPDEST DUP3 MSTORE POP POP JUMP JUMPDEST PUSH1 0x0 PUSH1 0x20 DUP3 ADD SWAP1 POP PUSH2 0x1D3 PUSH1 0x0 DUP4 ADD DUP5 PUSH2 0x1AF JUMP JUMPDEST SWAP3 SWAP2 POP POP JUMP JUMPDEST PUSH1 0x0 DUP1 REVERT JUMPDEST PUSH2 0x1E7 DUP2 PUSH2 0x19D JUMP JUMPDEST DUP2 EQ PUSH2 0x1F2 JUMPI PUSH1 0x0 DUP1 REVERT JUMPDEST POP JUMP JUMPDEST PUSH1 0x0 DUP2 CALLDATALOAD SWAP1 POP PUSH2 0x204 DUP2 PUSH2 0x1DE JUMP JUMPDEST SWAP3 SWAP2 POP POP JUMP JUMPDEST PUSH1 0x0 PUSH1 0x20 DUP3 DUP5 SUB SLT ISZERO PUSH2 0x220 JUMPI PUSH2 0x21F PUSH2 0x1D9 JUMP JUMPDEST JUMPDEST PUSH1 0x0 PUSH2 0x22E DUP5 DUP3 DUP6 ADD PUSH2 0x1F5 JUMP JUMPDEST SWAP2 POP POP SWAP3 SWAP2 POP POP JUMP JUMPDEST PUSH1 0x0 DUP2 SWAP1 POP SWAP2 SWAP1 POP JUMP JUMPDEST PUSH2 0x24A DUP2 PUSH2 0x237 JUMP JUMPDEST DUP3 MSTORE POP POP JUMP JUMPDEST PUSH1 0x0 DUP2 ISZERO ISZERO SWAP1 POP SWAP2 SWAP1 POP JUMP JUMPDEST PUSH2 0x265 DUP2 PUSH2 0x250 JUMP JUMPDEST DUP3 MSTORE POP POP JUMP JUMPDEST PUSH1 0x0 PUSH1 0x80 DUP3 ADD SWAP1 POP PUSH2 0x280 PUSH1 0x0 DUP4 ADD DUP8 PUSH2 0x241 JUMP JUMPDEST PUSH2 0x28D PUSH1 0x20 DUP4 ADD DUP7 PUSH2 0x25C JUMP JUMPDEST PUSH2 0x29A PUSH1 0x40 DUP4 ADD DUP6 PUSH2 0x1AF JUMP JUMPDEST PUSH2 0x2A7 PUSH1 0x60 DUP4 ADD DUP5 PUSH2 0x241 JUMP JUMPDEST SWAP6 SWAP5 POP POP POP POP POP JUMP JUMPDEST PUSH2 0x2B9 DUP2 PUSH2 0x237 JUMP JUMPDEST DUP2 EQ PUSH2 0x2C4 JUMPI PUSH1 0x0 DUP1 REVERT JUMPDEST POP JUMP JUMPDEST PUSH1 0x0 DUP2 CALLDATALOAD SWAP1 POP PUSH2 0x2D6 DUP2 PUSH2 0x2B0 JUMP JUMPDEST SWAP3 SWAP2 POP POP JUMP JUMPDEST PUSH1 0x0 PUSH1 0x20 DUP3 DUP5 SUB SLT ISZERO PUSH2 0x2F2 JUMPI PUSH2 0x2F1 PUSH2 0x1D9 JUMP JUMPDEST JUMPDEST PUSH1 0x0 PUSH2 0x300 DUP5 DUP3 DUP6 ADD PUSH2 0x2C7 JUMP JUMPDEST SWAP2 POP POP SWAP3 SWAP2 POP POP JUMP JUMPDEST PUSH1 0x0 DUP2 SWAP1 POP SWAP2 SWAP1 POP JUMP JUMPDEST PUSH2 0x31C DUP2 PUSH2 0x309 JUMP JUMPDEST DUP3 MSTORE POP POP JUMP JUMPDEST PUSH1 0x0 PUSH1 0x40 DUP3 ADD SWAP1 POP PUSH2 0x337 PUSH1 0x0 DUP4 ADD DUP6 PUSH2 0x313 JUMP JUMPDEST PUSH2 0x344 PUSH1 0x20 DUP4 ADD DUP5 PUSH2 0x241 JUMP JUMPDEST SWAP4 SWAP3 POP POP POP JUMP INVALID LOG2 PUSH5 0x6970667358 0x22 SLT KECCAK256 SWAP13 0x27 TIMESTAMP GASLIMIT EQ DUP6 0x4F SWAP15 CALLDATASIZE PUSH6 0x5014403BCC99 0x25 MSTORE8 0x2C GASLIMIT GASPRICE LOG0 0xCA 0x1E 0xA6 PUSH22 0xD74941F4949464736F6C634300080D00330000000000 "
				},
				"gasEstimates": {
					"creation": {
						"codeDepositCost": "179400",
						"executionCost": "infinite",
						"totalCost": "infinite"
					},
					"external": {
						"Proposals(uint256)": "infinite",
						"chairperson()": "2489",
						"voters(address)": "infinite"
					}
				},
				"methodIdentifiers": {
					"Proposals(uint256)": "d1dbe7d8",
					"chairperson()": "2e4176cf",
					"voters(address)": "a3ec138d"
				}
			},
			"userdoc": {
				"kind": "user",
				"methods": {},
				"version": 1
			}
		}
	}
}