{
	"contracts/test1.sol": {
		"ElectiveSystem": {
			"abi": [
				{
					"inputs": [
						{
							"internalType": "bytes32[]",
							"name": "_proposalNames",
							"type": "bytes32[]"
						}
					],
					"stateMutability": "nonpayable",
					"type": "constructor"
				},
				{
					"inputs": [],
					"name": "chairman",
					"outputs": [
						{
							"internalType": "address",
							"name": "",
							"type": "address"
						}
					],
					"stateMutability": "view",
					"type": "function"
				},
				{
					"inputs": [
						{
							"internalType": "address",
							"name": "_to",
							"type": "address"
						},
						{
							"internalType": "uint256",
							"name": "_proposalIdx",
							"type": "uint256"
						}
					],
					"name": "entrust",
					"outputs": [],
					"stateMutability": "nonpayable",
					"type": "function"
				},
				{
					"inputs": [
						{
							"internalType": "address",
							"name": "_to",
							"type": "address"
						}
					],
					"name": "giveAddressVote",
					"outputs": [],
					"stateMutability": "nonpayable",
					"type": "function"
				},
				{
					"inputs": [
						{
							"internalType": "uint256",
							"name": "",
							"type": "uint256"
						}
					],
					"name": "proposals",
					"outputs": [
						{
							"internalType": "bytes32",
							"name": "Name",
							"type": "bytes32"
						},
						{
							"internalType": "uint256",
							"name": "ticketNum",
							"type": "uint256"
						}
					],
					"stateMutability": "view",
					"type": "function"
				},
				{
					"inputs": [
						{
							"internalType": "address",
							"name": "",
							"type": "address"
						}
					],
					"name": "voters",
					"outputs": [
						{
							"internalType": "uint256",
							"name": "weight",
							"type": "uint256"
						},
						{
							"internalType": "address",
							"name": "trustee",
							"type": "address"
						},
						{
							"internalType": "bool",
							"name": "voted",
							"type": "bool"
						}
					],
					"stateMutability": "view",
					"type": "function"
				}
			],
			"devdoc": {
				"kind": "dev",
				"methods": {},
				"version": 1
			},
			"evm": {
				"assembly": "    /* \"contracts/test1.sol\":66:1908  contract ElectiveSystem {... */\n  mstore(0x40, 0x80)\n    /* \"contracts/test1.sol\":422:694  constructor(bytes32[] memory _proposalNames){... */\n  callvalue\n  dup1\n  iszero\n  tag_1\n  jumpi\n  0x00\n  dup1\n  revert\ntag_1:\n  pop\n  mload(0x40)\n  sub(codesize, bytecodeSize)\n  dup1\n  bytecodeSize\n  dup4\n  codecopy\n  dup2\n  dup2\n  add\n  0x40\n  mstore\n  dup2\n  add\n  swap1\n  tag_2\n  swap2\n  swap1\n  tag_3\n  jump\t// in\ntag_2:\n    /* \"contracts/test1.sol\":487:497  msg.sender */\n  caller\n    /* \"contracts/test1.sol\":476:484  chairman */\n  0x00\n  dup1\n    /* \"contracts/test1.sol\":476:497  chairman = msg.sender */\n  0x0100\n  exp\n  dup2\n  sload\n  dup2\n  0xffffffffffffffffffffffffffffffffffffffff\n  mul\n  not\n  and\n  swap1\n  dup4\n  0xffffffffffffffffffffffffffffffffffffffff\n  and\n  mul\n  or\n  swap1\n  sstore\n  pop\n    /* \"contracts/test1.sol\":512:518  uint i */\n  0x00\n    /* \"contracts/test1.sol\":507:686  for (uint i; i< _proposalNames.length; i++){... */\ntag_6:\n    /* \"contracts/test1.sol\":523:537  _proposalNames */\n  dup2\n    /* \"contracts/test1.sol\":523:544  _proposalNames.length */\n  mload\n    /* \"contracts/test1.sol\":520:521  i */\n  dup2\n    /* \"contracts/test1.sol\":520:544  i< _proposalNames.length */\n  lt\n    /* \"contracts/test1.sol\":507:686  for (uint i; i< _proposalNames.length; i++){... */\n  iszero\n  tag_7\n  jumpi\n    /* \"contracts/test1.sol\":564:573  proposals */\n  0x01\n    /* \"contracts/test1.sol\":579:674  Proposal({... */\n  mload(0x40)\n  dup1\n  0x40\n  add\n  0x40\n  mstore\n  dup1\n    /* \"contracts/test1.sol\":612:626  _proposalNames */\n  dup5\n    /* \"contracts/test1.sol\":627:628  i */\n  dup5\n    /* \"contracts/test1.sol\":612:629  _proposalNames[i] */\n  dup2\n  mload\n  dup2\n  lt\n  tag_9\n  jumpi\n  tag_10\n  tag_11\n  jump\t// in\ntag_10:\ntag_9:\n  0x20\n  mul\n  0x20\n  add\n  add\n  mload\n    /* \"contracts/test1.sol\":579:674  Proposal({... */\n  dup2\n  mstore\n  0x20\n  add\n    /* \"contracts/test1.sol\":658:659  0 */\n  0x00\n    /* \"contracts/test1.sol\":579:674  Proposal({... */\n  dup2\n  mstore\n  pop\n    /* \"contracts/test1.sol\":564:675  proposals.push(Proposal({... */\n  swap1\n  dup1\n  0x01\n  dup2\n  sload\n  add\n  dup1\n  dup3\n  sstore\n  dup1\n  swap2\n  pop\n  pop\n  0x01\n  swap1\n  sub\n  swap1\n  0x00\n  mstore\n  keccak256(0x00, 0x20)\n  swap1\n  0x02\n  mul\n  add\n  0x00\n  swap1\n  swap2\n  swap1\n  swap2\n  swap1\n  swap2\n  pop\n  0x00\n  dup3\n  add\n  mload\n  dup2\n  0x00\n  add\n  sstore\n  0x20\n  dup3\n  add\n  mload\n  dup2\n  0x01\n  add\n  sstore\n  pop\n  pop\n    /* \"contracts/test1.sol\":546:549  i++ */\n  dup1\n  dup1\n  tag_13\n  swap1\n  tag_14\n  jump\t// in\ntag_13:\n  swap2\n  pop\n  pop\n    /* \"contracts/test1.sol\":507:686  for (uint i; i< _proposalNames.length; i++){... */\n  jump(tag_6)\ntag_7:\n  pop\n    /* \"contracts/test1.sol\":422:694  constructor(bytes32[] memory _proposalNames){... */\n  pop\n    /* \"contracts/test1.sol\":66:1908  contract ElectiveSystem {... */\n  jump(tag_15)\n    /* \"#utility.yul\":7:82   */\ntag_16:\n    /* \"#utility.yul\":40:46   */\n  0x00\n    /* \"#utility.yul\":73:75   */\n  0x40\n    /* \"#utility.yul\":67:76   */\n  mload\n    /* \"#utility.yul\":57:76   */\n  swap1\n  pop\n    /* \"#utility.yul\":7:82   */\n  swap1\n  jump\t// out\n    /* \"#utility.yul\":88:205   */\ntag_17:\n    /* \"#utility.yul\":197:198   */\n  0x00\n    /* \"#utility.yul\":194:195   */\n  dup1\n    /* \"#utility.yul\":187:199   */\n  revert\n    /* \"#utility.yul\":211:328   */\ntag_18:\n    /* \"#utility.yul\":320:321   */\n  0x00\n    /* \"#utility.yul\":317:318   */\n  dup1\n    /* \"#utility.yul\":310:322   */\n  revert\n    /* \"#utility.yul\":334:451   */\ntag_19:\n    /* \"#utility.yul\":443:444   */\n  0x00\n    /* \"#utility.yul\":440:441   */\n  dup1\n    /* \"#utility.yul\":433:445   */\n  revert\n    /* \"#utility.yul\":457:559   */\ntag_20:\n    /* \"#utility.yul\":498:504   */\n  0x00\n    /* \"#utility.yul\":549:551   */\n  0x1f\n    /* \"#utility.yul\":545:552   */\n  not\n    /* \"#utility.yul\":540:542   */\n  0x1f\n    /* \"#utility.yul\":533:538   */\n  dup4\n    /* \"#utility.yul\":529:543   */\n  add\n    /* \"#utility.yul\":525:553   */\n  and\n    /* \"#utility.yul\":515:553   */\n  swap1\n  pop\n    /* \"#utility.yul\":457:559   */\n  swap2\n  swap1\n  pop\n  jump\t// out\n    /* \"#utility.yul\":565:745   */\ntag_21:\n    /* \"#utility.yul\":613:690   */\n  0x4e487b7100000000000000000000000000000000000000000000000000000000\n    /* \"#utility.yul\":610:611   */\n  0x00\n    /* \"#utility.yul\":603:691   */\n  mstore\n    /* \"#utility.yul\":710:714   */\n  0x41\n    /* \"#utility.yul\":707:708   */\n  0x04\n    /* \"#utility.yul\":700:715   */\n  mstore\n    /* \"#utility.yul\":734:738   */\n  0x24\n    /* \"#utility.yul\":731:732   */\n  0x00\n    /* \"#utility.yul\":724:739   */\n  revert\n    /* \"#utility.yul\":751:1032   */\ntag_22:\n    /* \"#utility.yul\":834:861   */\n  tag_41\n    /* \"#utility.yul\":856:860   */\n  dup3\n    /* \"#utility.yul\":834:861   */\n  tag_20\n  jump\t// in\ntag_41:\n    /* \"#utility.yul\":826:832   */\n  dup2\n    /* \"#utility.yul\":822:862   */\n  add\n    /* \"#utility.yul\":964:970   */\n  dup2\n    /* \"#utility.yul\":952:962   */\n  dup2\n    /* \"#utility.yul\":949:971   */\n  lt\n    /* \"#utility.yul\":928:946   */\n  0xffffffffffffffff\n    /* \"#utility.yul\":916:926   */\n  dup3\n    /* \"#utility.yul\":913:947   */\n  gt\n    /* \"#utility.yul\":910:972   */\n  or\n    /* \"#utility.yul\":907:995   */\n  iszero\n  tag_42\n  jumpi\n    /* \"#utility.yul\":975:993   */\n  tag_43\n  tag_21\n  jump\t// in\ntag_43:\n    /* \"#utility.yul\":907:995   */\ntag_42:\n    /* \"#utility.yul\":1015:1025   */\n  dup1\n    /* \"#utility.yul\":1011:1013   */\n  0x40\n    /* \"#utility.yul\":1004:1026   */\n  mstore\n    /* \"#utility.yul\":794:1032   */\n  pop\n    /* \"#utility.yul\":751:1032   */\n  pop\n  pop\n  jump\t// out\n    /* \"#utility.yul\":1038:1167   */\ntag_23:\n    /* \"#utility.yul\":1072:1078   */\n  0x00\n    /* \"#utility.yul\":1099:1119   */\n  tag_45\n  tag_16\n  jump\t// in\ntag_45:\n    /* \"#utility.yul\":1089:1119   */\n  swap1\n  pop\n    /* \"#utility.yul\":1128:1161   */\n  tag_46\n    /* \"#utility.yul\":1156:1160   */\n  dup3\n    /* \"#utility.yul\":1148:1154   */\n  dup3\n    /* \"#utility.yul\":1128:1161   */\n  tag_22\n  jump\t// in\ntag_46:\n    /* \"#utility.yul\":1038:1167   */\n  swap2\n  swap1\n  pop\n  jump\t// out\n    /* \"#utility.yul\":1173:1484   */\ntag_24:\n    /* \"#utility.yul\":1250:1254   */\n  0x00\n    /* \"#utility.yul\":1340:1358   */\n  0xffffffffffffffff\n    /* \"#utility.yul\":1332:1338   */\n  dup3\n    /* \"#utility.yul\":1329:1359   */\n  gt\n    /* \"#utility.yul\":1326:1382   */\n  iszero\n  tag_48\n  jumpi\n    /* \"#utility.yul\":1362:1380   */\n  tag_49\n  tag_21\n  jump\t// in\ntag_49:\n    /* \"#utility.yul\":1326:1382   */\ntag_48:\n    /* \"#utility.yul\":1412:1416   */\n  0x20\n    /* \"#utility.yul\":1404:1410   */\n  dup3\n    /* \"#utility.yul\":1400:1417   */\n  mul\n    /* \"#utility.yul\":1392:1417   */\n  swap1\n  pop\n    /* \"#utility.yul\":1472:1476   */\n  0x20\n    /* \"#utility.yul\":1466:1470   */\n  dup2\n    /* \"#utility.yul\":1462:1477   */\n  add\n    /* \"#utility.yul\":1454:1477   */\n  swap1\n  pop\n    /* \"#utility.yul\":1173:1484   */\n  swap2\n  swap1\n  pop\n  jump\t// out\n    /* \"#utility.yul\":1490:1607   */\ntag_25:\n    /* \"#utility.yul\":1599:1600   */\n  0x00\n    /* \"#utility.yul\":1596:1597   */\n  dup1\n    /* \"#utility.yul\":1589:1601   */\n  revert\n    /* \"#utility.yul\":1613:1690   */\ntag_26:\n    /* \"#utility.yul\":1650:1657   */\n  0x00\n    /* \"#utility.yul\":1679:1684   */\n  dup2\n    /* \"#utility.yul\":1668:1684   */\n  swap1\n  pop\n    /* \"#utility.yul\":1613:1690   */\n  swap2\n  swap1\n  pop\n  jump\t// out\n    /* \"#utility.yul\":1696:1818   */\ntag_27:\n    /* \"#utility.yul\":1769:1793   */\n  tag_53\n    /* \"#utility.yul\":1787:1792   */\n  dup2\n    /* \"#utility.yul\":1769:1793   */\n  tag_26\n  jump\t// in\ntag_53:\n    /* \"#utility.yul\":1762:1767   */\n  dup2\n    /* \"#utility.yul\":1759:1794   */\n  eq\n    /* \"#utility.yul\":1749:1812   */\n  tag_54\n  jumpi\n    /* \"#utility.yul\":1808:1809   */\n  0x00\n    /* \"#utility.yul\":1805:1806   */\n  dup1\n    /* \"#utility.yul\":1798:1810   */\n  revert\n    /* \"#utility.yul\":1749:1812   */\ntag_54:\n    /* \"#utility.yul\":1696:1818   */\n  pop\n  jump\t// out\n    /* \"#utility.yul\":1824:1967   */\ntag_28:\n    /* \"#utility.yul\":1881:1886   */\n  0x00\n    /* \"#utility.yul\":1912:1918   */\n  dup2\n    /* \"#utility.yul\":1906:1919   */\n  mload\n    /* \"#utility.yul\":1897:1919   */\n  swap1\n  pop\n    /* \"#utility.yul\":1928:1961   */\n  tag_56\n    /* \"#utility.yul\":1955:1960   */\n  dup2\n    /* \"#utility.yul\":1928:1961   */\n  tag_27\n  jump\t// in\ntag_56:\n    /* \"#utility.yul\":1824:1967   */\n  swap3\n  swap2\n  pop\n  pop\n  jump\t// out\n    /* \"#utility.yul\":1990:2722   */\ntag_29:\n    /* \"#utility.yul\":2097:2102   */\n  0x00\n    /* \"#utility.yul\":2122:2203   */\n  tag_58\n    /* \"#utility.yul\":2138:2202   */\n  tag_59\n    /* \"#utility.yul\":2195:2201   */\n  dup5\n    /* \"#utility.yul\":2138:2202   */\n  tag_24\n  jump\t// in\ntag_59:\n    /* \"#utility.yul\":2122:2203   */\n  tag_23\n  jump\t// in\ntag_58:\n    /* \"#utility.yul\":2113:2203   */\n  swap1\n  pop\n    /* \"#utility.yul\":2223:2228   */\n  dup1\n    /* \"#utility.yul\":2252:2258   */\n  dup4\n    /* \"#utility.yul\":2245:2250   */\n  dup3\n    /* \"#utility.yul\":2238:2259   */\n  mstore\n    /* \"#utility.yul\":2286:2290   */\n  0x20\n    /* \"#utility.yul\":2279:2284   */\n  dup3\n    /* \"#utility.yul\":2275:2291   */\n  add\n    /* \"#utility.yul\":2268:2291   */\n  swap1\n  pop\n    /* \"#utility.yul\":2339:2343   */\n  0x20\n    /* \"#utility.yul\":2331:2337   */\n  dup5\n    /* \"#utility.yul\":2327:2344   */\n  mul\n    /* \"#utility.yul\":2319:2325   */\n  dup4\n    /* \"#utility.yul\":2315:2345   */\n  add\n    /* \"#utility.yul\":2368:2371   */\n  dup6\n    /* \"#utility.yul\":2360:2366   */\n  dup2\n    /* \"#utility.yul\":2357:2372   */\n  gt\n    /* \"#utility.yul\":2354:2476   */\n  iszero\n  tag_60\n  jumpi\n    /* \"#utility.yul\":2387:2466   */\n  tag_61\n  tag_25\n  jump\t// in\ntag_61:\n    /* \"#utility.yul\":2354:2476   */\ntag_60:\n    /* \"#utility.yul\":2502:2508   */\n  dup4\n    /* \"#utility.yul\":2485:2716   */\ntag_62:\n    /* \"#utility.yul\":2519:2525   */\n  dup2\n    /* \"#utility.yul\":2514:2517   */\n  dup2\n    /* \"#utility.yul\":2511:2526   */\n  lt\n    /* \"#utility.yul\":2485:2716   */\n  iszero\n  tag_64\n  jumpi\n    /* \"#utility.yul\":2594:2597   */\n  dup1\n    /* \"#utility.yul\":2623:2671   */\n  tag_65\n    /* \"#utility.yul\":2667:2670   */\n  dup9\n    /* \"#utility.yul\":2655:2665   */\n  dup3\n    /* \"#utility.yul\":2623:2671   */\n  tag_28\n  jump\t// in\ntag_65:\n    /* \"#utility.yul\":2618:2621   */\n  dup5\n    /* \"#utility.yul\":2611:2672   */\n  mstore\n    /* \"#utility.yul\":2701:2705   */\n  0x20\n    /* \"#utility.yul\":2696:2699   */\n  dup5\n    /* \"#utility.yul\":2692:2706   */\n  add\n    /* \"#utility.yul\":2685:2706   */\n  swap4\n  pop\n    /* \"#utility.yul\":2561:2716   */\n  pop\n    /* \"#utility.yul\":2545:2549   */\n  0x20\n    /* \"#utility.yul\":2540:2543   */\n  dup2\n    /* \"#utility.yul\":2536:2550   */\n  add\n    /* \"#utility.yul\":2529:2550   */\n  swap1\n  pop\n    /* \"#utility.yul\":2485:2716   */\n  jump(tag_62)\ntag_64:\n    /* \"#utility.yul\":2489:2510   */\n  pop\n    /* \"#utility.yul\":2103:2722   */\n  pop\n  pop\n    /* \"#utility.yul\":1990:2722   */\n  swap4\n  swap3\n  pop\n  pop\n  pop\n  jump\t// out\n    /* \"#utility.yul\":2745:3130   */\ntag_30:\n    /* \"#utility.yul\":2827:2832   */\n  0x00\n    /* \"#utility.yul\":2876:2879   */\n  dup3\n    /* \"#utility.yul\":2869:2873   */\n  0x1f\n    /* \"#utility.yul\":2861:2867   */\n  dup4\n    /* \"#utility.yul\":2857:2874   */\n  add\n    /* \"#utility.yul\":2853:2880   */\n  slt\n    /* \"#utility.yul\":2843:2965   */\n  tag_67\n  jumpi\n    /* \"#utility.yul\":2884:2963   */\n  tag_68\n  tag_19\n  jump\t// in\ntag_68:\n    /* \"#utility.yul\":2843:2965   */\ntag_67:\n    /* \"#utility.yul\":2994:3000   */\n  dup2\n    /* \"#utility.yul\":2988:3001   */\n  mload\n    /* \"#utility.yul\":3019:3124   */\n  tag_69\n    /* \"#utility.yul\":3120:3123   */\n  dup5\n    /* \"#utility.yul\":3112:3118   */\n  dup3\n    /* \"#utility.yul\":3105:3109   */\n  0x20\n    /* \"#utility.yul\":3097:3103   */\n  dup7\n    /* \"#utility.yul\":3093:3110   */\n  add\n    /* \"#utility.yul\":3019:3124   */\n  tag_29\n  jump\t// in\ntag_69:\n    /* \"#utility.yul\":3010:3124   */\n  swap2\n  pop\n    /* \"#utility.yul\":2833:3130   */\n  pop\n    /* \"#utility.yul\":2745:3130   */\n  swap3\n  swap2\n  pop\n  pop\n  jump\t// out\n    /* \"#utility.yul\":3136:3690   */\ntag_3:\n    /* \"#utility.yul\":3231:3237   */\n  0x00\n    /* \"#utility.yul\":3280:3282   */\n  0x20\n    /* \"#utility.yul\":3268:3277   */\n  dup3\n    /* \"#utility.yul\":3259:3266   */\n  dup5\n    /* \"#utility.yul\":3255:3278   */\n  sub\n    /* \"#utility.yul\":3251:3283   */\n  slt\n    /* \"#utility.yul\":3248:3367   */\n  iszero\n  tag_71\n  jumpi\n    /* \"#utility.yul\":3286:3365   */\n  tag_72\n  tag_17\n  jump\t// in\ntag_72:\n    /* \"#utility.yul\":3248:3367   */\ntag_71:\n    /* \"#utility.yul\":3427:3428   */\n  0x00\n    /* \"#utility.yul\":3416:3425   */\n  dup3\n    /* \"#utility.yul\":3412:3429   */\n  add\n    /* \"#utility.yul\":3406:3430   */\n  mload\n    /* \"#utility.yul\":3457:3475   */\n  0xffffffffffffffff\n    /* \"#utility.yul\":3449:3455   */\n  dup2\n    /* \"#utility.yul\":3446:3476   */\n  gt\n    /* \"#utility.yul\":3443:3560   */\n  iszero\n  tag_73\n  jumpi\n    /* \"#utility.yul\":3479:3558   */\n  tag_74\n  tag_18\n  jump\t// in\ntag_74:\n    /* \"#utility.yul\":3443:3560   */\ntag_73:\n    /* \"#utility.yul\":3584:3673   */\n  tag_75\n    /* \"#utility.yul\":3665:3672   */\n  dup5\n    /* \"#utility.yul\":3656:3662   */\n  dup3\n    /* \"#utility.yul\":3645:3654   */\n  dup6\n    /* \"#utility.yul\":3641:3663   */\n  add\n    /* \"#utility.yul\":3584:3673   */\n  tag_30\n  jump\t// in\ntag_75:\n    /* \"#utility.yul\":3574:3673   */\n  swap2\n  pop\n    /* \"#utility.yul\":3377:3683   */\n  pop\n    /* \"#utility.yul\":3136:3690   */\n  swap3\n  swap2\n  pop\n  pop\n  jump\t// out\n    /* \"#utility.yul\":3696:3876   */\ntag_11:\n    /* \"#utility.yul\":3744:3821   */\n  0x4e487b7100000000000000000000000000000000000000000000000000000000\n    /* \"#utility.yul\":3741:3742   */\n  0x00\n    /* \"#utility.yul\":3734:3822   */\n  mstore\n    /* \"#utility.yul\":3841:3845   */\n  0x32\n    /* \"#utility.yul\":3838:3839   */\n  0x04\n    /* \"#utility.yul\":3831:3846   */\n  mstore\n    /* \"#utility.yul\":3865:3869   */\n  0x24\n    /* \"#utility.yul\":3862:3863   */\n  0x00\n    /* \"#utility.yul\":3855:3870   */\n  revert\n    /* \"#utility.yul\":3882:4062   */\ntag_31:\n    /* \"#utility.yul\":3930:4007   */\n  0x4e487b7100000000000000000000000000000000000000000000000000000000\n    /* \"#utility.yul\":3927:3928   */\n  0x00\n    /* \"#utility.yul\":3920:4008   */\n  mstore\n    /* \"#utility.yul\":4027:4031   */\n  0x11\n    /* \"#utility.yul\":4024:4025   */\n  0x04\n    /* \"#utility.yul\":4017:4032   */\n  mstore\n    /* \"#utility.yul\":4051:4055   */\n  0x24\n    /* \"#utility.yul\":4048:4049   */\n  0x00\n    /* \"#utility.yul\":4041:4056   */\n  revert\n    /* \"#utility.yul\":4068:4145   */\ntag_32:\n    /* \"#utility.yul\":4105:4112   */\n  0x00\n    /* \"#utility.yul\":4134:4139   */\n  dup2\n    /* \"#utility.yul\":4123:4139   */\n  swap1\n  pop\n    /* \"#utility.yul\":4068:4145   */\n  swap2\n  swap1\n  pop\n  jump\t// out\n    /* \"#utility.yul\":4151:4384   */\ntag_14:\n    /* \"#utility.yul\":4190:4193   */\n  0x00\n    /* \"#utility.yul\":4213:4237   */\n  tag_80\n    /* \"#utility.yul\":4231:4236   */\n  dup3\n    /* \"#utility.yul\":4213:4237   */\n  tag_32\n  jump\t// in\ntag_80:\n    /* \"#utility.yul\":4204:4237   */\n  swap2\n  pop\n    /* \"#utility.yul\":4259:4325   */\n  0xffffffffffffffffffffffffffffffffffffffffffffffffffffffffffffffff\n    /* \"#utility.yul\":4252:4257   */\n  dup3\n    /* \"#utility.yul\":4249:4326   */\n  sub\n    /* \"#utility.yul\":4246:4349   */\n  tag_81\n  jumpi\n    /* \"#utility.yul\":4329:4347   */\n  tag_82\n  tag_31\n  jump\t// in\ntag_82:\n    /* \"#utility.yul\":4246:4349   */\ntag_81:\n    /* \"#utility.yul\":4376:4377   */\n  0x01\n    /* \"#utility.yul\":4369:4374   */\n  dup3\n    /* \"#utility.yul\":4365:4378   */\n  add\n    /* \"#utility.yul\":4358:4378   */\n  swap1\n  pop\n    /* \"#utility.yul\":4151:4384   */\n  swap2\n  swap1\n  pop\n  jump\t// out\n    /* \"contracts/test1.sol\":66:1908  contract ElectiveSystem {... */\ntag_15:\n  dataSize(sub_0)\n  dup1\n  dataOffset(sub_0)\n  0x00\n  codecopy\n  0x00\n  return\nstop\n\nsub_0: assembly {\n        /* \"contracts/test1.sol\":66:1908  contract ElectiveSystem {... */\n      mstore(0x40, 0x80)\n      callvalue\n      dup1\n      iszero\n      tag_1\n      jumpi\n      0x00\n      dup1\n      revert\n    tag_1:\n      pop\n      jumpi(tag_2, lt(calldatasize, 0x04))\n      shr(0xe0, calldataload(0x00))\n      dup1\n      0x013cf08b\n      eq\n      tag_3\n      jumpi\n      dup1\n      0x24845194\n      eq\n      tag_4\n      jumpi\n      dup1\n      0x87f7b975\n      eq\n      tag_5\n      jumpi\n      dup1\n      0xa3ec138d\n      eq\n      tag_6\n      jumpi\n      dup1\n      0xa46aedfc\n      eq\n      tag_7\n      jumpi\n    tag_2:\n      0x00\n      dup1\n      revert\n        /* \"contracts/test1.sol\":345:372  Proposal[] public proposals */\n    tag_3:\n      tag_8\n      0x04\n      dup1\n      calldatasize\n      sub\n      dup2\n      add\n      swap1\n      tag_9\n      swap2\n      swap1\n      tag_10\n      jump\t// in\n    tag_9:\n      tag_11\n      jump\t// in\n    tag_8:\n      mload(0x40)\n      tag_12\n      swap3\n      swap2\n      swap1\n      tag_13\n      jump\t// in\n    tag_12:\n      mload(0x40)\n      dup1\n      swap2\n      sub\n      swap1\n      return\n        /* \"contracts/test1.sol\":700:966  function giveAddressVote(address _to) public {... */\n    tag_4:\n      tag_14\n      0x04\n      dup1\n      calldatasize\n      sub\n      dup2\n      add\n      swap1\n      tag_15\n      swap2\n      swap1\n      tag_16\n      jump\t// in\n    tag_15:\n      tag_17\n      jump\t// in\n    tag_14:\n      stop\n        /* \"contracts/test1.sol\":96:119  address public chairman */\n    tag_5:\n      tag_18\n      tag_19\n      jump\t// in\n    tag_18:\n      mload(0x40)\n      tag_20\n      swap2\n      swap1\n      tag_21\n      jump\t// in\n    tag_20:\n      mload(0x40)\n      dup1\n      swap2\n      sub\n      swap1\n      return\n        /* \"contracts/test1.sol\":378:415  mapping(address=>Voter) public voters */\n    tag_6:\n      tag_22\n      0x04\n      dup1\n      calldatasize\n      sub\n      dup2\n      add\n      swap1\n      tag_23\n      swap2\n      swap1\n      tag_16\n      jump\t// in\n    tag_23:\n      tag_24\n      jump\t// in\n    tag_22:\n      mload(0x40)\n      tag_25\n      swap4\n      swap3\n      swap2\n      swap1\n      tag_26\n      jump\t// in\n    tag_25:\n      mload(0x40)\n      dup1\n      swap2\n      sub\n      swap1\n      return\n        /* \"contracts/test1.sol\":973:1895  function entrust(address _to, uint _proposalIdx) public {... */\n    tag_7:\n      tag_27\n      0x04\n      dup1\n      calldatasize\n      sub\n      dup2\n      add\n      swap1\n      tag_28\n      swap2\n      swap1\n      tag_29\n      jump\t// in\n    tag_28:\n      tag_30\n      jump\t// in\n    tag_27:\n      stop\n        /* \"contracts/test1.sol\":345:372  Proposal[] public proposals */\n    tag_11:\n      0x01\n      dup2\n      dup2\n      sload\n      dup2\n      lt\n      tag_31\n      jumpi\n      0x00\n      dup1\n      revert\n    tag_31:\n      swap1\n      0x00\n      mstore\n      keccak256(0x00, 0x20)\n      swap1\n      0x02\n      mul\n      add\n      0x00\n      swap2\n      pop\n      swap1\n      pop\n      dup1\n      0x00\n      add\n      sload\n      swap1\n      dup1\n      0x01\n      add\n      sload\n      swap1\n      pop\n      dup3\n      jump\t// out\n        /* \"contracts/test1.sol\":700:966  function giveAddressVote(address _to) public {... */\n    tag_17:\n        /* \"contracts/test1.sol\":777:785  chairman */\n      0x00\n      dup1\n      sload\n      swap1\n      0x0100\n      exp\n      swap1\n      div\n      0xffffffffffffffffffffffffffffffffffffffff\n      and\n        /* \"contracts/test1.sol\":763:785  msg.sender == chairman */\n      0xffffffffffffffffffffffffffffffffffffffff\n      and\n        /* \"contracts/test1.sol\":763:773  msg.sender */\n      caller\n        /* \"contracts/test1.sol\":763:785  msg.sender == chairman */\n      0xffffffffffffffffffffffffffffffffffffffff\n      and\n      eq\n        /* \"contracts/test1.sol\":755:823  require(msg.sender == chairman, \"The caller is not the chairperson\") */\n      tag_34\n      jumpi\n      mload(0x40)\n      0x08c379a000000000000000000000000000000000000000000000000000000000\n      dup2\n      mstore\n      0x04\n      add\n      tag_35\n      swap1\n      tag_36\n      jump\t// in\n    tag_35:\n      mload(0x40)\n      dup1\n      swap2\n      sub\n      swap1\n      revert\n    tag_34:\n        /* \"contracts/test1.sol\":842:848  voters */\n      0x02\n        /* \"contracts/test1.sol\":842:853  voters[_to] */\n      0x00\n        /* \"contracts/test1.sol\":849:852  _to */\n      dup3\n        /* \"contracts/test1.sol\":842:853  voters[_to] */\n      0xffffffffffffffffffffffffffffffffffffffff\n      and\n      0xffffffffffffffffffffffffffffffffffffffff\n      and\n      dup2\n      mstore\n      0x20\n      add\n      swap1\n      dup2\n      mstore\n      0x20\n      add\n      0x00\n      keccak256\n        /* \"contracts/test1.sol\":842:859  voters[_to].voted */\n      0x01\n      add\n      0x14\n      swap1\n      sload\n      swap1\n      0x0100\n      exp\n      swap1\n      div\n      0xff\n      and\n        /* \"contracts/test1.sol\":841:859  !voters[_to].voted */\n      iszero\n        /* \"contracts/test1.sol\":833:871  require(!voters[_to].voted, \"to vote\") */\n      tag_37\n      jumpi\n      mload(0x40)\n      0x08c379a000000000000000000000000000000000000000000000000000000000\n      dup2\n      mstore\n      0x04\n      add\n      tag_38\n      swap1\n      tag_39\n      jump\t// in\n    tag_38:\n      mload(0x40)\n      dup1\n      swap2\n      sub\n      swap1\n      revert\n    tag_37:\n        /* \"contracts/test1.sol\":911:912  0 */\n      0x00\n        /* \"contracts/test1.sol\":889:895  voters */\n      0x02\n        /* \"contracts/test1.sol\":889:900  voters[_to] */\n      0x00\n        /* \"contracts/test1.sol\":896:899  _to */\n      dup4\n        /* \"contracts/test1.sol\":889:900  voters[_to] */\n      0xffffffffffffffffffffffffffffffffffffffff\n      and\n      0xffffffffffffffffffffffffffffffffffffffff\n      and\n      dup2\n      mstore\n      0x20\n      add\n      swap1\n      dup2\n      mstore\n      0x20\n      add\n      0x00\n      keccak256\n        /* \"contracts/test1.sol\":889:907  voters[_to].weight */\n      0x00\n      add\n      sload\n        /* \"contracts/test1.sol\":889:912  voters[_to].weight == 0 */\n      eq\n        /* \"contracts/test1.sol\":881:927  require(voters[_to].weight == 0, \"authorized\") */\n      tag_40\n      jumpi\n      mload(0x40)\n      0x08c379a000000000000000000000000000000000000000000000000000000000\n      dup2\n      mstore\n      0x04\n      add\n      tag_41\n      swap1\n      tag_42\n      jump\t// in\n    tag_41:\n      mload(0x40)\n      dup1\n      swap2\n      sub\n      swap1\n      revert\n    tag_40:\n        /* \"contracts/test1.sol\":958:959  1 */\n      0x01\n        /* \"contracts/test1.sol\":937:943  voters */\n      0x02\n        /* \"contracts/test1.sol\":937:948  voters[_to] */\n      0x00\n        /* \"contracts/test1.sol\":944:947  _to */\n      dup4\n        /* \"contracts/test1.sol\":937:948  voters[_to] */\n      0xffffffffffffffffffffffffffffffffffffffff\n      and\n      0xffffffffffffffffffffffffffffffffffffffff\n      and\n      dup2\n      mstore\n      0x20\n      add\n      swap1\n      dup2\n      mstore\n      0x20\n      add\n      0x00\n      keccak256\n        /* \"contracts/test1.sol\":937:955  voters[_to].weight */\n      0x00\n      add\n        /* \"contracts/test1.sol\":937:959  voters[_to].weight = 1 */\n      dup2\n      swap1\n      sstore\n      pop\n        /* \"contracts/test1.sol\":700:966  function giveAddressVote(address _to) public {... */\n      pop\n      jump\t// out\n        /* \"contracts/test1.sol\":96:119  address public chairman */\n    tag_19:\n      0x00\n      dup1\n      sload\n      swap1\n      0x0100\n      exp\n      swap1\n      div\n      0xffffffffffffffffffffffffffffffffffffffff\n      and\n      dup2\n      jump\t// out\n        /* \"contracts/test1.sol\":378:415  mapping(address=>Voter) public voters */\n    tag_24:\n      mstore(0x20, 0x02)\n      dup1\n      0x00\n      mstore\n      keccak256(0x00, 0x40)\n      0x00\n      swap2\n      pop\n      swap1\n      pop\n      dup1\n      0x00\n      add\n      sload\n      swap1\n      dup1\n      0x01\n      add\n      0x00\n      swap1\n      sload\n      swap1\n      0x0100\n      exp\n      swap1\n      div\n      0xffffffffffffffffffffffffffffffffffffffff\n      and\n      swap1\n      dup1\n      0x01\n      add\n      0x14\n      swap1\n      sload\n      swap1\n      0x0100\n      exp\n      swap1\n      div\n      0xff\n      and\n      swap1\n      pop\n      dup4\n      jump\t// out\n        /* \"contracts/test1.sol\":973:1895  function entrust(address _to, uint _proposalIdx) public {... */\n    tag_30:\n        /* \"contracts/test1.sol\":1104:1107  _to */\n      dup2\n        /* \"contracts/test1.sol\":1090:1107  msg.sender != _to */\n      0xffffffffffffffffffffffffffffffffffffffff\n      and\n        /* \"contracts/test1.sol\":1090:1100  msg.sender */\n      caller\n        /* \"contracts/test1.sol\":1090:1107  msg.sender != _to */\n      0xffffffffffffffffffffffffffffffffffffffff\n      and\n      sub\n        /* \"contracts/test1.sol\":1082:1143  require(msg.sender != _to, \"The entrusted person is himself\") */\n      tag_44\n      jumpi\n      mload(0x40)\n      0x08c379a000000000000000000000000000000000000000000000000000000000\n      dup2\n      mstore\n      0x04\n      add\n      tag_45\n      swap1\n      tag_46\n      jump\t// in\n    tag_45:\n      mload(0x40)\n      dup1\n      swap2\n      sub\n      swap1\n      revert\n    tag_44:\n        /* \"contracts/test1.sol\":1262:1394  while (voters[_to].trustee != address(0)){... */\n    tag_47:\n        /* \"contracts/test1.sol\":1300:1301  0 */\n      0x00\n        /* \"contracts/test1.sol\":1269:1302  voters[_to].trustee != address(0) */\n      0xffffffffffffffffffffffffffffffffffffffff\n      and\n        /* \"contracts/test1.sol\":1269:1275  voters */\n      0x02\n        /* \"contracts/test1.sol\":1269:1280  voters[_to] */\n      0x00\n        /* \"contracts/test1.sol\":1276:1279  _to */\n      dup5\n        /* \"contracts/test1.sol\":1269:1280  voters[_to] */\n      0xffffffffffffffffffffffffffffffffffffffff\n      and\n      0xffffffffffffffffffffffffffffffffffffffff\n      and\n      dup2\n      mstore\n      0x20\n      add\n      swap1\n      dup2\n      mstore\n      0x20\n      add\n      0x00\n      keccak256\n        /* \"contracts/test1.sol\":1269:1288  voters[_to].trustee */\n      0x01\n      add\n      0x00\n      swap1\n      sload\n      swap1\n      0x0100\n      exp\n      swap1\n      div\n      0xffffffffffffffffffffffffffffffffffffffff\n      and\n        /* \"contracts/test1.sol\":1269:1302  voters[_to].trustee != address(0) */\n      0xffffffffffffffffffffffffffffffffffffffff\n      and\n      eq\n        /* \"contracts/test1.sol\":1262:1394  while (voters[_to].trustee != address(0)){... */\n      tag_48\n      jumpi\n        /* \"contracts/test1.sol\":1348:1358  msg.sender */\n      caller\n        /* \"contracts/test1.sol\":1325:1358  voters[_to].trustee != msg.sender */\n      0xffffffffffffffffffffffffffffffffffffffff\n      and\n        /* \"contracts/test1.sol\":1325:1331  voters */\n      0x02\n        /* \"contracts/test1.sol\":1325:1336  voters[_to] */\n      0x00\n        /* \"contracts/test1.sol\":1332:1335  _to */\n      dup5\n        /* \"contracts/test1.sol\":1325:1336  voters[_to] */\n      0xffffffffffffffffffffffffffffffffffffffff\n      and\n      0xffffffffffffffffffffffffffffffffffffffff\n      and\n      dup2\n      mstore\n      0x20\n      add\n      swap1\n      dup2\n      mstore\n      0x20\n      add\n      0x00\n      keccak256\n        /* \"contracts/test1.sol\":1325:1344  voters[_to].trustee */\n      0x01\n      add\n      0x00\n      swap1\n      sload\n      swap1\n      0x0100\n      exp\n      swap1\n      div\n      0xffffffffffffffffffffffffffffffffffffffff\n      and\n        /* \"contracts/test1.sol\":1325:1358  voters[_to].trustee != msg.sender */\n      0xffffffffffffffffffffffffffffffffffffffff\n      and\n      sub\n        /* \"contracts/test1.sol\":1317:1383  require(voters[_to].trustee != msg.sender,\"Delegated closed loop\") */\n      tag_49\n      jumpi\n      mload(0x40)\n      0x08c379a000000000000000000000000000000000000000000000000000000000\n      dup2\n      mstore\n      0x04\n      add\n      tag_50\n      swap1\n      tag_51\n      jump\t// in\n    tag_50:\n      mload(0x40)\n      dup1\n      swap2\n      sub\n      swap1\n      revert\n    tag_49:\n        /* \"contracts/test1.sol\":1262:1394  while (voters[_to].trustee != address(0)){... */\n      jump(tag_47)\n    tag_48:\n        /* \"contracts/test1.sol\":1449:1455  voters */\n      0x02\n        /* \"contracts/test1.sol\":1449:1467  voters[msg.sender] */\n      0x00\n        /* \"contracts/test1.sol\":1456:1466  msg.sender */\n      caller\n        /* \"contracts/test1.sol\":1449:1467  voters[msg.sender] */\n      0xffffffffffffffffffffffffffffffffffffffff\n      and\n      0xffffffffffffffffffffffffffffffffffffffff\n      and\n      dup2\n      mstore\n      0x20\n      add\n      swap1\n      dup2\n      mstore\n      0x20\n      add\n      0x00\n      keccak256\n        /* \"contracts/test1.sol\":1449:1473  voters[msg.sender].voted */\n      0x01\n      add\n      0x14\n      swap1\n      sload\n      swap1\n      0x0100\n      exp\n      swap1\n      div\n      0xff\n      and\n        /* \"contracts/test1.sol\":1448:1473  !voters[msg.sender].voted */\n      iszero\n        /* \"contracts/test1.sol\":1440:1494  require(!voters[msg.sender].voted, \"caller has voted\") */\n      tag_52\n      jumpi\n      mload(0x40)\n      0x08c379a000000000000000000000000000000000000000000000000000000000\n      dup2\n      mstore\n      0x04\n      add\n      tag_53\n      swap1\n      tag_54\n      jump\t// in\n    tag_53:\n      mload(0x40)\n      dup1\n      swap2\n      sub\n      swap1\n      revert\n    tag_52:\n        /* \"contracts/test1.sol\":1579:1580  0 */\n      0x00\n        /* \"contracts/test1.sol\":1550:1556  voters */\n      0x02\n        /* \"contracts/test1.sol\":1550:1568  voters[msg.sender] */\n      0x00\n        /* \"contracts/test1.sol\":1557:1567  msg.sender */\n      caller\n        /* \"contracts/test1.sol\":1550:1568  voters[msg.sender] */\n      0xffffffffffffffffffffffffffffffffffffffff\n      and\n      0xffffffffffffffffffffffffffffffffffffffff\n      and\n      dup2\n      mstore\n      0x20\n      add\n      swap1\n      dup2\n      mstore\n      0x20\n      add\n      0x00\n      keccak256\n        /* \"contracts/test1.sol\":1550:1575  voters[msg.sender].weight */\n      0x00\n      add\n      sload\n        /* \"contracts/test1.sol\":1550:1580  voters[msg.sender].weight != 0 */\n      sub\n        /* \"contracts/test1.sol\":1542:1623  require(voters[msg.sender].weight != 0, \"The caller does not have voting rights\") */\n      tag_55\n      jumpi\n      mload(0x40)\n      0x08c379a000000000000000000000000000000000000000000000000000000000\n      dup2\n      mstore\n      0x04\n      add\n      tag_56\n      swap1\n      tag_57\n      jump\t// in\n    tag_56:\n      mload(0x40)\n      dup1\n      swap2\n      sub\n      swap1\n      revert\n    tag_55:\n        /* \"contracts/test1.sol\":1702:1703  0 */\n      0x00\n        /* \"contracts/test1.sol\":1687:1704  _to != address(0) */\n      0xffffffffffffffffffffffffffffffffffffffff\n      and\n        /* \"contracts/test1.sol\":1687:1690  _to */\n      dup3\n        /* \"contracts/test1.sol\":1687:1704  _to != address(0) */\n      0xffffffffffffffffffffffffffffffffffffffff\n      and\n      sub\n        /* \"contracts/test1.sol\":1679:1741  require(_to != address(0), \"The entrusted address is illegal\") */\n      tag_58\n      jumpi\n      mload(0x40)\n      0x08c379a000000000000000000000000000000000000000000000000000000000\n      dup2\n      mstore\n      0x04\n      add\n      tag_59\n      swap1\n      tag_60\n      jump\t// in\n    tag_59:\n      mload(0x40)\n      dup1\n      swap2\n      sub\n      swap1\n      revert\n    tag_58:\n        /* \"contracts/test1.sol\":1781:1784  _to */\n      dup2\n        /* \"contracts/test1.sol\":1752:1758  voters */\n      0x02\n        /* \"contracts/test1.sol\":1752:1770  voters[msg.sender] */\n      0x00\n        /* \"contracts/test1.sol\":1759:1769  msg.sender */\n      caller\n        /* \"contracts/test1.sol\":1752:1770  voters[msg.sender] */\n      0xffffffffffffffffffffffffffffffffffffffff\n      and\n      0xffffffffffffffffffffffffffffffffffffffff\n      and\n      dup2\n      mstore\n      0x20\n      add\n      swap1\n      dup2\n      mstore\n      0x20\n      add\n      0x00\n      keccak256\n        /* \"contracts/test1.sol\":1752:1778  voters[msg.sender].trustee */\n      0x01\n      add\n      0x00\n        /* \"contracts/test1.sol\":1752:1784  voters[msg.sender].trustee = _to */\n      0x0100\n      exp\n      dup2\n      sload\n      dup2\n      0xffffffffffffffffffffffffffffffffffffffff\n      mul\n      not\n      and\n      swap1\n      dup4\n      0xffffffffffffffffffffffffffffffffffffffff\n      and\n      mul\n      or\n      swap1\n      sstore\n      pop\n        /* \"contracts/test1.sol\":1823:1824  0 */\n      0x00\n        /* \"contracts/test1.sol\":1795:1801  voters */\n      0x02\n        /* \"contracts/test1.sol\":1795:1813  voters[msg.sender] */\n      0x00\n        /* \"contracts/test1.sol\":1802:1812  msg.sender */\n      caller\n        /* \"contracts/test1.sol\":1795:1813  voters[msg.sender] */\n      0xffffffffffffffffffffffffffffffffffffffff\n      and\n      0xffffffffffffffffffffffffffffffffffffffff\n      and\n      dup2\n      mstore\n      0x20\n      add\n      swap1\n      dup2\n      mstore\n      0x20\n      add\n      0x00\n      keccak256\n        /* \"contracts/test1.sol\":1795:1820  voters[msg.sender].weight */\n      0x00\n      add\n        /* \"contracts/test1.sol\":1795:1824  voters[msg.sender].weight = 0 */\n      dup2\n      swap1\n      sstore\n      pop\n        /* \"contracts/test1.sol\":1839:1845  voters */\n      0x02\n        /* \"contracts/test1.sol\":1839:1850  voters[_to] */\n      0x00\n        /* \"contracts/test1.sol\":1846:1849  _to */\n      dup4\n        /* \"contracts/test1.sol\":1839:1850  voters[_to] */\n      0xffffffffffffffffffffffffffffffffffffffff\n      and\n      0xffffffffffffffffffffffffffffffffffffffff\n      and\n      dup2\n      mstore\n      0x20\n      add\n      swap1\n      dup2\n      mstore\n      0x20\n      add\n      0x00\n      keccak256\n        /* \"contracts/test1.sol\":1839:1856  voters[_to].voted */\n      0x01\n      add\n      0x14\n      swap1\n      sload\n      swap1\n      0x0100\n      exp\n      swap1\n      pop\n      pop\n        /* \"contracts/test1.sol\":973:1895  function entrust(address _to, uint _proposalIdx) public {... */\n      pop\n      pop\n      jump\t// out\n        /* \"#utility.yul\":88:205   */\n    tag_64:\n        /* \"#utility.yul\":197:198   */\n      0x00\n        /* \"#utility.yul\":194:195   */\n      dup1\n        /* \"#utility.yul\":187:199   */\n      revert\n        /* \"#utility.yul\":334:411   */\n    tag_66:\n        /* \"#utility.yul\":371:378   */\n      0x00\n        /* \"#utility.yul\":400:405   */\n      dup2\n        /* \"#utility.yul\":389:405   */\n      swap1\n      pop\n        /* \"#utility.yul\":334:411   */\n      swap2\n      swap1\n      pop\n      jump\t// out\n        /* \"#utility.yul\":417:539   */\n    tag_67:\n        /* \"#utility.yul\":490:514   */\n      tag_102\n        /* \"#utility.yul\":508:513   */\n      dup2\n        /* \"#utility.yul\":490:514   */\n      tag_66\n      jump\t// in\n    tag_102:\n        /* \"#utility.yul\":483:488   */\n      dup2\n        /* \"#utility.yul\":480:515   */\n      eq\n        /* \"#utility.yul\":470:533   */\n      tag_103\n      jumpi\n        /* \"#utility.yul\":529:530   */\n      0x00\n        /* \"#utility.yul\":526:527   */\n      dup1\n        /* \"#utility.yul\":519:531   */\n      revert\n        /* \"#utility.yul\":470:533   */\n    tag_103:\n        /* \"#utility.yul\":417:539   */\n      pop\n      jump\t// out\n        /* \"#utility.yul\":545:684   */\n    tag_68:\n        /* \"#utility.yul\":591:596   */\n      0x00\n        /* \"#utility.yul\":629:635   */\n      dup2\n        /* \"#utility.yul\":616:636   */\n      calldataload\n        /* \"#utility.yul\":607:636   */\n      swap1\n      pop\n        /* \"#utility.yul\":645:678   */\n      tag_105\n        /* \"#utility.yul\":672:677   */\n      dup2\n        /* \"#utility.yul\":645:678   */\n      tag_67\n      jump\t// in\n    tag_105:\n        /* \"#utility.yul\":545:684   */\n      swap3\n      swap2\n      pop\n      pop\n      jump\t// out\n        /* \"#utility.yul\":690:1019   */\n    tag_10:\n        /* \"#utility.yul\":749:755   */\n      0x00\n        /* \"#utility.yul\":798:800   */\n      0x20\n        /* \"#utility.yul\":786:795   */\n      dup3\n        /* \"#utility.yul\":777:784   */\n      dup5\n        /* \"#utility.yul\":773:796   */\n      sub\n        /* \"#utility.yul\":769:801   */\n      slt\n        /* \"#utility.yul\":766:885   */\n      iszero\n      tag_107\n      jumpi\n        /* \"#utility.yul\":804:883   */\n      tag_108\n      tag_64\n      jump\t// in\n    tag_108:\n        /* \"#utility.yul\":766:885   */\n    tag_107:\n        /* \"#utility.yul\":924:925   */\n      0x00\n        /* \"#utility.yul\":949:1002   */\n      tag_109\n        /* \"#utility.yul\":994:1001   */\n      dup5\n        /* \"#utility.yul\":985:991   */\n      dup3\n        /* \"#utility.yul\":974:983   */\n      dup6\n        /* \"#utility.yul\":970:992   */\n      add\n        /* \"#utility.yul\":949:1002   */\n      tag_68\n      jump\t// in\n    tag_109:\n        /* \"#utility.yul\":939:1002   */\n      swap2\n      pop\n        /* \"#utility.yul\":895:1012   */\n      pop\n        /* \"#utility.yul\":690:1019   */\n      swap3\n      swap2\n      pop\n      pop\n      jump\t// out\n        /* \"#utility.yul\":1025:1102   */\n    tag_69:\n        /* \"#utility.yul\":1062:1069   */\n      0x00\n        /* \"#utility.yul\":1091:1096   */\n      dup2\n        /* \"#utility.yul\":1080:1096   */\n      swap1\n      pop\n        /* \"#utility.yul\":1025:1102   */\n      swap2\n      swap1\n      pop\n      jump\t// out\n        /* \"#utility.yul\":1108:1226   */\n    tag_70:\n        /* \"#utility.yul\":1195:1219   */\n      tag_112\n        /* \"#utility.yul\":1213:1218   */\n      dup2\n        /* \"#utility.yul\":1195:1219   */\n      tag_69\n      jump\t// in\n    tag_112:\n        /* \"#utility.yul\":1190:1193   */\n      dup3\n        /* \"#utility.yul\":1183:1220   */\n      mstore\n        /* \"#utility.yul\":1108:1226   */\n      pop\n      pop\n      jump\t// out\n        /* \"#utility.yul\":1232:1350   */\n    tag_71:\n        /* \"#utility.yul\":1319:1343   */\n      tag_114\n        /* \"#utility.yul\":1337:1342   */\n      dup2\n        /* \"#utility.yul\":1319:1343   */\n      tag_66\n      jump\t// in\n    tag_114:\n        /* \"#utility.yul\":1314:1317   */\n      dup3\n        /* \"#utility.yul\":1307:1344   */\n      mstore\n        /* \"#utility.yul\":1232:1350   */\n      pop\n      pop\n      jump\t// out\n        /* \"#utility.yul\":1356:1688   */\n    tag_13:\n        /* \"#utility.yul\":1477:1481   */\n      0x00\n        /* \"#utility.yul\":1515:1517   */\n      0x40\n        /* \"#utility.yul\":1504:1513   */\n      dup3\n        /* \"#utility.yul\":1500:1518   */\n      add\n        /* \"#utility.yul\":1492:1518   */\n      swap1\n      pop\n        /* \"#utility.yul\":1528:1599   */\n      tag_116\n        /* \"#utility.yul\":1596:1597   */\n      0x00\n        /* \"#utility.yul\":1585:1594   */\n      dup4\n        /* \"#utility.yul\":1581:1598   */\n      add\n        /* \"#utility.yul\":1572:1578   */\n      dup6\n        /* \"#utility.yul\":1528:1599   */\n      tag_70\n      jump\t// in\n    tag_116:\n        /* \"#utility.yul\":1609:1681   */\n      tag_117\n        /* \"#utility.yul\":1677:1679   */\n      0x20\n        /* \"#utility.yul\":1666:1675   */\n      dup4\n        /* \"#utility.yul\":1662:1680   */\n      add\n        /* \"#utility.yul\":1653:1659   */\n      dup5\n        /* \"#utility.yul\":1609:1681   */\n      tag_71\n      jump\t// in\n    tag_117:\n        /* \"#utility.yul\":1356:1688   */\n      swap4\n      swap3\n      pop\n      pop\n      pop\n      jump\t// out\n        /* \"#utility.yul\":1694:1820   */\n    tag_72:\n        /* \"#utility.yul\":1731:1738   */\n      0x00\n        /* \"#utility.yul\":1771:1813   */\n      0xffffffffffffffffffffffffffffffffffffffff\n        /* \"#utility.yul\":1764:1769   */\n      dup3\n        /* \"#utility.yul\":1760:1814   */\n      and\n        /* \"#utility.yul\":1749:1814   */\n      swap1\n      pop\n        /* \"#utility.yul\":1694:1820   */\n      swap2\n      swap1\n      pop\n      jump\t// out\n        /* \"#utility.yul\":1826:1922   */\n    tag_73:\n        /* \"#utility.yul\":1863:1870   */\n      0x00\n        /* \"#utility.yul\":1892:1916   */\n      tag_120\n        /* \"#utility.yul\":1910:1915   */\n      dup3\n        /* \"#utility.yul\":1892:1916   */\n      tag_72\n      jump\t// in\n    tag_120:\n        /* \"#utility.yul\":1881:1916   */\n      swap1\n      pop\n        /* \"#utility.yul\":1826:1922   */\n      swap2\n      swap1\n      pop\n      jump\t// out\n        /* \"#utility.yul\":1928:2050   */\n    tag_74:\n        /* \"#utility.yul\":2001:2025   */\n      tag_122\n        /* \"#utility.yul\":2019:2024   */\n      dup2\n        /* \"#utility.yul\":2001:2025   */\n      tag_73\n      jump\t// in\n    tag_122:\n        /* \"#utility.yul\":1994:1999   */\n      dup2\n        /* \"#utility.yul\":1991:2026   */\n      eq\n        /* \"#utility.yul\":1981:2044   */\n      tag_123\n      jumpi\n        /* \"#utility.yul\":2040:2041   */\n      0x00\n        /* \"#utility.yul\":2037:2038   */\n      dup1\n        /* \"#utility.yul\":2030:2042   */\n      revert\n        /* \"#utility.yul\":1981:2044   */\n    tag_123:\n        /* \"#utility.yul\":1928:2050   */\n      pop\n      jump\t// out\n        /* \"#utility.yul\":2056:2195   */\n    tag_75:\n        /* \"#utility.yul\":2102:2107   */\n      0x00\n        /* \"#utility.yul\":2140:2146   */\n      dup2\n        /* \"#utility.yul\":2127:2147   */\n      calldataload\n        /* \"#utility.yul\":2118:2147   */\n      swap1\n      pop\n        /* \"#utility.yul\":2156:2189   */\n      tag_125\n        /* \"#utility.yul\":2183:2188   */\n      dup2\n        /* \"#utility.yul\":2156:2189   */\n      tag_74\n      jump\t// in\n    tag_125:\n        /* \"#utility.yul\":2056:2195   */\n      swap3\n      swap2\n      pop\n      pop\n      jump\t// out\n        /* \"#utility.yul\":2201:2530   */\n    tag_16:\n        /* \"#utility.yul\":2260:2266   */\n      0x00\n        /* \"#utility.yul\":2309:2311   */\n      0x20\n        /* \"#utility.yul\":2297:2306   */\n      dup3\n        /* \"#utility.yul\":2288:2295   */\n      dup5\n        /* \"#utility.yul\":2284:2307   */\n      sub\n        /* \"#utility.yul\":2280:2312   */\n      slt\n        /* \"#utility.yul\":2277:2396   */\n      iszero\n      tag_127\n      jumpi\n        /* \"#utility.yul\":2315:2394   */\n      tag_128\n      tag_64\n      jump\t// in\n    tag_128:\n        /* \"#utility.yul\":2277:2396   */\n    tag_127:\n        /* \"#utility.yul\":2435:2436   */\n      0x00\n        /* \"#utility.yul\":2460:2513   */\n      tag_129\n        /* \"#utility.yul\":2505:2512   */\n      dup5\n        /* \"#utility.yul\":2496:2502   */\n      dup3\n        /* \"#utility.yul\":2485:2494   */\n      dup6\n        /* \"#utility.yul\":2481:2503   */\n      add\n        /* \"#utility.yul\":2460:2513   */\n      tag_75\n      jump\t// in\n    tag_129:\n        /* \"#utility.yul\":2450:2513   */\n      swap2\n      pop\n        /* \"#utility.yul\":2406:2523   */\n      pop\n        /* \"#utility.yul\":2201:2530   */\n      swap3\n      swap2\n      pop\n      pop\n      jump\t// out\n        /* \"#utility.yul\":2536:2654   */\n    tag_76:\n        /* \"#utility.yul\":2623:2647   */\n      tag_131\n        /* \"#utility.yul\":2641:2646   */\n      dup2\n        /* \"#utility.yul\":2623:2647   */\n      tag_73\n      jump\t// in\n    tag_131:\n        /* \"#utility.yul\":2618:2621   */\n      dup3\n        /* \"#utility.yul\":2611:2648   */\n      mstore\n        /* \"#utility.yul\":2536:2654   */\n      pop\n      pop\n      jump\t// out\n        /* \"#utility.yul\":2660:2882   */\n    tag_21:\n        /* \"#utility.yul\":2753:2757   */\n      0x00\n        /* \"#utility.yul\":2791:2793   */\n      0x20\n        /* \"#utility.yul\":2780:2789   */\n      dup3\n        /* \"#utility.yul\":2776:2794   */\n      add\n        /* \"#utility.yul\":2768:2794   */\n      swap1\n      pop\n        /* \"#utility.yul\":2804:2875   */\n      tag_133\n        /* \"#utility.yul\":2872:2873   */\n      0x00\n        /* \"#utility.yul\":2861:2870   */\n      dup4\n        /* \"#utility.yul\":2857:2874   */\n      add\n        /* \"#utility.yul\":2848:2854   */\n      dup5\n        /* \"#utility.yul\":2804:2875   */\n      tag_76\n      jump\t// in\n    tag_133:\n        /* \"#utility.yul\":2660:2882   */\n      swap3\n      swap2\n      pop\n      pop\n      jump\t// out\n        /* \"#utility.yul\":2888:2978   */\n    tag_77:\n        /* \"#utility.yul\":2922:2929   */\n      0x00\n        /* \"#utility.yul\":2965:2970   */\n      dup2\n        /* \"#utility.yul\":2958:2971   */\n      iszero\n        /* \"#utility.yul\":2951:2972   */\n      iszero\n        /* \"#utility.yul\":2940:2972   */\n      swap1\n      pop\n        /* \"#utility.yul\":2888:2978   */\n      swap2\n      swap1\n      pop\n      jump\t// out\n        /* \"#utility.yul\":2984:3093   */\n    tag_78:\n        /* \"#utility.yul\":3065:3086   */\n      tag_136\n        /* \"#utility.yul\":3080:3085   */\n      dup2\n        /* \"#utility.yul\":3065:3086   */\n      tag_77\n      jump\t// in\n    tag_136:\n        /* \"#utility.yul\":3060:3063   */\n      dup3\n        /* \"#utility.yul\":3053:3087   */\n      mstore\n        /* \"#utility.yul\":2984:3093   */\n      pop\n      pop\n      jump\t// out\n        /* \"#utility.yul\":3099:3529   */\n    tag_26:\n        /* \"#utility.yul\":3242:3246   */\n      0x00\n        /* \"#utility.yul\":3280:3282   */\n      0x60\n        /* \"#utility.yul\":3269:3278   */\n      dup3\n        /* \"#utility.yul\":3265:3283   */\n      add\n        /* \"#utility.yul\":3257:3283   */\n      swap1\n      pop\n        /* \"#utility.yul\":3293:3364   */\n      tag_138\n        /* \"#utility.yul\":3361:3362   */\n      0x00\n        /* \"#utility.yul\":3350:3359   */\n      dup4\n        /* \"#utility.yul\":3346:3363   */\n      add\n        /* \"#utility.yul\":3337:3343   */\n      dup7\n        /* \"#utility.yul\":3293:3364   */\n      tag_71\n      jump\t// in\n    tag_138:\n        /* \"#utility.yul\":3374:3446   */\n      tag_139\n        /* \"#utility.yul\":3442:3444   */\n      0x20\n        /* \"#utility.yul\":3431:3440   */\n      dup4\n        /* \"#utility.yul\":3427:3445   */\n      add\n        /* \"#utility.yul\":3418:3424   */\n      dup6\n        /* \"#utility.yul\":3374:3446   */\n      tag_76\n      jump\t// in\n    tag_139:\n        /* \"#utility.yul\":3456:3522   */\n      tag_140\n        /* \"#utility.yul\":3518:3520   */\n      0x40\n        /* \"#utility.yul\":3507:3516   */\n      dup4\n        /* \"#utility.yul\":3503:3521   */\n      add\n        /* \"#utility.yul\":3494:3500   */\n      dup5\n        /* \"#utility.yul\":3456:3522   */\n      tag_78\n      jump\t// in\n    tag_140:\n        /* \"#utility.yul\":3099:3529   */\n      swap5\n      swap4\n      pop\n      pop\n      pop\n      pop\n      jump\t// out\n        /* \"#utility.yul\":3535:4009   */\n    tag_29:\n        /* \"#utility.yul\":3603:3609   */\n      0x00\n        /* \"#utility.yul\":3611:3617   */\n      dup1\n        /* \"#utility.yul\":3660:3662   */\n      0x40\n        /* \"#utility.yul\":3648:3657   */\n      dup4\n        /* \"#utility.yul\":3639:3646   */\n      dup6\n        /* \"#utility.yul\":3635:3658   */\n      sub\n        /* \"#utility.yul\":3631:3663   */\n      slt\n        /* \"#utility.yul\":3628:3747   */\n      iszero\n      tag_142\n      jumpi\n        /* \"#utility.yul\":3666:3745   */\n      tag_143\n      tag_64\n      jump\t// in\n    tag_143:\n        /* \"#utility.yul\":3628:3747   */\n    tag_142:\n        /* \"#utility.yul\":3786:3787   */\n      0x00\n        /* \"#utility.yul\":3811:3864   */\n      tag_144\n        /* \"#utility.yul\":3856:3863   */\n      dup6\n        /* \"#utility.yul\":3847:3853   */\n      dup3\n        /* \"#utility.yul\":3836:3845   */\n      dup7\n        /* \"#utility.yul\":3832:3854   */\n      add\n        /* \"#utility.yul\":3811:3864   */\n      tag_75\n      jump\t// in\n    tag_144:\n        /* \"#utility.yul\":3801:3864   */\n      swap3\n      pop\n        /* \"#utility.yul\":3757:3874   */\n      pop\n        /* \"#utility.yul\":3913:3915   */\n      0x20\n        /* \"#utility.yul\":3939:3992   */\n      tag_145\n        /* \"#utility.yul\":3984:3991   */\n      dup6\n        /* \"#utility.yul\":3975:3981   */\n      dup3\n        /* \"#utility.yul\":3964:3973   */\n      dup7\n        /* \"#utility.yul\":3960:3982   */\n      add\n        /* \"#utility.yul\":3939:3992   */\n      tag_68\n      jump\t// in\n    tag_145:\n        /* \"#utility.yul\":3929:3992   */\n      swap2\n      pop\n        /* \"#utility.yul\":3884:4002   */\n      pop\n        /* \"#utility.yul\":3535:4009   */\n      swap3\n      pop\n      swap3\n      swap1\n      pop\n      jump\t// out\n        /* \"#utility.yul\":4015:4184   */\n    tag_79:\n        /* \"#utility.yul\":4099:4110   */\n      0x00\n        /* \"#utility.yul\":4133:4139   */\n      dup3\n        /* \"#utility.yul\":4128:4131   */\n      dup3\n        /* \"#utility.yul\":4121:4140   */\n      mstore\n        /* \"#utility.yul\":4173:4177   */\n      0x20\n        /* \"#utility.yul\":4168:4171   */\n      dup3\n        /* \"#utility.yul\":4164:4178   */\n      add\n        /* \"#utility.yul\":4149:4178   */\n      swap1\n      pop\n        /* \"#utility.yul\":4015:4184   */\n      swap3\n      swap2\n      pop\n      pop\n      jump\t// out\n        /* \"#utility.yul\":4190:4410   */\n    tag_80:\n        /* \"#utility.yul\":4330:4364   */\n      0x5468652063616c6c6572206973206e6f7420746865206368616972706572736f\n        /* \"#utility.yul\":4326:4327   */\n      0x00\n        /* \"#utility.yul\":4318:4324   */\n      dup3\n        /* \"#utility.yul\":4314:4328   */\n      add\n        /* \"#utility.yul\":4307:4365   */\n      mstore\n        /* \"#utility.yul\":4399:4402   */\n      0x6e00000000000000000000000000000000000000000000000000000000000000\n        /* \"#utility.yul\":4394:4396   */\n      0x20\n        /* \"#utility.yul\":4386:4392   */\n      dup3\n        /* \"#utility.yul\":4382:4397   */\n      add\n        /* \"#utility.yul\":4375:4403   */\n      mstore\n        /* \"#utility.yul\":4190:4410   */\n      pop\n      jump\t// out\n        /* \"#utility.yul\":4416:4782   */\n    tag_81:\n        /* \"#utility.yul\":4558:4561   */\n      0x00\n        /* \"#utility.yul\":4579:4646   */\n      tag_149\n        /* \"#utility.yul\":4643:4645   */\n      0x21\n        /* \"#utility.yul\":4638:4641   */\n      dup4\n        /* \"#utility.yul\":4579:4646   */\n      tag_79\n      jump\t// in\n    tag_149:\n        /* \"#utility.yul\":4572:4646   */\n      swap2\n      pop\n        /* \"#utility.yul\":4655:4748   */\n      tag_150\n        /* \"#utility.yul\":4744:4747   */\n      dup3\n        /* \"#utility.yul\":4655:4748   */\n      tag_80\n      jump\t// in\n    tag_150:\n        /* \"#utility.yul\":4773:4775   */\n      0x40\n        /* \"#utility.yul\":4768:4771   */\n      dup3\n        /* \"#utility.yul\":4764:4776   */\n      add\n        /* \"#utility.yul\":4757:4776   */\n      swap1\n      pop\n        /* \"#utility.yul\":4416:4782   */\n      swap2\n      swap1\n      pop\n      jump\t// out\n        /* \"#utility.yul\":4788:5207   */\n    tag_36:\n        /* \"#utility.yul\":4954:4958   */\n      0x00\n        /* \"#utility.yul\":4992:4994   */\n      0x20\n        /* \"#utility.yul\":4981:4990   */\n      dup3\n        /* \"#utility.yul\":4977:4995   */\n      add\n        /* \"#utility.yul\":4969:4995   */\n      swap1\n      pop\n        /* \"#utility.yul\":5041:5050   */\n      dup2\n        /* \"#utility.yul\":5035:5039   */\n      dup2\n        /* \"#utility.yul\":5031:5051   */\n      sub\n        /* \"#utility.yul\":5027:5028   */\n      0x00\n        /* \"#utility.yul\":5016:5025   */\n      dup4\n        /* \"#utility.yul\":5012:5029   */\n      add\n        /* \"#utility.yul\":5005:5052   */\n      mstore\n        /* \"#utility.yul\":5069:5200   */\n      tag_152\n        /* \"#utility.yul\":5195:5199   */\n      dup2\n        /* \"#utility.yul\":5069:5200   */\n      tag_81\n      jump\t// in\n    tag_152:\n        /* \"#utility.yul\":5061:5200   */\n      swap1\n      pop\n        /* \"#utility.yul\":4788:5207   */\n      swap2\n      swap1\n      pop\n      jump\t// out\n        /* \"#utility.yul\":5213:5370   */\n    tag_82:\n        /* \"#utility.yul\":5353:5362   */\n      0x746f20766f746500000000000000000000000000000000000000000000000000\n        /* \"#utility.yul\":5349:5350   */\n      0x00\n        /* \"#utility.yul\":5341:5347   */\n      dup3\n        /* \"#utility.yul\":5337:5351   */\n      add\n        /* \"#utility.yul\":5330:5363   */\n      mstore\n        /* \"#utility.yul\":5213:5370   */\n      pop\n      jump\t// out\n        /* \"#utility.yul\":5376:5741   */\n    tag_83:\n        /* \"#utility.yul\":5518:5521   */\n      0x00\n        /* \"#utility.yul\":5539:5605   */\n      tag_155\n        /* \"#utility.yul\":5603:5604   */\n      0x07\n        /* \"#utility.yul\":5598:5601   */\n      dup4\n        /* \"#utility.yul\":5539:5605   */\n      tag_79\n      jump\t// in\n    tag_155:\n        /* \"#utility.yul\":5532:5605   */\n      swap2\n      pop\n        /* \"#utility.yul\":5614:5707   */\n      tag_156\n        /* \"#utility.yul\":5703:5706   */\n      dup3\n        /* \"#utility.yul\":5614:5707   */\n      tag_82\n      jump\t// in\n    tag_156:\n        /* \"#utility.yul\":5732:5734   */\n      0x20\n        /* \"#utility.yul\":5727:5730   */\n      dup3\n        /* \"#utility.yul\":5723:5735   */\n      add\n        /* \"#utility.yul\":5716:5735   */\n      swap1\n      pop\n        /* \"#utility.yul\":5376:5741   */\n      swap2\n      swap1\n      pop\n      jump\t// out\n        /* \"#utility.yul\":5747:6166   */\n    tag_39:\n        /* \"#utility.yul\":5913:5917   */\n      0x00\n        /* \"#utility.yul\":5951:5953   */\n      0x20\n        /* \"#utility.yul\":5940:5949   */\n      dup3\n        /* \"#utility.yul\":5936:5954   */\n      add\n        /* \"#utility.yul\":5928:5954   */\n      swap1\n      pop\n        /* \"#utility.yul\":6000:6009   */\n      dup2\n        /* \"#utility.yul\":5994:5998   */\n      dup2\n        /* \"#utility.yul\":5990:6010   */\n      sub\n        /* \"#utility.yul\":5986:5987   */\n      0x00\n        /* \"#utility.yul\":5975:5984   */\n      dup4\n        /* \"#utility.yul\":5971:5988   */\n      add\n        /* \"#utility.yul\":5964:6011   */\n      mstore\n        /* \"#utility.yul\":6028:6159   */\n      tag_158\n        /* \"#utility.yul\":6154:6158   */\n      dup2\n        /* \"#utility.yul\":6028:6159   */\n      tag_83\n      jump\t// in\n    tag_158:\n        /* \"#utility.yul\":6020:6159   */\n      swap1\n      pop\n        /* \"#utility.yul\":5747:6166   */\n      swap2\n      swap1\n      pop\n      jump\t// out\n        /* \"#utility.yul\":6172:6332   */\n    tag_84:\n        /* \"#utility.yul\":6312:6324   */\n      0x617574686f72697a656400000000000000000000000000000000000000000000\n        /* \"#utility.yul\":6308:6309   */\n      0x00\n        /* \"#utility.yul\":6300:6306   */\n      dup3\n        /* \"#utility.yul\":6296:6310   */\n      add\n        /* \"#utility.yul\":6289:6325   */\n      mstore\n        /* \"#utility.yul\":6172:6332   */\n      pop\n      jump\t// out\n        /* \"#utility.yul\":6338:6704   */\n    tag_85:\n        /* \"#utility.yul\":6480:6483   */\n      0x00\n        /* \"#utility.yul\":6501:6568   */\n      tag_161\n        /* \"#utility.yul\":6565:6567   */\n      0x0a\n        /* \"#utility.yul\":6560:6563   */\n      dup4\n        /* \"#utility.yul\":6501:6568   */\n      tag_79\n      jump\t// in\n    tag_161:\n        /* \"#utility.yul\":6494:6568   */\n      swap2\n      pop\n        /* \"#utility.yul\":6577:6670   */\n      tag_162\n        /* \"#utility.yul\":6666:6669   */\n      dup3\n        /* \"#utility.yul\":6577:6670   */\n      tag_84\n      jump\t// in\n    tag_162:\n        /* \"#utility.yul\":6695:6697   */\n      0x20\n        /* \"#utility.yul\":6690:6693   */\n      dup3\n        /* \"#utility.yul\":6686:6698   */\n      add\n        /* \"#utility.yul\":6679:6698   */\n      swap1\n      pop\n        /* \"#utility.yul\":6338:6704   */\n      swap2\n      swap1\n      pop\n      jump\t// out\n        /* \"#utility.yul\":6710:7129   */\n    tag_42:\n        /* \"#utility.yul\":6876:6880   */\n      0x00\n        /* \"#utility.yul\":6914:6916   */\n      0x20\n        /* \"#utility.yul\":6903:6912   */\n      dup3\n        /* \"#utility.yul\":6899:6917   */\n      add\n        /* \"#utility.yul\":6891:6917   */\n      swap1\n      pop\n        /* \"#utility.yul\":6963:6972   */\n      dup2\n        /* \"#utility.yul\":6957:6961   */\n      dup2\n        /* \"#utility.yul\":6953:6973   */\n      sub\n        /* \"#utility.yul\":6949:6950   */\n      0x00\n        /* \"#utility.yul\":6938:6947   */\n      dup4\n        /* \"#utility.yul\":6934:6951   */\n      add\n        /* \"#utility.yul\":6927:6974   */\n      mstore\n        /* \"#utility.yul\":6991:7122   */\n      tag_164\n        /* \"#utility.yul\":7117:7121   */\n      dup2\n        /* \"#utility.yul\":6991:7122   */\n      tag_85\n      jump\t// in\n    tag_164:\n        /* \"#utility.yul\":6983:7122   */\n      swap1\n      pop\n        /* \"#utility.yul\":6710:7129   */\n      swap2\n      swap1\n      pop\n      jump\t// out\n        /* \"#utility.yul\":7135:7316   */\n    tag_86:\n        /* \"#utility.yul\":7275:7308   */\n      0x54686520656e7472757374656420706572736f6e2069732068696d73656c6600\n        /* \"#utility.yul\":7271:7272   */\n      0x00\n        /* \"#utility.yul\":7263:7269   */\n      dup3\n        /* \"#utility.yul\":7259:7273   */\n      add\n        /* \"#utility.yul\":7252:7309   */\n      mstore\n        /* \"#utility.yul\":7135:7316   */\n      pop\n      jump\t// out\n        /* \"#utility.yul\":7322:7688   */\n    tag_87:\n        /* \"#utility.yul\":7464:7467   */\n      0x00\n        /* \"#utility.yul\":7485:7552   */\n      tag_167\n        /* \"#utility.yul\":7549:7551   */\n      0x1f\n        /* \"#utility.yul\":7544:7547   */\n      dup4\n        /* \"#utility.yul\":7485:7552   */\n      tag_79\n      jump\t// in\n    tag_167:\n        /* \"#utility.yul\":7478:7552   */\n      swap2\n      pop\n        /* \"#utility.yul\":7561:7654   */\n      tag_168\n        /* \"#utility.yul\":7650:7653   */\n      dup3\n        /* \"#utility.yul\":7561:7654   */\n      tag_86\n      jump\t// in\n    tag_168:\n        /* \"#utility.yul\":7679:7681   */\n      0x20\n        /* \"#utility.yul\":7674:7677   */\n      dup3\n        /* \"#utility.yul\":7670:7682   */\n      add\n        /* \"#utility.yul\":7663:7682   */\n      swap1\n      pop\n        /* \"#utility.yul\":7322:7688   */\n      swap2\n      swap1\n      pop\n      jump\t// out\n        /* \"#utility.yul\":7694:8113   */\n    tag_46:\n        /* \"#utility.yul\":7860:7864   */\n      0x00\n        /* \"#utility.yul\":7898:7900   */\n      0x20\n        /* \"#utility.yul\":7887:7896   */\n      dup3\n        /* \"#utility.yul\":7883:7901   */\n      add\n        /* \"#utility.yul\":7875:7901   */\n      swap1\n      pop\n        /* \"#utility.yul\":7947:7956   */\n      dup2\n        /* \"#utility.yul\":7941:7945   */\n      dup2\n        /* \"#utility.yul\":7937:7957   */\n      sub\n        /* \"#utility.yul\":7933:7934   */\n      0x00\n        /* \"#utility.yul\":7922:7931   */\n      dup4\n        /* \"#utility.yul\":7918:7935   */\n      add\n        /* \"#utility.yul\":7911:7958   */\n      mstore\n        /* \"#utility.yul\":7975:8106   */\n      tag_170\n        /* \"#utility.yul\":8101:8105   */\n      dup2\n        /* \"#utility.yul\":7975:8106   */\n      tag_87\n      jump\t// in\n    tag_170:\n        /* \"#utility.yul\":7967:8106   */\n      swap1\n      pop\n        /* \"#utility.yul\":7694:8113   */\n      swap2\n      swap1\n      pop\n      jump\t// out\n        /* \"#utility.yul\":8119:8290   */\n    tag_88:\n        /* \"#utility.yul\":8259:8282   */\n      0x44656c65676174656420636c6f736564206c6f6f700000000000000000000000\n        /* \"#utility.yul\":8255:8256   */\n      0x00\n        /* \"#utility.yul\":8247:8253   */\n      dup3\n        /* \"#utility.yul\":8243:8257   */\n      add\n        /* \"#utility.yul\":8236:8283   */\n      mstore\n        /* \"#utility.yul\":8119:8290   */\n      pop\n      jump\t// out\n        /* \"#utility.yul\":8296:8662   */\n    tag_89:\n        /* \"#utility.yul\":8438:8441   */\n      0x00\n        /* \"#utility.yul\":8459:8526   */\n      tag_173\n        /* \"#utility.yul\":8523:8525   */\n      0x15\n        /* \"#utility.yul\":8518:8521   */\n      dup4\n        /* \"#utility.yul\":8459:8526   */\n      tag_79\n      jump\t// in\n    tag_173:\n        /* \"#utility.yul\":8452:8526   */\n      swap2\n      pop\n        /* \"#utility.yul\":8535:8628   */\n      tag_174\n        /* \"#utility.yul\":8624:8627   */\n      dup3\n        /* \"#utility.yul\":8535:8628   */\n      tag_88\n      jump\t// in\n    tag_174:\n        /* \"#utility.yul\":8653:8655   */\n      0x20\n        /* \"#utility.yul\":8648:8651   */\n      dup3\n        /* \"#utility.yul\":8644:8656   */\n      add\n        /* \"#utility.yul\":8637:8656   */\n      swap1\n      pop\n        /* \"#utility.yul\":8296:8662   */\n      swap2\n      swap1\n      pop\n      jump\t// out\n        /* \"#utility.yul\":8668:9087   */\n    tag_51:\n        /* \"#utility.yul\":8834:8838   */\n      0x00\n        /* \"#utility.yul\":8872:8874   */\n      0x20\n        /* \"#utility.yul\":8861:8870   */\n      dup3\n        /* \"#utility.yul\":8857:8875   */\n      add\n        /* \"#utility.yul\":8849:8875   */\n      swap1\n      pop\n        /* \"#utility.yul\":8921:8930   */\n      dup2\n        /* \"#utility.yul\":8915:8919   */\n      dup2\n        /* \"#utility.yul\":8911:8931   */\n      sub\n        /* \"#utility.yul\":8907:8908   */\n      0x00\n        /* \"#utility.yul\":8896:8905   */\n      dup4\n        /* \"#utility.yul\":8892:8909   */\n      add\n        /* \"#utility.yul\":8885:8932   */\n      mstore\n        /* \"#utility.yul\":8949:9080   */\n      tag_176\n        /* \"#utility.yul\":9075:9079   */\n      dup2\n        /* \"#utility.yul\":8949:9080   */\n      tag_89\n      jump\t// in\n    tag_176:\n        /* \"#utility.yul\":8941:9080   */\n      swap1\n      pop\n        /* \"#utility.yul\":8668:9087   */\n      swap2\n      swap1\n      pop\n      jump\t// out\n        /* \"#utility.yul\":9093:9259   */\n    tag_90:\n        /* \"#utility.yul\":9233:9251   */\n      0x63616c6c65722068617320766f74656400000000000000000000000000000000\n        /* \"#utility.yul\":9229:9230   */\n      0x00\n        /* \"#utility.yul\":9221:9227   */\n      dup3\n        /* \"#utility.yul\":9217:9231   */\n      add\n        /* \"#utility.yul\":9210:9252   */\n      mstore\n        /* \"#utility.yul\":9093:9259   */\n      pop\n      jump\t// out\n        /* \"#utility.yul\":9265:9631   */\n    tag_91:\n        /* \"#utility.yul\":9407:9410   */\n      0x00\n        /* \"#utility.yul\":9428:9495   */\n      tag_179\n        /* \"#utility.yul\":9492:9494   */\n      0x10\n        /* \"#utility.yul\":9487:9490   */\n      dup4\n        /* \"#utility.yul\":9428:9495   */\n      tag_79\n      jump\t// in\n    tag_179:\n        /* \"#utility.yul\":9421:9495   */\n      swap2\n      pop\n        /* \"#utility.yul\":9504:9597   */\n      tag_180\n        /* \"#utility.yul\":9593:9596   */\n      dup3\n        /* \"#utility.yul\":9504:9597   */\n      tag_90\n      jump\t// in\n    tag_180:\n        /* \"#utility.yul\":9622:9624   */\n      0x20\n        /* \"#utility.yul\":9617:9620   */\n      dup3\n        /* \"#utility.yul\":9613:9625   */\n      add\n        /* \"#utility.yul\":9606:9625   */\n      swap1\n      pop\n        /* \"#utility.yul\":9265:9631   */\n      swap2\n      swap1\n      pop\n      jump\t// out\n        /* \"#utility.yul\":9637:10056   */\n    tag_54:\n        /* \"#utility.yul\":9803:9807   */\n      0x00\n        /* \"#utility.yul\":9841:9843   */\n      0x20\n        /* \"#utility.yul\":9830:9839   */\n      dup3\n        /* \"#utility.yul\":9826:9844   */\n      add\n        /* \"#utility.yul\":9818:9844   */\n      swap1\n      pop\n        /* \"#utility.yul\":9890:9899   */\n      dup2\n        /* \"#utility.yul\":9884:9888   */\n      dup2\n        /* \"#utility.yul\":9880:9900   */\n      sub\n        /* \"#utility.yul\":9876:9877   */\n      0x00\n        /* \"#utility.yul\":9865:9874   */\n      dup4\n        /* \"#utility.yul\":9861:9878   */\n      add\n        /* \"#utility.yul\":9854:9901   */\n      mstore\n        /* \"#utility.yul\":9918:10049   */\n      tag_182\n        /* \"#utility.yul\":10044:10048   */\n      dup2\n        /* \"#utility.yul\":9918:10049   */\n      tag_91\n      jump\t// in\n    tag_182:\n        /* \"#utility.yul\":9910:10049   */\n      swap1\n      pop\n        /* \"#utility.yul\":9637:10056   */\n      swap2\n      swap1\n      pop\n      jump\t// out\n        /* \"#utility.yul\":10062:10287   */\n    tag_92:\n        /* \"#utility.yul\":10202:10236   */\n      0x5468652063616c6c657220646f6573206e6f74206861766520766f74696e6720\n        /* \"#utility.yul\":10198:10199   */\n      0x00\n        /* \"#utility.yul\":10190:10196   */\n      dup3\n        /* \"#utility.yul\":10186:10200   */\n      add\n        /* \"#utility.yul\":10179:10237   */\n      mstore\n        /* \"#utility.yul\":10271:10279   */\n      0x7269676874730000000000000000000000000000000000000000000000000000\n        /* \"#utility.yul\":10266:10268   */\n      0x20\n        /* \"#utility.yul\":10258:10264   */\n      dup3\n        /* \"#utility.yul\":10254:10269   */\n      add\n        /* \"#utility.yul\":10247:10280   */\n      mstore\n        /* \"#utility.yul\":10062:10287   */\n      pop\n      jump\t// out\n        /* \"#utility.yul\":10293:10659   */\n    tag_93:\n        /* \"#utility.yul\":10435:10438   */\n      0x00\n        /* \"#utility.yul\":10456:10523   */\n      tag_185\n        /* \"#utility.yul\":10520:10522   */\n      0x26\n        /* \"#utility.yul\":10515:10518   */\n      dup4\n        /* \"#utility.yul\":10456:10523   */\n      tag_79\n      jump\t// in\n    tag_185:\n        /* \"#utility.yul\":10449:10523   */\n      swap2\n      pop\n        /* \"#utility.yul\":10532:10625   */\n      tag_186\n        /* \"#utility.yul\":10621:10624   */\n      dup3\n        /* \"#utility.yul\":10532:10625   */\n      tag_92\n      jump\t// in\n    tag_186:\n        /* \"#utility.yul\":10650:10652   */\n      0x40\n        /* \"#utility.yul\":10645:10648   */\n      dup3\n        /* \"#utility.yul\":10641:10653   */\n      add\n        /* \"#utility.yul\":10634:10653   */\n      swap1\n      pop\n        /* \"#utility.yul\":10293:10659   */\n      swap2\n      swap1\n      pop\n      jump\t// out\n        /* \"#utility.yul\":10665:11084   */\n    tag_57:\n        /* \"#utility.yul\":10831:10835   */\n      0x00\n        /* \"#utility.yul\":10869:10871   */\n      0x20\n        /* \"#utility.yul\":10858:10867   */\n      dup3\n        /* \"#utility.yul\":10854:10872   */\n      add\n        /* \"#utility.yul\":10846:10872   */\n      swap1\n      pop\n        /* \"#utility.yul\":10918:10927   */\n      dup2\n        /* \"#utility.yul\":10912:10916   */\n      dup2\n        /* \"#utility.yul\":10908:10928   */\n      sub\n        /* \"#utility.yul\":10904:10905   */\n      0x00\n        /* \"#utility.yul\":10893:10902   */\n      dup4\n        /* \"#utility.yul\":10889:10906   */\n      add\n        /* \"#utility.yul\":10882:10929   */\n      mstore\n        /* \"#utility.yul\":10946:11077   */\n      tag_188\n        /* \"#utility.yul\":11072:11076   */\n      dup2\n        /* \"#utility.yul\":10946:11077   */\n      tag_93\n      jump\t// in\n    tag_188:\n        /* \"#utility.yul\":10938:11077   */\n      swap1\n      pop\n        /* \"#utility.yul\":10665:11084   */\n      swap2\n      swap1\n      pop\n      jump\t// out\n        /* \"#utility.yul\":11090:11272   */\n    tag_94:\n        /* \"#utility.yul\":11230:11264   */\n      0x54686520656e74727573746564206164647265737320697320696c6c6567616c\n        /* \"#utility.yul\":11226:11227   */\n      0x00\n        /* \"#utility.yul\":11218:11224   */\n      dup3\n        /* \"#utility.yul\":11214:11228   */\n      add\n        /* \"#utility.yul\":11207:11265   */\n      mstore\n        /* \"#utility.yul\":11090:11272   */\n      pop\n      jump\t// out\n        /* \"#utility.yul\":11278:11644   */\n    tag_95:\n        /* \"#utility.yul\":11420:11423   */\n      0x00\n        /* \"#utility.yul\":11441:11508   */\n      tag_191\n        /* \"#utility.yul\":11505:11507   */\n      0x20\n        /* \"#utility.yul\":11500:11503   */\n      dup4\n        /* \"#utility.yul\":11441:11508   */\n      tag_79\n      jump\t// in\n    tag_191:\n        /* \"#utility.yul\":11434:11508   */\n      swap2\n      pop\n        /* \"#utility.yul\":11517:11610   */\n      tag_192\n        /* \"#utility.yul\":11606:11609   */\n      dup3\n        /* \"#utility.yul\":11517:11610   */\n      tag_94\n      jump\t// in\n    tag_192:\n        /* \"#utility.yul\":11635:11637   */\n      0x20\n        /* \"#utility.yul\":11630:11633   */\n      dup3\n        /* \"#utility.yul\":11626:11638   */\n      add\n        /* \"#utility.yul\":11619:11638   */\n      swap1\n      pop\n        /* \"#utility.yul\":11278:11644   */\n      swap2\n      swap1\n      pop\n      jump\t// out\n        /* \"#utility.yul\":11650:12069   */\n    tag_60:\n        /* \"#utility.yul\":11816:11820   */\n      0x00\n        /* \"#utility.yul\":11854:11856   */\n      0x20\n        /* \"#utility.yul\":11843:11852   */\n      dup3\n        /* \"#utility.yul\":11839:11857   */\n      add\n        /* \"#utility.yul\":11831:11857   */\n      swap1\n      pop\n        /* \"#utility.yul\":11903:11912   */\n      dup2\n        /* \"#utility.yul\":11897:11901   */\n      dup2\n        /* \"#utility.yul\":11893:11913   */\n      sub\n        /* \"#utility.yul\":11889:11890   */\n      0x00\n        /* \"#utility.yul\":11878:11887   */\n      dup4\n        /* \"#utility.yul\":11874:11891   */\n      add\n        /* \"#utility.yul\":11867:11914   */\n      mstore\n        /* \"#utility.yul\":11931:12062   */\n      tag_194\n        /* \"#utility.yul\":12057:12061   */\n      dup2\n        /* \"#utility.yul\":11931:12062   */\n      tag_95\n      jump\t// in\n    tag_194:\n        /* \"#utility.yul\":11923:12062   */\n      swap1\n      pop\n        /* \"#utility.yul\":11650:12069   */\n      swap2\n      swap1\n      pop\n      jump\t// out\n\n    auxdata: 0xa26469706673582212209bee9a971b405d02e4cf84943b08dd76aa2ba0376476653491e47dc13c5fff6d64736f6c634300080d0033\n}\n",
				"bytecode": {
					"linkReferences": {},
					"object": "60806040523480156200001157600080fd5b506040516200120e3803806200120e8339818101604052810190620000379190620002da565b336000806101000a81548173ffffffffffffffffffffffffffffffffffffffff021916908373ffffffffffffffffffffffffffffffffffffffff16021790555060005b81518110156200010e5760016040518060400160405280848481518110620000a757620000a66200032b565b5b6020026020010151815260200160008152509080600181540180825580915050600190039060005260206000209060020201600090919091909150600082015181600001556020820151816001015550508080620001059062000393565b9150506200007a565b5050620003e0565b6000604051905090565b600080fd5b600080fd5b600080fd5b6000601f19601f8301169050919050565b7f4e487b7100000000000000000000000000000000000000000000000000000000600052604160045260246000fd5b6200017a826200012f565b810181811067ffffffffffffffff821117156200019c576200019b62000140565b5b80604052505050565b6000620001b162000116565b9050620001bf82826200016f565b919050565b600067ffffffffffffffff821115620001e257620001e162000140565b5b602082029050602081019050919050565b600080fd5b6000819050919050565b6200020d81620001f8565b81146200021957600080fd5b50565b6000815190506200022d8162000202565b92915050565b60006200024a6200024484620001c4565b620001a5565b9050808382526020820190506020840283018581111562000270576200026f620001f3565b5b835b818110156200029d57806200028888826200021c565b84526020840193505060208101905062000272565b5050509392505050565b600082601f830112620002bf57620002be6200012a565b5b8151620002d184826020860162000233565b91505092915050565b600060208284031215620002f357620002f262000120565b5b600082015167ffffffffffffffff81111562000314576200031362000125565b5b6200032284828501620002a7565b91505092915050565b7f4e487b7100000000000000000000000000000000000000000000000000000000600052603260045260246000fd5b7f4e487b7100000000000000000000000000000000000000000000000000000000600052601160045260246000fd5b6000819050919050565b6000620003a08262000389565b91507fffffffffffffffffffffffffffffffffffffffffffffffffffffffffffffffff8203620003d557620003d46200035a565b5b600182019050919050565b610e1e80620003f06000396000f3fe608060405234801561001057600080fd5b50600436106100575760003560e01c8063013cf08b1461005c578063248451941461008d57806387f7b975146100a9578063a3ec138d146100c7578063a46aedfc146100f9575b600080fd5b61007660048036038101906100719190610866565b610115565b6040516100849291906108bb565b60405180910390f35b6100a760048036038101906100a29190610942565b610149565b005b6100b1610337565b6040516100be919061097e565b60405180910390f35b6100e160048036038101906100dc9190610942565b61035b565b6040516100f0939291906109b4565b60405180910390f35b610113600480360381019061010e91906109eb565b6103b2565b005b6001818154811061012557600080fd5b90600052602060002090600202016000915090508060000154908060010154905082565b60008054906101000a900473ffffffffffffffffffffffffffffffffffffffff1673ffffffffffffffffffffffffffffffffffffffff163373ffffffffffffffffffffffffffffffffffffffff16146101d7576040517f08c379a00000000000000000000000000000000000000000000000000000000081526004016101ce90610aae565b60405180910390fd5b600260008273ffffffffffffffffffffffffffffffffffffffff1673ffffffffffffffffffffffffffffffffffffffff16815260200190815260200160002060010160149054906101000a900460ff1615610267576040517f08c379a000000000000000000000000000000000000000000000000000000000815260040161025e90610b1a565b60405180910390fd5b6000600260008373ffffffffffffffffffffffffffffffffffffffff1673ffffffffffffffffffffffffffffffffffffffff16815260200190815260200160002060000154146102ec576040517f08c379a00000000000000000000000000000000000000000000000000000000081526004016102e390610b86565b60405180910390fd5b6001600260008373ffffffffffffffffffffffffffffffffffffffff1673ffffffffffffffffffffffffffffffffffffffff1681526020019081526020016000206000018190555050565b60008054906101000a900473ffffffffffffffffffffffffffffffffffffffff1681565b60026020528060005260406000206000915090508060000154908060010160009054906101000a900473ffffffffffffffffffffffffffffffffffffffff16908060010160149054906101000a900460ff16905083565b8173ffffffffffffffffffffffffffffffffffffffff163373ffffffffffffffffffffffffffffffffffffffff1603610420576040517f08c379a000000000000000000000000000000000000000000000000000000000815260040161041790610bf2565b60405180910390fd5b5b600073ffffffffffffffffffffffffffffffffffffffff16600260008473ffffffffffffffffffffffffffffffffffffffff1673ffffffffffffffffffffffffffffffffffffffff16815260200190815260200160002060010160009054906101000a900473ffffffffffffffffffffffffffffffffffffffff1673ffffffffffffffffffffffffffffffffffffffff161461058c573373ffffffffffffffffffffffffffffffffffffffff16600260008473ffffffffffffffffffffffffffffffffffffffff1673ffffffffffffffffffffffffffffffffffffffff16815260200190815260200160002060010160009054906101000a900473ffffffffffffffffffffffffffffffffffffffff1673ffffffffffffffffffffffffffffffffffffffff1603610587576040517f08c379a000000000000000000000000000000000000000000000000000000000815260040161057e90610c5e565b60405180910390fd5b610421565b600260003373ffffffffffffffffffffffffffffffffffffffff1673ffffffffffffffffffffffffffffffffffffffff16815260200190815260200160002060010160149054906101000a900460ff161561061c576040517f08c379a000000000000000000000000000000000000000000000000000000000815260040161061390610cca565b60405180910390fd5b6000600260003373ffffffffffffffffffffffffffffffffffffffff1673ffffffffffffffffffffffffffffffffffffffff16815260200190815260200160002060000154036106a1576040517f08c379a000000000000000000000000000000000000000000000000000000000815260040161069890610d5c565b60405180910390fd5b600073ffffffffffffffffffffffffffffffffffffffff168273ffffffffffffffffffffffffffffffffffffffff1603610710576040517f08c379a000000000000000000000000000000000000000000000000000000000815260040161070790610dc8565b60405180910390fd5b81600260003373ffffffffffffffffffffffffffffffffffffffff1673ffffffffffffffffffffffffffffffffffffffff16815260200190815260200160002060010160006101000a81548173ffffffffffffffffffffffffffffffffffffffff021916908373ffffffffffffffffffffffffffffffffffffffff1602179055506000600260003373ffffffffffffffffffffffffffffffffffffffff1673ffffffffffffffffffffffffffffffffffffffff16815260200190815260200160002060000181905550600260008373ffffffffffffffffffffffffffffffffffffffff1673ffffffffffffffffffffffffffffffffffffffff16815260200190815260200160002060010160149054906101000a9050505050565b600080fd5b6000819050919050565b61084381610830565b811461084e57600080fd5b50565b6000813590506108608161083a565b92915050565b60006020828403121561087c5761087b61082b565b5b600061088a84828501610851565b91505092915050565b6000819050919050565b6108a681610893565b82525050565b6108b581610830565b82525050565b60006040820190506108d0600083018561089d565b6108dd60208301846108ac565b9392505050565b600073ffffffffffffffffffffffffffffffffffffffff82169050919050565b600061090f826108e4565b9050919050565b61091f81610904565b811461092a57600080fd5b50565b60008135905061093c81610916565b92915050565b6000602082840312156109585761095761082b565b5b60006109668482850161092d565b91505092915050565b61097881610904565b82525050565b6000602082019050610993600083018461096f565b92915050565b60008115159050919050565b6109ae81610999565b82525050565b60006060820190506109c960008301866108ac565b6109d6602083018561096f565b6109e360408301846109a5565b949350505050565b60008060408385031215610a0257610a0161082b565b5b6000610a108582860161092d565b9250506020610a2185828601610851565b9150509250929050565b600082825260208201905092915050565b7f5468652063616c6c6572206973206e6f7420746865206368616972706572736f60008201527f6e00000000000000000000000000000000000000000000000000000000000000602082015250565b6000610a98602183610a2b565b9150610aa382610a3c565b604082019050919050565b60006020820190508181036000830152610ac781610a8b565b9050919050565b7f746f20766f746500000000000000000000000000000000000000000000000000600082015250565b6000610b04600783610a2b565b9150610b0f82610ace565b602082019050919050565b60006020820190508181036000830152610b3381610af7565b9050919050565b7f617574686f72697a656400000000000000000000000000000000000000000000600082015250565b6000610b70600a83610a2b565b9150610b7b82610b3a565b602082019050919050565b60006020820190508181036000830152610b9f81610b63565b9050919050565b7f54686520656e7472757374656420706572736f6e2069732068696d73656c6600600082015250565b6000610bdc601f83610a2b565b9150610be782610ba6565b602082019050919050565b60006020820190508181036000830152610c0b81610bcf565b9050919050565b7f44656c65676174656420636c6f736564206c6f6f700000000000000000000000600082015250565b6000610c48601583610a2b565b9150610c5382610c12565b602082019050919050565b60006020820190508181036000830152610c7781610c3b565b9050919050565b7f63616c6c65722068617320766f74656400000000000000000000000000000000600082015250565b6000610cb4601083610a2b565b9150610cbf82610c7e565b602082019050919050565b60006020820190508181036000830152610ce381610ca7565b9050919050565b7f5468652063616c6c657220646f6573206e6f74206861766520766f74696e672060008201527f7269676874730000000000000000000000000000000000000000000000000000602082015250565b6000610d46602683610a2b565b9150610d5182610cea565b604082019050919050565b60006020820190508181036000830152610d7581610d39565b9050919050565b7f54686520656e74727573746564206164647265737320697320696c6c6567616c600082015250565b6000610db2602083610a2b565b9150610dbd82610d7c565b602082019050919050565b60006020820190508181036000830152610de181610da5565b905091905056fea26469706673582212209bee9a971b405d02e4cf84943b08dd76aa2ba0376476653491e47dc13c5fff6d64736f6c634300080d0033",
					"opcodes": "PUSH1 0x80 PUSH1 0x40 MSTORE CALLVALUE DUP1 ISZERO PUSH3 0x11 JUMPI PUSH1 0x0 DUP1 REVERT JUMPDEST POP PUSH1 0x40 MLOAD PUSH3 0x120E CODESIZE SUB DUP1 PUSH3 0x120E DUP4 CODECOPY DUP2 DUP2 ADD PUSH1 0x40 MSTORE DUP2 ADD SWAP1 PUSH3 0x37 SWAP2 SWAP1 PUSH3 0x2DA JUMP JUMPDEST CALLER PUSH1 0x0 DUP1 PUSH2 0x100 EXP DUP2 SLOAD DUP2 PUSH20 0xFFFFFFFFFFFFFFFFFFFFFFFFFFFFFFFFFFFFFFFF MUL NOT AND SWAP1 DUP4 PUSH20 0xFFFFFFFFFFFFFFFFFFFFFFFFFFFFFFFFFFFFFFFF AND MUL OR SWAP1 SSTORE POP PUSH1 0x0 JUMPDEST DUP2 MLOAD DUP2 LT ISZERO PUSH3 0x10E JUMPI PUSH1 0x1 PUSH1 0x40 MLOAD DUP1 PUSH1 0x40 ADD PUSH1 0x40 MSTORE DUP1 DUP5 DUP5 DUP2 MLOAD DUP2 LT PUSH3 0xA7 JUMPI PUSH3 0xA6 PUSH3 0x32B JUMP JUMPDEST JUMPDEST PUSH1 0x20 MUL PUSH1 0x20 ADD ADD MLOAD DUP2 MSTORE PUSH1 0x20 ADD PUSH1 0x0 DUP2 MSTORE POP SWAP1 DUP1 PUSH1 0x1 DUP2 SLOAD ADD DUP1 DUP3 SSTORE DUP1 SWAP2 POP POP PUSH1 0x1 SWAP1 SUB SWAP1 PUSH1 0x0 MSTORE PUSH1 0x20 PUSH1 0x0 KECCAK256 SWAP1 PUSH1 0x2 MUL ADD PUSH1 0x0 SWAP1 SWAP2 SWAP1 SWAP2 SWAP1 SWAP2 POP PUSH1 0x0 DUP3 ADD MLOAD DUP2 PUSH1 0x0 ADD SSTORE PUSH1 0x20 DUP3 ADD MLOAD DUP2 PUSH1 0x1 ADD SSTORE POP POP DUP1 DUP1 PUSH3 0x105 SWAP1 PUSH3 0x393 JUMP JUMPDEST SWAP2 POP POP PUSH3 0x7A JUMP JUMPDEST POP POP PUSH3 0x3E0 JUMP JUMPDEST PUSH1 0x0 PUSH1 0x40 MLOAD SWAP1 POP SWAP1 JUMP JUMPDEST PUSH1 0x0 DUP1 REVERT JUMPDEST PUSH1 0x0 DUP1 REVERT JUMPDEST PUSH1 0x0 DUP1 REVERT JUMPDEST PUSH1 0x0 PUSH1 0x1F NOT PUSH1 0x1F DUP4 ADD AND SWAP1 POP SWAP2 SWAP1 POP JUMP JUMPDEST PUSH32 0x4E487B7100000000000000000000000000000000000000000000000000000000 PUSH1 0x0 MSTORE PUSH1 0x41 PUSH1 0x4 MSTORE PUSH1 0x24 PUSH1 0x0 REVERT JUMPDEST PUSH3 0x17A DUP3 PUSH3 0x12F JUMP JUMPDEST DUP2 ADD DUP2 DUP2 LT PUSH8 0xFFFFFFFFFFFFFFFF DUP3 GT OR ISZERO PUSH3 0x19C JUMPI PUSH3 0x19B PUSH3 0x140 JUMP JUMPDEST JUMPDEST DUP1 PUSH1 0x40 MSTORE POP POP POP JUMP JUMPDEST PUSH1 0x0 PUSH3 0x1B1 PUSH3 0x116 JUMP JUMPDEST SWAP1 POP PUSH3 0x1BF DUP3 DUP3 PUSH3 0x16F JUMP JUMPDEST SWAP2 SWAP1 POP JUMP JUMPDEST PUSH1 0x0 PUSH8 0xFFFFFFFFFFFFFFFF DUP3 GT ISZERO PUSH3 0x1E2 JUMPI PUSH3 0x1E1 PUSH3 0x140 JUMP JUMPDEST JUMPDEST PUSH1 0x20 DUP3 MUL SWAP1 POP PUSH1 0x20 DUP2 ADD SWAP1 POP SWAP2 SWAP1 POP JUMP JUMPDEST PUSH1 0x0 DUP1 REVERT JUMPDEST PUSH1 0x0 DUP2 SWAP1 POP SWAP2 SWAP1 POP JUMP JUMPDEST PUSH3 0x20D DUP2 PUSH3 0x1F8 JUMP JUMPDEST DUP2 EQ PUSH3 0x219 JUMPI PUSH1 0x0 DUP1 REVERT JUMPDEST POP JUMP JUMPDEST PUSH1 0x0 DUP2 MLOAD SWAP1 POP PUSH3 0x22D DUP2 PUSH3 0x202 JUMP JUMPDEST SWAP3 SWAP2 POP POP JUMP JUMPDEST PUSH1 0x0 PUSH3 0x24A PUSH3 0x244 DUP5 PUSH3 0x1C4 JUMP JUMPDEST PUSH3 0x1A5 JUMP JUMPDEST SWAP1 POP DUP1 DUP4 DUP3 MSTORE PUSH1 0x20 DUP3 ADD SWAP1 POP PUSH1 0x20 DUP5 MUL DUP4 ADD DUP6 DUP2 GT ISZERO PUSH3 0x270 JUMPI PUSH3 0x26F PUSH3 0x1F3 JUMP JUMPDEST JUMPDEST DUP4 JUMPDEST DUP2 DUP2 LT ISZERO PUSH3 0x29D JUMPI DUP1 PUSH3 0x288 DUP9 DUP3 PUSH3 0x21C JUMP JUMPDEST DUP5 MSTORE PUSH1 0x20 DUP5 ADD SWAP4 POP POP PUSH1 0x20 DUP2 ADD SWAP1 POP PUSH3 0x272 JUMP JUMPDEST POP POP POP SWAP4 SWAP3 POP POP POP JUMP JUMPDEST PUSH1 0x0 DUP3 PUSH1 0x1F DUP4 ADD SLT PUSH3 0x2BF JUMPI PUSH3 0x2BE PUSH3 0x12A JUMP JUMPDEST JUMPDEST DUP2 MLOAD PUSH3 0x2D1 DUP5 DUP3 PUSH1 0x20 DUP7 ADD PUSH3 0x233 JUMP JUMPDEST SWAP2 POP POP SWAP3 SWAP2 POP POP JUMP JUMPDEST PUSH1 0x0 PUSH1 0x20 DUP3 DUP5 SUB SLT ISZERO PUSH3 0x2F3 JUMPI PUSH3 0x2F2 PUSH3 0x120 JUMP JUMPDEST JUMPDEST PUSH1 0x0 DUP3 ADD MLOAD PUSH8 0xFFFFFFFFFFFFFFFF DUP2 GT ISZERO PUSH3 0x314 JUMPI PUSH3 0x313 PUSH3 0x125 JUMP JUMPDEST JUMPDEST PUSH3 0x322 DUP5 DUP3 DUP6 ADD PUSH3 0x2A7 JUMP JUMPDEST SWAP2 POP POP SWAP3 SWAP2 POP POP JUMP JUMPDEST PUSH32 0x4E487B7100000000000000000000000000000000000000000000000000000000 PUSH1 0x0 MSTORE PUSH1 0x32 PUSH1 0x4 MSTORE PUSH1 0x24 PUSH1 0x0 REVERT JUMPDEST PUSH32 0x4E487B7100000000000000000000000000000000000000000000000000000000 PUSH1 0x0 MSTORE PUSH1 0x11 PUSH1 0x4 MSTORE PUSH1 0x24 PUSH1 0x0 REVERT JUMPDEST PUSH1 0x0 DUP2 SWAP1 POP SWAP2 SWAP1 POP JUMP JUMPDEST PUSH1 0x0 PUSH3 0x3A0 DUP3 PUSH3 0x389 JUMP JUMPDEST SWAP2 POP PUSH32 0xFFFFFFFFFFFFFFFFFFFFFFFFFFFFFFFFFFFFFFFFFFFFFFFFFFFFFFFFFFFFFFFF DUP3 SUB PUSH3 0x3D5 JUMPI PUSH3 0x3D4 PUSH3 0x35A JUMP JUMPDEST JUMPDEST PUSH1 0x1 DUP3 ADD SWAP1 POP SWAP2 SWAP1 POP JUMP JUMPDEST PUSH2 0xE1E DUP1 PUSH3 0x3F0 PUSH1 0x0 CODECOPY PUSH1 0x0 RETURN INVALID PUSH1 0x80 PUSH1 0x40 MSTORE CALLVALUE DUP1 ISZERO PUSH2 0x10 JUMPI PUSH1 0x0 DUP1 REVERT JUMPDEST POP PUSH1 0x4 CALLDATASIZE LT PUSH2 0x57 JUMPI PUSH1 0x0 CALLDATALOAD PUSH1 0xE0 SHR DUP1 PUSH4 0x13CF08B EQ PUSH2 0x5C JUMPI DUP1 PUSH4 0x24845194 EQ PUSH2 0x8D JUMPI DUP1 PUSH4 0x87F7B975 EQ PUSH2 0xA9 JUMPI DUP1 PUSH4 0xA3EC138D EQ PUSH2 0xC7 JUMPI DUP1 PUSH4 0xA46AEDFC EQ PUSH2 0xF9 JUMPI JUMPDEST PUSH1 0x0 DUP1 REVERT JUMPDEST PUSH2 0x76 PUSH1 0x4 DUP1 CALLDATASIZE SUB DUP2 ADD SWAP1 PUSH2 0x71 SWAP2 SWAP1 PUSH2 0x866 JUMP JUMPDEST PUSH2 0x115 JUMP JUMPDEST PUSH1 0x40 MLOAD PUSH2 0x84 SWAP3 SWAP2 SWAP1 PUSH2 0x8BB JUMP JUMPDEST PUSH1 0x40 MLOAD DUP1 SWAP2 SUB SWAP1 RETURN JUMPDEST PUSH2 0xA7 PUSH1 0x4 DUP1 CALLDATASIZE SUB DUP2 ADD SWAP1 PUSH2 0xA2 SWAP2 SWAP1 PUSH2 0x942 JUMP JUMPDEST PUSH2 0x149 JUMP JUMPDEST STOP JUMPDEST PUSH2 0xB1 PUSH2 0x337 JUMP JUMPDEST PUSH1 0x40 MLOAD PUSH2 0xBE SWAP2 SWAP1 PUSH2 0x97E JUMP JUMPDEST PUSH1 0x40 MLOAD DUP1 SWAP2 SUB SWAP1 RETURN JUMPDEST PUSH2 0xE1 PUSH1 0x4 DUP1 CALLDATASIZE SUB DUP2 ADD SWAP1 PUSH2 0xDC SWAP2 SWAP1 PUSH2 0x942 JUMP JUMPDEST PUSH2 0x35B JUMP JUMPDEST PUSH1 0x40 MLOAD PUSH2 0xF0 SWAP4 SWAP3 SWAP2 SWAP1 PUSH2 0x9B4 JUMP JUMPDEST PUSH1 0x40 MLOAD DUP1 SWAP2 SUB SWAP1 RETURN JUMPDEST PUSH2 0x113 PUSH1 0x4 DUP1 CALLDATASIZE SUB DUP2 ADD SWAP1 PUSH2 0x10E SWAP2 SWAP1 PUSH2 0x9EB JUMP JUMPDEST PUSH2 0x3B2 JUMP JUMPDEST STOP JUMPDEST PUSH1 0x1 DUP2 DUP2 SLOAD DUP2 LT PUSH2 0x125 JUMPI PUSH1 0x0 DUP1 REVERT JUMPDEST SWAP1 PUSH1 0x0 MSTORE PUSH1 0x20 PUSH1 0x0 KECCAK256 SWAP1 PUSH1 0x2 MUL ADD PUSH1 0x0 SWAP2 POP SWAP1 POP DUP1 PUSH1 0x0 ADD SLOAD SWAP1 DUP1 PUSH1 0x1 ADD SLOAD SWAP1 POP DUP3 JUMP JUMPDEST PUSH1 0x0 DUP1 SLOAD SWAP1 PUSH2 0x100 EXP SWAP1 DIV PUSH20 0xFFFFFFFFFFFFFFFFFFFFFFFFFFFFFFFFFFFFFFFF AND PUSH20 0xFFFFFFFFFFFFFFFFFFFFFFFFFFFFFFFFFFFFFFFF AND CALLER PUSH20 0xFFFFFFFFFFFFFFFFFFFFFFFFFFFFFFFFFFFFFFFF AND EQ PUSH2 0x1D7 JUMPI PUSH1 0x40 MLOAD PUSH32 0x8C379A000000000000000000000000000000000000000000000000000000000 DUP2 MSTORE PUSH1 0x4 ADD PUSH2 0x1CE SWAP1 PUSH2 0xAAE JUMP JUMPDEST PUSH1 0x40 MLOAD DUP1 SWAP2 SUB SWAP1 REVERT JUMPDEST PUSH1 0x2 PUSH1 0x0 DUP3 PUSH20 0xFFFFFFFFFFFFFFFFFFFFFFFFFFFFFFFFFFFFFFFF AND PUSH20 0xFFFFFFFFFFFFFFFFFFFFFFFFFFFFFFFFFFFFFFFF AND DUP2 MSTORE PUSH1 0x20 ADD SWAP1 DUP2 MSTORE PUSH1 0x20 ADD PUSH1 0x0 KECCAK256 PUSH1 0x1 ADD PUSH1 0x14 SWAP1 SLOAD SWAP1 PUSH2 0x100 EXP SWAP1 DIV PUSH1 0xFF AND ISZERO PUSH2 0x267 JUMPI PUSH1 0x40 MLOAD PUSH32 0x8C379A000000000000000000000000000000000000000000000000000000000 DUP2 MSTORE PUSH1 0x4 ADD PUSH2 0x25E SWAP1 PUSH2 0xB1A JUMP JUMPDEST PUSH1 0x40 MLOAD DUP1 SWAP2 SUB SWAP1 REVERT JUMPDEST PUSH1 0x0 PUSH1 0x2 PUSH1 0x0 DUP4 PUSH20 0xFFFFFFFFFFFFFFFFFFFFFFFFFFFFFFFFFFFFFFFF AND PUSH20 0xFFFFFFFFFFFFFFFFFFFFFFFFFFFFFFFFFFFFFFFF AND DUP2 MSTORE PUSH1 0x20 ADD SWAP1 DUP2 MSTORE PUSH1 0x20 ADD PUSH1 0x0 KECCAK256 PUSH1 0x0 ADD SLOAD EQ PUSH2 0x2EC JUMPI PUSH1 0x40 MLOAD PUSH32 0x8C379A000000000000000000000000000000000000000000000000000000000 DUP2 MSTORE PUSH1 0x4 ADD PUSH2 0x2E3 SWAP1 PUSH2 0xB86 JUMP JUMPDEST PUSH1 0x40 MLOAD DUP1 SWAP2 SUB SWAP1 REVERT JUMPDEST PUSH1 0x1 PUSH1 0x2 PUSH1 0x0 DUP4 PUSH20 0xFFFFFFFFFFFFFFFFFFFFFFFFFFFFFFFFFFFFFFFF AND PUSH20 0xFFFFFFFFFFFFFFFFFFFFFFFFFFFFFFFFFFFFFFFF AND DUP2 MSTORE PUSH1 0x20 ADD SWAP1 DUP2 MSTORE PUSH1 0x20 ADD PUSH1 0x0 KECCAK256 PUSH1 0x0 ADD DUP2 SWAP1 SSTORE POP POP JUMP JUMPDEST PUSH1 0x0 DUP1 SLOAD SWAP1 PUSH2 0x100 EXP SWAP1 DIV PUSH20 0xFFFFFFFFFFFFFFFFFFFFFFFFFFFFFFFFFFFFFFFF AND DUP2 JUMP JUMPDEST PUSH1 0x2 PUSH1 0x20 MSTORE DUP1 PUSH1 0x0 MSTORE PUSH1 0x40 PUSH1 0x0 KECCAK256 PUSH1 0x0 SWAP2 POP SWAP1 POP DUP1 PUSH1 0x0 ADD SLOAD SWAP1 DUP1 PUSH1 0x1 ADD PUSH1 0x0 SWAP1 SLOAD SWAP1 PUSH2 0x100 EXP SWAP1 DIV PUSH20 0xFFFFFFFFFFFFFFFFFFFFFFFFFFFFFFFFFFFFFFFF AND SWAP1 DUP1 PUSH1 0x1 ADD PUSH1 0x14 SWAP1 SLOAD SWAP1 PUSH2 0x100 EXP SWAP1 DIV PUSH1 0xFF AND SWAP1 POP DUP4 JUMP JUMPDEST DUP2 PUSH20 0xFFFFFFFFFFFFFFFFFFFFFFFFFFFFFFFFFFFFFFFF AND CALLER PUSH20 0xFFFFFFFFFFFFFFFFFFFFFFFFFFFFFFFFFFFFFFFF AND SUB PUSH2 0x420 JUMPI PUSH1 0x40 MLOAD PUSH32 0x8C379A000000000000000000000000000000000000000000000000000000000 DUP2 MSTORE PUSH1 0x4 ADD PUSH2 0x417 SWAP1 PUSH2 0xBF2 JUMP JUMPDEST PUSH1 0x40 MLOAD DUP1 SWAP2 SUB SWAP1 REVERT JUMPDEST JUMPDEST PUSH1 0x0 PUSH20 0xFFFFFFFFFFFFFFFFFFFFFFFFFFFFFFFFFFFFFFFF AND PUSH1 0x2 PUSH1 0x0 DUP5 PUSH20 0xFFFFFFFFFFFFFFFFFFFFFFFFFFFFFFFFFFFFFFFF AND PUSH20 0xFFFFFFFFFFFFFFFFFFFFFFFFFFFFFFFFFFFFFFFF AND DUP2 MSTORE PUSH1 0x20 ADD SWAP1 DUP2 MSTORE PUSH1 0x20 ADD PUSH1 0x0 KECCAK256 PUSH1 0x1 ADD PUSH1 0x0 SWAP1 SLOAD SWAP1 PUSH2 0x100 EXP SWAP1 DIV PUSH20 0xFFFFFFFFFFFFFFFFFFFFFFFFFFFFFFFFFFFFFFFF AND PUSH20 0xFFFFFFFFFFFFFFFFFFFFFFFFFFFFFFFFFFFFFFFF AND EQ PUSH2 0x58C JUMPI CALLER PUSH20 0xFFFFFFFFFFFFFFFFFFFFFFFFFFFFFFFFFFFFFFFF AND PUSH1 0x2 PUSH1 0x0 DUP5 PUSH20 0xFFFFFFFFFFFFFFFFFFFFFFFFFFFFFFFFFFFFFFFF AND PUSH20 0xFFFFFFFFFFFFFFFFFFFFFFFFFFFFFFFFFFFFFFFF AND DUP2 MSTORE PUSH1 0x20 ADD SWAP1 DUP2 MSTORE PUSH1 0x20 ADD PUSH1 0x0 KECCAK256 PUSH1 0x1 ADD PUSH1 0x0 SWAP1 SLOAD SWAP1 PUSH2 0x100 EXP SWAP1 DIV PUSH20 0xFFFFFFFFFFFFFFFFFFFFFFFFFFFFFFFFFFFFFFFF AND PUSH20 0xFFFFFFFFFFFFFFFFFFFFFFFFFFFFFFFFFFFFFFFF AND SUB PUSH2 0x587 JUMPI PUSH1 0x40 MLOAD PUSH32 0x8C379A000000000000000000000000000000000000000000000000000000000 DUP2 MSTORE PUSH1 0x4 ADD PUSH2 0x57E SWAP1 PUSH2 0xC5E JUMP JUMPDEST PUSH1 0x40 MLOAD DUP1 SWAP2 SUB SWAP1 REVERT JUMPDEST PUSH2 0x421 JUMP JUMPDEST PUSH1 0x2 PUSH1 0x0 CALLER PUSH20 0xFFFFFFFFFFFFFFFFFFFFFFFFFFFFFFFFFFFFFFFF AND PUSH20 0xFFFFFFFFFFFFFFFFFFFFFFFFFFFFFFFFFFFFFFFF AND DUP2 MSTORE PUSH1 0x20 ADD SWAP1 DUP2 MSTORE PUSH1 0x20 ADD PUSH1 0x0 KECCAK256 PUSH1 0x1 ADD PUSH1 0x14 SWAP1 SLOAD SWAP1 PUSH2 0x100 EXP SWAP1 DIV PUSH1 0xFF AND ISZERO PUSH2 0x61C JUMPI PUSH1 0x40 MLOAD PUSH32 0x8C379A000000000000000000000000000000000000000000000000000000000 DUP2 MSTORE PUSH1 0x4 ADD PUSH2 0x613 SWAP1 PUSH2 0xCCA JUMP JUMPDEST PUSH1 0x40 MLOAD DUP1 SWAP2 SUB SWAP1 REVERT JUMPDEST PUSH1 0x0 PUSH1 0x2 PUSH1 0x0 CALLER PUSH20 0xFFFFFFFFFFFFFFFFFFFFFFFFFFFFFFFFFFFFFFFF AND PUSH20 0xFFFFFFFFFFFFFFFFFFFFFFFFFFFFFFFFFFFFFFFF AND DUP2 MSTORE PUSH1 0x20 ADD SWAP1 DUP2 MSTORE PUSH1 0x20 ADD PUSH1 0x0 KECCAK256 PUSH1 0x0 ADD SLOAD SUB PUSH2 0x6A1 JUMPI PUSH1 0x40 MLOAD PUSH32 0x8C379A000000000000000000000000000000000000000000000000000000000 DUP2 MSTORE PUSH1 0x4 ADD PUSH2 0x698 SWAP1 PUSH2 0xD5C JUMP JUMPDEST PUSH1 0x40 MLOAD DUP1 SWAP2 SUB SWAP1 REVERT JUMPDEST PUSH1 0x0 PUSH20 0xFFFFFFFFFFFFFFFFFFFFFFFFFFFFFFFFFFFFFFFF AND DUP3 PUSH20 0xFFFFFFFFFFFFFFFFFFFFFFFFFFFFFFFFFFFFFFFF AND SUB PUSH2 0x710 JUMPI PUSH1 0x40 MLOAD PUSH32 0x8C379A000000000000000000000000000000000000000000000000000000000 DUP2 MSTORE PUSH1 0x4 ADD PUSH2 0x707 SWAP1 PUSH2 0xDC8 JUMP JUMPDEST PUSH1 0x40 MLOAD DUP1 SWAP2 SUB SWAP1 REVERT JUMPDEST DUP2 PUSH1 0x2 PUSH1 0x0 CALLER PUSH20 0xFFFFFFFFFFFFFFFFFFFFFFFFFFFFFFFFFFFFFFFF AND PUSH20 0xFFFFFFFFFFFFFFFFFFFFFFFFFFFFFFFFFFFFFFFF AND DUP2 MSTORE PUSH1 0x20 ADD SWAP1 DUP2 MSTORE PUSH1 0x20 ADD PUSH1 0x0 KECCAK256 PUSH1 0x1 ADD PUSH1 0x0 PUSH2 0x100 EXP DUP2 SLOAD DUP2 PUSH20 0xFFFFFFFFFFFFFFFFFFFFFFFFFFFFFFFFFFFFFFFF MUL NOT AND SWAP1 DUP4 PUSH20 0xFFFFFFFFFFFFFFFFFFFFFFFFFFFFFFFFFFFFFFFF AND MUL OR SWAP1 SSTORE POP PUSH1 0x0 PUSH1 0x2 PUSH1 0x0 CALLER PUSH20 0xFFFFFFFFFFFFFFFFFFFFFFFFFFFFFFFFFFFFFFFF AND PUSH20 0xFFFFFFFFFFFFFFFFFFFFFFFFFFFFFFFFFFFFFFFF AND DUP2 MSTORE PUSH1 0x20 ADD SWAP1 DUP2 MSTORE PUSH1 0x20 ADD PUSH1 0x0 KECCAK256 PUSH1 0x0 ADD DUP2 SWAP1 SSTORE POP PUSH1 0x2 PUSH1 0x0 DUP4 PUSH20 0xFFFFFFFFFFFFFFFFFFFFFFFFFFFFFFFFFFFFFFFF AND PUSH20 0xFFFFFFFFFFFFFFFFFFFFFFFFFFFFFFFFFFFFFFFF AND DUP2 MSTORE PUSH1 0x20 ADD SWAP1 DUP2 MSTORE PUSH1 0x20 ADD PUSH1 0x0 KECCAK256 PUSH1 0x1 ADD PUSH1 0x14 SWAP1 SLOAD SWAP1 PUSH2 0x100 EXP SWAP1 POP POP POP POP JUMP JUMPDEST PUSH1 0x0 DUP1 REVERT JUMPDEST PUSH1 0x0 DUP2 SWAP1 POP SWAP2 SWAP1 POP JUMP JUMPDEST PUSH2 0x843 DUP2 PUSH2 0x830 JUMP JUMPDEST DUP2 EQ PUSH2 0x84E JUMPI PUSH1 0x0 DUP1 REVERT JUMPDEST POP JUMP JUMPDEST PUSH1 0x0 DUP2 CALLDATALOAD SWAP1 POP PUSH2 0x860 DUP2 PUSH2 0x83A JUMP JUMPDEST SWAP3 SWAP2 POP POP JUMP JUMPDEST PUSH1 0x0 PUSH1 0x20 DUP3 DUP5 SUB SLT ISZERO PUSH2 0x87C JUMPI PUSH2 0x87B PUSH2 0x82B JUMP JUMPDEST JUMPDEST PUSH1 0x0 PUSH2 0x88A DUP5 DUP3 DUP6 ADD PUSH2 0x851 JUMP JUMPDEST SWAP2 POP POP SWAP3 SWAP2 POP POP JUMP JUMPDEST PUSH1 0x0 DUP2 SWAP1 POP SWAP2 SWAP1 POP JUMP JUMPDEST PUSH2 0x8A6 DUP2 PUSH2 0x893 JUMP JUMPDEST DUP3 MSTORE POP POP JUMP JUMPDEST PUSH2 0x8B5 DUP2 PUSH2 0x830 JUMP JUMPDEST DUP3 MSTORE POP POP JUMP JUMPDEST PUSH1 0x0 PUSH1 0x40 DUP3 ADD SWAP1 POP PUSH2 0x8D0 PUSH1 0x0 DUP4 ADD DUP6 PUSH2 0x89D JUMP JUMPDEST PUSH2 0x8DD PUSH1 0x20 DUP4 ADD DUP5 PUSH2 0x8AC JUMP JUMPDEST SWAP4 SWAP3 POP POP POP JUMP JUMPDEST PUSH1 0x0 PUSH20 0xFFFFFFFFFFFFFFFFFFFFFFFFFFFFFFFFFFFFFFFF DUP3 AND SWAP1 POP SWAP2 SWAP1 POP JUMP JUMPDEST PUSH1 0x0 PUSH2 0x90F DUP3 PUSH2 0x8E4 JUMP JUMPDEST SWAP1 POP SWAP2 SWAP1 POP JUMP JUMPDEST PUSH2 0x91F DUP2 PUSH2 0x904 JUMP JUMPDEST DUP2 EQ PUSH2 0x92A JUMPI PUSH1 0x0 DUP1 REVERT JUMPDEST POP JUMP JUMPDEST PUSH1 0x0 DUP2 CALLDATALOAD SWAP1 POP PUSH2 0x93C DUP2 PUSH2 0x916 JUMP JUMPDEST SWAP3 SWAP2 POP POP JUMP JUMPDEST PUSH1 0x0 PUSH1 0x20 DUP3 DUP5 SUB SLT ISZERO PUSH2 0x958 JUMPI PUSH2 0x957 PUSH2 0x82B JUMP JUMPDEST JUMPDEST PUSH1 0x0 PUSH2 0x966 DUP5 DUP3 DUP6 ADD PUSH2 0x92D JUMP JUMPDEST SWAP2 POP POP SWAP3 SWAP2 POP POP JUMP JUMPDEST PUSH2 0x978 DUP2 PUSH2 0x904 JUMP JUMPDEST DUP3 MSTORE POP POP JUMP JUMPDEST PUSH1 0x0 PUSH1 0x20 DUP3 ADD SWAP1 POP PUSH2 0x993 PUSH1 0x0 DUP4 ADD DUP5 PUSH2 0x96F JUMP JUMPDEST SWAP3 SWAP2 POP POP JUMP JUMPDEST PUSH1 0x0 DUP2 ISZERO ISZERO SWAP1 POP SWAP2 SWAP1 POP JUMP JUMPDEST PUSH2 0x9AE DUP2 PUSH2 0x999 JUMP JUMPDEST DUP3 MSTORE POP POP JUMP JUMPDEST PUSH1 0x0 PUSH1 0x60 DUP3 ADD SWAP1 POP PUSH2 0x9C9 PUSH1 0x0 DUP4 ADD DUP7 PUSH2 0x8AC JUMP JUMPDEST PUSH2 0x9D6 PUSH1 0x20 DUP4 ADD DUP6 PUSH2 0x96F JUMP JUMPDEST PUSH2 0x9E3 PUSH1 0x40 DUP4 ADD DUP5 PUSH2 0x9A5 JUMP JUMPDEST SWAP5 SWAP4 POP POP POP POP JUMP JUMPDEST PUSH1 0x0 DUP1 PUSH1 0x40 DUP4 DUP6 SUB SLT ISZERO PUSH2 0xA02 JUMPI PUSH2 0xA01 PUSH2 0x82B JUMP JUMPDEST JUMPDEST PUSH1 0x0 PUSH2 0xA10 DUP6 DUP3 DUP7 ADD PUSH2 0x92D JUMP JUMPDEST SWAP3 POP POP PUSH1 0x20 PUSH2 0xA21 DUP6 DUP3 DUP7 ADD PUSH2 0x851 JUMP JUMPDEST SWAP2 POP POP SWAP3 POP SWAP3 SWAP1 POP JUMP JUMPDEST PUSH1 0x0 DUP3 DUP3 MSTORE PUSH1 0x20 DUP3 ADD SWAP1 POP SWAP3 SWAP2 POP POP JUMP JUMPDEST PUSH32 0x5468652063616C6C6572206973206E6F7420746865206368616972706572736F PUSH1 0x0 DUP3 ADD MSTORE PUSH32 0x6E00000000000000000000000000000000000000000000000000000000000000 PUSH1 0x20 DUP3 ADD MSTORE POP JUMP JUMPDEST PUSH1 0x0 PUSH2 0xA98 PUSH1 0x21 DUP4 PUSH2 0xA2B JUMP JUMPDEST SWAP2 POP PUSH2 0xAA3 DUP3 PUSH2 0xA3C JUMP JUMPDEST PUSH1 0x40 DUP3 ADD SWAP1 POP SWAP2 SWAP1 POP JUMP JUMPDEST PUSH1 0x0 PUSH1 0x20 DUP3 ADD SWAP1 POP DUP2 DUP2 SUB PUSH1 0x0 DUP4 ADD MSTORE PUSH2 0xAC7 DUP2 PUSH2 0xA8B JUMP JUMPDEST SWAP1 POP SWAP2 SWAP1 POP JUMP JUMPDEST PUSH32 0x746F20766F746500000000000000000000000000000000000000000000000000 PUSH1 0x0 DUP3 ADD MSTORE POP JUMP JUMPDEST PUSH1 0x0 PUSH2 0xB04 PUSH1 0x7 DUP4 PUSH2 0xA2B JUMP JUMPDEST SWAP2 POP PUSH2 0xB0F DUP3 PUSH2 0xACE JUMP JUMPDEST PUSH1 0x20 DUP3 ADD SWAP1 POP SWAP2 SWAP1 POP JUMP JUMPDEST PUSH1 0x0 PUSH1 0x20 DUP3 ADD SWAP1 POP DUP2 DUP2 SUB PUSH1 0x0 DUP4 ADD MSTORE PUSH2 0xB33 DUP2 PUSH2 0xAF7 JUMP JUMPDEST SWAP1 POP SWAP2 SWAP1 POP JUMP JUMPDEST PUSH32 0x617574686F72697A656400000000000000000000000000000000000000000000 PUSH1 0x0 DUP3 ADD MSTORE POP JUMP JUMPDEST PUSH1 0x0 PUSH2 0xB70 PUSH1 0xA DUP4 PUSH2 0xA2B JUMP JUMPDEST SWAP2 POP PUSH2 0xB7B DUP3 PUSH2 0xB3A JUMP JUMPDEST PUSH1 0x20 DUP3 ADD SWAP1 POP SWAP2 SWAP1 POP JUMP JUMPDEST PUSH1 0x0 PUSH1 0x20 DUP3 ADD SWAP1 POP DUP2 DUP2 SUB PUSH1 0x0 DUP4 ADD MSTORE PUSH2 0xB9F DUP2 PUSH2 0xB63 JUMP JUMPDEST SWAP1 POP SWAP2 SWAP1 POP JUMP JUMPDEST PUSH32 0x54686520656E7472757374656420706572736F6E2069732068696D73656C6600 PUSH1 0x0 DUP3 ADD MSTORE POP JUMP JUMPDEST PUSH1 0x0 PUSH2 0xBDC PUSH1 0x1F DUP4 PUSH2 0xA2B JUMP JUMPDEST SWAP2 POP PUSH2 0xBE7 DUP3 PUSH2 0xBA6 JUMP JUMPDEST PUSH1 0x20 DUP3 ADD SWAP1 POP SWAP2 SWAP1 POP JUMP JUMPDEST PUSH1 0x0 PUSH1 0x20 DUP3 ADD SWAP1 POP DUP2 DUP2 SUB PUSH1 0x0 DUP4 ADD MSTORE PUSH2 0xC0B DUP2 PUSH2 0xBCF JUMP JUMPDEST SWAP1 POP SWAP2 SWAP1 POP JUMP JUMPDEST PUSH32 0x44656C65676174656420636C6F736564206C6F6F700000000000000000000000 PUSH1 0x0 DUP3 ADD MSTORE POP JUMP JUMPDEST PUSH1 0x0 PUSH2 0xC48 PUSH1 0x15 DUP4 PUSH2 0xA2B JUMP JUMPDEST SWAP2 POP PUSH2 0xC53 DUP3 PUSH2 0xC12 JUMP JUMPDEST PUSH1 0x20 DUP3 ADD SWAP1 POP SWAP2 SWAP1 POP JUMP JUMPDEST PUSH1 0x0 PUSH1 0x20 DUP3 ADD SWAP1 POP DUP2 DUP2 SUB PUSH1 0x0 DUP4 ADD MSTORE PUSH2 0xC77 DUP2 PUSH2 0xC3B JUMP JUMPDEST SWAP1 POP SWAP2 SWAP1 POP JUMP JUMPDEST PUSH32 0x63616C6C65722068617320766F74656400000000000000000000000000000000 PUSH1 0x0 DUP3 ADD MSTORE POP JUMP JUMPDEST PUSH1 0x0 PUSH2 0xCB4 PUSH1 0x10 DUP4 PUSH2 0xA2B JUMP JUMPDEST SWAP2 POP PUSH2 0xCBF DUP3 PUSH2 0xC7E JUMP JUMPDEST PUSH1 0x20 DUP3 ADD SWAP1 POP SWAP2 SWAP1 POP JUMP JUMPDEST PUSH1 0x0 PUSH1 0x20 DUP3 ADD SWAP1 POP DUP2 DUP2 SUB PUSH1 0x0 DUP4 ADD MSTORE PUSH2 0xCE3 DUP2 PUSH2 0xCA7 JUMP JUMPDEST SWAP1 POP SWAP2 SWAP1 POP JUMP JUMPDEST PUSH32 0x5468652063616C6C657220646F6573206E6F74206861766520766F74696E6720 PUSH1 0x0 DUP3 ADD MSTORE PUSH32 0x7269676874730000000000000000000000000000000000000000000000000000 PUSH1 0x20 DUP3 ADD MSTORE POP JUMP JUMPDEST PUSH1 0x0 PUSH2 0xD46 PUSH1 0x26 DUP4 PUSH2 0xA2B JUMP JUMPDEST SWAP2 POP PUSH2 0xD51 DUP3 PUSH2 0xCEA JUMP JUMPDEST PUSH1 0x40 DUP3 ADD SWAP1 POP SWAP2 SWAP1 POP JUMP JUMPDEST PUSH1 0x0 PUSH1 0x20 DUP3 ADD SWAP1 POP DUP2 DUP2 SUB PUSH1 0x0 DUP4 ADD MSTORE PUSH2 0xD75 DUP2 PUSH2 0xD39 JUMP JUMPDEST SWAP1 POP SWAP2 SWAP1 POP JUMP JUMPDEST PUSH32 0x54686520656E74727573746564206164647265737320697320696C6C6567616C PUSH1 0x0 DUP3 ADD MSTORE POP JUMP JUMPDEST PUSH1 0x0 PUSH2 0xDB2 PUSH1 0x20 DUP4 PUSH2 0xA2B JUMP JUMPDEST SWAP2 POP PUSH2 0xDBD DUP3 PUSH2 0xD7C JUMP JUMPDEST PUSH1 0x20 DUP3 ADD SWAP1 POP SWAP2 SWAP1 POP JUMP JUMPDEST PUSH1 0x0 PUSH1 0x20 DUP3 ADD SWAP1 POP DUP2 DUP2 SUB PUSH1 0x0 DUP4 ADD MSTORE PUSH2 0xDE1 DUP2 PUSH2 0xDA5 JUMP JUMPDEST SWAP1 POP SWAP2 SWAP1 POP JUMP INVALID LOG2 PUSH5 0x6970667358 0x22 SLT KECCAK256 SWAP12 0xEE SWAP11 SWAP8 SHL BLOCKHASH 0x5D MUL 0xE4 0xCF DUP5 SWAP5 EXTCODESIZE ADDMOD 0xDD PUSH23 0xAA2BA0376476653491E47DC13C5FFF6D64736F6C634300 ADDMOD 0xD STOP CALLER "
				},
				"gasEstimates": {
					"creation": {
						"codeDepositCost": "722800",
						"executionCost": "infinite",
						"totalCost": "infinite"
					},
					"external": {
						"chairman()": "2533",
						"entrust(address,uint256)": "infinite",
						"giveAddressVote(address)": "29353",
						"proposals(uint256)": "infinite",
						"voters(address)": "infinite"
					}
				},
				"methodIdentifiers": {
					"chairman()": "87f7b975",
					"entrust(address,uint256)": "a46aedfc",
					"giveAddressVote(address)": "24845194",
					"proposals(uint256)": "013cf08b",
					"voters(address)": "a3ec138d"
				}
			},
			"userdoc": {
				"kind": "user",
				"methods": {},
				"version": 1
			}
		}
	}
}