{
	"contracts/test1.sol": {
		"ElectiveSystem": {
			"abi": [
				{
					"inputs": [
						{
							"internalType": "bytes32[]",
							"name": "_proposalNames",
							"type": "bytes32[]"
						}
					],
					"stateMutability": "nonpayable",
					"type": "constructor"
				},
				{
					"inputs": [],
					"name": "chairman",
					"outputs": [
						{
							"internalType": "address",
							"name": "",
							"type": "address"
						}
					],
					"stateMutability": "view",
					"type": "function"
				},
				{
					"inputs": [
						{
							"internalType": "address",
							"name": "_to",
							"type": "address"
						}
					],
					"name": "entrust",
					"outputs": [],
					"stateMutability": "nonpayable",
					"type": "function"
				},
				{
					"inputs": [
						{
							"internalType": "address",
							"name": "_to",
							"type": "address"
						}
					],
					"name": "giveAddressVote",
					"outputs": [],
					"stateMutability": "nonpayable",
					"type": "function"
				},
				{
					"inputs": [
						{
							"internalType": "uint256",
							"name": "",
							"type": "uint256"
						}
					],
					"name": "proposals",
					"outputs": [
						{
							"internalType": "bytes32",
							"name": "Name",
							"type": "bytes32"
						},
						{
							"internalType": "uint256",
							"name": "ticketNum",
							"type": "uint256"
						}
					],
					"stateMutability": "view",
					"type": "function"
				},
				{
					"inputs": [
						{
							"internalType": "address",
							"name": "",
							"type": "address"
						}
					],
					"name": "voters",
					"outputs": [
						{
							"internalType": "uint256",
							"name": "weight",
							"type": "uint256"
						},
						{
							"internalType": "address",
							"name": "trustee",
							"type": "address"
						},
						{
							"internalType": "bool",
							"name": "voted",
							"type": "bool"
						},
						{
							"internalType": "uint256",
							"name": "ballotIdex",
							"type": "uint256"
						}
					],
					"stateMutability": "view",
					"type": "function"
				}
			],
			"devdoc": {
				"kind": "dev",
				"methods": {},
				"version": 1
			},
			"evm": {
				"assembly": "    /* \"contracts/test1.sol\":66:2059  contract ElectiveSystem {... */\n  mstore(0x40, 0x80)\n    /* \"contracts/test1.sol\":454:726  constructor(bytes32[] memory _proposalNames){... */\n  callvalue\n  dup1\n  iszero\n  tag_1\n  jumpi\n  0x00\n  dup1\n  revert\ntag_1:\n  pop\n  mload(0x40)\n  sub(codesize, bytecodeSize)\n  dup1\n  bytecodeSize\n  dup4\n  codecopy\n  dup2\n  dup2\n  add\n  0x40\n  mstore\n  dup2\n  add\n  swap1\n  tag_2\n  swap2\n  swap1\n  tag_3\n  jump\t// in\ntag_2:\n    /* \"contracts/test1.sol\":519:529  msg.sender */\n  caller\n    /* \"contracts/test1.sol\":508:516  chairman */\n  0x00\n  dup1\n    /* \"contracts/test1.sol\":508:529  chairman = msg.sender */\n  0x0100\n  exp\n  dup2\n  sload\n  dup2\n  0xffffffffffffffffffffffffffffffffffffffff\n  mul\n  not\n  and\n  swap1\n  dup4\n  0xffffffffffffffffffffffffffffffffffffffff\n  and\n  mul\n  or\n  swap1\n  sstore\n  pop\n    /* \"contracts/test1.sol\":544:550  uint i */\n  0x00\n    /* \"contracts/test1.sol\":539:718  for (uint i; i< _proposalNames.length; i++){... */\ntag_6:\n    /* \"contracts/test1.sol\":555:569  _proposalNames */\n  dup2\n    /* \"contracts/test1.sol\":555:576  _proposalNames.length */\n  mload\n    /* \"contracts/test1.sol\":552:553  i */\n  dup2\n    /* \"contracts/test1.sol\":552:576  i< _proposalNames.length */\n  lt\n    /* \"contracts/test1.sol\":539:718  for (uint i; i< _proposalNames.length; i++){... */\n  iszero\n  tag_7\n  jumpi\n    /* \"contracts/test1.sol\":596:605  proposals */\n  0x01\n    /* \"contracts/test1.sol\":611:706  Proposal({... */\n  mload(0x40)\n  dup1\n  0x40\n  add\n  0x40\n  mstore\n  dup1\n    /* \"contracts/test1.sol\":644:658  _proposalNames */\n  dup5\n    /* \"contracts/test1.sol\":659:660  i */\n  dup5\n    /* \"contracts/test1.sol\":644:661  _proposalNames[i] */\n  dup2\n  mload\n  dup2\n  lt\n  tag_9\n  jumpi\n  tag_10\n  tag_11\n  jump\t// in\ntag_10:\ntag_9:\n  0x20\n  mul\n  0x20\n  add\n  add\n  mload\n    /* \"contracts/test1.sol\":611:706  Proposal({... */\n  dup2\n  mstore\n  0x20\n  add\n    /* \"contracts/test1.sol\":690:691  0 */\n  0x00\n    /* \"contracts/test1.sol\":611:706  Proposal({... */\n  dup2\n  mstore\n  pop\n    /* \"contracts/test1.sol\":596:707  proposals.push(Proposal({... */\n  swap1\n  dup1\n  0x01\n  dup2\n  sload\n  add\n  dup1\n  dup3\n  sstore\n  dup1\n  swap2\n  pop\n  pop\n  0x01\n  swap1\n  sub\n  swap1\n  0x00\n  mstore\n  keccak256(0x00, 0x20)\n  swap1\n  0x02\n  mul\n  add\n  0x00\n  swap1\n  swap2\n  swap1\n  swap2\n  swap1\n  swap2\n  pop\n  0x00\n  dup3\n  add\n  mload\n  dup2\n  0x00\n  add\n  sstore\n  0x20\n  dup3\n  add\n  mload\n  dup2\n  0x01\n  add\n  sstore\n  pop\n  pop\n    /* \"contracts/test1.sol\":578:581  i++ */\n  dup1\n  dup1\n  tag_13\n  swap1\n  tag_14\n  jump\t// in\ntag_13:\n  swap2\n  pop\n  pop\n    /* \"contracts/test1.sol\":539:718  for (uint i; i< _proposalNames.length; i++){... */\n  jump(tag_6)\ntag_7:\n  pop\n    /* \"contracts/test1.sol\":454:726  constructor(bytes32[] memory _proposalNames){... */\n  pop\n    /* \"contracts/test1.sol\":66:2059  contract ElectiveSystem {... */\n  jump(tag_15)\n    /* \"#utility.yul\":7:82   */\ntag_16:\n    /* \"#utility.yul\":40:46   */\n  0x00\n    /* \"#utility.yul\":73:75   */\n  0x40\n    /* \"#utility.yul\":67:76   */\n  mload\n    /* \"#utility.yul\":57:76   */\n  swap1\n  pop\n    /* \"#utility.yul\":7:82   */\n  swap1\n  jump\t// out\n    /* \"#utility.yul\":88:205   */\ntag_17:\n    /* \"#utility.yul\":197:198   */\n  0x00\n    /* \"#utility.yul\":194:195   */\n  dup1\n    /* \"#utility.yul\":187:199   */\n  revert\n    /* \"#utility.yul\":211:328   */\ntag_18:\n    /* \"#utility.yul\":320:321   */\n  0x00\n    /* \"#utility.yul\":317:318   */\n  dup1\n    /* \"#utility.yul\":310:322   */\n  revert\n    /* \"#utility.yul\":334:451   */\ntag_19:\n    /* \"#utility.yul\":443:444   */\n  0x00\n    /* \"#utility.yul\":440:441   */\n  dup1\n    /* \"#utility.yul\":433:445   */\n  revert\n    /* \"#utility.yul\":457:559   */\ntag_20:\n    /* \"#utility.yul\":498:504   */\n  0x00\n    /* \"#utility.yul\":549:551   */\n  0x1f\n    /* \"#utility.yul\":545:552   */\n  not\n    /* \"#utility.yul\":540:542   */\n  0x1f\n    /* \"#utility.yul\":533:538   */\n  dup4\n    /* \"#utility.yul\":529:543   */\n  add\n    /* \"#utility.yul\":525:553   */\n  and\n    /* \"#utility.yul\":515:553   */\n  swap1\n  pop\n    /* \"#utility.yul\":457:559   */\n  swap2\n  swap1\n  pop\n  jump\t// out\n    /* \"#utility.yul\":565:745   */\ntag_21:\n    /* \"#utility.yul\":613:690   */\n  0x4e487b7100000000000000000000000000000000000000000000000000000000\n    /* \"#utility.yul\":610:611   */\n  0x00\n    /* \"#utility.yul\":603:691   */\n  mstore\n    /* \"#utility.yul\":710:714   */\n  0x41\n    /* \"#utility.yul\":707:708   */\n  0x04\n    /* \"#utility.yul\":700:715   */\n  mstore\n    /* \"#utility.yul\":734:738   */\n  0x24\n    /* \"#utility.yul\":731:732   */\n  0x00\n    /* \"#utility.yul\":724:739   */\n  revert\n    /* \"#utility.yul\":751:1032   */\ntag_22:\n    /* \"#utility.yul\":834:861   */\n  tag_41\n    /* \"#utility.yul\":856:860   */\n  dup3\n    /* \"#utility.yul\":834:861   */\n  tag_20\n  jump\t// in\ntag_41:\n    /* \"#utility.yul\":826:832   */\n  dup2\n    /* \"#utility.yul\":822:862   */\n  add\n    /* \"#utility.yul\":964:970   */\n  dup2\n    /* \"#utility.yul\":952:962   */\n  dup2\n    /* \"#utility.yul\":949:971   */\n  lt\n    /* \"#utility.yul\":928:946   */\n  0xffffffffffffffff\n    /* \"#utility.yul\":916:926   */\n  dup3\n    /* \"#utility.yul\":913:947   */\n  gt\n    /* \"#utility.yul\":910:972   */\n  or\n    /* \"#utility.yul\":907:995   */\n  iszero\n  tag_42\n  jumpi\n    /* \"#utility.yul\":975:993   */\n  tag_43\n  tag_21\n  jump\t// in\ntag_43:\n    /* \"#utility.yul\":907:995   */\ntag_42:\n    /* \"#utility.yul\":1015:1025   */\n  dup1\n    /* \"#utility.yul\":1011:1013   */\n  0x40\n    /* \"#utility.yul\":1004:1026   */\n  mstore\n    /* \"#utility.yul\":794:1032   */\n  pop\n    /* \"#utility.yul\":751:1032   */\n  pop\n  pop\n  jump\t// out\n    /* \"#utility.yul\":1038:1167   */\ntag_23:\n    /* \"#utility.yul\":1072:1078   */\n  0x00\n    /* \"#utility.yul\":1099:1119   */\n  tag_45\n  tag_16\n  jump\t// in\ntag_45:\n    /* \"#utility.yul\":1089:1119   */\n  swap1\n  pop\n    /* \"#utility.yul\":1128:1161   */\n  tag_46\n    /* \"#utility.yul\":1156:1160   */\n  dup3\n    /* \"#utility.yul\":1148:1154   */\n  dup3\n    /* \"#utility.yul\":1128:1161   */\n  tag_22\n  jump\t// in\ntag_46:\n    /* \"#utility.yul\":1038:1167   */\n  swap2\n  swap1\n  pop\n  jump\t// out\n    /* \"#utility.yul\":1173:1484   */\ntag_24:\n    /* \"#utility.yul\":1250:1254   */\n  0x00\n    /* \"#utility.yul\":1340:1358   */\n  0xffffffffffffffff\n    /* \"#utility.yul\":1332:1338   */\n  dup3\n    /* \"#utility.yul\":1329:1359   */\n  gt\n    /* \"#utility.yul\":1326:1382   */\n  iszero\n  tag_48\n  jumpi\n    /* \"#utility.yul\":1362:1380   */\n  tag_49\n  tag_21\n  jump\t// in\ntag_49:\n    /* \"#utility.yul\":1326:1382   */\ntag_48:\n    /* \"#utility.yul\":1412:1416   */\n  0x20\n    /* \"#utility.yul\":1404:1410   */\n  dup3\n    /* \"#utility.yul\":1400:1417   */\n  mul\n    /* \"#utility.yul\":1392:1417   */\n  swap1\n  pop\n    /* \"#utility.yul\":1472:1476   */\n  0x20\n    /* \"#utility.yul\":1466:1470   */\n  dup2\n    /* \"#utility.yul\":1462:1477   */\n  add\n    /* \"#utility.yul\":1454:1477   */\n  swap1\n  pop\n    /* \"#utility.yul\":1173:1484   */\n  swap2\n  swap1\n  pop\n  jump\t// out\n    /* \"#utility.yul\":1490:1607   */\ntag_25:\n    /* \"#utility.yul\":1599:1600   */\n  0x00\n    /* \"#utility.yul\":1596:1597   */\n  dup1\n    /* \"#utility.yul\":1589:1601   */\n  revert\n    /* \"#utility.yul\":1613:1690   */\ntag_26:\n    /* \"#utility.yul\":1650:1657   */\n  0x00\n    /* \"#utility.yul\":1679:1684   */\n  dup2\n    /* \"#utility.yul\":1668:1684   */\n  swap1\n  pop\n    /* \"#utility.yul\":1613:1690   */\n  swap2\n  swap1\n  pop\n  jump\t// out\n    /* \"#utility.yul\":1696:1818   */\ntag_27:\n    /* \"#utility.yul\":1769:1793   */\n  tag_53\n    /* \"#utility.yul\":1787:1792   */\n  dup2\n    /* \"#utility.yul\":1769:1793   */\n  tag_26\n  jump\t// in\ntag_53:\n    /* \"#utility.yul\":1762:1767   */\n  dup2\n    /* \"#utility.yul\":1759:1794   */\n  eq\n    /* \"#utility.yul\":1749:1812   */\n  tag_54\n  jumpi\n    /* \"#utility.yul\":1808:1809   */\n  0x00\n    /* \"#utility.yul\":1805:1806   */\n  dup1\n    /* \"#utility.yul\":1798:1810   */\n  revert\n    /* \"#utility.yul\":1749:1812   */\ntag_54:\n    /* \"#utility.yul\":1696:1818   */\n  pop\n  jump\t// out\n    /* \"#utility.yul\":1824:1967   */\ntag_28:\n    /* \"#utility.yul\":1881:1886   */\n  0x00\n    /* \"#utility.yul\":1912:1918   */\n  dup2\n    /* \"#utility.yul\":1906:1919   */\n  mload\n    /* \"#utility.yul\":1897:1919   */\n  swap1\n  pop\n    /* \"#utility.yul\":1928:1961   */\n  tag_56\n    /* \"#utility.yul\":1955:1960   */\n  dup2\n    /* \"#utility.yul\":1928:1961   */\n  tag_27\n  jump\t// in\ntag_56:\n    /* \"#utility.yul\":1824:1967   */\n  swap3\n  swap2\n  pop\n  pop\n  jump\t// out\n    /* \"#utility.yul\":1990:2722   */\ntag_29:\n    /* \"#utility.yul\":2097:2102   */\n  0x00\n    /* \"#utility.yul\":2122:2203   */\n  tag_58\n    /* \"#utility.yul\":2138:2202   */\n  tag_59\n    /* \"#utility.yul\":2195:2201   */\n  dup5\n    /* \"#utility.yul\":2138:2202   */\n  tag_24\n  jump\t// in\ntag_59:\n    /* \"#utility.yul\":2122:2203   */\n  tag_23\n  jump\t// in\ntag_58:\n    /* \"#utility.yul\":2113:2203   */\n  swap1\n  pop\n    /* \"#utility.yul\":2223:2228   */\n  dup1\n    /* \"#utility.yul\":2252:2258   */\n  dup4\n    /* \"#utility.yul\":2245:2250   */\n  dup3\n    /* \"#utility.yul\":2238:2259   */\n  mstore\n    /* \"#utility.yul\":2286:2290   */\n  0x20\n    /* \"#utility.yul\":2279:2284   */\n  dup3\n    /* \"#utility.yul\":2275:2291   */\n  add\n    /* \"#utility.yul\":2268:2291   */\n  swap1\n  pop\n    /* \"#utility.yul\":2339:2343   */\n  0x20\n    /* \"#utility.yul\":2331:2337   */\n  dup5\n    /* \"#utility.yul\":2327:2344   */\n  mul\n    /* \"#utility.yul\":2319:2325   */\n  dup4\n    /* \"#utility.yul\":2315:2345   */\n  add\n    /* \"#utility.yul\":2368:2371   */\n  dup6\n    /* \"#utility.yul\":2360:2366   */\n  dup2\n    /* \"#utility.yul\":2357:2372   */\n  gt\n    /* \"#utility.yul\":2354:2476   */\n  iszero\n  tag_60\n  jumpi\n    /* \"#utility.yul\":2387:2466   */\n  tag_61\n  tag_25\n  jump\t// in\ntag_61:\n    /* \"#utility.yul\":2354:2476   */\ntag_60:\n    /* \"#utility.yul\":2502:2508   */\n  dup4\n    /* \"#utility.yul\":2485:2716   */\ntag_62:\n    /* \"#utility.yul\":2519:2525   */\n  dup2\n    /* \"#utility.yul\":2514:2517   */\n  dup2\n    /* \"#utility.yul\":2511:2526   */\n  lt\n    /* \"#utility.yul\":2485:2716   */\n  iszero\n  tag_64\n  jumpi\n    /* \"#utility.yul\":2594:2597   */\n  dup1\n    /* \"#utility.yul\":2623:2671   */\n  tag_65\n    /* \"#utility.yul\":2667:2670   */\n  dup9\n    /* \"#utility.yul\":2655:2665   */\n  dup3\n    /* \"#utility.yul\":2623:2671   */\n  tag_28\n  jump\t// in\ntag_65:\n    /* \"#utility.yul\":2618:2621   */\n  dup5\n    /* \"#utility.yul\":2611:2672   */\n  mstore\n    /* \"#utility.yul\":2701:2705   */\n  0x20\n    /* \"#utility.yul\":2696:2699   */\n  dup5\n    /* \"#utility.yul\":2692:2706   */\n  add\n    /* \"#utility.yul\":2685:2706   */\n  swap4\n  pop\n    /* \"#utility.yul\":2561:2716   */\n  pop\n    /* \"#utility.yul\":2545:2549   */\n  0x20\n    /* \"#utility.yul\":2540:2543   */\n  dup2\n    /* \"#utility.yul\":2536:2550   */\n  add\n    /* \"#utility.yul\":2529:2550   */\n  swap1\n  pop\n    /* \"#utility.yul\":2485:2716   */\n  jump(tag_62)\ntag_64:\n    /* \"#utility.yul\":2489:2510   */\n  pop\n    /* \"#utility.yul\":2103:2722   */\n  pop\n  pop\n    /* \"#utility.yul\":1990:2722   */\n  swap4\n  swap3\n  pop\n  pop\n  pop\n  jump\t// out\n    /* \"#utility.yul\":2745:3130   */\ntag_30:\n    /* \"#utility.yul\":2827:2832   */\n  0x00\n    /* \"#utility.yul\":2876:2879   */\n  dup3\n    /* \"#utility.yul\":2869:2873   */\n  0x1f\n    /* \"#utility.yul\":2861:2867   */\n  dup4\n    /* \"#utility.yul\":2857:2874   */\n  add\n    /* \"#utility.yul\":2853:2880   */\n  slt\n    /* \"#utility.yul\":2843:2965   */\n  tag_67\n  jumpi\n    /* \"#utility.yul\":2884:2963   */\n  tag_68\n  tag_19\n  jump\t// in\ntag_68:\n    /* \"#utility.yul\":2843:2965   */\ntag_67:\n    /* \"#utility.yul\":2994:3000   */\n  dup2\n    /* \"#utility.yul\":2988:3001   */\n  mload\n    /* \"#utility.yul\":3019:3124   */\n  tag_69\n    /* \"#utility.yul\":3120:3123   */\n  dup5\n    /* \"#utility.yul\":3112:3118   */\n  dup3\n    /* \"#utility.yul\":3105:3109   */\n  0x20\n    /* \"#utility.yul\":3097:3103   */\n  dup7\n    /* \"#utility.yul\":3093:3110   */\n  add\n    /* \"#utility.yul\":3019:3124   */\n  tag_29\n  jump\t// in\ntag_69:\n    /* \"#utility.yul\":3010:3124   */\n  swap2\n  pop\n    /* \"#utility.yul\":2833:3130   */\n  pop\n    /* \"#utility.yul\":2745:3130   */\n  swap3\n  swap2\n  pop\n  pop\n  jump\t// out\n    /* \"#utility.yul\":3136:3690   */\ntag_3:\n    /* \"#utility.yul\":3231:3237   */\n  0x00\n    /* \"#utility.yul\":3280:3282   */\n  0x20\n    /* \"#utility.yul\":3268:3277   */\n  dup3\n    /* \"#utility.yul\":3259:3266   */\n  dup5\n    /* \"#utility.yul\":3255:3278   */\n  sub\n    /* \"#utility.yul\":3251:3283   */\n  slt\n    /* \"#utility.yul\":3248:3367   */\n  iszero\n  tag_71\n  jumpi\n    /* \"#utility.yul\":3286:3365   */\n  tag_72\n  tag_17\n  jump\t// in\ntag_72:\n    /* \"#utility.yul\":3248:3367   */\ntag_71:\n    /* \"#utility.yul\":3427:3428   */\n  0x00\n    /* \"#utility.yul\":3416:3425   */\n  dup3\n    /* \"#utility.yul\":3412:3429   */\n  add\n    /* \"#utility.yul\":3406:3430   */\n  mload\n    /* \"#utility.yul\":3457:3475   */\n  0xffffffffffffffff\n    /* \"#utility.yul\":3449:3455   */\n  dup2\n    /* \"#utility.yul\":3446:3476   */\n  gt\n    /* \"#utility.yul\":3443:3560   */\n  iszero\n  tag_73\n  jumpi\n    /* \"#utility.yul\":3479:3558   */\n  tag_74\n  tag_18\n  jump\t// in\ntag_74:\n    /* \"#utility.yul\":3443:3560   */\ntag_73:\n    /* \"#utility.yul\":3584:3673   */\n  tag_75\n    /* \"#utility.yul\":3665:3672   */\n  dup5\n    /* \"#utility.yul\":3656:3662   */\n  dup3\n    /* \"#utility.yul\":3645:3654   */\n  dup6\n    /* \"#utility.yul\":3641:3663   */\n  add\n    /* \"#utility.yul\":3584:3673   */\n  tag_30\n  jump\t// in\ntag_75:\n    /* \"#utility.yul\":3574:3673   */\n  swap2\n  pop\n    /* \"#utility.yul\":3377:3683   */\n  pop\n    /* \"#utility.yul\":3136:3690   */\n  swap3\n  swap2\n  pop\n  pop\n  jump\t// out\n    /* \"#utility.yul\":3696:3876   */\ntag_11:\n    /* \"#utility.yul\":3744:3821   */\n  0x4e487b7100000000000000000000000000000000000000000000000000000000\n    /* \"#utility.yul\":3741:3742   */\n  0x00\n    /* \"#utility.yul\":3734:3822   */\n  mstore\n    /* \"#utility.yul\":3841:3845   */\n  0x32\n    /* \"#utility.yul\":3838:3839   */\n  0x04\n    /* \"#utility.yul\":3831:3846   */\n  mstore\n    /* \"#utility.yul\":3865:3869   */\n  0x24\n    /* \"#utility.yul\":3862:3863   */\n  0x00\n    /* \"#utility.yul\":3855:3870   */\n  revert\n    /* \"#utility.yul\":3882:4062   */\ntag_31:\n    /* \"#utility.yul\":3930:4007   */\n  0x4e487b7100000000000000000000000000000000000000000000000000000000\n    /* \"#utility.yul\":3927:3928   */\n  0x00\n    /* \"#utility.yul\":3920:4008   */\n  mstore\n    /* \"#utility.yul\":4027:4031   */\n  0x11\n    /* \"#utility.yul\":4024:4025   */\n  0x04\n    /* \"#utility.yul\":4017:4032   */\n  mstore\n    /* \"#utility.yul\":4051:4055   */\n  0x24\n    /* \"#utility.yul\":4048:4049   */\n  0x00\n    /* \"#utility.yul\":4041:4056   */\n  revert\n    /* \"#utility.yul\":4068:4145   */\ntag_32:\n    /* \"#utility.yul\":4105:4112   */\n  0x00\n    /* \"#utility.yul\":4134:4139   */\n  dup2\n    /* \"#utility.yul\":4123:4139   */\n  swap1\n  pop\n    /* \"#utility.yul\":4068:4145   */\n  swap2\n  swap1\n  pop\n  jump\t// out\n    /* \"#utility.yul\":4151:4384   */\ntag_14:\n    /* \"#utility.yul\":4190:4193   */\n  0x00\n    /* \"#utility.yul\":4213:4237   */\n  tag_80\n    /* \"#utility.yul\":4231:4236   */\n  dup3\n    /* \"#utility.yul\":4213:4237   */\n  tag_32\n  jump\t// in\ntag_80:\n    /* \"#utility.yul\":4204:4237   */\n  swap2\n  pop\n    /* \"#utility.yul\":4259:4325   */\n  0xffffffffffffffffffffffffffffffffffffffffffffffffffffffffffffffff\n    /* \"#utility.yul\":4252:4257   */\n  dup3\n    /* \"#utility.yul\":4249:4326   */\n  sub\n    /* \"#utility.yul\":4246:4349   */\n  tag_81\n  jumpi\n    /* \"#utility.yul\":4329:4347   */\n  tag_82\n  tag_31\n  jump\t// in\ntag_82:\n    /* \"#utility.yul\":4246:4349   */\ntag_81:\n    /* \"#utility.yul\":4376:4377   */\n  0x01\n    /* \"#utility.yul\":4369:4374   */\n  dup3\n    /* \"#utility.yul\":4365:4378   */\n  add\n    /* \"#utility.yul\":4358:4378   */\n  swap1\n  pop\n    /* \"#utility.yul\":4151:4384   */\n  swap2\n  swap1\n  pop\n  jump\t// out\n    /* \"contracts/test1.sol\":66:2059  contract ElectiveSystem {... */\ntag_15:\n  dataSize(sub_0)\n  dup1\n  dataOffset(sub_0)\n  0x00\n  codecopy\n  0x00\n  return\nstop\n\nsub_0: assembly {\n        /* \"contracts/test1.sol\":66:2059  contract ElectiveSystem {... */\n      mstore(0x40, 0x80)\n      callvalue\n      dup1\n      iszero\n      tag_1\n      jumpi\n      0x00\n      dup1\n      revert\n    tag_1:\n      pop\n      jumpi(tag_2, lt(calldatasize, 0x04))\n      shr(0xe0, calldataload(0x00))\n      dup1\n      0x013cf08b\n      eq\n      tag_3\n      jumpi\n      dup1\n      0x24845194\n      eq\n      tag_4\n      jumpi\n      dup1\n      0x87f7b975\n      eq\n      tag_5\n      jumpi\n      dup1\n      0xa3ec138d\n      eq\n      tag_6\n      jumpi\n      dup1\n      0xab9cd997\n      eq\n      tag_7\n      jumpi\n    tag_2:\n      0x00\n      dup1\n      revert\n        /* \"contracts/test1.sol\":377:404  Proposal[] public proposals */\n    tag_3:\n      tag_8\n      0x04\n      dup1\n      calldatasize\n      sub\n      dup2\n      add\n      swap1\n      tag_9\n      swap2\n      swap1\n      tag_10\n      jump\t// in\n    tag_9:\n      tag_11\n      jump\t// in\n    tag_8:\n      mload(0x40)\n      tag_12\n      swap3\n      swap2\n      swap1\n      tag_13\n      jump\t// in\n    tag_12:\n      mload(0x40)\n      dup1\n      swap2\n      sub\n      swap1\n      return\n        /* \"contracts/test1.sol\":732:998  function giveAddressVote(address _to) public {... */\n    tag_4:\n      tag_14\n      0x04\n      dup1\n      calldatasize\n      sub\n      dup2\n      add\n      swap1\n      tag_15\n      swap2\n      swap1\n      tag_16\n      jump\t// in\n    tag_15:\n      tag_17\n      jump\t// in\n    tag_14:\n      stop\n        /* \"contracts/test1.sol\":96:119  address public chairman */\n    tag_5:\n      tag_18\n      tag_19\n      jump\t// in\n    tag_18:\n      mload(0x40)\n      tag_20\n      swap2\n      swap1\n      tag_21\n      jump\t// in\n    tag_20:\n      mload(0x40)\n      dup1\n      swap2\n      sub\n      swap1\n      return\n        /* \"contracts/test1.sol\":410:447  mapping(address=>Voter) public voters */\n    tag_6:\n      tag_22\n      0x04\n      dup1\n      calldatasize\n      sub\n      dup2\n      add\n      swap1\n      tag_23\n      swap2\n      swap1\n      tag_16\n      jump\t// in\n    tag_23:\n      tag_24\n      jump\t// in\n    tag_22:\n      mload(0x40)\n      tag_25\n      swap5\n      swap4\n      swap3\n      swap2\n      swap1\n      tag_26\n      jump\t// in\n    tag_25:\n      mload(0x40)\n      dup1\n      swap2\n      sub\n      swap1\n      return\n        /* \"contracts/test1.sol\":1005:2046  function entrust(address _to) public {... */\n    tag_7:\n      tag_27\n      0x04\n      dup1\n      calldatasize\n      sub\n      dup2\n      add\n      swap1\n      tag_28\n      swap2\n      swap1\n      tag_16\n      jump\t// in\n    tag_28:\n      tag_29\n      jump\t// in\n    tag_27:\n      stop\n        /* \"contracts/test1.sol\":377:404  Proposal[] public proposals */\n    tag_11:\n      0x01\n      dup2\n      dup2\n      sload\n      dup2\n      lt\n      tag_30\n      jumpi\n      0x00\n      dup1\n      revert\n    tag_30:\n      swap1\n      0x00\n      mstore\n      keccak256(0x00, 0x20)\n      swap1\n      0x02\n      mul\n      add\n      0x00\n      swap2\n      pop\n      swap1\n      pop\n      dup1\n      0x00\n      add\n      sload\n      swap1\n      dup1\n      0x01\n      add\n      sload\n      swap1\n      pop\n      dup3\n      jump\t// out\n        /* \"contracts/test1.sol\":732:998  function giveAddressVote(address _to) public {... */\n    tag_17:\n        /* \"contracts/test1.sol\":809:817  chairman */\n      0x00\n      dup1\n      sload\n      swap1\n      0x0100\n      exp\n      swap1\n      div\n      0xffffffffffffffffffffffffffffffffffffffff\n      and\n        /* \"contracts/test1.sol\":795:817  msg.sender == chairman */\n      0xffffffffffffffffffffffffffffffffffffffff\n      and\n        /* \"contracts/test1.sol\":795:805  msg.sender */\n      caller\n        /* \"contracts/test1.sol\":795:817  msg.sender == chairman */\n      0xffffffffffffffffffffffffffffffffffffffff\n      and\n      eq\n        /* \"contracts/test1.sol\":787:855  require(msg.sender == chairman, \"The caller is not the chairperson\") */\n      tag_33\n      jumpi\n      mload(0x40)\n      0x08c379a000000000000000000000000000000000000000000000000000000000\n      dup2\n      mstore\n      0x04\n      add\n      tag_34\n      swap1\n      tag_35\n      jump\t// in\n    tag_34:\n      mload(0x40)\n      dup1\n      swap2\n      sub\n      swap1\n      revert\n    tag_33:\n        /* \"contracts/test1.sol\":874:880  voters */\n      0x02\n        /* \"contracts/test1.sol\":874:885  voters[_to] */\n      0x00\n        /* \"contracts/test1.sol\":881:884  _to */\n      dup3\n        /* \"contracts/test1.sol\":874:885  voters[_to] */\n      0xffffffffffffffffffffffffffffffffffffffff\n      and\n      0xffffffffffffffffffffffffffffffffffffffff\n      and\n      dup2\n      mstore\n      0x20\n      add\n      swap1\n      dup2\n      mstore\n      0x20\n      add\n      0x00\n      keccak256\n        /* \"contracts/test1.sol\":874:891  voters[_to].voted */\n      0x01\n      add\n      0x14\n      swap1\n      sload\n      swap1\n      0x0100\n      exp\n      swap1\n      div\n      0xff\n      and\n        /* \"contracts/test1.sol\":873:891  !voters[_to].voted */\n      iszero\n        /* \"contracts/test1.sol\":865:903  require(!voters[_to].voted, \"to vote\") */\n      tag_36\n      jumpi\n      mload(0x40)\n      0x08c379a000000000000000000000000000000000000000000000000000000000\n      dup2\n      mstore\n      0x04\n      add\n      tag_37\n      swap1\n      tag_38\n      jump\t// in\n    tag_37:\n      mload(0x40)\n      dup1\n      swap2\n      sub\n      swap1\n      revert\n    tag_36:\n        /* \"contracts/test1.sol\":943:944  0 */\n      0x00\n        /* \"contracts/test1.sol\":921:927  voters */\n      0x02\n        /* \"contracts/test1.sol\":921:932  voters[_to] */\n      0x00\n        /* \"contracts/test1.sol\":928:931  _to */\n      dup4\n        /* \"contracts/test1.sol\":921:932  voters[_to] */\n      0xffffffffffffffffffffffffffffffffffffffff\n      and\n      0xffffffffffffffffffffffffffffffffffffffff\n      and\n      dup2\n      mstore\n      0x20\n      add\n      swap1\n      dup2\n      mstore\n      0x20\n      add\n      0x00\n      keccak256\n        /* \"contracts/test1.sol\":921:939  voters[_to].weight */\n      0x00\n      add\n      sload\n        /* \"contracts/test1.sol\":921:944  voters[_to].weight == 0 */\n      eq\n        /* \"contracts/test1.sol\":913:959  require(voters[_to].weight == 0, \"authorized\") */\n      tag_39\n      jumpi\n      mload(0x40)\n      0x08c379a000000000000000000000000000000000000000000000000000000000\n      dup2\n      mstore\n      0x04\n      add\n      tag_40\n      swap1\n      tag_41\n      jump\t// in\n    tag_40:\n      mload(0x40)\n      dup1\n      swap2\n      sub\n      swap1\n      revert\n    tag_39:\n        /* \"contracts/test1.sol\":990:991  1 */\n      0x01\n        /* \"contracts/test1.sol\":969:975  voters */\n      0x02\n        /* \"contracts/test1.sol\":969:980  voters[_to] */\n      0x00\n        /* \"contracts/test1.sol\":976:979  _to */\n      dup4\n        /* \"contracts/test1.sol\":969:980  voters[_to] */\n      0xffffffffffffffffffffffffffffffffffffffff\n      and\n      0xffffffffffffffffffffffffffffffffffffffff\n      and\n      dup2\n      mstore\n      0x20\n      add\n      swap1\n      dup2\n      mstore\n      0x20\n      add\n      0x00\n      keccak256\n        /* \"contracts/test1.sol\":969:987  voters[_to].weight */\n      0x00\n      add\n        /* \"contracts/test1.sol\":969:991  voters[_to].weight = 1 */\n      dup2\n      swap1\n      sstore\n      pop\n        /* \"contracts/test1.sol\":732:998  function giveAddressVote(address _to) public {... */\n      pop\n      jump\t// out\n        /* \"contracts/test1.sol\":96:119  address public chairman */\n    tag_19:\n      0x00\n      dup1\n      sload\n      swap1\n      0x0100\n      exp\n      swap1\n      div\n      0xffffffffffffffffffffffffffffffffffffffff\n      and\n      dup2\n      jump\t// out\n        /* \"contracts/test1.sol\":410:447  mapping(address=>Voter) public voters */\n    tag_24:\n      mstore(0x20, 0x02)\n      dup1\n      0x00\n      mstore\n      keccak256(0x00, 0x40)\n      0x00\n      swap2\n      pop\n      swap1\n      pop\n      dup1\n      0x00\n      add\n      sload\n      swap1\n      dup1\n      0x01\n      add\n      0x00\n      swap1\n      sload\n      swap1\n      0x0100\n      exp\n      swap1\n      div\n      0xffffffffffffffffffffffffffffffffffffffff\n      and\n      swap1\n      dup1\n      0x01\n      add\n      0x14\n      swap1\n      sload\n      swap1\n      0x0100\n      exp\n      swap1\n      div\n      0xff\n      and\n      swap1\n      dup1\n      0x02\n      add\n      sload\n      swap1\n      pop\n      dup5\n      jump\t// out\n        /* \"contracts/test1.sol\":1005:2046  function entrust(address _to) public {... */\n    tag_29:\n        /* \"contracts/test1.sol\":1117:1120  _to */\n      dup1\n        /* \"contracts/test1.sol\":1103:1120  msg.sender != _to */\n      0xffffffffffffffffffffffffffffffffffffffff\n      and\n        /* \"contracts/test1.sol\":1103:1113  msg.sender */\n      caller\n        /* \"contracts/test1.sol\":1103:1120  msg.sender != _to */\n      0xffffffffffffffffffffffffffffffffffffffff\n      and\n      sub\n        /* \"contracts/test1.sol\":1095:1156  require(msg.sender != _to, \"The entrusted person is himself\") */\n      tag_43\n      jumpi\n      mload(0x40)\n      0x08c379a000000000000000000000000000000000000000000000000000000000\n      dup2\n      mstore\n      0x04\n      add\n      tag_44\n      swap1\n      tag_45\n      jump\t// in\n    tag_44:\n      mload(0x40)\n      dup1\n      swap2\n      sub\n      swap1\n      revert\n    tag_43:\n        /* \"contracts/test1.sol\":1275:1407  while (voters[_to].trustee != address(0)){... */\n    tag_46:\n        /* \"contracts/test1.sol\":1313:1314  0 */\n      0x00\n        /* \"contracts/test1.sol\":1282:1315  voters[_to].trustee != address(0) */\n      0xffffffffffffffffffffffffffffffffffffffff\n      and\n        /* \"contracts/test1.sol\":1282:1288  voters */\n      0x02\n        /* \"contracts/test1.sol\":1282:1293  voters[_to] */\n      0x00\n        /* \"contracts/test1.sol\":1289:1292  _to */\n      dup4\n        /* \"contracts/test1.sol\":1282:1293  voters[_to] */\n      0xffffffffffffffffffffffffffffffffffffffff\n      and\n      0xffffffffffffffffffffffffffffffffffffffff\n      and\n      dup2\n      mstore\n      0x20\n      add\n      swap1\n      dup2\n      mstore\n      0x20\n      add\n      0x00\n      keccak256\n        /* \"contracts/test1.sol\":1282:1301  voters[_to].trustee */\n      0x01\n      add\n      0x00\n      swap1\n      sload\n      swap1\n      0x0100\n      exp\n      swap1\n      div\n      0xffffffffffffffffffffffffffffffffffffffff\n      and\n        /* \"contracts/test1.sol\":1282:1315  voters[_to].trustee != address(0) */\n      0xffffffffffffffffffffffffffffffffffffffff\n      and\n      eq\n        /* \"contracts/test1.sol\":1275:1407  while (voters[_to].trustee != address(0)){... */\n      tag_47\n      jumpi\n        /* \"contracts/test1.sol\":1361:1371  msg.sender */\n      caller\n        /* \"contracts/test1.sol\":1338:1371  voters[_to].trustee != msg.sender */\n      0xffffffffffffffffffffffffffffffffffffffff\n      and\n        /* \"contracts/test1.sol\":1338:1344  voters */\n      0x02\n        /* \"contracts/test1.sol\":1338:1349  voters[_to] */\n      0x00\n        /* \"contracts/test1.sol\":1345:1348  _to */\n      dup4\n        /* \"contracts/test1.sol\":1338:1349  voters[_to] */\n      0xffffffffffffffffffffffffffffffffffffffff\n      and\n      0xffffffffffffffffffffffffffffffffffffffff\n      and\n      dup2\n      mstore\n      0x20\n      add\n      swap1\n      dup2\n      mstore\n      0x20\n      add\n      0x00\n      keccak256\n        /* \"contracts/test1.sol\":1338:1357  voters[_to].trustee */\n      0x01\n      add\n      0x00\n      swap1\n      sload\n      swap1\n      0x0100\n      exp\n      swap1\n      div\n      0xffffffffffffffffffffffffffffffffffffffff\n      and\n        /* \"contracts/test1.sol\":1338:1371  voters[_to].trustee != msg.sender */\n      0xffffffffffffffffffffffffffffffffffffffff\n      and\n      sub\n        /* \"contracts/test1.sol\":1330:1396  require(voters[_to].trustee != msg.sender,\"Delegated closed loop\") */\n      tag_48\n      jumpi\n      mload(0x40)\n      0x08c379a000000000000000000000000000000000000000000000000000000000\n      dup2\n      mstore\n      0x04\n      add\n      tag_49\n      swap1\n      tag_50\n      jump\t// in\n    tag_49:\n      mload(0x40)\n      dup1\n      swap2\n      sub\n      swap1\n      revert\n    tag_48:\n        /* \"contracts/test1.sol\":1275:1407  while (voters[_to].trustee != address(0)){... */\n      jump(tag_46)\n    tag_47:\n        /* \"contracts/test1.sol\":1462:1468  voters */\n      0x02\n        /* \"contracts/test1.sol\":1462:1480  voters[msg.sender] */\n      0x00\n        /* \"contracts/test1.sol\":1469:1479  msg.sender */\n      caller\n        /* \"contracts/test1.sol\":1462:1480  voters[msg.sender] */\n      0xffffffffffffffffffffffffffffffffffffffff\n      and\n      0xffffffffffffffffffffffffffffffffffffffff\n      and\n      dup2\n      mstore\n      0x20\n      add\n      swap1\n      dup2\n      mstore\n      0x20\n      add\n      0x00\n      keccak256\n        /* \"contracts/test1.sol\":1462:1486  voters[msg.sender].voted */\n      0x01\n      add\n      0x14\n      swap1\n      sload\n      swap1\n      0x0100\n      exp\n      swap1\n      div\n      0xff\n      and\n        /* \"contracts/test1.sol\":1461:1486  !voters[msg.sender].voted */\n      iszero\n        /* \"contracts/test1.sol\":1453:1507  require(!voters[msg.sender].voted, \"caller has voted\") */\n      tag_51\n      jumpi\n      mload(0x40)\n      0x08c379a000000000000000000000000000000000000000000000000000000000\n      dup2\n      mstore\n      0x04\n      add\n      tag_52\n      swap1\n      tag_53\n      jump\t// in\n    tag_52:\n      mload(0x40)\n      dup1\n      swap2\n      sub\n      swap1\n      revert\n    tag_51:\n        /* \"contracts/test1.sol\":1592:1593  0 */\n      0x00\n        /* \"contracts/test1.sol\":1563:1569  voters */\n      0x02\n        /* \"contracts/test1.sol\":1563:1581  voters[msg.sender] */\n      0x00\n        /* \"contracts/test1.sol\":1570:1580  msg.sender */\n      caller\n        /* \"contracts/test1.sol\":1563:1581  voters[msg.sender] */\n      0xffffffffffffffffffffffffffffffffffffffff\n      and\n      0xffffffffffffffffffffffffffffffffffffffff\n      and\n      dup2\n      mstore\n      0x20\n      add\n      swap1\n      dup2\n      mstore\n      0x20\n      add\n      0x00\n      keccak256\n        /* \"contracts/test1.sol\":1563:1588  voters[msg.sender].weight */\n      0x00\n      add\n      sload\n        /* \"contracts/test1.sol\":1563:1593  voters[msg.sender].weight != 0 */\n      sub\n        /* \"contracts/test1.sol\":1555:1636  require(voters[msg.sender].weight != 0, \"The caller does not have voting rights\") */\n      tag_54\n      jumpi\n      mload(0x40)\n      0x08c379a000000000000000000000000000000000000000000000000000000000\n      dup2\n      mstore\n      0x04\n      add\n      tag_55\n      swap1\n      tag_56\n      jump\t// in\n    tag_55:\n      mload(0x40)\n      dup1\n      swap2\n      sub\n      swap1\n      revert\n    tag_54:\n        /* \"contracts/test1.sol\":1715:1716  0 */\n      0x00\n        /* \"contracts/test1.sol\":1700:1717  _to != address(0) */\n      0xffffffffffffffffffffffffffffffffffffffff\n      and\n        /* \"contracts/test1.sol\":1700:1703  _to */\n      dup2\n        /* \"contracts/test1.sol\":1700:1717  _to != address(0) */\n      0xffffffffffffffffffffffffffffffffffffffff\n      and\n      sub\n        /* \"contracts/test1.sol\":1692:1754  require(_to != address(0), \"The entrusted address is illegal\") */\n      tag_57\n      jumpi\n      mload(0x40)\n      0x08c379a000000000000000000000000000000000000000000000000000000000\n      dup2\n      mstore\n      0x04\n      add\n      tag_58\n      swap1\n      tag_59\n      jump\t// in\n    tag_58:\n      mload(0x40)\n      dup1\n      swap2\n      sub\n      swap1\n      revert\n    tag_57:\n        /* \"contracts/test1.sol\":1794:1797  _to */\n      dup1\n        /* \"contracts/test1.sol\":1765:1771  voters */\n      0x02\n        /* \"contracts/test1.sol\":1765:1783  voters[msg.sender] */\n      0x00\n        /* \"contracts/test1.sol\":1772:1782  msg.sender */\n      caller\n        /* \"contracts/test1.sol\":1765:1783  voters[msg.sender] */\n      0xffffffffffffffffffffffffffffffffffffffff\n      and\n      0xffffffffffffffffffffffffffffffffffffffff\n      and\n      dup2\n      mstore\n      0x20\n      add\n      swap1\n      dup2\n      mstore\n      0x20\n      add\n      0x00\n      keccak256\n        /* \"contracts/test1.sol\":1765:1791  voters[msg.sender].trustee */\n      0x01\n      add\n      0x00\n        /* \"contracts/test1.sol\":1765:1797  voters[msg.sender].trustee = _to */\n      0x0100\n      exp\n      dup2\n      sload\n      dup2\n      0xffffffffffffffffffffffffffffffffffffffff\n      mul\n      not\n      and\n      swap1\n      dup4\n      0xffffffffffffffffffffffffffffffffffffffff\n      and\n      mul\n      or\n      swap1\n      sstore\n      pop\n        /* \"contracts/test1.sol\":1836:1837  0 */\n      0x00\n        /* \"contracts/test1.sol\":1808:1814  voters */\n      0x02\n        /* \"contracts/test1.sol\":1808:1826  voters[msg.sender] */\n      0x00\n        /* \"contracts/test1.sol\":1815:1825  msg.sender */\n      caller\n        /* \"contracts/test1.sol\":1808:1826  voters[msg.sender] */\n      0xffffffffffffffffffffffffffffffffffffffff\n      and\n      0xffffffffffffffffffffffffffffffffffffffff\n      and\n      dup2\n      mstore\n      0x20\n      add\n      swap1\n      dup2\n      mstore\n      0x20\n      add\n      0x00\n      keccak256\n        /* \"contracts/test1.sol\":1808:1833  voters[msg.sender].weight */\n      0x00\n      add\n        /* \"contracts/test1.sol\":1808:1837  voters[msg.sender].weight = 0 */\n      dup2\n      swap1\n      sstore\n      pop\n        /* \"contracts/test1.sol\":1874:1878  true */\n      0x01\n        /* \"contracts/test1.sol\":1847:1853  voters */\n      0x02\n        /* \"contracts/test1.sol\":1847:1865  voters[msg.sender] */\n      0x00\n        /* \"contracts/test1.sol\":1854:1864  msg.sender */\n      caller\n        /* \"contracts/test1.sol\":1847:1865  voters[msg.sender] */\n      0xffffffffffffffffffffffffffffffffffffffff\n      and\n      0xffffffffffffffffffffffffffffffffffffffff\n      and\n      dup2\n      mstore\n      0x20\n      add\n      swap1\n      dup2\n      mstore\n      0x20\n      add\n      0x00\n      keccak256\n        /* \"contracts/test1.sol\":1847:1871  voters[msg.sender].voted */\n      0x01\n      add\n      0x14\n        /* \"contracts/test1.sol\":1847:1878  voters[msg.sender].voted = true */\n      0x0100\n      exp\n      dup2\n      sload\n      dup2\n      0xff\n      mul\n      not\n      and\n      swap1\n      dup4\n      iszero\n      iszero\n      mul\n      or\n      swap1\n      sstore\n      pop\n        /* \"contracts/test1.sol\":1893:1899  voters */\n      0x02\n        /* \"contracts/test1.sol\":1893:1904  voters[_to] */\n      0x00\n        /* \"contracts/test1.sol\":1900:1903  _to */\n      dup3\n        /* \"contracts/test1.sol\":1893:1904  voters[_to] */\n      0xffffffffffffffffffffffffffffffffffffffff\n      and\n      0xffffffffffffffffffffffffffffffffffffffff\n      and\n      dup2\n      mstore\n      0x20\n      add\n      swap1\n      dup2\n      mstore\n      0x20\n      add\n      0x00\n      keccak256\n        /* \"contracts/test1.sol\":1893:1910  voters[_to].voted */\n      0x01\n      add\n      0x14\n      swap1\n      sload\n      swap1\n      0x0100\n      exp\n      swap1\n      div\n      0xff\n      and\n        /* \"contracts/test1.sol\":1889:2038  if (voters[_to].voted){... */\n      iszero\n      tag_60\n      jumpi\n        /* \"contracts/test1.sol\":1972:1973  1 */\n      0x01\n        /* \"contracts/test1.sol\":1925:1934  proposals */\n      dup1\n        /* \"contracts/test1.sol\":1935:1941  voters */\n      0x02\n        /* \"contracts/test1.sol\":1935:1946  voters[_to] */\n      0x00\n        /* \"contracts/test1.sol\":1942:1945  _to */\n      dup5\n        /* \"contracts/test1.sol\":1935:1946  voters[_to] */\n      0xffffffffffffffffffffffffffffffffffffffff\n      and\n      0xffffffffffffffffffffffffffffffffffffffff\n      and\n      dup2\n      mstore\n      0x20\n      add\n      swap1\n      dup2\n      mstore\n      0x20\n      add\n      0x00\n      keccak256\n        /* \"contracts/test1.sol\":1935:1957  voters[_to].ballotIdex */\n      0x02\n      add\n      sload\n        /* \"contracts/test1.sol\":1925:1958  proposals[voters[_to].ballotIdex] */\n      dup2\n      sload\n      dup2\n      lt\n      tag_61\n      jumpi\n      tag_62\n      tag_63\n      jump\t// in\n    tag_62:\n    tag_61:\n      swap1\n      0x00\n      mstore\n      keccak256(0x00, 0x20)\n      swap1\n      0x02\n      mul\n      add\n        /* \"contracts/test1.sol\":1925:1968  proposals[voters[_to].ballotIdex].ticketNum */\n      0x01\n      add\n      0x00\n        /* \"contracts/test1.sol\":1925:1973  proposals[voters[_to].ballotIdex].ticketNum += 1 */\n      dup3\n      dup3\n      sload\n      tag_65\n      swap2\n      swap1\n      tag_66\n      jump\t// in\n    tag_65:\n      swap3\n      pop\n      pop\n      dup2\n      swap1\n      sstore\n      pop\n        /* \"contracts/test1.sol\":1889:2038  if (voters[_to].voted){... */\n      jump(tag_67)\n    tag_60:\n        /* \"contracts/test1.sol\":2026:2027  1 */\n      0x01\n        /* \"contracts/test1.sol\":2004:2010  voters */\n      0x02\n        /* \"contracts/test1.sol\":2004:2015  voters[_to] */\n      0x00\n        /* \"contracts/test1.sol\":2011:2014  _to */\n      dup4\n        /* \"contracts/test1.sol\":2004:2015  voters[_to] */\n      0xffffffffffffffffffffffffffffffffffffffff\n      and\n      0xffffffffffffffffffffffffffffffffffffffff\n      and\n      dup2\n      mstore\n      0x20\n      add\n      swap1\n      dup2\n      mstore\n      0x20\n      add\n      0x00\n      keccak256\n        /* \"contracts/test1.sol\":2004:2022  voters[_to].weight */\n      0x00\n      add\n      0x00\n        /* \"contracts/test1.sol\":2004:2027  voters[_to].weight += 1 */\n      dup3\n      dup3\n      sload\n      tag_68\n      swap2\n      swap1\n      tag_66\n      jump\t// in\n    tag_68:\n      swap3\n      pop\n      pop\n      dup2\n      swap1\n      sstore\n      pop\n        /* \"contracts/test1.sol\":1889:2038  if (voters[_to].voted){... */\n    tag_67:\n        /* \"contracts/test1.sol\":1005:2046  function entrust(address _to) public {... */\n      pop\n      jump\t// out\n        /* \"#utility.yul\":88:205   */\n    tag_70:\n        /* \"#utility.yul\":197:198   */\n      0x00\n        /* \"#utility.yul\":194:195   */\n      dup1\n        /* \"#utility.yul\":187:199   */\n      revert\n        /* \"#utility.yul\":334:411   */\n    tag_72:\n        /* \"#utility.yul\":371:378   */\n      0x00\n        /* \"#utility.yul\":400:405   */\n      dup2\n        /* \"#utility.yul\":389:405   */\n      swap1\n      pop\n        /* \"#utility.yul\":334:411   */\n      swap2\n      swap1\n      pop\n      jump\t// out\n        /* \"#utility.yul\":417:539   */\n    tag_73:\n        /* \"#utility.yul\":490:514   */\n      tag_109\n        /* \"#utility.yul\":508:513   */\n      dup2\n        /* \"#utility.yul\":490:514   */\n      tag_72\n      jump\t// in\n    tag_109:\n        /* \"#utility.yul\":483:488   */\n      dup2\n        /* \"#utility.yul\":480:515   */\n      eq\n        /* \"#utility.yul\":470:533   */\n      tag_110\n      jumpi\n        /* \"#utility.yul\":529:530   */\n      0x00\n        /* \"#utility.yul\":526:527   */\n      dup1\n        /* \"#utility.yul\":519:531   */\n      revert\n        /* \"#utility.yul\":470:533   */\n    tag_110:\n        /* \"#utility.yul\":417:539   */\n      pop\n      jump\t// out\n        /* \"#utility.yul\":545:684   */\n    tag_74:\n        /* \"#utility.yul\":591:596   */\n      0x00\n        /* \"#utility.yul\":629:635   */\n      dup2\n        /* \"#utility.yul\":616:636   */\n      calldataload\n        /* \"#utility.yul\":607:636   */\n      swap1\n      pop\n        /* \"#utility.yul\":645:678   */\n      tag_112\n        /* \"#utility.yul\":672:677   */\n      dup2\n        /* \"#utility.yul\":645:678   */\n      tag_73\n      jump\t// in\n    tag_112:\n        /* \"#utility.yul\":545:684   */\n      swap3\n      swap2\n      pop\n      pop\n      jump\t// out\n        /* \"#utility.yul\":690:1019   */\n    tag_10:\n        /* \"#utility.yul\":749:755   */\n      0x00\n        /* \"#utility.yul\":798:800   */\n      0x20\n        /* \"#utility.yul\":786:795   */\n      dup3\n        /* \"#utility.yul\":777:784   */\n      dup5\n        /* \"#utility.yul\":773:796   */\n      sub\n        /* \"#utility.yul\":769:801   */\n      slt\n        /* \"#utility.yul\":766:885   */\n      iszero\n      tag_114\n      jumpi\n        /* \"#utility.yul\":804:883   */\n      tag_115\n      tag_70\n      jump\t// in\n    tag_115:\n        /* \"#utility.yul\":766:885   */\n    tag_114:\n        /* \"#utility.yul\":924:925   */\n      0x00\n        /* \"#utility.yul\":949:1002   */\n      tag_116\n        /* \"#utility.yul\":994:1001   */\n      dup5\n        /* \"#utility.yul\":985:991   */\n      dup3\n        /* \"#utility.yul\":974:983   */\n      dup6\n        /* \"#utility.yul\":970:992   */\n      add\n        /* \"#utility.yul\":949:1002   */\n      tag_74\n      jump\t// in\n    tag_116:\n        /* \"#utility.yul\":939:1002   */\n      swap2\n      pop\n        /* \"#utility.yul\":895:1012   */\n      pop\n        /* \"#utility.yul\":690:1019   */\n      swap3\n      swap2\n      pop\n      pop\n      jump\t// out\n        /* \"#utility.yul\":1025:1102   */\n    tag_75:\n        /* \"#utility.yul\":1062:1069   */\n      0x00\n        /* \"#utility.yul\":1091:1096   */\n      dup2\n        /* \"#utility.yul\":1080:1096   */\n      swap1\n      pop\n        /* \"#utility.yul\":1025:1102   */\n      swap2\n      swap1\n      pop\n      jump\t// out\n        /* \"#utility.yul\":1108:1226   */\n    tag_76:\n        /* \"#utility.yul\":1195:1219   */\n      tag_119\n        /* \"#utility.yul\":1213:1218   */\n      dup2\n        /* \"#utility.yul\":1195:1219   */\n      tag_75\n      jump\t// in\n    tag_119:\n        /* \"#utility.yul\":1190:1193   */\n      dup3\n        /* \"#utility.yul\":1183:1220   */\n      mstore\n        /* \"#utility.yul\":1108:1226   */\n      pop\n      pop\n      jump\t// out\n        /* \"#utility.yul\":1232:1350   */\n    tag_77:\n        /* \"#utility.yul\":1319:1343   */\n      tag_121\n        /* \"#utility.yul\":1337:1342   */\n      dup2\n        /* \"#utility.yul\":1319:1343   */\n      tag_72\n      jump\t// in\n    tag_121:\n        /* \"#utility.yul\":1314:1317   */\n      dup3\n        /* \"#utility.yul\":1307:1344   */\n      mstore\n        /* \"#utility.yul\":1232:1350   */\n      pop\n      pop\n      jump\t// out\n        /* \"#utility.yul\":1356:1688   */\n    tag_13:\n        /* \"#utility.yul\":1477:1481   */\n      0x00\n        /* \"#utility.yul\":1515:1517   */\n      0x40\n        /* \"#utility.yul\":1504:1513   */\n      dup3\n        /* \"#utility.yul\":1500:1518   */\n      add\n        /* \"#utility.yul\":1492:1518   */\n      swap1\n      pop\n        /* \"#utility.yul\":1528:1599   */\n      tag_123\n        /* \"#utility.yul\":1596:1597   */\n      0x00\n        /* \"#utility.yul\":1585:1594   */\n      dup4\n        /* \"#utility.yul\":1581:1598   */\n      add\n        /* \"#utility.yul\":1572:1578   */\n      dup6\n        /* \"#utility.yul\":1528:1599   */\n      tag_76\n      jump\t// in\n    tag_123:\n        /* \"#utility.yul\":1609:1681   */\n      tag_124\n        /* \"#utility.yul\":1677:1679   */\n      0x20\n        /* \"#utility.yul\":1666:1675   */\n      dup4\n        /* \"#utility.yul\":1662:1680   */\n      add\n        /* \"#utility.yul\":1653:1659   */\n      dup5\n        /* \"#utility.yul\":1609:1681   */\n      tag_77\n      jump\t// in\n    tag_124:\n        /* \"#utility.yul\":1356:1688   */\n      swap4\n      swap3\n      pop\n      pop\n      pop\n      jump\t// out\n        /* \"#utility.yul\":1694:1820   */\n    tag_78:\n        /* \"#utility.yul\":1731:1738   */\n      0x00\n        /* \"#utility.yul\":1771:1813   */\n      0xffffffffffffffffffffffffffffffffffffffff\n        /* \"#utility.yul\":1764:1769   */\n      dup3\n        /* \"#utility.yul\":1760:1814   */\n      and\n        /* \"#utility.yul\":1749:1814   */\n      swap1\n      pop\n        /* \"#utility.yul\":1694:1820   */\n      swap2\n      swap1\n      pop\n      jump\t// out\n        /* \"#utility.yul\":1826:1922   */\n    tag_79:\n        /* \"#utility.yul\":1863:1870   */\n      0x00\n        /* \"#utility.yul\":1892:1916   */\n      tag_127\n        /* \"#utility.yul\":1910:1915   */\n      dup3\n        /* \"#utility.yul\":1892:1916   */\n      tag_78\n      jump\t// in\n    tag_127:\n        /* \"#utility.yul\":1881:1916   */\n      swap1\n      pop\n        /* \"#utility.yul\":1826:1922   */\n      swap2\n      swap1\n      pop\n      jump\t// out\n        /* \"#utility.yul\":1928:2050   */\n    tag_80:\n        /* \"#utility.yul\":2001:2025   */\n      tag_129\n        /* \"#utility.yul\":2019:2024   */\n      dup2\n        /* \"#utility.yul\":2001:2025   */\n      tag_79\n      jump\t// in\n    tag_129:\n        /* \"#utility.yul\":1994:1999   */\n      dup2\n        /* \"#utility.yul\":1991:2026   */\n      eq\n        /* \"#utility.yul\":1981:2044   */\n      tag_130\n      jumpi\n        /* \"#utility.yul\":2040:2041   */\n      0x00\n        /* \"#utility.yul\":2037:2038   */\n      dup1\n        /* \"#utility.yul\":2030:2042   */\n      revert\n        /* \"#utility.yul\":1981:2044   */\n    tag_130:\n        /* \"#utility.yul\":1928:2050   */\n      pop\n      jump\t// out\n        /* \"#utility.yul\":2056:2195   */\n    tag_81:\n        /* \"#utility.yul\":2102:2107   */\n      0x00\n        /* \"#utility.yul\":2140:2146   */\n      dup2\n        /* \"#utility.yul\":2127:2147   */\n      calldataload\n        /* \"#utility.yul\":2118:2147   */\n      swap1\n      pop\n        /* \"#utility.yul\":2156:2189   */\n      tag_132\n        /* \"#utility.yul\":2183:2188   */\n      dup2\n        /* \"#utility.yul\":2156:2189   */\n      tag_80\n      jump\t// in\n    tag_132:\n        /* \"#utility.yul\":2056:2195   */\n      swap3\n      swap2\n      pop\n      pop\n      jump\t// out\n        /* \"#utility.yul\":2201:2530   */\n    tag_16:\n        /* \"#utility.yul\":2260:2266   */\n      0x00\n        /* \"#utility.yul\":2309:2311   */\n      0x20\n        /* \"#utility.yul\":2297:2306   */\n      dup3\n        /* \"#utility.yul\":2288:2295   */\n      dup5\n        /* \"#utility.yul\":2284:2307   */\n      sub\n        /* \"#utility.yul\":2280:2312   */\n      slt\n        /* \"#utility.yul\":2277:2396   */\n      iszero\n      tag_134\n      jumpi\n        /* \"#utility.yul\":2315:2394   */\n      tag_135\n      tag_70\n      jump\t// in\n    tag_135:\n        /* \"#utility.yul\":2277:2396   */\n    tag_134:\n        /* \"#utility.yul\":2435:2436   */\n      0x00\n        /* \"#utility.yul\":2460:2513   */\n      tag_136\n        /* \"#utility.yul\":2505:2512   */\n      dup5\n        /* \"#utility.yul\":2496:2502   */\n      dup3\n        /* \"#utility.yul\":2485:2494   */\n      dup6\n        /* \"#utility.yul\":2481:2503   */\n      add\n        /* \"#utility.yul\":2460:2513   */\n      tag_81\n      jump\t// in\n    tag_136:\n        /* \"#utility.yul\":2450:2513   */\n      swap2\n      pop\n        /* \"#utility.yul\":2406:2523   */\n      pop\n        /* \"#utility.yul\":2201:2530   */\n      swap3\n      swap2\n      pop\n      pop\n      jump\t// out\n        /* \"#utility.yul\":2536:2654   */\n    tag_82:\n        /* \"#utility.yul\":2623:2647   */\n      tag_138\n        /* \"#utility.yul\":2641:2646   */\n      dup2\n        /* \"#utility.yul\":2623:2647   */\n      tag_79\n      jump\t// in\n    tag_138:\n        /* \"#utility.yul\":2618:2621   */\n      dup3\n        /* \"#utility.yul\":2611:2648   */\n      mstore\n        /* \"#utility.yul\":2536:2654   */\n      pop\n      pop\n      jump\t// out\n        /* \"#utility.yul\":2660:2882   */\n    tag_21:\n        /* \"#utility.yul\":2753:2757   */\n      0x00\n        /* \"#utility.yul\":2791:2793   */\n      0x20\n        /* \"#utility.yul\":2780:2789   */\n      dup3\n        /* \"#utility.yul\":2776:2794   */\n      add\n        /* \"#utility.yul\":2768:2794   */\n      swap1\n      pop\n        /* \"#utility.yul\":2804:2875   */\n      tag_140\n        /* \"#utility.yul\":2872:2873   */\n      0x00\n        /* \"#utility.yul\":2861:2870   */\n      dup4\n        /* \"#utility.yul\":2857:2874   */\n      add\n        /* \"#utility.yul\":2848:2854   */\n      dup5\n        /* \"#utility.yul\":2804:2875   */\n      tag_82\n      jump\t// in\n    tag_140:\n        /* \"#utility.yul\":2660:2882   */\n      swap3\n      swap2\n      pop\n      pop\n      jump\t// out\n        /* \"#utility.yul\":2888:2978   */\n    tag_83:\n        /* \"#utility.yul\":2922:2929   */\n      0x00\n        /* \"#utility.yul\":2965:2970   */\n      dup2\n        /* \"#utility.yul\":2958:2971   */\n      iszero\n        /* \"#utility.yul\":2951:2972   */\n      iszero\n        /* \"#utility.yul\":2940:2972   */\n      swap1\n      pop\n        /* \"#utility.yul\":2888:2978   */\n      swap2\n      swap1\n      pop\n      jump\t// out\n        /* \"#utility.yul\":2984:3093   */\n    tag_84:\n        /* \"#utility.yul\":3065:3086   */\n      tag_143\n        /* \"#utility.yul\":3080:3085   */\n      dup2\n        /* \"#utility.yul\":3065:3086   */\n      tag_83\n      jump\t// in\n    tag_143:\n        /* \"#utility.yul\":3060:3063   */\n      dup3\n        /* \"#utility.yul\":3053:3087   */\n      mstore\n        /* \"#utility.yul\":2984:3093   */\n      pop\n      pop\n      jump\t// out\n        /* \"#utility.yul\":3099:3640   */\n    tag_26:\n        /* \"#utility.yul\":3270:3274   */\n      0x00\n        /* \"#utility.yul\":3308:3311   */\n      0x80\n        /* \"#utility.yul\":3297:3306   */\n      dup3\n        /* \"#utility.yul\":3293:3312   */\n      add\n        /* \"#utility.yul\":3285:3312   */\n      swap1\n      pop\n        /* \"#utility.yul\":3322:3393   */\n      tag_145\n        /* \"#utility.yul\":3390:3391   */\n      0x00\n        /* \"#utility.yul\":3379:3388   */\n      dup4\n        /* \"#utility.yul\":3375:3392   */\n      add\n        /* \"#utility.yul\":3366:3372   */\n      dup8\n        /* \"#utility.yul\":3322:3393   */\n      tag_77\n      jump\t// in\n    tag_145:\n        /* \"#utility.yul\":3403:3475   */\n      tag_146\n        /* \"#utility.yul\":3471:3473   */\n      0x20\n        /* \"#utility.yul\":3460:3469   */\n      dup4\n        /* \"#utility.yul\":3456:3474   */\n      add\n        /* \"#utility.yul\":3447:3453   */\n      dup7\n        /* \"#utility.yul\":3403:3475   */\n      tag_82\n      jump\t// in\n    tag_146:\n        /* \"#utility.yul\":3485:3551   */\n      tag_147\n        /* \"#utility.yul\":3547:3549   */\n      0x40\n        /* \"#utility.yul\":3536:3545   */\n      dup4\n        /* \"#utility.yul\":3532:3550   */\n      add\n        /* \"#utility.yul\":3523:3529   */\n      dup6\n        /* \"#utility.yul\":3485:3551   */\n      tag_84\n      jump\t// in\n    tag_147:\n        /* \"#utility.yul\":3561:3633   */\n      tag_148\n        /* \"#utility.yul\":3629:3631   */\n      0x60\n        /* \"#utility.yul\":3618:3627   */\n      dup4\n        /* \"#utility.yul\":3614:3632   */\n      add\n        /* \"#utility.yul\":3605:3611   */\n      dup5\n        /* \"#utility.yul\":3561:3633   */\n      tag_77\n      jump\t// in\n    tag_148:\n        /* \"#utility.yul\":3099:3640   */\n      swap6\n      swap5\n      pop\n      pop\n      pop\n      pop\n      pop\n      jump\t// out\n        /* \"#utility.yul\":3646:3815   */\n    tag_85:\n        /* \"#utility.yul\":3730:3741   */\n      0x00\n        /* \"#utility.yul\":3764:3770   */\n      dup3\n        /* \"#utility.yul\":3759:3762   */\n      dup3\n        /* \"#utility.yul\":3752:3771   */\n      mstore\n        /* \"#utility.yul\":3804:3808   */\n      0x20\n        /* \"#utility.yul\":3799:3802   */\n      dup3\n        /* \"#utility.yul\":3795:3809   */\n      add\n        /* \"#utility.yul\":3780:3809   */\n      swap1\n      pop\n        /* \"#utility.yul\":3646:3815   */\n      swap3\n      swap2\n      pop\n      pop\n      jump\t// out\n        /* \"#utility.yul\":3821:4041   */\n    tag_86:\n        /* \"#utility.yul\":3961:3995   */\n      0x5468652063616c6c6572206973206e6f7420746865206368616972706572736f\n        /* \"#utility.yul\":3957:3958   */\n      0x00\n        /* \"#utility.yul\":3949:3955   */\n      dup3\n        /* \"#utility.yul\":3945:3959   */\n      add\n        /* \"#utility.yul\":3938:3996   */\n      mstore\n        /* \"#utility.yul\":4030:4033   */\n      0x6e00000000000000000000000000000000000000000000000000000000000000\n        /* \"#utility.yul\":4025:4027   */\n      0x20\n        /* \"#utility.yul\":4017:4023   */\n      dup3\n        /* \"#utility.yul\":4013:4028   */\n      add\n        /* \"#utility.yul\":4006:4034   */\n      mstore\n        /* \"#utility.yul\":3821:4041   */\n      pop\n      jump\t// out\n        /* \"#utility.yul\":4047:4413   */\n    tag_87:\n        /* \"#utility.yul\":4189:4192   */\n      0x00\n        /* \"#utility.yul\":4210:4277   */\n      tag_152\n        /* \"#utility.yul\":4274:4276   */\n      0x21\n        /* \"#utility.yul\":4269:4272   */\n      dup4\n        /* \"#utility.yul\":4210:4277   */\n      tag_85\n      jump\t// in\n    tag_152:\n        /* \"#utility.yul\":4203:4277   */\n      swap2\n      pop\n        /* \"#utility.yul\":4286:4379   */\n      tag_153\n        /* \"#utility.yul\":4375:4378   */\n      dup3\n        /* \"#utility.yul\":4286:4379   */\n      tag_86\n      jump\t// in\n    tag_153:\n        /* \"#utility.yul\":4404:4406   */\n      0x40\n        /* \"#utility.yul\":4399:4402   */\n      dup3\n        /* \"#utility.yul\":4395:4407   */\n      add\n        /* \"#utility.yul\":4388:4407   */\n      swap1\n      pop\n        /* \"#utility.yul\":4047:4413   */\n      swap2\n      swap1\n      pop\n      jump\t// out\n        /* \"#utility.yul\":4419:4838   */\n    tag_35:\n        /* \"#utility.yul\":4585:4589   */\n      0x00\n        /* \"#utility.yul\":4623:4625   */\n      0x20\n        /* \"#utility.yul\":4612:4621   */\n      dup3\n        /* \"#utility.yul\":4608:4626   */\n      add\n        /* \"#utility.yul\":4600:4626   */\n      swap1\n      pop\n        /* \"#utility.yul\":4672:4681   */\n      dup2\n        /* \"#utility.yul\":4666:4670   */\n      dup2\n        /* \"#utility.yul\":4662:4682   */\n      sub\n        /* \"#utility.yul\":4658:4659   */\n      0x00\n        /* \"#utility.yul\":4647:4656   */\n      dup4\n        /* \"#utility.yul\":4643:4660   */\n      add\n        /* \"#utility.yul\":4636:4683   */\n      mstore\n        /* \"#utility.yul\":4700:4831   */\n      tag_155\n        /* \"#utility.yul\":4826:4830   */\n      dup2\n        /* \"#utility.yul\":4700:4831   */\n      tag_87\n      jump\t// in\n    tag_155:\n        /* \"#utility.yul\":4692:4831   */\n      swap1\n      pop\n        /* \"#utility.yul\":4419:4838   */\n      swap2\n      swap1\n      pop\n      jump\t// out\n        /* \"#utility.yul\":4844:5001   */\n    tag_88:\n        /* \"#utility.yul\":4984:4993   */\n      0x746f20766f746500000000000000000000000000000000000000000000000000\n        /* \"#utility.yul\":4980:4981   */\n      0x00\n        /* \"#utility.yul\":4972:4978   */\n      dup3\n        /* \"#utility.yul\":4968:4982   */\n      add\n        /* \"#utility.yul\":4961:4994   */\n      mstore\n        /* \"#utility.yul\":4844:5001   */\n      pop\n      jump\t// out\n        /* \"#utility.yul\":5007:5372   */\n    tag_89:\n        /* \"#utility.yul\":5149:5152   */\n      0x00\n        /* \"#utility.yul\":5170:5236   */\n      tag_158\n        /* \"#utility.yul\":5234:5235   */\n      0x07\n        /* \"#utility.yul\":5229:5232   */\n      dup4\n        /* \"#utility.yul\":5170:5236   */\n      tag_85\n      jump\t// in\n    tag_158:\n        /* \"#utility.yul\":5163:5236   */\n      swap2\n      pop\n        /* \"#utility.yul\":5245:5338   */\n      tag_159\n        /* \"#utility.yul\":5334:5337   */\n      dup3\n        /* \"#utility.yul\":5245:5338   */\n      tag_88\n      jump\t// in\n    tag_159:\n        /* \"#utility.yul\":5363:5365   */\n      0x20\n        /* \"#utility.yul\":5358:5361   */\n      dup3\n        /* \"#utility.yul\":5354:5366   */\n      add\n        /* \"#utility.yul\":5347:5366   */\n      swap1\n      pop\n        /* \"#utility.yul\":5007:5372   */\n      swap2\n      swap1\n      pop\n      jump\t// out\n        /* \"#utility.yul\":5378:5797   */\n    tag_38:\n        /* \"#utility.yul\":5544:5548   */\n      0x00\n        /* \"#utility.yul\":5582:5584   */\n      0x20\n        /* \"#utility.yul\":5571:5580   */\n      dup3\n        /* \"#utility.yul\":5567:5585   */\n      add\n        /* \"#utility.yul\":5559:5585   */\n      swap1\n      pop\n        /* \"#utility.yul\":5631:5640   */\n      dup2\n        /* \"#utility.yul\":5625:5629   */\n      dup2\n        /* \"#utility.yul\":5621:5641   */\n      sub\n        /* \"#utility.yul\":5617:5618   */\n      0x00\n        /* \"#utility.yul\":5606:5615   */\n      dup4\n        /* \"#utility.yul\":5602:5619   */\n      add\n        /* \"#utility.yul\":5595:5642   */\n      mstore\n        /* \"#utility.yul\":5659:5790   */\n      tag_161\n        /* \"#utility.yul\":5785:5789   */\n      dup2\n        /* \"#utility.yul\":5659:5790   */\n      tag_89\n      jump\t// in\n    tag_161:\n        /* \"#utility.yul\":5651:5790   */\n      swap1\n      pop\n        /* \"#utility.yul\":5378:5797   */\n      swap2\n      swap1\n      pop\n      jump\t// out\n        /* \"#utility.yul\":5803:5963   */\n    tag_90:\n        /* \"#utility.yul\":5943:5955   */\n      0x617574686f72697a656400000000000000000000000000000000000000000000\n        /* \"#utility.yul\":5939:5940   */\n      0x00\n        /* \"#utility.yul\":5931:5937   */\n      dup3\n        /* \"#utility.yul\":5927:5941   */\n      add\n        /* \"#utility.yul\":5920:5956   */\n      mstore\n        /* \"#utility.yul\":5803:5963   */\n      pop\n      jump\t// out\n        /* \"#utility.yul\":5969:6335   */\n    tag_91:\n        /* \"#utility.yul\":6111:6114   */\n      0x00\n        /* \"#utility.yul\":6132:6199   */\n      tag_164\n        /* \"#utility.yul\":6196:6198   */\n      0x0a\n        /* \"#utility.yul\":6191:6194   */\n      dup4\n        /* \"#utility.yul\":6132:6199   */\n      tag_85\n      jump\t// in\n    tag_164:\n        /* \"#utility.yul\":6125:6199   */\n      swap2\n      pop\n        /* \"#utility.yul\":6208:6301   */\n      tag_165\n        /* \"#utility.yul\":6297:6300   */\n      dup3\n        /* \"#utility.yul\":6208:6301   */\n      tag_90\n      jump\t// in\n    tag_165:\n        /* \"#utility.yul\":6326:6328   */\n      0x20\n        /* \"#utility.yul\":6321:6324   */\n      dup3\n        /* \"#utility.yul\":6317:6329   */\n      add\n        /* \"#utility.yul\":6310:6329   */\n      swap1\n      pop\n        /* \"#utility.yul\":5969:6335   */\n      swap2\n      swap1\n      pop\n      jump\t// out\n        /* \"#utility.yul\":6341:6760   */\n    tag_41:\n        /* \"#utility.yul\":6507:6511   */\n      0x00\n        /* \"#utility.yul\":6545:6547   */\n      0x20\n        /* \"#utility.yul\":6534:6543   */\n      dup3\n        /* \"#utility.yul\":6530:6548   */\n      add\n        /* \"#utility.yul\":6522:6548   */\n      swap1\n      pop\n        /* \"#utility.yul\":6594:6603   */\n      dup2\n        /* \"#utility.yul\":6588:6592   */\n      dup2\n        /* \"#utility.yul\":6584:6604   */\n      sub\n        /* \"#utility.yul\":6580:6581   */\n      0x00\n        /* \"#utility.yul\":6569:6578   */\n      dup4\n        /* \"#utility.yul\":6565:6582   */\n      add\n        /* \"#utility.yul\":6558:6605   */\n      mstore\n        /* \"#utility.yul\":6622:6753   */\n      tag_167\n        /* \"#utility.yul\":6748:6752   */\n      dup2\n        /* \"#utility.yul\":6622:6753   */\n      tag_91\n      jump\t// in\n    tag_167:\n        /* \"#utility.yul\":6614:6753   */\n      swap1\n      pop\n        /* \"#utility.yul\":6341:6760   */\n      swap2\n      swap1\n      pop\n      jump\t// out\n        /* \"#utility.yul\":6766:6947   */\n    tag_92:\n        /* \"#utility.yul\":6906:6939   */\n      0x54686520656e7472757374656420706572736f6e2069732068696d73656c6600\n        /* \"#utility.yul\":6902:6903   */\n      0x00\n        /* \"#utility.yul\":6894:6900   */\n      dup3\n        /* \"#utility.yul\":6890:6904   */\n      add\n        /* \"#utility.yul\":6883:6940   */\n      mstore\n        /* \"#utility.yul\":6766:6947   */\n      pop\n      jump\t// out\n        /* \"#utility.yul\":6953:7319   */\n    tag_93:\n        /* \"#utility.yul\":7095:7098   */\n      0x00\n        /* \"#utility.yul\":7116:7183   */\n      tag_170\n        /* \"#utility.yul\":7180:7182   */\n      0x1f\n        /* \"#utility.yul\":7175:7178   */\n      dup4\n        /* \"#utility.yul\":7116:7183   */\n      tag_85\n      jump\t// in\n    tag_170:\n        /* \"#utility.yul\":7109:7183   */\n      swap2\n      pop\n        /* \"#utility.yul\":7192:7285   */\n      tag_171\n        /* \"#utility.yul\":7281:7284   */\n      dup3\n        /* \"#utility.yul\":7192:7285   */\n      tag_92\n      jump\t// in\n    tag_171:\n        /* \"#utility.yul\":7310:7312   */\n      0x20\n        /* \"#utility.yul\":7305:7308   */\n      dup3\n        /* \"#utility.yul\":7301:7313   */\n      add\n        /* \"#utility.yul\":7294:7313   */\n      swap1\n      pop\n        /* \"#utility.yul\":6953:7319   */\n      swap2\n      swap1\n      pop\n      jump\t// out\n        /* \"#utility.yul\":7325:7744   */\n    tag_45:\n        /* \"#utility.yul\":7491:7495   */\n      0x00\n        /* \"#utility.yul\":7529:7531   */\n      0x20\n        /* \"#utility.yul\":7518:7527   */\n      dup3\n        /* \"#utility.yul\":7514:7532   */\n      add\n        /* \"#utility.yul\":7506:7532   */\n      swap1\n      pop\n        /* \"#utility.yul\":7578:7587   */\n      dup2\n        /* \"#utility.yul\":7572:7576   */\n      dup2\n        /* \"#utility.yul\":7568:7588   */\n      sub\n        /* \"#utility.yul\":7564:7565   */\n      0x00\n        /* \"#utility.yul\":7553:7562   */\n      dup4\n        /* \"#utility.yul\":7549:7566   */\n      add\n        /* \"#utility.yul\":7542:7589   */\n      mstore\n        /* \"#utility.yul\":7606:7737   */\n      tag_173\n        /* \"#utility.yul\":7732:7736   */\n      dup2\n        /* \"#utility.yul\":7606:7737   */\n      tag_93\n      jump\t// in\n    tag_173:\n        /* \"#utility.yul\":7598:7737   */\n      swap1\n      pop\n        /* \"#utility.yul\":7325:7744   */\n      swap2\n      swap1\n      pop\n      jump\t// out\n        /* \"#utility.yul\":7750:7921   */\n    tag_94:\n        /* \"#utility.yul\":7890:7913   */\n      0x44656c65676174656420636c6f736564206c6f6f700000000000000000000000\n        /* \"#utility.yul\":7886:7887   */\n      0x00\n        /* \"#utility.yul\":7878:7884   */\n      dup3\n        /* \"#utility.yul\":7874:7888   */\n      add\n        /* \"#utility.yul\":7867:7914   */\n      mstore\n        /* \"#utility.yul\":7750:7921   */\n      pop\n      jump\t// out\n        /* \"#utility.yul\":7927:8293   */\n    tag_95:\n        /* \"#utility.yul\":8069:8072   */\n      0x00\n        /* \"#utility.yul\":8090:8157   */\n      tag_176\n        /* \"#utility.yul\":8154:8156   */\n      0x15\n        /* \"#utility.yul\":8149:8152   */\n      dup4\n        /* \"#utility.yul\":8090:8157   */\n      tag_85\n      jump\t// in\n    tag_176:\n        /* \"#utility.yul\":8083:8157   */\n      swap2\n      pop\n        /* \"#utility.yul\":8166:8259   */\n      tag_177\n        /* \"#utility.yul\":8255:8258   */\n      dup3\n        /* \"#utility.yul\":8166:8259   */\n      tag_94\n      jump\t// in\n    tag_177:\n        /* \"#utility.yul\":8284:8286   */\n      0x20\n        /* \"#utility.yul\":8279:8282   */\n      dup3\n        /* \"#utility.yul\":8275:8287   */\n      add\n        /* \"#utility.yul\":8268:8287   */\n      swap1\n      pop\n        /* \"#utility.yul\":7927:8293   */\n      swap2\n      swap1\n      pop\n      jump\t// out\n        /* \"#utility.yul\":8299:8718   */\n    tag_50:\n        /* \"#utility.yul\":8465:8469   */\n      0x00\n        /* \"#utility.yul\":8503:8505   */\n      0x20\n        /* \"#utility.yul\":8492:8501   */\n      dup3\n        /* \"#utility.yul\":8488:8506   */\n      add\n        /* \"#utility.yul\":8480:8506   */\n      swap1\n      pop\n        /* \"#utility.yul\":8552:8561   */\n      dup2\n        /* \"#utility.yul\":8546:8550   */\n      dup2\n        /* \"#utility.yul\":8542:8562   */\n      sub\n        /* \"#utility.yul\":8538:8539   */\n      0x00\n        /* \"#utility.yul\":8527:8536   */\n      dup4\n        /* \"#utility.yul\":8523:8540   */\n      add\n        /* \"#utility.yul\":8516:8563   */\n      mstore\n        /* \"#utility.yul\":8580:8711   */\n      tag_179\n        /* \"#utility.yul\":8706:8710   */\n      dup2\n        /* \"#utility.yul\":8580:8711   */\n      tag_95\n      jump\t// in\n    tag_179:\n        /* \"#utility.yul\":8572:8711   */\n      swap1\n      pop\n        /* \"#utility.yul\":8299:8718   */\n      swap2\n      swap1\n      pop\n      jump\t// out\n        /* \"#utility.yul\":8724:8890   */\n    tag_96:\n        /* \"#utility.yul\":8864:8882   */\n      0x63616c6c65722068617320766f74656400000000000000000000000000000000\n        /* \"#utility.yul\":8860:8861   */\n      0x00\n        /* \"#utility.yul\":8852:8858   */\n      dup3\n        /* \"#utility.yul\":8848:8862   */\n      add\n        /* \"#utility.yul\":8841:8883   */\n      mstore\n        /* \"#utility.yul\":8724:8890   */\n      pop\n      jump\t// out\n        /* \"#utility.yul\":8896:9262   */\n    tag_97:\n        /* \"#utility.yul\":9038:9041   */\n      0x00\n        /* \"#utility.yul\":9059:9126   */\n      tag_182\n        /* \"#utility.yul\":9123:9125   */\n      0x10\n        /* \"#utility.yul\":9118:9121   */\n      dup4\n        /* \"#utility.yul\":9059:9126   */\n      tag_85\n      jump\t// in\n    tag_182:\n        /* \"#utility.yul\":9052:9126   */\n      swap2\n      pop\n        /* \"#utility.yul\":9135:9228   */\n      tag_183\n        /* \"#utility.yul\":9224:9227   */\n      dup3\n        /* \"#utility.yul\":9135:9228   */\n      tag_96\n      jump\t// in\n    tag_183:\n        /* \"#utility.yul\":9253:9255   */\n      0x20\n        /* \"#utility.yul\":9248:9251   */\n      dup3\n        /* \"#utility.yul\":9244:9256   */\n      add\n        /* \"#utility.yul\":9237:9256   */\n      swap1\n      pop\n        /* \"#utility.yul\":8896:9262   */\n      swap2\n      swap1\n      pop\n      jump\t// out\n        /* \"#utility.yul\":9268:9687   */\n    tag_53:\n        /* \"#utility.yul\":9434:9438   */\n      0x00\n        /* \"#utility.yul\":9472:9474   */\n      0x20\n        /* \"#utility.yul\":9461:9470   */\n      dup3\n        /* \"#utility.yul\":9457:9475   */\n      add\n        /* \"#utility.yul\":9449:9475   */\n      swap1\n      pop\n        /* \"#utility.yul\":9521:9530   */\n      dup2\n        /* \"#utility.yul\":9515:9519   */\n      dup2\n        /* \"#utility.yul\":9511:9531   */\n      sub\n        /* \"#utility.yul\":9507:9508   */\n      0x00\n        /* \"#utility.yul\":9496:9505   */\n      dup4\n        /* \"#utility.yul\":9492:9509   */\n      add\n        /* \"#utility.yul\":9485:9532   */\n      mstore\n        /* \"#utility.yul\":9549:9680   */\n      tag_185\n        /* \"#utility.yul\":9675:9679   */\n      dup2\n        /* \"#utility.yul\":9549:9680   */\n      tag_97\n      jump\t// in\n    tag_185:\n        /* \"#utility.yul\":9541:9680   */\n      swap1\n      pop\n        /* \"#utility.yul\":9268:9687   */\n      swap2\n      swap1\n      pop\n      jump\t// out\n        /* \"#utility.yul\":9693:9918   */\n    tag_98:\n        /* \"#utility.yul\":9833:9867   */\n      0x5468652063616c6c657220646f6573206e6f74206861766520766f74696e6720\n        /* \"#utility.yul\":9829:9830   */\n      0x00\n        /* \"#utility.yul\":9821:9827   */\n      dup3\n        /* \"#utility.yul\":9817:9831   */\n      add\n        /* \"#utility.yul\":9810:9868   */\n      mstore\n        /* \"#utility.yul\":9902:9910   */\n      0x7269676874730000000000000000000000000000000000000000000000000000\n        /* \"#utility.yul\":9897:9899   */\n      0x20\n        /* \"#utility.yul\":9889:9895   */\n      dup3\n        /* \"#utility.yul\":9885:9900   */\n      add\n        /* \"#utility.yul\":9878:9911   */\n      mstore\n        /* \"#utility.yul\":9693:9918   */\n      pop\n      jump\t// out\n        /* \"#utility.yul\":9924:10290   */\n    tag_99:\n        /* \"#utility.yul\":10066:10069   */\n      0x00\n        /* \"#utility.yul\":10087:10154   */\n      tag_188\n        /* \"#utility.yul\":10151:10153   */\n      0x26\n        /* \"#utility.yul\":10146:10149   */\n      dup4\n        /* \"#utility.yul\":10087:10154   */\n      tag_85\n      jump\t// in\n    tag_188:\n        /* \"#utility.yul\":10080:10154   */\n      swap2\n      pop\n        /* \"#utility.yul\":10163:10256   */\n      tag_189\n        /* \"#utility.yul\":10252:10255   */\n      dup3\n        /* \"#utility.yul\":10163:10256   */\n      tag_98\n      jump\t// in\n    tag_189:\n        /* \"#utility.yul\":10281:10283   */\n      0x40\n        /* \"#utility.yul\":10276:10279   */\n      dup3\n        /* \"#utility.yul\":10272:10284   */\n      add\n        /* \"#utility.yul\":10265:10284   */\n      swap1\n      pop\n        /* \"#utility.yul\":9924:10290   */\n      swap2\n      swap1\n      pop\n      jump\t// out\n        /* \"#utility.yul\":10296:10715   */\n    tag_56:\n        /* \"#utility.yul\":10462:10466   */\n      0x00\n        /* \"#utility.yul\":10500:10502   */\n      0x20\n        /* \"#utility.yul\":10489:10498   */\n      dup3\n        /* \"#utility.yul\":10485:10503   */\n      add\n        /* \"#utility.yul\":10477:10503   */\n      swap1\n      pop\n        /* \"#utility.yul\":10549:10558   */\n      dup2\n        /* \"#utility.yul\":10543:10547   */\n      dup2\n        /* \"#utility.yul\":10539:10559   */\n      sub\n        /* \"#utility.yul\":10535:10536   */\n      0x00\n        /* \"#utility.yul\":10524:10533   */\n      dup4\n        /* \"#utility.yul\":10520:10537   */\n      add\n        /* \"#utility.yul\":10513:10560   */\n      mstore\n        /* \"#utility.yul\":10577:10708   */\n      tag_191\n        /* \"#utility.yul\":10703:10707   */\n      dup2\n        /* \"#utility.yul\":10577:10708   */\n      tag_99\n      jump\t// in\n    tag_191:\n        /* \"#utility.yul\":10569:10708   */\n      swap1\n      pop\n        /* \"#utility.yul\":10296:10715   */\n      swap2\n      swap1\n      pop\n      jump\t// out\n        /* \"#utility.yul\":10721:10903   */\n    tag_100:\n        /* \"#utility.yul\":10861:10895   */\n      0x54686520656e74727573746564206164647265737320697320696c6c6567616c\n        /* \"#utility.yul\":10857:10858   */\n      0x00\n        /* \"#utility.yul\":10849:10855   */\n      dup3\n        /* \"#utility.yul\":10845:10859   */\n      add\n        /* \"#utility.yul\":10838:10896   */\n      mstore\n        /* \"#utility.yul\":10721:10903   */\n      pop\n      jump\t// out\n        /* \"#utility.yul\":10909:11275   */\n    tag_101:\n        /* \"#utility.yul\":11051:11054   */\n      0x00\n        /* \"#utility.yul\":11072:11139   */\n      tag_194\n        /* \"#utility.yul\":11136:11138   */\n      0x20\n        /* \"#utility.yul\":11131:11134   */\n      dup4\n        /* \"#utility.yul\":11072:11139   */\n      tag_85\n      jump\t// in\n    tag_194:\n        /* \"#utility.yul\":11065:11139   */\n      swap2\n      pop\n        /* \"#utility.yul\":11148:11241   */\n      tag_195\n        /* \"#utility.yul\":11237:11240   */\n      dup3\n        /* \"#utility.yul\":11148:11241   */\n      tag_100\n      jump\t// in\n    tag_195:\n        /* \"#utility.yul\":11266:11268   */\n      0x20\n        /* \"#utility.yul\":11261:11264   */\n      dup3\n        /* \"#utility.yul\":11257:11269   */\n      add\n        /* \"#utility.yul\":11250:11269   */\n      swap1\n      pop\n        /* \"#utility.yul\":10909:11275   */\n      swap2\n      swap1\n      pop\n      jump\t// out\n        /* \"#utility.yul\":11281:11700   */\n    tag_59:\n        /* \"#utility.yul\":11447:11451   */\n      0x00\n        /* \"#utility.yul\":11485:11487   */\n      0x20\n        /* \"#utility.yul\":11474:11483   */\n      dup3\n        /* \"#utility.yul\":11470:11488   */\n      add\n        /* \"#utility.yul\":11462:11488   */\n      swap1\n      pop\n        /* \"#utility.yul\":11534:11543   */\n      dup2\n        /* \"#utility.yul\":11528:11532   */\n      dup2\n        /* \"#utility.yul\":11524:11544   */\n      sub\n        /* \"#utility.yul\":11520:11521   */\n      0x00\n        /* \"#utility.yul\":11509:11518   */\n      dup4\n        /* \"#utility.yul\":11505:11522   */\n      add\n        /* \"#utility.yul\":11498:11545   */\n      mstore\n        /* \"#utility.yul\":11562:11693   */\n      tag_197\n        /* \"#utility.yul\":11688:11692   */\n      dup2\n        /* \"#utility.yul\":11562:11693   */\n      tag_101\n      jump\t// in\n    tag_197:\n        /* \"#utility.yul\":11554:11693   */\n      swap1\n      pop\n        /* \"#utility.yul\":11281:11700   */\n      swap2\n      swap1\n      pop\n      jump\t// out\n        /* \"#utility.yul\":11706:11886   */\n    tag_63:\n        /* \"#utility.yul\":11754:11831   */\n      0x4e487b7100000000000000000000000000000000000000000000000000000000\n        /* \"#utility.yul\":11751:11752   */\n      0x00\n        /* \"#utility.yul\":11744:11832   */\n      mstore\n        /* \"#utility.yul\":11851:11855   */\n      0x32\n        /* \"#utility.yul\":11848:11849   */\n      0x04\n        /* \"#utility.yul\":11841:11856   */\n      mstore\n        /* \"#utility.yul\":11875:11879   */\n      0x24\n        /* \"#utility.yul\":11872:11873   */\n      0x00\n        /* \"#utility.yul\":11865:11880   */\n      revert\n        /* \"#utility.yul\":11892:12072   */\n    tag_102:\n        /* \"#utility.yul\":11940:12017   */\n      0x4e487b7100000000000000000000000000000000000000000000000000000000\n        /* \"#utility.yul\":11937:11938   */\n      0x00\n        /* \"#utility.yul\":11930:12018   */\n      mstore\n        /* \"#utility.yul\":12037:12041   */\n      0x11\n        /* \"#utility.yul\":12034:12035   */\n      0x04\n        /* \"#utility.yul\":12027:12042   */\n      mstore\n        /* \"#utility.yul\":12061:12065   */\n      0x24\n        /* \"#utility.yul\":12058:12059   */\n      0x00\n        /* \"#utility.yul\":12051:12066   */\n      revert\n        /* \"#utility.yul\":12078:12383   */\n    tag_66:\n        /* \"#utility.yul\":12118:12121   */\n      0x00\n        /* \"#utility.yul\":12137:12157   */\n      tag_201\n        /* \"#utility.yul\":12155:12156   */\n      dup3\n        /* \"#utility.yul\":12137:12157   */\n      tag_72\n      jump\t// in\n    tag_201:\n        /* \"#utility.yul\":12132:12157   */\n      swap2\n      pop\n        /* \"#utility.yul\":12171:12191   */\n      tag_202\n        /* \"#utility.yul\":12189:12190   */\n      dup4\n        /* \"#utility.yul\":12171:12191   */\n      tag_72\n      jump\t// in\n    tag_202:\n        /* \"#utility.yul\":12166:12191   */\n      swap3\n      pop\n        /* \"#utility.yul\":12325:12326   */\n      dup3\n        /* \"#utility.yul\":12257:12323   */\n      0xffffffffffffffffffffffffffffffffffffffffffffffffffffffffffffffff\n        /* \"#utility.yul\":12253:12327   */\n      sub\n        /* \"#utility.yul\":12250:12251   */\n      dup3\n        /* \"#utility.yul\":12247:12328   */\n      gt\n        /* \"#utility.yul\":12244:12351   */\n      iszero\n      tag_203\n      jumpi\n        /* \"#utility.yul\":12331:12349   */\n      tag_204\n      tag_102\n      jump\t// in\n    tag_204:\n        /* \"#utility.yul\":12244:12351   */\n    tag_203:\n        /* \"#utility.yul\":12375:12376   */\n      dup3\n        /* \"#utility.yul\":12372:12373   */\n      dup3\n        /* \"#utility.yul\":12368:12377   */\n      add\n        /* \"#utility.yul\":12361:12377   */\n      swap1\n      pop\n        /* \"#utility.yul\":12078:12383   */\n      swap3\n      swap2\n      pop\n      pop\n      jump\t// out\n\n    auxdata: 0xa2646970667358221220b48ffebd55f6505667edcb675fa3ae36b8d0972546dac6d261dc6e3ae67fb76c64736f6c634300080d0033\n}\n",
				"bytecode": {
					"linkReferences": {},
					"object": "60806040523480156200001157600080fd5b50604051620013d6380380620013d68339818101604052810190620000379190620002da565b336000806101000a81548173ffffffffffffffffffffffffffffffffffffffff021916908373ffffffffffffffffffffffffffffffffffffffff16021790555060005b81518110156200010e5760016040518060400160405280848481518110620000a757620000a66200032b565b5b6020026020010151815260200160008152509080600181540180825580915050600190039060005260206000209060020201600090919091909150600082015181600001556020820151816001015550508080620001059062000393565b9150506200007a565b5050620003e0565b6000604051905090565b600080fd5b600080fd5b600080fd5b6000601f19601f8301169050919050565b7f4e487b7100000000000000000000000000000000000000000000000000000000600052604160045260246000fd5b6200017a826200012f565b810181811067ffffffffffffffff821117156200019c576200019b62000140565b5b80604052505050565b6000620001b162000116565b9050620001bf82826200016f565b919050565b600067ffffffffffffffff821115620001e257620001e162000140565b5b602082029050602081019050919050565b600080fd5b6000819050919050565b6200020d81620001f8565b81146200021957600080fd5b50565b6000815190506200022d8162000202565b92915050565b60006200024a6200024484620001c4565b620001a5565b9050808382526020820190506020840283018581111562000270576200026f620001f3565b5b835b818110156200029d57806200028888826200021c565b84526020840193505060208101905062000272565b5050509392505050565b600082601f830112620002bf57620002be6200012a565b5b8151620002d184826020860162000233565b91505092915050565b600060208284031215620002f357620002f262000120565b5b600082015167ffffffffffffffff81111562000314576200031362000125565b5b6200032284828501620002a7565b91505092915050565b7f4e487b7100000000000000000000000000000000000000000000000000000000600052603260045260246000fd5b7f4e487b7100000000000000000000000000000000000000000000000000000000600052601160045260246000fd5b6000819050919050565b6000620003a08262000389565b91507fffffffffffffffffffffffffffffffffffffffffffffffffffffffffffffffff8203620003d557620003d46200035a565b5b600182019050919050565b610fe680620003f06000396000f3fe608060405234801561001057600080fd5b50600436106100575760003560e01c8063013cf08b1461005c578063248451941461008d57806387f7b975146100a9578063a3ec138d146100c7578063ab9cd997146100fa575b600080fd5b610076600480360381019061007191906109ac565b610116565b604051610084929190610a01565b60405180910390f35b6100a760048036038101906100a29190610a88565b61014a565b005b6100b1610338565b6040516100be9190610ac4565b60405180910390f35b6100e160048036038101906100dc9190610a88565b61035c565b6040516100f19493929190610afa565b60405180910390f35b610114600480360381019061010f9190610a88565b6103b9565b005b6001818154811061012657600080fd5b90600052602060002090600202016000915090508060000154908060010154905082565b60008054906101000a900473ffffffffffffffffffffffffffffffffffffffff1673ffffffffffffffffffffffffffffffffffffffff163373ffffffffffffffffffffffffffffffffffffffff16146101d8576040517f08c379a00000000000000000000000000000000000000000000000000000000081526004016101cf90610bc2565b60405180910390fd5b600260008273ffffffffffffffffffffffffffffffffffffffff1673ffffffffffffffffffffffffffffffffffffffff16815260200190815260200160002060010160149054906101000a900460ff1615610268576040517f08c379a000000000000000000000000000000000000000000000000000000000815260040161025f90610c2e565b60405180910390fd5b6000600260008373ffffffffffffffffffffffffffffffffffffffff1673ffffffffffffffffffffffffffffffffffffffff16815260200190815260200160002060000154146102ed576040517f08c379a00000000000000000000000000000000000000000000000000000000081526004016102e490610c9a565b60405180910390fd5b6001600260008373ffffffffffffffffffffffffffffffffffffffff1673ffffffffffffffffffffffffffffffffffffffff1681526020019081526020016000206000018190555050565b60008054906101000a900473ffffffffffffffffffffffffffffffffffffffff1681565b60026020528060005260406000206000915090508060000154908060010160009054906101000a900473ffffffffffffffffffffffffffffffffffffffff16908060010160149054906101000a900460ff16908060020154905084565b8073ffffffffffffffffffffffffffffffffffffffff163373ffffffffffffffffffffffffffffffffffffffff1603610427576040517f08c379a000000000000000000000000000000000000000000000000000000000815260040161041e90610d06565b60405180910390fd5b5b600073ffffffffffffffffffffffffffffffffffffffff16600260008373ffffffffffffffffffffffffffffffffffffffff1673ffffffffffffffffffffffffffffffffffffffff16815260200190815260200160002060010160009054906101000a900473ffffffffffffffffffffffffffffffffffffffff1673ffffffffffffffffffffffffffffffffffffffff1614610593573373ffffffffffffffffffffffffffffffffffffffff16600260008373ffffffffffffffffffffffffffffffffffffffff1673ffffffffffffffffffffffffffffffffffffffff16815260200190815260200160002060010160009054906101000a900473ffffffffffffffffffffffffffffffffffffffff1673ffffffffffffffffffffffffffffffffffffffff160361058e576040517f08c379a000000000000000000000000000000000000000000000000000000000815260040161058590610d72565b60405180910390fd5b610428565b600260003373ffffffffffffffffffffffffffffffffffffffff1673ffffffffffffffffffffffffffffffffffffffff16815260200190815260200160002060010160149054906101000a900460ff1615610623576040517f08c379a000000000000000000000000000000000000000000000000000000000815260040161061a90610dde565b60405180910390fd5b6000600260003373ffffffffffffffffffffffffffffffffffffffff1673ffffffffffffffffffffffffffffffffffffffff16815260200190815260200160002060000154036106a8576040517f08c379a000000000000000000000000000000000000000000000000000000000815260040161069f90610e70565b60405180910390fd5b600073ffffffffffffffffffffffffffffffffffffffff168173ffffffffffffffffffffffffffffffffffffffff1603610717576040517f08c379a000000000000000000000000000000000000000000000000000000000815260040161070e90610edc565b60405180910390fd5b80600260003373ffffffffffffffffffffffffffffffffffffffff1673ffffffffffffffffffffffffffffffffffffffff16815260200190815260200160002060010160006101000a81548173ffffffffffffffffffffffffffffffffffffffff021916908373ffffffffffffffffffffffffffffffffffffffff1602179055506000600260003373ffffffffffffffffffffffffffffffffffffffff1673ffffffffffffffffffffffffffffffffffffffff168152602001908152602001600020600001819055506001600260003373ffffffffffffffffffffffffffffffffffffffff1673ffffffffffffffffffffffffffffffffffffffff16815260200190815260200160002060010160146101000a81548160ff021916908315150217905550600260008273ffffffffffffffffffffffffffffffffffffffff1673ffffffffffffffffffffffffffffffffffffffff16815260200190815260200160002060010160149054906101000a900460ff161561091357600180600260008473ffffffffffffffffffffffffffffffffffffffff1673ffffffffffffffffffffffffffffffffffffffff16815260200190815260200160002060020154815481106108e7576108e6610efc565b5b906000526020600020906002020160010160008282546109079190610f5a565b9250508190555061096e565b6001600260008373ffffffffffffffffffffffffffffffffffffffff1673ffffffffffffffffffffffffffffffffffffffff16815260200190815260200160002060000160008282546109669190610f5a565b925050819055505b50565b600080fd5b6000819050919050565b61098981610976565b811461099457600080fd5b50565b6000813590506109a681610980565b92915050565b6000602082840312156109c2576109c1610971565b5b60006109d084828501610997565b91505092915050565b6000819050919050565b6109ec816109d9565b82525050565b6109fb81610976565b82525050565b6000604082019050610a1660008301856109e3565b610a2360208301846109f2565b9392505050565b600073ffffffffffffffffffffffffffffffffffffffff82169050919050565b6000610a5582610a2a565b9050919050565b610a6581610a4a565b8114610a7057600080fd5b50565b600081359050610a8281610a5c565b92915050565b600060208284031215610a9e57610a9d610971565b5b6000610aac84828501610a73565b91505092915050565b610abe81610a4a565b82525050565b6000602082019050610ad96000830184610ab5565b92915050565b60008115159050919050565b610af481610adf565b82525050565b6000608082019050610b0f60008301876109f2565b610b1c6020830186610ab5565b610b296040830185610aeb565b610b3660608301846109f2565b95945050505050565b600082825260208201905092915050565b7f5468652063616c6c6572206973206e6f7420746865206368616972706572736f60008201527f6e00000000000000000000000000000000000000000000000000000000000000602082015250565b6000610bac602183610b3f565b9150610bb782610b50565b604082019050919050565b60006020820190508181036000830152610bdb81610b9f565b9050919050565b7f746f20766f746500000000000000000000000000000000000000000000000000600082015250565b6000610c18600783610b3f565b9150610c2382610be2565b602082019050919050565b60006020820190508181036000830152610c4781610c0b565b9050919050565b7f617574686f72697a656400000000000000000000000000000000000000000000600082015250565b6000610c84600a83610b3f565b9150610c8f82610c4e565b602082019050919050565b60006020820190508181036000830152610cb381610c77565b9050919050565b7f54686520656e7472757374656420706572736f6e2069732068696d73656c6600600082015250565b6000610cf0601f83610b3f565b9150610cfb82610cba565b602082019050919050565b60006020820190508181036000830152610d1f81610ce3565b9050919050565b7f44656c65676174656420636c6f736564206c6f6f700000000000000000000000600082015250565b6000610d5c601583610b3f565b9150610d6782610d26565b602082019050919050565b60006020820190508181036000830152610d8b81610d4f565b9050919050565b7f63616c6c65722068617320766f74656400000000000000000000000000000000600082015250565b6000610dc8601083610b3f565b9150610dd382610d92565b602082019050919050565b60006020820190508181036000830152610df781610dbb565b9050919050565b7f5468652063616c6c657220646f6573206e6f74206861766520766f74696e672060008201527f7269676874730000000000000000000000000000000000000000000000000000602082015250565b6000610e5a602683610b3f565b9150610e6582610dfe565b604082019050919050565b60006020820190508181036000830152610e8981610e4d565b9050919050565b7f54686520656e74727573746564206164647265737320697320696c6c6567616c600082015250565b6000610ec6602083610b3f565b9150610ed182610e90565b602082019050919050565b60006020820190508181036000830152610ef581610eb9565b9050919050565b7f4e487b7100000000000000000000000000000000000000000000000000000000600052603260045260246000fd5b7f4e487b7100000000000000000000000000000000000000000000000000000000600052601160045260246000fd5b6000610f6582610976565b9150610f7083610976565b9250827fffffffffffffffffffffffffffffffffffffffffffffffffffffffffffffffff03821115610fa557610fa4610f2b565b5b82820190509291505056fea2646970667358221220b48ffebd55f6505667edcb675fa3ae36b8d0972546dac6d261dc6e3ae67fb76c64736f6c634300080d0033",
					"opcodes": "PUSH1 0x80 PUSH1 0x40 MSTORE CALLVALUE DUP1 ISZERO PUSH3 0x11 JUMPI PUSH1 0x0 DUP1 REVERT JUMPDEST POP PUSH1 0x40 MLOAD PUSH3 0x13D6 CODESIZE SUB DUP1 PUSH3 0x13D6 DUP4 CODECOPY DUP2 DUP2 ADD PUSH1 0x40 MSTORE DUP2 ADD SWAP1 PUSH3 0x37 SWAP2 SWAP1 PUSH3 0x2DA JUMP JUMPDEST CALLER PUSH1 0x0 DUP1 PUSH2 0x100 EXP DUP2 SLOAD DUP2 PUSH20 0xFFFFFFFFFFFFFFFFFFFFFFFFFFFFFFFFFFFFFFFF MUL NOT AND SWAP1 DUP4 PUSH20 0xFFFFFFFFFFFFFFFFFFFFFFFFFFFFFFFFFFFFFFFF AND MUL OR SWAP1 SSTORE POP PUSH1 0x0 JUMPDEST DUP2 MLOAD DUP2 LT ISZERO PUSH3 0x10E JUMPI PUSH1 0x1 PUSH1 0x40 MLOAD DUP1 PUSH1 0x40 ADD PUSH1 0x40 MSTORE DUP1 DUP5 DUP5 DUP2 MLOAD DUP2 LT PUSH3 0xA7 JUMPI PUSH3 0xA6 PUSH3 0x32B JUMP JUMPDEST JUMPDEST PUSH1 0x20 MUL PUSH1 0x20 ADD ADD MLOAD DUP2 MSTORE PUSH1 0x20 ADD PUSH1 0x0 DUP2 MSTORE POP SWAP1 DUP1 PUSH1 0x1 DUP2 SLOAD ADD DUP1 DUP3 SSTORE DUP1 SWAP2 POP POP PUSH1 0x1 SWAP1 SUB SWAP1 PUSH1 0x0 MSTORE PUSH1 0x20 PUSH1 0x0 KECCAK256 SWAP1 PUSH1 0x2 MUL ADD PUSH1 0x0 SWAP1 SWAP2 SWAP1 SWAP2 SWAP1 SWAP2 POP PUSH1 0x0 DUP3 ADD MLOAD DUP2 PUSH1 0x0 ADD SSTORE PUSH1 0x20 DUP3 ADD MLOAD DUP2 PUSH1 0x1 ADD SSTORE POP POP DUP1 DUP1 PUSH3 0x105 SWAP1 PUSH3 0x393 JUMP JUMPDEST SWAP2 POP POP PUSH3 0x7A JUMP JUMPDEST POP POP PUSH3 0x3E0 JUMP JUMPDEST PUSH1 0x0 PUSH1 0x40 MLOAD SWAP1 POP SWAP1 JUMP JUMPDEST PUSH1 0x0 DUP1 REVERT JUMPDEST PUSH1 0x0 DUP1 REVERT JUMPDEST PUSH1 0x0 DUP1 REVERT JUMPDEST PUSH1 0x0 PUSH1 0x1F NOT PUSH1 0x1F DUP4 ADD AND SWAP1 POP SWAP2 SWAP1 POP JUMP JUMPDEST PUSH32 0x4E487B7100000000000000000000000000000000000000000000000000000000 PUSH1 0x0 MSTORE PUSH1 0x41 PUSH1 0x4 MSTORE PUSH1 0x24 PUSH1 0x0 REVERT JUMPDEST PUSH3 0x17A DUP3 PUSH3 0x12F JUMP JUMPDEST DUP2 ADD DUP2 DUP2 LT PUSH8 0xFFFFFFFFFFFFFFFF DUP3 GT OR ISZERO PUSH3 0x19C JUMPI PUSH3 0x19B PUSH3 0x140 JUMP JUMPDEST JUMPDEST DUP1 PUSH1 0x40 MSTORE POP POP POP JUMP JUMPDEST PUSH1 0x0 PUSH3 0x1B1 PUSH3 0x116 JUMP JUMPDEST SWAP1 POP PUSH3 0x1BF DUP3 DUP3 PUSH3 0x16F JUMP JUMPDEST SWAP2 SWAP1 POP JUMP JUMPDEST PUSH1 0x0 PUSH8 0xFFFFFFFFFFFFFFFF DUP3 GT ISZERO PUSH3 0x1E2 JUMPI PUSH3 0x1E1 PUSH3 0x140 JUMP JUMPDEST JUMPDEST PUSH1 0x20 DUP3 MUL SWAP1 POP PUSH1 0x20 DUP2 ADD SWAP1 POP SWAP2 SWAP1 POP JUMP JUMPDEST PUSH1 0x0 DUP1 REVERT JUMPDEST PUSH1 0x0 DUP2 SWAP1 POP SWAP2 SWAP1 POP JUMP JUMPDEST PUSH3 0x20D DUP2 PUSH3 0x1F8 JUMP JUMPDEST DUP2 EQ PUSH3 0x219 JUMPI PUSH1 0x0 DUP1 REVERT JUMPDEST POP JUMP JUMPDEST PUSH1 0x0 DUP2 MLOAD SWAP1 POP PUSH3 0x22D DUP2 PUSH3 0x202 JUMP JUMPDEST SWAP3 SWAP2 POP POP JUMP JUMPDEST PUSH1 0x0 PUSH3 0x24A PUSH3 0x244 DUP5 PUSH3 0x1C4 JUMP JUMPDEST PUSH3 0x1A5 JUMP JUMPDEST SWAP1 POP DUP1 DUP4 DUP3 MSTORE PUSH1 0x20 DUP3 ADD SWAP1 POP PUSH1 0x20 DUP5 MUL DUP4 ADD DUP6 DUP2 GT ISZERO PUSH3 0x270 JUMPI PUSH3 0x26F PUSH3 0x1F3 JUMP JUMPDEST JUMPDEST DUP4 JUMPDEST DUP2 DUP2 LT ISZERO PUSH3 0x29D JUMPI DUP1 PUSH3 0x288 DUP9 DUP3 PUSH3 0x21C JUMP JUMPDEST DUP5 MSTORE PUSH1 0x20 DUP5 ADD SWAP4 POP POP PUSH1 0x20 DUP2 ADD SWAP1 POP PUSH3 0x272 JUMP JUMPDEST POP POP POP SWAP4 SWAP3 POP POP POP JUMP JUMPDEST PUSH1 0x0 DUP3 PUSH1 0x1F DUP4 ADD SLT PUSH3 0x2BF JUMPI PUSH3 0x2BE PUSH3 0x12A JUMP JUMPDEST JUMPDEST DUP2 MLOAD PUSH3 0x2D1 DUP5 DUP3 PUSH1 0x20 DUP7 ADD PUSH3 0x233 JUMP JUMPDEST SWAP2 POP POP SWAP3 SWAP2 POP POP JUMP JUMPDEST PUSH1 0x0 PUSH1 0x20 DUP3 DUP5 SUB SLT ISZERO PUSH3 0x2F3 JUMPI PUSH3 0x2F2 PUSH3 0x120 JUMP JUMPDEST JUMPDEST PUSH1 0x0 DUP3 ADD MLOAD PUSH8 0xFFFFFFFFFFFFFFFF DUP2 GT ISZERO PUSH3 0x314 JUMPI PUSH3 0x313 PUSH3 0x125 JUMP JUMPDEST JUMPDEST PUSH3 0x322 DUP5 DUP3 DUP6 ADD PUSH3 0x2A7 JUMP JUMPDEST SWAP2 POP POP SWAP3 SWAP2 POP POP JUMP JUMPDEST PUSH32 0x4E487B7100000000000000000000000000000000000000000000000000000000 PUSH1 0x0 MSTORE PUSH1 0x32 PUSH1 0x4 MSTORE PUSH1 0x24 PUSH1 0x0 REVERT JUMPDEST PUSH32 0x4E487B7100000000000000000000000000000000000000000000000000000000 PUSH1 0x0 MSTORE PUSH1 0x11 PUSH1 0x4 MSTORE PUSH1 0x24 PUSH1 0x0 REVERT JUMPDEST PUSH1 0x0 DUP2 SWAP1 POP SWAP2 SWAP1 POP JUMP JUMPDEST PUSH1 0x0 PUSH3 0x3A0 DUP3 PUSH3 0x389 JUMP JUMPDEST SWAP2 POP PUSH32 0xFFFFFFFFFFFFFFFFFFFFFFFFFFFFFFFFFFFFFFFFFFFFFFFFFFFFFFFFFFFFFFFF DUP3 SUB PUSH3 0x3D5 JUMPI PUSH3 0x3D4 PUSH3 0x35A JUMP JUMPDEST JUMPDEST PUSH1 0x1 DUP3 ADD SWAP1 POP SWAP2 SWAP1 POP JUMP JUMPDEST PUSH2 0xFE6 DUP1 PUSH3 0x3F0 PUSH1 0x0 CODECOPY PUSH1 0x0 RETURN INVALID PUSH1 0x80 PUSH1 0x40 MSTORE CALLVALUE DUP1 ISZERO PUSH2 0x10 JUMPI PUSH1 0x0 DUP1 REVERT JUMPDEST POP PUSH1 0x4 CALLDATASIZE LT PUSH2 0x57 JUMPI PUSH1 0x0 CALLDATALOAD PUSH1 0xE0 SHR DUP1 PUSH4 0x13CF08B EQ PUSH2 0x5C JUMPI DUP1 PUSH4 0x24845194 EQ PUSH2 0x8D JUMPI DUP1 PUSH4 0x87F7B975 EQ PUSH2 0xA9 JUMPI DUP1 PUSH4 0xA3EC138D EQ PUSH2 0xC7 JUMPI DUP1 PUSH4 0xAB9CD997 EQ PUSH2 0xFA JUMPI JUMPDEST PUSH1 0x0 DUP1 REVERT JUMPDEST PUSH2 0x76 PUSH1 0x4 DUP1 CALLDATASIZE SUB DUP2 ADD SWAP1 PUSH2 0x71 SWAP2 SWAP1 PUSH2 0x9AC JUMP JUMPDEST PUSH2 0x116 JUMP JUMPDEST PUSH1 0x40 MLOAD PUSH2 0x84 SWAP3 SWAP2 SWAP1 PUSH2 0xA01 JUMP JUMPDEST PUSH1 0x40 MLOAD DUP1 SWAP2 SUB SWAP1 RETURN JUMPDEST PUSH2 0xA7 PUSH1 0x4 DUP1 CALLDATASIZE SUB DUP2 ADD SWAP1 PUSH2 0xA2 SWAP2 SWAP1 PUSH2 0xA88 JUMP JUMPDEST PUSH2 0x14A JUMP JUMPDEST STOP JUMPDEST PUSH2 0xB1 PUSH2 0x338 JUMP JUMPDEST PUSH1 0x40 MLOAD PUSH2 0xBE SWAP2 SWAP1 PUSH2 0xAC4 JUMP JUMPDEST PUSH1 0x40 MLOAD DUP1 SWAP2 SUB SWAP1 RETURN JUMPDEST PUSH2 0xE1 PUSH1 0x4 DUP1 CALLDATASIZE SUB DUP2 ADD SWAP1 PUSH2 0xDC SWAP2 SWAP1 PUSH2 0xA88 JUMP JUMPDEST PUSH2 0x35C JUMP JUMPDEST PUSH1 0x40 MLOAD PUSH2 0xF1 SWAP5 SWAP4 SWAP3 SWAP2 SWAP1 PUSH2 0xAFA JUMP JUMPDEST PUSH1 0x40 MLOAD DUP1 SWAP2 SUB SWAP1 RETURN JUMPDEST PUSH2 0x114 PUSH1 0x4 DUP1 CALLDATASIZE SUB DUP2 ADD SWAP1 PUSH2 0x10F SWAP2 SWAP1 PUSH2 0xA88 JUMP JUMPDEST PUSH2 0x3B9 JUMP JUMPDEST STOP JUMPDEST PUSH1 0x1 DUP2 DUP2 SLOAD DUP2 LT PUSH2 0x126 JUMPI PUSH1 0x0 DUP1 REVERT JUMPDEST SWAP1 PUSH1 0x0 MSTORE PUSH1 0x20 PUSH1 0x0 KECCAK256 SWAP1 PUSH1 0x2 MUL ADD PUSH1 0x0 SWAP2 POP SWAP1 POP DUP1 PUSH1 0x0 ADD SLOAD SWAP1 DUP1 PUSH1 0x1 ADD SLOAD SWAP1 POP DUP3 JUMP JUMPDEST PUSH1 0x0 DUP1 SLOAD SWAP1 PUSH2 0x100 EXP SWAP1 DIV PUSH20 0xFFFFFFFFFFFFFFFFFFFFFFFFFFFFFFFFFFFFFFFF AND PUSH20 0xFFFFFFFFFFFFFFFFFFFFFFFFFFFFFFFFFFFFFFFF AND CALLER PUSH20 0xFFFFFFFFFFFFFFFFFFFFFFFFFFFFFFFFFFFFFFFF AND EQ PUSH2 0x1D8 JUMPI PUSH1 0x40 MLOAD PUSH32 0x8C379A000000000000000000000000000000000000000000000000000000000 DUP2 MSTORE PUSH1 0x4 ADD PUSH2 0x1CF SWAP1 PUSH2 0xBC2 JUMP JUMPDEST PUSH1 0x40 MLOAD DUP1 SWAP2 SUB SWAP1 REVERT JUMPDEST PUSH1 0x2 PUSH1 0x0 DUP3 PUSH20 0xFFFFFFFFFFFFFFFFFFFFFFFFFFFFFFFFFFFFFFFF AND PUSH20 0xFFFFFFFFFFFFFFFFFFFFFFFFFFFFFFFFFFFFFFFF AND DUP2 MSTORE PUSH1 0x20 ADD SWAP1 DUP2 MSTORE PUSH1 0x20 ADD PUSH1 0x0 KECCAK256 PUSH1 0x1 ADD PUSH1 0x14 SWAP1 SLOAD SWAP1 PUSH2 0x100 EXP SWAP1 DIV PUSH1 0xFF AND ISZERO PUSH2 0x268 JUMPI PUSH1 0x40 MLOAD PUSH32 0x8C379A000000000000000000000000000000000000000000000000000000000 DUP2 MSTORE PUSH1 0x4 ADD PUSH2 0x25F SWAP1 PUSH2 0xC2E JUMP JUMPDEST PUSH1 0x40 MLOAD DUP1 SWAP2 SUB SWAP1 REVERT JUMPDEST PUSH1 0x0 PUSH1 0x2 PUSH1 0x0 DUP4 PUSH20 0xFFFFFFFFFFFFFFFFFFFFFFFFFFFFFFFFFFFFFFFF AND PUSH20 0xFFFFFFFFFFFFFFFFFFFFFFFFFFFFFFFFFFFFFFFF AND DUP2 MSTORE PUSH1 0x20 ADD SWAP1 DUP2 MSTORE PUSH1 0x20 ADD PUSH1 0x0 KECCAK256 PUSH1 0x0 ADD SLOAD EQ PUSH2 0x2ED JUMPI PUSH1 0x40 MLOAD PUSH32 0x8C379A000000000000000000000000000000000000000000000000000000000 DUP2 MSTORE PUSH1 0x4 ADD PUSH2 0x2E4 SWAP1 PUSH2 0xC9A JUMP JUMPDEST PUSH1 0x40 MLOAD DUP1 SWAP2 SUB SWAP1 REVERT JUMPDEST PUSH1 0x1 PUSH1 0x2 PUSH1 0x0 DUP4 PUSH20 0xFFFFFFFFFFFFFFFFFFFFFFFFFFFFFFFFFFFFFFFF AND PUSH20 0xFFFFFFFFFFFFFFFFFFFFFFFFFFFFFFFFFFFFFFFF AND DUP2 MSTORE PUSH1 0x20 ADD SWAP1 DUP2 MSTORE PUSH1 0x20 ADD PUSH1 0x0 KECCAK256 PUSH1 0x0 ADD DUP2 SWAP1 SSTORE POP POP JUMP JUMPDEST PUSH1 0x0 DUP1 SLOAD SWAP1 PUSH2 0x100 EXP SWAP1 DIV PUSH20 0xFFFFFFFFFFFFFFFFFFFFFFFFFFFFFFFFFFFFFFFF AND DUP2 JUMP JUMPDEST PUSH1 0x2 PUSH1 0x20 MSTORE DUP1 PUSH1 0x0 MSTORE PUSH1 0x40 PUSH1 0x0 KECCAK256 PUSH1 0x0 SWAP2 POP SWAP1 POP DUP1 PUSH1 0x0 ADD SLOAD SWAP1 DUP1 PUSH1 0x1 ADD PUSH1 0x0 SWAP1 SLOAD SWAP1 PUSH2 0x100 EXP SWAP1 DIV PUSH20 0xFFFFFFFFFFFFFFFFFFFFFFFFFFFFFFFFFFFFFFFF AND SWAP1 DUP1 PUSH1 0x1 ADD PUSH1 0x14 SWAP1 SLOAD SWAP1 PUSH2 0x100 EXP SWAP1 DIV PUSH1 0xFF AND SWAP1 DUP1 PUSH1 0x2 ADD SLOAD SWAP1 POP DUP5 JUMP JUMPDEST DUP1 PUSH20 0xFFFFFFFFFFFFFFFFFFFFFFFFFFFFFFFFFFFFFFFF AND CALLER PUSH20 0xFFFFFFFFFFFFFFFFFFFFFFFFFFFFFFFFFFFFFFFF AND SUB PUSH2 0x427 JUMPI PUSH1 0x40 MLOAD PUSH32 0x8C379A000000000000000000000000000000000000000000000000000000000 DUP2 MSTORE PUSH1 0x4 ADD PUSH2 0x41E SWAP1 PUSH2 0xD06 JUMP JUMPDEST PUSH1 0x40 MLOAD DUP1 SWAP2 SUB SWAP1 REVERT JUMPDEST JUMPDEST PUSH1 0x0 PUSH20 0xFFFFFFFFFFFFFFFFFFFFFFFFFFFFFFFFFFFFFFFF AND PUSH1 0x2 PUSH1 0x0 DUP4 PUSH20 0xFFFFFFFFFFFFFFFFFFFFFFFFFFFFFFFFFFFFFFFF AND PUSH20 0xFFFFFFFFFFFFFFFFFFFFFFFFFFFFFFFFFFFFFFFF AND DUP2 MSTORE PUSH1 0x20 ADD SWAP1 DUP2 MSTORE PUSH1 0x20 ADD PUSH1 0x0 KECCAK256 PUSH1 0x1 ADD PUSH1 0x0 SWAP1 SLOAD SWAP1 PUSH2 0x100 EXP SWAP1 DIV PUSH20 0xFFFFFFFFFFFFFFFFFFFFFFFFFFFFFFFFFFFFFFFF AND PUSH20 0xFFFFFFFFFFFFFFFFFFFFFFFFFFFFFFFFFFFFFFFF AND EQ PUSH2 0x593 JUMPI CALLER PUSH20 0xFFFFFFFFFFFFFFFFFFFFFFFFFFFFFFFFFFFFFFFF AND PUSH1 0x2 PUSH1 0x0 DUP4 PUSH20 0xFFFFFFFFFFFFFFFFFFFFFFFFFFFFFFFFFFFFFFFF AND PUSH20 0xFFFFFFFFFFFFFFFFFFFFFFFFFFFFFFFFFFFFFFFF AND DUP2 MSTORE PUSH1 0x20 ADD SWAP1 DUP2 MSTORE PUSH1 0x20 ADD PUSH1 0x0 KECCAK256 PUSH1 0x1 ADD PUSH1 0x0 SWAP1 SLOAD SWAP1 PUSH2 0x100 EXP SWAP1 DIV PUSH20 0xFFFFFFFFFFFFFFFFFFFFFFFFFFFFFFFFFFFFFFFF AND PUSH20 0xFFFFFFFFFFFFFFFFFFFFFFFFFFFFFFFFFFFFFFFF AND SUB PUSH2 0x58E JUMPI PUSH1 0x40 MLOAD PUSH32 0x8C379A000000000000000000000000000000000000000000000000000000000 DUP2 MSTORE PUSH1 0x4 ADD PUSH2 0x585 SWAP1 PUSH2 0xD72 JUMP JUMPDEST PUSH1 0x40 MLOAD DUP1 SWAP2 SUB SWAP1 REVERT JUMPDEST PUSH2 0x428 JUMP JUMPDEST PUSH1 0x2 PUSH1 0x0 CALLER PUSH20 0xFFFFFFFFFFFFFFFFFFFFFFFFFFFFFFFFFFFFFFFF AND PUSH20 0xFFFFFFFFFFFFFFFFFFFFFFFFFFFFFFFFFFFFFFFF AND DUP2 MSTORE PUSH1 0x20 ADD SWAP1 DUP2 MSTORE PUSH1 0x20 ADD PUSH1 0x0 KECCAK256 PUSH1 0x1 ADD PUSH1 0x14 SWAP1 SLOAD SWAP1 PUSH2 0x100 EXP SWAP1 DIV PUSH1 0xFF AND ISZERO PUSH2 0x623 JUMPI PUSH1 0x40 MLOAD PUSH32 0x8C379A000000000000000000000000000000000000000000000000000000000 DUP2 MSTORE PUSH1 0x4 ADD PUSH2 0x61A SWAP1 PUSH2 0xDDE JUMP JUMPDEST PUSH1 0x40 MLOAD DUP1 SWAP2 SUB SWAP1 REVERT JUMPDEST PUSH1 0x0 PUSH1 0x2 PUSH1 0x0 CALLER PUSH20 0xFFFFFFFFFFFFFFFFFFFFFFFFFFFFFFFFFFFFFFFF AND PUSH20 0xFFFFFFFFFFFFFFFFFFFFFFFFFFFFFFFFFFFFFFFF AND DUP2 MSTORE PUSH1 0x20 ADD SWAP1 DUP2 MSTORE PUSH1 0x20 ADD PUSH1 0x0 KECCAK256 PUSH1 0x0 ADD SLOAD SUB PUSH2 0x6A8 JUMPI PUSH1 0x40 MLOAD PUSH32 0x8C379A000000000000000000000000000000000000000000000000000000000 DUP2 MSTORE PUSH1 0x4 ADD PUSH2 0x69F SWAP1 PUSH2 0xE70 JUMP JUMPDEST PUSH1 0x40 MLOAD DUP1 SWAP2 SUB SWAP1 REVERT JUMPDEST PUSH1 0x0 PUSH20 0xFFFFFFFFFFFFFFFFFFFFFFFFFFFFFFFFFFFFFFFF AND DUP2 PUSH20 0xFFFFFFFFFFFFFFFFFFFFFFFFFFFFFFFFFFFFFFFF AND SUB PUSH2 0x717 JUMPI PUSH1 0x40 MLOAD PUSH32 0x8C379A000000000000000000000000000000000000000000000000000000000 DUP2 MSTORE PUSH1 0x4 ADD PUSH2 0x70E SWAP1 PUSH2 0xEDC JUMP JUMPDEST PUSH1 0x40 MLOAD DUP1 SWAP2 SUB SWAP1 REVERT JUMPDEST DUP1 PUSH1 0x2 PUSH1 0x0 CALLER PUSH20 0xFFFFFFFFFFFFFFFFFFFFFFFFFFFFFFFFFFFFFFFF AND PUSH20 0xFFFFFFFFFFFFFFFFFFFFFFFFFFFFFFFFFFFFFFFF AND DUP2 MSTORE PUSH1 0x20 ADD SWAP1 DUP2 MSTORE PUSH1 0x20 ADD PUSH1 0x0 KECCAK256 PUSH1 0x1 ADD PUSH1 0x0 PUSH2 0x100 EXP DUP2 SLOAD DUP2 PUSH20 0xFFFFFFFFFFFFFFFFFFFFFFFFFFFFFFFFFFFFFFFF MUL NOT AND SWAP1 DUP4 PUSH20 0xFFFFFFFFFFFFFFFFFFFFFFFFFFFFFFFFFFFFFFFF AND MUL OR SWAP1 SSTORE POP PUSH1 0x0 PUSH1 0x2 PUSH1 0x0 CALLER PUSH20 0xFFFFFFFFFFFFFFFFFFFFFFFFFFFFFFFFFFFFFFFF AND PUSH20 0xFFFFFFFFFFFFFFFFFFFFFFFFFFFFFFFFFFFFFFFF AND DUP2 MSTORE PUSH1 0x20 ADD SWAP1 DUP2 MSTORE PUSH1 0x20 ADD PUSH1 0x0 KECCAK256 PUSH1 0x0 ADD DUP2 SWAP1 SSTORE POP PUSH1 0x1 PUSH1 0x2 PUSH1 0x0 CALLER PUSH20 0xFFFFFFFFFFFFFFFFFFFFFFFFFFFFFFFFFFFFFFFF AND PUSH20 0xFFFFFFFFFFFFFFFFFFFFFFFFFFFFFFFFFFFFFFFF AND DUP2 MSTORE PUSH1 0x20 ADD SWAP1 DUP2 MSTORE PUSH1 0x20 ADD PUSH1 0x0 KECCAK256 PUSH1 0x1 ADD PUSH1 0x14 PUSH2 0x100 EXP DUP2 SLOAD DUP2 PUSH1 0xFF MUL NOT AND SWAP1 DUP4 ISZERO ISZERO MUL OR SWAP1 SSTORE POP PUSH1 0x2 PUSH1 0x0 DUP3 PUSH20 0xFFFFFFFFFFFFFFFFFFFFFFFFFFFFFFFFFFFFFFFF AND PUSH20 0xFFFFFFFFFFFFFFFFFFFFFFFFFFFFFFFFFFFFFFFF AND DUP2 MSTORE PUSH1 0x20 ADD SWAP1 DUP2 MSTORE PUSH1 0x20 ADD PUSH1 0x0 KECCAK256 PUSH1 0x1 ADD PUSH1 0x14 SWAP1 SLOAD SWAP1 PUSH2 0x100 EXP SWAP1 DIV PUSH1 0xFF AND ISZERO PUSH2 0x913 JUMPI PUSH1 0x1 DUP1 PUSH1 0x2 PUSH1 0x0 DUP5 PUSH20 0xFFFFFFFFFFFFFFFFFFFFFFFFFFFFFFFFFFFFFFFF AND PUSH20 0xFFFFFFFFFFFFFFFFFFFFFFFFFFFFFFFFFFFFFFFF AND DUP2 MSTORE PUSH1 0x20 ADD SWAP1 DUP2 MSTORE PUSH1 0x20 ADD PUSH1 0x0 KECCAK256 PUSH1 0x2 ADD SLOAD DUP2 SLOAD DUP2 LT PUSH2 0x8E7 JUMPI PUSH2 0x8E6 PUSH2 0xEFC JUMP JUMPDEST JUMPDEST SWAP1 PUSH1 0x0 MSTORE PUSH1 0x20 PUSH1 0x0 KECCAK256 SWAP1 PUSH1 0x2 MUL ADD PUSH1 0x1 ADD PUSH1 0x0 DUP3 DUP3 SLOAD PUSH2 0x907 SWAP2 SWAP1 PUSH2 0xF5A JUMP JUMPDEST SWAP3 POP POP DUP2 SWAP1 SSTORE POP PUSH2 0x96E JUMP JUMPDEST PUSH1 0x1 PUSH1 0x2 PUSH1 0x0 DUP4 PUSH20 0xFFFFFFFFFFFFFFFFFFFFFFFFFFFFFFFFFFFFFFFF AND PUSH20 0xFFFFFFFFFFFFFFFFFFFFFFFFFFFFFFFFFFFFFFFF AND DUP2 MSTORE PUSH1 0x20 ADD SWAP1 DUP2 MSTORE PUSH1 0x20 ADD PUSH1 0x0 KECCAK256 PUSH1 0x0 ADD PUSH1 0x0 DUP3 DUP3 SLOAD PUSH2 0x966 SWAP2 SWAP1 PUSH2 0xF5A JUMP JUMPDEST SWAP3 POP POP DUP2 SWAP1 SSTORE POP JUMPDEST POP JUMP JUMPDEST PUSH1 0x0 DUP1 REVERT JUMPDEST PUSH1 0x0 DUP2 SWAP1 POP SWAP2 SWAP1 POP JUMP JUMPDEST PUSH2 0x989 DUP2 PUSH2 0x976 JUMP JUMPDEST DUP2 EQ PUSH2 0x994 JUMPI PUSH1 0x0 DUP1 REVERT JUMPDEST POP JUMP JUMPDEST PUSH1 0x0 DUP2 CALLDATALOAD SWAP1 POP PUSH2 0x9A6 DUP2 PUSH2 0x980 JUMP JUMPDEST SWAP3 SWAP2 POP POP JUMP JUMPDEST PUSH1 0x0 PUSH1 0x20 DUP3 DUP5 SUB SLT ISZERO PUSH2 0x9C2 JUMPI PUSH2 0x9C1 PUSH2 0x971 JUMP JUMPDEST JUMPDEST PUSH1 0x0 PUSH2 0x9D0 DUP5 DUP3 DUP6 ADD PUSH2 0x997 JUMP JUMPDEST SWAP2 POP POP SWAP3 SWAP2 POP POP JUMP JUMPDEST PUSH1 0x0 DUP2 SWAP1 POP SWAP2 SWAP1 POP JUMP JUMPDEST PUSH2 0x9EC DUP2 PUSH2 0x9D9 JUMP JUMPDEST DUP3 MSTORE POP POP JUMP JUMPDEST PUSH2 0x9FB DUP2 PUSH2 0x976 JUMP JUMPDEST DUP3 MSTORE POP POP JUMP JUMPDEST PUSH1 0x0 PUSH1 0x40 DUP3 ADD SWAP1 POP PUSH2 0xA16 PUSH1 0x0 DUP4 ADD DUP6 PUSH2 0x9E3 JUMP JUMPDEST PUSH2 0xA23 PUSH1 0x20 DUP4 ADD DUP5 PUSH2 0x9F2 JUMP JUMPDEST SWAP4 SWAP3 POP POP POP JUMP JUMPDEST PUSH1 0x0 PUSH20 0xFFFFFFFFFFFFFFFFFFFFFFFFFFFFFFFFFFFFFFFF DUP3 AND SWAP1 POP SWAP2 SWAP1 POP JUMP JUMPDEST PUSH1 0x0 PUSH2 0xA55 DUP3 PUSH2 0xA2A JUMP JUMPDEST SWAP1 POP SWAP2 SWAP1 POP JUMP JUMPDEST PUSH2 0xA65 DUP2 PUSH2 0xA4A JUMP JUMPDEST DUP2 EQ PUSH2 0xA70 JUMPI PUSH1 0x0 DUP1 REVERT JUMPDEST POP JUMP JUMPDEST PUSH1 0x0 DUP2 CALLDATALOAD SWAP1 POP PUSH2 0xA82 DUP2 PUSH2 0xA5C JUMP JUMPDEST SWAP3 SWAP2 POP POP JUMP JUMPDEST PUSH1 0x0 PUSH1 0x20 DUP3 DUP5 SUB SLT ISZERO PUSH2 0xA9E JUMPI PUSH2 0xA9D PUSH2 0x971 JUMP JUMPDEST JUMPDEST PUSH1 0x0 PUSH2 0xAAC DUP5 DUP3 DUP6 ADD PUSH2 0xA73 JUMP JUMPDEST SWAP2 POP POP SWAP3 SWAP2 POP POP JUMP JUMPDEST PUSH2 0xABE DUP2 PUSH2 0xA4A JUMP JUMPDEST DUP3 MSTORE POP POP JUMP JUMPDEST PUSH1 0x0 PUSH1 0x20 DUP3 ADD SWAP1 POP PUSH2 0xAD9 PUSH1 0x0 DUP4 ADD DUP5 PUSH2 0xAB5 JUMP JUMPDEST SWAP3 SWAP2 POP POP JUMP JUMPDEST PUSH1 0x0 DUP2 ISZERO ISZERO SWAP1 POP SWAP2 SWAP1 POP JUMP JUMPDEST PUSH2 0xAF4 DUP2 PUSH2 0xADF JUMP JUMPDEST DUP3 MSTORE POP POP JUMP JUMPDEST PUSH1 0x0 PUSH1 0x80 DUP3 ADD SWAP1 POP PUSH2 0xB0F PUSH1 0x0 DUP4 ADD DUP8 PUSH2 0x9F2 JUMP JUMPDEST PUSH2 0xB1C PUSH1 0x20 DUP4 ADD DUP7 PUSH2 0xAB5 JUMP JUMPDEST PUSH2 0xB29 PUSH1 0x40 DUP4 ADD DUP6 PUSH2 0xAEB JUMP JUMPDEST PUSH2 0xB36 PUSH1 0x60 DUP4 ADD DUP5 PUSH2 0x9F2 JUMP JUMPDEST SWAP6 SWAP5 POP POP POP POP POP JUMP JUMPDEST PUSH1 0x0 DUP3 DUP3 MSTORE PUSH1 0x20 DUP3 ADD SWAP1 POP SWAP3 SWAP2 POP POP JUMP JUMPDEST PUSH32 0x5468652063616C6C6572206973206E6F7420746865206368616972706572736F PUSH1 0x0 DUP3 ADD MSTORE PUSH32 0x6E00000000000000000000000000000000000000000000000000000000000000 PUSH1 0x20 DUP3 ADD MSTORE POP JUMP JUMPDEST PUSH1 0x0 PUSH2 0xBAC PUSH1 0x21 DUP4 PUSH2 0xB3F JUMP JUMPDEST SWAP2 POP PUSH2 0xBB7 DUP3 PUSH2 0xB50 JUMP JUMPDEST PUSH1 0x40 DUP3 ADD SWAP1 POP SWAP2 SWAP1 POP JUMP JUMPDEST PUSH1 0x0 PUSH1 0x20 DUP3 ADD SWAP1 POP DUP2 DUP2 SUB PUSH1 0x0 DUP4 ADD MSTORE PUSH2 0xBDB DUP2 PUSH2 0xB9F JUMP JUMPDEST SWAP1 POP SWAP2 SWAP1 POP JUMP JUMPDEST PUSH32 0x746F20766F746500000000000000000000000000000000000000000000000000 PUSH1 0x0 DUP3 ADD MSTORE POP JUMP JUMPDEST PUSH1 0x0 PUSH2 0xC18 PUSH1 0x7 DUP4 PUSH2 0xB3F JUMP JUMPDEST SWAP2 POP PUSH2 0xC23 DUP3 PUSH2 0xBE2 JUMP JUMPDEST PUSH1 0x20 DUP3 ADD SWAP1 POP SWAP2 SWAP1 POP JUMP JUMPDEST PUSH1 0x0 PUSH1 0x20 DUP3 ADD SWAP1 POP DUP2 DUP2 SUB PUSH1 0x0 DUP4 ADD MSTORE PUSH2 0xC47 DUP2 PUSH2 0xC0B JUMP JUMPDEST SWAP1 POP SWAP2 SWAP1 POP JUMP JUMPDEST PUSH32 0x617574686F72697A656400000000000000000000000000000000000000000000 PUSH1 0x0 DUP3 ADD MSTORE POP JUMP JUMPDEST PUSH1 0x0 PUSH2 0xC84 PUSH1 0xA DUP4 PUSH2 0xB3F JUMP JUMPDEST SWAP2 POP PUSH2 0xC8F DUP3 PUSH2 0xC4E JUMP JUMPDEST PUSH1 0x20 DUP3 ADD SWAP1 POP SWAP2 SWAP1 POP JUMP JUMPDEST PUSH1 0x0 PUSH1 0x20 DUP3 ADD SWAP1 POP DUP2 DUP2 SUB PUSH1 0x0 DUP4 ADD MSTORE PUSH2 0xCB3 DUP2 PUSH2 0xC77 JUMP JUMPDEST SWAP1 POP SWAP2 SWAP1 POP JUMP JUMPDEST PUSH32 0x54686520656E7472757374656420706572736F6E2069732068696D73656C6600 PUSH1 0x0 DUP3 ADD MSTORE POP JUMP JUMPDEST PUSH1 0x0 PUSH2 0xCF0 PUSH1 0x1F DUP4 PUSH2 0xB3F JUMP JUMPDEST SWAP2 POP PUSH2 0xCFB DUP3 PUSH2 0xCBA JUMP JUMPDEST PUSH1 0x20 DUP3 ADD SWAP1 POP SWAP2 SWAP1 POP JUMP JUMPDEST PUSH1 0x0 PUSH1 0x20 DUP3 ADD SWAP1 POP DUP2 DUP2 SUB PUSH1 0x0 DUP4 ADD MSTORE PUSH2 0xD1F DUP2 PUSH2 0xCE3 JUMP JUMPDEST SWAP1 POP SWAP2 SWAP1 POP JUMP JUMPDEST PUSH32 0x44656C65676174656420636C6F736564206C6F6F700000000000000000000000 PUSH1 0x0 DUP3 ADD MSTORE POP JUMP JUMPDEST PUSH1 0x0 PUSH2 0xD5C PUSH1 0x15 DUP4 PUSH2 0xB3F JUMP JUMPDEST SWAP2 POP PUSH2 0xD67 DUP3 PUSH2 0xD26 JUMP JUMPDEST PUSH1 0x20 DUP3 ADD SWAP1 POP SWAP2 SWAP1 POP JUMP JUMPDEST PUSH1 0x0 PUSH1 0x20 DUP3 ADD SWAP1 POP DUP2 DUP2 SUB PUSH1 0x0 DUP4 ADD MSTORE PUSH2 0xD8B DUP2 PUSH2 0xD4F JUMP JUMPDEST SWAP1 POP SWAP2 SWAP1 POP JUMP JUMPDEST PUSH32 0x63616C6C65722068617320766F74656400000000000000000000000000000000 PUSH1 0x0 DUP3 ADD MSTORE POP JUMP JUMPDEST PUSH1 0x0 PUSH2 0xDC8 PUSH1 0x10 DUP4 PUSH2 0xB3F JUMP JUMPDEST SWAP2 POP PUSH2 0xDD3 DUP3 PUSH2 0xD92 JUMP JUMPDEST PUSH1 0x20 DUP3 ADD SWAP1 POP SWAP2 SWAP1 POP JUMP JUMPDEST PUSH1 0x0 PUSH1 0x20 DUP3 ADD SWAP1 POP DUP2 DUP2 SUB PUSH1 0x0 DUP4 ADD MSTORE PUSH2 0xDF7 DUP2 PUSH2 0xDBB JUMP JUMPDEST SWAP1 POP SWAP2 SWAP1 POP JUMP JUMPDEST PUSH32 0x5468652063616C6C657220646F6573206E6F74206861766520766F74696E6720 PUSH1 0x0 DUP3 ADD MSTORE PUSH32 0x7269676874730000000000000000000000000000000000000000000000000000 PUSH1 0x20 DUP3 ADD MSTORE POP JUMP JUMPDEST PUSH1 0x0 PUSH2 0xE5A PUSH1 0x26 DUP4 PUSH2 0xB3F JUMP JUMPDEST SWAP2 POP PUSH2 0xE65 DUP3 PUSH2 0xDFE JUMP JUMPDEST PUSH1 0x40 DUP3 ADD SWAP1 POP SWAP2 SWAP1 POP JUMP JUMPDEST PUSH1 0x0 PUSH1 0x20 DUP3 ADD SWAP1 POP DUP2 DUP2 SUB PUSH1 0x0 DUP4 ADD MSTORE PUSH2 0xE89 DUP2 PUSH2 0xE4D JUMP JUMPDEST SWAP1 POP SWAP2 SWAP1 POP JUMP JUMPDEST PUSH32 0x54686520656E74727573746564206164647265737320697320696C6C6567616C PUSH1 0x0 DUP3 ADD MSTORE POP JUMP JUMPDEST PUSH1 0x0 PUSH2 0xEC6 PUSH1 0x20 DUP4 PUSH2 0xB3F JUMP JUMPDEST SWAP2 POP PUSH2 0xED1 DUP3 PUSH2 0xE90 JUMP JUMPDEST PUSH1 0x20 DUP3 ADD SWAP1 POP SWAP2 SWAP1 POP JUMP JUMPDEST PUSH1 0x0 PUSH1 0x20 DUP3 ADD SWAP1 POP DUP2 DUP2 SUB PUSH1 0x0 DUP4 ADD MSTORE PUSH2 0xEF5 DUP2 PUSH2 0xEB9 JUMP JUMPDEST SWAP1 POP SWAP2 SWAP1 POP JUMP JUMPDEST PUSH32 0x4E487B7100000000000000000000000000000000000000000000000000000000 PUSH1 0x0 MSTORE PUSH1 0x32 PUSH1 0x4 MSTORE PUSH1 0x24 PUSH1 0x0 REVERT JUMPDEST PUSH32 0x4E487B7100000000000000000000000000000000000000000000000000000000 PUSH1 0x0 MSTORE PUSH1 0x11 PUSH1 0x4 MSTORE PUSH1 0x24 PUSH1 0x0 REVERT JUMPDEST PUSH1 0x0 PUSH2 0xF65 DUP3 PUSH2 0x976 JUMP JUMPDEST SWAP2 POP PUSH2 0xF70 DUP4 PUSH2 0x976 JUMP JUMPDEST SWAP3 POP DUP3 PUSH32 0xFFFFFFFFFFFFFFFFFFFFFFFFFFFFFFFFFFFFFFFFFFFFFFFFFFFFFFFFFFFFFFFF SUB DUP3 GT ISZERO PUSH2 0xFA5 JUMPI PUSH2 0xFA4 PUSH2 0xF2B JUMP JUMPDEST JUMPDEST DUP3 DUP3 ADD SWAP1 POP SWAP3 SWAP2 POP POP JUMP INVALID LOG2 PUSH5 0x6970667358 0x22 SLT KECCAK256 0xB4 DUP16 INVALID 0xBD SSTORE 0xF6 POP JUMP PUSH8 0xEDCB675FA3AE36B8 0xD0 SWAP8 0x25 CHAINID 0xDA 0xC6 0xD2 PUSH2 0xDC6E GASPRICE 0xE6 PUSH32 0xB76C64736F6C634300080D003300000000000000000000000000000000000000 "
				},
				"gasEstimates": {
					"creation": {
						"codeDepositCost": "814000",
						"executionCost": "infinite",
						"totalCost": "infinite"
					},
					"external": {
						"chairman()": "2533",
						"entrust(address)": "infinite",
						"giveAddressVote(address)": "29353",
						"proposals(uint256)": "infinite",
						"voters(address)": "infinite"
					}
				},
				"methodIdentifiers": {
					"chairman()": "87f7b975",
					"entrust(address)": "ab9cd997",
					"giveAddressVote(address)": "24845194",
					"proposals(uint256)": "013cf08b",
					"voters(address)": "a3ec138d"
				}
			},
			"userdoc": {
				"kind": "user",
				"methods": {},
				"version": 1
			}
		}
	}
}