{
	"contracts/Ballot.sol": {
		"Ballot": {
			"abi": [
				{
					"inputs": [
						{
							"internalType": "bytes32[]",
							"name": "proposalNames",
							"type": "bytes32[]"
						}
					],
					"stateMutability": "nonpayable",
					"type": "constructor"
				},
				{
					"inputs": [],
					"name": "chairperson",
					"outputs": [
						{
							"internalType": "address",
							"name": "",
							"type": "address"
						}
					],
					"stateMutability": "view",
					"type": "function"
				},
				{
					"inputs": [
						{
							"internalType": "address",
							"name": "to",
							"type": "address"
						}
					],
					"name": "delegate",
					"outputs": [],
					"stateMutability": "nonpayable",
					"type": "function"
				},
				{
					"inputs": [
						{
							"internalType": "address",
							"name": "voter",
							"type": "address"
						}
					],
					"name": "giveRightToVote",
					"outputs": [],
					"stateMutability": "nonpayable",
					"type": "function"
				},
				{
					"inputs": [
						{
							"internalType": "uint256",
							"name": "",
							"type": "uint256"
						}
					],
					"name": "proposals",
					"outputs": [
						{
							"internalType": "bytes32",
							"name": "name",
							"type": "bytes32"
						},
						{
							"internalType": "uint256",
							"name": "voteCount",
							"type": "uint256"
						}
					],
					"stateMutability": "view",
					"type": "function"
				},
				{
					"inputs": [
						{
							"internalType": "uint256",
							"name": "proposal",
							"type": "uint256"
						}
					],
					"name": "vote",
					"outputs": [],
					"stateMutability": "nonpayable",
					"type": "function"
				},
				{
					"inputs": [
						{
							"internalType": "address",
							"name": "",
							"type": "address"
						}
					],
					"name": "voters",
					"outputs": [
						{
							"internalType": "uint256",
							"name": "weight",
							"type": "uint256"
						},
						{
							"internalType": "bool",
							"name": "voted",
							"type": "bool"
						},
						{
							"internalType": "address",
							"name": "delegate",
							"type": "address"
						},
						{
							"internalType": "uint256",
							"name": "vote",
							"type": "uint256"
						}
					],
					"stateMutability": "view",
					"type": "function"
				},
				{
					"inputs": [],
					"name": "winnerName",
					"outputs": [
						{
							"internalType": "bytes32",
							"name": "winnerName_",
							"type": "bytes32"
						}
					],
					"stateMutability": "view",
					"type": "function"
				},
				{
					"inputs": [],
					"name": "winningProposal",
					"outputs": [
						{
							"internalType": "uint256",
							"name": "winningProposal_",
							"type": "uint256"
						}
					],
					"stateMutability": "view",
					"type": "function"
				}
			],
			"devdoc": {
				"kind": "dev",
				"methods": {},
				"version": 1
			},
			"evm": {
				"assembly": "    /* \"contracts/Ballot.sol\":66:3524  contract Ballot {... */\n  mstore(0x40, 0x80)\n    /* \"contracts/Ballot.sol\":656:1060  constructor(bytes32[] memory proposalNames) {... */\n  callvalue\n  dup1\n  iszero\n  tag_1\n  jumpi\n  0x00\n  dup1\n  revert\ntag_1:\n  pop\n  mload(0x40)\n  sub(codesize, bytecodeSize)\n  dup1\n  bytecodeSize\n  dup4\n  codecopy\n  dup2\n  dup2\n  add\n  0x40\n  mstore\n  dup2\n  add\n  swap1\n  tag_2\n  swap2\n  swap1\n  tag_3\n  jump\t// in\ntag_2:\n    /* \"contracts/Ballot.sol\":747:757  msg.sender */\n  caller\n    /* \"contracts/Ballot.sol\":733:744  chairperson */\n  0x00\n  dup1\n    /* \"contracts/Ballot.sol\":733:757  chairperson = msg.sender */\n  0x0100\n  exp\n  dup2\n  sload\n  dup2\n  0xffffffffffffffffffffffffffffffffffffffff\n  mul\n  not\n  and\n  swap1\n  dup4\n  0xffffffffffffffffffffffffffffffffffffffff\n  and\n  mul\n  or\n  swap1\n  sstore\n  pop\n    /* \"contracts/Ballot.sol\":842:843  1 */\n  0x01\n    /* \"contracts/Ballot.sol\":813:819  voters */\n  dup1\n    /* \"contracts/Ballot.sol\":813:832  voters[chairperson] */\n  0x00\n    /* \"contracts/Ballot.sol\":820:831  chairperson */\n  dup1\n  0x00\n  swap1\n  sload\n  swap1\n  0x0100\n  exp\n  swap1\n  div\n  0xffffffffffffffffffffffffffffffffffffffff\n  and\n    /* \"contracts/Ballot.sol\":813:832  voters[chairperson] */\n  0xffffffffffffffffffffffffffffffffffffffff\n  and\n  0xffffffffffffffffffffffffffffffffffffffff\n  and\n  dup2\n  mstore\n  0x20\n  add\n  swap1\n  dup2\n  mstore\n  0x20\n  add\n  0x00\n  keccak256\n    /* \"contracts/Ballot.sol\":813:839  voters[chairperson].weight */\n  0x00\n  add\n    /* \"contracts/Ballot.sol\":813:843  voters[chairperson].weight = 1 */\n  dup2\n  swap1\n  sstore\n  pop\n    /* \"contracts/Ballot.sol\":893:899  uint i */\n  0x00\n    /* \"contracts/Ballot.sol\":888:1056  for (uint i=0; i<proposalNames.length; i++) {... */\ntag_6:\n    /* \"contracts/Ballot.sol\":905:918  proposalNames */\n  dup2\n    /* \"contracts/Ballot.sol\":905:925  proposalNames.length */\n  mload\n    /* \"contracts/Ballot.sol\":903:904  i */\n  dup2\n    /* \"contracts/Ballot.sol\":903:925  i<proposalNames.length */\n  lt\n    /* \"contracts/Ballot.sol\":888:1056  for (uint i=0; i<proposalNames.length; i++) {... */\n  iszero\n  tag_7\n  jumpi\n    /* \"contracts/Ballot.sol\":944:953  proposals */\n  0x02\n    /* \"contracts/Ballot.sol\":959:1046  Proposal({... */\n  mload(0x40)\n  dup1\n  0x40\n  add\n  0x40\n  mstore\n  dup1\n    /* \"contracts/Ballot.sol\":990:1003  proposalNames */\n  dup5\n    /* \"contracts/Ballot.sol\":1004:1005  i */\n  dup5\n    /* \"contracts/Ballot.sol\":990:1006  proposalNames[i] */\n  dup2\n  mload\n  dup2\n  lt\n  tag_9\n  jumpi\n  tag_10\n  tag_11\n  jump\t// in\ntag_10:\ntag_9:\n  0x20\n  mul\n  0x20\n  add\n  add\n  mload\n    /* \"contracts/Ballot.sol\":959:1046  Proposal({... */\n  dup2\n  mstore\n  0x20\n  add\n    /* \"contracts/Ballot.sol\":1032:1033  0 */\n  0x00\n    /* \"contracts/Ballot.sol\":959:1046  Proposal({... */\n  dup2\n  mstore\n  pop\n    /* \"contracts/Ballot.sol\":944:1047  proposals.push(Proposal({... */\n  swap1\n  dup1\n  0x01\n  dup2\n  sload\n  add\n  dup1\n  dup3\n  sstore\n  dup1\n  swap2\n  pop\n  pop\n  0x01\n  swap1\n  sub\n  swap1\n  0x00\n  mstore\n  keccak256(0x00, 0x20)\n  swap1\n  0x02\n  mul\n  add\n  0x00\n  swap1\n  swap2\n  swap1\n  swap2\n  swap1\n  swap2\n  pop\n  0x00\n  dup3\n  add\n  mload\n  dup2\n  0x00\n  add\n  sstore\n  0x20\n  dup3\n  add\n  mload\n  dup2\n  0x01\n  add\n  sstore\n  pop\n  pop\n    /* \"contracts/Ballot.sol\":927:930  i++ */\n  dup1\n  dup1\n  tag_13\n  swap1\n  tag_14\n  jump\t// in\ntag_13:\n  swap2\n  pop\n  pop\n    /* \"contracts/Ballot.sol\":888:1056  for (uint i=0; i<proposalNames.length; i++) {... */\n  jump(tag_6)\ntag_7:\n  pop\n    /* \"contracts/Ballot.sol\":656:1060  constructor(bytes32[] memory proposalNames) {... */\n  pop\n    /* \"contracts/Ballot.sol\":66:3524  contract Ballot {... */\n  jump(tag_15)\n    /* \"#utility.yul\":7:82   */\ntag_16:\n    /* \"#utility.yul\":40:46   */\n  0x00\n    /* \"#utility.yul\":73:75   */\n  0x40\n    /* \"#utility.yul\":67:76   */\n  mload\n    /* \"#utility.yul\":57:76   */\n  swap1\n  pop\n    /* \"#utility.yul\":7:82   */\n  swap1\n  jump\t// out\n    /* \"#utility.yul\":88:205   */\ntag_17:\n    /* \"#utility.yul\":197:198   */\n  0x00\n    /* \"#utility.yul\":194:195   */\n  dup1\n    /* \"#utility.yul\":187:199   */\n  revert\n    /* \"#utility.yul\":211:328   */\ntag_18:\n    /* \"#utility.yul\":320:321   */\n  0x00\n    /* \"#utility.yul\":317:318   */\n  dup1\n    /* \"#utility.yul\":310:322   */\n  revert\n    /* \"#utility.yul\":334:451   */\ntag_19:\n    /* \"#utility.yul\":443:444   */\n  0x00\n    /* \"#utility.yul\":440:441   */\n  dup1\n    /* \"#utility.yul\":433:445   */\n  revert\n    /* \"#utility.yul\":457:559   */\ntag_20:\n    /* \"#utility.yul\":498:504   */\n  0x00\n    /* \"#utility.yul\":549:551   */\n  0x1f\n    /* \"#utility.yul\":545:552   */\n  not\n    /* \"#utility.yul\":540:542   */\n  0x1f\n    /* \"#utility.yul\":533:538   */\n  dup4\n    /* \"#utility.yul\":529:543   */\n  add\n    /* \"#utility.yul\":525:553   */\n  and\n    /* \"#utility.yul\":515:553   */\n  swap1\n  pop\n    /* \"#utility.yul\":457:559   */\n  swap2\n  swap1\n  pop\n  jump\t// out\n    /* \"#utility.yul\":565:745   */\ntag_21:\n    /* \"#utility.yul\":613:690   */\n  0x4e487b7100000000000000000000000000000000000000000000000000000000\n    /* \"#utility.yul\":610:611   */\n  0x00\n    /* \"#utility.yul\":603:691   */\n  mstore\n    /* \"#utility.yul\":710:714   */\n  0x41\n    /* \"#utility.yul\":707:708   */\n  0x04\n    /* \"#utility.yul\":700:715   */\n  mstore\n    /* \"#utility.yul\":734:738   */\n  0x24\n    /* \"#utility.yul\":731:732   */\n  0x00\n    /* \"#utility.yul\":724:739   */\n  revert\n    /* \"#utility.yul\":751:1032   */\ntag_22:\n    /* \"#utility.yul\":834:861   */\n  tag_41\n    /* \"#utility.yul\":856:860   */\n  dup3\n    /* \"#utility.yul\":834:861   */\n  tag_20\n  jump\t// in\ntag_41:\n    /* \"#utility.yul\":826:832   */\n  dup2\n    /* \"#utility.yul\":822:862   */\n  add\n    /* \"#utility.yul\":964:970   */\n  dup2\n    /* \"#utility.yul\":952:962   */\n  dup2\n    /* \"#utility.yul\":949:971   */\n  lt\n    /* \"#utility.yul\":928:946   */\n  0xffffffffffffffff\n    /* \"#utility.yul\":916:926   */\n  dup3\n    /* \"#utility.yul\":913:947   */\n  gt\n    /* \"#utility.yul\":910:972   */\n  or\n    /* \"#utility.yul\":907:995   */\n  iszero\n  tag_42\n  jumpi\n    /* \"#utility.yul\":975:993   */\n  tag_43\n  tag_21\n  jump\t// in\ntag_43:\n    /* \"#utility.yul\":907:995   */\ntag_42:\n    /* \"#utility.yul\":1015:1025   */\n  dup1\n    /* \"#utility.yul\":1011:1013   */\n  0x40\n    /* \"#utility.yul\":1004:1026   */\n  mstore\n    /* \"#utility.yul\":794:1032   */\n  pop\n    /* \"#utility.yul\":751:1032   */\n  pop\n  pop\n  jump\t// out\n    /* \"#utility.yul\":1038:1167   */\ntag_23:\n    /* \"#utility.yul\":1072:1078   */\n  0x00\n    /* \"#utility.yul\":1099:1119   */\n  tag_45\n  tag_16\n  jump\t// in\ntag_45:\n    /* \"#utility.yul\":1089:1119   */\n  swap1\n  pop\n    /* \"#utility.yul\":1128:1161   */\n  tag_46\n    /* \"#utility.yul\":1156:1160   */\n  dup3\n    /* \"#utility.yul\":1148:1154   */\n  dup3\n    /* \"#utility.yul\":1128:1161   */\n  tag_22\n  jump\t// in\ntag_46:\n    /* \"#utility.yul\":1038:1167   */\n  swap2\n  swap1\n  pop\n  jump\t// out\n    /* \"#utility.yul\":1173:1484   */\ntag_24:\n    /* \"#utility.yul\":1250:1254   */\n  0x00\n    /* \"#utility.yul\":1340:1358   */\n  0xffffffffffffffff\n    /* \"#utility.yul\":1332:1338   */\n  dup3\n    /* \"#utility.yul\":1329:1359   */\n  gt\n    /* \"#utility.yul\":1326:1382   */\n  iszero\n  tag_48\n  jumpi\n    /* \"#utility.yul\":1362:1380   */\n  tag_49\n  tag_21\n  jump\t// in\ntag_49:\n    /* \"#utility.yul\":1326:1382   */\ntag_48:\n    /* \"#utility.yul\":1412:1416   */\n  0x20\n    /* \"#utility.yul\":1404:1410   */\n  dup3\n    /* \"#utility.yul\":1400:1417   */\n  mul\n    /* \"#utility.yul\":1392:1417   */\n  swap1\n  pop\n    /* \"#utility.yul\":1472:1476   */\n  0x20\n    /* \"#utility.yul\":1466:1470   */\n  dup2\n    /* \"#utility.yul\":1462:1477   */\n  add\n    /* \"#utility.yul\":1454:1477   */\n  swap1\n  pop\n    /* \"#utility.yul\":1173:1484   */\n  swap2\n  swap1\n  pop\n  jump\t// out\n    /* \"#utility.yul\":1490:1607   */\ntag_25:\n    /* \"#utility.yul\":1599:1600   */\n  0x00\n    /* \"#utility.yul\":1596:1597   */\n  dup1\n    /* \"#utility.yul\":1589:1601   */\n  revert\n    /* \"#utility.yul\":1613:1690   */\ntag_26:\n    /* \"#utility.yul\":1650:1657   */\n  0x00\n    /* \"#utility.yul\":1679:1684   */\n  dup2\n    /* \"#utility.yul\":1668:1684   */\n  swap1\n  pop\n    /* \"#utility.yul\":1613:1690   */\n  swap2\n  swap1\n  pop\n  jump\t// out\n    /* \"#utility.yul\":1696:1818   */\ntag_27:\n    /* \"#utility.yul\":1769:1793   */\n  tag_53\n    /* \"#utility.yul\":1787:1792   */\n  dup2\n    /* \"#utility.yul\":1769:1793   */\n  tag_26\n  jump\t// in\ntag_53:\n    /* \"#utility.yul\":1762:1767   */\n  dup2\n    /* \"#utility.yul\":1759:1794   */\n  eq\n    /* \"#utility.yul\":1749:1812   */\n  tag_54\n  jumpi\n    /* \"#utility.yul\":1808:1809   */\n  0x00\n    /* \"#utility.yul\":1805:1806   */\n  dup1\n    /* \"#utility.yul\":1798:1810   */\n  revert\n    /* \"#utility.yul\":1749:1812   */\ntag_54:\n    /* \"#utility.yul\":1696:1818   */\n  pop\n  jump\t// out\n    /* \"#utility.yul\":1824:1967   */\ntag_28:\n    /* \"#utility.yul\":1881:1886   */\n  0x00\n    /* \"#utility.yul\":1912:1918   */\n  dup2\n    /* \"#utility.yul\":1906:1919   */\n  mload\n    /* \"#utility.yul\":1897:1919   */\n  swap1\n  pop\n    /* \"#utility.yul\":1928:1961   */\n  tag_56\n    /* \"#utility.yul\":1955:1960   */\n  dup2\n    /* \"#utility.yul\":1928:1961   */\n  tag_27\n  jump\t// in\ntag_56:\n    /* \"#utility.yul\":1824:1967   */\n  swap3\n  swap2\n  pop\n  pop\n  jump\t// out\n    /* \"#utility.yul\":1990:2722   */\ntag_29:\n    /* \"#utility.yul\":2097:2102   */\n  0x00\n    /* \"#utility.yul\":2122:2203   */\n  tag_58\n    /* \"#utility.yul\":2138:2202   */\n  tag_59\n    /* \"#utility.yul\":2195:2201   */\n  dup5\n    /* \"#utility.yul\":2138:2202   */\n  tag_24\n  jump\t// in\ntag_59:\n    /* \"#utility.yul\":2122:2203   */\n  tag_23\n  jump\t// in\ntag_58:\n    /* \"#utility.yul\":2113:2203   */\n  swap1\n  pop\n    /* \"#utility.yul\":2223:2228   */\n  dup1\n    /* \"#utility.yul\":2252:2258   */\n  dup4\n    /* \"#utility.yul\":2245:2250   */\n  dup3\n    /* \"#utility.yul\":2238:2259   */\n  mstore\n    /* \"#utility.yul\":2286:2290   */\n  0x20\n    /* \"#utility.yul\":2279:2284   */\n  dup3\n    /* \"#utility.yul\":2275:2291   */\n  add\n    /* \"#utility.yul\":2268:2291   */\n  swap1\n  pop\n    /* \"#utility.yul\":2339:2343   */\n  0x20\n    /* \"#utility.yul\":2331:2337   */\n  dup5\n    /* \"#utility.yul\":2327:2344   */\n  mul\n    /* \"#utility.yul\":2319:2325   */\n  dup4\n    /* \"#utility.yul\":2315:2345   */\n  add\n    /* \"#utility.yul\":2368:2371   */\n  dup6\n    /* \"#utility.yul\":2360:2366   */\n  dup2\n    /* \"#utility.yul\":2357:2372   */\n  gt\n    /* \"#utility.yul\":2354:2476   */\n  iszero\n  tag_60\n  jumpi\n    /* \"#utility.yul\":2387:2466   */\n  tag_61\n  tag_25\n  jump\t// in\ntag_61:\n    /* \"#utility.yul\":2354:2476   */\ntag_60:\n    /* \"#utility.yul\":2502:2508   */\n  dup4\n    /* \"#utility.yul\":2485:2716   */\ntag_62:\n    /* \"#utility.yul\":2519:2525   */\n  dup2\n    /* \"#utility.yul\":2514:2517   */\n  dup2\n    /* \"#utility.yul\":2511:2526   */\n  lt\n    /* \"#utility.yul\":2485:2716   */\n  iszero\n  tag_64\n  jumpi\n    /* \"#utility.yul\":2594:2597   */\n  dup1\n    /* \"#utility.yul\":2623:2671   */\n  tag_65\n    /* \"#utility.yul\":2667:2670   */\n  dup9\n    /* \"#utility.yul\":2655:2665   */\n  dup3\n    /* \"#utility.yul\":2623:2671   */\n  tag_28\n  jump\t// in\ntag_65:\n    /* \"#utility.yul\":2618:2621   */\n  dup5\n    /* \"#utility.yul\":2611:2672   */\n  mstore\n    /* \"#utility.yul\":2701:2705   */\n  0x20\n    /* \"#utility.yul\":2696:2699   */\n  dup5\n    /* \"#utility.yul\":2692:2706   */\n  add\n    /* \"#utility.yul\":2685:2706   */\n  swap4\n  pop\n    /* \"#utility.yul\":2561:2716   */\n  pop\n    /* \"#utility.yul\":2545:2549   */\n  0x20\n    /* \"#utility.yul\":2540:2543   */\n  dup2\n    /* \"#utility.yul\":2536:2550   */\n  add\n    /* \"#utility.yul\":2529:2550   */\n  swap1\n  pop\n    /* \"#utility.yul\":2485:2716   */\n  jump(tag_62)\ntag_64:\n    /* \"#utility.yul\":2489:2510   */\n  pop\n    /* \"#utility.yul\":2103:2722   */\n  pop\n  pop\n    /* \"#utility.yul\":1990:2722   */\n  swap4\n  swap3\n  pop\n  pop\n  pop\n  jump\t// out\n    /* \"#utility.yul\":2745:3130   */\ntag_30:\n    /* \"#utility.yul\":2827:2832   */\n  0x00\n    /* \"#utility.yul\":2876:2879   */\n  dup3\n    /* \"#utility.yul\":2869:2873   */\n  0x1f\n    /* \"#utility.yul\":2861:2867   */\n  dup4\n    /* \"#utility.yul\":2857:2874   */\n  add\n    /* \"#utility.yul\":2853:2880   */\n  slt\n    /* \"#utility.yul\":2843:2965   */\n  tag_67\n  jumpi\n    /* \"#utility.yul\":2884:2963   */\n  tag_68\n  tag_19\n  jump\t// in\ntag_68:\n    /* \"#utility.yul\":2843:2965   */\ntag_67:\n    /* \"#utility.yul\":2994:3000   */\n  dup2\n    /* \"#utility.yul\":2988:3001   */\n  mload\n    /* \"#utility.yul\":3019:3124   */\n  tag_69\n    /* \"#utility.yul\":3120:3123   */\n  dup5\n    /* \"#utility.yul\":3112:3118   */\n  dup3\n    /* \"#utility.yul\":3105:3109   */\n  0x20\n    /* \"#utility.yul\":3097:3103   */\n  dup7\n    /* \"#utility.yul\":3093:3110   */\n  add\n    /* \"#utility.yul\":3019:3124   */\n  tag_29\n  jump\t// in\ntag_69:\n    /* \"#utility.yul\":3010:3124   */\n  swap2\n  pop\n    /* \"#utility.yul\":2833:3130   */\n  pop\n    /* \"#utility.yul\":2745:3130   */\n  swap3\n  swap2\n  pop\n  pop\n  jump\t// out\n    /* \"#utility.yul\":3136:3690   */\ntag_3:\n    /* \"#utility.yul\":3231:3237   */\n  0x00\n    /* \"#utility.yul\":3280:3282   */\n  0x20\n    /* \"#utility.yul\":3268:3277   */\n  dup3\n    /* \"#utility.yul\":3259:3266   */\n  dup5\n    /* \"#utility.yul\":3255:3278   */\n  sub\n    /* \"#utility.yul\":3251:3283   */\n  slt\n    /* \"#utility.yul\":3248:3367   */\n  iszero\n  tag_71\n  jumpi\n    /* \"#utility.yul\":3286:3365   */\n  tag_72\n  tag_17\n  jump\t// in\ntag_72:\n    /* \"#utility.yul\":3248:3367   */\ntag_71:\n    /* \"#utility.yul\":3427:3428   */\n  0x00\n    /* \"#utility.yul\":3416:3425   */\n  dup3\n    /* \"#utility.yul\":3412:3429   */\n  add\n    /* \"#utility.yul\":3406:3430   */\n  mload\n    /* \"#utility.yul\":3457:3475   */\n  0xffffffffffffffff\n    /* \"#utility.yul\":3449:3455   */\n  dup2\n    /* \"#utility.yul\":3446:3476   */\n  gt\n    /* \"#utility.yul\":3443:3560   */\n  iszero\n  tag_73\n  jumpi\n    /* \"#utility.yul\":3479:3558   */\n  tag_74\n  tag_18\n  jump\t// in\ntag_74:\n    /* \"#utility.yul\":3443:3560   */\ntag_73:\n    /* \"#utility.yul\":3584:3673   */\n  tag_75\n    /* \"#utility.yul\":3665:3672   */\n  dup5\n    /* \"#utility.yul\":3656:3662   */\n  dup3\n    /* \"#utility.yul\":3645:3654   */\n  dup6\n    /* \"#utility.yul\":3641:3663   */\n  add\n    /* \"#utility.yul\":3584:3673   */\n  tag_30\n  jump\t// in\ntag_75:\n    /* \"#utility.yul\":3574:3673   */\n  swap2\n  pop\n    /* \"#utility.yul\":3377:3683   */\n  pop\n    /* \"#utility.yul\":3136:3690   */\n  swap3\n  swap2\n  pop\n  pop\n  jump\t// out\n    /* \"#utility.yul\":3696:3876   */\ntag_11:\n    /* \"#utility.yul\":3744:3821   */\n  0x4e487b7100000000000000000000000000000000000000000000000000000000\n    /* \"#utility.yul\":3741:3742   */\n  0x00\n    /* \"#utility.yul\":3734:3822   */\n  mstore\n    /* \"#utility.yul\":3841:3845   */\n  0x32\n    /* \"#utility.yul\":3838:3839   */\n  0x04\n    /* \"#utility.yul\":3831:3846   */\n  mstore\n    /* \"#utility.yul\":3865:3869   */\n  0x24\n    /* \"#utility.yul\":3862:3863   */\n  0x00\n    /* \"#utility.yul\":3855:3870   */\n  revert\n    /* \"#utility.yul\":3882:4062   */\ntag_31:\n    /* \"#utility.yul\":3930:4007   */\n  0x4e487b7100000000000000000000000000000000000000000000000000000000\n    /* \"#utility.yul\":3927:3928   */\n  0x00\n    /* \"#utility.yul\":3920:4008   */\n  mstore\n    /* \"#utility.yul\":4027:4031   */\n  0x11\n    /* \"#utility.yul\":4024:4025   */\n  0x04\n    /* \"#utility.yul\":4017:4032   */\n  mstore\n    /* \"#utility.yul\":4051:4055   */\n  0x24\n    /* \"#utility.yul\":4048:4049   */\n  0x00\n    /* \"#utility.yul\":4041:4056   */\n  revert\n    /* \"#utility.yul\":4068:4145   */\ntag_32:\n    /* \"#utility.yul\":4105:4112   */\n  0x00\n    /* \"#utility.yul\":4134:4139   */\n  dup2\n    /* \"#utility.yul\":4123:4139   */\n  swap1\n  pop\n    /* \"#utility.yul\":4068:4145   */\n  swap2\n  swap1\n  pop\n  jump\t// out\n    /* \"#utility.yul\":4151:4384   */\ntag_14:\n    /* \"#utility.yul\":4190:4193   */\n  0x00\n    /* \"#utility.yul\":4213:4237   */\n  tag_80\n    /* \"#utility.yul\":4231:4236   */\n  dup3\n    /* \"#utility.yul\":4213:4237   */\n  tag_32\n  jump\t// in\ntag_80:\n    /* \"#utility.yul\":4204:4237   */\n  swap2\n  pop\n    /* \"#utility.yul\":4259:4325   */\n  0xffffffffffffffffffffffffffffffffffffffffffffffffffffffffffffffff\n    /* \"#utility.yul\":4252:4257   */\n  dup3\n    /* \"#utility.yul\":4249:4326   */\n  sub\n    /* \"#utility.yul\":4246:4349   */\n  tag_81\n  jumpi\n    /* \"#utility.yul\":4329:4347   */\n  tag_82\n  tag_31\n  jump\t// in\ntag_82:\n    /* \"#utility.yul\":4246:4349   */\ntag_81:\n    /* \"#utility.yul\":4376:4377   */\n  0x01\n    /* \"#utility.yul\":4369:4374   */\n  dup3\n    /* \"#utility.yul\":4365:4378   */\n  add\n    /* \"#utility.yul\":4358:4378   */\n  swap1\n  pop\n    /* \"#utility.yul\":4151:4384   */\n  swap2\n  swap1\n  pop\n  jump\t// out\n    /* \"contracts/Ballot.sol\":66:3524  contract Ballot {... */\ntag_15:\n  dataSize(sub_0)\n  dup1\n  dataOffset(sub_0)\n  0x00\n  codecopy\n  0x00\n  return\nstop\n\nsub_0: assembly {\n        /* \"contracts/Ballot.sol\":66:3524  contract Ballot {... */\n      mstore(0x40, 0x80)\n      callvalue\n      dup1\n      iszero\n      tag_1\n      jumpi\n      0x00\n      dup1\n      revert\n    tag_1:\n      pop\n      jumpi(tag_2, lt(calldatasize, 0x04))\n      shr(0xe0, calldataload(0x00))\n      dup1\n      0x609ff1bd\n      gt\n      tag_11\n      jumpi\n      dup1\n      0x609ff1bd\n      eq\n      tag_7\n      jumpi\n      dup1\n      0x9e7b8d61\n      eq\n      tag_8\n      jumpi\n      dup1\n      0xa3ec138d\n      eq\n      tag_9\n      jumpi\n      dup1\n      0xe2ba53f0\n      eq\n      tag_10\n      jumpi\n      jump(tag_2)\n    tag_11:\n      dup1\n      0x0121b93f\n      eq\n      tag_3\n      jumpi\n      dup1\n      0x013cf08b\n      eq\n      tag_4\n      jumpi\n      dup1\n      0x2e4176cf\n      eq\n      tag_5\n      jumpi\n      dup1\n      0x5c19a95c\n      eq\n      tag_6\n      jumpi\n    tag_2:\n      0x00\n      dup1\n      revert\n        /* \"contracts/Ballot.sol\":2765:2978  function vote(uint proposal) public {... */\n    tag_3:\n      tag_12\n      0x04\n      dup1\n      calldatasize\n      sub\n      dup2\n      add\n      swap1\n      tag_13\n      swap2\n      swap1\n      tag_14\n      jump\t// in\n    tag_13:\n      tag_15\n      jump\t// in\n    tag_12:\n      stop\n        /* \"contracts/Ballot.sol\":523:550  Proposal[] public proposals */\n    tag_4:\n      tag_16\n      0x04\n      dup1\n      calldatasize\n      sub\n      dup2\n      add\n      swap1\n      tag_17\n      swap2\n      swap1\n      tag_14\n      jump\t// in\n    tag_17:\n      tag_18\n      jump\t// in\n    tag_16:\n      mload(0x40)\n      tag_19\n      swap3\n      swap2\n      swap1\n      tag_20\n      jump\t// in\n    tag_19:\n      mload(0x40)\n      dup1\n      swap2\n      sub\n      swap1\n      return\n        /* \"contracts/Ballot.sol\":335:361  address public chairperson */\n    tag_5:\n      tag_21\n      tag_22\n      jump\t// in\n    tag_21:\n      mload(0x40)\n      tag_23\n      swap2\n      swap1\n      tag_24\n      jump\t// in\n    tag_23:\n      mload(0x40)\n      dup1\n      swap2\n      sub\n      swap1\n      return\n        /* \"contracts/Ballot.sol\":1557:2745  function delegate(address to) public {... */\n    tag_6:\n      tag_25\n      0x04\n      dup1\n      calldatasize\n      sub\n      dup2\n      add\n      swap1\n      tag_26\n      swap2\n      swap1\n      tag_27\n      jump\t// in\n    tag_26:\n      tag_28\n      jump\t// in\n    tag_25:\n      stop\n        /* \"contracts/Ballot.sol\":3008:3352  function winningProposal() public view returns(uint winningProposal_){... */\n    tag_7:\n      tag_29\n      tag_30\n      jump\t// in\n    tag_29:\n      mload(0x40)\n      tag_31\n      swap2\n      swap1\n      tag_32\n      jump\t// in\n    tag_31:\n      mload(0x40)\n      dup1\n      swap2\n      sub\n      swap1\n      return\n        /* \"contracts/Ballot.sol\":1105:1551  function giveRightToVote(address voter) public{... */\n    tag_8:\n      tag_33\n      0x04\n      dup1\n      calldatasize\n      sub\n      dup2\n      add\n      swap1\n      tag_34\n      swap2\n      swap1\n      tag_27\n      jump\t// in\n    tag_34:\n      tag_35\n      jump\t// in\n    tag_33:\n      stop\n        /* \"contracts/Ballot.sol\":441:480  mapping(address => Voter) public voters */\n    tag_9:\n      tag_36\n      0x04\n      dup1\n      calldatasize\n      sub\n      dup2\n      add\n      swap1\n      tag_37\n      swap2\n      swap1\n      tag_27\n      jump\t// in\n    tag_37:\n      tag_38\n      jump\t// in\n    tag_36:\n      mload(0x40)\n      tag_39\n      swap5\n      swap4\n      swap3\n      swap2\n      swap1\n      tag_40\n      jump\t// in\n    tag_39:\n      mload(0x40)\n      dup1\n      swap2\n      sub\n      swap1\n      return\n        /* \"contracts/Ballot.sol\":3393:3520  function winnerName() public view returns(bytes32 winnerName_) {... */\n    tag_10:\n      tag_41\n      tag_42\n      jump\t// in\n    tag_41:\n      mload(0x40)\n      tag_43\n      swap2\n      swap1\n      tag_44\n      jump\t// in\n    tag_43:\n      mload(0x40)\n      dup1\n      swap2\n      sub\n      swap1\n      return\n        /* \"contracts/Ballot.sol\":2765:2978  function vote(uint proposal) public {... */\n    tag_15:\n        /* \"contracts/Ballot.sol\":2811:2831  Voter storage sender */\n      0x00\n        /* \"contracts/Ballot.sol\":2834:2840  voters */\n      0x01\n        /* \"contracts/Ballot.sol\":2834:2852  voters[msg.sender] */\n      0x00\n        /* \"contracts/Ballot.sol\":2841:2851  msg.sender */\n      caller\n        /* \"contracts/Ballot.sol\":2834:2852  voters[msg.sender] */\n      0xffffffffffffffffffffffffffffffffffffffff\n      and\n      0xffffffffffffffffffffffffffffffffffffffff\n      and\n      dup2\n      mstore\n      0x20\n      add\n      swap1\n      dup2\n      mstore\n      0x20\n      add\n      0x00\n      keccak256\n        /* \"contracts/Ballot.sol\":2811:2852  Voter storage sender = voters[msg.sender] */\n      swap1\n      pop\n        /* \"contracts/Ballot.sol\":2871:2877  sender */\n      dup1\n        /* \"contracts/Ballot.sol\":2871:2883  sender.voted */\n      0x01\n      add\n      0x00\n      swap1\n      sload\n      swap1\n      0x0100\n      exp\n      swap1\n      div\n      0xff\n      and\n        /* \"contracts/Ballot.sol\":2870:2883  !sender.voted */\n      iszero\n        /* \"contracts/Ballot.sol\":2862:2900  require(!sender.voted, \"Alredy voted\") */\n      tag_46\n      jumpi\n      mload(0x40)\n      0x08c379a000000000000000000000000000000000000000000000000000000000\n      dup2\n      mstore\n      0x04\n      add\n      tag_47\n      swap1\n      tag_48\n      jump\t// in\n    tag_47:\n      mload(0x40)\n      dup1\n      swap2\n      sub\n      swap1\n      revert\n    tag_46:\n        /* \"contracts/Ballot.sol\":2925:2929  true */\n      0x01\n        /* \"contracts/Ballot.sol\":2910:2916  sender */\n      dup2\n        /* \"contracts/Ballot.sol\":2910:2922  sender.voted */\n      0x01\n      add\n      0x00\n        /* \"contracts/Ballot.sol\":2910:2929  sender.voted = true */\n      0x0100\n      exp\n      dup2\n      sload\n      dup2\n      0xff\n      mul\n      not\n      and\n      swap1\n      dup4\n      iszero\n      iszero\n      mul\n      or\n      swap1\n      sstore\n      pop\n        /* \"contracts/Ballot.sol\":2953:2961  proposal */\n      dup2\n        /* \"contracts/Ballot.sol\":2939:2945  sender */\n      dup2\n        /* \"contracts/Ballot.sol\":2939:2950  sender.vote */\n      0x02\n      add\n        /* \"contracts/Ballot.sol\":2939:2961  sender.vote = proposal */\n      dup2\n      swap1\n      sstore\n      pop\n        /* \"contracts/Ballot.sol\":2801:2978  {... */\n      pop\n        /* \"contracts/Ballot.sol\":2765:2978  function vote(uint proposal) public {... */\n      pop\n      jump\t// out\n        /* \"contracts/Ballot.sol\":523:550  Proposal[] public proposals */\n    tag_18:\n      0x02\n      dup2\n      dup2\n      sload\n      dup2\n      lt\n      tag_49\n      jumpi\n      0x00\n      dup1\n      revert\n    tag_49:\n      swap1\n      0x00\n      mstore\n      keccak256(0x00, 0x20)\n      swap1\n      0x02\n      mul\n      add\n      0x00\n      swap2\n      pop\n      swap1\n      pop\n      dup1\n      0x00\n      add\n      sload\n      swap1\n      dup1\n      0x01\n      add\n      sload\n      swap1\n      pop\n      dup3\n      jump\t// out\n        /* \"contracts/Ballot.sol\":335:361  address public chairperson */\n    tag_22:\n      0x00\n      dup1\n      sload\n      swap1\n      0x0100\n      exp\n      swap1\n      div\n      0xffffffffffffffffffffffffffffffffffffffff\n      and\n      dup2\n      jump\t// out\n        /* \"contracts/Ballot.sol\":1557:2745  function delegate(address to) public {... */\n    tag_28:\n        /* \"contracts/Ballot.sol\":1649:1669  Voter storage sender */\n      0x00\n        /* \"contracts/Ballot.sol\":1672:1678  voters */\n      0x01\n        /* \"contracts/Ballot.sol\":1672:1690  voters[msg.sender] */\n      0x00\n        /* \"contracts/Ballot.sol\":1679:1689  msg.sender */\n      caller\n        /* \"contracts/Ballot.sol\":1672:1690  voters[msg.sender] */\n      0xffffffffffffffffffffffffffffffffffffffff\n      and\n      0xffffffffffffffffffffffffffffffffffffffff\n      and\n      dup2\n      mstore\n      0x20\n      add\n      swap1\n      dup2\n      mstore\n      0x20\n      add\n      0x00\n      keccak256\n        /* \"contracts/Ballot.sol\":1649:1690  Voter storage sender = voters[msg.sender] */\n      swap1\n      pop\n        /* \"contracts/Ballot.sol\":1745:1751  sender */\n      dup1\n        /* \"contracts/Ballot.sol\":1745:1757  sender.voted */\n      0x01\n      add\n      0x00\n      swap1\n      sload\n      swap1\n      0x0100\n      exp\n      swap1\n      div\n      0xff\n      and\n        /* \"contracts/Ballot.sol\":1744:1757  !sender.voted */\n      iszero\n        /* \"contracts/Ballot.sol\":1736:1779  require(!sender.voted, \"You already voted\") */\n      tag_52\n      jumpi\n      mload(0x40)\n      0x08c379a000000000000000000000000000000000000000000000000000000000\n      dup2\n      mstore\n      0x04\n      add\n      tag_53\n      swap1\n      tag_54\n      jump\t// in\n    tag_53:\n      mload(0x40)\n      dup1\n      swap2\n      sub\n      swap1\n      revert\n    tag_52:\n        /* \"contracts/Ballot.sol\":1875:1885  msg.sender */\n      caller\n        /* \"contracts/Ballot.sol\":1869:1885  to != msg.sender */\n      0xffffffffffffffffffffffffffffffffffffffff\n      and\n        /* \"contracts/Ballot.sol\":1869:1871  to */\n      dup3\n        /* \"contracts/Ballot.sol\":1869:1885  to != msg.sender */\n      0xffffffffffffffffffffffffffffffffffffffff\n      and\n      sub\n        /* \"contracts/Ballot.sol\":1861:1920  require(to != msg.sender, \"Self-delegation is disallowed.\") */\n      tag_55\n      jumpi\n      mload(0x40)\n      0x08c379a000000000000000000000000000000000000000000000000000000000\n      dup2\n      mstore\n      0x04\n      add\n      tag_56\n      swap1\n      tag_57\n      jump\t// in\n    tag_56:\n      mload(0x40)\n      dup1\n      swap2\n      sub\n      swap1\n      revert\n    tag_55:\n        /* \"contracts/Ballot.sol\":1990:2318  while (voters[to].delegate != address(0)) {... */\n    tag_58:\n        /* \"contracts/Ballot.sol\":2028:2029  0 */\n      0x00\n        /* \"contracts/Ballot.sol\":1997:2030  voters[to].delegate != address(0) */\n      0xffffffffffffffffffffffffffffffffffffffff\n      and\n        /* \"contracts/Ballot.sol\":1997:2003  voters */\n      0x01\n        /* \"contracts/Ballot.sol\":1997:2007  voters[to] */\n      0x00\n        /* \"contracts/Ballot.sol\":2004:2006  to */\n      dup5\n        /* \"contracts/Ballot.sol\":1997:2007  voters[to] */\n      0xffffffffffffffffffffffffffffffffffffffff\n      and\n      0xffffffffffffffffffffffffffffffffffffffff\n      and\n      dup2\n      mstore\n      0x20\n      add\n      swap1\n      dup2\n      mstore\n      0x20\n      add\n      0x00\n      keccak256\n        /* \"contracts/Ballot.sol\":1997:2016  voters[to].delegate */\n      0x01\n      add\n      0x01\n      swap1\n      sload\n      swap1\n      0x0100\n      exp\n      swap1\n      div\n      0xffffffffffffffffffffffffffffffffffffffff\n      and\n        /* \"contracts/Ballot.sol\":1997:2030  voters[to].delegate != address(0) */\n      0xffffffffffffffffffffffffffffffffffffffff\n      and\n      eq\n        /* \"contracts/Ballot.sol\":1990:2318  while (voters[to].delegate != address(0)) {... */\n      tag_59\n      jumpi\n        /* \"contracts/Ballot.sol\":2103:2109  voters */\n      0x01\n        /* \"contracts/Ballot.sol\":2103:2113  voters[to] */\n      0x00\n        /* \"contracts/Ballot.sol\":2110:2112  to */\n      dup4\n        /* \"contracts/Ballot.sol\":2103:2113  voters[to] */\n      0xffffffffffffffffffffffffffffffffffffffff\n      and\n      0xffffffffffffffffffffffffffffffffffffffff\n      and\n      dup2\n      mstore\n      0x20\n      add\n      swap1\n      dup2\n      mstore\n      0x20\n      add\n      0x00\n      keccak256\n        /* \"contracts/Ballot.sol\":2103:2122  voters[to].delegate */\n      0x01\n      add\n      0x01\n      swap1\n      sload\n      swap1\n      0x0100\n      exp\n      swap1\n      div\n      0xffffffffffffffffffffffffffffffffffffffff\n      and\n        /* \"contracts/Ballot.sol\":2098:2122  to = voters[to].delegate */\n      swap2\n      pop\n        /* \"contracts/Ballot.sol\":2268:2278  msg.sender */\n      caller\n        /* \"contracts/Ballot.sol\":2262:2278  to != msg.sender */\n      0xffffffffffffffffffffffffffffffffffffffff\n      and\n        /* \"contracts/Ballot.sol\":2262:2264  to */\n      dup3\n        /* \"contracts/Ballot.sol\":2262:2278  to != msg.sender */\n      0xffffffffffffffffffffffffffffffffffffffff\n      and\n      sub\n        /* \"contracts/Ballot.sol\":2254:2307  require(to != msg.sender, \"Found loop in delegation\") */\n      tag_60\n      jumpi\n      mload(0x40)\n      0x08c379a000000000000000000000000000000000000000000000000000000000\n      dup2\n      mstore\n      0x04\n      add\n      tag_61\n      swap1\n      tag_62\n      jump\t// in\n    tag_61:\n      mload(0x40)\n      dup1\n      swap2\n      sub\n      swap1\n      revert\n    tag_60:\n        /* \"contracts/Ballot.sol\":1990:2318  while (voters[to].delegate != address(0)) {... */\n      jump(tag_58)\n    tag_59:\n        /* \"contracts/Ballot.sol\":2343:2347  true */\n      0x01\n        /* \"contracts/Ballot.sol\":2328:2334  sender */\n      dup2\n        /* \"contracts/Ballot.sol\":2328:2340  sender.voted */\n      0x01\n      add\n      0x00\n        /* \"contracts/Ballot.sol\":2328:2347  sender.voted = true */\n      0x0100\n      exp\n      dup2\n      sload\n      dup2\n      0xff\n      mul\n      not\n      and\n      swap1\n      dup4\n      iszero\n      iszero\n      mul\n      or\n      swap1\n      sstore\n      pop\n        /* \"contracts/Ballot.sol\":2375:2377  to */\n      dup2\n        /* \"contracts/Ballot.sol\":2357:2363  sender */\n      dup2\n        /* \"contracts/Ballot.sol\":2357:2372  sender.delegate */\n      0x01\n      add\n      0x01\n        /* \"contracts/Ballot.sol\":2357:2377  sender.delegate = to */\n      0x0100\n      exp\n      dup2\n      sload\n      dup2\n      0xffffffffffffffffffffffffffffffffffffffff\n      mul\n      not\n      and\n      swap1\n      dup4\n      0xffffffffffffffffffffffffffffffffffffffff\n      and\n      mul\n      or\n      swap1\n      sstore\n      pop\n        /* \"contracts/Ballot.sol\":2387:2410  Voter storage delegate_ */\n      0x00\n        /* \"contracts/Ballot.sol\":2413:2419  voters */\n      0x01\n        /* \"contracts/Ballot.sol\":2413:2423  voters[to] */\n      0x00\n        /* \"contracts/Ballot.sol\":2420:2422  to */\n      dup5\n        /* \"contracts/Ballot.sol\":2413:2423  voters[to] */\n      0xffffffffffffffffffffffffffffffffffffffff\n      and\n      0xffffffffffffffffffffffffffffffffffffffff\n      and\n      dup2\n      mstore\n      0x20\n      add\n      swap1\n      dup2\n      mstore\n      0x20\n      add\n      0x00\n      keccak256\n        /* \"contracts/Ballot.sol\":2387:2423  Voter storage delegate_ = voters[to] */\n      swap1\n      pop\n        /* \"contracts/Ballot.sol\":2437:2446  delegate_ */\n      dup1\n        /* \"contracts/Ballot.sol\":2437:2452  delegate_.voted */\n      0x01\n      add\n      0x00\n      swap1\n      sload\n      swap1\n      0x0100\n      exp\n      swap1\n      div\n      0xff\n      and\n        /* \"contracts/Ballot.sol\":2433:2738  if (delegate_.voted) {... */\n      iszero\n      tag_63\n      jumpi\n        /* \"contracts/Ballot.sol\":2580:2586  sender */\n      dup2\n        /* \"contracts/Ballot.sol\":2580:2593  sender.weight */\n      0x00\n      add\n      sload\n        /* \"contracts/Ballot.sol\":2541:2550  proposals */\n      0x02\n        /* \"contracts/Ballot.sol\":2551:2560  delegate_ */\n      dup3\n        /* \"contracts/Ballot.sol\":2551:2565  delegate_.vote */\n      0x02\n      add\n      sload\n        /* \"contracts/Ballot.sol\":2541:2566  proposals[delegate_.vote] */\n      dup2\n      sload\n      dup2\n      lt\n      tag_64\n      jumpi\n      tag_65\n      tag_66\n      jump\t// in\n    tag_65:\n    tag_64:\n      swap1\n      0x00\n      mstore\n      keccak256(0x00, 0x20)\n      swap1\n      0x02\n      mul\n      add\n        /* \"contracts/Ballot.sol\":2541:2576  proposals[delegate_.vote].voteCount */\n      0x01\n      add\n      0x00\n        /* \"contracts/Ballot.sol\":2541:2593  proposals[delegate_.vote].voteCount += sender.weight */\n      dup3\n      dup3\n      sload\n      tag_68\n      swap2\n      swap1\n      tag_69\n      jump\t// in\n    tag_68:\n      swap3\n      pop\n      pop\n      dup2\n      swap1\n      sstore\n      pop\n        /* \"contracts/Ballot.sol\":2433:2738  if (delegate_.voted) {... */\n      jump(tag_70)\n    tag_63:\n        /* \"contracts/Ballot.sol\":2714:2720  sender */\n      dup2\n        /* \"contracts/Ballot.sol\":2714:2727  sender.weight */\n      0x00\n      add\n      sload\n        /* \"contracts/Ballot.sol\":2694:2703  delegate_ */\n      dup2\n        /* \"contracts/Ballot.sol\":2694:2710  delegate_.weight */\n      0x00\n      add\n      0x00\n        /* \"contracts/Ballot.sol\":2694:2727  delegate_.weight += sender.weight */\n      dup3\n      dup3\n      sload\n      tag_71\n      swap2\n      swap1\n      tag_69\n      jump\t// in\n    tag_71:\n      swap3\n      pop\n      pop\n      dup2\n      swap1\n      sstore\n      pop\n        /* \"contracts/Ballot.sol\":2433:2738  if (delegate_.voted) {... */\n    tag_70:\n        /* \"contracts/Ballot.sol\":1594:2745  {... */\n      pop\n      pop\n        /* \"contracts/Ballot.sol\":1557:2745  function delegate(address to) public {... */\n      pop\n      jump\t// out\n        /* \"contracts/Ballot.sol\":3008:3352  function winningProposal() public view returns(uint winningProposal_){... */\n    tag_30:\n        /* \"contracts/Ballot.sol\":3055:3076  uint winningProposal_ */\n      0x00\n        /* \"contracts/Ballot.sol\":3087:3108  uint winningVoteCount */\n      dup1\n        /* \"contracts/Ballot.sol\":3111:3112  0 */\n      0x00\n        /* \"contracts/Ballot.sol\":3087:3112  uint winningVoteCount = 0 */\n      swap1\n      pop\n        /* \"contracts/Ballot.sol\":3127:3133  uint p */\n      0x00\n        /* \"contracts/Ballot.sol\":3122:3346  for (uint p = 0; p< proposals.length; p++) {... */\n    tag_73:\n        /* \"contracts/Ballot.sol\":3142:3151  proposals */\n      0x02\n        /* \"contracts/Ballot.sol\":3142:3158  proposals.length */\n      dup1\n      sload\n      swap1\n      pop\n        /* \"contracts/Ballot.sol\":3139:3140  p */\n      dup2\n        /* \"contracts/Ballot.sol\":3139:3158  p< proposals.length */\n      lt\n        /* \"contracts/Ballot.sol\":3122:3346  for (uint p = 0; p< proposals.length; p++) {... */\n      iszero\n      tag_74\n      jumpi\n        /* \"contracts/Ballot.sol\":3208:3224  winningVoteCount */\n      dup2\n        /* \"contracts/Ballot.sol\":3183:3192  proposals */\n      0x02\n        /* \"contracts/Ballot.sol\":3193:3194  p */\n      dup3\n        /* \"contracts/Ballot.sol\":3183:3195  proposals[p] */\n      dup2\n      sload\n      dup2\n      lt\n      tag_76\n      jumpi\n      tag_77\n      tag_66\n      jump\t// in\n    tag_77:\n    tag_76:\n      swap1\n      0x00\n      mstore\n      keccak256(0x00, 0x20)\n      swap1\n      0x02\n      mul\n      add\n        /* \"contracts/Ballot.sol\":3183:3205  proposals[p].voteCount */\n      0x01\n      add\n      sload\n        /* \"contracts/Ballot.sol\":3183:3224  proposals[p].voteCount > winningVoteCount */\n      gt\n        /* \"contracts/Ballot.sol\":3179:3336  if (proposals[p].voteCount > winningVoteCount) {... */\n      iszero\n      tag_79\n      jumpi\n        /* \"contracts/Ballot.sol\":3262:3271  proposals */\n      0x02\n        /* \"contracts/Ballot.sol\":3272:3273  p */\n      dup2\n        /* \"contracts/Ballot.sol\":3262:3274  proposals[p] */\n      dup2\n      sload\n      dup2\n      lt\n      tag_80\n      jumpi\n      tag_81\n      tag_66\n      jump\t// in\n    tag_81:\n    tag_80:\n      swap1\n      0x00\n      mstore\n      keccak256(0x00, 0x20)\n      swap1\n      0x02\n      mul\n      add\n        /* \"contracts/Ballot.sol\":3262:3284  proposals[p].voteCount */\n      0x01\n      add\n      sload\n        /* \"contracts/Ballot.sol\":3243:3284  winningVoteCount = proposals[p].voteCount */\n      swap2\n      pop\n        /* \"contracts/Ballot.sol\":3320:3321  p */\n      dup1\n        /* \"contracts/Ballot.sol\":3301:3321  winningProposal_ = p */\n      swap3\n      pop\n        /* \"contracts/Ballot.sol\":3179:3336  if (proposals[p].voteCount > winningVoteCount) {... */\n    tag_79:\n        /* \"contracts/Ballot.sol\":3160:3163  p++ */\n      dup1\n      dup1\n      tag_83\n      swap1\n      tag_84\n      jump\t// in\n    tag_83:\n      swap2\n      pop\n      pop\n        /* \"contracts/Ballot.sol\":3122:3346  for (uint p = 0; p< proposals.length; p++) {... */\n      jump(tag_73)\n    tag_74:\n      pop\n        /* \"contracts/Ballot.sol\":3077:3352  {... */\n      pop\n        /* \"contracts/Ballot.sol\":3008:3352  function winningProposal() public view returns(uint winningProposal_){... */\n      swap1\n      jump\t// out\n        /* \"contracts/Ballot.sol\":1105:1551  function giveRightToVote(address voter) public{... */\n    tag_35:\n        /* \"contracts/Ballot.sol\":1250:1261  chairperson */\n      0x00\n      dup1\n      sload\n      swap1\n      0x0100\n      exp\n      swap1\n      div\n      0xffffffffffffffffffffffffffffffffffffffff\n      and\n        /* \"contracts/Ballot.sol\":1236:1261  msg.sender == chairperson */\n      0xffffffffffffffffffffffffffffffffffffffff\n      and\n        /* \"contracts/Ballot.sol\":1236:1246  msg.sender */\n      caller\n        /* \"contracts/Ballot.sol\":1236:1261  msg.sender == chairperson */\n      0xffffffffffffffffffffffffffffffffffffffff\n      and\n      eq\n        /* \"contracts/Ballot.sol\":1215:1314  require(... */\n      tag_86\n      jumpi\n      mload(0x40)\n      0x08c379a000000000000000000000000000000000000000000000000000000000\n      dup2\n      mstore\n      0x04\n      add\n      tag_87\n      swap1\n      tag_88\n      jump\t// in\n    tag_87:\n      mload(0x40)\n      dup1\n      swap2\n      sub\n      swap1\n      revert\n    tag_86:\n        /* \"contracts/Ballot.sol\":1375:1381  voters */\n      0x01\n        /* \"contracts/Ballot.sol\":1375:1388  voters[voter] */\n      0x00\n        /* \"contracts/Ballot.sol\":1382:1387  voter */\n      dup3\n        /* \"contracts/Ballot.sol\":1375:1388  voters[voter] */\n      0xffffffffffffffffffffffffffffffffffffffff\n      and\n      0xffffffffffffffffffffffffffffffffffffffff\n      and\n      dup2\n      mstore\n      0x20\n      add\n      swap1\n      dup2\n      mstore\n      0x20\n      add\n      0x00\n      keccak256\n        /* \"contracts/Ballot.sol\":1375:1394  voters[voter].voted */\n      0x01\n      add\n      0x00\n      swap1\n      sload\n      swap1\n      0x0100\n      exp\n      swap1\n      div\n      0xff\n      and\n        /* \"contracts/Ballot.sol\":1374:1394  !voters[voter].voted */\n      iszero\n        /* \"contracts/Ballot.sol\":1366:1422  require(!voters[voter].voted, \"The voter already voted\") */\n      tag_89\n      jumpi\n      mload(0x40)\n      0x08c379a000000000000000000000000000000000000000000000000000000000\n      dup2\n      mstore\n      0x04\n      add\n      tag_90\n      swap1\n      tag_91\n      jump\t// in\n    tag_90:\n      mload(0x40)\n      dup1\n      swap2\n      sub\n      swap1\n      revert\n    tag_89:\n        /* \"contracts/Ballot.sol\":1506:1507  0 */\n      0x00\n        /* \"contracts/Ballot.sol\":1482:1488  voters */\n      0x01\n        /* \"contracts/Ballot.sol\":1482:1495  voters[voter] */\n      0x00\n        /* \"contracts/Ballot.sol\":1489:1494  voter */\n      dup4\n        /* \"contracts/Ballot.sol\":1482:1495  voters[voter] */\n      0xffffffffffffffffffffffffffffffffffffffff\n      and\n      0xffffffffffffffffffffffffffffffffffffffff\n      and\n      dup2\n      mstore\n      0x20\n      add\n      swap1\n      dup2\n      mstore\n      0x20\n      add\n      0x00\n      keccak256\n        /* \"contracts/Ballot.sol\":1482:1502  voters[voter].weight */\n      0x00\n      add\n      sload\n        /* \"contracts/Ballot.sol\":1482:1507  voters[voter].weight == 0 */\n      eq\n        /* \"contracts/Ballot.sol\":1474:1508  require(voters[voter].weight == 0) */\n      tag_92\n      jumpi\n      0x00\n      dup1\n      revert\n    tag_92:\n        /* \"contracts/Ballot.sol\":1541:1542  1 */\n      0x01\n        /* \"contracts/Ballot.sol\":1518:1524  voters */\n      dup1\n        /* \"contracts/Ballot.sol\":1518:1531  voters[voter] */\n      0x00\n        /* \"contracts/Ballot.sol\":1525:1530  voter */\n      dup4\n        /* \"contracts/Ballot.sol\":1518:1531  voters[voter] */\n      0xffffffffffffffffffffffffffffffffffffffff\n      and\n      0xffffffffffffffffffffffffffffffffffffffff\n      and\n      dup2\n      mstore\n      0x20\n      add\n      swap1\n      dup2\n      mstore\n      0x20\n      add\n      0x00\n      keccak256\n        /* \"contracts/Ballot.sol\":1518:1538  voters[voter].weight */\n      0x00\n      add\n        /* \"contracts/Ballot.sol\":1518:1542  voters[voter].weight = 1 */\n      dup2\n      swap1\n      sstore\n      pop\n        /* \"contracts/Ballot.sol\":1105:1551  function giveRightToVote(address voter) public{... */\n      pop\n      jump\t// out\n        /* \"contracts/Ballot.sol\":441:480  mapping(address => Voter) public voters */\n    tag_38:\n      mstore(0x20, 0x01)\n      dup1\n      0x00\n      mstore\n      keccak256(0x00, 0x40)\n      0x00\n      swap2\n      pop\n      swap1\n      pop\n      dup1\n      0x00\n      add\n      sload\n      swap1\n      dup1\n      0x01\n      add\n      0x00\n      swap1\n      sload\n      swap1\n      0x0100\n      exp\n      swap1\n      div\n      0xff\n      and\n      swap1\n      dup1\n      0x01\n      add\n      0x01\n      swap1\n      sload\n      swap1\n      0x0100\n      exp\n      swap1\n      div\n      0xffffffffffffffffffffffffffffffffffffffff\n      and\n      swap1\n      dup1\n      0x02\n      add\n      sload\n      swap1\n      pop\n      dup5\n      jump\t// out\n        /* \"contracts/Ballot.sol\":3393:3520  function winnerName() public view returns(bytes32 winnerName_) {... */\n    tag_42:\n        /* \"contracts/Ballot.sol\":3435:3454  bytes32 winnerName_ */\n      0x00\n        /* \"contracts/Ballot.sol\":3480:3489  proposals */\n      0x02\n        /* \"contracts/Ballot.sol\":3490:3507  winningProposal() */\n      tag_94\n        /* \"contracts/Ballot.sol\":3490:3505  winningProposal */\n      tag_30\n        /* \"contracts/Ballot.sol\":3490:3507  winningProposal() */\n      jump\t// in\n    tag_94:\n        /* \"contracts/Ballot.sol\":3480:3508  proposals[winningProposal()] */\n      dup2\n      sload\n      dup2\n      lt\n      tag_95\n      jumpi\n      tag_96\n      tag_66\n      jump\t// in\n    tag_96:\n    tag_95:\n      swap1\n      0x00\n      mstore\n      keccak256(0x00, 0x20)\n      swap1\n      0x02\n      mul\n      add\n        /* \"contracts/Ballot.sol\":3480:3513  proposals[winningProposal()].name */\n      0x00\n      add\n      sload\n        /* \"contracts/Ballot.sol\":3466:3513  winnerName_ = proposals[winningProposal()].name */\n      swap1\n      pop\n        /* \"contracts/Ballot.sol\":3393:3520  function winnerName() public view returns(bytes32 winnerName_) {... */\n      swap1\n      jump\t// out\n        /* \"#utility.yul\":88:205   */\n    tag_99:\n        /* \"#utility.yul\":197:198   */\n      0x00\n        /* \"#utility.yul\":194:195   */\n      dup1\n        /* \"#utility.yul\":187:199   */\n      revert\n        /* \"#utility.yul\":334:411   */\n    tag_101:\n        /* \"#utility.yul\":371:378   */\n      0x00\n        /* \"#utility.yul\":400:405   */\n      dup2\n        /* \"#utility.yul\":389:405   */\n      swap1\n      pop\n        /* \"#utility.yul\":334:411   */\n      swap2\n      swap1\n      pop\n      jump\t// out\n        /* \"#utility.yul\":417:539   */\n    tag_102:\n        /* \"#utility.yul\":490:514   */\n      tag_134\n        /* \"#utility.yul\":508:513   */\n      dup2\n        /* \"#utility.yul\":490:514   */\n      tag_101\n      jump\t// in\n    tag_134:\n        /* \"#utility.yul\":483:488   */\n      dup2\n        /* \"#utility.yul\":480:515   */\n      eq\n        /* \"#utility.yul\":470:533   */\n      tag_135\n      jumpi\n        /* \"#utility.yul\":529:530   */\n      0x00\n        /* \"#utility.yul\":526:527   */\n      dup1\n        /* \"#utility.yul\":519:531   */\n      revert\n        /* \"#utility.yul\":470:533   */\n    tag_135:\n        /* \"#utility.yul\":417:539   */\n      pop\n      jump\t// out\n        /* \"#utility.yul\":545:684   */\n    tag_103:\n        /* \"#utility.yul\":591:596   */\n      0x00\n        /* \"#utility.yul\":629:635   */\n      dup2\n        /* \"#utility.yul\":616:636   */\n      calldataload\n        /* \"#utility.yul\":607:636   */\n      swap1\n      pop\n        /* \"#utility.yul\":645:678   */\n      tag_137\n        /* \"#utility.yul\":672:677   */\n      dup2\n        /* \"#utility.yul\":645:678   */\n      tag_102\n      jump\t// in\n    tag_137:\n        /* \"#utility.yul\":545:684   */\n      swap3\n      swap2\n      pop\n      pop\n      jump\t// out\n        /* \"#utility.yul\":690:1019   */\n    tag_14:\n        /* \"#utility.yul\":749:755   */\n      0x00\n        /* \"#utility.yul\":798:800   */\n      0x20\n        /* \"#utility.yul\":786:795   */\n      dup3\n        /* \"#utility.yul\":777:784   */\n      dup5\n        /* \"#utility.yul\":773:796   */\n      sub\n        /* \"#utility.yul\":769:801   */\n      slt\n        /* \"#utility.yul\":766:885   */\n      iszero\n      tag_139\n      jumpi\n        /* \"#utility.yul\":804:883   */\n      tag_140\n      tag_99\n      jump\t// in\n    tag_140:\n        /* \"#utility.yul\":766:885   */\n    tag_139:\n        /* \"#utility.yul\":924:925   */\n      0x00\n        /* \"#utility.yul\":949:1002   */\n      tag_141\n        /* \"#utility.yul\":994:1001   */\n      dup5\n        /* \"#utility.yul\":985:991   */\n      dup3\n        /* \"#utility.yul\":974:983   */\n      dup6\n        /* \"#utility.yul\":970:992   */\n      add\n        /* \"#utility.yul\":949:1002   */\n      tag_103\n      jump\t// in\n    tag_141:\n        /* \"#utility.yul\":939:1002   */\n      swap2\n      pop\n        /* \"#utility.yul\":895:1012   */\n      pop\n        /* \"#utility.yul\":690:1019   */\n      swap3\n      swap2\n      pop\n      pop\n      jump\t// out\n        /* \"#utility.yul\":1025:1102   */\n    tag_104:\n        /* \"#utility.yul\":1062:1069   */\n      0x00\n        /* \"#utility.yul\":1091:1096   */\n      dup2\n        /* \"#utility.yul\":1080:1096   */\n      swap1\n      pop\n        /* \"#utility.yul\":1025:1102   */\n      swap2\n      swap1\n      pop\n      jump\t// out\n        /* \"#utility.yul\":1108:1226   */\n    tag_105:\n        /* \"#utility.yul\":1195:1219   */\n      tag_144\n        /* \"#utility.yul\":1213:1218   */\n      dup2\n        /* \"#utility.yul\":1195:1219   */\n      tag_104\n      jump\t// in\n    tag_144:\n        /* \"#utility.yul\":1190:1193   */\n      dup3\n        /* \"#utility.yul\":1183:1220   */\n      mstore\n        /* \"#utility.yul\":1108:1226   */\n      pop\n      pop\n      jump\t// out\n        /* \"#utility.yul\":1232:1350   */\n    tag_106:\n        /* \"#utility.yul\":1319:1343   */\n      tag_146\n        /* \"#utility.yul\":1337:1342   */\n      dup2\n        /* \"#utility.yul\":1319:1343   */\n      tag_101\n      jump\t// in\n    tag_146:\n        /* \"#utility.yul\":1314:1317   */\n      dup3\n        /* \"#utility.yul\":1307:1344   */\n      mstore\n        /* \"#utility.yul\":1232:1350   */\n      pop\n      pop\n      jump\t// out\n        /* \"#utility.yul\":1356:1688   */\n    tag_20:\n        /* \"#utility.yul\":1477:1481   */\n      0x00\n        /* \"#utility.yul\":1515:1517   */\n      0x40\n        /* \"#utility.yul\":1504:1513   */\n      dup3\n        /* \"#utility.yul\":1500:1518   */\n      add\n        /* \"#utility.yul\":1492:1518   */\n      swap1\n      pop\n        /* \"#utility.yul\":1528:1599   */\n      tag_148\n        /* \"#utility.yul\":1596:1597   */\n      0x00\n        /* \"#utility.yul\":1585:1594   */\n      dup4\n        /* \"#utility.yul\":1581:1598   */\n      add\n        /* \"#utility.yul\":1572:1578   */\n      dup6\n        /* \"#utility.yul\":1528:1599   */\n      tag_105\n      jump\t// in\n    tag_148:\n        /* \"#utility.yul\":1609:1681   */\n      tag_149\n        /* \"#utility.yul\":1677:1679   */\n      0x20\n        /* \"#utility.yul\":1666:1675   */\n      dup4\n        /* \"#utility.yul\":1662:1680   */\n      add\n        /* \"#utility.yul\":1653:1659   */\n      dup5\n        /* \"#utility.yul\":1609:1681   */\n      tag_106\n      jump\t// in\n    tag_149:\n        /* \"#utility.yul\":1356:1688   */\n      swap4\n      swap3\n      pop\n      pop\n      pop\n      jump\t// out\n        /* \"#utility.yul\":1694:1820   */\n    tag_107:\n        /* \"#utility.yul\":1731:1738   */\n      0x00\n        /* \"#utility.yul\":1771:1813   */\n      0xffffffffffffffffffffffffffffffffffffffff\n        /* \"#utility.yul\":1764:1769   */\n      dup3\n        /* \"#utility.yul\":1760:1814   */\n      and\n        /* \"#utility.yul\":1749:1814   */\n      swap1\n      pop\n        /* \"#utility.yul\":1694:1820   */\n      swap2\n      swap1\n      pop\n      jump\t// out\n        /* \"#utility.yul\":1826:1922   */\n    tag_108:\n        /* \"#utility.yul\":1863:1870   */\n      0x00\n        /* \"#utility.yul\":1892:1916   */\n      tag_152\n        /* \"#utility.yul\":1910:1915   */\n      dup3\n        /* \"#utility.yul\":1892:1916   */\n      tag_107\n      jump\t// in\n    tag_152:\n        /* \"#utility.yul\":1881:1916   */\n      swap1\n      pop\n        /* \"#utility.yul\":1826:1922   */\n      swap2\n      swap1\n      pop\n      jump\t// out\n        /* \"#utility.yul\":1928:2046   */\n    tag_109:\n        /* \"#utility.yul\":2015:2039   */\n      tag_154\n        /* \"#utility.yul\":2033:2038   */\n      dup2\n        /* \"#utility.yul\":2015:2039   */\n      tag_108\n      jump\t// in\n    tag_154:\n        /* \"#utility.yul\":2010:2013   */\n      dup3\n        /* \"#utility.yul\":2003:2040   */\n      mstore\n        /* \"#utility.yul\":1928:2046   */\n      pop\n      pop\n      jump\t// out\n        /* \"#utility.yul\":2052:2274   */\n    tag_24:\n        /* \"#utility.yul\":2145:2149   */\n      0x00\n        /* \"#utility.yul\":2183:2185   */\n      0x20\n        /* \"#utility.yul\":2172:2181   */\n      dup3\n        /* \"#utility.yul\":2168:2186   */\n      add\n        /* \"#utility.yul\":2160:2186   */\n      swap1\n      pop\n        /* \"#utility.yul\":2196:2267   */\n      tag_156\n        /* \"#utility.yul\":2264:2265   */\n      0x00\n        /* \"#utility.yul\":2253:2262   */\n      dup4\n        /* \"#utility.yul\":2249:2266   */\n      add\n        /* \"#utility.yul\":2240:2246   */\n      dup5\n        /* \"#utility.yul\":2196:2267   */\n      tag_109\n      jump\t// in\n    tag_156:\n        /* \"#utility.yul\":2052:2274   */\n      swap3\n      swap2\n      pop\n      pop\n      jump\t// out\n        /* \"#utility.yul\":2280:2402   */\n    tag_110:\n        /* \"#utility.yul\":2353:2377   */\n      tag_158\n        /* \"#utility.yul\":2371:2376   */\n      dup2\n        /* \"#utility.yul\":2353:2377   */\n      tag_108\n      jump\t// in\n    tag_158:\n        /* \"#utility.yul\":2346:2351   */\n      dup2\n        /* \"#utility.yul\":2343:2378   */\n      eq\n        /* \"#utility.yul\":2333:2396   */\n      tag_159\n      jumpi\n        /* \"#utility.yul\":2392:2393   */\n      0x00\n        /* \"#utility.yul\":2389:2390   */\n      dup1\n        /* \"#utility.yul\":2382:2394   */\n      revert\n        /* \"#utility.yul\":2333:2396   */\n    tag_159:\n        /* \"#utility.yul\":2280:2402   */\n      pop\n      jump\t// out\n        /* \"#utility.yul\":2408:2547   */\n    tag_111:\n        /* \"#utility.yul\":2454:2459   */\n      0x00\n        /* \"#utility.yul\":2492:2498   */\n      dup2\n        /* \"#utility.yul\":2479:2499   */\n      calldataload\n        /* \"#utility.yul\":2470:2499   */\n      swap1\n      pop\n        /* \"#utility.yul\":2508:2541   */\n      tag_161\n        /* \"#utility.yul\":2535:2540   */\n      dup2\n        /* \"#utility.yul\":2508:2541   */\n      tag_110\n      jump\t// in\n    tag_161:\n        /* \"#utility.yul\":2408:2547   */\n      swap3\n      swap2\n      pop\n      pop\n      jump\t// out\n        /* \"#utility.yul\":2553:2882   */\n    tag_27:\n        /* \"#utility.yul\":2612:2618   */\n      0x00\n        /* \"#utility.yul\":2661:2663   */\n      0x20\n        /* \"#utility.yul\":2649:2658   */\n      dup3\n        /* \"#utility.yul\":2640:2647   */\n      dup5\n        /* \"#utility.yul\":2636:2659   */\n      sub\n        /* \"#utility.yul\":2632:2664   */\n      slt\n        /* \"#utility.yul\":2629:2748   */\n      iszero\n      tag_163\n      jumpi\n        /* \"#utility.yul\":2667:2746   */\n      tag_164\n      tag_99\n      jump\t// in\n    tag_164:\n        /* \"#utility.yul\":2629:2748   */\n    tag_163:\n        /* \"#utility.yul\":2787:2788   */\n      0x00\n        /* \"#utility.yul\":2812:2865   */\n      tag_165\n        /* \"#utility.yul\":2857:2864   */\n      dup5\n        /* \"#utility.yul\":2848:2854   */\n      dup3\n        /* \"#utility.yul\":2837:2846   */\n      dup6\n        /* \"#utility.yul\":2833:2855   */\n      add\n        /* \"#utility.yul\":2812:2865   */\n      tag_111\n      jump\t// in\n    tag_165:\n        /* \"#utility.yul\":2802:2865   */\n      swap2\n      pop\n        /* \"#utility.yul\":2758:2875   */\n      pop\n        /* \"#utility.yul\":2553:2882   */\n      swap3\n      swap2\n      pop\n      pop\n      jump\t// out\n        /* \"#utility.yul\":2888:3110   */\n    tag_32:\n        /* \"#utility.yul\":2981:2985   */\n      0x00\n        /* \"#utility.yul\":3019:3021   */\n      0x20\n        /* \"#utility.yul\":3008:3017   */\n      dup3\n        /* \"#utility.yul\":3004:3022   */\n      add\n        /* \"#utility.yul\":2996:3022   */\n      swap1\n      pop\n        /* \"#utility.yul\":3032:3103   */\n      tag_167\n        /* \"#utility.yul\":3100:3101   */\n      0x00\n        /* \"#utility.yul\":3089:3098   */\n      dup4\n        /* \"#utility.yul\":3085:3102   */\n      add\n        /* \"#utility.yul\":3076:3082   */\n      dup5\n        /* \"#utility.yul\":3032:3103   */\n      tag_106\n      jump\t// in\n    tag_167:\n        /* \"#utility.yul\":2888:3110   */\n      swap3\n      swap2\n      pop\n      pop\n      jump\t// out\n        /* \"#utility.yul\":3116:3206   */\n    tag_112:\n        /* \"#utility.yul\":3150:3157   */\n      0x00\n        /* \"#utility.yul\":3193:3198   */\n      dup2\n        /* \"#utility.yul\":3186:3199   */\n      iszero\n        /* \"#utility.yul\":3179:3200   */\n      iszero\n        /* \"#utility.yul\":3168:3200   */\n      swap1\n      pop\n        /* \"#utility.yul\":3116:3206   */\n      swap2\n      swap1\n      pop\n      jump\t// out\n        /* \"#utility.yul\":3212:3321   */\n    tag_113:\n        /* \"#utility.yul\":3293:3314   */\n      tag_170\n        /* \"#utility.yul\":3308:3313   */\n      dup2\n        /* \"#utility.yul\":3293:3314   */\n      tag_112\n      jump\t// in\n    tag_170:\n        /* \"#utility.yul\":3288:3291   */\n      dup3\n        /* \"#utility.yul\":3281:3315   */\n      mstore\n        /* \"#utility.yul\":3212:3321   */\n      pop\n      pop\n      jump\t// out\n        /* \"#utility.yul\":3327:3868   */\n    tag_40:\n        /* \"#utility.yul\":3498:3502   */\n      0x00\n        /* \"#utility.yul\":3536:3539   */\n      0x80\n        /* \"#utility.yul\":3525:3534   */\n      dup3\n        /* \"#utility.yul\":3521:3540   */\n      add\n        /* \"#utility.yul\":3513:3540   */\n      swap1\n      pop\n        /* \"#utility.yul\":3550:3621   */\n      tag_172\n        /* \"#utility.yul\":3618:3619   */\n      0x00\n        /* \"#utility.yul\":3607:3616   */\n      dup4\n        /* \"#utility.yul\":3603:3620   */\n      add\n        /* \"#utility.yul\":3594:3600   */\n      dup8\n        /* \"#utility.yul\":3550:3621   */\n      tag_106\n      jump\t// in\n    tag_172:\n        /* \"#utility.yul\":3631:3697   */\n      tag_173\n        /* \"#utility.yul\":3693:3695   */\n      0x20\n        /* \"#utility.yul\":3682:3691   */\n      dup4\n        /* \"#utility.yul\":3678:3696   */\n      add\n        /* \"#utility.yul\":3669:3675   */\n      dup7\n        /* \"#utility.yul\":3631:3697   */\n      tag_113\n      jump\t// in\n    tag_173:\n        /* \"#utility.yul\":3707:3779   */\n      tag_174\n        /* \"#utility.yul\":3775:3777   */\n      0x40\n        /* \"#utility.yul\":3764:3773   */\n      dup4\n        /* \"#utility.yul\":3760:3778   */\n      add\n        /* \"#utility.yul\":3751:3757   */\n      dup6\n        /* \"#utility.yul\":3707:3779   */\n      tag_109\n      jump\t// in\n    tag_174:\n        /* \"#utility.yul\":3789:3861   */\n      tag_175\n        /* \"#utility.yul\":3857:3859   */\n      0x60\n        /* \"#utility.yul\":3846:3855   */\n      dup4\n        /* \"#utility.yul\":3842:3860   */\n      add\n        /* \"#utility.yul\":3833:3839   */\n      dup5\n        /* \"#utility.yul\":3789:3861   */\n      tag_106\n      jump\t// in\n    tag_175:\n        /* \"#utility.yul\":3327:3868   */\n      swap6\n      swap5\n      pop\n      pop\n      pop\n      pop\n      pop\n      jump\t// out\n        /* \"#utility.yul\":3874:4096   */\n    tag_44:\n        /* \"#utility.yul\":3967:3971   */\n      0x00\n        /* \"#utility.yul\":4005:4007   */\n      0x20\n        /* \"#utility.yul\":3994:4003   */\n      dup3\n        /* \"#utility.yul\":3990:4008   */\n      add\n        /* \"#utility.yul\":3982:4008   */\n      swap1\n      pop\n        /* \"#utility.yul\":4018:4089   */\n      tag_177\n        /* \"#utility.yul\":4086:4087   */\n      0x00\n        /* \"#utility.yul\":4075:4084   */\n      dup4\n        /* \"#utility.yul\":4071:4088   */\n      add\n        /* \"#utility.yul\":4062:4068   */\n      dup5\n        /* \"#utility.yul\":4018:4089   */\n      tag_105\n      jump\t// in\n    tag_177:\n        /* \"#utility.yul\":3874:4096   */\n      swap3\n      swap2\n      pop\n      pop\n      jump\t// out\n        /* \"#utility.yul\":4102:4271   */\n    tag_114:\n        /* \"#utility.yul\":4186:4197   */\n      0x00\n        /* \"#utility.yul\":4220:4226   */\n      dup3\n        /* \"#utility.yul\":4215:4218   */\n      dup3\n        /* \"#utility.yul\":4208:4227   */\n      mstore\n        /* \"#utility.yul\":4260:4264   */\n      0x20\n        /* \"#utility.yul\":4255:4258   */\n      dup3\n        /* \"#utility.yul\":4251:4265   */\n      add\n        /* \"#utility.yul\":4236:4265   */\n      swap1\n      pop\n        /* \"#utility.yul\":4102:4271   */\n      swap3\n      swap2\n      pop\n      pop\n      jump\t// out\n        /* \"#utility.yul\":4277:4439   */\n    tag_115:\n        /* \"#utility.yul\":4417:4431   */\n      0x416c7265647920766f7465640000000000000000000000000000000000000000\n        /* \"#utility.yul\":4413:4414   */\n      0x00\n        /* \"#utility.yul\":4405:4411   */\n      dup3\n        /* \"#utility.yul\":4401:4415   */\n      add\n        /* \"#utility.yul\":4394:4432   */\n      mstore\n        /* \"#utility.yul\":4277:4439   */\n      pop\n      jump\t// out\n        /* \"#utility.yul\":4445:4811   */\n    tag_116:\n        /* \"#utility.yul\":4587:4590   */\n      0x00\n        /* \"#utility.yul\":4608:4675   */\n      tag_181\n        /* \"#utility.yul\":4672:4674   */\n      0x0c\n        /* \"#utility.yul\":4667:4670   */\n      dup4\n        /* \"#utility.yul\":4608:4675   */\n      tag_114\n      jump\t// in\n    tag_181:\n        /* \"#utility.yul\":4601:4675   */\n      swap2\n      pop\n        /* \"#utility.yul\":4684:4777   */\n      tag_182\n        /* \"#utility.yul\":4773:4776   */\n      dup3\n        /* \"#utility.yul\":4684:4777   */\n      tag_115\n      jump\t// in\n    tag_182:\n        /* \"#utility.yul\":4802:4804   */\n      0x20\n        /* \"#utility.yul\":4797:4800   */\n      dup3\n        /* \"#utility.yul\":4793:4805   */\n      add\n        /* \"#utility.yul\":4786:4805   */\n      swap1\n      pop\n        /* \"#utility.yul\":4445:4811   */\n      swap2\n      swap1\n      pop\n      jump\t// out\n        /* \"#utility.yul\":4817:5236   */\n    tag_48:\n        /* \"#utility.yul\":4983:4987   */\n      0x00\n        /* \"#utility.yul\":5021:5023   */\n      0x20\n        /* \"#utility.yul\":5010:5019   */\n      dup3\n        /* \"#utility.yul\":5006:5024   */\n      add\n        /* \"#utility.yul\":4998:5024   */\n      swap1\n      pop\n        /* \"#utility.yul\":5070:5079   */\n      dup2\n        /* \"#utility.yul\":5064:5068   */\n      dup2\n        /* \"#utility.yul\":5060:5080   */\n      sub\n        /* \"#utility.yul\":5056:5057   */\n      0x00\n        /* \"#utility.yul\":5045:5054   */\n      dup4\n        /* \"#utility.yul\":5041:5058   */\n      add\n        /* \"#utility.yul\":5034:5081   */\n      mstore\n        /* \"#utility.yul\":5098:5229   */\n      tag_184\n        /* \"#utility.yul\":5224:5228   */\n      dup2\n        /* \"#utility.yul\":5098:5229   */\n      tag_116\n      jump\t// in\n    tag_184:\n        /* \"#utility.yul\":5090:5229   */\n      swap1\n      pop\n        /* \"#utility.yul\":4817:5236   */\n      swap2\n      swap1\n      pop\n      jump\t// out\n        /* \"#utility.yul\":5242:5409   */\n    tag_117:\n        /* \"#utility.yul\":5382:5401   */\n      0x596f7520616c726561647920766f746564000000000000000000000000000000\n        /* \"#utility.yul\":5378:5379   */\n      0x00\n        /* \"#utility.yul\":5370:5376   */\n      dup3\n        /* \"#utility.yul\":5366:5380   */\n      add\n        /* \"#utility.yul\":5359:5402   */\n      mstore\n        /* \"#utility.yul\":5242:5409   */\n      pop\n      jump\t// out\n        /* \"#utility.yul\":5415:5781   */\n    tag_118:\n        /* \"#utility.yul\":5557:5560   */\n      0x00\n        /* \"#utility.yul\":5578:5645   */\n      tag_187\n        /* \"#utility.yul\":5642:5644   */\n      0x11\n        /* \"#utility.yul\":5637:5640   */\n      dup4\n        /* \"#utility.yul\":5578:5645   */\n      tag_114\n      jump\t// in\n    tag_187:\n        /* \"#utility.yul\":5571:5645   */\n      swap2\n      pop\n        /* \"#utility.yul\":5654:5747   */\n      tag_188\n        /* \"#utility.yul\":5743:5746   */\n      dup3\n        /* \"#utility.yul\":5654:5747   */\n      tag_117\n      jump\t// in\n    tag_188:\n        /* \"#utility.yul\":5772:5774   */\n      0x20\n        /* \"#utility.yul\":5767:5770   */\n      dup3\n        /* \"#utility.yul\":5763:5775   */\n      add\n        /* \"#utility.yul\":5756:5775   */\n      swap1\n      pop\n        /* \"#utility.yul\":5415:5781   */\n      swap2\n      swap1\n      pop\n      jump\t// out\n        /* \"#utility.yul\":5787:6206   */\n    tag_54:\n        /* \"#utility.yul\":5953:5957   */\n      0x00\n        /* \"#utility.yul\":5991:5993   */\n      0x20\n        /* \"#utility.yul\":5980:5989   */\n      dup3\n        /* \"#utility.yul\":5976:5994   */\n      add\n        /* \"#utility.yul\":5968:5994   */\n      swap1\n      pop\n        /* \"#utility.yul\":6040:6049   */\n      dup2\n        /* \"#utility.yul\":6034:6038   */\n      dup2\n        /* \"#utility.yul\":6030:6050   */\n      sub\n        /* \"#utility.yul\":6026:6027   */\n      0x00\n        /* \"#utility.yul\":6015:6024   */\n      dup4\n        /* \"#utility.yul\":6011:6028   */\n      add\n        /* \"#utility.yul\":6004:6051   */\n      mstore\n        /* \"#utility.yul\":6068:6199   */\n      tag_190\n        /* \"#utility.yul\":6194:6198   */\n      dup2\n        /* \"#utility.yul\":6068:6199   */\n      tag_118\n      jump\t// in\n    tag_190:\n        /* \"#utility.yul\":6060:6199   */\n      swap1\n      pop\n        /* \"#utility.yul\":5787:6206   */\n      swap2\n      swap1\n      pop\n      jump\t// out\n        /* \"#utility.yul\":6212:6392   */\n    tag_119:\n        /* \"#utility.yul\":6352:6384   */\n      0x53656c662d64656c65676174696f6e20697320646973616c6c6f7765642e0000\n        /* \"#utility.yul\":6348:6349   */\n      0x00\n        /* \"#utility.yul\":6340:6346   */\n      dup3\n        /* \"#utility.yul\":6336:6350   */\n      add\n        /* \"#utility.yul\":6329:6385   */\n      mstore\n        /* \"#utility.yul\":6212:6392   */\n      pop\n      jump\t// out\n        /* \"#utility.yul\":6398:6764   */\n    tag_120:\n        /* \"#utility.yul\":6540:6543   */\n      0x00\n        /* \"#utility.yul\":6561:6628   */\n      tag_193\n        /* \"#utility.yul\":6625:6627   */\n      0x1e\n        /* \"#utility.yul\":6620:6623   */\n      dup4\n        /* \"#utility.yul\":6561:6628   */\n      tag_114\n      jump\t// in\n    tag_193:\n        /* \"#utility.yul\":6554:6628   */\n      swap2\n      pop\n        /* \"#utility.yul\":6637:6730   */\n      tag_194\n        /* \"#utility.yul\":6726:6729   */\n      dup3\n        /* \"#utility.yul\":6637:6730   */\n      tag_119\n      jump\t// in\n    tag_194:\n        /* \"#utility.yul\":6755:6757   */\n      0x20\n        /* \"#utility.yul\":6750:6753   */\n      dup3\n        /* \"#utility.yul\":6746:6758   */\n      add\n        /* \"#utility.yul\":6739:6758   */\n      swap1\n      pop\n        /* \"#utility.yul\":6398:6764   */\n      swap2\n      swap1\n      pop\n      jump\t// out\n        /* \"#utility.yul\":6770:7189   */\n    tag_57:\n        /* \"#utility.yul\":6936:6940   */\n      0x00\n        /* \"#utility.yul\":6974:6976   */\n      0x20\n        /* \"#utility.yul\":6963:6972   */\n      dup3\n        /* \"#utility.yul\":6959:6977   */\n      add\n        /* \"#utility.yul\":6951:6977   */\n      swap1\n      pop\n        /* \"#utility.yul\":7023:7032   */\n      dup2\n        /* \"#utility.yul\":7017:7021   */\n      dup2\n        /* \"#utility.yul\":7013:7033   */\n      sub\n        /* \"#utility.yul\":7009:7010   */\n      0x00\n        /* \"#utility.yul\":6998:7007   */\n      dup4\n        /* \"#utility.yul\":6994:7011   */\n      add\n        /* \"#utility.yul\":6987:7034   */\n      mstore\n        /* \"#utility.yul\":7051:7182   */\n      tag_196\n        /* \"#utility.yul\":7177:7181   */\n      dup2\n        /* \"#utility.yul\":7051:7182   */\n      tag_120\n      jump\t// in\n    tag_196:\n        /* \"#utility.yul\":7043:7182   */\n      swap1\n      pop\n        /* \"#utility.yul\":6770:7189   */\n      swap2\n      swap1\n      pop\n      jump\t// out\n        /* \"#utility.yul\":7195:7369   */\n    tag_121:\n        /* \"#utility.yul\":7335:7361   */\n      0x466f756e64206c6f6f7020696e2064656c65676174696f6e0000000000000000\n        /* \"#utility.yul\":7331:7332   */\n      0x00\n        /* \"#utility.yul\":7323:7329   */\n      dup3\n        /* \"#utility.yul\":7319:7333   */\n      add\n        /* \"#utility.yul\":7312:7362   */\n      mstore\n        /* \"#utility.yul\":7195:7369   */\n      pop\n      jump\t// out\n        /* \"#utility.yul\":7375:7741   */\n    tag_122:\n        /* \"#utility.yul\":7517:7520   */\n      0x00\n        /* \"#utility.yul\":7538:7605   */\n      tag_199\n        /* \"#utility.yul\":7602:7604   */\n      0x18\n        /* \"#utility.yul\":7597:7600   */\n      dup4\n        /* \"#utility.yul\":7538:7605   */\n      tag_114\n      jump\t// in\n    tag_199:\n        /* \"#utility.yul\":7531:7605   */\n      swap2\n      pop\n        /* \"#utility.yul\":7614:7707   */\n      tag_200\n        /* \"#utility.yul\":7703:7706   */\n      dup3\n        /* \"#utility.yul\":7614:7707   */\n      tag_121\n      jump\t// in\n    tag_200:\n        /* \"#utility.yul\":7732:7734   */\n      0x20\n        /* \"#utility.yul\":7727:7730   */\n      dup3\n        /* \"#utility.yul\":7723:7735   */\n      add\n        /* \"#utility.yul\":7716:7735   */\n      swap1\n      pop\n        /* \"#utility.yul\":7375:7741   */\n      swap2\n      swap1\n      pop\n      jump\t// out\n        /* \"#utility.yul\":7747:8166   */\n    tag_62:\n        /* \"#utility.yul\":7913:7917   */\n      0x00\n        /* \"#utility.yul\":7951:7953   */\n      0x20\n        /* \"#utility.yul\":7940:7949   */\n      dup3\n        /* \"#utility.yul\":7936:7954   */\n      add\n        /* \"#utility.yul\":7928:7954   */\n      swap1\n      pop\n        /* \"#utility.yul\":8000:8009   */\n      dup2\n        /* \"#utility.yul\":7994:7998   */\n      dup2\n        /* \"#utility.yul\":7990:8010   */\n      sub\n        /* \"#utility.yul\":7986:7987   */\n      0x00\n        /* \"#utility.yul\":7975:7984   */\n      dup4\n        /* \"#utility.yul\":7971:7988   */\n      add\n        /* \"#utility.yul\":7964:8011   */\n      mstore\n        /* \"#utility.yul\":8028:8159   */\n      tag_202\n        /* \"#utility.yul\":8154:8158   */\n      dup2\n        /* \"#utility.yul\":8028:8159   */\n      tag_122\n      jump\t// in\n    tag_202:\n        /* \"#utility.yul\":8020:8159   */\n      swap1\n      pop\n        /* \"#utility.yul\":7747:8166   */\n      swap2\n      swap1\n      pop\n      jump\t// out\n        /* \"#utility.yul\":8172:8352   */\n    tag_66:\n        /* \"#utility.yul\":8220:8297   */\n      0x4e487b7100000000000000000000000000000000000000000000000000000000\n        /* \"#utility.yul\":8217:8218   */\n      0x00\n        /* \"#utility.yul\":8210:8298   */\n      mstore\n        /* \"#utility.yul\":8317:8321   */\n      0x32\n        /* \"#utility.yul\":8314:8315   */\n      0x04\n        /* \"#utility.yul\":8307:8322   */\n      mstore\n        /* \"#utility.yul\":8341:8345   */\n      0x24\n        /* \"#utility.yul\":8338:8339   */\n      0x00\n        /* \"#utility.yul\":8331:8346   */\n      revert\n        /* \"#utility.yul\":8358:8538   */\n    tag_123:\n        /* \"#utility.yul\":8406:8483   */\n      0x4e487b7100000000000000000000000000000000000000000000000000000000\n        /* \"#utility.yul\":8403:8404   */\n      0x00\n        /* \"#utility.yul\":8396:8484   */\n      mstore\n        /* \"#utility.yul\":8503:8507   */\n      0x11\n        /* \"#utility.yul\":8500:8501   */\n      0x04\n        /* \"#utility.yul\":8493:8508   */\n      mstore\n        /* \"#utility.yul\":8527:8531   */\n      0x24\n        /* \"#utility.yul\":8524:8525   */\n      0x00\n        /* \"#utility.yul\":8517:8532   */\n      revert\n        /* \"#utility.yul\":8544:8849   */\n    tag_69:\n        /* \"#utility.yul\":8584:8587   */\n      0x00\n        /* \"#utility.yul\":8603:8623   */\n      tag_206\n        /* \"#utility.yul\":8621:8622   */\n      dup3\n        /* \"#utility.yul\":8603:8623   */\n      tag_101\n      jump\t// in\n    tag_206:\n        /* \"#utility.yul\":8598:8623   */\n      swap2\n      pop\n        /* \"#utility.yul\":8637:8657   */\n      tag_207\n        /* \"#utility.yul\":8655:8656   */\n      dup4\n        /* \"#utility.yul\":8637:8657   */\n      tag_101\n      jump\t// in\n    tag_207:\n        /* \"#utility.yul\":8632:8657   */\n      swap3\n      pop\n        /* \"#utility.yul\":8791:8792   */\n      dup3\n        /* \"#utility.yul\":8723:8789   */\n      0xffffffffffffffffffffffffffffffffffffffffffffffffffffffffffffffff\n        /* \"#utility.yul\":8719:8793   */\n      sub\n        /* \"#utility.yul\":8716:8717   */\n      dup3\n        /* \"#utility.yul\":8713:8794   */\n      gt\n        /* \"#utility.yul\":8710:8817   */\n      iszero\n      tag_208\n      jumpi\n        /* \"#utility.yul\":8797:8815   */\n      tag_209\n      tag_123\n      jump\t// in\n    tag_209:\n        /* \"#utility.yul\":8710:8817   */\n    tag_208:\n        /* \"#utility.yul\":8841:8842   */\n      dup3\n        /* \"#utility.yul\":8838:8839   */\n      dup3\n        /* \"#utility.yul\":8834:8843   */\n      add\n        /* \"#utility.yul\":8827:8843   */\n      swap1\n      pop\n        /* \"#utility.yul\":8544:8849   */\n      swap3\n      swap2\n      pop\n      pop\n      jump\t// out\n        /* \"#utility.yul\":8855:9088   */\n    tag_84:\n        /* \"#utility.yul\":8894:8897   */\n      0x00\n        /* \"#utility.yul\":8917:8941   */\n      tag_211\n        /* \"#utility.yul\":8935:8940   */\n      dup3\n        /* \"#utility.yul\":8917:8941   */\n      tag_101\n      jump\t// in\n    tag_211:\n        /* \"#utility.yul\":8908:8941   */\n      swap2\n      pop\n        /* \"#utility.yul\":8963:9029   */\n      0xffffffffffffffffffffffffffffffffffffffffffffffffffffffffffffffff\n        /* \"#utility.yul\":8956:8961   */\n      dup3\n        /* \"#utility.yul\":8953:9030   */\n      sub\n        /* \"#utility.yul\":8950:9053   */\n      tag_212\n      jumpi\n        /* \"#utility.yul\":9033:9051   */\n      tag_213\n      tag_123\n      jump\t// in\n    tag_213:\n        /* \"#utility.yul\":8950:9053   */\n    tag_212:\n        /* \"#utility.yul\":9080:9081   */\n      0x01\n        /* \"#utility.yul\":9073:9078   */\n      dup3\n        /* \"#utility.yul\":9069:9082   */\n      add\n        /* \"#utility.yul\":9062:9082   */\n      swap1\n      pop\n        /* \"#utility.yul\":8855:9088   */\n      swap2\n      swap1\n      pop\n      jump\t// out\n        /* \"#utility.yul\":9094:9320   */\n    tag_124:\n        /* \"#utility.yul\":9234:9268   */\n      0x4f6e6c79206368616972706572736f6e2063616e206769766520726967687420\n        /* \"#utility.yul\":9230:9231   */\n      0x00\n        /* \"#utility.yul\":9222:9228   */\n      dup3\n        /* \"#utility.yul\":9218:9232   */\n      add\n        /* \"#utility.yul\":9211:9269   */\n      mstore\n        /* \"#utility.yul\":9303:9312   */\n      0x746f20766f746500000000000000000000000000000000000000000000000000\n        /* \"#utility.yul\":9298:9300   */\n      0x20\n        /* \"#utility.yul\":9290:9296   */\n      dup3\n        /* \"#utility.yul\":9286:9301   */\n      add\n        /* \"#utility.yul\":9279:9313   */\n      mstore\n        /* \"#utility.yul\":9094:9320   */\n      pop\n      jump\t// out\n        /* \"#utility.yul\":9326:9692   */\n    tag_125:\n        /* \"#utility.yul\":9468:9471   */\n      0x00\n        /* \"#utility.yul\":9489:9556   */\n      tag_216\n        /* \"#utility.yul\":9553:9555   */\n      0x27\n        /* \"#utility.yul\":9548:9551   */\n      dup4\n        /* \"#utility.yul\":9489:9556   */\n      tag_114\n      jump\t// in\n    tag_216:\n        /* \"#utility.yul\":9482:9556   */\n      swap2\n      pop\n        /* \"#utility.yul\":9565:9658   */\n      tag_217\n        /* \"#utility.yul\":9654:9657   */\n      dup3\n        /* \"#utility.yul\":9565:9658   */\n      tag_124\n      jump\t// in\n    tag_217:\n        /* \"#utility.yul\":9683:9685   */\n      0x40\n        /* \"#utility.yul\":9678:9681   */\n      dup3\n        /* \"#utility.yul\":9674:9686   */\n      add\n        /* \"#utility.yul\":9667:9686   */\n      swap1\n      pop\n        /* \"#utility.yul\":9326:9692   */\n      swap2\n      swap1\n      pop\n      jump\t// out\n        /* \"#utility.yul\":9698:10117   */\n    tag_88:\n        /* \"#utility.yul\":9864:9868   */\n      0x00\n        /* \"#utility.yul\":9902:9904   */\n      0x20\n        /* \"#utility.yul\":9891:9900   */\n      dup3\n        /* \"#utility.yul\":9887:9905   */\n      add\n        /* \"#utility.yul\":9879:9905   */\n      swap1\n      pop\n        /* \"#utility.yul\":9951:9960   */\n      dup2\n        /* \"#utility.yul\":9945:9949   */\n      dup2\n        /* \"#utility.yul\":9941:9961   */\n      sub\n        /* \"#utility.yul\":9937:9938   */\n      0x00\n        /* \"#utility.yul\":9926:9935   */\n      dup4\n        /* \"#utility.yul\":9922:9939   */\n      add\n        /* \"#utility.yul\":9915:9962   */\n      mstore\n        /* \"#utility.yul\":9979:10110   */\n      tag_219\n        /* \"#utility.yul\":10105:10109   */\n      dup2\n        /* \"#utility.yul\":9979:10110   */\n      tag_125\n      jump\t// in\n    tag_219:\n        /* \"#utility.yul\":9971:10110   */\n      swap1\n      pop\n        /* \"#utility.yul\":9698:10117   */\n      swap2\n      swap1\n      pop\n      jump\t// out\n        /* \"#utility.yul\":10123:10296   */\n    tag_126:\n        /* \"#utility.yul\":10263:10288   */\n      0x54686520766f74657220616c726561647920766f746564000000000000000000\n        /* \"#utility.yul\":10259:10260   */\n      0x00\n        /* \"#utility.yul\":10251:10257   */\n      dup3\n        /* \"#utility.yul\":10247:10261   */\n      add\n        /* \"#utility.yul\":10240:10289   */\n      mstore\n        /* \"#utility.yul\":10123:10296   */\n      pop\n      jump\t// out\n        /* \"#utility.yul\":10302:10668   */\n    tag_127:\n        /* \"#utility.yul\":10444:10447   */\n      0x00\n        /* \"#utility.yul\":10465:10532   */\n      tag_222\n        /* \"#utility.yul\":10529:10531   */\n      0x17\n        /* \"#utility.yul\":10524:10527   */\n      dup4\n        /* \"#utility.yul\":10465:10532   */\n      tag_114\n      jump\t// in\n    tag_222:\n        /* \"#utility.yul\":10458:10532   */\n      swap2\n      pop\n        /* \"#utility.yul\":10541:10634   */\n      tag_223\n        /* \"#utility.yul\":10630:10633   */\n      dup3\n        /* \"#utility.yul\":10541:10634   */\n      tag_126\n      jump\t// in\n    tag_223:\n        /* \"#utility.yul\":10659:10661   */\n      0x20\n        /* \"#utility.yul\":10654:10657   */\n      dup3\n        /* \"#utility.yul\":10650:10662   */\n      add\n        /* \"#utility.yul\":10643:10662   */\n      swap1\n      pop\n        /* \"#utility.yul\":10302:10668   */\n      swap2\n      swap1\n      pop\n      jump\t// out\n        /* \"#utility.yul\":10674:11093   */\n    tag_91:\n        /* \"#utility.yul\":10840:10844   */\n      0x00\n        /* \"#utility.yul\":10878:10880   */\n      0x20\n        /* \"#utility.yul\":10867:10876   */\n      dup3\n        /* \"#utility.yul\":10863:10881   */\n      add\n        /* \"#utility.yul\":10855:10881   */\n      swap1\n      pop\n        /* \"#utility.yul\":10927:10936   */\n      dup2\n        /* \"#utility.yul\":10921:10925   */\n      dup2\n        /* \"#utility.yul\":10917:10937   */\n      sub\n        /* \"#utility.yul\":10913:10914   */\n      0x00\n        /* \"#utility.yul\":10902:10911   */\n      dup4\n        /* \"#utility.yul\":10898:10915   */\n      add\n        /* \"#utility.yul\":10891:10938   */\n      mstore\n        /* \"#utility.yul\":10955:11086   */\n      tag_225\n        /* \"#utility.yul\":11081:11085   */\n      dup2\n        /* \"#utility.yul\":10955:11086   */\n      tag_127\n      jump\t// in\n    tag_225:\n        /* \"#utility.yul\":10947:11086   */\n      swap1\n      pop\n        /* \"#utility.yul\":10674:11093   */\n      swap2\n      swap1\n      pop\n      jump\t// out\n\n    auxdata: 0xa26469706673582212202adb705ed70fa01a86bea4a4ea0a9d88a58dd8bfb1359bebb0a17033a672086964736f6c634300080d0033\n}\n",
				"bytecode": {
					"linkReferences": {},
					"object": "60806040523480156200001157600080fd5b506040516200136d3803806200136d833981810160405281019062000037919062000342565b336000806101000a81548173ffffffffffffffffffffffffffffffffffffffff021916908373ffffffffffffffffffffffffffffffffffffffff16021790555060018060008060009054906101000a900473ffffffffffffffffffffffffffffffffffffffff1673ffffffffffffffffffffffffffffffffffffffff1673ffffffffffffffffffffffffffffffffffffffff1681526020019081526020016000206000018190555060005b81518110156200017657600260405180604001604052808484815181106200010f576200010e62000393565b5b60200260200101518152602001600081525090806001815401808255809150506001900390600052602060002090600202016000909190919091506000820151816000015560208201518160010155505080806200016d90620003fb565b915050620000e2565b505062000448565b6000604051905090565b600080fd5b600080fd5b600080fd5b6000601f19601f8301169050919050565b7f4e487b7100000000000000000000000000000000000000000000000000000000600052604160045260246000fd5b620001e28262000197565b810181811067ffffffffffffffff82111715620002045762000203620001a8565b5b80604052505050565b6000620002196200017e565b9050620002278282620001d7565b919050565b600067ffffffffffffffff8211156200024a5762000249620001a8565b5b602082029050602081019050919050565b600080fd5b6000819050919050565b620002758162000260565b81146200028157600080fd5b50565b60008151905062000295816200026a565b92915050565b6000620002b2620002ac846200022c565b6200020d565b90508083825260208201905060208402830185811115620002d857620002d76200025b565b5b835b81811015620003055780620002f0888262000284565b845260208401935050602081019050620002da565b5050509392505050565b600082601f83011262000327576200032662000192565b5b8151620003398482602086016200029b565b91505092915050565b6000602082840312156200035b576200035a62000188565b5b600082015167ffffffffffffffff8111156200037c576200037b6200018d565b5b6200038a848285016200030f565b91505092915050565b7f4e487b7100000000000000000000000000000000000000000000000000000000600052603260045260246000fd5b7f4e487b7100000000000000000000000000000000000000000000000000000000600052601160045260246000fd5b6000819050919050565b60006200040882620003f1565b91507fffffffffffffffffffffffffffffffffffffffffffffffffffffffffffffffff82036200043d576200043c620003c2565b5b600182019050919050565b610f1580620004586000396000f3fe608060405234801561001057600080fd5b50600436106100885760003560e01c8063609ff1bd1161005b578063609ff1bd146101145780639e7b8d6114610132578063a3ec138d1461014e578063e2ba53f01461018157610088565b80630121b93f1461008d578063013cf08b146100a95780632e4176cf146100da5780635c19a95c146100f8575b600080fd5b6100a760048036038101906100a2919061095b565b61019f565b005b6100c360048036038101906100be919061095b565b61025e565b6040516100d19291906109b0565b60405180910390f35b6100e2610292565b6040516100ef9190610a1a565b60405180910390f35b610112600480360381019061010d9190610a61565b6102b6565b005b61011c610650565b6040516101299190610a8e565b60405180910390f35b61014c60048036038101906101479190610a61565b6106d8565b005b61016860048036038101906101639190610a61565b61088f565b6040516101789493929190610ac4565b60405180910390f35b6101896108ec565b6040516101969190610b09565b60405180910390f35b6000600160003373ffffffffffffffffffffffffffffffffffffffff1673ffffffffffffffffffffffffffffffffffffffff16815260200190815260200160002090508060010160009054906101000a900460ff1615610234576040517f08c379a000000000000000000000000000000000000000000000000000000000815260040161022b90610b81565b60405180910390fd5b60018160010160006101000a81548160ff0219169083151502179055508181600201819055505050565b6002818154811061026e57600080fd5b90600052602060002090600202016000915090508060000154908060010154905082565b60008054906101000a900473ffffffffffffffffffffffffffffffffffffffff1681565b6000600160003373ffffffffffffffffffffffffffffffffffffffff1673ffffffffffffffffffffffffffffffffffffffff16815260200190815260200160002090508060010160009054906101000a900460ff161561034b576040517f08c379a000000000000000000000000000000000000000000000000000000000815260040161034290610bed565b60405180910390fd5b3373ffffffffffffffffffffffffffffffffffffffff168273ffffffffffffffffffffffffffffffffffffffff16036103b9576040517f08c379a00000000000000000000000000000000000000000000000000000000081526004016103b090610c59565b60405180910390fd5b5b600073ffffffffffffffffffffffffffffffffffffffff16600160008473ffffffffffffffffffffffffffffffffffffffff1673ffffffffffffffffffffffffffffffffffffffff16815260200190815260200160002060010160019054906101000a900473ffffffffffffffffffffffffffffffffffffffff1673ffffffffffffffffffffffffffffffffffffffff161461052857600160008373ffffffffffffffffffffffffffffffffffffffff1673ffffffffffffffffffffffffffffffffffffffff16815260200190815260200160002060010160019054906101000a900473ffffffffffffffffffffffffffffffffffffffff1691503373ffffffffffffffffffffffffffffffffffffffff168273ffffffffffffffffffffffffffffffffffffffff1603610523576040517f08c379a000000000000000000000000000000000000000000000000000000000815260040161051a90610cc5565b60405180910390fd5b6103ba565b60018160010160006101000a81548160ff021916908315150217905550818160010160016101000a81548173ffffffffffffffffffffffffffffffffffffffff021916908373ffffffffffffffffffffffffffffffffffffffff1602179055506000600160008473ffffffffffffffffffffffffffffffffffffffff1673ffffffffffffffffffffffffffffffffffffffff16815260200190815260200160002090508060010160009054906101000a900460ff161561062b57816000015460028260020154815481106105ff576105fe610ce5565b5b9060005260206000209060020201600101600082825461061f9190610d43565b9250508190555061064b565b81600001548160000160008282546106439190610d43565b925050819055505b505050565b6000806000905060005b6002805490508110156106d357816002828154811061067c5761067b610ce5565b5b90600052602060002090600202016001015411156106c057600281815481106106a8576106a7610ce5565b5b90600052602060002090600202016001015491508092505b80806106cb90610d99565b91505061065a565b505090565b60008054906101000a900473ffffffffffffffffffffffffffffffffffffffff1673ffffffffffffffffffffffffffffffffffffffff163373ffffffffffffffffffffffffffffffffffffffff1614610766576040517f08c379a000000000000000000000000000000000000000000000000000000000815260040161075d90610e53565b60405180910390fd5b600160008273ffffffffffffffffffffffffffffffffffffffff1673ffffffffffffffffffffffffffffffffffffffff16815260200190815260200160002060010160009054906101000a900460ff16156107f6576040517f08c379a00000000000000000000000000000000000000000000000000000000081526004016107ed90610ebf565b60405180910390fd5b6000600160008373ffffffffffffffffffffffffffffffffffffffff1673ffffffffffffffffffffffffffffffffffffffff168152602001908152602001600020600001541461084557600080fd5b60018060008373ffffffffffffffffffffffffffffffffffffffff1673ffffffffffffffffffffffffffffffffffffffff1681526020019081526020016000206000018190555050565b60016020528060005260406000206000915090508060000154908060010160009054906101000a900460ff16908060010160019054906101000a900473ffffffffffffffffffffffffffffffffffffffff16908060020154905084565b600060026108f8610650565b8154811061090957610908610ce5565b5b906000526020600020906002020160000154905090565b600080fd5b6000819050919050565b61093881610925565b811461094357600080fd5b50565b6000813590506109558161092f565b92915050565b60006020828403121561097157610970610920565b5b600061097f84828501610946565b91505092915050565b6000819050919050565b61099b81610988565b82525050565b6109aa81610925565b82525050565b60006040820190506109c56000830185610992565b6109d260208301846109a1565b9392505050565b600073ffffffffffffffffffffffffffffffffffffffff82169050919050565b6000610a04826109d9565b9050919050565b610a14816109f9565b82525050565b6000602082019050610a2f6000830184610a0b565b92915050565b610a3e816109f9565b8114610a4957600080fd5b50565b600081359050610a5b81610a35565b92915050565b600060208284031215610a7757610a76610920565b5b6000610a8584828501610a4c565b91505092915050565b6000602082019050610aa360008301846109a1565b92915050565b60008115159050919050565b610abe81610aa9565b82525050565b6000608082019050610ad960008301876109a1565b610ae66020830186610ab5565b610af36040830185610a0b565b610b0060608301846109a1565b95945050505050565b6000602082019050610b1e6000830184610992565b92915050565b600082825260208201905092915050565b7f416c7265647920766f7465640000000000000000000000000000000000000000600082015250565b6000610b6b600c83610b24565b9150610b7682610b35565b602082019050919050565b60006020820190508181036000830152610b9a81610b5e565b9050919050565b7f596f7520616c726561647920766f746564000000000000000000000000000000600082015250565b6000610bd7601183610b24565b9150610be282610ba1565b602082019050919050565b60006020820190508181036000830152610c0681610bca565b9050919050565b7f53656c662d64656c65676174696f6e20697320646973616c6c6f7765642e0000600082015250565b6000610c43601e83610b24565b9150610c4e82610c0d565b602082019050919050565b60006020820190508181036000830152610c7281610c36565b9050919050565b7f466f756e64206c6f6f7020696e2064656c65676174696f6e0000000000000000600082015250565b6000610caf601883610b24565b9150610cba82610c79565b602082019050919050565b60006020820190508181036000830152610cde81610ca2565b9050919050565b7f4e487b7100000000000000000000000000000000000000000000000000000000600052603260045260246000fd5b7f4e487b7100000000000000000000000000000000000000000000000000000000600052601160045260246000fd5b6000610d4e82610925565b9150610d5983610925565b9250827fffffffffffffffffffffffffffffffffffffffffffffffffffffffffffffffff03821115610d8e57610d8d610d14565b5b828201905092915050565b6000610da482610925565b91507fffffffffffffffffffffffffffffffffffffffffffffffffffffffffffffffff8203610dd657610dd5610d14565b5b600182019050919050565b7f4f6e6c79206368616972706572736f6e2063616e20676976652072696768742060008201527f746f20766f746500000000000000000000000000000000000000000000000000602082015250565b6000610e3d602783610b24565b9150610e4882610de1565b604082019050919050565b60006020820190508181036000830152610e6c81610e30565b9050919050565b7f54686520766f74657220616c726561647920766f746564000000000000000000600082015250565b6000610ea9601783610b24565b9150610eb482610e73565b602082019050919050565b60006020820190508181036000830152610ed881610e9c565b905091905056fea26469706673582212202adb705ed70fa01a86bea4a4ea0a9d88a58dd8bfb1359bebb0a17033a672086964736f6c634300080d0033",
					"opcodes": "PUSH1 0x80 PUSH1 0x40 MSTORE CALLVALUE DUP1 ISZERO PUSH3 0x11 JUMPI PUSH1 0x0 DUP1 REVERT JUMPDEST POP PUSH1 0x40 MLOAD PUSH3 0x136D CODESIZE SUB DUP1 PUSH3 0x136D DUP4 CODECOPY DUP2 DUP2 ADD PUSH1 0x40 MSTORE DUP2 ADD SWAP1 PUSH3 0x37 SWAP2 SWAP1 PUSH3 0x342 JUMP JUMPDEST CALLER PUSH1 0x0 DUP1 PUSH2 0x100 EXP DUP2 SLOAD DUP2 PUSH20 0xFFFFFFFFFFFFFFFFFFFFFFFFFFFFFFFFFFFFFFFF MUL NOT AND SWAP1 DUP4 PUSH20 0xFFFFFFFFFFFFFFFFFFFFFFFFFFFFFFFFFFFFFFFF AND MUL OR SWAP1 SSTORE POP PUSH1 0x1 DUP1 PUSH1 0x0 DUP1 PUSH1 0x0 SWAP1 SLOAD SWAP1 PUSH2 0x100 EXP SWAP1 DIV PUSH20 0xFFFFFFFFFFFFFFFFFFFFFFFFFFFFFFFFFFFFFFFF AND PUSH20 0xFFFFFFFFFFFFFFFFFFFFFFFFFFFFFFFFFFFFFFFF AND PUSH20 0xFFFFFFFFFFFFFFFFFFFFFFFFFFFFFFFFFFFFFFFF AND DUP2 MSTORE PUSH1 0x20 ADD SWAP1 DUP2 MSTORE PUSH1 0x20 ADD PUSH1 0x0 KECCAK256 PUSH1 0x0 ADD DUP2 SWAP1 SSTORE POP PUSH1 0x0 JUMPDEST DUP2 MLOAD DUP2 LT ISZERO PUSH3 0x176 JUMPI PUSH1 0x2 PUSH1 0x40 MLOAD DUP1 PUSH1 0x40 ADD PUSH1 0x40 MSTORE DUP1 DUP5 DUP5 DUP2 MLOAD DUP2 LT PUSH3 0x10F JUMPI PUSH3 0x10E PUSH3 0x393 JUMP JUMPDEST JUMPDEST PUSH1 0x20 MUL PUSH1 0x20 ADD ADD MLOAD DUP2 MSTORE PUSH1 0x20 ADD PUSH1 0x0 DUP2 MSTORE POP SWAP1 DUP1 PUSH1 0x1 DUP2 SLOAD ADD DUP1 DUP3 SSTORE DUP1 SWAP2 POP POP PUSH1 0x1 SWAP1 SUB SWAP1 PUSH1 0x0 MSTORE PUSH1 0x20 PUSH1 0x0 KECCAK256 SWAP1 PUSH1 0x2 MUL ADD PUSH1 0x0 SWAP1 SWAP2 SWAP1 SWAP2 SWAP1 SWAP2 POP PUSH1 0x0 DUP3 ADD MLOAD DUP2 PUSH1 0x0 ADD SSTORE PUSH1 0x20 DUP3 ADD MLOAD DUP2 PUSH1 0x1 ADD SSTORE POP POP DUP1 DUP1 PUSH3 0x16D SWAP1 PUSH3 0x3FB JUMP JUMPDEST SWAP2 POP POP PUSH3 0xE2 JUMP JUMPDEST POP POP PUSH3 0x448 JUMP JUMPDEST PUSH1 0x0 PUSH1 0x40 MLOAD SWAP1 POP SWAP1 JUMP JUMPDEST PUSH1 0x0 DUP1 REVERT JUMPDEST PUSH1 0x0 DUP1 REVERT JUMPDEST PUSH1 0x0 DUP1 REVERT JUMPDEST PUSH1 0x0 PUSH1 0x1F NOT PUSH1 0x1F DUP4 ADD AND SWAP1 POP SWAP2 SWAP1 POP JUMP JUMPDEST PUSH32 0x4E487B7100000000000000000000000000000000000000000000000000000000 PUSH1 0x0 MSTORE PUSH1 0x41 PUSH1 0x4 MSTORE PUSH1 0x24 PUSH1 0x0 REVERT JUMPDEST PUSH3 0x1E2 DUP3 PUSH3 0x197 JUMP JUMPDEST DUP2 ADD DUP2 DUP2 LT PUSH8 0xFFFFFFFFFFFFFFFF DUP3 GT OR ISZERO PUSH3 0x204 JUMPI PUSH3 0x203 PUSH3 0x1A8 JUMP JUMPDEST JUMPDEST DUP1 PUSH1 0x40 MSTORE POP POP POP JUMP JUMPDEST PUSH1 0x0 PUSH3 0x219 PUSH3 0x17E JUMP JUMPDEST SWAP1 POP PUSH3 0x227 DUP3 DUP3 PUSH3 0x1D7 JUMP JUMPDEST SWAP2 SWAP1 POP JUMP JUMPDEST PUSH1 0x0 PUSH8 0xFFFFFFFFFFFFFFFF DUP3 GT ISZERO PUSH3 0x24A JUMPI PUSH3 0x249 PUSH3 0x1A8 JUMP JUMPDEST JUMPDEST PUSH1 0x20 DUP3 MUL SWAP1 POP PUSH1 0x20 DUP2 ADD SWAP1 POP SWAP2 SWAP1 POP JUMP JUMPDEST PUSH1 0x0 DUP1 REVERT JUMPDEST PUSH1 0x0 DUP2 SWAP1 POP SWAP2 SWAP1 POP JUMP JUMPDEST PUSH3 0x275 DUP2 PUSH3 0x260 JUMP JUMPDEST DUP2 EQ PUSH3 0x281 JUMPI PUSH1 0x0 DUP1 REVERT JUMPDEST POP JUMP JUMPDEST PUSH1 0x0 DUP2 MLOAD SWAP1 POP PUSH3 0x295 DUP2 PUSH3 0x26A JUMP JUMPDEST SWAP3 SWAP2 POP POP JUMP JUMPDEST PUSH1 0x0 PUSH3 0x2B2 PUSH3 0x2AC DUP5 PUSH3 0x22C JUMP JUMPDEST PUSH3 0x20D JUMP JUMPDEST SWAP1 POP DUP1 DUP4 DUP3 MSTORE PUSH1 0x20 DUP3 ADD SWAP1 POP PUSH1 0x20 DUP5 MUL DUP4 ADD DUP6 DUP2 GT ISZERO PUSH3 0x2D8 JUMPI PUSH3 0x2D7 PUSH3 0x25B JUMP JUMPDEST JUMPDEST DUP4 JUMPDEST DUP2 DUP2 LT ISZERO PUSH3 0x305 JUMPI DUP1 PUSH3 0x2F0 DUP9 DUP3 PUSH3 0x284 JUMP JUMPDEST DUP5 MSTORE PUSH1 0x20 DUP5 ADD SWAP4 POP POP PUSH1 0x20 DUP2 ADD SWAP1 POP PUSH3 0x2DA JUMP JUMPDEST POP POP POP SWAP4 SWAP3 POP POP POP JUMP JUMPDEST PUSH1 0x0 DUP3 PUSH1 0x1F DUP4 ADD SLT PUSH3 0x327 JUMPI PUSH3 0x326 PUSH3 0x192 JUMP JUMPDEST JUMPDEST DUP2 MLOAD PUSH3 0x339 DUP5 DUP3 PUSH1 0x20 DUP7 ADD PUSH3 0x29B JUMP JUMPDEST SWAP2 POP POP SWAP3 SWAP2 POP POP JUMP JUMPDEST PUSH1 0x0 PUSH1 0x20 DUP3 DUP5 SUB SLT ISZERO PUSH3 0x35B JUMPI PUSH3 0x35A PUSH3 0x188 JUMP JUMPDEST JUMPDEST PUSH1 0x0 DUP3 ADD MLOAD PUSH8 0xFFFFFFFFFFFFFFFF DUP2 GT ISZERO PUSH3 0x37C JUMPI PUSH3 0x37B PUSH3 0x18D JUMP JUMPDEST JUMPDEST PUSH3 0x38A DUP5 DUP3 DUP6 ADD PUSH3 0x30F JUMP JUMPDEST SWAP2 POP POP SWAP3 SWAP2 POP POP JUMP JUMPDEST PUSH32 0x4E487B7100000000000000000000000000000000000000000000000000000000 PUSH1 0x0 MSTORE PUSH1 0x32 PUSH1 0x4 MSTORE PUSH1 0x24 PUSH1 0x0 REVERT JUMPDEST PUSH32 0x4E487B7100000000000000000000000000000000000000000000000000000000 PUSH1 0x0 MSTORE PUSH1 0x11 PUSH1 0x4 MSTORE PUSH1 0x24 PUSH1 0x0 REVERT JUMPDEST PUSH1 0x0 DUP2 SWAP1 POP SWAP2 SWAP1 POP JUMP JUMPDEST PUSH1 0x0 PUSH3 0x408 DUP3 PUSH3 0x3F1 JUMP JUMPDEST SWAP2 POP PUSH32 0xFFFFFFFFFFFFFFFFFFFFFFFFFFFFFFFFFFFFFFFFFFFFFFFFFFFFFFFFFFFFFFFF DUP3 SUB PUSH3 0x43D JUMPI PUSH3 0x43C PUSH3 0x3C2 JUMP JUMPDEST JUMPDEST PUSH1 0x1 DUP3 ADD SWAP1 POP SWAP2 SWAP1 POP JUMP JUMPDEST PUSH2 0xF15 DUP1 PUSH3 0x458 PUSH1 0x0 CODECOPY PUSH1 0x0 RETURN INVALID PUSH1 0x80 PUSH1 0x40 MSTORE CALLVALUE DUP1 ISZERO PUSH2 0x10 JUMPI PUSH1 0x0 DUP1 REVERT JUMPDEST POP PUSH1 0x4 CALLDATASIZE LT PUSH2 0x88 JUMPI PUSH1 0x0 CALLDATALOAD PUSH1 0xE0 SHR DUP1 PUSH4 0x609FF1BD GT PUSH2 0x5B JUMPI DUP1 PUSH4 0x609FF1BD EQ PUSH2 0x114 JUMPI DUP1 PUSH4 0x9E7B8D61 EQ PUSH2 0x132 JUMPI DUP1 PUSH4 0xA3EC138D EQ PUSH2 0x14E JUMPI DUP1 PUSH4 0xE2BA53F0 EQ PUSH2 0x181 JUMPI PUSH2 0x88 JUMP JUMPDEST DUP1 PUSH4 0x121B93F EQ PUSH2 0x8D JUMPI DUP1 PUSH4 0x13CF08B EQ PUSH2 0xA9 JUMPI DUP1 PUSH4 0x2E4176CF EQ PUSH2 0xDA JUMPI DUP1 PUSH4 0x5C19A95C EQ PUSH2 0xF8 JUMPI JUMPDEST PUSH1 0x0 DUP1 REVERT JUMPDEST PUSH2 0xA7 PUSH1 0x4 DUP1 CALLDATASIZE SUB DUP2 ADD SWAP1 PUSH2 0xA2 SWAP2 SWAP1 PUSH2 0x95B JUMP JUMPDEST PUSH2 0x19F JUMP JUMPDEST STOP JUMPDEST PUSH2 0xC3 PUSH1 0x4 DUP1 CALLDATASIZE SUB DUP2 ADD SWAP1 PUSH2 0xBE SWAP2 SWAP1 PUSH2 0x95B JUMP JUMPDEST PUSH2 0x25E JUMP JUMPDEST PUSH1 0x40 MLOAD PUSH2 0xD1 SWAP3 SWAP2 SWAP1 PUSH2 0x9B0 JUMP JUMPDEST PUSH1 0x40 MLOAD DUP1 SWAP2 SUB SWAP1 RETURN JUMPDEST PUSH2 0xE2 PUSH2 0x292 JUMP JUMPDEST PUSH1 0x40 MLOAD PUSH2 0xEF SWAP2 SWAP1 PUSH2 0xA1A JUMP JUMPDEST PUSH1 0x40 MLOAD DUP1 SWAP2 SUB SWAP1 RETURN JUMPDEST PUSH2 0x112 PUSH1 0x4 DUP1 CALLDATASIZE SUB DUP2 ADD SWAP1 PUSH2 0x10D SWAP2 SWAP1 PUSH2 0xA61 JUMP JUMPDEST PUSH2 0x2B6 JUMP JUMPDEST STOP JUMPDEST PUSH2 0x11C PUSH2 0x650 JUMP JUMPDEST PUSH1 0x40 MLOAD PUSH2 0x129 SWAP2 SWAP1 PUSH2 0xA8E JUMP JUMPDEST PUSH1 0x40 MLOAD DUP1 SWAP2 SUB SWAP1 RETURN JUMPDEST PUSH2 0x14C PUSH1 0x4 DUP1 CALLDATASIZE SUB DUP2 ADD SWAP1 PUSH2 0x147 SWAP2 SWAP1 PUSH2 0xA61 JUMP JUMPDEST PUSH2 0x6D8 JUMP JUMPDEST STOP JUMPDEST PUSH2 0x168 PUSH1 0x4 DUP1 CALLDATASIZE SUB DUP2 ADD SWAP1 PUSH2 0x163 SWAP2 SWAP1 PUSH2 0xA61 JUMP JUMPDEST PUSH2 0x88F JUMP JUMPDEST PUSH1 0x40 MLOAD PUSH2 0x178 SWAP5 SWAP4 SWAP3 SWAP2 SWAP1 PUSH2 0xAC4 JUMP JUMPDEST PUSH1 0x40 MLOAD DUP1 SWAP2 SUB SWAP1 RETURN JUMPDEST PUSH2 0x189 PUSH2 0x8EC JUMP JUMPDEST PUSH1 0x40 MLOAD PUSH2 0x196 SWAP2 SWAP1 PUSH2 0xB09 JUMP JUMPDEST PUSH1 0x40 MLOAD DUP1 SWAP2 SUB SWAP1 RETURN JUMPDEST PUSH1 0x0 PUSH1 0x1 PUSH1 0x0 CALLER PUSH20 0xFFFFFFFFFFFFFFFFFFFFFFFFFFFFFFFFFFFFFFFF AND PUSH20 0xFFFFFFFFFFFFFFFFFFFFFFFFFFFFFFFFFFFFFFFF AND DUP2 MSTORE PUSH1 0x20 ADD SWAP1 DUP2 MSTORE PUSH1 0x20 ADD PUSH1 0x0 KECCAK256 SWAP1 POP DUP1 PUSH1 0x1 ADD PUSH1 0x0 SWAP1 SLOAD SWAP1 PUSH2 0x100 EXP SWAP1 DIV PUSH1 0xFF AND ISZERO PUSH2 0x234 JUMPI PUSH1 0x40 MLOAD PUSH32 0x8C379A000000000000000000000000000000000000000000000000000000000 DUP2 MSTORE PUSH1 0x4 ADD PUSH2 0x22B SWAP1 PUSH2 0xB81 JUMP JUMPDEST PUSH1 0x40 MLOAD DUP1 SWAP2 SUB SWAP1 REVERT JUMPDEST PUSH1 0x1 DUP2 PUSH1 0x1 ADD PUSH1 0x0 PUSH2 0x100 EXP DUP2 SLOAD DUP2 PUSH1 0xFF MUL NOT AND SWAP1 DUP4 ISZERO ISZERO MUL OR SWAP1 SSTORE POP DUP2 DUP2 PUSH1 0x2 ADD DUP2 SWAP1 SSTORE POP POP POP JUMP JUMPDEST PUSH1 0x2 DUP2 DUP2 SLOAD DUP2 LT PUSH2 0x26E JUMPI PUSH1 0x0 DUP1 REVERT JUMPDEST SWAP1 PUSH1 0x0 MSTORE PUSH1 0x20 PUSH1 0x0 KECCAK256 SWAP1 PUSH1 0x2 MUL ADD PUSH1 0x0 SWAP2 POP SWAP1 POP DUP1 PUSH1 0x0 ADD SLOAD SWAP1 DUP1 PUSH1 0x1 ADD SLOAD SWAP1 POP DUP3 JUMP JUMPDEST PUSH1 0x0 DUP1 SLOAD SWAP1 PUSH2 0x100 EXP SWAP1 DIV PUSH20 0xFFFFFFFFFFFFFFFFFFFFFFFFFFFFFFFFFFFFFFFF AND DUP2 JUMP JUMPDEST PUSH1 0x0 PUSH1 0x1 PUSH1 0x0 CALLER PUSH20 0xFFFFFFFFFFFFFFFFFFFFFFFFFFFFFFFFFFFFFFFF AND PUSH20 0xFFFFFFFFFFFFFFFFFFFFFFFFFFFFFFFFFFFFFFFF AND DUP2 MSTORE PUSH1 0x20 ADD SWAP1 DUP2 MSTORE PUSH1 0x20 ADD PUSH1 0x0 KECCAK256 SWAP1 POP DUP1 PUSH1 0x1 ADD PUSH1 0x0 SWAP1 SLOAD SWAP1 PUSH2 0x100 EXP SWAP1 DIV PUSH1 0xFF AND ISZERO PUSH2 0x34B JUMPI PUSH1 0x40 MLOAD PUSH32 0x8C379A000000000000000000000000000000000000000000000000000000000 DUP2 MSTORE PUSH1 0x4 ADD PUSH2 0x342 SWAP1 PUSH2 0xBED JUMP JUMPDEST PUSH1 0x40 MLOAD DUP1 SWAP2 SUB SWAP1 REVERT JUMPDEST CALLER PUSH20 0xFFFFFFFFFFFFFFFFFFFFFFFFFFFFFFFFFFFFFFFF AND DUP3 PUSH20 0xFFFFFFFFFFFFFFFFFFFFFFFFFFFFFFFFFFFFFFFF AND SUB PUSH2 0x3B9 JUMPI PUSH1 0x40 MLOAD PUSH32 0x8C379A000000000000000000000000000000000000000000000000000000000 DUP2 MSTORE PUSH1 0x4 ADD PUSH2 0x3B0 SWAP1 PUSH2 0xC59 JUMP JUMPDEST PUSH1 0x40 MLOAD DUP1 SWAP2 SUB SWAP1 REVERT JUMPDEST JUMPDEST PUSH1 0x0 PUSH20 0xFFFFFFFFFFFFFFFFFFFFFFFFFFFFFFFFFFFFFFFF AND PUSH1 0x1 PUSH1 0x0 DUP5 PUSH20 0xFFFFFFFFFFFFFFFFFFFFFFFFFFFFFFFFFFFFFFFF AND PUSH20 0xFFFFFFFFFFFFFFFFFFFFFFFFFFFFFFFFFFFFFFFF AND DUP2 MSTORE PUSH1 0x20 ADD SWAP1 DUP2 MSTORE PUSH1 0x20 ADD PUSH1 0x0 KECCAK256 PUSH1 0x1 ADD PUSH1 0x1 SWAP1 SLOAD SWAP1 PUSH2 0x100 EXP SWAP1 DIV PUSH20 0xFFFFFFFFFFFFFFFFFFFFFFFFFFFFFFFFFFFFFFFF AND PUSH20 0xFFFFFFFFFFFFFFFFFFFFFFFFFFFFFFFFFFFFFFFF AND EQ PUSH2 0x528 JUMPI PUSH1 0x1 PUSH1 0x0 DUP4 PUSH20 0xFFFFFFFFFFFFFFFFFFFFFFFFFFFFFFFFFFFFFFFF AND PUSH20 0xFFFFFFFFFFFFFFFFFFFFFFFFFFFFFFFFFFFFFFFF AND DUP2 MSTORE PUSH1 0x20 ADD SWAP1 DUP2 MSTORE PUSH1 0x20 ADD PUSH1 0x0 KECCAK256 PUSH1 0x1 ADD PUSH1 0x1 SWAP1 SLOAD SWAP1 PUSH2 0x100 EXP SWAP1 DIV PUSH20 0xFFFFFFFFFFFFFFFFFFFFFFFFFFFFFFFFFFFFFFFF AND SWAP2 POP CALLER PUSH20 0xFFFFFFFFFFFFFFFFFFFFFFFFFFFFFFFFFFFFFFFF AND DUP3 PUSH20 0xFFFFFFFFFFFFFFFFFFFFFFFFFFFFFFFFFFFFFFFF AND SUB PUSH2 0x523 JUMPI PUSH1 0x40 MLOAD PUSH32 0x8C379A000000000000000000000000000000000000000000000000000000000 DUP2 MSTORE PUSH1 0x4 ADD PUSH2 0x51A SWAP1 PUSH2 0xCC5 JUMP JUMPDEST PUSH1 0x40 MLOAD DUP1 SWAP2 SUB SWAP1 REVERT JUMPDEST PUSH2 0x3BA JUMP JUMPDEST PUSH1 0x1 DUP2 PUSH1 0x1 ADD PUSH1 0x0 PUSH2 0x100 EXP DUP2 SLOAD DUP2 PUSH1 0xFF MUL NOT AND SWAP1 DUP4 ISZERO ISZERO MUL OR SWAP1 SSTORE POP DUP2 DUP2 PUSH1 0x1 ADD PUSH1 0x1 PUSH2 0x100 EXP DUP2 SLOAD DUP2 PUSH20 0xFFFFFFFFFFFFFFFFFFFFFFFFFFFFFFFFFFFFFFFF MUL NOT AND SWAP1 DUP4 PUSH20 0xFFFFFFFFFFFFFFFFFFFFFFFFFFFFFFFFFFFFFFFF AND MUL OR SWAP1 SSTORE POP PUSH1 0x0 PUSH1 0x1 PUSH1 0x0 DUP5 PUSH20 0xFFFFFFFFFFFFFFFFFFFFFFFFFFFFFFFFFFFFFFFF AND PUSH20 0xFFFFFFFFFFFFFFFFFFFFFFFFFFFFFFFFFFFFFFFF AND DUP2 MSTORE PUSH1 0x20 ADD SWAP1 DUP2 MSTORE PUSH1 0x20 ADD PUSH1 0x0 KECCAK256 SWAP1 POP DUP1 PUSH1 0x1 ADD PUSH1 0x0 SWAP1 SLOAD SWAP1 PUSH2 0x100 EXP SWAP1 DIV PUSH1 0xFF AND ISZERO PUSH2 0x62B JUMPI DUP2 PUSH1 0x0 ADD SLOAD PUSH1 0x2 DUP3 PUSH1 0x2 ADD SLOAD DUP2 SLOAD DUP2 LT PUSH2 0x5FF JUMPI PUSH2 0x5FE PUSH2 0xCE5 JUMP JUMPDEST JUMPDEST SWAP1 PUSH1 0x0 MSTORE PUSH1 0x20 PUSH1 0x0 KECCAK256 SWAP1 PUSH1 0x2 MUL ADD PUSH1 0x1 ADD PUSH1 0x0 DUP3 DUP3 SLOAD PUSH2 0x61F SWAP2 SWAP1 PUSH2 0xD43 JUMP JUMPDEST SWAP3 POP POP DUP2 SWAP1 SSTORE POP PUSH2 0x64B JUMP JUMPDEST DUP2 PUSH1 0x0 ADD SLOAD DUP2 PUSH1 0x0 ADD PUSH1 0x0 DUP3 DUP3 SLOAD PUSH2 0x643 SWAP2 SWAP1 PUSH2 0xD43 JUMP JUMPDEST SWAP3 POP POP DUP2 SWAP1 SSTORE POP JUMPDEST POP POP POP JUMP JUMPDEST PUSH1 0x0 DUP1 PUSH1 0x0 SWAP1 POP PUSH1 0x0 JUMPDEST PUSH1 0x2 DUP1 SLOAD SWAP1 POP DUP2 LT ISZERO PUSH2 0x6D3 JUMPI DUP2 PUSH1 0x2 DUP3 DUP2 SLOAD DUP2 LT PUSH2 0x67C JUMPI PUSH2 0x67B PUSH2 0xCE5 JUMP JUMPDEST JUMPDEST SWAP1 PUSH1 0x0 MSTORE PUSH1 0x20 PUSH1 0x0 KECCAK256 SWAP1 PUSH1 0x2 MUL ADD PUSH1 0x1 ADD SLOAD GT ISZERO PUSH2 0x6C0 JUMPI PUSH1 0x2 DUP2 DUP2 SLOAD DUP2 LT PUSH2 0x6A8 JUMPI PUSH2 0x6A7 PUSH2 0xCE5 JUMP JUMPDEST JUMPDEST SWAP1 PUSH1 0x0 MSTORE PUSH1 0x20 PUSH1 0x0 KECCAK256 SWAP1 PUSH1 0x2 MUL ADD PUSH1 0x1 ADD SLOAD SWAP2 POP DUP1 SWAP3 POP JUMPDEST DUP1 DUP1 PUSH2 0x6CB SWAP1 PUSH2 0xD99 JUMP JUMPDEST SWAP2 POP POP PUSH2 0x65A JUMP JUMPDEST POP POP SWAP1 JUMP JUMPDEST PUSH1 0x0 DUP1 SLOAD SWAP1 PUSH2 0x100 EXP SWAP1 DIV PUSH20 0xFFFFFFFFFFFFFFFFFFFFFFFFFFFFFFFFFFFFFFFF AND PUSH20 0xFFFFFFFFFFFFFFFFFFFFFFFFFFFFFFFFFFFFFFFF AND CALLER PUSH20 0xFFFFFFFFFFFFFFFFFFFFFFFFFFFFFFFFFFFFFFFF AND EQ PUSH2 0x766 JUMPI PUSH1 0x40 MLOAD PUSH32 0x8C379A000000000000000000000000000000000000000000000000000000000 DUP2 MSTORE PUSH1 0x4 ADD PUSH2 0x75D SWAP1 PUSH2 0xE53 JUMP JUMPDEST PUSH1 0x40 MLOAD DUP1 SWAP2 SUB SWAP1 REVERT JUMPDEST PUSH1 0x1 PUSH1 0x0 DUP3 PUSH20 0xFFFFFFFFFFFFFFFFFFFFFFFFFFFFFFFFFFFFFFFF AND PUSH20 0xFFFFFFFFFFFFFFFFFFFFFFFFFFFFFFFFFFFFFFFF AND DUP2 MSTORE PUSH1 0x20 ADD SWAP1 DUP2 MSTORE PUSH1 0x20 ADD PUSH1 0x0 KECCAK256 PUSH1 0x1 ADD PUSH1 0x0 SWAP1 SLOAD SWAP1 PUSH2 0x100 EXP SWAP1 DIV PUSH1 0xFF AND ISZERO PUSH2 0x7F6 JUMPI PUSH1 0x40 MLOAD PUSH32 0x8C379A000000000000000000000000000000000000000000000000000000000 DUP2 MSTORE PUSH1 0x4 ADD PUSH2 0x7ED SWAP1 PUSH2 0xEBF JUMP JUMPDEST PUSH1 0x40 MLOAD DUP1 SWAP2 SUB SWAP1 REVERT JUMPDEST PUSH1 0x0 PUSH1 0x1 PUSH1 0x0 DUP4 PUSH20 0xFFFFFFFFFFFFFFFFFFFFFFFFFFFFFFFFFFFFFFFF AND PUSH20 0xFFFFFFFFFFFFFFFFFFFFFFFFFFFFFFFFFFFFFFFF AND DUP2 MSTORE PUSH1 0x20 ADD SWAP1 DUP2 MSTORE PUSH1 0x20 ADD PUSH1 0x0 KECCAK256 PUSH1 0x0 ADD SLOAD EQ PUSH2 0x845 JUMPI PUSH1 0x0 DUP1 REVERT JUMPDEST PUSH1 0x1 DUP1 PUSH1 0x0 DUP4 PUSH20 0xFFFFFFFFFFFFFFFFFFFFFFFFFFFFFFFFFFFFFFFF AND PUSH20 0xFFFFFFFFFFFFFFFFFFFFFFFFFFFFFFFFFFFFFFFF AND DUP2 MSTORE PUSH1 0x20 ADD SWAP1 DUP2 MSTORE PUSH1 0x20 ADD PUSH1 0x0 KECCAK256 PUSH1 0x0 ADD DUP2 SWAP1 SSTORE POP POP JUMP JUMPDEST PUSH1 0x1 PUSH1 0x20 MSTORE DUP1 PUSH1 0x0 MSTORE PUSH1 0x40 PUSH1 0x0 KECCAK256 PUSH1 0x0 SWAP2 POP SWAP1 POP DUP1 PUSH1 0x0 ADD SLOAD SWAP1 DUP1 PUSH1 0x1 ADD PUSH1 0x0 SWAP1 SLOAD SWAP1 PUSH2 0x100 EXP SWAP1 DIV PUSH1 0xFF AND SWAP1 DUP1 PUSH1 0x1 ADD PUSH1 0x1 SWAP1 SLOAD SWAP1 PUSH2 0x100 EXP SWAP1 DIV PUSH20 0xFFFFFFFFFFFFFFFFFFFFFFFFFFFFFFFFFFFFFFFF AND SWAP1 DUP1 PUSH1 0x2 ADD SLOAD SWAP1 POP DUP5 JUMP JUMPDEST PUSH1 0x0 PUSH1 0x2 PUSH2 0x8F8 PUSH2 0x650 JUMP JUMPDEST DUP2 SLOAD DUP2 LT PUSH2 0x909 JUMPI PUSH2 0x908 PUSH2 0xCE5 JUMP JUMPDEST JUMPDEST SWAP1 PUSH1 0x0 MSTORE PUSH1 0x20 PUSH1 0x0 KECCAK256 SWAP1 PUSH1 0x2 MUL ADD PUSH1 0x0 ADD SLOAD SWAP1 POP SWAP1 JUMP JUMPDEST PUSH1 0x0 DUP1 REVERT JUMPDEST PUSH1 0x0 DUP2 SWAP1 POP SWAP2 SWAP1 POP JUMP JUMPDEST PUSH2 0x938 DUP2 PUSH2 0x925 JUMP JUMPDEST DUP2 EQ PUSH2 0x943 JUMPI PUSH1 0x0 DUP1 REVERT JUMPDEST POP JUMP JUMPDEST PUSH1 0x0 DUP2 CALLDATALOAD SWAP1 POP PUSH2 0x955 DUP2 PUSH2 0x92F JUMP JUMPDEST SWAP3 SWAP2 POP POP JUMP JUMPDEST PUSH1 0x0 PUSH1 0x20 DUP3 DUP5 SUB SLT ISZERO PUSH2 0x971 JUMPI PUSH2 0x970 PUSH2 0x920 JUMP JUMPDEST JUMPDEST PUSH1 0x0 PUSH2 0x97F DUP5 DUP3 DUP6 ADD PUSH2 0x946 JUMP JUMPDEST SWAP2 POP POP SWAP3 SWAP2 POP POP JUMP JUMPDEST PUSH1 0x0 DUP2 SWAP1 POP SWAP2 SWAP1 POP JUMP JUMPDEST PUSH2 0x99B DUP2 PUSH2 0x988 JUMP JUMPDEST DUP3 MSTORE POP POP JUMP JUMPDEST PUSH2 0x9AA DUP2 PUSH2 0x925 JUMP JUMPDEST DUP3 MSTORE POP POP JUMP JUMPDEST PUSH1 0x0 PUSH1 0x40 DUP3 ADD SWAP1 POP PUSH2 0x9C5 PUSH1 0x0 DUP4 ADD DUP6 PUSH2 0x992 JUMP JUMPDEST PUSH2 0x9D2 PUSH1 0x20 DUP4 ADD DUP5 PUSH2 0x9A1 JUMP JUMPDEST SWAP4 SWAP3 POP POP POP JUMP JUMPDEST PUSH1 0x0 PUSH20 0xFFFFFFFFFFFFFFFFFFFFFFFFFFFFFFFFFFFFFFFF DUP3 AND SWAP1 POP SWAP2 SWAP1 POP JUMP JUMPDEST PUSH1 0x0 PUSH2 0xA04 DUP3 PUSH2 0x9D9 JUMP JUMPDEST SWAP1 POP SWAP2 SWAP1 POP JUMP JUMPDEST PUSH2 0xA14 DUP2 PUSH2 0x9F9 JUMP JUMPDEST DUP3 MSTORE POP POP JUMP JUMPDEST PUSH1 0x0 PUSH1 0x20 DUP3 ADD SWAP1 POP PUSH2 0xA2F PUSH1 0x0 DUP4 ADD DUP5 PUSH2 0xA0B JUMP JUMPDEST SWAP3 SWAP2 POP POP JUMP JUMPDEST PUSH2 0xA3E DUP2 PUSH2 0x9F9 JUMP JUMPDEST DUP2 EQ PUSH2 0xA49 JUMPI PUSH1 0x0 DUP1 REVERT JUMPDEST POP JUMP JUMPDEST PUSH1 0x0 DUP2 CALLDATALOAD SWAP1 POP PUSH2 0xA5B DUP2 PUSH2 0xA35 JUMP JUMPDEST SWAP3 SWAP2 POP POP JUMP JUMPDEST PUSH1 0x0 PUSH1 0x20 DUP3 DUP5 SUB SLT ISZERO PUSH2 0xA77 JUMPI PUSH2 0xA76 PUSH2 0x920 JUMP JUMPDEST JUMPDEST PUSH1 0x0 PUSH2 0xA85 DUP5 DUP3 DUP6 ADD PUSH2 0xA4C JUMP JUMPDEST SWAP2 POP POP SWAP3 SWAP2 POP POP JUMP JUMPDEST PUSH1 0x0 PUSH1 0x20 DUP3 ADD SWAP1 POP PUSH2 0xAA3 PUSH1 0x0 DUP4 ADD DUP5 PUSH2 0x9A1 JUMP JUMPDEST SWAP3 SWAP2 POP POP JUMP JUMPDEST PUSH1 0x0 DUP2 ISZERO ISZERO SWAP1 POP SWAP2 SWAP1 POP JUMP JUMPDEST PUSH2 0xABE DUP2 PUSH2 0xAA9 JUMP JUMPDEST DUP3 MSTORE POP POP JUMP JUMPDEST PUSH1 0x0 PUSH1 0x80 DUP3 ADD SWAP1 POP PUSH2 0xAD9 PUSH1 0x0 DUP4 ADD DUP8 PUSH2 0x9A1 JUMP JUMPDEST PUSH2 0xAE6 PUSH1 0x20 DUP4 ADD DUP7 PUSH2 0xAB5 JUMP JUMPDEST PUSH2 0xAF3 PUSH1 0x40 DUP4 ADD DUP6 PUSH2 0xA0B JUMP JUMPDEST PUSH2 0xB00 PUSH1 0x60 DUP4 ADD DUP5 PUSH2 0x9A1 JUMP JUMPDEST SWAP6 SWAP5 POP POP POP POP POP JUMP JUMPDEST PUSH1 0x0 PUSH1 0x20 DUP3 ADD SWAP1 POP PUSH2 0xB1E PUSH1 0x0 DUP4 ADD DUP5 PUSH2 0x992 JUMP JUMPDEST SWAP3 SWAP2 POP POP JUMP JUMPDEST PUSH1 0x0 DUP3 DUP3 MSTORE PUSH1 0x20 DUP3 ADD SWAP1 POP SWAP3 SWAP2 POP POP JUMP JUMPDEST PUSH32 0x416C7265647920766F7465640000000000000000000000000000000000000000 PUSH1 0x0 DUP3 ADD MSTORE POP JUMP JUMPDEST PUSH1 0x0 PUSH2 0xB6B PUSH1 0xC DUP4 PUSH2 0xB24 JUMP JUMPDEST SWAP2 POP PUSH2 0xB76 DUP3 PUSH2 0xB35 JUMP JUMPDEST PUSH1 0x20 DUP3 ADD SWAP1 POP SWAP2 SWAP1 POP JUMP JUMPDEST PUSH1 0x0 PUSH1 0x20 DUP3 ADD SWAP1 POP DUP2 DUP2 SUB PUSH1 0x0 DUP4 ADD MSTORE PUSH2 0xB9A DUP2 PUSH2 0xB5E JUMP JUMPDEST SWAP1 POP SWAP2 SWAP1 POP JUMP JUMPDEST PUSH32 0x596F7520616C726561647920766F746564000000000000000000000000000000 PUSH1 0x0 DUP3 ADD MSTORE POP JUMP JUMPDEST PUSH1 0x0 PUSH2 0xBD7 PUSH1 0x11 DUP4 PUSH2 0xB24 JUMP JUMPDEST SWAP2 POP PUSH2 0xBE2 DUP3 PUSH2 0xBA1 JUMP JUMPDEST PUSH1 0x20 DUP3 ADD SWAP1 POP SWAP2 SWAP1 POP JUMP JUMPDEST PUSH1 0x0 PUSH1 0x20 DUP3 ADD SWAP1 POP DUP2 DUP2 SUB PUSH1 0x0 DUP4 ADD MSTORE PUSH2 0xC06 DUP2 PUSH2 0xBCA JUMP JUMPDEST SWAP1 POP SWAP2 SWAP1 POP JUMP JUMPDEST PUSH32 0x53656C662D64656C65676174696F6E20697320646973616C6C6F7765642E0000 PUSH1 0x0 DUP3 ADD MSTORE POP JUMP JUMPDEST PUSH1 0x0 PUSH2 0xC43 PUSH1 0x1E DUP4 PUSH2 0xB24 JUMP JUMPDEST SWAP2 POP PUSH2 0xC4E DUP3 PUSH2 0xC0D JUMP JUMPDEST PUSH1 0x20 DUP3 ADD SWAP1 POP SWAP2 SWAP1 POP JUMP JUMPDEST PUSH1 0x0 PUSH1 0x20 DUP3 ADD SWAP1 POP DUP2 DUP2 SUB PUSH1 0x0 DUP4 ADD MSTORE PUSH2 0xC72 DUP2 PUSH2 0xC36 JUMP JUMPDEST SWAP1 POP SWAP2 SWAP1 POP JUMP JUMPDEST PUSH32 0x466F756E64206C6F6F7020696E2064656C65676174696F6E0000000000000000 PUSH1 0x0 DUP3 ADD MSTORE POP JUMP JUMPDEST PUSH1 0x0 PUSH2 0xCAF PUSH1 0x18 DUP4 PUSH2 0xB24 JUMP JUMPDEST SWAP2 POP PUSH2 0xCBA DUP3 PUSH2 0xC79 JUMP JUMPDEST PUSH1 0x20 DUP3 ADD SWAP1 POP SWAP2 SWAP1 POP JUMP JUMPDEST PUSH1 0x0 PUSH1 0x20 DUP3 ADD SWAP1 POP DUP2 DUP2 SUB PUSH1 0x0 DUP4 ADD MSTORE PUSH2 0xCDE DUP2 PUSH2 0xCA2 JUMP JUMPDEST SWAP1 POP SWAP2 SWAP1 POP JUMP JUMPDEST PUSH32 0x4E487B7100000000000000000000000000000000000000000000000000000000 PUSH1 0x0 MSTORE PUSH1 0x32 PUSH1 0x4 MSTORE PUSH1 0x24 PUSH1 0x0 REVERT JUMPDEST PUSH32 0x4E487B7100000000000000000000000000000000000000000000000000000000 PUSH1 0x0 MSTORE PUSH1 0x11 PUSH1 0x4 MSTORE PUSH1 0x24 PUSH1 0x0 REVERT JUMPDEST PUSH1 0x0 PUSH2 0xD4E DUP3 PUSH2 0x925 JUMP JUMPDEST SWAP2 POP PUSH2 0xD59 DUP4 PUSH2 0x925 JUMP JUMPDEST SWAP3 POP DUP3 PUSH32 0xFFFFFFFFFFFFFFFFFFFFFFFFFFFFFFFFFFFFFFFFFFFFFFFFFFFFFFFFFFFFFFFF SUB DUP3 GT ISZERO PUSH2 0xD8E JUMPI PUSH2 0xD8D PUSH2 0xD14 JUMP JUMPDEST JUMPDEST DUP3 DUP3 ADD SWAP1 POP SWAP3 SWAP2 POP POP JUMP JUMPDEST PUSH1 0x0 PUSH2 0xDA4 DUP3 PUSH2 0x925 JUMP JUMPDEST SWAP2 POP PUSH32 0xFFFFFFFFFFFFFFFFFFFFFFFFFFFFFFFFFFFFFFFFFFFFFFFFFFFFFFFFFFFFFFFF DUP3 SUB PUSH2 0xDD6 JUMPI PUSH2 0xDD5 PUSH2 0xD14 JUMP JUMPDEST JUMPDEST PUSH1 0x1 DUP3 ADD SWAP1 POP SWAP2 SWAP1 POP JUMP JUMPDEST PUSH32 0x4F6E6C79206368616972706572736F6E2063616E206769766520726967687420 PUSH1 0x0 DUP3 ADD MSTORE PUSH32 0x746F20766F746500000000000000000000000000000000000000000000000000 PUSH1 0x20 DUP3 ADD MSTORE POP JUMP JUMPDEST PUSH1 0x0 PUSH2 0xE3D PUSH1 0x27 DUP4 PUSH2 0xB24 JUMP JUMPDEST SWAP2 POP PUSH2 0xE48 DUP3 PUSH2 0xDE1 JUMP JUMPDEST PUSH1 0x40 DUP3 ADD SWAP1 POP SWAP2 SWAP1 POP JUMP JUMPDEST PUSH1 0x0 PUSH1 0x20 DUP3 ADD SWAP1 POP DUP2 DUP2 SUB PUSH1 0x0 DUP4 ADD MSTORE PUSH2 0xE6C DUP2 PUSH2 0xE30 JUMP JUMPDEST SWAP1 POP SWAP2 SWAP1 POP JUMP JUMPDEST PUSH32 0x54686520766F74657220616C726561647920766F746564000000000000000000 PUSH1 0x0 DUP3 ADD MSTORE POP JUMP JUMPDEST PUSH1 0x0 PUSH2 0xEA9 PUSH1 0x17 DUP4 PUSH2 0xB24 JUMP JUMPDEST SWAP2 POP PUSH2 0xEB4 DUP3 PUSH2 0xE73 JUMP JUMPDEST PUSH1 0x20 DUP3 ADD SWAP1 POP SWAP2 SWAP1 POP JUMP JUMPDEST PUSH1 0x0 PUSH1 0x20 DUP3 ADD SWAP1 POP DUP2 DUP2 SUB PUSH1 0x0 DUP4 ADD MSTORE PUSH2 0xED8 DUP2 PUSH2 0xE9C JUMP JUMPDEST SWAP1 POP SWAP2 SWAP1 POP JUMP INVALID LOG2 PUSH5 0x6970667358 0x22 SLT KECCAK256 0x2A 0xDB PUSH17 0x5ED70FA01A86BEA4A4EA0A9D88A58DD8BF 0xB1 CALLDATALOAD SWAP12 0xEB 0xB0 LOG1 PUSH17 0x33A672086964736F6C634300080D003300 "
				},
				"gasEstimates": {
					"creation": {
						"codeDepositCost": "772200",
						"executionCost": "infinite",
						"totalCost": "infinite"
					},
					"external": {
						"chairperson()": "2556",
						"delegate(address)": "infinite",
						"giveRightToVote(address)": "29325",
						"proposals(uint256)": "infinite",
						"vote(uint256)": "49064",
						"voters(address)": "infinite",
						"winnerName()": "infinite",
						"winningProposal()": "infinite"
					}
				},
				"methodIdentifiers": {
					"chairperson()": "2e4176cf",
					"delegate(address)": "5c19a95c",
					"giveRightToVote(address)": "9e7b8d61",
					"proposals(uint256)": "013cf08b",
					"vote(uint256)": "0121b93f",
					"voters(address)": "a3ec138d",
					"winnerName()": "e2ba53f0",
					"winningProposal()": "609ff1bd"
				}
			},
			"userdoc": {
				"kind": "user",
				"methods": {},
				"version": 1
			}
		}
	}
}