{
	"contracts/Ballot.sol": {
		"Ballot": {
			"abi": [
				{
					"inputs": [
						{
							"internalType": "bytes32[]",
							"name": "proposalNames",
							"type": "bytes32[]"
						}
					],
					"stateMutability": "nonpayable",
					"type": "constructor"
				},
				{
					"inputs": [
						{
							"internalType": "uint256",
							"name": "",
							"type": "uint256"
						}
					],
					"name": "Proposals",
					"outputs": [
						{
							"internalType": "bytes32",
							"name": "name",
							"type": "bytes32"
						},
						{
							"internalType": "uint256",
							"name": "voteCount",
							"type": "uint256"
						}
					],
					"stateMutability": "view",
					"type": "function"
				},
				{
					"inputs": [],
					"name": "chairperson",
					"outputs": [
						{
							"internalType": "address",
							"name": "",
							"type": "address"
						}
					],
					"stateMutability": "view",
					"type": "function"
				},
				{
					"inputs": [
						{
							"internalType": "address",
							"name": "to",
							"type": "address"
						}
					],
					"name": "delegate",
					"outputs": [],
					"stateMutability": "nonpayable",
					"type": "function"
				},
				{
					"inputs": [
						{
							"internalType": "address",
							"name": "voter",
							"type": "address"
						}
					],
					"name": "giveRightToVote",
					"outputs": [],
					"stateMutability": "nonpayable",
					"type": "function"
				},
				{
					"inputs": [
						{
							"internalType": "address",
							"name": "",
							"type": "address"
						}
					],
					"name": "voters",
					"outputs": [
						{
							"internalType": "uint256",
							"name": "weight",
							"type": "uint256"
						},
						{
							"internalType": "bool",
							"name": "voted",
							"type": "bool"
						},
						{
							"internalType": "address",
							"name": "delegate",
							"type": "address"
						},
						{
							"internalType": "uint256",
							"name": "vote",
							"type": "uint256"
						}
					],
					"stateMutability": "view",
					"type": "function"
				}
			],
			"devdoc": {
				"kind": "dev",
				"methods": {},
				"version": 1
			},
			"evm": {
				"assembly": "    /* \"contracts/Ballot.sol\":66:2317  contract Ballot {... */\n  mstore(0x40, 0x80)\n    /* \"contracts/Ballot.sol\":656:1060  constructor(bytes32[] memory proposalNames) {... */\n  callvalue\n  dup1\n  iszero\n  tag_1\n  jumpi\n  0x00\n  dup1\n  revert\ntag_1:\n  pop\n  mload(0x40)\n  sub(codesize, bytecodeSize)\n  dup1\n  bytecodeSize\n  dup4\n  codecopy\n  dup2\n  dup2\n  add\n  0x40\n  mstore\n  dup2\n  add\n  swap1\n  tag_2\n  swap2\n  swap1\n  tag_3\n  jump\t// in\ntag_2:\n    /* \"contracts/Ballot.sol\":747:757  msg.sender */\n  caller\n    /* \"contracts/Ballot.sol\":733:744  chairperson */\n  0x00\n  dup1\n    /* \"contracts/Ballot.sol\":733:757  chairperson = msg.sender */\n  0x0100\n  exp\n  dup2\n  sload\n  dup2\n  0xffffffffffffffffffffffffffffffffffffffff\n  mul\n  not\n  and\n  swap1\n  dup4\n  0xffffffffffffffffffffffffffffffffffffffff\n  and\n  mul\n  or\n  swap1\n  sstore\n  pop\n    /* \"contracts/Ballot.sol\":842:843  1 */\n  0x01\n    /* \"contracts/Ballot.sol\":813:819  voters */\n  dup1\n    /* \"contracts/Ballot.sol\":813:832  voters[chairperson] */\n  0x00\n    /* \"contracts/Ballot.sol\":820:831  chairperson */\n  dup1\n  0x00\n  swap1\n  sload\n  swap1\n  0x0100\n  exp\n  swap1\n  div\n  0xffffffffffffffffffffffffffffffffffffffff\n  and\n    /* \"contracts/Ballot.sol\":813:832  voters[chairperson] */\n  0xffffffffffffffffffffffffffffffffffffffff\n  and\n  0xffffffffffffffffffffffffffffffffffffffff\n  and\n  dup2\n  mstore\n  0x20\n  add\n  swap1\n  dup2\n  mstore\n  0x20\n  add\n  0x00\n  keccak256\n    /* \"contracts/Ballot.sol\":813:839  voters[chairperson].weight */\n  0x00\n  add\n    /* \"contracts/Ballot.sol\":813:843  voters[chairperson].weight = 1 */\n  dup2\n  swap1\n  sstore\n  pop\n    /* \"contracts/Ballot.sol\":893:899  uint i */\n  0x00\n    /* \"contracts/Ballot.sol\":888:1056  for (uint i=0; i<proposalNames.length; i++) {... */\ntag_6:\n    /* \"contracts/Ballot.sol\":905:918  proposalNames */\n  dup2\n    /* \"contracts/Ballot.sol\":905:925  proposalNames.length */\n  mload\n    /* \"contracts/Ballot.sol\":903:904  i */\n  dup2\n    /* \"contracts/Ballot.sol\":903:925  i<proposalNames.length */\n  lt\n    /* \"contracts/Ballot.sol\":888:1056  for (uint i=0; i<proposalNames.length; i++) {... */\n  iszero\n  tag_7\n  jumpi\n    /* \"contracts/Ballot.sol\":944:953  Proposals */\n  0x02\n    /* \"contracts/Ballot.sol\":959:1046  Proposal({... */\n  mload(0x40)\n  dup1\n  0x40\n  add\n  0x40\n  mstore\n  dup1\n    /* \"contracts/Ballot.sol\":990:1003  proposalNames */\n  dup5\n    /* \"contracts/Ballot.sol\":1004:1005  i */\n  dup5\n    /* \"contracts/Ballot.sol\":990:1006  proposalNames[i] */\n  dup2\n  mload\n  dup2\n  lt\n  tag_9\n  jumpi\n  tag_10\n  tag_11\n  jump\t// in\ntag_10:\ntag_9:\n  0x20\n  mul\n  0x20\n  add\n  add\n  mload\n    /* \"contracts/Ballot.sol\":959:1046  Proposal({... */\n  dup2\n  mstore\n  0x20\n  add\n    /* \"contracts/Ballot.sol\":1032:1033  0 */\n  0x00\n    /* \"contracts/Ballot.sol\":959:1046  Proposal({... */\n  dup2\n  mstore\n  pop\n    /* \"contracts/Ballot.sol\":944:1047  Proposals.push(Proposal({... */\n  swap1\n  dup1\n  0x01\n  dup2\n  sload\n  add\n  dup1\n  dup3\n  sstore\n  dup1\n  swap2\n  pop\n  pop\n  0x01\n  swap1\n  sub\n  swap1\n  0x00\n  mstore\n  keccak256(0x00, 0x20)\n  swap1\n  0x02\n  mul\n  add\n  0x00\n  swap1\n  swap2\n  swap1\n  swap2\n  swap1\n  swap2\n  pop\n  0x00\n  dup3\n  add\n  mload\n  dup2\n  0x00\n  add\n  sstore\n  0x20\n  dup3\n  add\n  mload\n  dup2\n  0x01\n  add\n  sstore\n  pop\n  pop\n    /* \"contracts/Ballot.sol\":927:930  i++ */\n  dup1\n  dup1\n  tag_13\n  swap1\n  tag_14\n  jump\t// in\ntag_13:\n  swap2\n  pop\n  pop\n    /* \"contracts/Ballot.sol\":888:1056  for (uint i=0; i<proposalNames.length; i++) {... */\n  jump(tag_6)\ntag_7:\n  pop\n    /* \"contracts/Ballot.sol\":656:1060  constructor(bytes32[] memory proposalNames) {... */\n  pop\n    /* \"contracts/Ballot.sol\":66:2317  contract Ballot {... */\n  jump(tag_15)\n    /* \"#utility.yul\":7:82   */\ntag_16:\n    /* \"#utility.yul\":40:46   */\n  0x00\n    /* \"#utility.yul\":73:75   */\n  0x40\n    /* \"#utility.yul\":67:76   */\n  mload\n    /* \"#utility.yul\":57:76   */\n  swap1\n  pop\n    /* \"#utility.yul\":7:82   */\n  swap1\n  jump\t// out\n    /* \"#utility.yul\":88:205   */\ntag_17:\n    /* \"#utility.yul\":197:198   */\n  0x00\n    /* \"#utility.yul\":194:195   */\n  dup1\n    /* \"#utility.yul\":187:199   */\n  revert\n    /* \"#utility.yul\":211:328   */\ntag_18:\n    /* \"#utility.yul\":320:321   */\n  0x00\n    /* \"#utility.yul\":317:318   */\n  dup1\n    /* \"#utility.yul\":310:322   */\n  revert\n    /* \"#utility.yul\":334:451   */\ntag_19:\n    /* \"#utility.yul\":443:444   */\n  0x00\n    /* \"#utility.yul\":440:441   */\n  dup1\n    /* \"#utility.yul\":433:445   */\n  revert\n    /* \"#utility.yul\":457:559   */\ntag_20:\n    /* \"#utility.yul\":498:504   */\n  0x00\n    /* \"#utility.yul\":549:551   */\n  0x1f\n    /* \"#utility.yul\":545:552   */\n  not\n    /* \"#utility.yul\":540:542   */\n  0x1f\n    /* \"#utility.yul\":533:538   */\n  dup4\n    /* \"#utility.yul\":529:543   */\n  add\n    /* \"#utility.yul\":525:553   */\n  and\n    /* \"#utility.yul\":515:553   */\n  swap1\n  pop\n    /* \"#utility.yul\":457:559   */\n  swap2\n  swap1\n  pop\n  jump\t// out\n    /* \"#utility.yul\":565:745   */\ntag_21:\n    /* \"#utility.yul\":613:690   */\n  0x4e487b7100000000000000000000000000000000000000000000000000000000\n    /* \"#utility.yul\":610:611   */\n  0x00\n    /* \"#utility.yul\":603:691   */\n  mstore\n    /* \"#utility.yul\":710:714   */\n  0x41\n    /* \"#utility.yul\":707:708   */\n  0x04\n    /* \"#utility.yul\":700:715   */\n  mstore\n    /* \"#utility.yul\":734:738   */\n  0x24\n    /* \"#utility.yul\":731:732   */\n  0x00\n    /* \"#utility.yul\":724:739   */\n  revert\n    /* \"#utility.yul\":751:1032   */\ntag_22:\n    /* \"#utility.yul\":834:861   */\n  tag_41\n    /* \"#utility.yul\":856:860   */\n  dup3\n    /* \"#utility.yul\":834:861   */\n  tag_20\n  jump\t// in\ntag_41:\n    /* \"#utility.yul\":826:832   */\n  dup2\n    /* \"#utility.yul\":822:862   */\n  add\n    /* \"#utility.yul\":964:970   */\n  dup2\n    /* \"#utility.yul\":952:962   */\n  dup2\n    /* \"#utility.yul\":949:971   */\n  lt\n    /* \"#utility.yul\":928:946   */\n  0xffffffffffffffff\n    /* \"#utility.yul\":916:926   */\n  dup3\n    /* \"#utility.yul\":913:947   */\n  gt\n    /* \"#utility.yul\":910:972   */\n  or\n    /* \"#utility.yul\":907:995   */\n  iszero\n  tag_42\n  jumpi\n    /* \"#utility.yul\":975:993   */\n  tag_43\n  tag_21\n  jump\t// in\ntag_43:\n    /* \"#utility.yul\":907:995   */\ntag_42:\n    /* \"#utility.yul\":1015:1025   */\n  dup1\n    /* \"#utility.yul\":1011:1013   */\n  0x40\n    /* \"#utility.yul\":1004:1026   */\n  mstore\n    /* \"#utility.yul\":794:1032   */\n  pop\n    /* \"#utility.yul\":751:1032   */\n  pop\n  pop\n  jump\t// out\n    /* \"#utility.yul\":1038:1167   */\ntag_23:\n    /* \"#utility.yul\":1072:1078   */\n  0x00\n    /* \"#utility.yul\":1099:1119   */\n  tag_45\n  tag_16\n  jump\t// in\ntag_45:\n    /* \"#utility.yul\":1089:1119   */\n  swap1\n  pop\n    /* \"#utility.yul\":1128:1161   */\n  tag_46\n    /* \"#utility.yul\":1156:1160   */\n  dup3\n    /* \"#utility.yul\":1148:1154   */\n  dup3\n    /* \"#utility.yul\":1128:1161   */\n  tag_22\n  jump\t// in\ntag_46:\n    /* \"#utility.yul\":1038:1167   */\n  swap2\n  swap1\n  pop\n  jump\t// out\n    /* \"#utility.yul\":1173:1484   */\ntag_24:\n    /* \"#utility.yul\":1250:1254   */\n  0x00\n    /* \"#utility.yul\":1340:1358   */\n  0xffffffffffffffff\n    /* \"#utility.yul\":1332:1338   */\n  dup3\n    /* \"#utility.yul\":1329:1359   */\n  gt\n    /* \"#utility.yul\":1326:1382   */\n  iszero\n  tag_48\n  jumpi\n    /* \"#utility.yul\":1362:1380   */\n  tag_49\n  tag_21\n  jump\t// in\ntag_49:\n    /* \"#utility.yul\":1326:1382   */\ntag_48:\n    /* \"#utility.yul\":1412:1416   */\n  0x20\n    /* \"#utility.yul\":1404:1410   */\n  dup3\n    /* \"#utility.yul\":1400:1417   */\n  mul\n    /* \"#utility.yul\":1392:1417   */\n  swap1\n  pop\n    /* \"#utility.yul\":1472:1476   */\n  0x20\n    /* \"#utility.yul\":1466:1470   */\n  dup2\n    /* \"#utility.yul\":1462:1477   */\n  add\n    /* \"#utility.yul\":1454:1477   */\n  swap1\n  pop\n    /* \"#utility.yul\":1173:1484   */\n  swap2\n  swap1\n  pop\n  jump\t// out\n    /* \"#utility.yul\":1490:1607   */\ntag_25:\n    /* \"#utility.yul\":1599:1600   */\n  0x00\n    /* \"#utility.yul\":1596:1597   */\n  dup1\n    /* \"#utility.yul\":1589:1601   */\n  revert\n    /* \"#utility.yul\":1613:1690   */\ntag_26:\n    /* \"#utility.yul\":1650:1657   */\n  0x00\n    /* \"#utility.yul\":1679:1684   */\n  dup2\n    /* \"#utility.yul\":1668:1684   */\n  swap1\n  pop\n    /* \"#utility.yul\":1613:1690   */\n  swap2\n  swap1\n  pop\n  jump\t// out\n    /* \"#utility.yul\":1696:1818   */\ntag_27:\n    /* \"#utility.yul\":1769:1793   */\n  tag_53\n    /* \"#utility.yul\":1787:1792   */\n  dup2\n    /* \"#utility.yul\":1769:1793   */\n  tag_26\n  jump\t// in\ntag_53:\n    /* \"#utility.yul\":1762:1767   */\n  dup2\n    /* \"#utility.yul\":1759:1794   */\n  eq\n    /* \"#utility.yul\":1749:1812   */\n  tag_54\n  jumpi\n    /* \"#utility.yul\":1808:1809   */\n  0x00\n    /* \"#utility.yul\":1805:1806   */\n  dup1\n    /* \"#utility.yul\":1798:1810   */\n  revert\n    /* \"#utility.yul\":1749:1812   */\ntag_54:\n    /* \"#utility.yul\":1696:1818   */\n  pop\n  jump\t// out\n    /* \"#utility.yul\":1824:1967   */\ntag_28:\n    /* \"#utility.yul\":1881:1886   */\n  0x00\n    /* \"#utility.yul\":1912:1918   */\n  dup2\n    /* \"#utility.yul\":1906:1919   */\n  mload\n    /* \"#utility.yul\":1897:1919   */\n  swap1\n  pop\n    /* \"#utility.yul\":1928:1961   */\n  tag_56\n    /* \"#utility.yul\":1955:1960   */\n  dup2\n    /* \"#utility.yul\":1928:1961   */\n  tag_27\n  jump\t// in\ntag_56:\n    /* \"#utility.yul\":1824:1967   */\n  swap3\n  swap2\n  pop\n  pop\n  jump\t// out\n    /* \"#utility.yul\":1990:2722   */\ntag_29:\n    /* \"#utility.yul\":2097:2102   */\n  0x00\n    /* \"#utility.yul\":2122:2203   */\n  tag_58\n    /* \"#utility.yul\":2138:2202   */\n  tag_59\n    /* \"#utility.yul\":2195:2201   */\n  dup5\n    /* \"#utility.yul\":2138:2202   */\n  tag_24\n  jump\t// in\ntag_59:\n    /* \"#utility.yul\":2122:2203   */\n  tag_23\n  jump\t// in\ntag_58:\n    /* \"#utility.yul\":2113:2203   */\n  swap1\n  pop\n    /* \"#utility.yul\":2223:2228   */\n  dup1\n    /* \"#utility.yul\":2252:2258   */\n  dup4\n    /* \"#utility.yul\":2245:2250   */\n  dup3\n    /* \"#utility.yul\":2238:2259   */\n  mstore\n    /* \"#utility.yul\":2286:2290   */\n  0x20\n    /* \"#utility.yul\":2279:2284   */\n  dup3\n    /* \"#utility.yul\":2275:2291   */\n  add\n    /* \"#utility.yul\":2268:2291   */\n  swap1\n  pop\n    /* \"#utility.yul\":2339:2343   */\n  0x20\n    /* \"#utility.yul\":2331:2337   */\n  dup5\n    /* \"#utility.yul\":2327:2344   */\n  mul\n    /* \"#utility.yul\":2319:2325   */\n  dup4\n    /* \"#utility.yul\":2315:2345   */\n  add\n    /* \"#utility.yul\":2368:2371   */\n  dup6\n    /* \"#utility.yul\":2360:2366   */\n  dup2\n    /* \"#utility.yul\":2357:2372   */\n  gt\n    /* \"#utility.yul\":2354:2476   */\n  iszero\n  tag_60\n  jumpi\n    /* \"#utility.yul\":2387:2466   */\n  tag_61\n  tag_25\n  jump\t// in\ntag_61:\n    /* \"#utility.yul\":2354:2476   */\ntag_60:\n    /* \"#utility.yul\":2502:2508   */\n  dup4\n    /* \"#utility.yul\":2485:2716   */\ntag_62:\n    /* \"#utility.yul\":2519:2525   */\n  dup2\n    /* \"#utility.yul\":2514:2517   */\n  dup2\n    /* \"#utility.yul\":2511:2526   */\n  lt\n    /* \"#utility.yul\":2485:2716   */\n  iszero\n  tag_64\n  jumpi\n    /* \"#utility.yul\":2594:2597   */\n  dup1\n    /* \"#utility.yul\":2623:2671   */\n  tag_65\n    /* \"#utility.yul\":2667:2670   */\n  dup9\n    /* \"#utility.yul\":2655:2665   */\n  dup3\n    /* \"#utility.yul\":2623:2671   */\n  tag_28\n  jump\t// in\ntag_65:\n    /* \"#utility.yul\":2618:2621   */\n  dup5\n    /* \"#utility.yul\":2611:2672   */\n  mstore\n    /* \"#utility.yul\":2701:2705   */\n  0x20\n    /* \"#utility.yul\":2696:2699   */\n  dup5\n    /* \"#utility.yul\":2692:2706   */\n  add\n    /* \"#utility.yul\":2685:2706   */\n  swap4\n  pop\n    /* \"#utility.yul\":2561:2716   */\n  pop\n    /* \"#utility.yul\":2545:2549   */\n  0x20\n    /* \"#utility.yul\":2540:2543   */\n  dup2\n    /* \"#utility.yul\":2536:2550   */\n  add\n    /* \"#utility.yul\":2529:2550   */\n  swap1\n  pop\n    /* \"#utility.yul\":2485:2716   */\n  jump(tag_62)\ntag_64:\n    /* \"#utility.yul\":2489:2510   */\n  pop\n    /* \"#utility.yul\":2103:2722   */\n  pop\n  pop\n    /* \"#utility.yul\":1990:2722   */\n  swap4\n  swap3\n  pop\n  pop\n  pop\n  jump\t// out\n    /* \"#utility.yul\":2745:3130   */\ntag_30:\n    /* \"#utility.yul\":2827:2832   */\n  0x00\n    /* \"#utility.yul\":2876:2879   */\n  dup3\n    /* \"#utility.yul\":2869:2873   */\n  0x1f\n    /* \"#utility.yul\":2861:2867   */\n  dup4\n    /* \"#utility.yul\":2857:2874   */\n  add\n    /* \"#utility.yul\":2853:2880   */\n  slt\n    /* \"#utility.yul\":2843:2965   */\n  tag_67\n  jumpi\n    /* \"#utility.yul\":2884:2963   */\n  tag_68\n  tag_19\n  jump\t// in\ntag_68:\n    /* \"#utility.yul\":2843:2965   */\ntag_67:\n    /* \"#utility.yul\":2994:3000   */\n  dup2\n    /* \"#utility.yul\":2988:3001   */\n  mload\n    /* \"#utility.yul\":3019:3124   */\n  tag_69\n    /* \"#utility.yul\":3120:3123   */\n  dup5\n    /* \"#utility.yul\":3112:3118   */\n  dup3\n    /* \"#utility.yul\":3105:3109   */\n  0x20\n    /* \"#utility.yul\":3097:3103   */\n  dup7\n    /* \"#utility.yul\":3093:3110   */\n  add\n    /* \"#utility.yul\":3019:3124   */\n  tag_29\n  jump\t// in\ntag_69:\n    /* \"#utility.yul\":3010:3124   */\n  swap2\n  pop\n    /* \"#utility.yul\":2833:3130   */\n  pop\n    /* \"#utility.yul\":2745:3130   */\n  swap3\n  swap2\n  pop\n  pop\n  jump\t// out\n    /* \"#utility.yul\":3136:3690   */\ntag_3:\n    /* \"#utility.yul\":3231:3237   */\n  0x00\n    /* \"#utility.yul\":3280:3282   */\n  0x20\n    /* \"#utility.yul\":3268:3277   */\n  dup3\n    /* \"#utility.yul\":3259:3266   */\n  dup5\n    /* \"#utility.yul\":3255:3278   */\n  sub\n    /* \"#utility.yul\":3251:3283   */\n  slt\n    /* \"#utility.yul\":3248:3367   */\n  iszero\n  tag_71\n  jumpi\n    /* \"#utility.yul\":3286:3365   */\n  tag_72\n  tag_17\n  jump\t// in\ntag_72:\n    /* \"#utility.yul\":3248:3367   */\ntag_71:\n    /* \"#utility.yul\":3427:3428   */\n  0x00\n    /* \"#utility.yul\":3416:3425   */\n  dup3\n    /* \"#utility.yul\":3412:3429   */\n  add\n    /* \"#utility.yul\":3406:3430   */\n  mload\n    /* \"#utility.yul\":3457:3475   */\n  0xffffffffffffffff\n    /* \"#utility.yul\":3449:3455   */\n  dup2\n    /* \"#utility.yul\":3446:3476   */\n  gt\n    /* \"#utility.yul\":3443:3560   */\n  iszero\n  tag_73\n  jumpi\n    /* \"#utility.yul\":3479:3558   */\n  tag_74\n  tag_18\n  jump\t// in\ntag_74:\n    /* \"#utility.yul\":3443:3560   */\ntag_73:\n    /* \"#utility.yul\":3584:3673   */\n  tag_75\n    /* \"#utility.yul\":3665:3672   */\n  dup5\n    /* \"#utility.yul\":3656:3662   */\n  dup3\n    /* \"#utility.yul\":3645:3654   */\n  dup6\n    /* \"#utility.yul\":3641:3663   */\n  add\n    /* \"#utility.yul\":3584:3673   */\n  tag_30\n  jump\t// in\ntag_75:\n    /* \"#utility.yul\":3574:3673   */\n  swap2\n  pop\n    /* \"#utility.yul\":3377:3683   */\n  pop\n    /* \"#utility.yul\":3136:3690   */\n  swap3\n  swap2\n  pop\n  pop\n  jump\t// out\n    /* \"#utility.yul\":3696:3876   */\ntag_11:\n    /* \"#utility.yul\":3744:3821   */\n  0x4e487b7100000000000000000000000000000000000000000000000000000000\n    /* \"#utility.yul\":3741:3742   */\n  0x00\n    /* \"#utility.yul\":3734:3822   */\n  mstore\n    /* \"#utility.yul\":3841:3845   */\n  0x32\n    /* \"#utility.yul\":3838:3839   */\n  0x04\n    /* \"#utility.yul\":3831:3846   */\n  mstore\n    /* \"#utility.yul\":3865:3869   */\n  0x24\n    /* \"#utility.yul\":3862:3863   */\n  0x00\n    /* \"#utility.yul\":3855:3870   */\n  revert\n    /* \"#utility.yul\":3882:4062   */\ntag_31:\n    /* \"#utility.yul\":3930:4007   */\n  0x4e487b7100000000000000000000000000000000000000000000000000000000\n    /* \"#utility.yul\":3927:3928   */\n  0x00\n    /* \"#utility.yul\":3920:4008   */\n  mstore\n    /* \"#utility.yul\":4027:4031   */\n  0x11\n    /* \"#utility.yul\":4024:4025   */\n  0x04\n    /* \"#utility.yul\":4017:4032   */\n  mstore\n    /* \"#utility.yul\":4051:4055   */\n  0x24\n    /* \"#utility.yul\":4048:4049   */\n  0x00\n    /* \"#utility.yul\":4041:4056   */\n  revert\n    /* \"#utility.yul\":4068:4145   */\ntag_32:\n    /* \"#utility.yul\":4105:4112   */\n  0x00\n    /* \"#utility.yul\":4134:4139   */\n  dup2\n    /* \"#utility.yul\":4123:4139   */\n  swap1\n  pop\n    /* \"#utility.yul\":4068:4145   */\n  swap2\n  swap1\n  pop\n  jump\t// out\n    /* \"#utility.yul\":4151:4384   */\ntag_14:\n    /* \"#utility.yul\":4190:4193   */\n  0x00\n    /* \"#utility.yul\":4213:4237   */\n  tag_80\n    /* \"#utility.yul\":4231:4236   */\n  dup3\n    /* \"#utility.yul\":4213:4237   */\n  tag_32\n  jump\t// in\ntag_80:\n    /* \"#utility.yul\":4204:4237   */\n  swap2\n  pop\n    /* \"#utility.yul\":4259:4325   */\n  0xffffffffffffffffffffffffffffffffffffffffffffffffffffffffffffffff\n    /* \"#utility.yul\":4252:4257   */\n  dup3\n    /* \"#utility.yul\":4249:4326   */\n  sub\n    /* \"#utility.yul\":4246:4349   */\n  tag_81\n  jumpi\n    /* \"#utility.yul\":4329:4347   */\n  tag_82\n  tag_31\n  jump\t// in\ntag_82:\n    /* \"#utility.yul\":4246:4349   */\ntag_81:\n    /* \"#utility.yul\":4376:4377   */\n  0x01\n    /* \"#utility.yul\":4369:4374   */\n  dup3\n    /* \"#utility.yul\":4365:4378   */\n  add\n    /* \"#utility.yul\":4358:4378   */\n  swap1\n  pop\n    /* \"#utility.yul\":4151:4384   */\n  swap2\n  swap1\n  pop\n  jump\t// out\n    /* \"contracts/Ballot.sol\":66:2317  contract Ballot {... */\ntag_15:\n  dataSize(sub_0)\n  dup1\n  dataOffset(sub_0)\n  0x00\n  codecopy\n  0x00\n  return\nstop\n\nsub_0: assembly {\n        /* \"contracts/Ballot.sol\":66:2317  contract Ballot {... */\n      mstore(0x40, 0x80)\n      callvalue\n      dup1\n      iszero\n      tag_1\n      jumpi\n      0x00\n      dup1\n      revert\n    tag_1:\n      pop\n      jumpi(tag_2, lt(calldatasize, 0x04))\n      shr(0xe0, calldataload(0x00))\n      dup1\n      0x2e4176cf\n      eq\n      tag_3\n      jumpi\n      dup1\n      0x5c19a95c\n      eq\n      tag_4\n      jumpi\n      dup1\n      0x9e7b8d61\n      eq\n      tag_5\n      jumpi\n      dup1\n      0xa3ec138d\n      eq\n      tag_6\n      jumpi\n      dup1\n      0xd1dbe7d8\n      eq\n      tag_7\n      jumpi\n    tag_2:\n      0x00\n      dup1\n      revert\n        /* \"contracts/Ballot.sol\":335:361  address public chairperson */\n    tag_3:\n      tag_8\n      tag_9\n      jump\t// in\n    tag_8:\n      mload(0x40)\n      tag_10\n      swap2\n      swap1\n      tag_11\n      jump\t// in\n    tag_10:\n      mload(0x40)\n      dup1\n      swap2\n      sub\n      swap1\n      return\n        /* \"contracts/Ballot.sol\":1557:2313  function delegate(address to) public {... */\n    tag_4:\n      tag_12\n      0x04\n      dup1\n      calldatasize\n      sub\n      dup2\n      add\n      swap1\n      tag_13\n      swap2\n      swap1\n      tag_14\n      jump\t// in\n    tag_13:\n      tag_15\n      jump\t// in\n    tag_12:\n      stop\n        /* \"contracts/Ballot.sol\":1105:1551  function giveRightToVote(address voter) public{... */\n    tag_5:\n      tag_16\n      0x04\n      dup1\n      calldatasize\n      sub\n      dup2\n      add\n      swap1\n      tag_17\n      swap2\n      swap1\n      tag_14\n      jump\t// in\n    tag_17:\n      tag_18\n      jump\t// in\n    tag_16:\n      stop\n        /* \"contracts/Ballot.sol\":441:480  mapping(address => Voter) public voters */\n    tag_6:\n      tag_19\n      0x04\n      dup1\n      calldatasize\n      sub\n      dup2\n      add\n      swap1\n      tag_20\n      swap2\n      swap1\n      tag_14\n      jump\t// in\n    tag_20:\n      tag_21\n      jump\t// in\n    tag_19:\n      mload(0x40)\n      tag_22\n      swap5\n      swap4\n      swap3\n      swap2\n      swap1\n      tag_23\n      jump\t// in\n    tag_22:\n      mload(0x40)\n      dup1\n      swap2\n      sub\n      swap1\n      return\n        /* \"contracts/Ballot.sol\":523:550  Proposal[] public Proposals */\n    tag_7:\n      tag_24\n      0x04\n      dup1\n      calldatasize\n      sub\n      dup2\n      add\n      swap1\n      tag_25\n      swap2\n      swap1\n      tag_26\n      jump\t// in\n    tag_25:\n      tag_27\n      jump\t// in\n    tag_24:\n      mload(0x40)\n      tag_28\n      swap3\n      swap2\n      swap1\n      tag_29\n      jump\t// in\n    tag_28:\n      mload(0x40)\n      dup1\n      swap2\n      sub\n      swap1\n      return\n        /* \"contracts/Ballot.sol\":335:361  address public chairperson */\n    tag_9:\n      0x00\n      dup1\n      sload\n      swap1\n      0x0100\n      exp\n      swap1\n      div\n      0xffffffffffffffffffffffffffffffffffffffff\n      and\n      dup2\n      jump\t// out\n        /* \"contracts/Ballot.sol\":1557:2313  function delegate(address to) public {... */\n    tag_15:\n        /* \"contracts/Ballot.sol\":1649:1669  Voter storage sender */\n      0x00\n        /* \"contracts/Ballot.sol\":1672:1678  voters */\n      0x01\n        /* \"contracts/Ballot.sol\":1672:1690  voters[msg.sender] */\n      0x00\n        /* \"contracts/Ballot.sol\":1679:1689  msg.sender */\n      caller\n        /* \"contracts/Ballot.sol\":1672:1690  voters[msg.sender] */\n      0xffffffffffffffffffffffffffffffffffffffff\n      and\n      0xffffffffffffffffffffffffffffffffffffffff\n      and\n      dup2\n      mstore\n      0x20\n      add\n      swap1\n      dup2\n      mstore\n      0x20\n      add\n      0x00\n      keccak256\n        /* \"contracts/Ballot.sol\":1649:1690  Voter storage sender = voters[msg.sender] */\n      swap1\n      pop\n        /* \"contracts/Ballot.sol\":1745:1751  sender */\n      dup1\n        /* \"contracts/Ballot.sol\":1745:1757  sender.voted */\n      0x01\n      add\n      0x00\n      swap1\n      sload\n      swap1\n      0x0100\n      exp\n      swap1\n      div\n      0xff\n      and\n        /* \"contracts/Ballot.sol\":1744:1757  !sender.voted */\n      iszero\n        /* \"contracts/Ballot.sol\":1736:1779  require(!sender.voted, \"You already voted\") */\n      tag_31\n      jumpi\n      mload(0x40)\n      0x08c379a000000000000000000000000000000000000000000000000000000000\n      dup2\n      mstore\n      0x04\n      add\n      tag_32\n      swap1\n      tag_33\n      jump\t// in\n    tag_32:\n      mload(0x40)\n      dup1\n      swap2\n      sub\n      swap1\n      revert\n    tag_31:\n        /* \"contracts/Ballot.sol\":1875:1885  msg.sender */\n      caller\n        /* \"contracts/Ballot.sol\":1869:1885  to != msg.sender */\n      0xffffffffffffffffffffffffffffffffffffffff\n      and\n        /* \"contracts/Ballot.sol\":1869:1871  to */\n      dup3\n        /* \"contracts/Ballot.sol\":1869:1885  to != msg.sender */\n      0xffffffffffffffffffffffffffffffffffffffff\n      and\n      sub\n        /* \"contracts/Ballot.sol\":1861:1920  require(to != msg.sender, \"Self-delegation is disallowed.\") */\n      tag_34\n      jumpi\n      mload(0x40)\n      0x08c379a000000000000000000000000000000000000000000000000000000000\n      dup2\n      mstore\n      0x04\n      add\n      tag_35\n      swap1\n      tag_36\n      jump\t// in\n    tag_35:\n      mload(0x40)\n      dup1\n      swap2\n      sub\n      swap1\n      revert\n    tag_34:\n        /* \"contracts/Ballot.sol\":1990:2306  while (voters[to].delegate != address(0)) {... */\n    tag_37:\n        /* \"contracts/Ballot.sol\":2028:2029  0 */\n      0x00\n        /* \"contracts/Ballot.sol\":1997:2030  voters[to].delegate != address(0) */\n      0xffffffffffffffffffffffffffffffffffffffff\n      and\n        /* \"contracts/Ballot.sol\":1997:2003  voters */\n      0x01\n        /* \"contracts/Ballot.sol\":1997:2007  voters[to] */\n      0x00\n        /* \"contracts/Ballot.sol\":2004:2006  to */\n      dup5\n        /* \"contracts/Ballot.sol\":1997:2007  voters[to] */\n      0xffffffffffffffffffffffffffffffffffffffff\n      and\n      0xffffffffffffffffffffffffffffffffffffffff\n      and\n      dup2\n      mstore\n      0x20\n      add\n      swap1\n      dup2\n      mstore\n      0x20\n      add\n      0x00\n      keccak256\n        /* \"contracts/Ballot.sol\":1997:2016  voters[to].delegate */\n      0x01\n      add\n      0x01\n      swap1\n      sload\n      swap1\n      0x0100\n      exp\n      swap1\n      div\n      0xffffffffffffffffffffffffffffffffffffffff\n      and\n        /* \"contracts/Ballot.sol\":1997:2030  voters[to].delegate != address(0) */\n      0xffffffffffffffffffffffffffffffffffffffff\n      and\n      eq\n        /* \"contracts/Ballot.sol\":1990:2306  while (voters[to].delegate != address(0)) {... */\n      tag_38\n      jumpi\n        /* \"contracts/Ballot.sol\":2103:2109  voters */\n      0x01\n        /* \"contracts/Ballot.sol\":2103:2113  voters[to] */\n      0x00\n        /* \"contracts/Ballot.sol\":2110:2112  to */\n      dup4\n        /* \"contracts/Ballot.sol\":2103:2113  voters[to] */\n      0xffffffffffffffffffffffffffffffffffffffff\n      and\n      0xffffffffffffffffffffffffffffffffffffffff\n      and\n      dup2\n      mstore\n      0x20\n      add\n      swap1\n      dup2\n      mstore\n      0x20\n      add\n      0x00\n      keccak256\n        /* \"contracts/Ballot.sol\":2103:2122  voters[to].delegate */\n      0x01\n      add\n      0x01\n      swap1\n      sload\n      swap1\n      0x0100\n      exp\n      swap1\n      div\n      0xffffffffffffffffffffffffffffffffffffffff\n      and\n        /* \"contracts/Ballot.sol\":2098:2122  to = voters[to].delegate */\n      swap2\n      pop\n        /* \"contracts/Ballot.sol\":2256:2266  msg.sender */\n      caller\n        /* \"contracts/Ballot.sol\":2250:2266  to != msg.sender */\n      0xffffffffffffffffffffffffffffffffffffffff\n      and\n        /* \"contracts/Ballot.sol\":2250:2252  to */\n      dup3\n        /* \"contracts/Ballot.sol\":2250:2266  to != msg.sender */\n      0xffffffffffffffffffffffffffffffffffffffff\n      and\n      sub\n        /* \"contracts/Ballot.sol\":2242:2295  require(to != msg.sender, \"Found loop in delegation\") */\n      tag_39\n      jumpi\n      mload(0x40)\n      0x08c379a000000000000000000000000000000000000000000000000000000000\n      dup2\n      mstore\n      0x04\n      add\n      tag_40\n      swap1\n      tag_41\n      jump\t// in\n    tag_40:\n      mload(0x40)\n      dup1\n      swap2\n      sub\n      swap1\n      revert\n    tag_39:\n        /* \"contracts/Ballot.sol\":1990:2306  while (voters[to].delegate != address(0)) {... */\n      jump(tag_37)\n    tag_38:\n        /* \"contracts/Ballot.sol\":1594:2313  {... */\n      pop\n        /* \"contracts/Ballot.sol\":1557:2313  function delegate(address to) public {... */\n      pop\n      jump\t// out\n        /* \"contracts/Ballot.sol\":1105:1551  function giveRightToVote(address voter) public{... */\n    tag_18:\n        /* \"contracts/Ballot.sol\":1250:1261  chairperson */\n      0x00\n      dup1\n      sload\n      swap1\n      0x0100\n      exp\n      swap1\n      div\n      0xffffffffffffffffffffffffffffffffffffffff\n      and\n        /* \"contracts/Ballot.sol\":1236:1261  msg.sender == chairperson */\n      0xffffffffffffffffffffffffffffffffffffffff\n      and\n        /* \"contracts/Ballot.sol\":1236:1246  msg.sender */\n      caller\n        /* \"contracts/Ballot.sol\":1236:1261  msg.sender == chairperson */\n      0xffffffffffffffffffffffffffffffffffffffff\n      and\n      eq\n        /* \"contracts/Ballot.sol\":1215:1314  require(... */\n      tag_43\n      jumpi\n      mload(0x40)\n      0x08c379a000000000000000000000000000000000000000000000000000000000\n      dup2\n      mstore\n      0x04\n      add\n      tag_44\n      swap1\n      tag_45\n      jump\t// in\n    tag_44:\n      mload(0x40)\n      dup1\n      swap2\n      sub\n      swap1\n      revert\n    tag_43:\n        /* \"contracts/Ballot.sol\":1375:1381  voters */\n      0x01\n        /* \"contracts/Ballot.sol\":1375:1388  voters[voter] */\n      0x00\n        /* \"contracts/Ballot.sol\":1382:1387  voter */\n      dup3\n        /* \"contracts/Ballot.sol\":1375:1388  voters[voter] */\n      0xffffffffffffffffffffffffffffffffffffffff\n      and\n      0xffffffffffffffffffffffffffffffffffffffff\n      and\n      dup2\n      mstore\n      0x20\n      add\n      swap1\n      dup2\n      mstore\n      0x20\n      add\n      0x00\n      keccak256\n        /* \"contracts/Ballot.sol\":1375:1394  voters[voter].voted */\n      0x01\n      add\n      0x00\n      swap1\n      sload\n      swap1\n      0x0100\n      exp\n      swap1\n      div\n      0xff\n      and\n        /* \"contracts/Ballot.sol\":1374:1394  !voters[voter].voted */\n      iszero\n        /* \"contracts/Ballot.sol\":1366:1422  require(!voters[voter].voted, \"The voter already voted\") */\n      tag_46\n      jumpi\n      mload(0x40)\n      0x08c379a000000000000000000000000000000000000000000000000000000000\n      dup2\n      mstore\n      0x04\n      add\n      tag_47\n      swap1\n      tag_48\n      jump\t// in\n    tag_47:\n      mload(0x40)\n      dup1\n      swap2\n      sub\n      swap1\n      revert\n    tag_46:\n        /* \"contracts/Ballot.sol\":1506:1507  0 */\n      0x00\n        /* \"contracts/Ballot.sol\":1482:1488  voters */\n      0x01\n        /* \"contracts/Ballot.sol\":1482:1495  voters[voter] */\n      0x00\n        /* \"contracts/Ballot.sol\":1489:1494  voter */\n      dup4\n        /* \"contracts/Ballot.sol\":1482:1495  voters[voter] */\n      0xffffffffffffffffffffffffffffffffffffffff\n      and\n      0xffffffffffffffffffffffffffffffffffffffff\n      and\n      dup2\n      mstore\n      0x20\n      add\n      swap1\n      dup2\n      mstore\n      0x20\n      add\n      0x00\n      keccak256\n        /* \"contracts/Ballot.sol\":1482:1502  voters[voter].weight */\n      0x00\n      add\n      sload\n        /* \"contracts/Ballot.sol\":1482:1507  voters[voter].weight == 0 */\n      eq\n        /* \"contracts/Ballot.sol\":1474:1508  require(voters[voter].weight == 0) */\n      tag_49\n      jumpi\n      0x00\n      dup1\n      revert\n    tag_49:\n        /* \"contracts/Ballot.sol\":1541:1542  1 */\n      0x01\n        /* \"contracts/Ballot.sol\":1518:1524  voters */\n      dup1\n        /* \"contracts/Ballot.sol\":1518:1531  voters[voter] */\n      0x00\n        /* \"contracts/Ballot.sol\":1525:1530  voter */\n      dup4\n        /* \"contracts/Ballot.sol\":1518:1531  voters[voter] */\n      0xffffffffffffffffffffffffffffffffffffffff\n      and\n      0xffffffffffffffffffffffffffffffffffffffff\n      and\n      dup2\n      mstore\n      0x20\n      add\n      swap1\n      dup2\n      mstore\n      0x20\n      add\n      0x00\n      keccak256\n        /* \"contracts/Ballot.sol\":1518:1538  voters[voter].weight */\n      0x00\n      add\n        /* \"contracts/Ballot.sol\":1518:1542  voters[voter].weight = 1 */\n      dup2\n      swap1\n      sstore\n      pop\n        /* \"contracts/Ballot.sol\":1105:1551  function giveRightToVote(address voter) public{... */\n      pop\n      jump\t// out\n        /* \"contracts/Ballot.sol\":441:480  mapping(address => Voter) public voters */\n    tag_21:\n      mstore(0x20, 0x01)\n      dup1\n      0x00\n      mstore\n      keccak256(0x00, 0x40)\n      0x00\n      swap2\n      pop\n      swap1\n      pop\n      dup1\n      0x00\n      add\n      sload\n      swap1\n      dup1\n      0x01\n      add\n      0x00\n      swap1\n      sload\n      swap1\n      0x0100\n      exp\n      swap1\n      div\n      0xff\n      and\n      swap1\n      dup1\n      0x01\n      add\n      0x01\n      swap1\n      sload\n      swap1\n      0x0100\n      exp\n      swap1\n      div\n      0xffffffffffffffffffffffffffffffffffffffff\n      and\n      swap1\n      dup1\n      0x02\n      add\n      sload\n      swap1\n      pop\n      dup5\n      jump\t// out\n        /* \"contracts/Ballot.sol\":523:550  Proposal[] public Proposals */\n    tag_27:\n      0x02\n      dup2\n      dup2\n      sload\n      dup2\n      lt\n      tag_50\n      jumpi\n      0x00\n      dup1\n      revert\n    tag_50:\n      swap1\n      0x00\n      mstore\n      keccak256(0x00, 0x20)\n      swap1\n      0x02\n      mul\n      add\n      0x00\n      swap2\n      pop\n      swap1\n      pop\n      dup1\n      0x00\n      add\n      sload\n      swap1\n      dup1\n      0x01\n      add\n      sload\n      swap1\n      pop\n      dup3\n      jump\t// out\n        /* \"#utility.yul\":7:133   */\n    tag_52:\n        /* \"#utility.yul\":44:51   */\n      0x00\n        /* \"#utility.yul\":84:126   */\n      0xffffffffffffffffffffffffffffffffffffffff\n        /* \"#utility.yul\":77:82   */\n      dup3\n        /* \"#utility.yul\":73:127   */\n      and\n        /* \"#utility.yul\":62:127   */\n      swap1\n      pop\n        /* \"#utility.yul\":7:133   */\n      swap2\n      swap1\n      pop\n      jump\t// out\n        /* \"#utility.yul\":139:235   */\n    tag_53:\n        /* \"#utility.yul\":176:183   */\n      0x00\n        /* \"#utility.yul\":205:229   */\n      tag_82\n        /* \"#utility.yul\":223:228   */\n      dup3\n        /* \"#utility.yul\":205:229   */\n      tag_52\n      jump\t// in\n    tag_82:\n        /* \"#utility.yul\":194:229   */\n      swap1\n      pop\n        /* \"#utility.yul\":139:235   */\n      swap2\n      swap1\n      pop\n      jump\t// out\n        /* \"#utility.yul\":241:359   */\n    tag_54:\n        /* \"#utility.yul\":328:352   */\n      tag_84\n        /* \"#utility.yul\":346:351   */\n      dup2\n        /* \"#utility.yul\":328:352   */\n      tag_53\n      jump\t// in\n    tag_84:\n        /* \"#utility.yul\":323:326   */\n      dup3\n        /* \"#utility.yul\":316:353   */\n      mstore\n        /* \"#utility.yul\":241:359   */\n      pop\n      pop\n      jump\t// out\n        /* \"#utility.yul\":365:587   */\n    tag_11:\n        /* \"#utility.yul\":458:462   */\n      0x00\n        /* \"#utility.yul\":496:498   */\n      0x20\n        /* \"#utility.yul\":485:494   */\n      dup3\n        /* \"#utility.yul\":481:499   */\n      add\n        /* \"#utility.yul\":473:499   */\n      swap1\n      pop\n        /* \"#utility.yul\":509:580   */\n      tag_86\n        /* \"#utility.yul\":577:578   */\n      0x00\n        /* \"#utility.yul\":566:575   */\n      dup4\n        /* \"#utility.yul\":562:579   */\n      add\n        /* \"#utility.yul\":553:559   */\n      dup5\n        /* \"#utility.yul\":509:580   */\n      tag_54\n      jump\t// in\n    tag_86:\n        /* \"#utility.yul\":365:587   */\n      swap3\n      swap2\n      pop\n      pop\n      jump\t// out\n        /* \"#utility.yul\":674:791   */\n    tag_56:\n        /* \"#utility.yul\":783:784   */\n      0x00\n        /* \"#utility.yul\":780:781   */\n      dup1\n        /* \"#utility.yul\":773:785   */\n      revert\n        /* \"#utility.yul\":920:1042   */\n    tag_58:\n        /* \"#utility.yul\":993:1017   */\n      tag_91\n        /* \"#utility.yul\":1011:1016   */\n      dup2\n        /* \"#utility.yul\":993:1017   */\n      tag_53\n      jump\t// in\n    tag_91:\n        /* \"#utility.yul\":986:991   */\n      dup2\n        /* \"#utility.yul\":983:1018   */\n      eq\n        /* \"#utility.yul\":973:1036   */\n      tag_92\n      jumpi\n        /* \"#utility.yul\":1032:1033   */\n      0x00\n        /* \"#utility.yul\":1029:1030   */\n      dup1\n        /* \"#utility.yul\":1022:1034   */\n      revert\n        /* \"#utility.yul\":973:1036   */\n    tag_92:\n        /* \"#utility.yul\":920:1042   */\n      pop\n      jump\t// out\n        /* \"#utility.yul\":1048:1187   */\n    tag_59:\n        /* \"#utility.yul\":1094:1099   */\n      0x00\n        /* \"#utility.yul\":1132:1138   */\n      dup2\n        /* \"#utility.yul\":1119:1139   */\n      calldataload\n        /* \"#utility.yul\":1110:1139   */\n      swap1\n      pop\n        /* \"#utility.yul\":1148:1181   */\n      tag_94\n        /* \"#utility.yul\":1175:1180   */\n      dup2\n        /* \"#utility.yul\":1148:1181   */\n      tag_58\n      jump\t// in\n    tag_94:\n        /* \"#utility.yul\":1048:1187   */\n      swap3\n      swap2\n      pop\n      pop\n      jump\t// out\n        /* \"#utility.yul\":1193:1522   */\n    tag_14:\n        /* \"#utility.yul\":1252:1258   */\n      0x00\n        /* \"#utility.yul\":1301:1303   */\n      0x20\n        /* \"#utility.yul\":1289:1298   */\n      dup3\n        /* \"#utility.yul\":1280:1287   */\n      dup5\n        /* \"#utility.yul\":1276:1299   */\n      sub\n        /* \"#utility.yul\":1272:1304   */\n      slt\n        /* \"#utility.yul\":1269:1388   */\n      iszero\n      tag_96\n      jumpi\n        /* \"#utility.yul\":1307:1386   */\n      tag_97\n      tag_56\n      jump\t// in\n    tag_97:\n        /* \"#utility.yul\":1269:1388   */\n    tag_96:\n        /* \"#utility.yul\":1427:1428   */\n      0x00\n        /* \"#utility.yul\":1452:1505   */\n      tag_98\n        /* \"#utility.yul\":1497:1504   */\n      dup5\n        /* \"#utility.yul\":1488:1494   */\n      dup3\n        /* \"#utility.yul\":1477:1486   */\n      dup6\n        /* \"#utility.yul\":1473:1495   */\n      add\n        /* \"#utility.yul\":1452:1505   */\n      tag_59\n      jump\t// in\n    tag_98:\n        /* \"#utility.yul\":1442:1505   */\n      swap2\n      pop\n        /* \"#utility.yul\":1398:1515   */\n      pop\n        /* \"#utility.yul\":1193:1522   */\n      swap3\n      swap2\n      pop\n      pop\n      jump\t// out\n        /* \"#utility.yul\":1528:1605   */\n    tag_60:\n        /* \"#utility.yul\":1565:1572   */\n      0x00\n        /* \"#utility.yul\":1594:1599   */\n      dup2\n        /* \"#utility.yul\":1583:1599   */\n      swap1\n      pop\n        /* \"#utility.yul\":1528:1605   */\n      swap2\n      swap1\n      pop\n      jump\t// out\n        /* \"#utility.yul\":1611:1729   */\n    tag_61:\n        /* \"#utility.yul\":1698:1722   */\n      tag_101\n        /* \"#utility.yul\":1716:1721   */\n      dup2\n        /* \"#utility.yul\":1698:1722   */\n      tag_60\n      jump\t// in\n    tag_101:\n        /* \"#utility.yul\":1693:1696   */\n      dup3\n        /* \"#utility.yul\":1686:1723   */\n      mstore\n        /* \"#utility.yul\":1611:1729   */\n      pop\n      pop\n      jump\t// out\n        /* \"#utility.yul\":1735:1825   */\n    tag_62:\n        /* \"#utility.yul\":1769:1776   */\n      0x00\n        /* \"#utility.yul\":1812:1817   */\n      dup2\n        /* \"#utility.yul\":1805:1818   */\n      iszero\n        /* \"#utility.yul\":1798:1819   */\n      iszero\n        /* \"#utility.yul\":1787:1819   */\n      swap1\n      pop\n        /* \"#utility.yul\":1735:1825   */\n      swap2\n      swap1\n      pop\n      jump\t// out\n        /* \"#utility.yul\":1831:1940   */\n    tag_63:\n        /* \"#utility.yul\":1912:1933   */\n      tag_104\n        /* \"#utility.yul\":1927:1932   */\n      dup2\n        /* \"#utility.yul\":1912:1933   */\n      tag_62\n      jump\t// in\n    tag_104:\n        /* \"#utility.yul\":1907:1910   */\n      dup3\n        /* \"#utility.yul\":1900:1934   */\n      mstore\n        /* \"#utility.yul\":1831:1940   */\n      pop\n      pop\n      jump\t// out\n        /* \"#utility.yul\":1946:2487   */\n    tag_23:\n        /* \"#utility.yul\":2117:2121   */\n      0x00\n        /* \"#utility.yul\":2155:2158   */\n      0x80\n        /* \"#utility.yul\":2144:2153   */\n      dup3\n        /* \"#utility.yul\":2140:2159   */\n      add\n        /* \"#utility.yul\":2132:2159   */\n      swap1\n      pop\n        /* \"#utility.yul\":2169:2240   */\n      tag_106\n        /* \"#utility.yul\":2237:2238   */\n      0x00\n        /* \"#utility.yul\":2226:2235   */\n      dup4\n        /* \"#utility.yul\":2222:2239   */\n      add\n        /* \"#utility.yul\":2213:2219   */\n      dup8\n        /* \"#utility.yul\":2169:2240   */\n      tag_61\n      jump\t// in\n    tag_106:\n        /* \"#utility.yul\":2250:2316   */\n      tag_107\n        /* \"#utility.yul\":2312:2314   */\n      0x20\n        /* \"#utility.yul\":2301:2310   */\n      dup4\n        /* \"#utility.yul\":2297:2315   */\n      add\n        /* \"#utility.yul\":2288:2294   */\n      dup7\n        /* \"#utility.yul\":2250:2316   */\n      tag_63\n      jump\t// in\n    tag_107:\n        /* \"#utility.yul\":2326:2398   */\n      tag_108\n        /* \"#utility.yul\":2394:2396   */\n      0x40\n        /* \"#utility.yul\":2383:2392   */\n      dup4\n        /* \"#utility.yul\":2379:2397   */\n      add\n        /* \"#utility.yul\":2370:2376   */\n      dup6\n        /* \"#utility.yul\":2326:2398   */\n      tag_54\n      jump\t// in\n    tag_108:\n        /* \"#utility.yul\":2408:2480   */\n      tag_109\n        /* \"#utility.yul\":2476:2478   */\n      0x60\n        /* \"#utility.yul\":2465:2474   */\n      dup4\n        /* \"#utility.yul\":2461:2479   */\n      add\n        /* \"#utility.yul\":2452:2458   */\n      dup5\n        /* \"#utility.yul\":2408:2480   */\n      tag_61\n      jump\t// in\n    tag_109:\n        /* \"#utility.yul\":1946:2487   */\n      swap6\n      swap5\n      pop\n      pop\n      pop\n      pop\n      pop\n      jump\t// out\n        /* \"#utility.yul\":2493:2615   */\n    tag_64:\n        /* \"#utility.yul\":2566:2590   */\n      tag_111\n        /* \"#utility.yul\":2584:2589   */\n      dup2\n        /* \"#utility.yul\":2566:2590   */\n      tag_60\n      jump\t// in\n    tag_111:\n        /* \"#utility.yul\":2559:2564   */\n      dup2\n        /* \"#utility.yul\":2556:2591   */\n      eq\n        /* \"#utility.yul\":2546:2609   */\n      tag_112\n      jumpi\n        /* \"#utility.yul\":2605:2606   */\n      0x00\n        /* \"#utility.yul\":2602:2603   */\n      dup1\n        /* \"#utility.yul\":2595:2607   */\n      revert\n        /* \"#utility.yul\":2546:2609   */\n    tag_112:\n        /* \"#utility.yul\":2493:2615   */\n      pop\n      jump\t// out\n        /* \"#utility.yul\":2621:2760   */\n    tag_65:\n        /* \"#utility.yul\":2667:2672   */\n      0x00\n        /* \"#utility.yul\":2705:2711   */\n      dup2\n        /* \"#utility.yul\":2692:2712   */\n      calldataload\n        /* \"#utility.yul\":2683:2712   */\n      swap1\n      pop\n        /* \"#utility.yul\":2721:2754   */\n      tag_114\n        /* \"#utility.yul\":2748:2753   */\n      dup2\n        /* \"#utility.yul\":2721:2754   */\n      tag_64\n      jump\t// in\n    tag_114:\n        /* \"#utility.yul\":2621:2760   */\n      swap3\n      swap2\n      pop\n      pop\n      jump\t// out\n        /* \"#utility.yul\":2766:3095   */\n    tag_26:\n        /* \"#utility.yul\":2825:2831   */\n      0x00\n        /* \"#utility.yul\":2874:2876   */\n      0x20\n        /* \"#utility.yul\":2862:2871   */\n      dup3\n        /* \"#utility.yul\":2853:2860   */\n      dup5\n        /* \"#utility.yul\":2849:2872   */\n      sub\n        /* \"#utility.yul\":2845:2877   */\n      slt\n        /* \"#utility.yul\":2842:2961   */\n      iszero\n      tag_116\n      jumpi\n        /* \"#utility.yul\":2880:2959   */\n      tag_117\n      tag_56\n      jump\t// in\n    tag_117:\n        /* \"#utility.yul\":2842:2961   */\n    tag_116:\n        /* \"#utility.yul\":3000:3001   */\n      0x00\n        /* \"#utility.yul\":3025:3078   */\n      tag_118\n        /* \"#utility.yul\":3070:3077   */\n      dup5\n        /* \"#utility.yul\":3061:3067   */\n      dup3\n        /* \"#utility.yul\":3050:3059   */\n      dup6\n        /* \"#utility.yul\":3046:3068   */\n      add\n        /* \"#utility.yul\":3025:3078   */\n      tag_65\n      jump\t// in\n    tag_118:\n        /* \"#utility.yul\":3015:3078   */\n      swap2\n      pop\n        /* \"#utility.yul\":2971:3088   */\n      pop\n        /* \"#utility.yul\":2766:3095   */\n      swap3\n      swap2\n      pop\n      pop\n      jump\t// out\n        /* \"#utility.yul\":3101:3178   */\n    tag_66:\n        /* \"#utility.yul\":3138:3145   */\n      0x00\n        /* \"#utility.yul\":3167:3172   */\n      dup2\n        /* \"#utility.yul\":3156:3172   */\n      swap1\n      pop\n        /* \"#utility.yul\":3101:3178   */\n      swap2\n      swap1\n      pop\n      jump\t// out\n        /* \"#utility.yul\":3184:3302   */\n    tag_67:\n        /* \"#utility.yul\":3271:3295   */\n      tag_121\n        /* \"#utility.yul\":3289:3294   */\n      dup2\n        /* \"#utility.yul\":3271:3295   */\n      tag_66\n      jump\t// in\n    tag_121:\n        /* \"#utility.yul\":3266:3269   */\n      dup3\n        /* \"#utility.yul\":3259:3296   */\n      mstore\n        /* \"#utility.yul\":3184:3302   */\n      pop\n      pop\n      jump\t// out\n        /* \"#utility.yul\":3308:3640   */\n    tag_29:\n        /* \"#utility.yul\":3429:3433   */\n      0x00\n        /* \"#utility.yul\":3467:3469   */\n      0x40\n        /* \"#utility.yul\":3456:3465   */\n      dup3\n        /* \"#utility.yul\":3452:3470   */\n      add\n        /* \"#utility.yul\":3444:3470   */\n      swap1\n      pop\n        /* \"#utility.yul\":3480:3551   */\n      tag_123\n        /* \"#utility.yul\":3548:3549   */\n      0x00\n        /* \"#utility.yul\":3537:3546   */\n      dup4\n        /* \"#utility.yul\":3533:3550   */\n      add\n        /* \"#utility.yul\":3524:3530   */\n      dup6\n        /* \"#utility.yul\":3480:3551   */\n      tag_67\n      jump\t// in\n    tag_123:\n        /* \"#utility.yul\":3561:3633   */\n      tag_124\n        /* \"#utility.yul\":3629:3631   */\n      0x20\n        /* \"#utility.yul\":3618:3627   */\n      dup4\n        /* \"#utility.yul\":3614:3632   */\n      add\n        /* \"#utility.yul\":3605:3611   */\n      dup5\n        /* \"#utility.yul\":3561:3633   */\n      tag_61\n      jump\t// in\n    tag_124:\n        /* \"#utility.yul\":3308:3640   */\n      swap4\n      swap3\n      pop\n      pop\n      pop\n      jump\t// out\n        /* \"#utility.yul\":3646:3815   */\n    tag_68:\n        /* \"#utility.yul\":3730:3741   */\n      0x00\n        /* \"#utility.yul\":3764:3770   */\n      dup3\n        /* \"#utility.yul\":3759:3762   */\n      dup3\n        /* \"#utility.yul\":3752:3771   */\n      mstore\n        /* \"#utility.yul\":3804:3808   */\n      0x20\n        /* \"#utility.yul\":3799:3802   */\n      dup3\n        /* \"#utility.yul\":3795:3809   */\n      add\n        /* \"#utility.yul\":3780:3809   */\n      swap1\n      pop\n        /* \"#utility.yul\":3646:3815   */\n      swap3\n      swap2\n      pop\n      pop\n      jump\t// out\n        /* \"#utility.yul\":3821:3988   */\n    tag_69:\n        /* \"#utility.yul\":3961:3980   */\n      0x596f7520616c726561647920766f746564000000000000000000000000000000\n        /* \"#utility.yul\":3957:3958   */\n      0x00\n        /* \"#utility.yul\":3949:3955   */\n      dup3\n        /* \"#utility.yul\":3945:3959   */\n      add\n        /* \"#utility.yul\":3938:3981   */\n      mstore\n        /* \"#utility.yul\":3821:3988   */\n      pop\n      jump\t// out\n        /* \"#utility.yul\":3994:4360   */\n    tag_70:\n        /* \"#utility.yul\":4136:4139   */\n      0x00\n        /* \"#utility.yul\":4157:4224   */\n      tag_128\n        /* \"#utility.yul\":4221:4223   */\n      0x11\n        /* \"#utility.yul\":4216:4219   */\n      dup4\n        /* \"#utility.yul\":4157:4224   */\n      tag_68\n      jump\t// in\n    tag_128:\n        /* \"#utility.yul\":4150:4224   */\n      swap2\n      pop\n        /* \"#utility.yul\":4233:4326   */\n      tag_129\n        /* \"#utility.yul\":4322:4325   */\n      dup3\n        /* \"#utility.yul\":4233:4326   */\n      tag_69\n      jump\t// in\n    tag_129:\n        /* \"#utility.yul\":4351:4353   */\n      0x20\n        /* \"#utility.yul\":4346:4349   */\n      dup3\n        /* \"#utility.yul\":4342:4354   */\n      add\n        /* \"#utility.yul\":4335:4354   */\n      swap1\n      pop\n        /* \"#utility.yul\":3994:4360   */\n      swap2\n      swap1\n      pop\n      jump\t// out\n        /* \"#utility.yul\":4366:4785   */\n    tag_33:\n        /* \"#utility.yul\":4532:4536   */\n      0x00\n        /* \"#utility.yul\":4570:4572   */\n      0x20\n        /* \"#utility.yul\":4559:4568   */\n      dup3\n        /* \"#utility.yul\":4555:4573   */\n      add\n        /* \"#utility.yul\":4547:4573   */\n      swap1\n      pop\n        /* \"#utility.yul\":4619:4628   */\n      dup2\n        /* \"#utility.yul\":4613:4617   */\n      dup2\n        /* \"#utility.yul\":4609:4629   */\n      sub\n        /* \"#utility.yul\":4605:4606   */\n      0x00\n        /* \"#utility.yul\":4594:4603   */\n      dup4\n        /* \"#utility.yul\":4590:4607   */\n      add\n        /* \"#utility.yul\":4583:4630   */\n      mstore\n        /* \"#utility.yul\":4647:4778   */\n      tag_131\n        /* \"#utility.yul\":4773:4777   */\n      dup2\n        /* \"#utility.yul\":4647:4778   */\n      tag_70\n      jump\t// in\n    tag_131:\n        /* \"#utility.yul\":4639:4778   */\n      swap1\n      pop\n        /* \"#utility.yul\":4366:4785   */\n      swap2\n      swap1\n      pop\n      jump\t// out\n        /* \"#utility.yul\":4791:4971   */\n    tag_71:\n        /* \"#utility.yul\":4931:4963   */\n      0x53656c662d64656c65676174696f6e20697320646973616c6c6f7765642e0000\n        /* \"#utility.yul\":4927:4928   */\n      0x00\n        /* \"#utility.yul\":4919:4925   */\n      dup3\n        /* \"#utility.yul\":4915:4929   */\n      add\n        /* \"#utility.yul\":4908:4964   */\n      mstore\n        /* \"#utility.yul\":4791:4971   */\n      pop\n      jump\t// out\n        /* \"#utility.yul\":4977:5343   */\n    tag_72:\n        /* \"#utility.yul\":5119:5122   */\n      0x00\n        /* \"#utility.yul\":5140:5207   */\n      tag_134\n        /* \"#utility.yul\":5204:5206   */\n      0x1e\n        /* \"#utility.yul\":5199:5202   */\n      dup4\n        /* \"#utility.yul\":5140:5207   */\n      tag_68\n      jump\t// in\n    tag_134:\n        /* \"#utility.yul\":5133:5207   */\n      swap2\n      pop\n        /* \"#utility.yul\":5216:5309   */\n      tag_135\n        /* \"#utility.yul\":5305:5308   */\n      dup3\n        /* \"#utility.yul\":5216:5309   */\n      tag_71\n      jump\t// in\n    tag_135:\n        /* \"#utility.yul\":5334:5336   */\n      0x20\n        /* \"#utility.yul\":5329:5332   */\n      dup3\n        /* \"#utility.yul\":5325:5337   */\n      add\n        /* \"#utility.yul\":5318:5337   */\n      swap1\n      pop\n        /* \"#utility.yul\":4977:5343   */\n      swap2\n      swap1\n      pop\n      jump\t// out\n        /* \"#utility.yul\":5349:5768   */\n    tag_36:\n        /* \"#utility.yul\":5515:5519   */\n      0x00\n        /* \"#utility.yul\":5553:5555   */\n      0x20\n        /* \"#utility.yul\":5542:5551   */\n      dup3\n        /* \"#utility.yul\":5538:5556   */\n      add\n        /* \"#utility.yul\":5530:5556   */\n      swap1\n      pop\n        /* \"#utility.yul\":5602:5611   */\n      dup2\n        /* \"#utility.yul\":5596:5600   */\n      dup2\n        /* \"#utility.yul\":5592:5612   */\n      sub\n        /* \"#utility.yul\":5588:5589   */\n      0x00\n        /* \"#utility.yul\":5577:5586   */\n      dup4\n        /* \"#utility.yul\":5573:5590   */\n      add\n        /* \"#utility.yul\":5566:5613   */\n      mstore\n        /* \"#utility.yul\":5630:5761   */\n      tag_137\n        /* \"#utility.yul\":5756:5760   */\n      dup2\n        /* \"#utility.yul\":5630:5761   */\n      tag_72\n      jump\t// in\n    tag_137:\n        /* \"#utility.yul\":5622:5761   */\n      swap1\n      pop\n        /* \"#utility.yul\":5349:5768   */\n      swap2\n      swap1\n      pop\n      jump\t// out\n        /* \"#utility.yul\":5774:5948   */\n    tag_73:\n        /* \"#utility.yul\":5914:5940   */\n      0x466f756e64206c6f6f7020696e2064656c65676174696f6e0000000000000000\n        /* \"#utility.yul\":5910:5911   */\n      0x00\n        /* \"#utility.yul\":5902:5908   */\n      dup3\n        /* \"#utility.yul\":5898:5912   */\n      add\n        /* \"#utility.yul\":5891:5941   */\n      mstore\n        /* \"#utility.yul\":5774:5948   */\n      pop\n      jump\t// out\n        /* \"#utility.yul\":5954:6320   */\n    tag_74:\n        /* \"#utility.yul\":6096:6099   */\n      0x00\n        /* \"#utility.yul\":6117:6184   */\n      tag_140\n        /* \"#utility.yul\":6181:6183   */\n      0x18\n        /* \"#utility.yul\":6176:6179   */\n      dup4\n        /* \"#utility.yul\":6117:6184   */\n      tag_68\n      jump\t// in\n    tag_140:\n        /* \"#utility.yul\":6110:6184   */\n      swap2\n      pop\n        /* \"#utility.yul\":6193:6286   */\n      tag_141\n        /* \"#utility.yul\":6282:6285   */\n      dup3\n        /* \"#utility.yul\":6193:6286   */\n      tag_73\n      jump\t// in\n    tag_141:\n        /* \"#utility.yul\":6311:6313   */\n      0x20\n        /* \"#utility.yul\":6306:6309   */\n      dup3\n        /* \"#utility.yul\":6302:6314   */\n      add\n        /* \"#utility.yul\":6295:6314   */\n      swap1\n      pop\n        /* \"#utility.yul\":5954:6320   */\n      swap2\n      swap1\n      pop\n      jump\t// out\n        /* \"#utility.yul\":6326:6745   */\n    tag_41:\n        /* \"#utility.yul\":6492:6496   */\n      0x00\n        /* \"#utility.yul\":6530:6532   */\n      0x20\n        /* \"#utility.yul\":6519:6528   */\n      dup3\n        /* \"#utility.yul\":6515:6533   */\n      add\n        /* \"#utility.yul\":6507:6533   */\n      swap1\n      pop\n        /* \"#utility.yul\":6579:6588   */\n      dup2\n        /* \"#utility.yul\":6573:6577   */\n      dup2\n        /* \"#utility.yul\":6569:6589   */\n      sub\n        /* \"#utility.yul\":6565:6566   */\n      0x00\n        /* \"#utility.yul\":6554:6563   */\n      dup4\n        /* \"#utility.yul\":6550:6567   */\n      add\n        /* \"#utility.yul\":6543:6590   */\n      mstore\n        /* \"#utility.yul\":6607:6738   */\n      tag_143\n        /* \"#utility.yul\":6733:6737   */\n      dup2\n        /* \"#utility.yul\":6607:6738   */\n      tag_74\n      jump\t// in\n    tag_143:\n        /* \"#utility.yul\":6599:6738   */\n      swap1\n      pop\n        /* \"#utility.yul\":6326:6745   */\n      swap2\n      swap1\n      pop\n      jump\t// out\n        /* \"#utility.yul\":6751:6977   */\n    tag_75:\n        /* \"#utility.yul\":6891:6925   */\n      0x4f6e6c79206368616972706572736f6e2063616e206769766520726967687420\n        /* \"#utility.yul\":6887:6888   */\n      0x00\n        /* \"#utility.yul\":6879:6885   */\n      dup3\n        /* \"#utility.yul\":6875:6889   */\n      add\n        /* \"#utility.yul\":6868:6926   */\n      mstore\n        /* \"#utility.yul\":6960:6969   */\n      0x746f20766f746500000000000000000000000000000000000000000000000000\n        /* \"#utility.yul\":6955:6957   */\n      0x20\n        /* \"#utility.yul\":6947:6953   */\n      dup3\n        /* \"#utility.yul\":6943:6958   */\n      add\n        /* \"#utility.yul\":6936:6970   */\n      mstore\n        /* \"#utility.yul\":6751:6977   */\n      pop\n      jump\t// out\n        /* \"#utility.yul\":6983:7349   */\n    tag_76:\n        /* \"#utility.yul\":7125:7128   */\n      0x00\n        /* \"#utility.yul\":7146:7213   */\n      tag_146\n        /* \"#utility.yul\":7210:7212   */\n      0x27\n        /* \"#utility.yul\":7205:7208   */\n      dup4\n        /* \"#utility.yul\":7146:7213   */\n      tag_68\n      jump\t// in\n    tag_146:\n        /* \"#utility.yul\":7139:7213   */\n      swap2\n      pop\n        /* \"#utility.yul\":7222:7315   */\n      tag_147\n        /* \"#utility.yul\":7311:7314   */\n      dup3\n        /* \"#utility.yul\":7222:7315   */\n      tag_75\n      jump\t// in\n    tag_147:\n        /* \"#utility.yul\":7340:7342   */\n      0x40\n        /* \"#utility.yul\":7335:7338   */\n      dup3\n        /* \"#utility.yul\":7331:7343   */\n      add\n        /* \"#utility.yul\":7324:7343   */\n      swap1\n      pop\n        /* \"#utility.yul\":6983:7349   */\n      swap2\n      swap1\n      pop\n      jump\t// out\n        /* \"#utility.yul\":7355:7774   */\n    tag_45:\n        /* \"#utility.yul\":7521:7525   */\n      0x00\n        /* \"#utility.yul\":7559:7561   */\n      0x20\n        /* \"#utility.yul\":7548:7557   */\n      dup3\n        /* \"#utility.yul\":7544:7562   */\n      add\n        /* \"#utility.yul\":7536:7562   */\n      swap1\n      pop\n        /* \"#utility.yul\":7608:7617   */\n      dup2\n        /* \"#utility.yul\":7602:7606   */\n      dup2\n        /* \"#utility.yul\":7598:7618   */\n      sub\n        /* \"#utility.yul\":7594:7595   */\n      0x00\n        /* \"#utility.yul\":7583:7592   */\n      dup4\n        /* \"#utility.yul\":7579:7596   */\n      add\n        /* \"#utility.yul\":7572:7619   */\n      mstore\n        /* \"#utility.yul\":7636:7767   */\n      tag_149\n        /* \"#utility.yul\":7762:7766   */\n      dup2\n        /* \"#utility.yul\":7636:7767   */\n      tag_76\n      jump\t// in\n    tag_149:\n        /* \"#utility.yul\":7628:7767   */\n      swap1\n      pop\n        /* \"#utility.yul\":7355:7774   */\n      swap2\n      swap1\n      pop\n      jump\t// out\n        /* \"#utility.yul\":7780:7953   */\n    tag_77:\n        /* \"#utility.yul\":7920:7945   */\n      0x54686520766f74657220616c726561647920766f746564000000000000000000\n        /* \"#utility.yul\":7916:7917   */\n      0x00\n        /* \"#utility.yul\":7908:7914   */\n      dup3\n        /* \"#utility.yul\":7904:7918   */\n      add\n        /* \"#utility.yul\":7897:7946   */\n      mstore\n        /* \"#utility.yul\":7780:7953   */\n      pop\n      jump\t// out\n        /* \"#utility.yul\":7959:8325   */\n    tag_78:\n        /* \"#utility.yul\":8101:8104   */\n      0x00\n        /* \"#utility.yul\":8122:8189   */\n      tag_152\n        /* \"#utility.yul\":8186:8188   */\n      0x17\n        /* \"#utility.yul\":8181:8184   */\n      dup4\n        /* \"#utility.yul\":8122:8189   */\n      tag_68\n      jump\t// in\n    tag_152:\n        /* \"#utility.yul\":8115:8189   */\n      swap2\n      pop\n        /* \"#utility.yul\":8198:8291   */\n      tag_153\n        /* \"#utility.yul\":8287:8290   */\n      dup3\n        /* \"#utility.yul\":8198:8291   */\n      tag_77\n      jump\t// in\n    tag_153:\n        /* \"#utility.yul\":8316:8318   */\n      0x20\n        /* \"#utility.yul\":8311:8314   */\n      dup3\n        /* \"#utility.yul\":8307:8319   */\n      add\n        /* \"#utility.yul\":8300:8319   */\n      swap1\n      pop\n        /* \"#utility.yul\":7959:8325   */\n      swap2\n      swap1\n      pop\n      jump\t// out\n        /* \"#utility.yul\":8331:8750   */\n    tag_48:\n        /* \"#utility.yul\":8497:8501   */\n      0x00\n        /* \"#utility.yul\":8535:8537   */\n      0x20\n        /* \"#utility.yul\":8524:8533   */\n      dup3\n        /* \"#utility.yul\":8520:8538   */\n      add\n        /* \"#utility.yul\":8512:8538   */\n      swap1\n      pop\n        /* \"#utility.yul\":8584:8593   */\n      dup2\n        /* \"#utility.yul\":8578:8582   */\n      dup2\n        /* \"#utility.yul\":8574:8594   */\n      sub\n        /* \"#utility.yul\":8570:8571   */\n      0x00\n        /* \"#utility.yul\":8559:8568   */\n      dup4\n        /* \"#utility.yul\":8555:8572   */\n      add\n        /* \"#utility.yul\":8548:8595   */\n      mstore\n        /* \"#utility.yul\":8612:8743   */\n      tag_155\n        /* \"#utility.yul\":8738:8742   */\n      dup2\n        /* \"#utility.yul\":8612:8743   */\n      tag_78\n      jump\t// in\n    tag_155:\n        /* \"#utility.yul\":8604:8743   */\n      swap1\n      pop\n        /* \"#utility.yul\":8331:8750   */\n      swap2\n      swap1\n      pop\n      jump\t// out\n\n    auxdata: 0xa2646970667358221220284708ca4055e1af4774892d825eceba0de8a9a35c70a9c9f6ab27a57c5afa4064736f6c634300080d0033\n}\n",
				"bytecode": {
					"linkReferences": {},
					"object": "60806040523480156200001157600080fd5b5060405162000ea738038062000ea7833981810160405281019062000037919062000342565b336000806101000a81548173ffffffffffffffffffffffffffffffffffffffff021916908373ffffffffffffffffffffffffffffffffffffffff16021790555060018060008060009054906101000a900473ffffffffffffffffffffffffffffffffffffffff1673ffffffffffffffffffffffffffffffffffffffff1673ffffffffffffffffffffffffffffffffffffffff1681526020019081526020016000206000018190555060005b81518110156200017657600260405180604001604052808484815181106200010f576200010e62000393565b5b60200260200101518152602001600081525090806001815401808255809150506001900390600052602060002090600202016000909190919091506000820151816000015560208201518160010155505080806200016d90620003fb565b915050620000e2565b505062000448565b6000604051905090565b600080fd5b600080fd5b600080fd5b6000601f19601f8301169050919050565b7f4e487b7100000000000000000000000000000000000000000000000000000000600052604160045260246000fd5b620001e28262000197565b810181811067ffffffffffffffff82111715620002045762000203620001a8565b5b80604052505050565b6000620002196200017e565b9050620002278282620001d7565b919050565b600067ffffffffffffffff8211156200024a5762000249620001a8565b5b602082029050602081019050919050565b600080fd5b6000819050919050565b620002758162000260565b81146200028157600080fd5b50565b60008151905062000295816200026a565b92915050565b6000620002b2620002ac846200022c565b6200020d565b90508083825260208201905060208402830185811115620002d857620002d76200025b565b5b835b81811015620003055780620002f0888262000284565b845260208401935050602081019050620002da565b5050509392505050565b600082601f83011262000327576200032662000192565b5b8151620003398482602086016200029b565b91505092915050565b6000602082840312156200035b576200035a62000188565b5b600082015167ffffffffffffffff8111156200037c576200037b6200018d565b5b6200038a848285016200030f565b91505092915050565b7f4e487b7100000000000000000000000000000000000000000000000000000000600052603260045260246000fd5b7f4e487b7100000000000000000000000000000000000000000000000000000000600052601160045260246000fd5b6000819050919050565b60006200040882620003f1565b91507fffffffffffffffffffffffffffffffffffffffffffffffffffffffffffffffff82036200043d576200043c620003c2565b5b600182019050919050565b610a4f80620004586000396000f3fe608060405234801561001057600080fd5b50600436106100575760003560e01c80632e4176cf1461005c5780635c19a95c1461007a5780639e7b8d6114610096578063a3ec138d146100b2578063d1dbe7d8146100e5575b600080fd5b610064610116565b6040516100719190610639565b60405180910390f35b610094600480360381019061008f9190610685565b61013a565b005b6100b060048036038101906100ab9190610685565b6103b0565b005b6100cc60048036038101906100c79190610685565b610567565b6040516100dc94939291906106e6565b60405180910390f35b6100ff60048036038101906100fa9190610757565b6105c4565b60405161010d92919061079d565b60405180910390f35b60008054906101000a900473ffffffffffffffffffffffffffffffffffffffff1681565b6000600160003373ffffffffffffffffffffffffffffffffffffffff1673ffffffffffffffffffffffffffffffffffffffff16815260200190815260200160002090508060010160009054906101000a900460ff16156101cf576040517f08c379a00000000000000000000000000000000000000000000000000000000081526004016101c690610823565b60405180910390fd5b3373ffffffffffffffffffffffffffffffffffffffff168273ffffffffffffffffffffffffffffffffffffffff160361023d576040517f08c379a00000000000000000000000000000000000000000000000000000000081526004016102349061088f565b60405180910390fd5b5b600073ffffffffffffffffffffffffffffffffffffffff16600160008473ffffffffffffffffffffffffffffffffffffffff1673ffffffffffffffffffffffffffffffffffffffff16815260200190815260200160002060010160019054906101000a900473ffffffffffffffffffffffffffffffffffffffff1673ffffffffffffffffffffffffffffffffffffffff16146103ac57600160008373ffffffffffffffffffffffffffffffffffffffff1673ffffffffffffffffffffffffffffffffffffffff16815260200190815260200160002060010160019054906101000a900473ffffffffffffffffffffffffffffffffffffffff1691503373ffffffffffffffffffffffffffffffffffffffff168273ffffffffffffffffffffffffffffffffffffffff16036103a7576040517f08c379a000000000000000000000000000000000000000000000000000000000815260040161039e906108fb565b60405180910390fd5b61023e565b5050565b60008054906101000a900473ffffffffffffffffffffffffffffffffffffffff1673ffffffffffffffffffffffffffffffffffffffff163373ffffffffffffffffffffffffffffffffffffffff161461043e576040517f08c379a00000000000000000000000000000000000000000000000000000000081526004016104359061098d565b60405180910390fd5b600160008273ffffffffffffffffffffffffffffffffffffffff1673ffffffffffffffffffffffffffffffffffffffff16815260200190815260200160002060010160009054906101000a900460ff16156104ce576040517f08c379a00000000000000000000000000000000000000000000000000000000081526004016104c5906109f9565b60405180910390fd5b6000600160008373ffffffffffffffffffffffffffffffffffffffff1673ffffffffffffffffffffffffffffffffffffffff168152602001908152602001600020600001541461051d57600080fd5b60018060008373ffffffffffffffffffffffffffffffffffffffff1673ffffffffffffffffffffffffffffffffffffffff1681526020019081526020016000206000018190555050565b60016020528060005260406000206000915090508060000154908060010160009054906101000a900460ff16908060010160019054906101000a900473ffffffffffffffffffffffffffffffffffffffff16908060020154905084565b600281815481106105d457600080fd5b90600052602060002090600202016000915090508060000154908060010154905082565b600073ffffffffffffffffffffffffffffffffffffffff82169050919050565b6000610623826105f8565b9050919050565b61063381610618565b82525050565b600060208201905061064e600083018461062a565b92915050565b600080fd5b61066281610618565b811461066d57600080fd5b50565b60008135905061067f81610659565b92915050565b60006020828403121561069b5761069a610654565b5b60006106a984828501610670565b91505092915050565b6000819050919050565b6106c5816106b2565b82525050565b60008115159050919050565b6106e0816106cb565b82525050565b60006080820190506106fb60008301876106bc565b61070860208301866106d7565b610715604083018561062a565b61072260608301846106bc565b95945050505050565b610734816106b2565b811461073f57600080fd5b50565b6000813590506107518161072b565b92915050565b60006020828403121561076d5761076c610654565b5b600061077b84828501610742565b91505092915050565b6000819050919050565b61079781610784565b82525050565b60006040820190506107b2600083018561078e565b6107bf60208301846106bc565b9392505050565b600082825260208201905092915050565b7f596f7520616c726561647920766f746564000000000000000000000000000000600082015250565b600061080d6011836107c6565b9150610818826107d7565b602082019050919050565b6000602082019050818103600083015261083c81610800565b9050919050565b7f53656c662d64656c65676174696f6e20697320646973616c6c6f7765642e0000600082015250565b6000610879601e836107c6565b915061088482610843565b602082019050919050565b600060208201905081810360008301526108a88161086c565b9050919050565b7f466f756e64206c6f6f7020696e2064656c65676174696f6e0000000000000000600082015250565b60006108e56018836107c6565b91506108f0826108af565b602082019050919050565b60006020820190508181036000830152610914816108d8565b9050919050565b7f4f6e6c79206368616972706572736f6e2063616e20676976652072696768742060008201527f746f20766f746500000000000000000000000000000000000000000000000000602082015250565b60006109776027836107c6565b91506109828261091b565b604082019050919050565b600060208201905081810360008301526109a68161096a565b9050919050565b7f54686520766f74657220616c726561647920766f746564000000000000000000600082015250565b60006109e36017836107c6565b91506109ee826109ad565b602082019050919050565b60006020820190508181036000830152610a12816109d6565b905091905056fea2646970667358221220284708ca4055e1af4774892d825eceba0de8a9a35c70a9c9f6ab27a57c5afa4064736f6c634300080d0033",
					"opcodes": "PUSH1 0x80 PUSH1 0x40 MSTORE CALLVALUE DUP1 ISZERO PUSH3 0x11 JUMPI PUSH1 0x0 DUP1 REVERT JUMPDEST POP PUSH1 0x40 MLOAD PUSH3 0xEA7 CODESIZE SUB DUP1 PUSH3 0xEA7 DUP4 CODECOPY DUP2 DUP2 ADD PUSH1 0x40 MSTORE DUP2 ADD SWAP1 PUSH3 0x37 SWAP2 SWAP1 PUSH3 0x342 JUMP JUMPDEST CALLER PUSH1 0x0 DUP1 PUSH2 0x100 EXP DUP2 SLOAD DUP2 PUSH20 0xFFFFFFFFFFFFFFFFFFFFFFFFFFFFFFFFFFFFFFFF MUL NOT AND SWAP1 DUP4 PUSH20 0xFFFFFFFFFFFFFFFFFFFFFFFFFFFFFFFFFFFFFFFF AND MUL OR SWAP1 SSTORE POP PUSH1 0x1 DUP1 PUSH1 0x0 DUP1 PUSH1 0x0 SWAP1 SLOAD SWAP1 PUSH2 0x100 EXP SWAP1 DIV PUSH20 0xFFFFFFFFFFFFFFFFFFFFFFFFFFFFFFFFFFFFFFFF AND PUSH20 0xFFFFFFFFFFFFFFFFFFFFFFFFFFFFFFFFFFFFFFFF AND PUSH20 0xFFFFFFFFFFFFFFFFFFFFFFFFFFFFFFFFFFFFFFFF AND DUP2 MSTORE PUSH1 0x20 ADD SWAP1 DUP2 MSTORE PUSH1 0x20 ADD PUSH1 0x0 KECCAK256 PUSH1 0x0 ADD DUP2 SWAP1 SSTORE POP PUSH1 0x0 JUMPDEST DUP2 MLOAD DUP2 LT ISZERO PUSH3 0x176 JUMPI PUSH1 0x2 PUSH1 0x40 MLOAD DUP1 PUSH1 0x40 ADD PUSH1 0x40 MSTORE DUP1 DUP5 DUP5 DUP2 MLOAD DUP2 LT PUSH3 0x10F JUMPI PUSH3 0x10E PUSH3 0x393 JUMP JUMPDEST JUMPDEST PUSH1 0x20 MUL PUSH1 0x20 ADD ADD MLOAD DUP2 MSTORE PUSH1 0x20 ADD PUSH1 0x0 DUP2 MSTORE POP SWAP1 DUP1 PUSH1 0x1 DUP2 SLOAD ADD DUP1 DUP3 SSTORE DUP1 SWAP2 POP POP PUSH1 0x1 SWAP1 SUB SWAP1 PUSH1 0x0 MSTORE PUSH1 0x20 PUSH1 0x0 KECCAK256 SWAP1 PUSH1 0x2 MUL ADD PUSH1 0x0 SWAP1 SWAP2 SWAP1 SWAP2 SWAP1 SWAP2 POP PUSH1 0x0 DUP3 ADD MLOAD DUP2 PUSH1 0x0 ADD SSTORE PUSH1 0x20 DUP3 ADD MLOAD DUP2 PUSH1 0x1 ADD SSTORE POP POP DUP1 DUP1 PUSH3 0x16D SWAP1 PUSH3 0x3FB JUMP JUMPDEST SWAP2 POP POP PUSH3 0xE2 JUMP JUMPDEST POP POP PUSH3 0x448 JUMP JUMPDEST PUSH1 0x0 PUSH1 0x40 MLOAD SWAP1 POP SWAP1 JUMP JUMPDEST PUSH1 0x0 DUP1 REVERT JUMPDEST PUSH1 0x0 DUP1 REVERT JUMPDEST PUSH1 0x0 DUP1 REVERT JUMPDEST PUSH1 0x0 PUSH1 0x1F NOT PUSH1 0x1F DUP4 ADD AND SWAP1 POP SWAP2 SWAP1 POP JUMP JUMPDEST PUSH32 0x4E487B7100000000000000000000000000000000000000000000000000000000 PUSH1 0x0 MSTORE PUSH1 0x41 PUSH1 0x4 MSTORE PUSH1 0x24 PUSH1 0x0 REVERT JUMPDEST PUSH3 0x1E2 DUP3 PUSH3 0x197 JUMP JUMPDEST DUP2 ADD DUP2 DUP2 LT PUSH8 0xFFFFFFFFFFFFFFFF DUP3 GT OR ISZERO PUSH3 0x204 JUMPI PUSH3 0x203 PUSH3 0x1A8 JUMP JUMPDEST JUMPDEST DUP1 PUSH1 0x40 MSTORE POP POP POP JUMP JUMPDEST PUSH1 0x0 PUSH3 0x219 PUSH3 0x17E JUMP JUMPDEST SWAP1 POP PUSH3 0x227 DUP3 DUP3 PUSH3 0x1D7 JUMP JUMPDEST SWAP2 SWAP1 POP JUMP JUMPDEST PUSH1 0x0 PUSH8 0xFFFFFFFFFFFFFFFF DUP3 GT ISZERO PUSH3 0x24A JUMPI PUSH3 0x249 PUSH3 0x1A8 JUMP JUMPDEST JUMPDEST PUSH1 0x20 DUP3 MUL SWAP1 POP PUSH1 0x20 DUP2 ADD SWAP1 POP SWAP2 SWAP1 POP JUMP JUMPDEST PUSH1 0x0 DUP1 REVERT JUMPDEST PUSH1 0x0 DUP2 SWAP1 POP SWAP2 SWAP1 POP JUMP JUMPDEST PUSH3 0x275 DUP2 PUSH3 0x260 JUMP JUMPDEST DUP2 EQ PUSH3 0x281 JUMPI PUSH1 0x0 DUP1 REVERT JUMPDEST POP JUMP JUMPDEST PUSH1 0x0 DUP2 MLOAD SWAP1 POP PUSH3 0x295 DUP2 PUSH3 0x26A JUMP JUMPDEST SWAP3 SWAP2 POP POP JUMP JUMPDEST PUSH1 0x0 PUSH3 0x2B2 PUSH3 0x2AC DUP5 PUSH3 0x22C JUMP JUMPDEST PUSH3 0x20D JUMP JUMPDEST SWAP1 POP DUP1 DUP4 DUP3 MSTORE PUSH1 0x20 DUP3 ADD SWAP1 POP PUSH1 0x20 DUP5 MUL DUP4 ADD DUP6 DUP2 GT ISZERO PUSH3 0x2D8 JUMPI PUSH3 0x2D7 PUSH3 0x25B JUMP JUMPDEST JUMPDEST DUP4 JUMPDEST DUP2 DUP2 LT ISZERO PUSH3 0x305 JUMPI DUP1 PUSH3 0x2F0 DUP9 DUP3 PUSH3 0x284 JUMP JUMPDEST DUP5 MSTORE PUSH1 0x20 DUP5 ADD SWAP4 POP POP PUSH1 0x20 DUP2 ADD SWAP1 POP PUSH3 0x2DA JUMP JUMPDEST POP POP POP SWAP4 SWAP3 POP POP POP JUMP JUMPDEST PUSH1 0x0 DUP3 PUSH1 0x1F DUP4 ADD SLT PUSH3 0x327 JUMPI PUSH3 0x326 PUSH3 0x192 JUMP JUMPDEST JUMPDEST DUP2 MLOAD PUSH3 0x339 DUP5 DUP3 PUSH1 0x20 DUP7 ADD PUSH3 0x29B JUMP JUMPDEST SWAP2 POP POP SWAP3 SWAP2 POP POP JUMP JUMPDEST PUSH1 0x0 PUSH1 0x20 DUP3 DUP5 SUB SLT ISZERO PUSH3 0x35B JUMPI PUSH3 0x35A PUSH3 0x188 JUMP JUMPDEST JUMPDEST PUSH1 0x0 DUP3 ADD MLOAD PUSH8 0xFFFFFFFFFFFFFFFF DUP2 GT ISZERO PUSH3 0x37C JUMPI PUSH3 0x37B PUSH3 0x18D JUMP JUMPDEST JUMPDEST PUSH3 0x38A DUP5 DUP3 DUP6 ADD PUSH3 0x30F JUMP JUMPDEST SWAP2 POP POP SWAP3 SWAP2 POP POP JUMP JUMPDEST PUSH32 0x4E487B7100000000000000000000000000000000000000000000000000000000 PUSH1 0x0 MSTORE PUSH1 0x32 PUSH1 0x4 MSTORE PUSH1 0x24 PUSH1 0x0 REVERT JUMPDEST PUSH32 0x4E487B7100000000000000000000000000000000000000000000000000000000 PUSH1 0x0 MSTORE PUSH1 0x11 PUSH1 0x4 MSTORE PUSH1 0x24 PUSH1 0x0 REVERT JUMPDEST PUSH1 0x0 DUP2 SWAP1 POP SWAP2 SWAP1 POP JUMP JUMPDEST PUSH1 0x0 PUSH3 0x408 DUP3 PUSH3 0x3F1 JUMP JUMPDEST SWAP2 POP PUSH32 0xFFFFFFFFFFFFFFFFFFFFFFFFFFFFFFFFFFFFFFFFFFFFFFFFFFFFFFFFFFFFFFFF DUP3 SUB PUSH3 0x43D JUMPI PUSH3 0x43C PUSH3 0x3C2 JUMP JUMPDEST JUMPDEST PUSH1 0x1 DUP3 ADD SWAP1 POP SWAP2 SWAP1 POP JUMP JUMPDEST PUSH2 0xA4F DUP1 PUSH3 0x458 PUSH1 0x0 CODECOPY PUSH1 0x0 RETURN INVALID PUSH1 0x80 PUSH1 0x40 MSTORE CALLVALUE DUP1 ISZERO PUSH2 0x10 JUMPI PUSH1 0x0 DUP1 REVERT JUMPDEST POP PUSH1 0x4 CALLDATASIZE LT PUSH2 0x57 JUMPI PUSH1 0x0 CALLDATALOAD PUSH1 0xE0 SHR DUP1 PUSH4 0x2E4176CF EQ PUSH2 0x5C JUMPI DUP1 PUSH4 0x5C19A95C EQ PUSH2 0x7A JUMPI DUP1 PUSH4 0x9E7B8D61 EQ PUSH2 0x96 JUMPI DUP1 PUSH4 0xA3EC138D EQ PUSH2 0xB2 JUMPI DUP1 PUSH4 0xD1DBE7D8 EQ PUSH2 0xE5 JUMPI JUMPDEST PUSH1 0x0 DUP1 REVERT JUMPDEST PUSH2 0x64 PUSH2 0x116 JUMP JUMPDEST PUSH1 0x40 MLOAD PUSH2 0x71 SWAP2 SWAP1 PUSH2 0x639 JUMP JUMPDEST PUSH1 0x40 MLOAD DUP1 SWAP2 SUB SWAP1 RETURN JUMPDEST PUSH2 0x94 PUSH1 0x4 DUP1 CALLDATASIZE SUB DUP2 ADD SWAP1 PUSH2 0x8F SWAP2 SWAP1 PUSH2 0x685 JUMP JUMPDEST PUSH2 0x13A JUMP JUMPDEST STOP JUMPDEST PUSH2 0xB0 PUSH1 0x4 DUP1 CALLDATASIZE SUB DUP2 ADD SWAP1 PUSH2 0xAB SWAP2 SWAP1 PUSH2 0x685 JUMP JUMPDEST PUSH2 0x3B0 JUMP JUMPDEST STOP JUMPDEST PUSH2 0xCC PUSH1 0x4 DUP1 CALLDATASIZE SUB DUP2 ADD SWAP1 PUSH2 0xC7 SWAP2 SWAP1 PUSH2 0x685 JUMP JUMPDEST PUSH2 0x567 JUMP JUMPDEST PUSH1 0x40 MLOAD PUSH2 0xDC SWAP5 SWAP4 SWAP3 SWAP2 SWAP1 PUSH2 0x6E6 JUMP JUMPDEST PUSH1 0x40 MLOAD DUP1 SWAP2 SUB SWAP1 RETURN JUMPDEST PUSH2 0xFF PUSH1 0x4 DUP1 CALLDATASIZE SUB DUP2 ADD SWAP1 PUSH2 0xFA SWAP2 SWAP1 PUSH2 0x757 JUMP JUMPDEST PUSH2 0x5C4 JUMP JUMPDEST PUSH1 0x40 MLOAD PUSH2 0x10D SWAP3 SWAP2 SWAP1 PUSH2 0x79D JUMP JUMPDEST PUSH1 0x40 MLOAD DUP1 SWAP2 SUB SWAP1 RETURN JUMPDEST PUSH1 0x0 DUP1 SLOAD SWAP1 PUSH2 0x100 EXP SWAP1 DIV PUSH20 0xFFFFFFFFFFFFFFFFFFFFFFFFFFFFFFFFFFFFFFFF AND DUP2 JUMP JUMPDEST PUSH1 0x0 PUSH1 0x1 PUSH1 0x0 CALLER PUSH20 0xFFFFFFFFFFFFFFFFFFFFFFFFFFFFFFFFFFFFFFFF AND PUSH20 0xFFFFFFFFFFFFFFFFFFFFFFFFFFFFFFFFFFFFFFFF AND DUP2 MSTORE PUSH1 0x20 ADD SWAP1 DUP2 MSTORE PUSH1 0x20 ADD PUSH1 0x0 KECCAK256 SWAP1 POP DUP1 PUSH1 0x1 ADD PUSH1 0x0 SWAP1 SLOAD SWAP1 PUSH2 0x100 EXP SWAP1 DIV PUSH1 0xFF AND ISZERO PUSH2 0x1CF JUMPI PUSH1 0x40 MLOAD PUSH32 0x8C379A000000000000000000000000000000000000000000000000000000000 DUP2 MSTORE PUSH1 0x4 ADD PUSH2 0x1C6 SWAP1 PUSH2 0x823 JUMP JUMPDEST PUSH1 0x40 MLOAD DUP1 SWAP2 SUB SWAP1 REVERT JUMPDEST CALLER PUSH20 0xFFFFFFFFFFFFFFFFFFFFFFFFFFFFFFFFFFFFFFFF AND DUP3 PUSH20 0xFFFFFFFFFFFFFFFFFFFFFFFFFFFFFFFFFFFFFFFF AND SUB PUSH2 0x23D JUMPI PUSH1 0x40 MLOAD PUSH32 0x8C379A000000000000000000000000000000000000000000000000000000000 DUP2 MSTORE PUSH1 0x4 ADD PUSH2 0x234 SWAP1 PUSH2 0x88F JUMP JUMPDEST PUSH1 0x40 MLOAD DUP1 SWAP2 SUB SWAP1 REVERT JUMPDEST JUMPDEST PUSH1 0x0 PUSH20 0xFFFFFFFFFFFFFFFFFFFFFFFFFFFFFFFFFFFFFFFF AND PUSH1 0x1 PUSH1 0x0 DUP5 PUSH20 0xFFFFFFFFFFFFFFFFFFFFFFFFFFFFFFFFFFFFFFFF AND PUSH20 0xFFFFFFFFFFFFFFFFFFFFFFFFFFFFFFFFFFFFFFFF AND DUP2 MSTORE PUSH1 0x20 ADD SWAP1 DUP2 MSTORE PUSH1 0x20 ADD PUSH1 0x0 KECCAK256 PUSH1 0x1 ADD PUSH1 0x1 SWAP1 SLOAD SWAP1 PUSH2 0x100 EXP SWAP1 DIV PUSH20 0xFFFFFFFFFFFFFFFFFFFFFFFFFFFFFFFFFFFFFFFF AND PUSH20 0xFFFFFFFFFFFFFFFFFFFFFFFFFFFFFFFFFFFFFFFF AND EQ PUSH2 0x3AC JUMPI PUSH1 0x1 PUSH1 0x0 DUP4 PUSH20 0xFFFFFFFFFFFFFFFFFFFFFFFFFFFFFFFFFFFFFFFF AND PUSH20 0xFFFFFFFFFFFFFFFFFFFFFFFFFFFFFFFFFFFFFFFF AND DUP2 MSTORE PUSH1 0x20 ADD SWAP1 DUP2 MSTORE PUSH1 0x20 ADD PUSH1 0x0 KECCAK256 PUSH1 0x1 ADD PUSH1 0x1 SWAP1 SLOAD SWAP1 PUSH2 0x100 EXP SWAP1 DIV PUSH20 0xFFFFFFFFFFFFFFFFFFFFFFFFFFFFFFFFFFFFFFFF AND SWAP2 POP CALLER PUSH20 0xFFFFFFFFFFFFFFFFFFFFFFFFFFFFFFFFFFFFFFFF AND DUP3 PUSH20 0xFFFFFFFFFFFFFFFFFFFFFFFFFFFFFFFFFFFFFFFF AND SUB PUSH2 0x3A7 JUMPI PUSH1 0x40 MLOAD PUSH32 0x8C379A000000000000000000000000000000000000000000000000000000000 DUP2 MSTORE PUSH1 0x4 ADD PUSH2 0x39E SWAP1 PUSH2 0x8FB JUMP JUMPDEST PUSH1 0x40 MLOAD DUP1 SWAP2 SUB SWAP1 REVERT JUMPDEST PUSH2 0x23E JUMP JUMPDEST POP POP JUMP JUMPDEST PUSH1 0x0 DUP1 SLOAD SWAP1 PUSH2 0x100 EXP SWAP1 DIV PUSH20 0xFFFFFFFFFFFFFFFFFFFFFFFFFFFFFFFFFFFFFFFF AND PUSH20 0xFFFFFFFFFFFFFFFFFFFFFFFFFFFFFFFFFFFFFFFF AND CALLER PUSH20 0xFFFFFFFFFFFFFFFFFFFFFFFFFFFFFFFFFFFFFFFF AND EQ PUSH2 0x43E JUMPI PUSH1 0x40 MLOAD PUSH32 0x8C379A000000000000000000000000000000000000000000000000000000000 DUP2 MSTORE PUSH1 0x4 ADD PUSH2 0x435 SWAP1 PUSH2 0x98D JUMP JUMPDEST PUSH1 0x40 MLOAD DUP1 SWAP2 SUB SWAP1 REVERT JUMPDEST PUSH1 0x1 PUSH1 0x0 DUP3 PUSH20 0xFFFFFFFFFFFFFFFFFFFFFFFFFFFFFFFFFFFFFFFF AND PUSH20 0xFFFFFFFFFFFFFFFFFFFFFFFFFFFFFFFFFFFFFFFF AND DUP2 MSTORE PUSH1 0x20 ADD SWAP1 DUP2 MSTORE PUSH1 0x20 ADD PUSH1 0x0 KECCAK256 PUSH1 0x1 ADD PUSH1 0x0 SWAP1 SLOAD SWAP1 PUSH2 0x100 EXP SWAP1 DIV PUSH1 0xFF AND ISZERO PUSH2 0x4CE JUMPI PUSH1 0x40 MLOAD PUSH32 0x8C379A000000000000000000000000000000000000000000000000000000000 DUP2 MSTORE PUSH1 0x4 ADD PUSH2 0x4C5 SWAP1 PUSH2 0x9F9 JUMP JUMPDEST PUSH1 0x40 MLOAD DUP1 SWAP2 SUB SWAP1 REVERT JUMPDEST PUSH1 0x0 PUSH1 0x1 PUSH1 0x0 DUP4 PUSH20 0xFFFFFFFFFFFFFFFFFFFFFFFFFFFFFFFFFFFFFFFF AND PUSH20 0xFFFFFFFFFFFFFFFFFFFFFFFFFFFFFFFFFFFFFFFF AND DUP2 MSTORE PUSH1 0x20 ADD SWAP1 DUP2 MSTORE PUSH1 0x20 ADD PUSH1 0x0 KECCAK256 PUSH1 0x0 ADD SLOAD EQ PUSH2 0x51D JUMPI PUSH1 0x0 DUP1 REVERT JUMPDEST PUSH1 0x1 DUP1 PUSH1 0x0 DUP4 PUSH20 0xFFFFFFFFFFFFFFFFFFFFFFFFFFFFFFFFFFFFFFFF AND PUSH20 0xFFFFFFFFFFFFFFFFFFFFFFFFFFFFFFFFFFFFFFFF AND DUP2 MSTORE PUSH1 0x20 ADD SWAP1 DUP2 MSTORE PUSH1 0x20 ADD PUSH1 0x0 KECCAK256 PUSH1 0x0 ADD DUP2 SWAP1 SSTORE POP POP JUMP JUMPDEST PUSH1 0x1 PUSH1 0x20 MSTORE DUP1 PUSH1 0x0 MSTORE PUSH1 0x40 PUSH1 0x0 KECCAK256 PUSH1 0x0 SWAP2 POP SWAP1 POP DUP1 PUSH1 0x0 ADD SLOAD SWAP1 DUP1 PUSH1 0x1 ADD PUSH1 0x0 SWAP1 SLOAD SWAP1 PUSH2 0x100 EXP SWAP1 DIV PUSH1 0xFF AND SWAP1 DUP1 PUSH1 0x1 ADD PUSH1 0x1 SWAP1 SLOAD SWAP1 PUSH2 0x100 EXP SWAP1 DIV PUSH20 0xFFFFFFFFFFFFFFFFFFFFFFFFFFFFFFFFFFFFFFFF AND SWAP1 DUP1 PUSH1 0x2 ADD SLOAD SWAP1 POP DUP5 JUMP JUMPDEST PUSH1 0x2 DUP2 DUP2 SLOAD DUP2 LT PUSH2 0x5D4 JUMPI PUSH1 0x0 DUP1 REVERT JUMPDEST SWAP1 PUSH1 0x0 MSTORE PUSH1 0x20 PUSH1 0x0 KECCAK256 SWAP1 PUSH1 0x2 MUL ADD PUSH1 0x0 SWAP2 POP SWAP1 POP DUP1 PUSH1 0x0 ADD SLOAD SWAP1 DUP1 PUSH1 0x1 ADD SLOAD SWAP1 POP DUP3 JUMP JUMPDEST PUSH1 0x0 PUSH20 0xFFFFFFFFFFFFFFFFFFFFFFFFFFFFFFFFFFFFFFFF DUP3 AND SWAP1 POP SWAP2 SWAP1 POP JUMP JUMPDEST PUSH1 0x0 PUSH2 0x623 DUP3 PUSH2 0x5F8 JUMP JUMPDEST SWAP1 POP SWAP2 SWAP1 POP JUMP JUMPDEST PUSH2 0x633 DUP2 PUSH2 0x618 JUMP JUMPDEST DUP3 MSTORE POP POP JUMP JUMPDEST PUSH1 0x0 PUSH1 0x20 DUP3 ADD SWAP1 POP PUSH2 0x64E PUSH1 0x0 DUP4 ADD DUP5 PUSH2 0x62A JUMP JUMPDEST SWAP3 SWAP2 POP POP JUMP JUMPDEST PUSH1 0x0 DUP1 REVERT JUMPDEST PUSH2 0x662 DUP2 PUSH2 0x618 JUMP JUMPDEST DUP2 EQ PUSH2 0x66D JUMPI PUSH1 0x0 DUP1 REVERT JUMPDEST POP JUMP JUMPDEST PUSH1 0x0 DUP2 CALLDATALOAD SWAP1 POP PUSH2 0x67F DUP2 PUSH2 0x659 JUMP JUMPDEST SWAP3 SWAP2 POP POP JUMP JUMPDEST PUSH1 0x0 PUSH1 0x20 DUP3 DUP5 SUB SLT ISZERO PUSH2 0x69B JUMPI PUSH2 0x69A PUSH2 0x654 JUMP JUMPDEST JUMPDEST PUSH1 0x0 PUSH2 0x6A9 DUP5 DUP3 DUP6 ADD PUSH2 0x670 JUMP JUMPDEST SWAP2 POP POP SWAP3 SWAP2 POP POP JUMP JUMPDEST PUSH1 0x0 DUP2 SWAP1 POP SWAP2 SWAP1 POP JUMP JUMPDEST PUSH2 0x6C5 DUP2 PUSH2 0x6B2 JUMP JUMPDEST DUP3 MSTORE POP POP JUMP JUMPDEST PUSH1 0x0 DUP2 ISZERO ISZERO SWAP1 POP SWAP2 SWAP1 POP JUMP JUMPDEST PUSH2 0x6E0 DUP2 PUSH2 0x6CB JUMP JUMPDEST DUP3 MSTORE POP POP JUMP JUMPDEST PUSH1 0x0 PUSH1 0x80 DUP3 ADD SWAP1 POP PUSH2 0x6FB PUSH1 0x0 DUP4 ADD DUP8 PUSH2 0x6BC JUMP JUMPDEST PUSH2 0x708 PUSH1 0x20 DUP4 ADD DUP7 PUSH2 0x6D7 JUMP JUMPDEST PUSH2 0x715 PUSH1 0x40 DUP4 ADD DUP6 PUSH2 0x62A JUMP JUMPDEST PUSH2 0x722 PUSH1 0x60 DUP4 ADD DUP5 PUSH2 0x6BC JUMP JUMPDEST SWAP6 SWAP5 POP POP POP POP POP JUMP JUMPDEST PUSH2 0x734 DUP2 PUSH2 0x6B2 JUMP JUMPDEST DUP2 EQ PUSH2 0x73F JUMPI PUSH1 0x0 DUP1 REVERT JUMPDEST POP JUMP JUMPDEST PUSH1 0x0 DUP2 CALLDATALOAD SWAP1 POP PUSH2 0x751 DUP2 PUSH2 0x72B JUMP JUMPDEST SWAP3 SWAP2 POP POP JUMP JUMPDEST PUSH1 0x0 PUSH1 0x20 DUP3 DUP5 SUB SLT ISZERO PUSH2 0x76D JUMPI PUSH2 0x76C PUSH2 0x654 JUMP JUMPDEST JUMPDEST PUSH1 0x0 PUSH2 0x77B DUP5 DUP3 DUP6 ADD PUSH2 0x742 JUMP JUMPDEST SWAP2 POP POP SWAP3 SWAP2 POP POP JUMP JUMPDEST PUSH1 0x0 DUP2 SWAP1 POP SWAP2 SWAP1 POP JUMP JUMPDEST PUSH2 0x797 DUP2 PUSH2 0x784 JUMP JUMPDEST DUP3 MSTORE POP POP JUMP JUMPDEST PUSH1 0x0 PUSH1 0x40 DUP3 ADD SWAP1 POP PUSH2 0x7B2 PUSH1 0x0 DUP4 ADD DUP6 PUSH2 0x78E JUMP JUMPDEST PUSH2 0x7BF PUSH1 0x20 DUP4 ADD DUP5 PUSH2 0x6BC JUMP JUMPDEST SWAP4 SWAP3 POP POP POP JUMP JUMPDEST PUSH1 0x0 DUP3 DUP3 MSTORE PUSH1 0x20 DUP3 ADD SWAP1 POP SWAP3 SWAP2 POP POP JUMP JUMPDEST PUSH32 0x596F7520616C726561647920766F746564000000000000000000000000000000 PUSH1 0x0 DUP3 ADD MSTORE POP JUMP JUMPDEST PUSH1 0x0 PUSH2 0x80D PUSH1 0x11 DUP4 PUSH2 0x7C6 JUMP JUMPDEST SWAP2 POP PUSH2 0x818 DUP3 PUSH2 0x7D7 JUMP JUMPDEST PUSH1 0x20 DUP3 ADD SWAP1 POP SWAP2 SWAP1 POP JUMP JUMPDEST PUSH1 0x0 PUSH1 0x20 DUP3 ADD SWAP1 POP DUP2 DUP2 SUB PUSH1 0x0 DUP4 ADD MSTORE PUSH2 0x83C DUP2 PUSH2 0x800 JUMP JUMPDEST SWAP1 POP SWAP2 SWAP1 POP JUMP JUMPDEST PUSH32 0x53656C662D64656C65676174696F6E20697320646973616C6C6F7765642E0000 PUSH1 0x0 DUP3 ADD MSTORE POP JUMP JUMPDEST PUSH1 0x0 PUSH2 0x879 PUSH1 0x1E DUP4 PUSH2 0x7C6 JUMP JUMPDEST SWAP2 POP PUSH2 0x884 DUP3 PUSH2 0x843 JUMP JUMPDEST PUSH1 0x20 DUP3 ADD SWAP1 POP SWAP2 SWAP1 POP JUMP JUMPDEST PUSH1 0x0 PUSH1 0x20 DUP3 ADD SWAP1 POP DUP2 DUP2 SUB PUSH1 0x0 DUP4 ADD MSTORE PUSH2 0x8A8 DUP2 PUSH2 0x86C JUMP JUMPDEST SWAP1 POP SWAP2 SWAP1 POP JUMP JUMPDEST PUSH32 0x466F756E64206C6F6F7020696E2064656C65676174696F6E0000000000000000 PUSH1 0x0 DUP3 ADD MSTORE POP JUMP JUMPDEST PUSH1 0x0 PUSH2 0x8E5 PUSH1 0x18 DUP4 PUSH2 0x7C6 JUMP JUMPDEST SWAP2 POP PUSH2 0x8F0 DUP3 PUSH2 0x8AF JUMP JUMPDEST PUSH1 0x20 DUP3 ADD SWAP1 POP SWAP2 SWAP1 POP JUMP JUMPDEST PUSH1 0x0 PUSH1 0x20 DUP3 ADD SWAP1 POP DUP2 DUP2 SUB PUSH1 0x0 DUP4 ADD MSTORE PUSH2 0x914 DUP2 PUSH2 0x8D8 JUMP JUMPDEST SWAP1 POP SWAP2 SWAP1 POP JUMP JUMPDEST PUSH32 0x4F6E6C79206368616972706572736F6E2063616E206769766520726967687420 PUSH1 0x0 DUP3 ADD MSTORE PUSH32 0x746F20766F746500000000000000000000000000000000000000000000000000 PUSH1 0x20 DUP3 ADD MSTORE POP JUMP JUMPDEST PUSH1 0x0 PUSH2 0x977 PUSH1 0x27 DUP4 PUSH2 0x7C6 JUMP JUMPDEST SWAP2 POP PUSH2 0x982 DUP3 PUSH2 0x91B JUMP JUMPDEST PUSH1 0x40 DUP3 ADD SWAP1 POP SWAP2 SWAP1 POP JUMP JUMPDEST PUSH1 0x0 PUSH1 0x20 DUP3 ADD SWAP1 POP DUP2 DUP2 SUB PUSH1 0x0 DUP4 ADD MSTORE PUSH2 0x9A6 DUP2 PUSH2 0x96A JUMP JUMPDEST SWAP1 POP SWAP2 SWAP1 POP JUMP JUMPDEST PUSH32 0x54686520766F74657220616C726561647920766F746564000000000000000000 PUSH1 0x0 DUP3 ADD MSTORE POP JUMP JUMPDEST PUSH1 0x0 PUSH2 0x9E3 PUSH1 0x17 DUP4 PUSH2 0x7C6 JUMP JUMPDEST SWAP2 POP PUSH2 0x9EE DUP3 PUSH2 0x9AD JUMP JUMPDEST PUSH1 0x20 DUP3 ADD SWAP1 POP SWAP2 SWAP1 POP JUMP JUMPDEST PUSH1 0x0 PUSH1 0x20 DUP3 ADD SWAP1 POP DUP2 DUP2 SUB PUSH1 0x0 DUP4 ADD MSTORE PUSH2 0xA12 DUP2 PUSH2 0x9D6 JUMP JUMPDEST SWAP1 POP SWAP2 SWAP1 POP JUMP INVALID LOG2 PUSH5 0x6970667358 0x22 SLT KECCAK256 0x28 SELFBALANCE ADDMOD 0xCA BLOCKHASH SSTORE 0xE1 0xAF SELFBALANCE PUSH21 0x892D825ECEBA0DE8A9A35C70A9C9F6AB27A57C5AFA BLOCKHASH PUSH5 0x736F6C6343 STOP ADDMOD 0xD STOP CALLER "
				},
				"gasEstimates": {
					"creation": {
						"codeDepositCost": "527800",
						"executionCost": "infinite",
						"totalCost": "infinite"
					},
					"external": {
						"Proposals(uint256)": "infinite",
						"chairperson()": "2489",
						"delegate(address)": "infinite",
						"giveRightToVote(address)": "29325",
						"voters(address)": "infinite"
					}
				},
				"methodIdentifiers": {
					"Proposals(uint256)": "d1dbe7d8",
					"chairperson()": "2e4176cf",
					"delegate(address)": "5c19a95c",
					"giveRightToVote(address)": "9e7b8d61",
					"voters(address)": "a3ec138d"
				}
			},
			"userdoc": {
				"kind": "user",
				"methods": {},
				"version": 1
			}
		}
	}
}