{
	"contracts/test1.sol": {
		"ElectiveSystem": {
			"abi": [
				{
					"inputs": [
						{
							"internalType": "bytes32[]",
							"name": "_proposalNames",
							"type": "bytes32[]"
						}
					],
					"stateMutability": "nonpayable",
					"type": "constructor"
				},
				{
					"inputs": [],
					"name": "chairman",
					"outputs": [
						{
							"internalType": "address",
							"name": "",
							"type": "address"
						}
					],
					"stateMutability": "view",
					"type": "function"
				},
				{
					"inputs": [
						{
							"internalType": "address",
							"name": "_to",
							"type": "address"
						}
					],
					"name": "entrust",
					"outputs": [],
					"stateMutability": "nonpayable",
					"type": "function"
				},
				{
					"inputs": [],
					"name": "getWinnerProposal",
					"outputs": [
						{
							"internalType": "bytes32",
							"name": "name",
							"type": "bytes32"
						},
						{
							"internalType": "uint256",
							"name": "num",
							"type": "uint256"
						}
					],
					"stateMutability": "view",
					"type": "function"
				},
				{
					"inputs": [
						{
							"internalType": "address",
							"name": "_to",
							"type": "address"
						}
					],
					"name": "giveAddressVote",
					"outputs": [],
					"stateMutability": "nonpayable",
					"type": "function"
				},
				{
					"inputs": [
						{
							"internalType": "uint256",
							"name": "",
							"type": "uint256"
						}
					],
					"name": "proposals",
					"outputs": [
						{
							"internalType": "bytes32",
							"name": "Name",
							"type": "bytes32"
						},
						{
							"internalType": "uint256",
							"name": "ticketNum",
							"type": "uint256"
						}
					],
					"stateMutability": "view",
					"type": "function"
				},
				{
					"inputs": [
						{
							"internalType": "address",
							"name": "",
							"type": "address"
						}
					],
					"name": "voters",
					"outputs": [
						{
							"internalType": "uint256",
							"name": "weight",
							"type": "uint256"
						},
						{
							"internalType": "address",
							"name": "trustee",
							"type": "address"
						},
						{
							"internalType": "bool",
							"name": "voted",
							"type": "bool"
						},
						{
							"internalType": "uint256",
							"name": "ballotIdex",
							"type": "uint256"
						}
					],
					"stateMutability": "view",
					"type": "function"
				},
				{
					"inputs": [
						{
							"internalType": "uint256",
							"name": "_proposalIdex",
							"type": "uint256"
						}
					],
					"name": "votiing",
					"outputs": [],
					"stateMutability": "nonpayable",
					"type": "function"
				}
			],
			"devdoc": {
				"kind": "dev",
				"methods": {},
				"version": 1
			},
			"evm": {
				"assembly": "    /* \"contracts/test1.sol\":66:2656  contract ElectiveSystem {... */\n  mstore(0x40, 0x80)\n    /* \"contracts/test1.sol\":454:726  constructor(bytes32[] memory _proposalNames){... */\n  callvalue\n  dup1\n  iszero\n  tag_1\n  jumpi\n  0x00\n  dup1\n  revert\ntag_1:\n  pop\n  mload(0x40)\n  sub(codesize, bytecodeSize)\n  dup1\n  bytecodeSize\n  dup4\n  codecopy\n  dup2\n  dup2\n  add\n  0x40\n  mstore\n  dup2\n  add\n  swap1\n  tag_2\n  swap2\n  swap1\n  tag_3\n  jump\t// in\ntag_2:\n    /* \"contracts/test1.sol\":519:529  msg.sender */\n  caller\n    /* \"contracts/test1.sol\":508:516  chairman */\n  0x00\n  dup1\n    /* \"contracts/test1.sol\":508:529  chairman = msg.sender */\n  0x0100\n  exp\n  dup2\n  sload\n  dup2\n  0xffffffffffffffffffffffffffffffffffffffff\n  mul\n  not\n  and\n  swap1\n  dup4\n  0xffffffffffffffffffffffffffffffffffffffff\n  and\n  mul\n  or\n  swap1\n  sstore\n  pop\n    /* \"contracts/test1.sol\":544:550  uint i */\n  0x00\n    /* \"contracts/test1.sol\":539:718  for (uint i; i< _proposalNames.length; i++){... */\ntag_6:\n    /* \"contracts/test1.sol\":555:569  _proposalNames */\n  dup2\n    /* \"contracts/test1.sol\":555:576  _proposalNames.length */\n  mload\n    /* \"contracts/test1.sol\":552:553  i */\n  dup2\n    /* \"contracts/test1.sol\":552:576  i< _proposalNames.length */\n  lt\n    /* \"contracts/test1.sol\":539:718  for (uint i; i< _proposalNames.length; i++){... */\n  iszero\n  tag_7\n  jumpi\n    /* \"contracts/test1.sol\":596:605  proposals */\n  0x01\n    /* \"contracts/test1.sol\":611:706  Proposal({... */\n  mload(0x40)\n  dup1\n  0x40\n  add\n  0x40\n  mstore\n  dup1\n    /* \"contracts/test1.sol\":644:658  _proposalNames */\n  dup5\n    /* \"contracts/test1.sol\":659:660  i */\n  dup5\n    /* \"contracts/test1.sol\":644:661  _proposalNames[i] */\n  dup2\n  mload\n  dup2\n  lt\n  tag_9\n  jumpi\n  tag_10\n  tag_11\n  jump\t// in\ntag_10:\ntag_9:\n  0x20\n  mul\n  0x20\n  add\n  add\n  mload\n    /* \"contracts/test1.sol\":611:706  Proposal({... */\n  dup2\n  mstore\n  0x20\n  add\n    /* \"contracts/test1.sol\":690:691  0 */\n  0x00\n    /* \"contracts/test1.sol\":611:706  Proposal({... */\n  dup2\n  mstore\n  pop\n    /* \"contracts/test1.sol\":596:707  proposals.push(Proposal({... */\n  swap1\n  dup1\n  0x01\n  dup2\n  sload\n  add\n  dup1\n  dup3\n  sstore\n  dup1\n  swap2\n  pop\n  pop\n  0x01\n  swap1\n  sub\n  swap1\n  0x00\n  mstore\n  keccak256(0x00, 0x20)\n  swap1\n  0x02\n  mul\n  add\n  0x00\n  swap1\n  swap2\n  swap1\n  swap2\n  swap1\n  swap2\n  pop\n  0x00\n  dup3\n  add\n  mload\n  dup2\n  0x00\n  add\n  sstore\n  0x20\n  dup3\n  add\n  mload\n  dup2\n  0x01\n  add\n  sstore\n  pop\n  pop\n    /* \"contracts/test1.sol\":578:581  i++ */\n  dup1\n  dup1\n  tag_13\n  swap1\n  tag_14\n  jump\t// in\ntag_13:\n  swap2\n  pop\n  pop\n    /* \"contracts/test1.sol\":539:718  for (uint i; i< _proposalNames.length; i++){... */\n  jump(tag_6)\ntag_7:\n  pop\n    /* \"contracts/test1.sol\":454:726  constructor(bytes32[] memory _proposalNames){... */\n  pop\n    /* \"contracts/test1.sol\":66:2656  contract ElectiveSystem {... */\n  jump(tag_15)\n    /* \"#utility.yul\":7:82   */\ntag_16:\n    /* \"#utility.yul\":40:46   */\n  0x00\n    /* \"#utility.yul\":73:75   */\n  0x40\n    /* \"#utility.yul\":67:76   */\n  mload\n    /* \"#utility.yul\":57:76   */\n  swap1\n  pop\n    /* \"#utility.yul\":7:82   */\n  swap1\n  jump\t// out\n    /* \"#utility.yul\":88:205   */\ntag_17:\n    /* \"#utility.yul\":197:198   */\n  0x00\n    /* \"#utility.yul\":194:195   */\n  dup1\n    /* \"#utility.yul\":187:199   */\n  revert\n    /* \"#utility.yul\":211:328   */\ntag_18:\n    /* \"#utility.yul\":320:321   */\n  0x00\n    /* \"#utility.yul\":317:318   */\n  dup1\n    /* \"#utility.yul\":310:322   */\n  revert\n    /* \"#utility.yul\":334:451   */\ntag_19:\n    /* \"#utility.yul\":443:444   */\n  0x00\n    /* \"#utility.yul\":440:441   */\n  dup1\n    /* \"#utility.yul\":433:445   */\n  revert\n    /* \"#utility.yul\":457:559   */\ntag_20:\n    /* \"#utility.yul\":498:504   */\n  0x00\n    /* \"#utility.yul\":549:551   */\n  0x1f\n    /* \"#utility.yul\":545:552   */\n  not\n    /* \"#utility.yul\":540:542   */\n  0x1f\n    /* \"#utility.yul\":533:538   */\n  dup4\n    /* \"#utility.yul\":529:543   */\n  add\n    /* \"#utility.yul\":525:553   */\n  and\n    /* \"#utility.yul\":515:553   */\n  swap1\n  pop\n    /* \"#utility.yul\":457:559   */\n  swap2\n  swap1\n  pop\n  jump\t// out\n    /* \"#utility.yul\":565:745   */\ntag_21:\n    /* \"#utility.yul\":613:690   */\n  0x4e487b7100000000000000000000000000000000000000000000000000000000\n    /* \"#utility.yul\":610:611   */\n  0x00\n    /* \"#utility.yul\":603:691   */\n  mstore\n    /* \"#utility.yul\":710:714   */\n  0x41\n    /* \"#utility.yul\":707:708   */\n  0x04\n    /* \"#utility.yul\":700:715   */\n  mstore\n    /* \"#utility.yul\":734:738   */\n  0x24\n    /* \"#utility.yul\":731:732   */\n  0x00\n    /* \"#utility.yul\":724:739   */\n  revert\n    /* \"#utility.yul\":751:1032   */\ntag_22:\n    /* \"#utility.yul\":834:861   */\n  tag_41\n    /* \"#utility.yul\":856:860   */\n  dup3\n    /* \"#utility.yul\":834:861   */\n  tag_20\n  jump\t// in\ntag_41:\n    /* \"#utility.yul\":826:832   */\n  dup2\n    /* \"#utility.yul\":822:862   */\n  add\n    /* \"#utility.yul\":964:970   */\n  dup2\n    /* \"#utility.yul\":952:962   */\n  dup2\n    /* \"#utility.yul\":949:971   */\n  lt\n    /* \"#utility.yul\":928:946   */\n  0xffffffffffffffff\n    /* \"#utility.yul\":916:926   */\n  dup3\n    /* \"#utility.yul\":913:947   */\n  gt\n    /* \"#utility.yul\":910:972   */\n  or\n    /* \"#utility.yul\":907:995   */\n  iszero\n  tag_42\n  jumpi\n    /* \"#utility.yul\":975:993   */\n  tag_43\n  tag_21\n  jump\t// in\ntag_43:\n    /* \"#utility.yul\":907:995   */\ntag_42:\n    /* \"#utility.yul\":1015:1025   */\n  dup1\n    /* \"#utility.yul\":1011:1013   */\n  0x40\n    /* \"#utility.yul\":1004:1026   */\n  mstore\n    /* \"#utility.yul\":794:1032   */\n  pop\n    /* \"#utility.yul\":751:1032   */\n  pop\n  pop\n  jump\t// out\n    /* \"#utility.yul\":1038:1167   */\ntag_23:\n    /* \"#utility.yul\":1072:1078   */\n  0x00\n    /* \"#utility.yul\":1099:1119   */\n  tag_45\n  tag_16\n  jump\t// in\ntag_45:\n    /* \"#utility.yul\":1089:1119   */\n  swap1\n  pop\n    /* \"#utility.yul\":1128:1161   */\n  tag_46\n    /* \"#utility.yul\":1156:1160   */\n  dup3\n    /* \"#utility.yul\":1148:1154   */\n  dup3\n    /* \"#utility.yul\":1128:1161   */\n  tag_22\n  jump\t// in\ntag_46:\n    /* \"#utility.yul\":1038:1167   */\n  swap2\n  swap1\n  pop\n  jump\t// out\n    /* \"#utility.yul\":1173:1484   */\ntag_24:\n    /* \"#utility.yul\":1250:1254   */\n  0x00\n    /* \"#utility.yul\":1340:1358   */\n  0xffffffffffffffff\n    /* \"#utility.yul\":1332:1338   */\n  dup3\n    /* \"#utility.yul\":1329:1359   */\n  gt\n    /* \"#utility.yul\":1326:1382   */\n  iszero\n  tag_48\n  jumpi\n    /* \"#utility.yul\":1362:1380   */\n  tag_49\n  tag_21\n  jump\t// in\ntag_49:\n    /* \"#utility.yul\":1326:1382   */\ntag_48:\n    /* \"#utility.yul\":1412:1416   */\n  0x20\n    /* \"#utility.yul\":1404:1410   */\n  dup3\n    /* \"#utility.yul\":1400:1417   */\n  mul\n    /* \"#utility.yul\":1392:1417   */\n  swap1\n  pop\n    /* \"#utility.yul\":1472:1476   */\n  0x20\n    /* \"#utility.yul\":1466:1470   */\n  dup2\n    /* \"#utility.yul\":1462:1477   */\n  add\n    /* \"#utility.yul\":1454:1477   */\n  swap1\n  pop\n    /* \"#utility.yul\":1173:1484   */\n  swap2\n  swap1\n  pop\n  jump\t// out\n    /* \"#utility.yul\":1490:1607   */\ntag_25:\n    /* \"#utility.yul\":1599:1600   */\n  0x00\n    /* \"#utility.yul\":1596:1597   */\n  dup1\n    /* \"#utility.yul\":1589:1601   */\n  revert\n    /* \"#utility.yul\":1613:1690   */\ntag_26:\n    /* \"#utility.yul\":1650:1657   */\n  0x00\n    /* \"#utility.yul\":1679:1684   */\n  dup2\n    /* \"#utility.yul\":1668:1684   */\n  swap1\n  pop\n    /* \"#utility.yul\":1613:1690   */\n  swap2\n  swap1\n  pop\n  jump\t// out\n    /* \"#utility.yul\":1696:1818   */\ntag_27:\n    /* \"#utility.yul\":1769:1793   */\n  tag_53\n    /* \"#utility.yul\":1787:1792   */\n  dup2\n    /* \"#utility.yul\":1769:1793   */\n  tag_26\n  jump\t// in\ntag_53:\n    /* \"#utility.yul\":1762:1767   */\n  dup2\n    /* \"#utility.yul\":1759:1794   */\n  eq\n    /* \"#utility.yul\":1749:1812   */\n  tag_54\n  jumpi\n    /* \"#utility.yul\":1808:1809   */\n  0x00\n    /* \"#utility.yul\":1805:1806   */\n  dup1\n    /* \"#utility.yul\":1798:1810   */\n  revert\n    /* \"#utility.yul\":1749:1812   */\ntag_54:\n    /* \"#utility.yul\":1696:1818   */\n  pop\n  jump\t// out\n    /* \"#utility.yul\":1824:1967   */\ntag_28:\n    /* \"#utility.yul\":1881:1886   */\n  0x00\n    /* \"#utility.yul\":1912:1918   */\n  dup2\n    /* \"#utility.yul\":1906:1919   */\n  mload\n    /* \"#utility.yul\":1897:1919   */\n  swap1\n  pop\n    /* \"#utility.yul\":1928:1961   */\n  tag_56\n    /* \"#utility.yul\":1955:1960   */\n  dup2\n    /* \"#utility.yul\":1928:1961   */\n  tag_27\n  jump\t// in\ntag_56:\n    /* \"#utility.yul\":1824:1967   */\n  swap3\n  swap2\n  pop\n  pop\n  jump\t// out\n    /* \"#utility.yul\":1990:2722   */\ntag_29:\n    /* \"#utility.yul\":2097:2102   */\n  0x00\n    /* \"#utility.yul\":2122:2203   */\n  tag_58\n    /* \"#utility.yul\":2138:2202   */\n  tag_59\n    /* \"#utility.yul\":2195:2201   */\n  dup5\n    /* \"#utility.yul\":2138:2202   */\n  tag_24\n  jump\t// in\ntag_59:\n    /* \"#utility.yul\":2122:2203   */\n  tag_23\n  jump\t// in\ntag_58:\n    /* \"#utility.yul\":2113:2203   */\n  swap1\n  pop\n    /* \"#utility.yul\":2223:2228   */\n  dup1\n    /* \"#utility.yul\":2252:2258   */\n  dup4\n    /* \"#utility.yul\":2245:2250   */\n  dup3\n    /* \"#utility.yul\":2238:2259   */\n  mstore\n    /* \"#utility.yul\":2286:2290   */\n  0x20\n    /* \"#utility.yul\":2279:2284   */\n  dup3\n    /* \"#utility.yul\":2275:2291   */\n  add\n    /* \"#utility.yul\":2268:2291   */\n  swap1\n  pop\n    /* \"#utility.yul\":2339:2343   */\n  0x20\n    /* \"#utility.yul\":2331:2337   */\n  dup5\n    /* \"#utility.yul\":2327:2344   */\n  mul\n    /* \"#utility.yul\":2319:2325   */\n  dup4\n    /* \"#utility.yul\":2315:2345   */\n  add\n    /* \"#utility.yul\":2368:2371   */\n  dup6\n    /* \"#utility.yul\":2360:2366   */\n  dup2\n    /* \"#utility.yul\":2357:2372   */\n  gt\n    /* \"#utility.yul\":2354:2476   */\n  iszero\n  tag_60\n  jumpi\n    /* \"#utility.yul\":2387:2466   */\n  tag_61\n  tag_25\n  jump\t// in\ntag_61:\n    /* \"#utility.yul\":2354:2476   */\ntag_60:\n    /* \"#utility.yul\":2502:2508   */\n  dup4\n    /* \"#utility.yul\":2485:2716   */\ntag_62:\n    /* \"#utility.yul\":2519:2525   */\n  dup2\n    /* \"#utility.yul\":2514:2517   */\n  dup2\n    /* \"#utility.yul\":2511:2526   */\n  lt\n    /* \"#utility.yul\":2485:2716   */\n  iszero\n  tag_64\n  jumpi\n    /* \"#utility.yul\":2594:2597   */\n  dup1\n    /* \"#utility.yul\":2623:2671   */\n  tag_65\n    /* \"#utility.yul\":2667:2670   */\n  dup9\n    /* \"#utility.yul\":2655:2665   */\n  dup3\n    /* \"#utility.yul\":2623:2671   */\n  tag_28\n  jump\t// in\ntag_65:\n    /* \"#utility.yul\":2618:2621   */\n  dup5\n    /* \"#utility.yul\":2611:2672   */\n  mstore\n    /* \"#utility.yul\":2701:2705   */\n  0x20\n    /* \"#utility.yul\":2696:2699   */\n  dup5\n    /* \"#utility.yul\":2692:2706   */\n  add\n    /* \"#utility.yul\":2685:2706   */\n  swap4\n  pop\n    /* \"#utility.yul\":2561:2716   */\n  pop\n    /* \"#utility.yul\":2545:2549   */\n  0x20\n    /* \"#utility.yul\":2540:2543   */\n  dup2\n    /* \"#utility.yul\":2536:2550   */\n  add\n    /* \"#utility.yul\":2529:2550   */\n  swap1\n  pop\n    /* \"#utility.yul\":2485:2716   */\n  jump(tag_62)\ntag_64:\n    /* \"#utility.yul\":2489:2510   */\n  pop\n    /* \"#utility.yul\":2103:2722   */\n  pop\n  pop\n    /* \"#utility.yul\":1990:2722   */\n  swap4\n  swap3\n  pop\n  pop\n  pop\n  jump\t// out\n    /* \"#utility.yul\":2745:3130   */\ntag_30:\n    /* \"#utility.yul\":2827:2832   */\n  0x00\n    /* \"#utility.yul\":2876:2879   */\n  dup3\n    /* \"#utility.yul\":2869:2873   */\n  0x1f\n    /* \"#utility.yul\":2861:2867   */\n  dup4\n    /* \"#utility.yul\":2857:2874   */\n  add\n    /* \"#utility.yul\":2853:2880   */\n  slt\n    /* \"#utility.yul\":2843:2965   */\n  tag_67\n  jumpi\n    /* \"#utility.yul\":2884:2963   */\n  tag_68\n  tag_19\n  jump\t// in\ntag_68:\n    /* \"#utility.yul\":2843:2965   */\ntag_67:\n    /* \"#utility.yul\":2994:3000   */\n  dup2\n    /* \"#utility.yul\":2988:3001   */\n  mload\n    /* \"#utility.yul\":3019:3124   */\n  tag_69\n    /* \"#utility.yul\":3120:3123   */\n  dup5\n    /* \"#utility.yul\":3112:3118   */\n  dup3\n    /* \"#utility.yul\":3105:3109   */\n  0x20\n    /* \"#utility.yul\":3097:3103   */\n  dup7\n    /* \"#utility.yul\":3093:3110   */\n  add\n    /* \"#utility.yul\":3019:3124   */\n  tag_29\n  jump\t// in\ntag_69:\n    /* \"#utility.yul\":3010:3124   */\n  swap2\n  pop\n    /* \"#utility.yul\":2833:3130   */\n  pop\n    /* \"#utility.yul\":2745:3130   */\n  swap3\n  swap2\n  pop\n  pop\n  jump\t// out\n    /* \"#utility.yul\":3136:3690   */\ntag_3:\n    /* \"#utility.yul\":3231:3237   */\n  0x00\n    /* \"#utility.yul\":3280:3282   */\n  0x20\n    /* \"#utility.yul\":3268:3277   */\n  dup3\n    /* \"#utility.yul\":3259:3266   */\n  dup5\n    /* \"#utility.yul\":3255:3278   */\n  sub\n    /* \"#utility.yul\":3251:3283   */\n  slt\n    /* \"#utility.yul\":3248:3367   */\n  iszero\n  tag_71\n  jumpi\n    /* \"#utility.yul\":3286:3365   */\n  tag_72\n  tag_17\n  jump\t// in\ntag_72:\n    /* \"#utility.yul\":3248:3367   */\ntag_71:\n    /* \"#utility.yul\":3427:3428   */\n  0x00\n    /* \"#utility.yul\":3416:3425   */\n  dup3\n    /* \"#utility.yul\":3412:3429   */\n  add\n    /* \"#utility.yul\":3406:3430   */\n  mload\n    /* \"#utility.yul\":3457:3475   */\n  0xffffffffffffffff\n    /* \"#utility.yul\":3449:3455   */\n  dup2\n    /* \"#utility.yul\":3446:3476   */\n  gt\n    /* \"#utility.yul\":3443:3560   */\n  iszero\n  tag_73\n  jumpi\n    /* \"#utility.yul\":3479:3558   */\n  tag_74\n  tag_18\n  jump\t// in\ntag_74:\n    /* \"#utility.yul\":3443:3560   */\ntag_73:\n    /* \"#utility.yul\":3584:3673   */\n  tag_75\n    /* \"#utility.yul\":3665:3672   */\n  dup5\n    /* \"#utility.yul\":3656:3662   */\n  dup3\n    /* \"#utility.yul\":3645:3654   */\n  dup6\n    /* \"#utility.yul\":3641:3663   */\n  add\n    /* \"#utility.yul\":3584:3673   */\n  tag_30\n  jump\t// in\ntag_75:\n    /* \"#utility.yul\":3574:3673   */\n  swap2\n  pop\n    /* \"#utility.yul\":3377:3683   */\n  pop\n    /* \"#utility.yul\":3136:3690   */\n  swap3\n  swap2\n  pop\n  pop\n  jump\t// out\n    /* \"#utility.yul\":3696:3876   */\ntag_11:\n    /* \"#utility.yul\":3744:3821   */\n  0x4e487b7100000000000000000000000000000000000000000000000000000000\n    /* \"#utility.yul\":3741:3742   */\n  0x00\n    /* \"#utility.yul\":3734:3822   */\n  mstore\n    /* \"#utility.yul\":3841:3845   */\n  0x32\n    /* \"#utility.yul\":3838:3839   */\n  0x04\n    /* \"#utility.yul\":3831:3846   */\n  mstore\n    /* \"#utility.yul\":3865:3869   */\n  0x24\n    /* \"#utility.yul\":3862:3863   */\n  0x00\n    /* \"#utility.yul\":3855:3870   */\n  revert\n    /* \"#utility.yul\":3882:4062   */\ntag_31:\n    /* \"#utility.yul\":3930:4007   */\n  0x4e487b7100000000000000000000000000000000000000000000000000000000\n    /* \"#utility.yul\":3927:3928   */\n  0x00\n    /* \"#utility.yul\":3920:4008   */\n  mstore\n    /* \"#utility.yul\":4027:4031   */\n  0x11\n    /* \"#utility.yul\":4024:4025   */\n  0x04\n    /* \"#utility.yul\":4017:4032   */\n  mstore\n    /* \"#utility.yul\":4051:4055   */\n  0x24\n    /* \"#utility.yul\":4048:4049   */\n  0x00\n    /* \"#utility.yul\":4041:4056   */\n  revert\n    /* \"#utility.yul\":4068:4145   */\ntag_32:\n    /* \"#utility.yul\":4105:4112   */\n  0x00\n    /* \"#utility.yul\":4134:4139   */\n  dup2\n    /* \"#utility.yul\":4123:4139   */\n  swap1\n  pop\n    /* \"#utility.yul\":4068:4145   */\n  swap2\n  swap1\n  pop\n  jump\t// out\n    /* \"#utility.yul\":4151:4384   */\ntag_14:\n    /* \"#utility.yul\":4190:4193   */\n  0x00\n    /* \"#utility.yul\":4213:4237   */\n  tag_80\n    /* \"#utility.yul\":4231:4236   */\n  dup3\n    /* \"#utility.yul\":4213:4237   */\n  tag_32\n  jump\t// in\ntag_80:\n    /* \"#utility.yul\":4204:4237   */\n  swap2\n  pop\n    /* \"#utility.yul\":4259:4325   */\n  0xffffffffffffffffffffffffffffffffffffffffffffffffffffffffffffffff\n    /* \"#utility.yul\":4252:4257   */\n  dup3\n    /* \"#utility.yul\":4249:4326   */\n  sub\n    /* \"#utility.yul\":4246:4349   */\n  tag_81\n  jumpi\n    /* \"#utility.yul\":4329:4347   */\n  tag_82\n  tag_31\n  jump\t// in\ntag_82:\n    /* \"#utility.yul\":4246:4349   */\ntag_81:\n    /* \"#utility.yul\":4376:4377   */\n  0x01\n    /* \"#utility.yul\":4369:4374   */\n  dup3\n    /* \"#utility.yul\":4365:4378   */\n  add\n    /* \"#utility.yul\":4358:4378   */\n  swap1\n  pop\n    /* \"#utility.yul\":4151:4384   */\n  swap2\n  swap1\n  pop\n  jump\t// out\n    /* \"contracts/test1.sol\":66:2656  contract ElectiveSystem {... */\ntag_15:\n  dataSize(sub_0)\n  dup1\n  dataOffset(sub_0)\n  0x00\n  codecopy\n  0x00\n  return\nstop\n\nsub_0: assembly {\n        /* \"contracts/test1.sol\":66:2656  contract ElectiveSystem {... */\n      mstore(0x40, 0x80)\n      callvalue\n      dup1\n      iszero\n      tag_1\n      jumpi\n      0x00\n      dup1\n      revert\n    tag_1:\n      pop\n      jumpi(tag_2, lt(calldatasize, 0x04))\n      shr(0xe0, calldataload(0x00))\n      dup1\n      0x87f7b975\n      gt\n      tag_10\n      jumpi\n      dup1\n      0x87f7b975\n      eq\n      tag_6\n      jumpi\n      dup1\n      0xa3c1885b\n      eq\n      tag_7\n      jumpi\n      dup1\n      0xa3ec138d\n      eq\n      tag_8\n      jumpi\n      dup1\n      0xab9cd997\n      eq\n      tag_9\n      jumpi\n      jump(tag_2)\n    tag_10:\n      dup1\n      0x013cf08b\n      eq\n      tag_3\n      jumpi\n      dup1\n      0x24845194\n      eq\n      tag_4\n      jumpi\n      dup1\n      0x4e4c9676\n      eq\n      tag_5\n      jumpi\n    tag_2:\n      0x00\n      dup1\n      revert\n        /* \"contracts/test1.sol\":377:404  Proposal[] public proposals */\n    tag_3:\n      tag_11\n      0x04\n      dup1\n      calldatasize\n      sub\n      dup2\n      add\n      swap1\n      tag_12\n      swap2\n      swap1\n      tag_13\n      jump\t// in\n    tag_12:\n      tag_14\n      jump\t// in\n    tag_11:\n      mload(0x40)\n      tag_15\n      swap3\n      swap2\n      swap1\n      tag_16\n      jump\t// in\n    tag_15:\n      mload(0x40)\n      dup1\n      swap2\n      sub\n      swap1\n      return\n        /* \"contracts/test1.sol\":732:998  function giveAddressVote(address _to) public {... */\n    tag_4:\n      tag_17\n      0x04\n      dup1\n      calldatasize\n      sub\n      dup2\n      add\n      swap1\n      tag_18\n      swap2\n      swap1\n      tag_19\n      jump\t// in\n    tag_18:\n      tag_20\n      jump\t// in\n    tag_17:\n      stop\n        /* \"contracts/test1.sol\":2050:2384  function votiing(uint _proposalIdex) public {... */\n    tag_5:\n      tag_21\n      0x04\n      dup1\n      calldatasize\n      sub\n      dup2\n      add\n      swap1\n      tag_22\n      swap2\n      swap1\n      tag_13\n      jump\t// in\n    tag_22:\n      tag_23\n      jump\t// in\n    tag_21:\n      stop\n        /* \"contracts/test1.sol\":96:119  address public chairman */\n    tag_6:\n      tag_24\n      tag_25\n      jump\t// in\n    tag_24:\n      mload(0x40)\n      tag_26\n      swap2\n      swap1\n      tag_27\n      jump\t// in\n    tag_26:\n      mload(0x40)\n      dup1\n      swap2\n      sub\n      swap1\n      return\n        /* \"contracts/test1.sol\":2390:2649  function getWinnerProposal() public view returns(bytes32 name, uint num){... */\n    tag_7:\n      tag_28\n      tag_29\n      jump\t// in\n    tag_28:\n      mload(0x40)\n      tag_30\n      swap3\n      swap2\n      swap1\n      tag_16\n      jump\t// in\n    tag_30:\n      mload(0x40)\n      dup1\n      swap2\n      sub\n      swap1\n      return\n        /* \"contracts/test1.sol\":410:447  mapping(address=>Voter) public voters */\n    tag_8:\n      tag_31\n      0x04\n      dup1\n      calldatasize\n      sub\n      dup2\n      add\n      swap1\n      tag_32\n      swap2\n      swap1\n      tag_19\n      jump\t// in\n    tag_32:\n      tag_33\n      jump\t// in\n    tag_31:\n      mload(0x40)\n      tag_34\n      swap5\n      swap4\n      swap3\n      swap2\n      swap1\n      tag_35\n      jump\t// in\n    tag_34:\n      mload(0x40)\n      dup1\n      swap2\n      sub\n      swap1\n      return\n        /* \"contracts/test1.sol\":1005:2044  function entrust(address _to) public {... */\n    tag_9:\n      tag_36\n      0x04\n      dup1\n      calldatasize\n      sub\n      dup2\n      add\n      swap1\n      tag_37\n      swap2\n      swap1\n      tag_19\n      jump\t// in\n    tag_37:\n      tag_38\n      jump\t// in\n    tag_36:\n      stop\n        /* \"contracts/test1.sol\":377:404  Proposal[] public proposals */\n    tag_14:\n      0x01\n      dup2\n      dup2\n      sload\n      dup2\n      lt\n      tag_39\n      jumpi\n      0x00\n      dup1\n      revert\n    tag_39:\n      swap1\n      0x00\n      mstore\n      keccak256(0x00, 0x20)\n      swap1\n      0x02\n      mul\n      add\n      0x00\n      swap2\n      pop\n      swap1\n      pop\n      dup1\n      0x00\n      add\n      sload\n      swap1\n      dup1\n      0x01\n      add\n      sload\n      swap1\n      pop\n      dup3\n      jump\t// out\n        /* \"contracts/test1.sol\":732:998  function giveAddressVote(address _to) public {... */\n    tag_20:\n        /* \"contracts/test1.sol\":809:817  chairman */\n      0x00\n      dup1\n      sload\n      swap1\n      0x0100\n      exp\n      swap1\n      div\n      0xffffffffffffffffffffffffffffffffffffffff\n      and\n        /* \"contracts/test1.sol\":795:817  msg.sender == chairman */\n      0xffffffffffffffffffffffffffffffffffffffff\n      and\n        /* \"contracts/test1.sol\":795:805  msg.sender */\n      caller\n        /* \"contracts/test1.sol\":795:817  msg.sender == chairman */\n      0xffffffffffffffffffffffffffffffffffffffff\n      and\n      eq\n        /* \"contracts/test1.sol\":787:855  require(msg.sender == chairman, \"The caller is not the chairperson\") */\n      tag_42\n      jumpi\n      mload(0x40)\n      0x08c379a000000000000000000000000000000000000000000000000000000000\n      dup2\n      mstore\n      0x04\n      add\n      tag_43\n      swap1\n      tag_44\n      jump\t// in\n    tag_43:\n      mload(0x40)\n      dup1\n      swap2\n      sub\n      swap1\n      revert\n    tag_42:\n        /* \"contracts/test1.sol\":874:880  voters */\n      0x02\n        /* \"contracts/test1.sol\":874:885  voters[_to] */\n      0x00\n        /* \"contracts/test1.sol\":881:884  _to */\n      dup3\n        /* \"contracts/test1.sol\":874:885  voters[_to] */\n      0xffffffffffffffffffffffffffffffffffffffff\n      and\n      0xffffffffffffffffffffffffffffffffffffffff\n      and\n      dup2\n      mstore\n      0x20\n      add\n      swap1\n      dup2\n      mstore\n      0x20\n      add\n      0x00\n      keccak256\n        /* \"contracts/test1.sol\":874:891  voters[_to].voted */\n      0x01\n      add\n      0x14\n      swap1\n      sload\n      swap1\n      0x0100\n      exp\n      swap1\n      div\n      0xff\n      and\n        /* \"contracts/test1.sol\":873:891  !voters[_to].voted */\n      iszero\n        /* \"contracts/test1.sol\":865:903  require(!voters[_to].voted, \"to vote\") */\n      tag_45\n      jumpi\n      mload(0x40)\n      0x08c379a000000000000000000000000000000000000000000000000000000000\n      dup2\n      mstore\n      0x04\n      add\n      tag_46\n      swap1\n      tag_47\n      jump\t// in\n    tag_46:\n      mload(0x40)\n      dup1\n      swap2\n      sub\n      swap1\n      revert\n    tag_45:\n        /* \"contracts/test1.sol\":943:944  0 */\n      0x00\n        /* \"contracts/test1.sol\":921:927  voters */\n      0x02\n        /* \"contracts/test1.sol\":921:932  voters[_to] */\n      0x00\n        /* \"contracts/test1.sol\":928:931  _to */\n      dup4\n        /* \"contracts/test1.sol\":921:932  voters[_to] */\n      0xffffffffffffffffffffffffffffffffffffffff\n      and\n      0xffffffffffffffffffffffffffffffffffffffff\n      and\n      dup2\n      mstore\n      0x20\n      add\n      swap1\n      dup2\n      mstore\n      0x20\n      add\n      0x00\n      keccak256\n        /* \"contracts/test1.sol\":921:939  voters[_to].weight */\n      0x00\n      add\n      sload\n        /* \"contracts/test1.sol\":921:944  voters[_to].weight == 0 */\n      eq\n        /* \"contracts/test1.sol\":913:959  require(voters[_to].weight == 0, \"authorized\") */\n      tag_48\n      jumpi\n      mload(0x40)\n      0x08c379a000000000000000000000000000000000000000000000000000000000\n      dup2\n      mstore\n      0x04\n      add\n      tag_49\n      swap1\n      tag_50\n      jump\t// in\n    tag_49:\n      mload(0x40)\n      dup1\n      swap2\n      sub\n      swap1\n      revert\n    tag_48:\n        /* \"contracts/test1.sol\":990:991  1 */\n      0x01\n        /* \"contracts/test1.sol\":969:975  voters */\n      0x02\n        /* \"contracts/test1.sol\":969:980  voters[_to] */\n      0x00\n        /* \"contracts/test1.sol\":976:979  _to */\n      dup4\n        /* \"contracts/test1.sol\":969:980  voters[_to] */\n      0xffffffffffffffffffffffffffffffffffffffff\n      and\n      0xffffffffffffffffffffffffffffffffffffffff\n      and\n      dup2\n      mstore\n      0x20\n      add\n      swap1\n      dup2\n      mstore\n      0x20\n      add\n      0x00\n      keccak256\n        /* \"contracts/test1.sol\":969:987  voters[_to].weight */\n      0x00\n      add\n        /* \"contracts/test1.sol\":969:991  voters[_to].weight = 1 */\n      dup2\n      swap1\n      sstore\n      pop\n        /* \"contracts/test1.sol\":732:998  function giveAddressVote(address _to) public {... */\n      pop\n      jump\t// out\n        /* \"contracts/test1.sol\":2050:2384  function votiing(uint _proposalIdex) public {... */\n    tag_23:\n        /* \"contracts/test1.sol\":2140:2146  voters */\n      0x02\n        /* \"contracts/test1.sol\":2140:2158  voters[msg.sender] */\n      0x00\n        /* \"contracts/test1.sol\":2147:2157  msg.sender */\n      caller\n        /* \"contracts/test1.sol\":2140:2158  voters[msg.sender] */\n      0xffffffffffffffffffffffffffffffffffffffff\n      and\n      0xffffffffffffffffffffffffffffffffffffffff\n      and\n      dup2\n      mstore\n      0x20\n      add\n      swap1\n      dup2\n      mstore\n      0x20\n      add\n      0x00\n      keccak256\n        /* \"contracts/test1.sol\":2140:2164  voters[msg.sender].voted */\n      0x01\n      add\n      0x14\n      swap1\n      sload\n      swap1\n      0x0100\n      exp\n      swap1\n      div\n      0xff\n      and\n        /* \"contracts/test1.sol\":2139:2164  !voters[msg.sender].voted */\n      iszero\n        /* \"contracts/test1.sol\":2131:2185  require(!voters[msg.sender].voted, \"caller has voted\") */\n      tag_52\n      jumpi\n      mload(0x40)\n      0x08c379a000000000000000000000000000000000000000000000000000000000\n      dup2\n      mstore\n      0x04\n      add\n      tag_53\n      swap1\n      tag_54\n      jump\t// in\n    tag_53:\n      mload(0x40)\n      dup1\n      swap2\n      sub\n      swap1\n      revert\n    tag_52:\n        /* \"contracts/test1.sol\":2260:2261  0 */\n      0x00\n        /* \"contracts/test1.sol\":2231:2237  voters */\n      0x02\n        /* \"contracts/test1.sol\":2231:2249  voters[msg.sender] */\n      0x00\n        /* \"contracts/test1.sol\":2238:2248  msg.sender */\n      caller\n        /* \"contracts/test1.sol\":2231:2249  voters[msg.sender] */\n      0xffffffffffffffffffffffffffffffffffffffff\n      and\n      0xffffffffffffffffffffffffffffffffffffffff\n      and\n      dup2\n      mstore\n      0x20\n      add\n      swap1\n      dup2\n      mstore\n      0x20\n      add\n      0x00\n      keccak256\n        /* \"contracts/test1.sol\":2231:2256  voters[msg.sender].weight */\n      0x00\n      add\n      sload\n        /* \"contracts/test1.sol\":2231:2261  voters[msg.sender].weight != 0 */\n      sub\n        /* \"contracts/test1.sol\":2223:2304  require(voters[msg.sender].weight != 0, \"The caller does not have voting rights\") */\n      tag_55\n      jumpi\n      mload(0x40)\n      0x08c379a000000000000000000000000000000000000000000000000000000000\n      dup2\n      mstore\n      0x04\n      add\n      tag_56\n      swap1\n      tag_57\n      jump\t// in\n    tag_56:\n      mload(0x40)\n      dup1\n      swap2\n      sub\n      swap1\n      revert\n    tag_55:\n        /* \"contracts/test1.sol\":2352:2358  voters */\n      0x02\n        /* \"contracts/test1.sol\":2352:2370  voters[msg.sender] */\n      0x00\n        /* \"contracts/test1.sol\":2359:2369  msg.sender */\n      caller\n        /* \"contracts/test1.sol\":2352:2370  voters[msg.sender] */\n      0xffffffffffffffffffffffffffffffffffffffff\n      and\n      0xffffffffffffffffffffffffffffffffffffffff\n      and\n      dup2\n      mstore\n      0x20\n      add\n      swap1\n      dup2\n      mstore\n      0x20\n      add\n      0x00\n      keccak256\n        /* \"contracts/test1.sol\":2352:2377  voters[msg.sender].weight */\n      0x00\n      add\n      sload\n        /* \"contracts/test1.sol\":2314:2323  proposals */\n      0x01\n        /* \"contracts/test1.sol\":2324:2337  _proposalIdex */\n      dup3\n        /* \"contracts/test1.sol\":2314:2338  proposals[_proposalIdex] */\n      dup2\n      sload\n      dup2\n      lt\n      tag_58\n      jumpi\n      tag_59\n      tag_60\n      jump\t// in\n    tag_59:\n    tag_58:\n      swap1\n      0x00\n      mstore\n      keccak256(0x00, 0x20)\n      swap1\n      0x02\n      mul\n      add\n        /* \"contracts/test1.sol\":2314:2348  proposals[_proposalIdex].ticketNum */\n      0x01\n      add\n      0x00\n        /* \"contracts/test1.sol\":2314:2377  proposals[_proposalIdex].ticketNum += voters[msg.sender].weight */\n      dup3\n      dup3\n      sload\n      tag_62\n      swap2\n      swap1\n      tag_63\n      jump\t// in\n    tag_62:\n      swap3\n      pop\n      pop\n      dup2\n      swap1\n      sstore\n      pop\n        /* \"contracts/test1.sol\":2050:2384  function votiing(uint _proposalIdex) public {... */\n      pop\n      jump\t// out\n        /* \"contracts/test1.sol\":96:119  address public chairman */\n    tag_25:\n      0x00\n      dup1\n      sload\n      swap1\n      0x0100\n      exp\n      swap1\n      div\n      0xffffffffffffffffffffffffffffffffffffffff\n      and\n      dup2\n      jump\t// out\n        /* \"contracts/test1.sol\":2390:2649  function getWinnerProposal() public view returns(bytes32 name, uint num){... */\n    tag_29:\n        /* \"contracts/test1.sol\":2439:2451  bytes32 name */\n      0x00\n        /* \"contracts/test1.sol\":2453:2461  uint num */\n      dup1\n        /* \"contracts/test1.sol\":2487:2488  0 */\n      0x00\n        /* \"contracts/test1.sol\":2479:2489  bytes32(0) */\n      dup1\n      shl\n        /* \"contracts/test1.sol\":2472:2489  name = bytes32(0) */\n      swap2\n      pop\n        /* \"contracts/test1.sol\":2505:2506  0 */\n      0x00\n        /* \"contracts/test1.sol\":2499:2506  num = 0 */\n      swap1\n      pop\n        /* \"contracts/test1.sol\":2521:2527  uint i */\n      0x00\n        /* \"contracts/test1.sol\":2516:2643  for (uint i; i < proposals.length; i++){... */\n    tag_65:\n        /* \"contracts/test1.sol\":2533:2542  proposals */\n      0x01\n        /* \"contracts/test1.sol\":2533:2549  proposals.length */\n      dup1\n      sload\n      swap1\n      pop\n        /* \"contracts/test1.sol\":2529:2530  i */\n      dup2\n        /* \"contracts/test1.sol\":2529:2549  i < proposals.length */\n      lt\n        /* \"contracts/test1.sol\":2516:2643  for (uint i; i < proposals.length; i++){... */\n      iszero\n      tag_66\n      jumpi\n        /* \"contracts/test1.sol\":2597:2600  num */\n      dup2\n        /* \"contracts/test1.sol\":2572:2581  proposals */\n      0x01\n        /* \"contracts/test1.sol\":2582:2583  i */\n      dup3\n        /* \"contracts/test1.sol\":2572:2584  proposals[i] */\n      dup2\n      sload\n      dup2\n      lt\n      tag_68\n      jumpi\n      tag_69\n      tag_60\n      jump\t// in\n    tag_69:\n    tag_68:\n      swap1\n      0x00\n      mstore\n      keccak256(0x00, 0x20)\n      swap1\n      pop\n      pop\n        /* \"contracts/test1.sol\":2572:2600  proposals[i].ticketNum > num */\n      pop\n        /* \"contracts/test1.sol\":2551:2554  i++ */\n      dup1\n      dup1\n      tag_72\n      swap1\n      tag_73\n      jump\t// in\n    tag_72:\n      swap2\n      pop\n      pop\n        /* \"contracts/test1.sol\":2516:2643  for (uint i; i < proposals.length; i++){... */\n      jump(tag_65)\n    tag_66:\n      pop\n        /* \"contracts/test1.sol\":2390:2649  function getWinnerProposal() public view returns(bytes32 name, uint num){... */\n      swap1\n      swap2\n      jump\t// out\n        /* \"contracts/test1.sol\":410:447  mapping(address=>Voter) public voters */\n    tag_33:\n      mstore(0x20, 0x02)\n      dup1\n      0x00\n      mstore\n      keccak256(0x00, 0x40)\n      0x00\n      swap2\n      pop\n      swap1\n      pop\n      dup1\n      0x00\n      add\n      sload\n      swap1\n      dup1\n      0x01\n      add\n      0x00\n      swap1\n      sload\n      swap1\n      0x0100\n      exp\n      swap1\n      div\n      0xffffffffffffffffffffffffffffffffffffffff\n      and\n      swap1\n      dup1\n      0x01\n      add\n      0x14\n      swap1\n      sload\n      swap1\n      0x0100\n      exp\n      swap1\n      div\n      0xff\n      and\n      swap1\n      dup1\n      0x02\n      add\n      sload\n      swap1\n      pop\n      dup5\n      jump\t// out\n        /* \"contracts/test1.sol\":1005:2044  function entrust(address _to) public {... */\n    tag_38:\n        /* \"contracts/test1.sol\":1117:1120  _to */\n      dup1\n        /* \"contracts/test1.sol\":1103:1120  msg.sender != _to */\n      0xffffffffffffffffffffffffffffffffffffffff\n      and\n        /* \"contracts/test1.sol\":1103:1113  msg.sender */\n      caller\n        /* \"contracts/test1.sol\":1103:1120  msg.sender != _to */\n      0xffffffffffffffffffffffffffffffffffffffff\n      and\n      sub\n        /* \"contracts/test1.sol\":1095:1156  require(msg.sender != _to, \"The entrusted person is himself\") */\n      tag_75\n      jumpi\n      mload(0x40)\n      0x08c379a000000000000000000000000000000000000000000000000000000000\n      dup2\n      mstore\n      0x04\n      add\n      tag_76\n      swap1\n      tag_77\n      jump\t// in\n    tag_76:\n      mload(0x40)\n      dup1\n      swap2\n      sub\n      swap1\n      revert\n    tag_75:\n        /* \"contracts/test1.sol\":1275:1407  while (voters[_to].trustee != address(0)){... */\n    tag_78:\n        /* \"contracts/test1.sol\":1313:1314  0 */\n      0x00\n        /* \"contracts/test1.sol\":1282:1315  voters[_to].trustee != address(0) */\n      0xffffffffffffffffffffffffffffffffffffffff\n      and\n        /* \"contracts/test1.sol\":1282:1288  voters */\n      0x02\n        /* \"contracts/test1.sol\":1282:1293  voters[_to] */\n      0x00\n        /* \"contracts/test1.sol\":1289:1292  _to */\n      dup4\n        /* \"contracts/test1.sol\":1282:1293  voters[_to] */\n      0xffffffffffffffffffffffffffffffffffffffff\n      and\n      0xffffffffffffffffffffffffffffffffffffffff\n      and\n      dup2\n      mstore\n      0x20\n      add\n      swap1\n      dup2\n      mstore\n      0x20\n      add\n      0x00\n      keccak256\n        /* \"contracts/test1.sol\":1282:1301  voters[_to].trustee */\n      0x01\n      add\n      0x00\n      swap1\n      sload\n      swap1\n      0x0100\n      exp\n      swap1\n      div\n      0xffffffffffffffffffffffffffffffffffffffff\n      and\n        /* \"contracts/test1.sol\":1282:1315  voters[_to].trustee != address(0) */\n      0xffffffffffffffffffffffffffffffffffffffff\n      and\n      eq\n        /* \"contracts/test1.sol\":1275:1407  while (voters[_to].trustee != address(0)){... */\n      tag_79\n      jumpi\n        /* \"contracts/test1.sol\":1361:1371  msg.sender */\n      caller\n        /* \"contracts/test1.sol\":1338:1371  voters[_to].trustee != msg.sender */\n      0xffffffffffffffffffffffffffffffffffffffff\n      and\n        /* \"contracts/test1.sol\":1338:1344  voters */\n      0x02\n        /* \"contracts/test1.sol\":1338:1349  voters[_to] */\n      0x00\n        /* \"contracts/test1.sol\":1345:1348  _to */\n      dup4\n        /* \"contracts/test1.sol\":1338:1349  voters[_to] */\n      0xffffffffffffffffffffffffffffffffffffffff\n      and\n      0xffffffffffffffffffffffffffffffffffffffff\n      and\n      dup2\n      mstore\n      0x20\n      add\n      swap1\n      dup2\n      mstore\n      0x20\n      add\n      0x00\n      keccak256\n        /* \"contracts/test1.sol\":1338:1357  voters[_to].trustee */\n      0x01\n      add\n      0x00\n      swap1\n      sload\n      swap1\n      0x0100\n      exp\n      swap1\n      div\n      0xffffffffffffffffffffffffffffffffffffffff\n      and\n        /* \"contracts/test1.sol\":1338:1371  voters[_to].trustee != msg.sender */\n      0xffffffffffffffffffffffffffffffffffffffff\n      and\n      sub\n        /* \"contracts/test1.sol\":1330:1396  require(voters[_to].trustee != msg.sender,\"Delegated closed loop\") */\n      tag_80\n      jumpi\n      mload(0x40)\n      0x08c379a000000000000000000000000000000000000000000000000000000000\n      dup2\n      mstore\n      0x04\n      add\n      tag_81\n      swap1\n      tag_82\n      jump\t// in\n    tag_81:\n      mload(0x40)\n      dup1\n      swap2\n      sub\n      swap1\n      revert\n    tag_80:\n        /* \"contracts/test1.sol\":1275:1407  while (voters[_to].trustee != address(0)){... */\n      jump(tag_78)\n    tag_79:\n        /* \"contracts/test1.sol\":1462:1468  voters */\n      0x02\n        /* \"contracts/test1.sol\":1462:1480  voters[msg.sender] */\n      0x00\n        /* \"contracts/test1.sol\":1469:1479  msg.sender */\n      caller\n        /* \"contracts/test1.sol\":1462:1480  voters[msg.sender] */\n      0xffffffffffffffffffffffffffffffffffffffff\n      and\n      0xffffffffffffffffffffffffffffffffffffffff\n      and\n      dup2\n      mstore\n      0x20\n      add\n      swap1\n      dup2\n      mstore\n      0x20\n      add\n      0x00\n      keccak256\n        /* \"contracts/test1.sol\":1462:1486  voters[msg.sender].voted */\n      0x01\n      add\n      0x14\n      swap1\n      sload\n      swap1\n      0x0100\n      exp\n      swap1\n      div\n      0xff\n      and\n        /* \"contracts/test1.sol\":1461:1486  !voters[msg.sender].voted */\n      iszero\n        /* \"contracts/test1.sol\":1453:1507  require(!voters[msg.sender].voted, \"caller has voted\") */\n      tag_83\n      jumpi\n      mload(0x40)\n      0x08c379a000000000000000000000000000000000000000000000000000000000\n      dup2\n      mstore\n      0x04\n      add\n      tag_84\n      swap1\n      tag_54\n      jump\t// in\n    tag_84:\n      mload(0x40)\n      dup1\n      swap2\n      sub\n      swap1\n      revert\n    tag_83:\n        /* \"contracts/test1.sol\":1592:1593  0 */\n      0x00\n        /* \"contracts/test1.sol\":1563:1569  voters */\n      0x02\n        /* \"contracts/test1.sol\":1563:1581  voters[msg.sender] */\n      0x00\n        /* \"contracts/test1.sol\":1570:1580  msg.sender */\n      caller\n        /* \"contracts/test1.sol\":1563:1581  voters[msg.sender] */\n      0xffffffffffffffffffffffffffffffffffffffff\n      and\n      0xffffffffffffffffffffffffffffffffffffffff\n      and\n      dup2\n      mstore\n      0x20\n      add\n      swap1\n      dup2\n      mstore\n      0x20\n      add\n      0x00\n      keccak256\n        /* \"contracts/test1.sol\":1563:1588  voters[msg.sender].weight */\n      0x00\n      add\n      sload\n        /* \"contracts/test1.sol\":1563:1593  voters[msg.sender].weight != 0 */\n      sub\n        /* \"contracts/test1.sol\":1555:1636  require(voters[msg.sender].weight != 0, \"The caller does not have voting rights\") */\n      tag_85\n      jumpi\n      mload(0x40)\n      0x08c379a000000000000000000000000000000000000000000000000000000000\n      dup2\n      mstore\n      0x04\n      add\n      tag_86\n      swap1\n      tag_57\n      jump\t// in\n    tag_86:\n      mload(0x40)\n      dup1\n      swap2\n      sub\n      swap1\n      revert\n    tag_85:\n        /* \"contracts/test1.sol\":1715:1716  0 */\n      0x00\n        /* \"contracts/test1.sol\":1700:1717  _to != address(0) */\n      0xffffffffffffffffffffffffffffffffffffffff\n      and\n        /* \"contracts/test1.sol\":1700:1703  _to */\n      dup2\n        /* \"contracts/test1.sol\":1700:1717  _to != address(0) */\n      0xffffffffffffffffffffffffffffffffffffffff\n      and\n      sub\n        /* \"contracts/test1.sol\":1692:1754  require(_to != address(0), \"The entrusted address is illegal\") */\n      tag_87\n      jumpi\n      mload(0x40)\n      0x08c379a000000000000000000000000000000000000000000000000000000000\n      dup2\n      mstore\n      0x04\n      add\n      tag_88\n      swap1\n      tag_89\n      jump\t// in\n    tag_88:\n      mload(0x40)\n      dup1\n      swap2\n      sub\n      swap1\n      revert\n    tag_87:\n        /* \"contracts/test1.sol\":1794:1797  _to */\n      dup1\n        /* \"contracts/test1.sol\":1765:1771  voters */\n      0x02\n        /* \"contracts/test1.sol\":1765:1783  voters[msg.sender] */\n      0x00\n        /* \"contracts/test1.sol\":1772:1782  msg.sender */\n      caller\n        /* \"contracts/test1.sol\":1765:1783  voters[msg.sender] */\n      0xffffffffffffffffffffffffffffffffffffffff\n      and\n      0xffffffffffffffffffffffffffffffffffffffff\n      and\n      dup2\n      mstore\n      0x20\n      add\n      swap1\n      dup2\n      mstore\n      0x20\n      add\n      0x00\n      keccak256\n        /* \"contracts/test1.sol\":1765:1791  voters[msg.sender].trustee */\n      0x01\n      add\n      0x00\n        /* \"contracts/test1.sol\":1765:1797  voters[msg.sender].trustee = _to */\n      0x0100\n      exp\n      dup2\n      sload\n      dup2\n      0xffffffffffffffffffffffffffffffffffffffff\n      mul\n      not\n      and\n      swap1\n      dup4\n      0xffffffffffffffffffffffffffffffffffffffff\n      and\n      mul\n      or\n      swap1\n      sstore\n      pop\n        /* \"contracts/test1.sol\":1836:1837  0 */\n      0x00\n        /* \"contracts/test1.sol\":1808:1814  voters */\n      0x02\n        /* \"contracts/test1.sol\":1808:1826  voters[msg.sender] */\n      0x00\n        /* \"contracts/test1.sol\":1815:1825  msg.sender */\n      caller\n        /* \"contracts/test1.sol\":1808:1826  voters[msg.sender] */\n      0xffffffffffffffffffffffffffffffffffffffff\n      and\n      0xffffffffffffffffffffffffffffffffffffffff\n      and\n      dup2\n      mstore\n      0x20\n      add\n      swap1\n      dup2\n      mstore\n      0x20\n      add\n      0x00\n      keccak256\n        /* \"contracts/test1.sol\":1808:1833  voters[msg.sender].weight */\n      0x00\n      add\n        /* \"contracts/test1.sol\":1808:1837  voters[msg.sender].weight = 0 */\n      dup2\n      swap1\n      sstore\n      pop\n        /* \"contracts/test1.sol\":1874:1878  true */\n      0x01\n        /* \"contracts/test1.sol\":1847:1853  voters */\n      0x02\n        /* \"contracts/test1.sol\":1847:1865  voters[msg.sender] */\n      0x00\n        /* \"contracts/test1.sol\":1854:1864  msg.sender */\n      caller\n        /* \"contracts/test1.sol\":1847:1865  voters[msg.sender] */\n      0xffffffffffffffffffffffffffffffffffffffff\n      and\n      0xffffffffffffffffffffffffffffffffffffffff\n      and\n      dup2\n      mstore\n      0x20\n      add\n      swap1\n      dup2\n      mstore\n      0x20\n      add\n      0x00\n      keccak256\n        /* \"contracts/test1.sol\":1847:1871  voters[msg.sender].voted */\n      0x01\n      add\n      0x14\n        /* \"contracts/test1.sol\":1847:1878  voters[msg.sender].voted = true */\n      0x0100\n      exp\n      dup2\n      sload\n      dup2\n      0xff\n      mul\n      not\n      and\n      swap1\n      dup4\n      iszero\n      iszero\n      mul\n      or\n      swap1\n      sstore\n      pop\n        /* \"contracts/test1.sol\":1893:1899  voters */\n      0x02\n        /* \"contracts/test1.sol\":1893:1904  voters[_to] */\n      0x00\n        /* \"contracts/test1.sol\":1900:1903  _to */\n      dup3\n        /* \"contracts/test1.sol\":1893:1904  voters[_to] */\n      0xffffffffffffffffffffffffffffffffffffffff\n      and\n      0xffffffffffffffffffffffffffffffffffffffff\n      and\n      dup2\n      mstore\n      0x20\n      add\n      swap1\n      dup2\n      mstore\n      0x20\n      add\n      0x00\n      keccak256\n        /* \"contracts/test1.sol\":1893:1910  voters[_to].voted */\n      0x01\n      add\n      0x14\n      swap1\n      sload\n      swap1\n      0x0100\n      exp\n      swap1\n      div\n      0xff\n      and\n        /* \"contracts/test1.sol\":1889:2038  if (voters[_to].voted){... */\n      iszero\n      tag_90\n      jumpi\n        /* \"contracts/test1.sol\":1972:1973  1 */\n      0x01\n        /* \"contracts/test1.sol\":1925:1934  proposals */\n      dup1\n        /* \"contracts/test1.sol\":1935:1941  voters */\n      0x02\n        /* \"contracts/test1.sol\":1935:1946  voters[_to] */\n      0x00\n        /* \"contracts/test1.sol\":1942:1945  _to */\n      dup5\n        /* \"contracts/test1.sol\":1935:1946  voters[_to] */\n      0xffffffffffffffffffffffffffffffffffffffff\n      and\n      0xffffffffffffffffffffffffffffffffffffffff\n      and\n      dup2\n      mstore\n      0x20\n      add\n      swap1\n      dup2\n      mstore\n      0x20\n      add\n      0x00\n      keccak256\n        /* \"contracts/test1.sol\":1935:1957  voters[_to].ballotIdex */\n      0x02\n      add\n      sload\n        /* \"contracts/test1.sol\":1925:1958  proposals[voters[_to].ballotIdex] */\n      dup2\n      sload\n      dup2\n      lt\n      tag_91\n      jumpi\n      tag_92\n      tag_60\n      jump\t// in\n    tag_92:\n    tag_91:\n      swap1\n      0x00\n      mstore\n      keccak256(0x00, 0x20)\n      swap1\n      0x02\n      mul\n      add\n        /* \"contracts/test1.sol\":1925:1968  proposals[voters[_to].ballotIdex].ticketNum */\n      0x01\n      add\n      0x00\n        /* \"contracts/test1.sol\":1925:1973  proposals[voters[_to].ballotIdex].ticketNum += 1 */\n      dup3\n      dup3\n      sload\n      tag_94\n      swap2\n      swap1\n      tag_63\n      jump\t// in\n    tag_94:\n      swap3\n      pop\n      pop\n      dup2\n      swap1\n      sstore\n      pop\n        /* \"contracts/test1.sol\":1889:2038  if (voters[_to].voted){... */\n      jump(tag_95)\n    tag_90:\n        /* \"contracts/test1.sol\":2026:2027  1 */\n      0x01\n        /* \"contracts/test1.sol\":2004:2010  voters */\n      0x02\n        /* \"contracts/test1.sol\":2004:2015  voters[_to] */\n      0x00\n        /* \"contracts/test1.sol\":2011:2014  _to */\n      dup4\n        /* \"contracts/test1.sol\":2004:2015  voters[_to] */\n      0xffffffffffffffffffffffffffffffffffffffff\n      and\n      0xffffffffffffffffffffffffffffffffffffffff\n      and\n      dup2\n      mstore\n      0x20\n      add\n      swap1\n      dup2\n      mstore\n      0x20\n      add\n      0x00\n      keccak256\n        /* \"contracts/test1.sol\":2004:2022  voters[_to].weight */\n      0x00\n      add\n      0x00\n        /* \"contracts/test1.sol\":2004:2027  voters[_to].weight += 1 */\n      dup3\n      dup3\n      sload\n      tag_96\n      swap2\n      swap1\n      tag_63\n      jump\t// in\n    tag_96:\n      swap3\n      pop\n      pop\n      dup2\n      swap1\n      sstore\n      pop\n        /* \"contracts/test1.sol\":1889:2038  if (voters[_to].voted){... */\n    tag_95:\n        /* \"contracts/test1.sol\":1005:2044  function entrust(address _to) public {... */\n      pop\n      jump\t// out\n        /* \"#utility.yul\":88:205   */\n    tag_98:\n        /* \"#utility.yul\":197:198   */\n      0x00\n        /* \"#utility.yul\":194:195   */\n      dup1\n        /* \"#utility.yul\":187:199   */\n      revert\n        /* \"#utility.yul\":334:411   */\n    tag_100:\n        /* \"#utility.yul\":371:378   */\n      0x00\n        /* \"#utility.yul\":400:405   */\n      dup2\n        /* \"#utility.yul\":389:405   */\n      swap1\n      pop\n        /* \"#utility.yul\":334:411   */\n      swap2\n      swap1\n      pop\n      jump\t// out\n        /* \"#utility.yul\":417:539   */\n    tag_101:\n        /* \"#utility.yul\":490:514   */\n      tag_137\n        /* \"#utility.yul\":508:513   */\n      dup2\n        /* \"#utility.yul\":490:514   */\n      tag_100\n      jump\t// in\n    tag_137:\n        /* \"#utility.yul\":483:488   */\n      dup2\n        /* \"#utility.yul\":480:515   */\n      eq\n        /* \"#utility.yul\":470:533   */\n      tag_138\n      jumpi\n        /* \"#utility.yul\":529:530   */\n      0x00\n        /* \"#utility.yul\":526:527   */\n      dup1\n        /* \"#utility.yul\":519:531   */\n      revert\n        /* \"#utility.yul\":470:533   */\n    tag_138:\n        /* \"#utility.yul\":417:539   */\n      pop\n      jump\t// out\n        /* \"#utility.yul\":545:684   */\n    tag_102:\n        /* \"#utility.yul\":591:596   */\n      0x00\n        /* \"#utility.yul\":629:635   */\n      dup2\n        /* \"#utility.yul\":616:636   */\n      calldataload\n        /* \"#utility.yul\":607:636   */\n      swap1\n      pop\n        /* \"#utility.yul\":645:678   */\n      tag_140\n        /* \"#utility.yul\":672:677   */\n      dup2\n        /* \"#utility.yul\":645:678   */\n      tag_101\n      jump\t// in\n    tag_140:\n        /* \"#utility.yul\":545:684   */\n      swap3\n      swap2\n      pop\n      pop\n      jump\t// out\n        /* \"#utility.yul\":690:1019   */\n    tag_13:\n        /* \"#utility.yul\":749:755   */\n      0x00\n        /* \"#utility.yul\":798:800   */\n      0x20\n        /* \"#utility.yul\":786:795   */\n      dup3\n        /* \"#utility.yul\":777:784   */\n      dup5\n        /* \"#utility.yul\":773:796   */\n      sub\n        /* \"#utility.yul\":769:801   */\n      slt\n        /* \"#utility.yul\":766:885   */\n      iszero\n      tag_142\n      jumpi\n        /* \"#utility.yul\":804:883   */\n      tag_143\n      tag_98\n      jump\t// in\n    tag_143:\n        /* \"#utility.yul\":766:885   */\n    tag_142:\n        /* \"#utility.yul\":924:925   */\n      0x00\n        /* \"#utility.yul\":949:1002   */\n      tag_144\n        /* \"#utility.yul\":994:1001   */\n      dup5\n        /* \"#utility.yul\":985:991   */\n      dup3\n        /* \"#utility.yul\":974:983   */\n      dup6\n        /* \"#utility.yul\":970:992   */\n      add\n        /* \"#utility.yul\":949:1002   */\n      tag_102\n      jump\t// in\n    tag_144:\n        /* \"#utility.yul\":939:1002   */\n      swap2\n      pop\n        /* \"#utility.yul\":895:1012   */\n      pop\n        /* \"#utility.yul\":690:1019   */\n      swap3\n      swap2\n      pop\n      pop\n      jump\t// out\n        /* \"#utility.yul\":1025:1102   */\n    tag_103:\n        /* \"#utility.yul\":1062:1069   */\n      0x00\n        /* \"#utility.yul\":1091:1096   */\n      dup2\n        /* \"#utility.yul\":1080:1096   */\n      swap1\n      pop\n        /* \"#utility.yul\":1025:1102   */\n      swap2\n      swap1\n      pop\n      jump\t// out\n        /* \"#utility.yul\":1108:1226   */\n    tag_104:\n        /* \"#utility.yul\":1195:1219   */\n      tag_147\n        /* \"#utility.yul\":1213:1218   */\n      dup2\n        /* \"#utility.yul\":1195:1219   */\n      tag_103\n      jump\t// in\n    tag_147:\n        /* \"#utility.yul\":1190:1193   */\n      dup3\n        /* \"#utility.yul\":1183:1220   */\n      mstore\n        /* \"#utility.yul\":1108:1226   */\n      pop\n      pop\n      jump\t// out\n        /* \"#utility.yul\":1232:1350   */\n    tag_105:\n        /* \"#utility.yul\":1319:1343   */\n      tag_149\n        /* \"#utility.yul\":1337:1342   */\n      dup2\n        /* \"#utility.yul\":1319:1343   */\n      tag_100\n      jump\t// in\n    tag_149:\n        /* \"#utility.yul\":1314:1317   */\n      dup3\n        /* \"#utility.yul\":1307:1344   */\n      mstore\n        /* \"#utility.yul\":1232:1350   */\n      pop\n      pop\n      jump\t// out\n        /* \"#utility.yul\":1356:1688   */\n    tag_16:\n        /* \"#utility.yul\":1477:1481   */\n      0x00\n        /* \"#utility.yul\":1515:1517   */\n      0x40\n        /* \"#utility.yul\":1504:1513   */\n      dup3\n        /* \"#utility.yul\":1500:1518   */\n      add\n        /* \"#utility.yul\":1492:1518   */\n      swap1\n      pop\n        /* \"#utility.yul\":1528:1599   */\n      tag_151\n        /* \"#utility.yul\":1596:1597   */\n      0x00\n        /* \"#utility.yul\":1585:1594   */\n      dup4\n        /* \"#utility.yul\":1581:1598   */\n      add\n        /* \"#utility.yul\":1572:1578   */\n      dup6\n        /* \"#utility.yul\":1528:1599   */\n      tag_104\n      jump\t// in\n    tag_151:\n        /* \"#utility.yul\":1609:1681   */\n      tag_152\n        /* \"#utility.yul\":1677:1679   */\n      0x20\n        /* \"#utility.yul\":1666:1675   */\n      dup4\n        /* \"#utility.yul\":1662:1680   */\n      add\n        /* \"#utility.yul\":1653:1659   */\n      dup5\n        /* \"#utility.yul\":1609:1681   */\n      tag_105\n      jump\t// in\n    tag_152:\n        /* \"#utility.yul\":1356:1688   */\n      swap4\n      swap3\n      pop\n      pop\n      pop\n      jump\t// out\n        /* \"#utility.yul\":1694:1820   */\n    tag_106:\n        /* \"#utility.yul\":1731:1738   */\n      0x00\n        /* \"#utility.yul\":1771:1813   */\n      0xffffffffffffffffffffffffffffffffffffffff\n        /* \"#utility.yul\":1764:1769   */\n      dup3\n        /* \"#utility.yul\":1760:1814   */\n      and\n        /* \"#utility.yul\":1749:1814   */\n      swap1\n      pop\n        /* \"#utility.yul\":1694:1820   */\n      swap2\n      swap1\n      pop\n      jump\t// out\n        /* \"#utility.yul\":1826:1922   */\n    tag_107:\n        /* \"#utility.yul\":1863:1870   */\n      0x00\n        /* \"#utility.yul\":1892:1916   */\n      tag_155\n        /* \"#utility.yul\":1910:1915   */\n      dup3\n        /* \"#utility.yul\":1892:1916   */\n      tag_106\n      jump\t// in\n    tag_155:\n        /* \"#utility.yul\":1881:1916   */\n      swap1\n      pop\n        /* \"#utility.yul\":1826:1922   */\n      swap2\n      swap1\n      pop\n      jump\t// out\n        /* \"#utility.yul\":1928:2050   */\n    tag_108:\n        /* \"#utility.yul\":2001:2025   */\n      tag_157\n        /* \"#utility.yul\":2019:2024   */\n      dup2\n        /* \"#utility.yul\":2001:2025   */\n      tag_107\n      jump\t// in\n    tag_157:\n        /* \"#utility.yul\":1994:1999   */\n      dup2\n        /* \"#utility.yul\":1991:2026   */\n      eq\n        /* \"#utility.yul\":1981:2044   */\n      tag_158\n      jumpi\n        /* \"#utility.yul\":2040:2041   */\n      0x00\n        /* \"#utility.yul\":2037:2038   */\n      dup1\n        /* \"#utility.yul\":2030:2042   */\n      revert\n        /* \"#utility.yul\":1981:2044   */\n    tag_158:\n        /* \"#utility.yul\":1928:2050   */\n      pop\n      jump\t// out\n        /* \"#utility.yul\":2056:2195   */\n    tag_109:\n        /* \"#utility.yul\":2102:2107   */\n      0x00\n        /* \"#utility.yul\":2140:2146   */\n      dup2\n        /* \"#utility.yul\":2127:2147   */\n      calldataload\n        /* \"#utility.yul\":2118:2147   */\n      swap1\n      pop\n        /* \"#utility.yul\":2156:2189   */\n      tag_160\n        /* \"#utility.yul\":2183:2188   */\n      dup2\n        /* \"#utility.yul\":2156:2189   */\n      tag_108\n      jump\t// in\n    tag_160:\n        /* \"#utility.yul\":2056:2195   */\n      swap3\n      swap2\n      pop\n      pop\n      jump\t// out\n        /* \"#utility.yul\":2201:2530   */\n    tag_19:\n        /* \"#utility.yul\":2260:2266   */\n      0x00\n        /* \"#utility.yul\":2309:2311   */\n      0x20\n        /* \"#utility.yul\":2297:2306   */\n      dup3\n        /* \"#utility.yul\":2288:2295   */\n      dup5\n        /* \"#utility.yul\":2284:2307   */\n      sub\n        /* \"#utility.yul\":2280:2312   */\n      slt\n        /* \"#utility.yul\":2277:2396   */\n      iszero\n      tag_162\n      jumpi\n        /* \"#utility.yul\":2315:2394   */\n      tag_163\n      tag_98\n      jump\t// in\n    tag_163:\n        /* \"#utility.yul\":2277:2396   */\n    tag_162:\n        /* \"#utility.yul\":2435:2436   */\n      0x00\n        /* \"#utility.yul\":2460:2513   */\n      tag_164\n        /* \"#utility.yul\":2505:2512   */\n      dup5\n        /* \"#utility.yul\":2496:2502   */\n      dup3\n        /* \"#utility.yul\":2485:2494   */\n      dup6\n        /* \"#utility.yul\":2481:2503   */\n      add\n        /* \"#utility.yul\":2460:2513   */\n      tag_109\n      jump\t// in\n    tag_164:\n        /* \"#utility.yul\":2450:2513   */\n      swap2\n      pop\n        /* \"#utility.yul\":2406:2523   */\n      pop\n        /* \"#utility.yul\":2201:2530   */\n      swap3\n      swap2\n      pop\n      pop\n      jump\t// out\n        /* \"#utility.yul\":2536:2654   */\n    tag_110:\n        /* \"#utility.yul\":2623:2647   */\n      tag_166\n        /* \"#utility.yul\":2641:2646   */\n      dup2\n        /* \"#utility.yul\":2623:2647   */\n      tag_107\n      jump\t// in\n    tag_166:\n        /* \"#utility.yul\":2618:2621   */\n      dup3\n        /* \"#utility.yul\":2611:2648   */\n      mstore\n        /* \"#utility.yul\":2536:2654   */\n      pop\n      pop\n      jump\t// out\n        /* \"#utility.yul\":2660:2882   */\n    tag_27:\n        /* \"#utility.yul\":2753:2757   */\n      0x00\n        /* \"#utility.yul\":2791:2793   */\n      0x20\n        /* \"#utility.yul\":2780:2789   */\n      dup3\n        /* \"#utility.yul\":2776:2794   */\n      add\n        /* \"#utility.yul\":2768:2794   */\n      swap1\n      pop\n        /* \"#utility.yul\":2804:2875   */\n      tag_168\n        /* \"#utility.yul\":2872:2873   */\n      0x00\n        /* \"#utility.yul\":2861:2870   */\n      dup4\n        /* \"#utility.yul\":2857:2874   */\n      add\n        /* \"#utility.yul\":2848:2854   */\n      dup5\n        /* \"#utility.yul\":2804:2875   */\n      tag_110\n      jump\t// in\n    tag_168:\n        /* \"#utility.yul\":2660:2882   */\n      swap3\n      swap2\n      pop\n      pop\n      jump\t// out\n        /* \"#utility.yul\":2888:2978   */\n    tag_111:\n        /* \"#utility.yul\":2922:2929   */\n      0x00\n        /* \"#utility.yul\":2965:2970   */\n      dup2\n        /* \"#utility.yul\":2958:2971   */\n      iszero\n        /* \"#utility.yul\":2951:2972   */\n      iszero\n        /* \"#utility.yul\":2940:2972   */\n      swap1\n      pop\n        /* \"#utility.yul\":2888:2978   */\n      swap2\n      swap1\n      pop\n      jump\t// out\n        /* \"#utility.yul\":2984:3093   */\n    tag_112:\n        /* \"#utility.yul\":3065:3086   */\n      tag_171\n        /* \"#utility.yul\":3080:3085   */\n      dup2\n        /* \"#utility.yul\":3065:3086   */\n      tag_111\n      jump\t// in\n    tag_171:\n        /* \"#utility.yul\":3060:3063   */\n      dup3\n        /* \"#utility.yul\":3053:3087   */\n      mstore\n        /* \"#utility.yul\":2984:3093   */\n      pop\n      pop\n      jump\t// out\n        /* \"#utility.yul\":3099:3640   */\n    tag_35:\n        /* \"#utility.yul\":3270:3274   */\n      0x00\n        /* \"#utility.yul\":3308:3311   */\n      0x80\n        /* \"#utility.yul\":3297:3306   */\n      dup3\n        /* \"#utility.yul\":3293:3312   */\n      add\n        /* \"#utility.yul\":3285:3312   */\n      swap1\n      pop\n        /* \"#utility.yul\":3322:3393   */\n      tag_173\n        /* \"#utility.yul\":3390:3391   */\n      0x00\n        /* \"#utility.yul\":3379:3388   */\n      dup4\n        /* \"#utility.yul\":3375:3392   */\n      add\n        /* \"#utility.yul\":3366:3372   */\n      dup8\n        /* \"#utility.yul\":3322:3393   */\n      tag_105\n      jump\t// in\n    tag_173:\n        /* \"#utility.yul\":3403:3475   */\n      tag_174\n        /* \"#utility.yul\":3471:3473   */\n      0x20\n        /* \"#utility.yul\":3460:3469   */\n      dup4\n        /* \"#utility.yul\":3456:3474   */\n      add\n        /* \"#utility.yul\":3447:3453   */\n      dup7\n        /* \"#utility.yul\":3403:3475   */\n      tag_110\n      jump\t// in\n    tag_174:\n        /* \"#utility.yul\":3485:3551   */\n      tag_175\n        /* \"#utility.yul\":3547:3549   */\n      0x40\n        /* \"#utility.yul\":3536:3545   */\n      dup4\n        /* \"#utility.yul\":3532:3550   */\n      add\n        /* \"#utility.yul\":3523:3529   */\n      dup6\n        /* \"#utility.yul\":3485:3551   */\n      tag_112\n      jump\t// in\n    tag_175:\n        /* \"#utility.yul\":3561:3633   */\n      tag_176\n        /* \"#utility.yul\":3629:3631   */\n      0x60\n        /* \"#utility.yul\":3618:3627   */\n      dup4\n        /* \"#utility.yul\":3614:3632   */\n      add\n        /* \"#utility.yul\":3605:3611   */\n      dup5\n        /* \"#utility.yul\":3561:3633   */\n      tag_105\n      jump\t// in\n    tag_176:\n        /* \"#utility.yul\":3099:3640   */\n      swap6\n      swap5\n      pop\n      pop\n      pop\n      pop\n      pop\n      jump\t// out\n        /* \"#utility.yul\":3646:3815   */\n    tag_113:\n        /* \"#utility.yul\":3730:3741   */\n      0x00\n        /* \"#utility.yul\":3764:3770   */\n      dup3\n        /* \"#utility.yul\":3759:3762   */\n      dup3\n        /* \"#utility.yul\":3752:3771   */\n      mstore\n        /* \"#utility.yul\":3804:3808   */\n      0x20\n        /* \"#utility.yul\":3799:3802   */\n      dup3\n        /* \"#utility.yul\":3795:3809   */\n      add\n        /* \"#utility.yul\":3780:3809   */\n      swap1\n      pop\n        /* \"#utility.yul\":3646:3815   */\n      swap3\n      swap2\n      pop\n      pop\n      jump\t// out\n        /* \"#utility.yul\":3821:4041   */\n    tag_114:\n        /* \"#utility.yul\":3961:3995   */\n      0x5468652063616c6c6572206973206e6f7420746865206368616972706572736f\n        /* \"#utility.yul\":3957:3958   */\n      0x00\n        /* \"#utility.yul\":3949:3955   */\n      dup3\n        /* \"#utility.yul\":3945:3959   */\n      add\n        /* \"#utility.yul\":3938:3996   */\n      mstore\n        /* \"#utility.yul\":4030:4033   */\n      0x6e00000000000000000000000000000000000000000000000000000000000000\n        /* \"#utility.yul\":4025:4027   */\n      0x20\n        /* \"#utility.yul\":4017:4023   */\n      dup3\n        /* \"#utility.yul\":4013:4028   */\n      add\n        /* \"#utility.yul\":4006:4034   */\n      mstore\n        /* \"#utility.yul\":3821:4041   */\n      pop\n      jump\t// out\n        /* \"#utility.yul\":4047:4413   */\n    tag_115:\n        /* \"#utility.yul\":4189:4192   */\n      0x00\n        /* \"#utility.yul\":4210:4277   */\n      tag_180\n        /* \"#utility.yul\":4274:4276   */\n      0x21\n        /* \"#utility.yul\":4269:4272   */\n      dup4\n        /* \"#utility.yul\":4210:4277   */\n      tag_113\n      jump\t// in\n    tag_180:\n        /* \"#utility.yul\":4203:4277   */\n      swap2\n      pop\n        /* \"#utility.yul\":4286:4379   */\n      tag_181\n        /* \"#utility.yul\":4375:4378   */\n      dup3\n        /* \"#utility.yul\":4286:4379   */\n      tag_114\n      jump\t// in\n    tag_181:\n        /* \"#utility.yul\":4404:4406   */\n      0x40\n        /* \"#utility.yul\":4399:4402   */\n      dup3\n        /* \"#utility.yul\":4395:4407   */\n      add\n        /* \"#utility.yul\":4388:4407   */\n      swap1\n      pop\n        /* \"#utility.yul\":4047:4413   */\n      swap2\n      swap1\n      pop\n      jump\t// out\n        /* \"#utility.yul\":4419:4838   */\n    tag_44:\n        /* \"#utility.yul\":4585:4589   */\n      0x00\n        /* \"#utility.yul\":4623:4625   */\n      0x20\n        /* \"#utility.yul\":4612:4621   */\n      dup3\n        /* \"#utility.yul\":4608:4626   */\n      add\n        /* \"#utility.yul\":4600:4626   */\n      swap1\n      pop\n        /* \"#utility.yul\":4672:4681   */\n      dup2\n        /* \"#utility.yul\":4666:4670   */\n      dup2\n        /* \"#utility.yul\":4662:4682   */\n      sub\n        /* \"#utility.yul\":4658:4659   */\n      0x00\n        /* \"#utility.yul\":4647:4656   */\n      dup4\n        /* \"#utility.yul\":4643:4660   */\n      add\n        /* \"#utility.yul\":4636:4683   */\n      mstore\n        /* \"#utility.yul\":4700:4831   */\n      tag_183\n        /* \"#utility.yul\":4826:4830   */\n      dup2\n        /* \"#utility.yul\":4700:4831   */\n      tag_115\n      jump\t// in\n    tag_183:\n        /* \"#utility.yul\":4692:4831   */\n      swap1\n      pop\n        /* \"#utility.yul\":4419:4838   */\n      swap2\n      swap1\n      pop\n      jump\t// out\n        /* \"#utility.yul\":4844:5001   */\n    tag_116:\n        /* \"#utility.yul\":4984:4993   */\n      0x746f20766f746500000000000000000000000000000000000000000000000000\n        /* \"#utility.yul\":4980:4981   */\n      0x00\n        /* \"#utility.yul\":4972:4978   */\n      dup3\n        /* \"#utility.yul\":4968:4982   */\n      add\n        /* \"#utility.yul\":4961:4994   */\n      mstore\n        /* \"#utility.yul\":4844:5001   */\n      pop\n      jump\t// out\n        /* \"#utility.yul\":5007:5372   */\n    tag_117:\n        /* \"#utility.yul\":5149:5152   */\n      0x00\n        /* \"#utility.yul\":5170:5236   */\n      tag_186\n        /* \"#utility.yul\":5234:5235   */\n      0x07\n        /* \"#utility.yul\":5229:5232   */\n      dup4\n        /* \"#utility.yul\":5170:5236   */\n      tag_113\n      jump\t// in\n    tag_186:\n        /* \"#utility.yul\":5163:5236   */\n      swap2\n      pop\n        /* \"#utility.yul\":5245:5338   */\n      tag_187\n        /* \"#utility.yul\":5334:5337   */\n      dup3\n        /* \"#utility.yul\":5245:5338   */\n      tag_116\n      jump\t// in\n    tag_187:\n        /* \"#utility.yul\":5363:5365   */\n      0x20\n        /* \"#utility.yul\":5358:5361   */\n      dup3\n        /* \"#utility.yul\":5354:5366   */\n      add\n        /* \"#utility.yul\":5347:5366   */\n      swap1\n      pop\n        /* \"#utility.yul\":5007:5372   */\n      swap2\n      swap1\n      pop\n      jump\t// out\n        /* \"#utility.yul\":5378:5797   */\n    tag_47:\n        /* \"#utility.yul\":5544:5548   */\n      0x00\n        /* \"#utility.yul\":5582:5584   */\n      0x20\n        /* \"#utility.yul\":5571:5580   */\n      dup3\n        /* \"#utility.yul\":5567:5585   */\n      add\n        /* \"#utility.yul\":5559:5585   */\n      swap1\n      pop\n        /* \"#utility.yul\":5631:5640   */\n      dup2\n        /* \"#utility.yul\":5625:5629   */\n      dup2\n        /* \"#utility.yul\":5621:5641   */\n      sub\n        /* \"#utility.yul\":5617:5618   */\n      0x00\n        /* \"#utility.yul\":5606:5615   */\n      dup4\n        /* \"#utility.yul\":5602:5619   */\n      add\n        /* \"#utility.yul\":5595:5642   */\n      mstore\n        /* \"#utility.yul\":5659:5790   */\n      tag_189\n        /* \"#utility.yul\":5785:5789   */\n      dup2\n        /* \"#utility.yul\":5659:5790   */\n      tag_117\n      jump\t// in\n    tag_189:\n        /* \"#utility.yul\":5651:5790   */\n      swap1\n      pop\n        /* \"#utility.yul\":5378:5797   */\n      swap2\n      swap1\n      pop\n      jump\t// out\n        /* \"#utility.yul\":5803:5963   */\n    tag_118:\n        /* \"#utility.yul\":5943:5955   */\n      0x617574686f72697a656400000000000000000000000000000000000000000000\n        /* \"#utility.yul\":5939:5940   */\n      0x00\n        /* \"#utility.yul\":5931:5937   */\n      dup3\n        /* \"#utility.yul\":5927:5941   */\n      add\n        /* \"#utility.yul\":5920:5956   */\n      mstore\n        /* \"#utility.yul\":5803:5963   */\n      pop\n      jump\t// out\n        /* \"#utility.yul\":5969:6335   */\n    tag_119:\n        /* \"#utility.yul\":6111:6114   */\n      0x00\n        /* \"#utility.yul\":6132:6199   */\n      tag_192\n        /* \"#utility.yul\":6196:6198   */\n      0x0a\n        /* \"#utility.yul\":6191:6194   */\n      dup4\n        /* \"#utility.yul\":6132:6199   */\n      tag_113\n      jump\t// in\n    tag_192:\n        /* \"#utility.yul\":6125:6199   */\n      swap2\n      pop\n        /* \"#utility.yul\":6208:6301   */\n      tag_193\n        /* \"#utility.yul\":6297:6300   */\n      dup3\n        /* \"#utility.yul\":6208:6301   */\n      tag_118\n      jump\t// in\n    tag_193:\n        /* \"#utility.yul\":6326:6328   */\n      0x20\n        /* \"#utility.yul\":6321:6324   */\n      dup3\n        /* \"#utility.yul\":6317:6329   */\n      add\n        /* \"#utility.yul\":6310:6329   */\n      swap1\n      pop\n        /* \"#utility.yul\":5969:6335   */\n      swap2\n      swap1\n      pop\n      jump\t// out\n        /* \"#utility.yul\":6341:6760   */\n    tag_50:\n        /* \"#utility.yul\":6507:6511   */\n      0x00\n        /* \"#utility.yul\":6545:6547   */\n      0x20\n        /* \"#utility.yul\":6534:6543   */\n      dup3\n        /* \"#utility.yul\":6530:6548   */\n      add\n        /* \"#utility.yul\":6522:6548   */\n      swap1\n      pop\n        /* \"#utility.yul\":6594:6603   */\n      dup2\n        /* \"#utility.yul\":6588:6592   */\n      dup2\n        /* \"#utility.yul\":6584:6604   */\n      sub\n        /* \"#utility.yul\":6580:6581   */\n      0x00\n        /* \"#utility.yul\":6569:6578   */\n      dup4\n        /* \"#utility.yul\":6565:6582   */\n      add\n        /* \"#utility.yul\":6558:6605   */\n      mstore\n        /* \"#utility.yul\":6622:6753   */\n      tag_195\n        /* \"#utility.yul\":6748:6752   */\n      dup2\n        /* \"#utility.yul\":6622:6753   */\n      tag_119\n      jump\t// in\n    tag_195:\n        /* \"#utility.yul\":6614:6753   */\n      swap1\n      pop\n        /* \"#utility.yul\":6341:6760   */\n      swap2\n      swap1\n      pop\n      jump\t// out\n        /* \"#utility.yul\":6766:6932   */\n    tag_120:\n        /* \"#utility.yul\":6906:6924   */\n      0x63616c6c65722068617320766f74656400000000000000000000000000000000\n        /* \"#utility.yul\":6902:6903   */\n      0x00\n        /* \"#utility.yul\":6894:6900   */\n      dup3\n        /* \"#utility.yul\":6890:6904   */\n      add\n        /* \"#utility.yul\":6883:6925   */\n      mstore\n        /* \"#utility.yul\":6766:6932   */\n      pop\n      jump\t// out\n        /* \"#utility.yul\":6938:7304   */\n    tag_121:\n        /* \"#utility.yul\":7080:7083   */\n      0x00\n        /* \"#utility.yul\":7101:7168   */\n      tag_198\n        /* \"#utility.yul\":7165:7167   */\n      0x10\n        /* \"#utility.yul\":7160:7163   */\n      dup4\n        /* \"#utility.yul\":7101:7168   */\n      tag_113\n      jump\t// in\n    tag_198:\n        /* \"#utility.yul\":7094:7168   */\n      swap2\n      pop\n        /* \"#utility.yul\":7177:7270   */\n      tag_199\n        /* \"#utility.yul\":7266:7269   */\n      dup3\n        /* \"#utility.yul\":7177:7270   */\n      tag_120\n      jump\t// in\n    tag_199:\n        /* \"#utility.yul\":7295:7297   */\n      0x20\n        /* \"#utility.yul\":7290:7293   */\n      dup3\n        /* \"#utility.yul\":7286:7298   */\n      add\n        /* \"#utility.yul\":7279:7298   */\n      swap1\n      pop\n        /* \"#utility.yul\":6938:7304   */\n      swap2\n      swap1\n      pop\n      jump\t// out\n        /* \"#utility.yul\":7310:7729   */\n    tag_54:\n        /* \"#utility.yul\":7476:7480   */\n      0x00\n        /* \"#utility.yul\":7514:7516   */\n      0x20\n        /* \"#utility.yul\":7503:7512   */\n      dup3\n        /* \"#utility.yul\":7499:7517   */\n      add\n        /* \"#utility.yul\":7491:7517   */\n      swap1\n      pop\n        /* \"#utility.yul\":7563:7572   */\n      dup2\n        /* \"#utility.yul\":7557:7561   */\n      dup2\n        /* \"#utility.yul\":7553:7573   */\n      sub\n        /* \"#utility.yul\":7549:7550   */\n      0x00\n        /* \"#utility.yul\":7538:7547   */\n      dup4\n        /* \"#utility.yul\":7534:7551   */\n      add\n        /* \"#utility.yul\":7527:7574   */\n      mstore\n        /* \"#utility.yul\":7591:7722   */\n      tag_201\n        /* \"#utility.yul\":7717:7721   */\n      dup2\n        /* \"#utility.yul\":7591:7722   */\n      tag_121\n      jump\t// in\n    tag_201:\n        /* \"#utility.yul\":7583:7722   */\n      swap1\n      pop\n        /* \"#utility.yul\":7310:7729   */\n      swap2\n      swap1\n      pop\n      jump\t// out\n        /* \"#utility.yul\":7735:7960   */\n    tag_122:\n        /* \"#utility.yul\":7875:7909   */\n      0x5468652063616c6c657220646f6573206e6f74206861766520766f74696e6720\n        /* \"#utility.yul\":7871:7872   */\n      0x00\n        /* \"#utility.yul\":7863:7869   */\n      dup3\n        /* \"#utility.yul\":7859:7873   */\n      add\n        /* \"#utility.yul\":7852:7910   */\n      mstore\n        /* \"#utility.yul\":7944:7952   */\n      0x7269676874730000000000000000000000000000000000000000000000000000\n        /* \"#utility.yul\":7939:7941   */\n      0x20\n        /* \"#utility.yul\":7931:7937   */\n      dup3\n        /* \"#utility.yul\":7927:7942   */\n      add\n        /* \"#utility.yul\":7920:7953   */\n      mstore\n        /* \"#utility.yul\":7735:7960   */\n      pop\n      jump\t// out\n        /* \"#utility.yul\":7966:8332   */\n    tag_123:\n        /* \"#utility.yul\":8108:8111   */\n      0x00\n        /* \"#utility.yul\":8129:8196   */\n      tag_204\n        /* \"#utility.yul\":8193:8195   */\n      0x26\n        /* \"#utility.yul\":8188:8191   */\n      dup4\n        /* \"#utility.yul\":8129:8196   */\n      tag_113\n      jump\t// in\n    tag_204:\n        /* \"#utility.yul\":8122:8196   */\n      swap2\n      pop\n        /* \"#utility.yul\":8205:8298   */\n      tag_205\n        /* \"#utility.yul\":8294:8297   */\n      dup3\n        /* \"#utility.yul\":8205:8298   */\n      tag_122\n      jump\t// in\n    tag_205:\n        /* \"#utility.yul\":8323:8325   */\n      0x40\n        /* \"#utility.yul\":8318:8321   */\n      dup3\n        /* \"#utility.yul\":8314:8326   */\n      add\n        /* \"#utility.yul\":8307:8326   */\n      swap1\n      pop\n        /* \"#utility.yul\":7966:8332   */\n      swap2\n      swap1\n      pop\n      jump\t// out\n        /* \"#utility.yul\":8338:8757   */\n    tag_57:\n        /* \"#utility.yul\":8504:8508   */\n      0x00\n        /* \"#utility.yul\":8542:8544   */\n      0x20\n        /* \"#utility.yul\":8531:8540   */\n      dup3\n        /* \"#utility.yul\":8527:8545   */\n      add\n        /* \"#utility.yul\":8519:8545   */\n      swap1\n      pop\n        /* \"#utility.yul\":8591:8600   */\n      dup2\n        /* \"#utility.yul\":8585:8589   */\n      dup2\n        /* \"#utility.yul\":8581:8601   */\n      sub\n        /* \"#utility.yul\":8577:8578   */\n      0x00\n        /* \"#utility.yul\":8566:8575   */\n      dup4\n        /* \"#utility.yul\":8562:8579   */\n      add\n        /* \"#utility.yul\":8555:8602   */\n      mstore\n        /* \"#utility.yul\":8619:8750   */\n      tag_207\n        /* \"#utility.yul\":8745:8749   */\n      dup2\n        /* \"#utility.yul\":8619:8750   */\n      tag_123\n      jump\t// in\n    tag_207:\n        /* \"#utility.yul\":8611:8750   */\n      swap1\n      pop\n        /* \"#utility.yul\":8338:8757   */\n      swap2\n      swap1\n      pop\n      jump\t// out\n        /* \"#utility.yul\":8763:8943   */\n    tag_60:\n        /* \"#utility.yul\":8811:8888   */\n      0x4e487b7100000000000000000000000000000000000000000000000000000000\n        /* \"#utility.yul\":8808:8809   */\n      0x00\n        /* \"#utility.yul\":8801:8889   */\n      mstore\n        /* \"#utility.yul\":8908:8912   */\n      0x32\n        /* \"#utility.yul\":8905:8906   */\n      0x04\n        /* \"#utility.yul\":8898:8913   */\n      mstore\n        /* \"#utility.yul\":8932:8936   */\n      0x24\n        /* \"#utility.yul\":8929:8930   */\n      0x00\n        /* \"#utility.yul\":8922:8937   */\n      revert\n        /* \"#utility.yul\":8949:9129   */\n    tag_124:\n        /* \"#utility.yul\":8997:9074   */\n      0x4e487b7100000000000000000000000000000000000000000000000000000000\n        /* \"#utility.yul\":8994:8995   */\n      0x00\n        /* \"#utility.yul\":8987:9075   */\n      mstore\n        /* \"#utility.yul\":9094:9098   */\n      0x11\n        /* \"#utility.yul\":9091:9092   */\n      0x04\n        /* \"#utility.yul\":9084:9099   */\n      mstore\n        /* \"#utility.yul\":9118:9122   */\n      0x24\n        /* \"#utility.yul\":9115:9116   */\n      0x00\n        /* \"#utility.yul\":9108:9123   */\n      revert\n        /* \"#utility.yul\":9135:9440   */\n    tag_63:\n        /* \"#utility.yul\":9175:9178   */\n      0x00\n        /* \"#utility.yul\":9194:9214   */\n      tag_211\n        /* \"#utility.yul\":9212:9213   */\n      dup3\n        /* \"#utility.yul\":9194:9214   */\n      tag_100\n      jump\t// in\n    tag_211:\n        /* \"#utility.yul\":9189:9214   */\n      swap2\n      pop\n        /* \"#utility.yul\":9228:9248   */\n      tag_212\n        /* \"#utility.yul\":9246:9247   */\n      dup4\n        /* \"#utility.yul\":9228:9248   */\n      tag_100\n      jump\t// in\n    tag_212:\n        /* \"#utility.yul\":9223:9248   */\n      swap3\n      pop\n        /* \"#utility.yul\":9382:9383   */\n      dup3\n        /* \"#utility.yul\":9314:9380   */\n      0xffffffffffffffffffffffffffffffffffffffffffffffffffffffffffffffff\n        /* \"#utility.yul\":9310:9384   */\n      sub\n        /* \"#utility.yul\":9307:9308   */\n      dup3\n        /* \"#utility.yul\":9304:9385   */\n      gt\n        /* \"#utility.yul\":9301:9408   */\n      iszero\n      tag_213\n      jumpi\n        /* \"#utility.yul\":9388:9406   */\n      tag_214\n      tag_124\n      jump\t// in\n    tag_214:\n        /* \"#utility.yul\":9301:9408   */\n    tag_213:\n        /* \"#utility.yul\":9432:9433   */\n      dup3\n        /* \"#utility.yul\":9429:9430   */\n      dup3\n        /* \"#utility.yul\":9425:9434   */\n      add\n        /* \"#utility.yul\":9418:9434   */\n      swap1\n      pop\n        /* \"#utility.yul\":9135:9440   */\n      swap3\n      swap2\n      pop\n      pop\n      jump\t// out\n        /* \"#utility.yul\":9446:9679   */\n    tag_73:\n        /* \"#utility.yul\":9485:9488   */\n      0x00\n        /* \"#utility.yul\":9508:9532   */\n      tag_216\n        /* \"#utility.yul\":9526:9531   */\n      dup3\n        /* \"#utility.yul\":9508:9532   */\n      tag_100\n      jump\t// in\n    tag_216:\n        /* \"#utility.yul\":9499:9532   */\n      swap2\n      pop\n        /* \"#utility.yul\":9554:9620   */\n      0xffffffffffffffffffffffffffffffffffffffffffffffffffffffffffffffff\n        /* \"#utility.yul\":9547:9552   */\n      dup3\n        /* \"#utility.yul\":9544:9621   */\n      sub\n        /* \"#utility.yul\":9541:9644   */\n      tag_217\n      jumpi\n        /* \"#utility.yul\":9624:9642   */\n      tag_218\n      tag_124\n      jump\t// in\n    tag_218:\n        /* \"#utility.yul\":9541:9644   */\n    tag_217:\n        /* \"#utility.yul\":9671:9672   */\n      0x01\n        /* \"#utility.yul\":9664:9669   */\n      dup3\n        /* \"#utility.yul\":9660:9673   */\n      add\n        /* \"#utility.yul\":9653:9673   */\n      swap1\n      pop\n        /* \"#utility.yul\":9446:9679   */\n      swap2\n      swap1\n      pop\n      jump\t// out\n        /* \"#utility.yul\":9685:9866   */\n    tag_125:\n        /* \"#utility.yul\":9825:9858   */\n      0x54686520656e7472757374656420706572736f6e2069732068696d73656c6600\n        /* \"#utility.yul\":9821:9822   */\n      0x00\n        /* \"#utility.yul\":9813:9819   */\n      dup3\n        /* \"#utility.yul\":9809:9823   */\n      add\n        /* \"#utility.yul\":9802:9859   */\n      mstore\n        /* \"#utility.yul\":9685:9866   */\n      pop\n      jump\t// out\n        /* \"#utility.yul\":9872:10238   */\n    tag_126:\n        /* \"#utility.yul\":10014:10017   */\n      0x00\n        /* \"#utility.yul\":10035:10102   */\n      tag_221\n        /* \"#utility.yul\":10099:10101   */\n      0x1f\n        /* \"#utility.yul\":10094:10097   */\n      dup4\n        /* \"#utility.yul\":10035:10102   */\n      tag_113\n      jump\t// in\n    tag_221:\n        /* \"#utility.yul\":10028:10102   */\n      swap2\n      pop\n        /* \"#utility.yul\":10111:10204   */\n      tag_222\n        /* \"#utility.yul\":10200:10203   */\n      dup3\n        /* \"#utility.yul\":10111:10204   */\n      tag_125\n      jump\t// in\n    tag_222:\n        /* \"#utility.yul\":10229:10231   */\n      0x20\n        /* \"#utility.yul\":10224:10227   */\n      dup3\n        /* \"#utility.yul\":10220:10232   */\n      add\n        /* \"#utility.yul\":10213:10232   */\n      swap1\n      pop\n        /* \"#utility.yul\":9872:10238   */\n      swap2\n      swap1\n      pop\n      jump\t// out\n        /* \"#utility.yul\":10244:10663   */\n    tag_77:\n        /* \"#utility.yul\":10410:10414   */\n      0x00\n        /* \"#utility.yul\":10448:10450   */\n      0x20\n        /* \"#utility.yul\":10437:10446   */\n      dup3\n        /* \"#utility.yul\":10433:10451   */\n      add\n        /* \"#utility.yul\":10425:10451   */\n      swap1\n      pop\n        /* \"#utility.yul\":10497:10506   */\n      dup2\n        /* \"#utility.yul\":10491:10495   */\n      dup2\n        /* \"#utility.yul\":10487:10507   */\n      sub\n        /* \"#utility.yul\":10483:10484   */\n      0x00\n        /* \"#utility.yul\":10472:10481   */\n      dup4\n        /* \"#utility.yul\":10468:10485   */\n      add\n        /* \"#utility.yul\":10461:10508   */\n      mstore\n        /* \"#utility.yul\":10525:10656   */\n      tag_224\n        /* \"#utility.yul\":10651:10655   */\n      dup2\n        /* \"#utility.yul\":10525:10656   */\n      tag_126\n      jump\t// in\n    tag_224:\n        /* \"#utility.yul\":10517:10656   */\n      swap1\n      pop\n        /* \"#utility.yul\":10244:10663   */\n      swap2\n      swap1\n      pop\n      jump\t// out\n        /* \"#utility.yul\":10669:10840   */\n    tag_127:\n        /* \"#utility.yul\":10809:10832   */\n      0x44656c65676174656420636c6f736564206c6f6f700000000000000000000000\n        /* \"#utility.yul\":10805:10806   */\n      0x00\n        /* \"#utility.yul\":10797:10803   */\n      dup3\n        /* \"#utility.yul\":10793:10807   */\n      add\n        /* \"#utility.yul\":10786:10833   */\n      mstore\n        /* \"#utility.yul\":10669:10840   */\n      pop\n      jump\t// out\n        /* \"#utility.yul\":10846:11212   */\n    tag_128:\n        /* \"#utility.yul\":10988:10991   */\n      0x00\n        /* \"#utility.yul\":11009:11076   */\n      tag_227\n        /* \"#utility.yul\":11073:11075   */\n      0x15\n        /* \"#utility.yul\":11068:11071   */\n      dup4\n        /* \"#utility.yul\":11009:11076   */\n      tag_113\n      jump\t// in\n    tag_227:\n        /* \"#utility.yul\":11002:11076   */\n      swap2\n      pop\n        /* \"#utility.yul\":11085:11178   */\n      tag_228\n        /* \"#utility.yul\":11174:11177   */\n      dup3\n        /* \"#utility.yul\":11085:11178   */\n      tag_127\n      jump\t// in\n    tag_228:\n        /* \"#utility.yul\":11203:11205   */\n      0x20\n        /* \"#utility.yul\":11198:11201   */\n      dup3\n        /* \"#utility.yul\":11194:11206   */\n      add\n        /* \"#utility.yul\":11187:11206   */\n      swap1\n      pop\n        /* \"#utility.yul\":10846:11212   */\n      swap2\n      swap1\n      pop\n      jump\t// out\n        /* \"#utility.yul\":11218:11637   */\n    tag_82:\n        /* \"#utility.yul\":11384:11388   */\n      0x00\n        /* \"#utility.yul\":11422:11424   */\n      0x20\n        /* \"#utility.yul\":11411:11420   */\n      dup3\n        /* \"#utility.yul\":11407:11425   */\n      add\n        /* \"#utility.yul\":11399:11425   */\n      swap1\n      pop\n        /* \"#utility.yul\":11471:11480   */\n      dup2\n        /* \"#utility.yul\":11465:11469   */\n      dup2\n        /* \"#utility.yul\":11461:11481   */\n      sub\n        /* \"#utility.yul\":11457:11458   */\n      0x00\n        /* \"#utility.yul\":11446:11455   */\n      dup4\n        /* \"#utility.yul\":11442:11459   */\n      add\n        /* \"#utility.yul\":11435:11482   */\n      mstore\n        /* \"#utility.yul\":11499:11630   */\n      tag_230\n        /* \"#utility.yul\":11625:11629   */\n      dup2\n        /* \"#utility.yul\":11499:11630   */\n      tag_128\n      jump\t// in\n    tag_230:\n        /* \"#utility.yul\":11491:11630   */\n      swap1\n      pop\n        /* \"#utility.yul\":11218:11637   */\n      swap2\n      swap1\n      pop\n      jump\t// out\n        /* \"#utility.yul\":11643:11825   */\n    tag_129:\n        /* \"#utility.yul\":11783:11817   */\n      0x54686520656e74727573746564206164647265737320697320696c6c6567616c\n        /* \"#utility.yul\":11779:11780   */\n      0x00\n        /* \"#utility.yul\":11771:11777   */\n      dup3\n        /* \"#utility.yul\":11767:11781   */\n      add\n        /* \"#utility.yul\":11760:11818   */\n      mstore\n        /* \"#utility.yul\":11643:11825   */\n      pop\n      jump\t// out\n        /* \"#utility.yul\":11831:12197   */\n    tag_130:\n        /* \"#utility.yul\":11973:11976   */\n      0x00\n        /* \"#utility.yul\":11994:12061   */\n      tag_233\n        /* \"#utility.yul\":12058:12060   */\n      0x20\n        /* \"#utility.yul\":12053:12056   */\n      dup4\n        /* \"#utility.yul\":11994:12061   */\n      tag_113\n      jump\t// in\n    tag_233:\n        /* \"#utility.yul\":11987:12061   */\n      swap2\n      pop\n        /* \"#utility.yul\":12070:12163   */\n      tag_234\n        /* \"#utility.yul\":12159:12162   */\n      dup3\n        /* \"#utility.yul\":12070:12163   */\n      tag_129\n      jump\t// in\n    tag_234:\n        /* \"#utility.yul\":12188:12190   */\n      0x20\n        /* \"#utility.yul\":12183:12186   */\n      dup3\n        /* \"#utility.yul\":12179:12191   */\n      add\n        /* \"#utility.yul\":12172:12191   */\n      swap1\n      pop\n        /* \"#utility.yul\":11831:12197   */\n      swap2\n      swap1\n      pop\n      jump\t// out\n        /* \"#utility.yul\":12203:12622   */\n    tag_89:\n        /* \"#utility.yul\":12369:12373   */\n      0x00\n        /* \"#utility.yul\":12407:12409   */\n      0x20\n        /* \"#utility.yul\":12396:12405   */\n      dup3\n        /* \"#utility.yul\":12392:12410   */\n      add\n        /* \"#utility.yul\":12384:12410   */\n      swap1\n      pop\n        /* \"#utility.yul\":12456:12465   */\n      dup2\n        /* \"#utility.yul\":12450:12454   */\n      dup2\n        /* \"#utility.yul\":12446:12466   */\n      sub\n        /* \"#utility.yul\":12442:12443   */\n      0x00\n        /* \"#utility.yul\":12431:12440   */\n      dup4\n        /* \"#utility.yul\":12427:12444   */\n      add\n        /* \"#utility.yul\":12420:12467   */\n      mstore\n        /* \"#utility.yul\":12484:12615   */\n      tag_236\n        /* \"#utility.yul\":12610:12614   */\n      dup2\n        /* \"#utility.yul\":12484:12615   */\n      tag_130\n      jump\t// in\n    tag_236:\n        /* \"#utility.yul\":12476:12615   */\n      swap1\n      pop\n        /* \"#utility.yul\":12203:12622   */\n      swap2\n      swap1\n      pop\n      jump\t// out\n\n    auxdata: 0xa264697066735822122086b9f3c952abc68c5596d403181f9f0dd2f616e954a007ec115c6df9fcb2d7f564736f6c634300080d0033\n}\n",
				"bytecode": {
					"linkReferences": {},
					"object": "60806040523480156200001157600080fd5b506040516200166c3803806200166c8339818101604052810190620000379190620002da565b336000806101000a81548173ffffffffffffffffffffffffffffffffffffffff021916908373ffffffffffffffffffffffffffffffffffffffff16021790555060005b81518110156200010e5760016040518060400160405280848481518110620000a757620000a66200032b565b5b6020026020010151815260200160008152509080600181540180825580915050600190039060005260206000209060020201600090919091909150600082015181600001556020820151816001015550508080620001059062000393565b9150506200007a565b5050620003e0565b6000604051905090565b600080fd5b600080fd5b600080fd5b6000601f19601f8301169050919050565b7f4e487b7100000000000000000000000000000000000000000000000000000000600052604160045260246000fd5b6200017a826200012f565b810181811067ffffffffffffffff821117156200019c576200019b62000140565b5b80604052505050565b6000620001b162000116565b9050620001bf82826200016f565b919050565b600067ffffffffffffffff821115620001e257620001e162000140565b5b602082029050602081019050919050565b600080fd5b6000819050919050565b6200020d81620001f8565b81146200021957600080fd5b50565b6000815190506200022d8162000202565b92915050565b60006200024a6200024484620001c4565b620001a5565b9050808382526020820190506020840283018581111562000270576200026f620001f3565b5b835b818110156200029d57806200028888826200021c565b84526020840193505060208101905062000272565b5050509392505050565b600082601f830112620002bf57620002be6200012a565b5b8151620002d184826020860162000233565b91505092915050565b600060208284031215620002f357620002f262000120565b5b600082015167ffffffffffffffff81111562000314576200031362000125565b5b6200032284828501620002a7565b91505092915050565b7f4e487b7100000000000000000000000000000000000000000000000000000000600052603260045260246000fd5b7f4e487b7100000000000000000000000000000000000000000000000000000000600052601160045260246000fd5b6000819050919050565b6000620003a08262000389565b91507fffffffffffffffffffffffffffffffffffffffffffffffffffffffffffffffff8203620003d557620003d46200035a565b5b600182019050919050565b61127c80620003f06000396000f3fe608060405234801561001057600080fd5b506004361061007d5760003560e01c806387f7b9751161005b57806387f7b975146100eb578063a3c1885b14610109578063a3ec138d14610128578063ab9cd9971461015b5761007d565b8063013cf08b1461008257806324845194146100b35780634e4c9676146100cf575b600080fd5b61009c60048036038101906100979190610bfa565b610177565b6040516100aa929190610c4f565b60405180910390f35b6100cd60048036038101906100c89190610cd6565b6101ab565b005b6100e960048036038101906100e49190610bfa565b610399565b005b6100f361052f565b6040516101009190610d12565b60405180910390f35b610111610553565b60405161011f929190610c4f565b60405180910390f35b610142600480360381019061013d9190610cd6565b6105aa565b6040516101529493929190610d48565b60405180910390f35b61017560048036038101906101709190610cd6565b610607565b005b6001818154811061018757600080fd5b90600052602060002090600202016000915090508060000154908060010154905082565b60008054906101000a900473ffffffffffffffffffffffffffffffffffffffff1673ffffffffffffffffffffffffffffffffffffffff163373ffffffffffffffffffffffffffffffffffffffff1614610239576040517f08c379a000000000000000000000000000000000000000000000000000000000815260040161023090610e10565b60405180910390fd5b600260008273ffffffffffffffffffffffffffffffffffffffff1673ffffffffffffffffffffffffffffffffffffffff16815260200190815260200160002060010160149054906101000a900460ff16156102c9576040517f08c379a00000000000000000000000000000000000000000000000000000000081526004016102c090610e7c565b60405180910390fd5b6000600260008373ffffffffffffffffffffffffffffffffffffffff1673ffffffffffffffffffffffffffffffffffffffff168152602001908152602001600020600001541461034e576040517f08c379a000000000000000000000000000000000000000000000000000000000815260040161034590610ee8565b60405180910390fd5b6001600260008373ffffffffffffffffffffffffffffffffffffffff1673ffffffffffffffffffffffffffffffffffffffff1681526020019081526020016000206000018190555050565b600260003373ffffffffffffffffffffffffffffffffffffffff1673ffffffffffffffffffffffffffffffffffffffff16815260200190815260200160002060010160149054906101000a900460ff1615610429576040517f08c379a000000000000000000000000000000000000000000000000000000000815260040161042090610f54565b60405180910390fd5b6000600260003373ffffffffffffffffffffffffffffffffffffffff1673ffffffffffffffffffffffffffffffffffffffff16815260200190815260200160002060000154036104ae576040517f08c379a00000000000000000000000000000000000000000000000000000000081526004016104a590610fe6565b60405180910390fd5b600260003373ffffffffffffffffffffffffffffffffffffffff1673ffffffffffffffffffffffffffffffffffffffff168152602001908152602001600020600001546001828154811061050557610504611006565b5b906000526020600020906002020160010160008282546105259190611064565b9250508190555050565b60008054906101000a900473ffffffffffffffffffffffffffffffffffffffff1681565b6000806000801b91506000905060005b6001805490508110156105a557816001828154811061058557610584611006565b5b90600052602060002090505050808061059d906110ba565b915050610563565b509091565b60026020528060005260406000206000915090508060000154908060010160009054906101000a900473ffffffffffffffffffffffffffffffffffffffff16908060010160149054906101000a900460ff16908060020154905084565b8073ffffffffffffffffffffffffffffffffffffffff163373ffffffffffffffffffffffffffffffffffffffff1603610675576040517f08c379a000000000000000000000000000000000000000000000000000000000815260040161066c9061114e565b60405180910390fd5b5b600073ffffffffffffffffffffffffffffffffffffffff16600260008373ffffffffffffffffffffffffffffffffffffffff1673ffffffffffffffffffffffffffffffffffffffff16815260200190815260200160002060010160009054906101000a900473ffffffffffffffffffffffffffffffffffffffff1673ffffffffffffffffffffffffffffffffffffffff16146107e1573373ffffffffffffffffffffffffffffffffffffffff16600260008373ffffffffffffffffffffffffffffffffffffffff1673ffffffffffffffffffffffffffffffffffffffff16815260200190815260200160002060010160009054906101000a900473ffffffffffffffffffffffffffffffffffffffff1673ffffffffffffffffffffffffffffffffffffffff16036107dc576040517f08c379a00000000000000000000000000000000000000000000000000000000081526004016107d3906111ba565b60405180910390fd5b610676565b600260003373ffffffffffffffffffffffffffffffffffffffff1673ffffffffffffffffffffffffffffffffffffffff16815260200190815260200160002060010160149054906101000a900460ff1615610871576040517f08c379a000000000000000000000000000000000000000000000000000000000815260040161086890610f54565b60405180910390fd5b6000600260003373ffffffffffffffffffffffffffffffffffffffff1673ffffffffffffffffffffffffffffffffffffffff16815260200190815260200160002060000154036108f6576040517f08c379a00000000000000000000000000000000000000000000000000000000081526004016108ed90610fe6565b60405180910390fd5b600073ffffffffffffffffffffffffffffffffffffffff168173ffffffffffffffffffffffffffffffffffffffff1603610965576040517f08c379a000000000000000000000000000000000000000000000000000000000815260040161095c90611226565b60405180910390fd5b80600260003373ffffffffffffffffffffffffffffffffffffffff1673ffffffffffffffffffffffffffffffffffffffff16815260200190815260200160002060010160006101000a81548173ffffffffffffffffffffffffffffffffffffffff021916908373ffffffffffffffffffffffffffffffffffffffff1602179055506000600260003373ffffffffffffffffffffffffffffffffffffffff1673ffffffffffffffffffffffffffffffffffffffff168152602001908152602001600020600001819055506001600260003373ffffffffffffffffffffffffffffffffffffffff1673ffffffffffffffffffffffffffffffffffffffff16815260200190815260200160002060010160146101000a81548160ff021916908315150217905550600260008273ffffffffffffffffffffffffffffffffffffffff1673ffffffffffffffffffffffffffffffffffffffff16815260200190815260200160002060010160149054906101000a900460ff1615610b6157600180600260008473ffffffffffffffffffffffffffffffffffffffff1673ffffffffffffffffffffffffffffffffffffffff1681526020019081526020016000206002015481548110610b3557610b34611006565b5b90600052602060002090600202016001016000828254610b559190611064565b92505081905550610bbc565b6001600260008373ffffffffffffffffffffffffffffffffffffffff1673ffffffffffffffffffffffffffffffffffffffff1681526020019081526020016000206000016000828254610bb49190611064565b925050819055505b50565b600080fd5b6000819050919050565b610bd781610bc4565b8114610be257600080fd5b50565b600081359050610bf481610bce565b92915050565b600060208284031215610c1057610c0f610bbf565b5b6000610c1e84828501610be5565b91505092915050565b6000819050919050565b610c3a81610c27565b82525050565b610c4981610bc4565b82525050565b6000604082019050610c646000830185610c31565b610c716020830184610c40565b9392505050565b600073ffffffffffffffffffffffffffffffffffffffff82169050919050565b6000610ca382610c78565b9050919050565b610cb381610c98565b8114610cbe57600080fd5b50565b600081359050610cd081610caa565b92915050565b600060208284031215610cec57610ceb610bbf565b5b6000610cfa84828501610cc1565b91505092915050565b610d0c81610c98565b82525050565b6000602082019050610d276000830184610d03565b92915050565b60008115159050919050565b610d4281610d2d565b82525050565b6000608082019050610d5d6000830187610c40565b610d6a6020830186610d03565b610d776040830185610d39565b610d846060830184610c40565b95945050505050565b600082825260208201905092915050565b7f5468652063616c6c6572206973206e6f7420746865206368616972706572736f60008201527f6e00000000000000000000000000000000000000000000000000000000000000602082015250565b6000610dfa602183610d8d565b9150610e0582610d9e565b604082019050919050565b60006020820190508181036000830152610e2981610ded565b9050919050565b7f746f20766f746500000000000000000000000000000000000000000000000000600082015250565b6000610e66600783610d8d565b9150610e7182610e30565b602082019050919050565b60006020820190508181036000830152610e9581610e59565b9050919050565b7f617574686f72697a656400000000000000000000000000000000000000000000600082015250565b6000610ed2600a83610d8d565b9150610edd82610e9c565b602082019050919050565b60006020820190508181036000830152610f0181610ec5565b9050919050565b7f63616c6c65722068617320766f74656400000000000000000000000000000000600082015250565b6000610f3e601083610d8d565b9150610f4982610f08565b602082019050919050565b60006020820190508181036000830152610f6d81610f31565b9050919050565b7f5468652063616c6c657220646f6573206e6f74206861766520766f74696e672060008201527f7269676874730000000000000000000000000000000000000000000000000000602082015250565b6000610fd0602683610d8d565b9150610fdb82610f74565b604082019050919050565b60006020820190508181036000830152610fff81610fc3565b9050919050565b7f4e487b7100000000000000000000000000000000000000000000000000000000600052603260045260246000fd5b7f4e487b7100000000000000000000000000000000000000000000000000000000600052601160045260246000fd5b600061106f82610bc4565b915061107a83610bc4565b9250827fffffffffffffffffffffffffffffffffffffffffffffffffffffffffffffffff038211156110af576110ae611035565b5b828201905092915050565b60006110c582610bc4565b91507fffffffffffffffffffffffffffffffffffffffffffffffffffffffffffffffff82036110f7576110f6611035565b5b600182019050919050565b7f54686520656e7472757374656420706572736f6e2069732068696d73656c6600600082015250565b6000611138601f83610d8d565b915061114382611102565b602082019050919050565b600060208201905081810360008301526111678161112b565b9050919050565b7f44656c65676174656420636c6f736564206c6f6f700000000000000000000000600082015250565b60006111a4601583610d8d565b91506111af8261116e565b602082019050919050565b600060208201905081810360008301526111d381611197565b9050919050565b7f54686520656e74727573746564206164647265737320697320696c6c6567616c600082015250565b6000611210602083610d8d565b915061121b826111da565b602082019050919050565b6000602082019050818103600083015261123f81611203565b905091905056fea264697066735822122086b9f3c952abc68c5596d403181f9f0dd2f616e954a007ec115c6df9fcb2d7f564736f6c634300080d0033",
					"opcodes": "PUSH1 0x80 PUSH1 0x40 MSTORE CALLVALUE DUP1 ISZERO PUSH3 0x11 JUMPI PUSH1 0x0 DUP1 REVERT JUMPDEST POP PUSH1 0x40 MLOAD PUSH3 0x166C CODESIZE SUB DUP1 PUSH3 0x166C DUP4 CODECOPY DUP2 DUP2 ADD PUSH1 0x40 MSTORE DUP2 ADD SWAP1 PUSH3 0x37 SWAP2 SWAP1 PUSH3 0x2DA JUMP JUMPDEST CALLER PUSH1 0x0 DUP1 PUSH2 0x100 EXP DUP2 SLOAD DUP2 PUSH20 0xFFFFFFFFFFFFFFFFFFFFFFFFFFFFFFFFFFFFFFFF MUL NOT AND SWAP1 DUP4 PUSH20 0xFFFFFFFFFFFFFFFFFFFFFFFFFFFFFFFFFFFFFFFF AND MUL OR SWAP1 SSTORE POP PUSH1 0x0 JUMPDEST DUP2 MLOAD DUP2 LT ISZERO PUSH3 0x10E JUMPI PUSH1 0x1 PUSH1 0x40 MLOAD DUP1 PUSH1 0x40 ADD PUSH1 0x40 MSTORE DUP1 DUP5 DUP5 DUP2 MLOAD DUP2 LT PUSH3 0xA7 JUMPI PUSH3 0xA6 PUSH3 0x32B JUMP JUMPDEST JUMPDEST PUSH1 0x20 MUL PUSH1 0x20 ADD ADD MLOAD DUP2 MSTORE PUSH1 0x20 ADD PUSH1 0x0 DUP2 MSTORE POP SWAP1 DUP1 PUSH1 0x1 DUP2 SLOAD ADD DUP1 DUP3 SSTORE DUP1 SWAP2 POP POP PUSH1 0x1 SWAP1 SUB SWAP1 PUSH1 0x0 MSTORE PUSH1 0x20 PUSH1 0x0 KECCAK256 SWAP1 PUSH1 0x2 MUL ADD PUSH1 0x0 SWAP1 SWAP2 SWAP1 SWAP2 SWAP1 SWAP2 POP PUSH1 0x0 DUP3 ADD MLOAD DUP2 PUSH1 0x0 ADD SSTORE PUSH1 0x20 DUP3 ADD MLOAD DUP2 PUSH1 0x1 ADD SSTORE POP POP DUP1 DUP1 PUSH3 0x105 SWAP1 PUSH3 0x393 JUMP JUMPDEST SWAP2 POP POP PUSH3 0x7A JUMP JUMPDEST POP POP PUSH3 0x3E0 JUMP JUMPDEST PUSH1 0x0 PUSH1 0x40 MLOAD SWAP1 POP SWAP1 JUMP JUMPDEST PUSH1 0x0 DUP1 REVERT JUMPDEST PUSH1 0x0 DUP1 REVERT JUMPDEST PUSH1 0x0 DUP1 REVERT JUMPDEST PUSH1 0x0 PUSH1 0x1F NOT PUSH1 0x1F DUP4 ADD AND SWAP1 POP SWAP2 SWAP1 POP JUMP JUMPDEST PUSH32 0x4E487B7100000000000000000000000000000000000000000000000000000000 PUSH1 0x0 MSTORE PUSH1 0x41 PUSH1 0x4 MSTORE PUSH1 0x24 PUSH1 0x0 REVERT JUMPDEST PUSH3 0x17A DUP3 PUSH3 0x12F JUMP JUMPDEST DUP2 ADD DUP2 DUP2 LT PUSH8 0xFFFFFFFFFFFFFFFF DUP3 GT OR ISZERO PUSH3 0x19C JUMPI PUSH3 0x19B PUSH3 0x140 JUMP JUMPDEST JUMPDEST DUP1 PUSH1 0x40 MSTORE POP POP POP JUMP JUMPDEST PUSH1 0x0 PUSH3 0x1B1 PUSH3 0x116 JUMP JUMPDEST SWAP1 POP PUSH3 0x1BF DUP3 DUP3 PUSH3 0x16F JUMP JUMPDEST SWAP2 SWAP1 POP JUMP JUMPDEST PUSH1 0x0 PUSH8 0xFFFFFFFFFFFFFFFF DUP3 GT ISZERO PUSH3 0x1E2 JUMPI PUSH3 0x1E1 PUSH3 0x140 JUMP JUMPDEST JUMPDEST PUSH1 0x20 DUP3 MUL SWAP1 POP PUSH1 0x20 DUP2 ADD SWAP1 POP SWAP2 SWAP1 POP JUMP JUMPDEST PUSH1 0x0 DUP1 REVERT JUMPDEST PUSH1 0x0 DUP2 SWAP1 POP SWAP2 SWAP1 POP JUMP JUMPDEST PUSH3 0x20D DUP2 PUSH3 0x1F8 JUMP JUMPDEST DUP2 EQ PUSH3 0x219 JUMPI PUSH1 0x0 DUP1 REVERT JUMPDEST POP JUMP JUMPDEST PUSH1 0x0 DUP2 MLOAD SWAP1 POP PUSH3 0x22D DUP2 PUSH3 0x202 JUMP JUMPDEST SWAP3 SWAP2 POP POP JUMP JUMPDEST PUSH1 0x0 PUSH3 0x24A PUSH3 0x244 DUP5 PUSH3 0x1C4 JUMP JUMPDEST PUSH3 0x1A5 JUMP JUMPDEST SWAP1 POP DUP1 DUP4 DUP3 MSTORE PUSH1 0x20 DUP3 ADD SWAP1 POP PUSH1 0x20 DUP5 MUL DUP4 ADD DUP6 DUP2 GT ISZERO PUSH3 0x270 JUMPI PUSH3 0x26F PUSH3 0x1F3 JUMP JUMPDEST JUMPDEST DUP4 JUMPDEST DUP2 DUP2 LT ISZERO PUSH3 0x29D JUMPI DUP1 PUSH3 0x288 DUP9 DUP3 PUSH3 0x21C JUMP JUMPDEST DUP5 MSTORE PUSH1 0x20 DUP5 ADD SWAP4 POP POP PUSH1 0x20 DUP2 ADD SWAP1 POP PUSH3 0x272 JUMP JUMPDEST POP POP POP SWAP4 SWAP3 POP POP POP JUMP JUMPDEST PUSH1 0x0 DUP3 PUSH1 0x1F DUP4 ADD SLT PUSH3 0x2BF JUMPI PUSH3 0x2BE PUSH3 0x12A JUMP JUMPDEST JUMPDEST DUP2 MLOAD PUSH3 0x2D1 DUP5 DUP3 PUSH1 0x20 DUP7 ADD PUSH3 0x233 JUMP JUMPDEST SWAP2 POP POP SWAP3 SWAP2 POP POP JUMP JUMPDEST PUSH1 0x0 PUSH1 0x20 DUP3 DUP5 SUB SLT ISZERO PUSH3 0x2F3 JUMPI PUSH3 0x2F2 PUSH3 0x120 JUMP JUMPDEST JUMPDEST PUSH1 0x0 DUP3 ADD MLOAD PUSH8 0xFFFFFFFFFFFFFFFF DUP2 GT ISZERO PUSH3 0x314 JUMPI PUSH3 0x313 PUSH3 0x125 JUMP JUMPDEST JUMPDEST PUSH3 0x322 DUP5 DUP3 DUP6 ADD PUSH3 0x2A7 JUMP JUMPDEST SWAP2 POP POP SWAP3 SWAP2 POP POP JUMP JUMPDEST PUSH32 0x4E487B7100000000000000000000000000000000000000000000000000000000 PUSH1 0x0 MSTORE PUSH1 0x32 PUSH1 0x4 MSTORE PUSH1 0x24 PUSH1 0x0 REVERT JUMPDEST PUSH32 0x4E487B7100000000000000000000000000000000000000000000000000000000 PUSH1 0x0 MSTORE PUSH1 0x11 PUSH1 0x4 MSTORE PUSH1 0x24 PUSH1 0x0 REVERT JUMPDEST PUSH1 0x0 DUP2 SWAP1 POP SWAP2 SWAP1 POP JUMP JUMPDEST PUSH1 0x0 PUSH3 0x3A0 DUP3 PUSH3 0x389 JUMP JUMPDEST SWAP2 POP PUSH32 0xFFFFFFFFFFFFFFFFFFFFFFFFFFFFFFFFFFFFFFFFFFFFFFFFFFFFFFFFFFFFFFFF DUP3 SUB PUSH3 0x3D5 JUMPI PUSH3 0x3D4 PUSH3 0x35A JUMP JUMPDEST JUMPDEST PUSH1 0x1 DUP3 ADD SWAP1 POP SWAP2 SWAP1 POP JUMP JUMPDEST PUSH2 0x127C DUP1 PUSH3 0x3F0 PUSH1 0x0 CODECOPY PUSH1 0x0 RETURN INVALID PUSH1 0x80 PUSH1 0x40 MSTORE CALLVALUE DUP1 ISZERO PUSH2 0x10 JUMPI PUSH1 0x0 DUP1 REVERT JUMPDEST POP PUSH1 0x4 CALLDATASIZE LT PUSH2 0x7D JUMPI PUSH1 0x0 CALLDATALOAD PUSH1 0xE0 SHR DUP1 PUSH4 0x87F7B975 GT PUSH2 0x5B JUMPI DUP1 PUSH4 0x87F7B975 EQ PUSH2 0xEB JUMPI DUP1 PUSH4 0xA3C1885B EQ PUSH2 0x109 JUMPI DUP1 PUSH4 0xA3EC138D EQ PUSH2 0x128 JUMPI DUP1 PUSH4 0xAB9CD997 EQ PUSH2 0x15B JUMPI PUSH2 0x7D JUMP JUMPDEST DUP1 PUSH4 0x13CF08B EQ PUSH2 0x82 JUMPI DUP1 PUSH4 0x24845194 EQ PUSH2 0xB3 JUMPI DUP1 PUSH4 0x4E4C9676 EQ PUSH2 0xCF JUMPI JUMPDEST PUSH1 0x0 DUP1 REVERT JUMPDEST PUSH2 0x9C PUSH1 0x4 DUP1 CALLDATASIZE SUB DUP2 ADD SWAP1 PUSH2 0x97 SWAP2 SWAP1 PUSH2 0xBFA JUMP JUMPDEST PUSH2 0x177 JUMP JUMPDEST PUSH1 0x40 MLOAD PUSH2 0xAA SWAP3 SWAP2 SWAP1 PUSH2 0xC4F JUMP JUMPDEST PUSH1 0x40 MLOAD DUP1 SWAP2 SUB SWAP1 RETURN JUMPDEST PUSH2 0xCD PUSH1 0x4 DUP1 CALLDATASIZE SUB DUP2 ADD SWAP1 PUSH2 0xC8 SWAP2 SWAP1 PUSH2 0xCD6 JUMP JUMPDEST PUSH2 0x1AB JUMP JUMPDEST STOP JUMPDEST PUSH2 0xE9 PUSH1 0x4 DUP1 CALLDATASIZE SUB DUP2 ADD SWAP1 PUSH2 0xE4 SWAP2 SWAP1 PUSH2 0xBFA JUMP JUMPDEST PUSH2 0x399 JUMP JUMPDEST STOP JUMPDEST PUSH2 0xF3 PUSH2 0x52F JUMP JUMPDEST PUSH1 0x40 MLOAD PUSH2 0x100 SWAP2 SWAP1 PUSH2 0xD12 JUMP JUMPDEST PUSH1 0x40 MLOAD DUP1 SWAP2 SUB SWAP1 RETURN JUMPDEST PUSH2 0x111 PUSH2 0x553 JUMP JUMPDEST PUSH1 0x40 MLOAD PUSH2 0x11F SWAP3 SWAP2 SWAP1 PUSH2 0xC4F JUMP JUMPDEST PUSH1 0x40 MLOAD DUP1 SWAP2 SUB SWAP1 RETURN JUMPDEST PUSH2 0x142 PUSH1 0x4 DUP1 CALLDATASIZE SUB DUP2 ADD SWAP1 PUSH2 0x13D SWAP2 SWAP1 PUSH2 0xCD6 JUMP JUMPDEST PUSH2 0x5AA JUMP JUMPDEST PUSH1 0x40 MLOAD PUSH2 0x152 SWAP5 SWAP4 SWAP3 SWAP2 SWAP1 PUSH2 0xD48 JUMP JUMPDEST PUSH1 0x40 MLOAD DUP1 SWAP2 SUB SWAP1 RETURN JUMPDEST PUSH2 0x175 PUSH1 0x4 DUP1 CALLDATASIZE SUB DUP2 ADD SWAP1 PUSH2 0x170 SWAP2 SWAP1 PUSH2 0xCD6 JUMP JUMPDEST PUSH2 0x607 JUMP JUMPDEST STOP JUMPDEST PUSH1 0x1 DUP2 DUP2 SLOAD DUP2 LT PUSH2 0x187 JUMPI PUSH1 0x0 DUP1 REVERT JUMPDEST SWAP1 PUSH1 0x0 MSTORE PUSH1 0x20 PUSH1 0x0 KECCAK256 SWAP1 PUSH1 0x2 MUL ADD PUSH1 0x0 SWAP2 POP SWAP1 POP DUP1 PUSH1 0x0 ADD SLOAD SWAP1 DUP1 PUSH1 0x1 ADD SLOAD SWAP1 POP DUP3 JUMP JUMPDEST PUSH1 0x0 DUP1 SLOAD SWAP1 PUSH2 0x100 EXP SWAP1 DIV PUSH20 0xFFFFFFFFFFFFFFFFFFFFFFFFFFFFFFFFFFFFFFFF AND PUSH20 0xFFFFFFFFFFFFFFFFFFFFFFFFFFFFFFFFFFFFFFFF AND CALLER PUSH20 0xFFFFFFFFFFFFFFFFFFFFFFFFFFFFFFFFFFFFFFFF AND EQ PUSH2 0x239 JUMPI PUSH1 0x40 MLOAD PUSH32 0x8C379A000000000000000000000000000000000000000000000000000000000 DUP2 MSTORE PUSH1 0x4 ADD PUSH2 0x230 SWAP1 PUSH2 0xE10 JUMP JUMPDEST PUSH1 0x40 MLOAD DUP1 SWAP2 SUB SWAP1 REVERT JUMPDEST PUSH1 0x2 PUSH1 0x0 DUP3 PUSH20 0xFFFFFFFFFFFFFFFFFFFFFFFFFFFFFFFFFFFFFFFF AND PUSH20 0xFFFFFFFFFFFFFFFFFFFFFFFFFFFFFFFFFFFFFFFF AND DUP2 MSTORE PUSH1 0x20 ADD SWAP1 DUP2 MSTORE PUSH1 0x20 ADD PUSH1 0x0 KECCAK256 PUSH1 0x1 ADD PUSH1 0x14 SWAP1 SLOAD SWAP1 PUSH2 0x100 EXP SWAP1 DIV PUSH1 0xFF AND ISZERO PUSH2 0x2C9 JUMPI PUSH1 0x40 MLOAD PUSH32 0x8C379A000000000000000000000000000000000000000000000000000000000 DUP2 MSTORE PUSH1 0x4 ADD PUSH2 0x2C0 SWAP1 PUSH2 0xE7C JUMP JUMPDEST PUSH1 0x40 MLOAD DUP1 SWAP2 SUB SWAP1 REVERT JUMPDEST PUSH1 0x0 PUSH1 0x2 PUSH1 0x0 DUP4 PUSH20 0xFFFFFFFFFFFFFFFFFFFFFFFFFFFFFFFFFFFFFFFF AND PUSH20 0xFFFFFFFFFFFFFFFFFFFFFFFFFFFFFFFFFFFFFFFF AND DUP2 MSTORE PUSH1 0x20 ADD SWAP1 DUP2 MSTORE PUSH1 0x20 ADD PUSH1 0x0 KECCAK256 PUSH1 0x0 ADD SLOAD EQ PUSH2 0x34E JUMPI PUSH1 0x40 MLOAD PUSH32 0x8C379A000000000000000000000000000000000000000000000000000000000 DUP2 MSTORE PUSH1 0x4 ADD PUSH2 0x345 SWAP1 PUSH2 0xEE8 JUMP JUMPDEST PUSH1 0x40 MLOAD DUP1 SWAP2 SUB SWAP1 REVERT JUMPDEST PUSH1 0x1 PUSH1 0x2 PUSH1 0x0 DUP4 PUSH20 0xFFFFFFFFFFFFFFFFFFFFFFFFFFFFFFFFFFFFFFFF AND PUSH20 0xFFFFFFFFFFFFFFFFFFFFFFFFFFFFFFFFFFFFFFFF AND DUP2 MSTORE PUSH1 0x20 ADD SWAP1 DUP2 MSTORE PUSH1 0x20 ADD PUSH1 0x0 KECCAK256 PUSH1 0x0 ADD DUP2 SWAP1 SSTORE POP POP JUMP JUMPDEST PUSH1 0x2 PUSH1 0x0 CALLER PUSH20 0xFFFFFFFFFFFFFFFFFFFFFFFFFFFFFFFFFFFFFFFF AND PUSH20 0xFFFFFFFFFFFFFFFFFFFFFFFFFFFFFFFFFFFFFFFF AND DUP2 MSTORE PUSH1 0x20 ADD SWAP1 DUP2 MSTORE PUSH1 0x20 ADD PUSH1 0x0 KECCAK256 PUSH1 0x1 ADD PUSH1 0x14 SWAP1 SLOAD SWAP1 PUSH2 0x100 EXP SWAP1 DIV PUSH1 0xFF AND ISZERO PUSH2 0x429 JUMPI PUSH1 0x40 MLOAD PUSH32 0x8C379A000000000000000000000000000000000000000000000000000000000 DUP2 MSTORE PUSH1 0x4 ADD PUSH2 0x420 SWAP1 PUSH2 0xF54 JUMP JUMPDEST PUSH1 0x40 MLOAD DUP1 SWAP2 SUB SWAP1 REVERT JUMPDEST PUSH1 0x0 PUSH1 0x2 PUSH1 0x0 CALLER PUSH20 0xFFFFFFFFFFFFFFFFFFFFFFFFFFFFFFFFFFFFFFFF AND PUSH20 0xFFFFFFFFFFFFFFFFFFFFFFFFFFFFFFFFFFFFFFFF AND DUP2 MSTORE PUSH1 0x20 ADD SWAP1 DUP2 MSTORE PUSH1 0x20 ADD PUSH1 0x0 KECCAK256 PUSH1 0x0 ADD SLOAD SUB PUSH2 0x4AE JUMPI PUSH1 0x40 MLOAD PUSH32 0x8C379A000000000000000000000000000000000000000000000000000000000 DUP2 MSTORE PUSH1 0x4 ADD PUSH2 0x4A5 SWAP1 PUSH2 0xFE6 JUMP JUMPDEST PUSH1 0x40 MLOAD DUP1 SWAP2 SUB SWAP1 REVERT JUMPDEST PUSH1 0x2 PUSH1 0x0 CALLER PUSH20 0xFFFFFFFFFFFFFFFFFFFFFFFFFFFFFFFFFFFFFFFF AND PUSH20 0xFFFFFFFFFFFFFFFFFFFFFFFFFFFFFFFFFFFFFFFF AND DUP2 MSTORE PUSH1 0x20 ADD SWAP1 DUP2 MSTORE PUSH1 0x20 ADD PUSH1 0x0 KECCAK256 PUSH1 0x0 ADD SLOAD PUSH1 0x1 DUP3 DUP2 SLOAD DUP2 LT PUSH2 0x505 JUMPI PUSH2 0x504 PUSH2 0x1006 JUMP JUMPDEST JUMPDEST SWAP1 PUSH1 0x0 MSTORE PUSH1 0x20 PUSH1 0x0 KECCAK256 SWAP1 PUSH1 0x2 MUL ADD PUSH1 0x1 ADD PUSH1 0x0 DUP3 DUP3 SLOAD PUSH2 0x525 SWAP2 SWAP1 PUSH2 0x1064 JUMP JUMPDEST SWAP3 POP POP DUP2 SWAP1 SSTORE POP POP JUMP JUMPDEST PUSH1 0x0 DUP1 SLOAD SWAP1 PUSH2 0x100 EXP SWAP1 DIV PUSH20 0xFFFFFFFFFFFFFFFFFFFFFFFFFFFFFFFFFFFFFFFF AND DUP2 JUMP JUMPDEST PUSH1 0x0 DUP1 PUSH1 0x0 DUP1 SHL SWAP2 POP PUSH1 0x0 SWAP1 POP PUSH1 0x0 JUMPDEST PUSH1 0x1 DUP1 SLOAD SWAP1 POP DUP2 LT ISZERO PUSH2 0x5A5 JUMPI DUP2 PUSH1 0x1 DUP3 DUP2 SLOAD DUP2 LT PUSH2 0x585 JUMPI PUSH2 0x584 PUSH2 0x1006 JUMP JUMPDEST JUMPDEST SWAP1 PUSH1 0x0 MSTORE PUSH1 0x20 PUSH1 0x0 KECCAK256 SWAP1 POP POP POP DUP1 DUP1 PUSH2 0x59D SWAP1 PUSH2 0x10BA JUMP JUMPDEST SWAP2 POP POP PUSH2 0x563 JUMP JUMPDEST POP SWAP1 SWAP2 JUMP JUMPDEST PUSH1 0x2 PUSH1 0x20 MSTORE DUP1 PUSH1 0x0 MSTORE PUSH1 0x40 PUSH1 0x0 KECCAK256 PUSH1 0x0 SWAP2 POP SWAP1 POP DUP1 PUSH1 0x0 ADD SLOAD SWAP1 DUP1 PUSH1 0x1 ADD PUSH1 0x0 SWAP1 SLOAD SWAP1 PUSH2 0x100 EXP SWAP1 DIV PUSH20 0xFFFFFFFFFFFFFFFFFFFFFFFFFFFFFFFFFFFFFFFF AND SWAP1 DUP1 PUSH1 0x1 ADD PUSH1 0x14 SWAP1 SLOAD SWAP1 PUSH2 0x100 EXP SWAP1 DIV PUSH1 0xFF AND SWAP1 DUP1 PUSH1 0x2 ADD SLOAD SWAP1 POP DUP5 JUMP JUMPDEST DUP1 PUSH20 0xFFFFFFFFFFFFFFFFFFFFFFFFFFFFFFFFFFFFFFFF AND CALLER PUSH20 0xFFFFFFFFFFFFFFFFFFFFFFFFFFFFFFFFFFFFFFFF AND SUB PUSH2 0x675 JUMPI PUSH1 0x40 MLOAD PUSH32 0x8C379A000000000000000000000000000000000000000000000000000000000 DUP2 MSTORE PUSH1 0x4 ADD PUSH2 0x66C SWAP1 PUSH2 0x114E JUMP JUMPDEST PUSH1 0x40 MLOAD DUP1 SWAP2 SUB SWAP1 REVERT JUMPDEST JUMPDEST PUSH1 0x0 PUSH20 0xFFFFFFFFFFFFFFFFFFFFFFFFFFFFFFFFFFFFFFFF AND PUSH1 0x2 PUSH1 0x0 DUP4 PUSH20 0xFFFFFFFFFFFFFFFFFFFFFFFFFFFFFFFFFFFFFFFF AND PUSH20 0xFFFFFFFFFFFFFFFFFFFFFFFFFFFFFFFFFFFFFFFF AND DUP2 MSTORE PUSH1 0x20 ADD SWAP1 DUP2 MSTORE PUSH1 0x20 ADD PUSH1 0x0 KECCAK256 PUSH1 0x1 ADD PUSH1 0x0 SWAP1 SLOAD SWAP1 PUSH2 0x100 EXP SWAP1 DIV PUSH20 0xFFFFFFFFFFFFFFFFFFFFFFFFFFFFFFFFFFFFFFFF AND PUSH20 0xFFFFFFFFFFFFFFFFFFFFFFFFFFFFFFFFFFFFFFFF AND EQ PUSH2 0x7E1 JUMPI CALLER PUSH20 0xFFFFFFFFFFFFFFFFFFFFFFFFFFFFFFFFFFFFFFFF AND PUSH1 0x2 PUSH1 0x0 DUP4 PUSH20 0xFFFFFFFFFFFFFFFFFFFFFFFFFFFFFFFFFFFFFFFF AND PUSH20 0xFFFFFFFFFFFFFFFFFFFFFFFFFFFFFFFFFFFFFFFF AND DUP2 MSTORE PUSH1 0x20 ADD SWAP1 DUP2 MSTORE PUSH1 0x20 ADD PUSH1 0x0 KECCAK256 PUSH1 0x1 ADD PUSH1 0x0 SWAP1 SLOAD SWAP1 PUSH2 0x100 EXP SWAP1 DIV PUSH20 0xFFFFFFFFFFFFFFFFFFFFFFFFFFFFFFFFFFFFFFFF AND PUSH20 0xFFFFFFFFFFFFFFFFFFFFFFFFFFFFFFFFFFFFFFFF AND SUB PUSH2 0x7DC JUMPI PUSH1 0x40 MLOAD PUSH32 0x8C379A000000000000000000000000000000000000000000000000000000000 DUP2 MSTORE PUSH1 0x4 ADD PUSH2 0x7D3 SWAP1 PUSH2 0x11BA JUMP JUMPDEST PUSH1 0x40 MLOAD DUP1 SWAP2 SUB SWAP1 REVERT JUMPDEST PUSH2 0x676 JUMP JUMPDEST PUSH1 0x2 PUSH1 0x0 CALLER PUSH20 0xFFFFFFFFFFFFFFFFFFFFFFFFFFFFFFFFFFFFFFFF AND PUSH20 0xFFFFFFFFFFFFFFFFFFFFFFFFFFFFFFFFFFFFFFFF AND DUP2 MSTORE PUSH1 0x20 ADD SWAP1 DUP2 MSTORE PUSH1 0x20 ADD PUSH1 0x0 KECCAK256 PUSH1 0x1 ADD PUSH1 0x14 SWAP1 SLOAD SWAP1 PUSH2 0x100 EXP SWAP1 DIV PUSH1 0xFF AND ISZERO PUSH2 0x871 JUMPI PUSH1 0x40 MLOAD PUSH32 0x8C379A000000000000000000000000000000000000000000000000000000000 DUP2 MSTORE PUSH1 0x4 ADD PUSH2 0x868 SWAP1 PUSH2 0xF54 JUMP JUMPDEST PUSH1 0x40 MLOAD DUP1 SWAP2 SUB SWAP1 REVERT JUMPDEST PUSH1 0x0 PUSH1 0x2 PUSH1 0x0 CALLER PUSH20 0xFFFFFFFFFFFFFFFFFFFFFFFFFFFFFFFFFFFFFFFF AND PUSH20 0xFFFFFFFFFFFFFFFFFFFFFFFFFFFFFFFFFFFFFFFF AND DUP2 MSTORE PUSH1 0x20 ADD SWAP1 DUP2 MSTORE PUSH1 0x20 ADD PUSH1 0x0 KECCAK256 PUSH1 0x0 ADD SLOAD SUB PUSH2 0x8F6 JUMPI PUSH1 0x40 MLOAD PUSH32 0x8C379A000000000000000000000000000000000000000000000000000000000 DUP2 MSTORE PUSH1 0x4 ADD PUSH2 0x8ED SWAP1 PUSH2 0xFE6 JUMP JUMPDEST PUSH1 0x40 MLOAD DUP1 SWAP2 SUB SWAP1 REVERT JUMPDEST PUSH1 0x0 PUSH20 0xFFFFFFFFFFFFFFFFFFFFFFFFFFFFFFFFFFFFFFFF AND DUP2 PUSH20 0xFFFFFFFFFFFFFFFFFFFFFFFFFFFFFFFFFFFFFFFF AND SUB PUSH2 0x965 JUMPI PUSH1 0x40 MLOAD PUSH32 0x8C379A000000000000000000000000000000000000000000000000000000000 DUP2 MSTORE PUSH1 0x4 ADD PUSH2 0x95C SWAP1 PUSH2 0x1226 JUMP JUMPDEST PUSH1 0x40 MLOAD DUP1 SWAP2 SUB SWAP1 REVERT JUMPDEST DUP1 PUSH1 0x2 PUSH1 0x0 CALLER PUSH20 0xFFFFFFFFFFFFFFFFFFFFFFFFFFFFFFFFFFFFFFFF AND PUSH20 0xFFFFFFFFFFFFFFFFFFFFFFFFFFFFFFFFFFFFFFFF AND DUP2 MSTORE PUSH1 0x20 ADD SWAP1 DUP2 MSTORE PUSH1 0x20 ADD PUSH1 0x0 KECCAK256 PUSH1 0x1 ADD PUSH1 0x0 PUSH2 0x100 EXP DUP2 SLOAD DUP2 PUSH20 0xFFFFFFFFFFFFFFFFFFFFFFFFFFFFFFFFFFFFFFFF MUL NOT AND SWAP1 DUP4 PUSH20 0xFFFFFFFFFFFFFFFFFFFFFFFFFFFFFFFFFFFFFFFF AND MUL OR SWAP1 SSTORE POP PUSH1 0x0 PUSH1 0x2 PUSH1 0x0 CALLER PUSH20 0xFFFFFFFFFFFFFFFFFFFFFFFFFFFFFFFFFFFFFFFF AND PUSH20 0xFFFFFFFFFFFFFFFFFFFFFFFFFFFFFFFFFFFFFFFF AND DUP2 MSTORE PUSH1 0x20 ADD SWAP1 DUP2 MSTORE PUSH1 0x20 ADD PUSH1 0x0 KECCAK256 PUSH1 0x0 ADD DUP2 SWAP1 SSTORE POP PUSH1 0x1 PUSH1 0x2 PUSH1 0x0 CALLER PUSH20 0xFFFFFFFFFFFFFFFFFFFFFFFFFFFFFFFFFFFFFFFF AND PUSH20 0xFFFFFFFFFFFFFFFFFFFFFFFFFFFFFFFFFFFFFFFF AND DUP2 MSTORE PUSH1 0x20 ADD SWAP1 DUP2 MSTORE PUSH1 0x20 ADD PUSH1 0x0 KECCAK256 PUSH1 0x1 ADD PUSH1 0x14 PUSH2 0x100 EXP DUP2 SLOAD DUP2 PUSH1 0xFF MUL NOT AND SWAP1 DUP4 ISZERO ISZERO MUL OR SWAP1 SSTORE POP PUSH1 0x2 PUSH1 0x0 DUP3 PUSH20 0xFFFFFFFFFFFFFFFFFFFFFFFFFFFFFFFFFFFFFFFF AND PUSH20 0xFFFFFFFFFFFFFFFFFFFFFFFFFFFFFFFFFFFFFFFF AND DUP2 MSTORE PUSH1 0x20 ADD SWAP1 DUP2 MSTORE PUSH1 0x20 ADD PUSH1 0x0 KECCAK256 PUSH1 0x1 ADD PUSH1 0x14 SWAP1 SLOAD SWAP1 PUSH2 0x100 EXP SWAP1 DIV PUSH1 0xFF AND ISZERO PUSH2 0xB61 JUMPI PUSH1 0x1 DUP1 PUSH1 0x2 PUSH1 0x0 DUP5 PUSH20 0xFFFFFFFFFFFFFFFFFFFFFFFFFFFFFFFFFFFFFFFF AND PUSH20 0xFFFFFFFFFFFFFFFFFFFFFFFFFFFFFFFFFFFFFFFF AND DUP2 MSTORE PUSH1 0x20 ADD SWAP1 DUP2 MSTORE PUSH1 0x20 ADD PUSH1 0x0 KECCAK256 PUSH1 0x2 ADD SLOAD DUP2 SLOAD DUP2 LT PUSH2 0xB35 JUMPI PUSH2 0xB34 PUSH2 0x1006 JUMP JUMPDEST JUMPDEST SWAP1 PUSH1 0x0 MSTORE PUSH1 0x20 PUSH1 0x0 KECCAK256 SWAP1 PUSH1 0x2 MUL ADD PUSH1 0x1 ADD PUSH1 0x0 DUP3 DUP3 SLOAD PUSH2 0xB55 SWAP2 SWAP1 PUSH2 0x1064 JUMP JUMPDEST SWAP3 POP POP DUP2 SWAP1 SSTORE POP PUSH2 0xBBC JUMP JUMPDEST PUSH1 0x1 PUSH1 0x2 PUSH1 0x0 DUP4 PUSH20 0xFFFFFFFFFFFFFFFFFFFFFFFFFFFFFFFFFFFFFFFF AND PUSH20 0xFFFFFFFFFFFFFFFFFFFFFFFFFFFFFFFFFFFFFFFF AND DUP2 MSTORE PUSH1 0x20 ADD SWAP1 DUP2 MSTORE PUSH1 0x20 ADD PUSH1 0x0 KECCAK256 PUSH1 0x0 ADD PUSH1 0x0 DUP3 DUP3 SLOAD PUSH2 0xBB4 SWAP2 SWAP1 PUSH2 0x1064 JUMP JUMPDEST SWAP3 POP POP DUP2 SWAP1 SSTORE POP JUMPDEST POP JUMP JUMPDEST PUSH1 0x0 DUP1 REVERT JUMPDEST PUSH1 0x0 DUP2 SWAP1 POP SWAP2 SWAP1 POP JUMP JUMPDEST PUSH2 0xBD7 DUP2 PUSH2 0xBC4 JUMP JUMPDEST DUP2 EQ PUSH2 0xBE2 JUMPI PUSH1 0x0 DUP1 REVERT JUMPDEST POP JUMP JUMPDEST PUSH1 0x0 DUP2 CALLDATALOAD SWAP1 POP PUSH2 0xBF4 DUP2 PUSH2 0xBCE JUMP JUMPDEST SWAP3 SWAP2 POP POP JUMP JUMPDEST PUSH1 0x0 PUSH1 0x20 DUP3 DUP5 SUB SLT ISZERO PUSH2 0xC10 JUMPI PUSH2 0xC0F PUSH2 0xBBF JUMP JUMPDEST JUMPDEST PUSH1 0x0 PUSH2 0xC1E DUP5 DUP3 DUP6 ADD PUSH2 0xBE5 JUMP JUMPDEST SWAP2 POP POP SWAP3 SWAP2 POP POP JUMP JUMPDEST PUSH1 0x0 DUP2 SWAP1 POP SWAP2 SWAP1 POP JUMP JUMPDEST PUSH2 0xC3A DUP2 PUSH2 0xC27 JUMP JUMPDEST DUP3 MSTORE POP POP JUMP JUMPDEST PUSH2 0xC49 DUP2 PUSH2 0xBC4 JUMP JUMPDEST DUP3 MSTORE POP POP JUMP JUMPDEST PUSH1 0x0 PUSH1 0x40 DUP3 ADD SWAP1 POP PUSH2 0xC64 PUSH1 0x0 DUP4 ADD DUP6 PUSH2 0xC31 JUMP JUMPDEST PUSH2 0xC71 PUSH1 0x20 DUP4 ADD DUP5 PUSH2 0xC40 JUMP JUMPDEST SWAP4 SWAP3 POP POP POP JUMP JUMPDEST PUSH1 0x0 PUSH20 0xFFFFFFFFFFFFFFFFFFFFFFFFFFFFFFFFFFFFFFFF DUP3 AND SWAP1 POP SWAP2 SWAP1 POP JUMP JUMPDEST PUSH1 0x0 PUSH2 0xCA3 DUP3 PUSH2 0xC78 JUMP JUMPDEST SWAP1 POP SWAP2 SWAP1 POP JUMP JUMPDEST PUSH2 0xCB3 DUP2 PUSH2 0xC98 JUMP JUMPDEST DUP2 EQ PUSH2 0xCBE JUMPI PUSH1 0x0 DUP1 REVERT JUMPDEST POP JUMP JUMPDEST PUSH1 0x0 DUP2 CALLDATALOAD SWAP1 POP PUSH2 0xCD0 DUP2 PUSH2 0xCAA JUMP JUMPDEST SWAP3 SWAP2 POP POP JUMP JUMPDEST PUSH1 0x0 PUSH1 0x20 DUP3 DUP5 SUB SLT ISZERO PUSH2 0xCEC JUMPI PUSH2 0xCEB PUSH2 0xBBF JUMP JUMPDEST JUMPDEST PUSH1 0x0 PUSH2 0xCFA DUP5 DUP3 DUP6 ADD PUSH2 0xCC1 JUMP JUMPDEST SWAP2 POP POP SWAP3 SWAP2 POP POP JUMP JUMPDEST PUSH2 0xD0C DUP2 PUSH2 0xC98 JUMP JUMPDEST DUP3 MSTORE POP POP JUMP JUMPDEST PUSH1 0x0 PUSH1 0x20 DUP3 ADD SWAP1 POP PUSH2 0xD27 PUSH1 0x0 DUP4 ADD DUP5 PUSH2 0xD03 JUMP JUMPDEST SWAP3 SWAP2 POP POP JUMP JUMPDEST PUSH1 0x0 DUP2 ISZERO ISZERO SWAP1 POP SWAP2 SWAP1 POP JUMP JUMPDEST PUSH2 0xD42 DUP2 PUSH2 0xD2D JUMP JUMPDEST DUP3 MSTORE POP POP JUMP JUMPDEST PUSH1 0x0 PUSH1 0x80 DUP3 ADD SWAP1 POP PUSH2 0xD5D PUSH1 0x0 DUP4 ADD DUP8 PUSH2 0xC40 JUMP JUMPDEST PUSH2 0xD6A PUSH1 0x20 DUP4 ADD DUP7 PUSH2 0xD03 JUMP JUMPDEST PUSH2 0xD77 PUSH1 0x40 DUP4 ADD DUP6 PUSH2 0xD39 JUMP JUMPDEST PUSH2 0xD84 PUSH1 0x60 DUP4 ADD DUP5 PUSH2 0xC40 JUMP JUMPDEST SWAP6 SWAP5 POP POP POP POP POP JUMP JUMPDEST PUSH1 0x0 DUP3 DUP3 MSTORE PUSH1 0x20 DUP3 ADD SWAP1 POP SWAP3 SWAP2 POP POP JUMP JUMPDEST PUSH32 0x5468652063616C6C6572206973206E6F7420746865206368616972706572736F PUSH1 0x0 DUP3 ADD MSTORE PUSH32 0x6E00000000000000000000000000000000000000000000000000000000000000 PUSH1 0x20 DUP3 ADD MSTORE POP JUMP JUMPDEST PUSH1 0x0 PUSH2 0xDFA PUSH1 0x21 DUP4 PUSH2 0xD8D JUMP JUMPDEST SWAP2 POP PUSH2 0xE05 DUP3 PUSH2 0xD9E JUMP JUMPDEST PUSH1 0x40 DUP3 ADD SWAP1 POP SWAP2 SWAP1 POP JUMP JUMPDEST PUSH1 0x0 PUSH1 0x20 DUP3 ADD SWAP1 POP DUP2 DUP2 SUB PUSH1 0x0 DUP4 ADD MSTORE PUSH2 0xE29 DUP2 PUSH2 0xDED JUMP JUMPDEST SWAP1 POP SWAP2 SWAP1 POP JUMP JUMPDEST PUSH32 0x746F20766F746500000000000000000000000000000000000000000000000000 PUSH1 0x0 DUP3 ADD MSTORE POP JUMP JUMPDEST PUSH1 0x0 PUSH2 0xE66 PUSH1 0x7 DUP4 PUSH2 0xD8D JUMP JUMPDEST SWAP2 POP PUSH2 0xE71 DUP3 PUSH2 0xE30 JUMP JUMPDEST PUSH1 0x20 DUP3 ADD SWAP1 POP SWAP2 SWAP1 POP JUMP JUMPDEST PUSH1 0x0 PUSH1 0x20 DUP3 ADD SWAP1 POP DUP2 DUP2 SUB PUSH1 0x0 DUP4 ADD MSTORE PUSH2 0xE95 DUP2 PUSH2 0xE59 JUMP JUMPDEST SWAP1 POP SWAP2 SWAP1 POP JUMP JUMPDEST PUSH32 0x617574686F72697A656400000000000000000000000000000000000000000000 PUSH1 0x0 DUP3 ADD MSTORE POP JUMP JUMPDEST PUSH1 0x0 PUSH2 0xED2 PUSH1 0xA DUP4 PUSH2 0xD8D JUMP JUMPDEST SWAP2 POP PUSH2 0xEDD DUP3 PUSH2 0xE9C JUMP JUMPDEST PUSH1 0x20 DUP3 ADD SWAP1 POP SWAP2 SWAP1 POP JUMP JUMPDEST PUSH1 0x0 PUSH1 0x20 DUP3 ADD SWAP1 POP DUP2 DUP2 SUB PUSH1 0x0 DUP4 ADD MSTORE PUSH2 0xF01 DUP2 PUSH2 0xEC5 JUMP JUMPDEST SWAP1 POP SWAP2 SWAP1 POP JUMP JUMPDEST PUSH32 0x63616C6C65722068617320766F74656400000000000000000000000000000000 PUSH1 0x0 DUP3 ADD MSTORE POP JUMP JUMPDEST PUSH1 0x0 PUSH2 0xF3E PUSH1 0x10 DUP4 PUSH2 0xD8D JUMP JUMPDEST SWAP2 POP PUSH2 0xF49 DUP3 PUSH2 0xF08 JUMP JUMPDEST PUSH1 0x20 DUP3 ADD SWAP1 POP SWAP2 SWAP1 POP JUMP JUMPDEST PUSH1 0x0 PUSH1 0x20 DUP3 ADD SWAP1 POP DUP2 DUP2 SUB PUSH1 0x0 DUP4 ADD MSTORE PUSH2 0xF6D DUP2 PUSH2 0xF31 JUMP JUMPDEST SWAP1 POP SWAP2 SWAP1 POP JUMP JUMPDEST PUSH32 0x5468652063616C6C657220646F6573206E6F74206861766520766F74696E6720 PUSH1 0x0 DUP3 ADD MSTORE PUSH32 0x7269676874730000000000000000000000000000000000000000000000000000 PUSH1 0x20 DUP3 ADD MSTORE POP JUMP JUMPDEST PUSH1 0x0 PUSH2 0xFD0 PUSH1 0x26 DUP4 PUSH2 0xD8D JUMP JUMPDEST SWAP2 POP PUSH2 0xFDB DUP3 PUSH2 0xF74 JUMP JUMPDEST PUSH1 0x40 DUP3 ADD SWAP1 POP SWAP2 SWAP1 POP JUMP JUMPDEST PUSH1 0x0 PUSH1 0x20 DUP3 ADD SWAP1 POP DUP2 DUP2 SUB PUSH1 0x0 DUP4 ADD MSTORE PUSH2 0xFFF DUP2 PUSH2 0xFC3 JUMP JUMPDEST SWAP1 POP SWAP2 SWAP1 POP JUMP JUMPDEST PUSH32 0x4E487B7100000000000000000000000000000000000000000000000000000000 PUSH1 0x0 MSTORE PUSH1 0x32 PUSH1 0x4 MSTORE PUSH1 0x24 PUSH1 0x0 REVERT JUMPDEST PUSH32 0x4E487B7100000000000000000000000000000000000000000000000000000000 PUSH1 0x0 MSTORE PUSH1 0x11 PUSH1 0x4 MSTORE PUSH1 0x24 PUSH1 0x0 REVERT JUMPDEST PUSH1 0x0 PUSH2 0x106F DUP3 PUSH2 0xBC4 JUMP JUMPDEST SWAP2 POP PUSH2 0x107A DUP4 PUSH2 0xBC4 JUMP JUMPDEST SWAP3 POP DUP3 PUSH32 0xFFFFFFFFFFFFFFFFFFFFFFFFFFFFFFFFFFFFFFFFFFFFFFFFFFFFFFFFFFFFFFFF SUB DUP3 GT ISZERO PUSH2 0x10AF JUMPI PUSH2 0x10AE PUSH2 0x1035 JUMP JUMPDEST JUMPDEST DUP3 DUP3 ADD SWAP1 POP SWAP3 SWAP2 POP POP JUMP JUMPDEST PUSH1 0x0 PUSH2 0x10C5 DUP3 PUSH2 0xBC4 JUMP JUMPDEST SWAP2 POP PUSH32 0xFFFFFFFFFFFFFFFFFFFFFFFFFFFFFFFFFFFFFFFFFFFFFFFFFFFFFFFFFFFFFFFF DUP3 SUB PUSH2 0x10F7 JUMPI PUSH2 0x10F6 PUSH2 0x1035 JUMP JUMPDEST JUMPDEST PUSH1 0x1 DUP3 ADD SWAP1 POP SWAP2 SWAP1 POP JUMP JUMPDEST PUSH32 0x54686520656E7472757374656420706572736F6E2069732068696D73656C6600 PUSH1 0x0 DUP3 ADD MSTORE POP JUMP JUMPDEST PUSH1 0x0 PUSH2 0x1138 PUSH1 0x1F DUP4 PUSH2 0xD8D JUMP JUMPDEST SWAP2 POP PUSH2 0x1143 DUP3 PUSH2 0x1102 JUMP JUMPDEST PUSH1 0x20 DUP3 ADD SWAP1 POP SWAP2 SWAP1 POP JUMP JUMPDEST PUSH1 0x0 PUSH1 0x20 DUP3 ADD SWAP1 POP DUP2 DUP2 SUB PUSH1 0x0 DUP4 ADD MSTORE PUSH2 0x1167 DUP2 PUSH2 0x112B JUMP JUMPDEST SWAP1 POP SWAP2 SWAP1 POP JUMP JUMPDEST PUSH32 0x44656C65676174656420636C6F736564206C6F6F700000000000000000000000 PUSH1 0x0 DUP3 ADD MSTORE POP JUMP JUMPDEST PUSH1 0x0 PUSH2 0x11A4 PUSH1 0x15 DUP4 PUSH2 0xD8D JUMP JUMPDEST SWAP2 POP PUSH2 0x11AF DUP3 PUSH2 0x116E JUMP JUMPDEST PUSH1 0x20 DUP3 ADD SWAP1 POP SWAP2 SWAP1 POP JUMP JUMPDEST PUSH1 0x0 PUSH1 0x20 DUP3 ADD SWAP1 POP DUP2 DUP2 SUB PUSH1 0x0 DUP4 ADD MSTORE PUSH2 0x11D3 DUP2 PUSH2 0x1197 JUMP JUMPDEST SWAP1 POP SWAP2 SWAP1 POP JUMP JUMPDEST PUSH32 0x54686520656E74727573746564206164647265737320697320696C6C6567616C PUSH1 0x0 DUP3 ADD MSTORE POP JUMP JUMPDEST PUSH1 0x0 PUSH2 0x1210 PUSH1 0x20 DUP4 PUSH2 0xD8D JUMP JUMPDEST SWAP2 POP PUSH2 0x121B DUP3 PUSH2 0x11DA JUMP JUMPDEST PUSH1 0x20 DUP3 ADD SWAP1 POP SWAP2 SWAP1 POP JUMP JUMPDEST PUSH1 0x0 PUSH1 0x20 DUP3 ADD SWAP1 POP DUP2 DUP2 SUB PUSH1 0x0 DUP4 ADD MSTORE PUSH2 0x123F DUP2 PUSH2 0x1203 JUMP JUMPDEST SWAP1 POP SWAP2 SWAP1 POP JUMP INVALID LOG2 PUSH5 0x6970667358 0x22 SLT KECCAK256 DUP7 0xB9 RETURN 0xC9 MSTORE 0xAB 0xC6 DUP13 SSTORE SWAP7 0xD4 SUB XOR 0x1F SWAP16 0xD 0xD2 0xF6 AND 0xE9 SLOAD LOG0 SMOD 0xEC GT 0x5C PUSH14 0xF9FCB2D7F564736F6C634300080D STOP CALLER "
				},
				"gasEstimates": {
					"creation": {
						"codeDepositCost": "946400",
						"executionCost": "infinite",
						"totalCost": "infinite"
					},
					"external": {
						"chairman()": "2511",
						"entrust(address)": "infinite",
						"getWinnerProposal()": "infinite",
						"giveAddressVote(address)": "29376",
						"proposals(uint256)": "infinite",
						"voters(address)": "infinite",
						"votiing(uint256)": "infinite"
					}
				},
				"methodIdentifiers": {
					"chairman()": "87f7b975",
					"entrust(address)": "ab9cd997",
					"getWinnerProposal()": "a3c1885b",
					"giveAddressVote(address)": "24845194",
					"proposals(uint256)": "013cf08b",
					"voters(address)": "a3ec138d",
					"votiing(uint256)": "4e4c9676"
				}
			},
			"userdoc": {
				"kind": "user",
				"methods": {},
				"version": 1
			}
		}
	}
}