{
	"contracts/Ballot.sol": {
		"Ballot": {
			"abi": [
				{
					"inputs": [
						{
							"internalType": "bytes32[]",
							"name": "proposalNames",
							"type": "bytes32[]"
						}
					],
					"stateMutability": "nonpayable",
					"type": "constructor"
				},
				{
					"inputs": [],
					"name": "chairperson",
					"outputs": [
						{
							"internalType": "address",
							"name": "",
							"type": "address"
						}
					],
					"stateMutability": "view",
					"type": "function"
				},
				{
					"inputs": [
						{
							"internalType": "address",
							"name": "to",
							"type": "address"
						}
					],
					"name": "delegate",
					"outputs": [],
					"stateMutability": "nonpayable",
					"type": "function"
				},
				{
					"inputs": [
						{
							"internalType": "address",
							"name": "voter",
							"type": "address"
						}
					],
					"name": "giveRightToVote",
					"outputs": [],
					"stateMutability": "nonpayable",
					"type": "function"
				},
				{
					"inputs": [
						{
							"internalType": "uint256",
							"name": "",
							"type": "uint256"
						}
					],
					"name": "proposals",
					"outputs": [
						{
							"internalType": "bytes32",
							"name": "name",
							"type": "bytes32"
						},
						{
							"internalType": "uint256",
							"name": "voteCount",
							"type": "uint256"
						}
					],
					"stateMutability": "view",
					"type": "function"
				},
				{
					"inputs": [
						{
							"internalType": "uint256",
							"name": "proposal",
							"type": "uint256"
						}
					],
					"name": "vote",
					"outputs": [],
					"stateMutability": "nonpayable",
					"type": "function"
				},
				{
					"inputs": [
						{
							"internalType": "address",
							"name": "",
							"type": "address"
						}
					],
					"name": "voters",
					"outputs": [
						{
							"internalType": "uint256",
							"name": "weight",
							"type": "uint256"
						},
						{
							"internalType": "bool",
							"name": "voted",
							"type": "bool"
						},
						{
							"internalType": "address",
							"name": "delegate",
							"type": "address"
						},
						{
							"internalType": "uint256",
							"name": "vote",
							"type": "uint256"
						}
					],
					"stateMutability": "view",
					"type": "function"
				},
				{
					"inputs": [],
					"name": "winningProposal",
					"outputs": [
						{
							"internalType": "uint256",
							"name": "winningProposal_",
							"type": "uint256"
						}
					],
					"stateMutability": "view",
					"type": "function"
				}
			],
			"devdoc": {
				"kind": "dev",
				"methods": {},
				"version": 1
			},
			"evm": {
				"assembly": "    /* \"contracts/Ballot.sol\":66:3331  contract Ballot {... */\n  mstore(0x40, 0x80)\n    /* \"contracts/Ballot.sol\":656:1060  constructor(bytes32[] memory proposalNames) {... */\n  callvalue\n  dup1\n  iszero\n  tag_1\n  jumpi\n  0x00\n  dup1\n  revert\ntag_1:\n  pop\n  mload(0x40)\n  sub(codesize, bytecodeSize)\n  dup1\n  bytecodeSize\n  dup4\n  codecopy\n  dup2\n  dup2\n  add\n  0x40\n  mstore\n  dup2\n  add\n  swap1\n  tag_2\n  swap2\n  swap1\n  tag_3\n  jump\t// in\ntag_2:\n    /* \"contracts/Ballot.sol\":747:757  msg.sender */\n  caller\n    /* \"contracts/Ballot.sol\":733:744  chairperson */\n  0x00\n  dup1\n    /* \"contracts/Ballot.sol\":733:757  chairperson = msg.sender */\n  0x0100\n  exp\n  dup2\n  sload\n  dup2\n  0xffffffffffffffffffffffffffffffffffffffff\n  mul\n  not\n  and\n  swap1\n  dup4\n  0xffffffffffffffffffffffffffffffffffffffff\n  and\n  mul\n  or\n  swap1\n  sstore\n  pop\n    /* \"contracts/Ballot.sol\":842:843  1 */\n  0x01\n    /* \"contracts/Ballot.sol\":813:819  voters */\n  dup1\n    /* \"contracts/Ballot.sol\":813:832  voters[chairperson] */\n  0x00\n    /* \"contracts/Ballot.sol\":820:831  chairperson */\n  dup1\n  0x00\n  swap1\n  sload\n  swap1\n  0x0100\n  exp\n  swap1\n  div\n  0xffffffffffffffffffffffffffffffffffffffff\n  and\n    /* \"contracts/Ballot.sol\":813:832  voters[chairperson] */\n  0xffffffffffffffffffffffffffffffffffffffff\n  and\n  0xffffffffffffffffffffffffffffffffffffffff\n  and\n  dup2\n  mstore\n  0x20\n  add\n  swap1\n  dup2\n  mstore\n  0x20\n  add\n  0x00\n  keccak256\n    /* \"contracts/Ballot.sol\":813:839  voters[chairperson].weight */\n  0x00\n  add\n    /* \"contracts/Ballot.sol\":813:843  voters[chairperson].weight = 1 */\n  dup2\n  swap1\n  sstore\n  pop\n    /* \"contracts/Ballot.sol\":893:899  uint i */\n  0x00\n    /* \"contracts/Ballot.sol\":888:1056  for (uint i=0; i<proposalNames.length; i++) {... */\ntag_6:\n    /* \"contracts/Ballot.sol\":905:918  proposalNames */\n  dup2\n    /* \"contracts/Ballot.sol\":905:925  proposalNames.length */\n  mload\n    /* \"contracts/Ballot.sol\":903:904  i */\n  dup2\n    /* \"contracts/Ballot.sol\":903:925  i<proposalNames.length */\n  lt\n    /* \"contracts/Ballot.sol\":888:1056  for (uint i=0; i<proposalNames.length; i++) {... */\n  iszero\n  tag_7\n  jumpi\n    /* \"contracts/Ballot.sol\":944:953  proposals */\n  0x02\n    /* \"contracts/Ballot.sol\":959:1046  Proposal({... */\n  mload(0x40)\n  dup1\n  0x40\n  add\n  0x40\n  mstore\n  dup1\n    /* \"contracts/Ballot.sol\":990:1003  proposalNames */\n  dup5\n    /* \"contracts/Ballot.sol\":1004:1005  i */\n  dup5\n    /* \"contracts/Ballot.sol\":990:1006  proposalNames[i] */\n  dup2\n  mload\n  dup2\n  lt\n  tag_9\n  jumpi\n  tag_10\n  tag_11\n  jump\t// in\ntag_10:\ntag_9:\n  0x20\n  mul\n  0x20\n  add\n  add\n  mload\n    /* \"contracts/Ballot.sol\":959:1046  Proposal({... */\n  dup2\n  mstore\n  0x20\n  add\n    /* \"contracts/Ballot.sol\":1032:1033  0 */\n  0x00\n    /* \"contracts/Ballot.sol\":959:1046  Proposal({... */\n  dup2\n  mstore\n  pop\n    /* \"contracts/Ballot.sol\":944:1047  proposals.push(Proposal({... */\n  swap1\n  dup1\n  0x01\n  dup2\n  sload\n  add\n  dup1\n  dup3\n  sstore\n  dup1\n  swap2\n  pop\n  pop\n  0x01\n  swap1\n  sub\n  swap1\n  0x00\n  mstore\n  keccak256(0x00, 0x20)\n  swap1\n  0x02\n  mul\n  add\n  0x00\n  swap1\n  swap2\n  swap1\n  swap2\n  swap1\n  swap2\n  pop\n  0x00\n  dup3\n  add\n  mload\n  dup2\n  0x00\n  add\n  sstore\n  0x20\n  dup3\n  add\n  mload\n  dup2\n  0x01\n  add\n  sstore\n  pop\n  pop\n    /* \"contracts/Ballot.sol\":927:930  i++ */\n  dup1\n  dup1\n  tag_13\n  swap1\n  tag_14\n  jump\t// in\ntag_13:\n  swap2\n  pop\n  pop\n    /* \"contracts/Ballot.sol\":888:1056  for (uint i=0; i<proposalNames.length; i++) {... */\n  jump(tag_6)\ntag_7:\n  pop\n    /* \"contracts/Ballot.sol\":656:1060  constructor(bytes32[] memory proposalNames) {... */\n  pop\n    /* \"contracts/Ballot.sol\":66:3331  contract Ballot {... */\n  jump(tag_15)\n    /* \"#utility.yul\":7:82   */\ntag_16:\n    /* \"#utility.yul\":40:46   */\n  0x00\n    /* \"#utility.yul\":73:75   */\n  0x40\n    /* \"#utility.yul\":67:76   */\n  mload\n    /* \"#utility.yul\":57:76   */\n  swap1\n  pop\n    /* \"#utility.yul\":7:82   */\n  swap1\n  jump\t// out\n    /* \"#utility.yul\":88:205   */\ntag_17:\n    /* \"#utility.yul\":197:198   */\n  0x00\n    /* \"#utility.yul\":194:195   */\n  dup1\n    /* \"#utility.yul\":187:199   */\n  revert\n    /* \"#utility.yul\":211:328   */\ntag_18:\n    /* \"#utility.yul\":320:321   */\n  0x00\n    /* \"#utility.yul\":317:318   */\n  dup1\n    /* \"#utility.yul\":310:322   */\n  revert\n    /* \"#utility.yul\":334:451   */\ntag_19:\n    /* \"#utility.yul\":443:444   */\n  0x00\n    /* \"#utility.yul\":440:441   */\n  dup1\n    /* \"#utility.yul\":433:445   */\n  revert\n    /* \"#utility.yul\":457:559   */\ntag_20:\n    /* \"#utility.yul\":498:504   */\n  0x00\n    /* \"#utility.yul\":549:551   */\n  0x1f\n    /* \"#utility.yul\":545:552   */\n  not\n    /* \"#utility.yul\":540:542   */\n  0x1f\n    /* \"#utility.yul\":533:538   */\n  dup4\n    /* \"#utility.yul\":529:543   */\n  add\n    /* \"#utility.yul\":525:553   */\n  and\n    /* \"#utility.yul\":515:553   */\n  swap1\n  pop\n    /* \"#utility.yul\":457:559   */\n  swap2\n  swap1\n  pop\n  jump\t// out\n    /* \"#utility.yul\":565:745   */\ntag_21:\n    /* \"#utility.yul\":613:690   */\n  0x4e487b7100000000000000000000000000000000000000000000000000000000\n    /* \"#utility.yul\":610:611   */\n  0x00\n    /* \"#utility.yul\":603:691   */\n  mstore\n    /* \"#utility.yul\":710:714   */\n  0x41\n    /* \"#utility.yul\":707:708   */\n  0x04\n    /* \"#utility.yul\":700:715   */\n  mstore\n    /* \"#utility.yul\":734:738   */\n  0x24\n    /* \"#utility.yul\":731:732   */\n  0x00\n    /* \"#utility.yul\":724:739   */\n  revert\n    /* \"#utility.yul\":751:1032   */\ntag_22:\n    /* \"#utility.yul\":834:861   */\n  tag_41\n    /* \"#utility.yul\":856:860   */\n  dup3\n    /* \"#utility.yul\":834:861   */\n  tag_20\n  jump\t// in\ntag_41:\n    /* \"#utility.yul\":826:832   */\n  dup2\n    /* \"#utility.yul\":822:862   */\n  add\n    /* \"#utility.yul\":964:970   */\n  dup2\n    /* \"#utility.yul\":952:962   */\n  dup2\n    /* \"#utility.yul\":949:971   */\n  lt\n    /* \"#utility.yul\":928:946   */\n  0xffffffffffffffff\n    /* \"#utility.yul\":916:926   */\n  dup3\n    /* \"#utility.yul\":913:947   */\n  gt\n    /* \"#utility.yul\":910:972   */\n  or\n    /* \"#utility.yul\":907:995   */\n  iszero\n  tag_42\n  jumpi\n    /* \"#utility.yul\":975:993   */\n  tag_43\n  tag_21\n  jump\t// in\ntag_43:\n    /* \"#utility.yul\":907:995   */\ntag_42:\n    /* \"#utility.yul\":1015:1025   */\n  dup1\n    /* \"#utility.yul\":1011:1013   */\n  0x40\n    /* \"#utility.yul\":1004:1026   */\n  mstore\n    /* \"#utility.yul\":794:1032   */\n  pop\n    /* \"#utility.yul\":751:1032   */\n  pop\n  pop\n  jump\t// out\n    /* \"#utility.yul\":1038:1167   */\ntag_23:\n    /* \"#utility.yul\":1072:1078   */\n  0x00\n    /* \"#utility.yul\":1099:1119   */\n  tag_45\n  tag_16\n  jump\t// in\ntag_45:\n    /* \"#utility.yul\":1089:1119   */\n  swap1\n  pop\n    /* \"#utility.yul\":1128:1161   */\n  tag_46\n    /* \"#utility.yul\":1156:1160   */\n  dup3\n    /* \"#utility.yul\":1148:1154   */\n  dup3\n    /* \"#utility.yul\":1128:1161   */\n  tag_22\n  jump\t// in\ntag_46:\n    /* \"#utility.yul\":1038:1167   */\n  swap2\n  swap1\n  pop\n  jump\t// out\n    /* \"#utility.yul\":1173:1484   */\ntag_24:\n    /* \"#utility.yul\":1250:1254   */\n  0x00\n    /* \"#utility.yul\":1340:1358   */\n  0xffffffffffffffff\n    /* \"#utility.yul\":1332:1338   */\n  dup3\n    /* \"#utility.yul\":1329:1359   */\n  gt\n    /* \"#utility.yul\":1326:1382   */\n  iszero\n  tag_48\n  jumpi\n    /* \"#utility.yul\":1362:1380   */\n  tag_49\n  tag_21\n  jump\t// in\ntag_49:\n    /* \"#utility.yul\":1326:1382   */\ntag_48:\n    /* \"#utility.yul\":1412:1416   */\n  0x20\n    /* \"#utility.yul\":1404:1410   */\n  dup3\n    /* \"#utility.yul\":1400:1417   */\n  mul\n    /* \"#utility.yul\":1392:1417   */\n  swap1\n  pop\n    /* \"#utility.yul\":1472:1476   */\n  0x20\n    /* \"#utility.yul\":1466:1470   */\n  dup2\n    /* \"#utility.yul\":1462:1477   */\n  add\n    /* \"#utility.yul\":1454:1477   */\n  swap1\n  pop\n    /* \"#utility.yul\":1173:1484   */\n  swap2\n  swap1\n  pop\n  jump\t// out\n    /* \"#utility.yul\":1490:1607   */\ntag_25:\n    /* \"#utility.yul\":1599:1600   */\n  0x00\n    /* \"#utility.yul\":1596:1597   */\n  dup1\n    /* \"#utility.yul\":1589:1601   */\n  revert\n    /* \"#utility.yul\":1613:1690   */\ntag_26:\n    /* \"#utility.yul\":1650:1657   */\n  0x00\n    /* \"#utility.yul\":1679:1684   */\n  dup2\n    /* \"#utility.yul\":1668:1684   */\n  swap1\n  pop\n    /* \"#utility.yul\":1613:1690   */\n  swap2\n  swap1\n  pop\n  jump\t// out\n    /* \"#utility.yul\":1696:1818   */\ntag_27:\n    /* \"#utility.yul\":1769:1793   */\n  tag_53\n    /* \"#utility.yul\":1787:1792   */\n  dup2\n    /* \"#utility.yul\":1769:1793   */\n  tag_26\n  jump\t// in\ntag_53:\n    /* \"#utility.yul\":1762:1767   */\n  dup2\n    /* \"#utility.yul\":1759:1794   */\n  eq\n    /* \"#utility.yul\":1749:1812   */\n  tag_54\n  jumpi\n    /* \"#utility.yul\":1808:1809   */\n  0x00\n    /* \"#utility.yul\":1805:1806   */\n  dup1\n    /* \"#utility.yul\":1798:1810   */\n  revert\n    /* \"#utility.yul\":1749:1812   */\ntag_54:\n    /* \"#utility.yul\":1696:1818   */\n  pop\n  jump\t// out\n    /* \"#utility.yul\":1824:1967   */\ntag_28:\n    /* \"#utility.yul\":1881:1886   */\n  0x00\n    /* \"#utility.yul\":1912:1918   */\n  dup2\n    /* \"#utility.yul\":1906:1919   */\n  mload\n    /* \"#utility.yul\":1897:1919   */\n  swap1\n  pop\n    /* \"#utility.yul\":1928:1961   */\n  tag_56\n    /* \"#utility.yul\":1955:1960   */\n  dup2\n    /* \"#utility.yul\":1928:1961   */\n  tag_27\n  jump\t// in\ntag_56:\n    /* \"#utility.yul\":1824:1967   */\n  swap3\n  swap2\n  pop\n  pop\n  jump\t// out\n    /* \"#utility.yul\":1990:2722   */\ntag_29:\n    /* \"#utility.yul\":2097:2102   */\n  0x00\n    /* \"#utility.yul\":2122:2203   */\n  tag_58\n    /* \"#utility.yul\":2138:2202   */\n  tag_59\n    /* \"#utility.yul\":2195:2201   */\n  dup5\n    /* \"#utility.yul\":2138:2202   */\n  tag_24\n  jump\t// in\ntag_59:\n    /* \"#utility.yul\":2122:2203   */\n  tag_23\n  jump\t// in\ntag_58:\n    /* \"#utility.yul\":2113:2203   */\n  swap1\n  pop\n    /* \"#utility.yul\":2223:2228   */\n  dup1\n    /* \"#utility.yul\":2252:2258   */\n  dup4\n    /* \"#utility.yul\":2245:2250   */\n  dup3\n    /* \"#utility.yul\":2238:2259   */\n  mstore\n    /* \"#utility.yul\":2286:2290   */\n  0x20\n    /* \"#utility.yul\":2279:2284   */\n  dup3\n    /* \"#utility.yul\":2275:2291   */\n  add\n    /* \"#utility.yul\":2268:2291   */\n  swap1\n  pop\n    /* \"#utility.yul\":2339:2343   */\n  0x20\n    /* \"#utility.yul\":2331:2337   */\n  dup5\n    /* \"#utility.yul\":2327:2344   */\n  mul\n    /* \"#utility.yul\":2319:2325   */\n  dup4\n    /* \"#utility.yul\":2315:2345   */\n  add\n    /* \"#utility.yul\":2368:2371   */\n  dup6\n    /* \"#utility.yul\":2360:2366   */\n  dup2\n    /* \"#utility.yul\":2357:2372   */\n  gt\n    /* \"#utility.yul\":2354:2476   */\n  iszero\n  tag_60\n  jumpi\n    /* \"#utility.yul\":2387:2466   */\n  tag_61\n  tag_25\n  jump\t// in\ntag_61:\n    /* \"#utility.yul\":2354:2476   */\ntag_60:\n    /* \"#utility.yul\":2502:2508   */\n  dup4\n    /* \"#utility.yul\":2485:2716   */\ntag_62:\n    /* \"#utility.yul\":2519:2525   */\n  dup2\n    /* \"#utility.yul\":2514:2517   */\n  dup2\n    /* \"#utility.yul\":2511:2526   */\n  lt\n    /* \"#utility.yul\":2485:2716   */\n  iszero\n  tag_64\n  jumpi\n    /* \"#utility.yul\":2594:2597   */\n  dup1\n    /* \"#utility.yul\":2623:2671   */\n  tag_65\n    /* \"#utility.yul\":2667:2670   */\n  dup9\n    /* \"#utility.yul\":2655:2665   */\n  dup3\n    /* \"#utility.yul\":2623:2671   */\n  tag_28\n  jump\t// in\ntag_65:\n    /* \"#utility.yul\":2618:2621   */\n  dup5\n    /* \"#utility.yul\":2611:2672   */\n  mstore\n    /* \"#utility.yul\":2701:2705   */\n  0x20\n    /* \"#utility.yul\":2696:2699   */\n  dup5\n    /* \"#utility.yul\":2692:2706   */\n  add\n    /* \"#utility.yul\":2685:2706   */\n  swap4\n  pop\n    /* \"#utility.yul\":2561:2716   */\n  pop\n    /* \"#utility.yul\":2545:2549   */\n  0x20\n    /* \"#utility.yul\":2540:2543   */\n  dup2\n    /* \"#utility.yul\":2536:2550   */\n  add\n    /* \"#utility.yul\":2529:2550   */\n  swap1\n  pop\n    /* \"#utility.yul\":2485:2716   */\n  jump(tag_62)\ntag_64:\n    /* \"#utility.yul\":2489:2510   */\n  pop\n    /* \"#utility.yul\":2103:2722   */\n  pop\n  pop\n    /* \"#utility.yul\":1990:2722   */\n  swap4\n  swap3\n  pop\n  pop\n  pop\n  jump\t// out\n    /* \"#utility.yul\":2745:3130   */\ntag_30:\n    /* \"#utility.yul\":2827:2832   */\n  0x00\n    /* \"#utility.yul\":2876:2879   */\n  dup3\n    /* \"#utility.yul\":2869:2873   */\n  0x1f\n    /* \"#utility.yul\":2861:2867   */\n  dup4\n    /* \"#utility.yul\":2857:2874   */\n  add\n    /* \"#utility.yul\":2853:2880   */\n  slt\n    /* \"#utility.yul\":2843:2965   */\n  tag_67\n  jumpi\n    /* \"#utility.yul\":2884:2963   */\n  tag_68\n  tag_19\n  jump\t// in\ntag_68:\n    /* \"#utility.yul\":2843:2965   */\ntag_67:\n    /* \"#utility.yul\":2994:3000   */\n  dup2\n    /* \"#utility.yul\":2988:3001   */\n  mload\n    /* \"#utility.yul\":3019:3124   */\n  tag_69\n    /* \"#utility.yul\":3120:3123   */\n  dup5\n    /* \"#utility.yul\":3112:3118   */\n  dup3\n    /* \"#utility.yul\":3105:3109   */\n  0x20\n    /* \"#utility.yul\":3097:3103   */\n  dup7\n    /* \"#utility.yul\":3093:3110   */\n  add\n    /* \"#utility.yul\":3019:3124   */\n  tag_29\n  jump\t// in\ntag_69:\n    /* \"#utility.yul\":3010:3124   */\n  swap2\n  pop\n    /* \"#utility.yul\":2833:3130   */\n  pop\n    /* \"#utility.yul\":2745:3130   */\n  swap3\n  swap2\n  pop\n  pop\n  jump\t// out\n    /* \"#utility.yul\":3136:3690   */\ntag_3:\n    /* \"#utility.yul\":3231:3237   */\n  0x00\n    /* \"#utility.yul\":3280:3282   */\n  0x20\n    /* \"#utility.yul\":3268:3277   */\n  dup3\n    /* \"#utility.yul\":3259:3266   */\n  dup5\n    /* \"#utility.yul\":3255:3278   */\n  sub\n    /* \"#utility.yul\":3251:3283   */\n  slt\n    /* \"#utility.yul\":3248:3367   */\n  iszero\n  tag_71\n  jumpi\n    /* \"#utility.yul\":3286:3365   */\n  tag_72\n  tag_17\n  jump\t// in\ntag_72:\n    /* \"#utility.yul\":3248:3367   */\ntag_71:\n    /* \"#utility.yul\":3427:3428   */\n  0x00\n    /* \"#utility.yul\":3416:3425   */\n  dup3\n    /* \"#utility.yul\":3412:3429   */\n  add\n    /* \"#utility.yul\":3406:3430   */\n  mload\n    /* \"#utility.yul\":3457:3475   */\n  0xffffffffffffffff\n    /* \"#utility.yul\":3449:3455   */\n  dup2\n    /* \"#utility.yul\":3446:3476   */\n  gt\n    /* \"#utility.yul\":3443:3560   */\n  iszero\n  tag_73\n  jumpi\n    /* \"#utility.yul\":3479:3558   */\n  tag_74\n  tag_18\n  jump\t// in\ntag_74:\n    /* \"#utility.yul\":3443:3560   */\ntag_73:\n    /* \"#utility.yul\":3584:3673   */\n  tag_75\n    /* \"#utility.yul\":3665:3672   */\n  dup5\n    /* \"#utility.yul\":3656:3662   */\n  dup3\n    /* \"#utility.yul\":3645:3654   */\n  dup6\n    /* \"#utility.yul\":3641:3663   */\n  add\n    /* \"#utility.yul\":3584:3673   */\n  tag_30\n  jump\t// in\ntag_75:\n    /* \"#utility.yul\":3574:3673   */\n  swap2\n  pop\n    /* \"#utility.yul\":3377:3683   */\n  pop\n    /* \"#utility.yul\":3136:3690   */\n  swap3\n  swap2\n  pop\n  pop\n  jump\t// out\n    /* \"#utility.yul\":3696:3876   */\ntag_11:\n    /* \"#utility.yul\":3744:3821   */\n  0x4e487b7100000000000000000000000000000000000000000000000000000000\n    /* \"#utility.yul\":3741:3742   */\n  0x00\n    /* \"#utility.yul\":3734:3822   */\n  mstore\n    /* \"#utility.yul\":3841:3845   */\n  0x32\n    /* \"#utility.yul\":3838:3839   */\n  0x04\n    /* \"#utility.yul\":3831:3846   */\n  mstore\n    /* \"#utility.yul\":3865:3869   */\n  0x24\n    /* \"#utility.yul\":3862:3863   */\n  0x00\n    /* \"#utility.yul\":3855:3870   */\n  revert\n    /* \"#utility.yul\":3882:4062   */\ntag_31:\n    /* \"#utility.yul\":3930:4007   */\n  0x4e487b7100000000000000000000000000000000000000000000000000000000\n    /* \"#utility.yul\":3927:3928   */\n  0x00\n    /* \"#utility.yul\":3920:4008   */\n  mstore\n    /* \"#utility.yul\":4027:4031   */\n  0x11\n    /* \"#utility.yul\":4024:4025   */\n  0x04\n    /* \"#utility.yul\":4017:4032   */\n  mstore\n    /* \"#utility.yul\":4051:4055   */\n  0x24\n    /* \"#utility.yul\":4048:4049   */\n  0x00\n    /* \"#utility.yul\":4041:4056   */\n  revert\n    /* \"#utility.yul\":4068:4145   */\ntag_32:\n    /* \"#utility.yul\":4105:4112   */\n  0x00\n    /* \"#utility.yul\":4134:4139   */\n  dup2\n    /* \"#utility.yul\":4123:4139   */\n  swap1\n  pop\n    /* \"#utility.yul\":4068:4145   */\n  swap2\n  swap1\n  pop\n  jump\t// out\n    /* \"#utility.yul\":4151:4384   */\ntag_14:\n    /* \"#utility.yul\":4190:4193   */\n  0x00\n    /* \"#utility.yul\":4213:4237   */\n  tag_80\n    /* \"#utility.yul\":4231:4236   */\n  dup3\n    /* \"#utility.yul\":4213:4237   */\n  tag_32\n  jump\t// in\ntag_80:\n    /* \"#utility.yul\":4204:4237   */\n  swap2\n  pop\n    /* \"#utility.yul\":4259:4325   */\n  0xffffffffffffffffffffffffffffffffffffffffffffffffffffffffffffffff\n    /* \"#utility.yul\":4252:4257   */\n  dup3\n    /* \"#utility.yul\":4249:4326   */\n  sub\n    /* \"#utility.yul\":4246:4349   */\n  tag_81\n  jumpi\n    /* \"#utility.yul\":4329:4347   */\n  tag_82\n  tag_31\n  jump\t// in\ntag_82:\n    /* \"#utility.yul\":4246:4349   */\ntag_81:\n    /* \"#utility.yul\":4376:4377   */\n  0x01\n    /* \"#utility.yul\":4369:4374   */\n  dup3\n    /* \"#utility.yul\":4365:4378   */\n  add\n    /* \"#utility.yul\":4358:4378   */\n  swap1\n  pop\n    /* \"#utility.yul\":4151:4384   */\n  swap2\n  swap1\n  pop\n  jump\t// out\n    /* \"contracts/Ballot.sol\":66:3331  contract Ballot {... */\ntag_15:\n  dataSize(sub_0)\n  dup1\n  dataOffset(sub_0)\n  0x00\n  codecopy\n  0x00\n  return\nstop\n\nsub_0: assembly {\n        /* \"contracts/Ballot.sol\":66:3331  contract Ballot {... */\n      mstore(0x40, 0x80)\n      callvalue\n      dup1\n      iszero\n      tag_1\n      jumpi\n      0x00\n      dup1\n      revert\n    tag_1:\n      pop\n      jumpi(tag_2, lt(calldatasize, 0x04))\n      shr(0xe0, calldataload(0x00))\n      dup1\n      0x5c19a95c\n      gt\n      tag_10\n      jumpi\n      dup1\n      0x5c19a95c\n      eq\n      tag_6\n      jumpi\n      dup1\n      0x609ff1bd\n      eq\n      tag_7\n      jumpi\n      dup1\n      0x9e7b8d61\n      eq\n      tag_8\n      jumpi\n      dup1\n      0xa3ec138d\n      eq\n      tag_9\n      jumpi\n      jump(tag_2)\n    tag_10:\n      dup1\n      0x0121b93f\n      eq\n      tag_3\n      jumpi\n      dup1\n      0x013cf08b\n      eq\n      tag_4\n      jumpi\n      dup1\n      0x2e4176cf\n      eq\n      tag_5\n      jumpi\n    tag_2:\n      0x00\n      dup1\n      revert\n        /* \"contracts/Ballot.sol\":2765:2968  function vote(uint proposal) public {... */\n    tag_3:\n      tag_11\n      0x04\n      dup1\n      calldatasize\n      sub\n      dup2\n      add\n      swap1\n      tag_12\n      swap2\n      swap1\n      tag_13\n      jump\t// in\n    tag_12:\n      tag_14\n      jump\t// in\n    tag_11:\n      stop\n        /* \"contracts/Ballot.sol\":523:550  Proposal[] public proposals */\n    tag_4:\n      tag_15\n      0x04\n      dup1\n      calldatasize\n      sub\n      dup2\n      add\n      swap1\n      tag_16\n      swap2\n      swap1\n      tag_13\n      jump\t// in\n    tag_16:\n      tag_17\n      jump\t// in\n    tag_15:\n      mload(0x40)\n      tag_18\n      swap3\n      swap2\n      swap1\n      tag_19\n      jump\t// in\n    tag_18:\n      mload(0x40)\n      dup1\n      swap2\n      sub\n      swap1\n      return\n        /* \"contracts/Ballot.sol\":335:361  address public chairperson */\n    tag_5:\n      tag_20\n      tag_21\n      jump\t// in\n    tag_20:\n      mload(0x40)\n      tag_22\n      swap2\n      swap1\n      tag_23\n      jump\t// in\n    tag_22:\n      mload(0x40)\n      dup1\n      swap2\n      sub\n      swap1\n      return\n        /* \"contracts/Ballot.sol\":1557:2745  function delegate(address to) public {... */\n    tag_6:\n      tag_24\n      0x04\n      dup1\n      calldatasize\n      sub\n      dup2\n      add\n      swap1\n      tag_25\n      swap2\n      swap1\n      tag_26\n      jump\t// in\n    tag_25:\n      tag_27\n      jump\t// in\n    tag_24:\n      stop\n        /* \"contracts/Ballot.sol\":2983:3327  function winningProposal() public view returns(uint winningProposal_){... */\n    tag_7:\n      tag_28\n      tag_29\n      jump\t// in\n    tag_28:\n      mload(0x40)\n      tag_30\n      swap2\n      swap1\n      tag_31\n      jump\t// in\n    tag_30:\n      mload(0x40)\n      dup1\n      swap2\n      sub\n      swap1\n      return\n        /* \"contracts/Ballot.sol\":1105:1551  function giveRightToVote(address voter) public{... */\n    tag_8:\n      tag_32\n      0x04\n      dup1\n      calldatasize\n      sub\n      dup2\n      add\n      swap1\n      tag_33\n      swap2\n      swap1\n      tag_26\n      jump\t// in\n    tag_33:\n      tag_34\n      jump\t// in\n    tag_32:\n      stop\n        /* \"contracts/Ballot.sol\":441:480  mapping(address => Voter) public voters */\n    tag_9:\n      tag_35\n      0x04\n      dup1\n      calldatasize\n      sub\n      dup2\n      add\n      swap1\n      tag_36\n      swap2\n      swap1\n      tag_26\n      jump\t// in\n    tag_36:\n      tag_37\n      jump\t// in\n    tag_35:\n      mload(0x40)\n      tag_38\n      swap5\n      swap4\n      swap3\n      swap2\n      swap1\n      tag_39\n      jump\t// in\n    tag_38:\n      mload(0x40)\n      dup1\n      swap2\n      sub\n      swap1\n      return\n        /* \"contracts/Ballot.sol\":2765:2968  function vote(uint proposal) public {... */\n    tag_14:\n        /* \"contracts/Ballot.sol\":2811:2831  Voter storage sender */\n      0x00\n        /* \"contracts/Ballot.sol\":2834:2840  voters */\n      0x01\n        /* \"contracts/Ballot.sol\":2834:2852  voters[msg.sender] */\n      0x00\n        /* \"contracts/Ballot.sol\":2841:2851  msg.sender */\n      caller\n        /* \"contracts/Ballot.sol\":2834:2852  voters[msg.sender] */\n      0xffffffffffffffffffffffffffffffffffffffff\n      and\n      0xffffffffffffffffffffffffffffffffffffffff\n      and\n      dup2\n      mstore\n      0x20\n      add\n      swap1\n      dup2\n      mstore\n      0x20\n      add\n      0x00\n      keccak256\n        /* \"contracts/Ballot.sol\":2811:2852  Voter storage sender = voters[msg.sender] */\n      swap1\n      pop\n        /* \"contracts/Ballot.sol\":2871:2877  sender */\n      dup1\n        /* \"contracts/Ballot.sol\":2871:2883  sender.voted */\n      0x01\n      add\n      0x00\n      swap1\n      sload\n      swap1\n      0x0100\n      exp\n      swap1\n      div\n      0xff\n      and\n        /* \"contracts/Ballot.sol\":2870:2883  !sender.voted */\n      iszero\n        /* \"contracts/Ballot.sol\":2862:2900  require(!sender.voted, \"Alredy voted\") */\n      tag_41\n      jumpi\n      mload(0x40)\n      0x08c379a000000000000000000000000000000000000000000000000000000000\n      dup2\n      mstore\n      0x04\n      add\n      tag_42\n      swap1\n      tag_43\n      jump\t// in\n    tag_42:\n      mload(0x40)\n      dup1\n      swap2\n      sub\n      swap1\n      revert\n    tag_41:\n        /* \"contracts/Ballot.sol\":2925:2929  true */\n      0x01\n        /* \"contracts/Ballot.sol\":2910:2916  sender */\n      dup2\n        /* \"contracts/Ballot.sol\":2910:2922  sender.voted */\n      0x01\n      add\n      0x00\n        /* \"contracts/Ballot.sol\":2910:2929  sender.voted = true */\n      0x0100\n      exp\n      dup2\n      sload\n      dup2\n      0xff\n      mul\n      not\n      and\n      swap1\n      dup4\n      iszero\n      iszero\n      mul\n      or\n      swap1\n      sstore\n      pop\n        /* \"contracts/Ballot.sol\":2953:2961  proposal */\n      dup2\n        /* \"contracts/Ballot.sol\":2939:2945  sender */\n      dup2\n        /* \"contracts/Ballot.sol\":2939:2950  sender.vote */\n      0x02\n      add\n        /* \"contracts/Ballot.sol\":2939:2961  sender.vote = proposal */\n      dup2\n      swap1\n      sstore\n      pop\n        /* \"contracts/Ballot.sol\":2801:2968  {... */\n      pop\n        /* \"contracts/Ballot.sol\":2765:2968  function vote(uint proposal) public {... */\n      pop\n      jump\t// out\n        /* \"contracts/Ballot.sol\":523:550  Proposal[] public proposals */\n    tag_17:\n      0x02\n      dup2\n      dup2\n      sload\n      dup2\n      lt\n      tag_44\n      jumpi\n      0x00\n      dup1\n      revert\n    tag_44:\n      swap1\n      0x00\n      mstore\n      keccak256(0x00, 0x20)\n      swap1\n      0x02\n      mul\n      add\n      0x00\n      swap2\n      pop\n      swap1\n      pop\n      dup1\n      0x00\n      add\n      sload\n      swap1\n      dup1\n      0x01\n      add\n      sload\n      swap1\n      pop\n      dup3\n      jump\t// out\n        /* \"contracts/Ballot.sol\":335:361  address public chairperson */\n    tag_21:\n      0x00\n      dup1\n      sload\n      swap1\n      0x0100\n      exp\n      swap1\n      div\n      0xffffffffffffffffffffffffffffffffffffffff\n      and\n      dup2\n      jump\t// out\n        /* \"contracts/Ballot.sol\":1557:2745  function delegate(address to) public {... */\n    tag_27:\n        /* \"contracts/Ballot.sol\":1649:1669  Voter storage sender */\n      0x00\n        /* \"contracts/Ballot.sol\":1672:1678  voters */\n      0x01\n        /* \"contracts/Ballot.sol\":1672:1690  voters[msg.sender] */\n      0x00\n        /* \"contracts/Ballot.sol\":1679:1689  msg.sender */\n      caller\n        /* \"contracts/Ballot.sol\":1672:1690  voters[msg.sender] */\n      0xffffffffffffffffffffffffffffffffffffffff\n      and\n      0xffffffffffffffffffffffffffffffffffffffff\n      and\n      dup2\n      mstore\n      0x20\n      add\n      swap1\n      dup2\n      mstore\n      0x20\n      add\n      0x00\n      keccak256\n        /* \"contracts/Ballot.sol\":1649:1690  Voter storage sender = voters[msg.sender] */\n      swap1\n      pop\n        /* \"contracts/Ballot.sol\":1745:1751  sender */\n      dup1\n        /* \"contracts/Ballot.sol\":1745:1757  sender.voted */\n      0x01\n      add\n      0x00\n      swap1\n      sload\n      swap1\n      0x0100\n      exp\n      swap1\n      div\n      0xff\n      and\n        /* \"contracts/Ballot.sol\":1744:1757  !sender.voted */\n      iszero\n        /* \"contracts/Ballot.sol\":1736:1779  require(!sender.voted, \"You already voted\") */\n      tag_47\n      jumpi\n      mload(0x40)\n      0x08c379a000000000000000000000000000000000000000000000000000000000\n      dup2\n      mstore\n      0x04\n      add\n      tag_48\n      swap1\n      tag_49\n      jump\t// in\n    tag_48:\n      mload(0x40)\n      dup1\n      swap2\n      sub\n      swap1\n      revert\n    tag_47:\n        /* \"contracts/Ballot.sol\":1875:1885  msg.sender */\n      caller\n        /* \"contracts/Ballot.sol\":1869:1885  to != msg.sender */\n      0xffffffffffffffffffffffffffffffffffffffff\n      and\n        /* \"contracts/Ballot.sol\":1869:1871  to */\n      dup3\n        /* \"contracts/Ballot.sol\":1869:1885  to != msg.sender */\n      0xffffffffffffffffffffffffffffffffffffffff\n      and\n      sub\n        /* \"contracts/Ballot.sol\":1861:1920  require(to != msg.sender, \"Self-delegation is disallowed.\") */\n      tag_50\n      jumpi\n      mload(0x40)\n      0x08c379a000000000000000000000000000000000000000000000000000000000\n      dup2\n      mstore\n      0x04\n      add\n      tag_51\n      swap1\n      tag_52\n      jump\t// in\n    tag_51:\n      mload(0x40)\n      dup1\n      swap2\n      sub\n      swap1\n      revert\n    tag_50:\n        /* \"contracts/Ballot.sol\":1990:2318  while (voters[to].delegate != address(0)) {... */\n    tag_53:\n        /* \"contracts/Ballot.sol\":2028:2029  0 */\n      0x00\n        /* \"contracts/Ballot.sol\":1997:2030  voters[to].delegate != address(0) */\n      0xffffffffffffffffffffffffffffffffffffffff\n      and\n        /* \"contracts/Ballot.sol\":1997:2003  voters */\n      0x01\n        /* \"contracts/Ballot.sol\":1997:2007  voters[to] */\n      0x00\n        /* \"contracts/Ballot.sol\":2004:2006  to */\n      dup5\n        /* \"contracts/Ballot.sol\":1997:2007  voters[to] */\n      0xffffffffffffffffffffffffffffffffffffffff\n      and\n      0xffffffffffffffffffffffffffffffffffffffff\n      and\n      dup2\n      mstore\n      0x20\n      add\n      swap1\n      dup2\n      mstore\n      0x20\n      add\n      0x00\n      keccak256\n        /* \"contracts/Ballot.sol\":1997:2016  voters[to].delegate */\n      0x01\n      add\n      0x01\n      swap1\n      sload\n      swap1\n      0x0100\n      exp\n      swap1\n      div\n      0xffffffffffffffffffffffffffffffffffffffff\n      and\n        /* \"contracts/Ballot.sol\":1997:2030  voters[to].delegate != address(0) */\n      0xffffffffffffffffffffffffffffffffffffffff\n      and\n      eq\n        /* \"contracts/Ballot.sol\":1990:2318  while (voters[to].delegate != address(0)) {... */\n      tag_54\n      jumpi\n        /* \"contracts/Ballot.sol\":2103:2109  voters */\n      0x01\n        /* \"contracts/Ballot.sol\":2103:2113  voters[to] */\n      0x00\n        /* \"contracts/Ballot.sol\":2110:2112  to */\n      dup4\n        /* \"contracts/Ballot.sol\":2103:2113  voters[to] */\n      0xffffffffffffffffffffffffffffffffffffffff\n      and\n      0xffffffffffffffffffffffffffffffffffffffff\n      and\n      dup2\n      mstore\n      0x20\n      add\n      swap1\n      dup2\n      mstore\n      0x20\n      add\n      0x00\n      keccak256\n        /* \"contracts/Ballot.sol\":2103:2122  voters[to].delegate */\n      0x01\n      add\n      0x01\n      swap1\n      sload\n      swap1\n      0x0100\n      exp\n      swap1\n      div\n      0xffffffffffffffffffffffffffffffffffffffff\n      and\n        /* \"contracts/Ballot.sol\":2098:2122  to = voters[to].delegate */\n      swap2\n      pop\n        /* \"contracts/Ballot.sol\":2268:2278  msg.sender */\n      caller\n        /* \"contracts/Ballot.sol\":2262:2278  to != msg.sender */\n      0xffffffffffffffffffffffffffffffffffffffff\n      and\n        /* \"contracts/Ballot.sol\":2262:2264  to */\n      dup3\n        /* \"contracts/Ballot.sol\":2262:2278  to != msg.sender */\n      0xffffffffffffffffffffffffffffffffffffffff\n      and\n      sub\n        /* \"contracts/Ballot.sol\":2254:2307  require(to != msg.sender, \"Found loop in delegation\") */\n      tag_55\n      jumpi\n      mload(0x40)\n      0x08c379a000000000000000000000000000000000000000000000000000000000\n      dup2\n      mstore\n      0x04\n      add\n      tag_56\n      swap1\n      tag_57\n      jump\t// in\n    tag_56:\n      mload(0x40)\n      dup1\n      swap2\n      sub\n      swap1\n      revert\n    tag_55:\n        /* \"contracts/Ballot.sol\":1990:2318  while (voters[to].delegate != address(0)) {... */\n      jump(tag_53)\n    tag_54:\n        /* \"contracts/Ballot.sol\":2343:2347  true */\n      0x01\n        /* \"contracts/Ballot.sol\":2328:2334  sender */\n      dup2\n        /* \"contracts/Ballot.sol\":2328:2340  sender.voted */\n      0x01\n      add\n      0x00\n        /* \"contracts/Ballot.sol\":2328:2347  sender.voted = true */\n      0x0100\n      exp\n      dup2\n      sload\n      dup2\n      0xff\n      mul\n      not\n      and\n      swap1\n      dup4\n      iszero\n      iszero\n      mul\n      or\n      swap1\n      sstore\n      pop\n        /* \"contracts/Ballot.sol\":2375:2377  to */\n      dup2\n        /* \"contracts/Ballot.sol\":2357:2363  sender */\n      dup2\n        /* \"contracts/Ballot.sol\":2357:2372  sender.delegate */\n      0x01\n      add\n      0x01\n        /* \"contracts/Ballot.sol\":2357:2377  sender.delegate = to */\n      0x0100\n      exp\n      dup2\n      sload\n      dup2\n      0xffffffffffffffffffffffffffffffffffffffff\n      mul\n      not\n      and\n      swap1\n      dup4\n      0xffffffffffffffffffffffffffffffffffffffff\n      and\n      mul\n      or\n      swap1\n      sstore\n      pop\n        /* \"contracts/Ballot.sol\":2387:2410  Voter storage delegate_ */\n      0x00\n        /* \"contracts/Ballot.sol\":2413:2419  voters */\n      0x01\n        /* \"contracts/Ballot.sol\":2413:2423  voters[to] */\n      0x00\n        /* \"contracts/Ballot.sol\":2420:2422  to */\n      dup5\n        /* \"contracts/Ballot.sol\":2413:2423  voters[to] */\n      0xffffffffffffffffffffffffffffffffffffffff\n      and\n      0xffffffffffffffffffffffffffffffffffffffff\n      and\n      dup2\n      mstore\n      0x20\n      add\n      swap1\n      dup2\n      mstore\n      0x20\n      add\n      0x00\n      keccak256\n        /* \"contracts/Ballot.sol\":2387:2423  Voter storage delegate_ = voters[to] */\n      swap1\n      pop\n        /* \"contracts/Ballot.sol\":2437:2446  delegate_ */\n      dup1\n        /* \"contracts/Ballot.sol\":2437:2452  delegate_.voted */\n      0x01\n      add\n      0x00\n      swap1\n      sload\n      swap1\n      0x0100\n      exp\n      swap1\n      div\n      0xff\n      and\n        /* \"contracts/Ballot.sol\":2433:2738  if (delegate_.voted) {... */\n      iszero\n      tag_58\n      jumpi\n        /* \"contracts/Ballot.sol\":2580:2586  sender */\n      dup2\n        /* \"contracts/Ballot.sol\":2580:2593  sender.weight */\n      0x00\n      add\n      sload\n        /* \"contracts/Ballot.sol\":2541:2550  proposals */\n      0x02\n        /* \"contracts/Ballot.sol\":2551:2560  delegate_ */\n      dup3\n        /* \"contracts/Ballot.sol\":2551:2565  delegate_.vote */\n      0x02\n      add\n      sload\n        /* \"contracts/Ballot.sol\":2541:2566  proposals[delegate_.vote] */\n      dup2\n      sload\n      dup2\n      lt\n      tag_59\n      jumpi\n      tag_60\n      tag_61\n      jump\t// in\n    tag_60:\n    tag_59:\n      swap1\n      0x00\n      mstore\n      keccak256(0x00, 0x20)\n      swap1\n      0x02\n      mul\n      add\n        /* \"contracts/Ballot.sol\":2541:2576  proposals[delegate_.vote].voteCount */\n      0x01\n      add\n      0x00\n        /* \"contracts/Ballot.sol\":2541:2593  proposals[delegate_.vote].voteCount += sender.weight */\n      dup3\n      dup3\n      sload\n      tag_63\n      swap2\n      swap1\n      tag_64\n      jump\t// in\n    tag_63:\n      swap3\n      pop\n      pop\n      dup2\n      swap1\n      sstore\n      pop\n        /* \"contracts/Ballot.sol\":2433:2738  if (delegate_.voted) {... */\n      jump(tag_65)\n    tag_58:\n        /* \"contracts/Ballot.sol\":2714:2720  sender */\n      dup2\n        /* \"contracts/Ballot.sol\":2714:2727  sender.weight */\n      0x00\n      add\n      sload\n        /* \"contracts/Ballot.sol\":2694:2703  delegate_ */\n      dup2\n        /* \"contracts/Ballot.sol\":2694:2710  delegate_.weight */\n      0x00\n      add\n      0x00\n        /* \"contracts/Ballot.sol\":2694:2727  delegate_.weight += sender.weight */\n      dup3\n      dup3\n      sload\n      tag_66\n      swap2\n      swap1\n      tag_64\n      jump\t// in\n    tag_66:\n      swap3\n      pop\n      pop\n      dup2\n      swap1\n      sstore\n      pop\n        /* \"contracts/Ballot.sol\":2433:2738  if (delegate_.voted) {... */\n    tag_65:\n        /* \"contracts/Ballot.sol\":1594:2745  {... */\n      pop\n      pop\n        /* \"contracts/Ballot.sol\":1557:2745  function delegate(address to) public {... */\n      pop\n      jump\t// out\n        /* \"contracts/Ballot.sol\":2983:3327  function winningProposal() public view returns(uint winningProposal_){... */\n    tag_29:\n        /* \"contracts/Ballot.sol\":3030:3051  uint winningProposal_ */\n      0x00\n        /* \"contracts/Ballot.sol\":3062:3083  uint winningVoteCount */\n      dup1\n        /* \"contracts/Ballot.sol\":3086:3087  0 */\n      0x00\n        /* \"contracts/Ballot.sol\":3062:3087  uint winningVoteCount = 0 */\n      swap1\n      pop\n        /* \"contracts/Ballot.sol\":3102:3108  uint p */\n      0x00\n        /* \"contracts/Ballot.sol\":3097:3321  for (uint p = 0; p< proposals.length; p++) {... */\n    tag_68:\n        /* \"contracts/Ballot.sol\":3117:3126  proposals */\n      0x02\n        /* \"contracts/Ballot.sol\":3117:3133  proposals.length */\n      dup1\n      sload\n      swap1\n      pop\n        /* \"contracts/Ballot.sol\":3114:3115  p */\n      dup2\n        /* \"contracts/Ballot.sol\":3114:3133  p< proposals.length */\n      lt\n        /* \"contracts/Ballot.sol\":3097:3321  for (uint p = 0; p< proposals.length; p++) {... */\n      iszero\n      tag_69\n      jumpi\n        /* \"contracts/Ballot.sol\":3183:3199  winningVoteCount */\n      dup2\n        /* \"contracts/Ballot.sol\":3158:3167  proposals */\n      0x02\n        /* \"contracts/Ballot.sol\":3168:3169  p */\n      dup3\n        /* \"contracts/Ballot.sol\":3158:3170  proposals[p] */\n      dup2\n      sload\n      dup2\n      lt\n      tag_71\n      jumpi\n      tag_72\n      tag_61\n      jump\t// in\n    tag_72:\n    tag_71:\n      swap1\n      0x00\n      mstore\n      keccak256(0x00, 0x20)\n      swap1\n      0x02\n      mul\n      add\n        /* \"contracts/Ballot.sol\":3158:3180  proposals[p].voteCount */\n      0x01\n      add\n      sload\n        /* \"contracts/Ballot.sol\":3158:3199  proposals[p].voteCount > winningVoteCount */\n      gt\n        /* \"contracts/Ballot.sol\":3154:3311  if (proposals[p].voteCount > winningVoteCount) {... */\n      iszero\n      tag_74\n      jumpi\n        /* \"contracts/Ballot.sol\":3237:3246  proposals */\n      0x02\n        /* \"contracts/Ballot.sol\":3247:3248  p */\n      dup2\n        /* \"contracts/Ballot.sol\":3237:3249  proposals[p] */\n      dup2\n      sload\n      dup2\n      lt\n      tag_75\n      jumpi\n      tag_76\n      tag_61\n      jump\t// in\n    tag_76:\n    tag_75:\n      swap1\n      0x00\n      mstore\n      keccak256(0x00, 0x20)\n      swap1\n      0x02\n      mul\n      add\n        /* \"contracts/Ballot.sol\":3237:3259  proposals[p].voteCount */\n      0x01\n      add\n      sload\n        /* \"contracts/Ballot.sol\":3218:3259  winningVoteCount = proposals[p].voteCount */\n      swap2\n      pop\n        /* \"contracts/Ballot.sol\":3295:3296  p */\n      dup1\n        /* \"contracts/Ballot.sol\":3276:3296  winningProposal_ = p */\n      swap3\n      pop\n        /* \"contracts/Ballot.sol\":3154:3311  if (proposals[p].voteCount > winningVoteCount) {... */\n    tag_74:\n        /* \"contracts/Ballot.sol\":3135:3138  p++ */\n      dup1\n      dup1\n      tag_78\n      swap1\n      tag_79\n      jump\t// in\n    tag_78:\n      swap2\n      pop\n      pop\n        /* \"contracts/Ballot.sol\":3097:3321  for (uint p = 0; p< proposals.length; p++) {... */\n      jump(tag_68)\n    tag_69:\n      pop\n        /* \"contracts/Ballot.sol\":3052:3327  {... */\n      pop\n        /* \"contracts/Ballot.sol\":2983:3327  function winningProposal() public view returns(uint winningProposal_){... */\n      swap1\n      jump\t// out\n        /* \"contracts/Ballot.sol\":1105:1551  function giveRightToVote(address voter) public{... */\n    tag_34:\n        /* \"contracts/Ballot.sol\":1250:1261  chairperson */\n      0x00\n      dup1\n      sload\n      swap1\n      0x0100\n      exp\n      swap1\n      div\n      0xffffffffffffffffffffffffffffffffffffffff\n      and\n        /* \"contracts/Ballot.sol\":1236:1261  msg.sender == chairperson */\n      0xffffffffffffffffffffffffffffffffffffffff\n      and\n        /* \"contracts/Ballot.sol\":1236:1246  msg.sender */\n      caller\n        /* \"contracts/Ballot.sol\":1236:1261  msg.sender == chairperson */\n      0xffffffffffffffffffffffffffffffffffffffff\n      and\n      eq\n        /* \"contracts/Ballot.sol\":1215:1314  require(... */\n      tag_81\n      jumpi\n      mload(0x40)\n      0x08c379a000000000000000000000000000000000000000000000000000000000\n      dup2\n      mstore\n      0x04\n      add\n      tag_82\n      swap1\n      tag_83\n      jump\t// in\n    tag_82:\n      mload(0x40)\n      dup1\n      swap2\n      sub\n      swap1\n      revert\n    tag_81:\n        /* \"contracts/Ballot.sol\":1375:1381  voters */\n      0x01\n        /* \"contracts/Ballot.sol\":1375:1388  voters[voter] */\n      0x00\n        /* \"contracts/Ballot.sol\":1382:1387  voter */\n      dup3\n        /* \"contracts/Ballot.sol\":1375:1388  voters[voter] */\n      0xffffffffffffffffffffffffffffffffffffffff\n      and\n      0xffffffffffffffffffffffffffffffffffffffff\n      and\n      dup2\n      mstore\n      0x20\n      add\n      swap1\n      dup2\n      mstore\n      0x20\n      add\n      0x00\n      keccak256\n        /* \"contracts/Ballot.sol\":1375:1394  voters[voter].voted */\n      0x01\n      add\n      0x00\n      swap1\n      sload\n      swap1\n      0x0100\n      exp\n      swap1\n      div\n      0xff\n      and\n        /* \"contracts/Ballot.sol\":1374:1394  !voters[voter].voted */\n      iszero\n        /* \"contracts/Ballot.sol\":1366:1422  require(!voters[voter].voted, \"The voter already voted\") */\n      tag_84\n      jumpi\n      mload(0x40)\n      0x08c379a000000000000000000000000000000000000000000000000000000000\n      dup2\n      mstore\n      0x04\n      add\n      tag_85\n      swap1\n      tag_86\n      jump\t// in\n    tag_85:\n      mload(0x40)\n      dup1\n      swap2\n      sub\n      swap1\n      revert\n    tag_84:\n        /* \"contracts/Ballot.sol\":1506:1507  0 */\n      0x00\n        /* \"contracts/Ballot.sol\":1482:1488  voters */\n      0x01\n        /* \"contracts/Ballot.sol\":1482:1495  voters[voter] */\n      0x00\n        /* \"contracts/Ballot.sol\":1489:1494  voter */\n      dup4\n        /* \"contracts/Ballot.sol\":1482:1495  voters[voter] */\n      0xffffffffffffffffffffffffffffffffffffffff\n      and\n      0xffffffffffffffffffffffffffffffffffffffff\n      and\n      dup2\n      mstore\n      0x20\n      add\n      swap1\n      dup2\n      mstore\n      0x20\n      add\n      0x00\n      keccak256\n        /* \"contracts/Ballot.sol\":1482:1502  voters[voter].weight */\n      0x00\n      add\n      sload\n        /* \"contracts/Ballot.sol\":1482:1507  voters[voter].weight == 0 */\n      eq\n        /* \"contracts/Ballot.sol\":1474:1508  require(voters[voter].weight == 0) */\n      tag_87\n      jumpi\n      0x00\n      dup1\n      revert\n    tag_87:\n        /* \"contracts/Ballot.sol\":1541:1542  1 */\n      0x01\n        /* \"contracts/Ballot.sol\":1518:1524  voters */\n      dup1\n        /* \"contracts/Ballot.sol\":1518:1531  voters[voter] */\n      0x00\n        /* \"contracts/Ballot.sol\":1525:1530  voter */\n      dup4\n        /* \"contracts/Ballot.sol\":1518:1531  voters[voter] */\n      0xffffffffffffffffffffffffffffffffffffffff\n      and\n      0xffffffffffffffffffffffffffffffffffffffff\n      and\n      dup2\n      mstore\n      0x20\n      add\n      swap1\n      dup2\n      mstore\n      0x20\n      add\n      0x00\n      keccak256\n        /* \"contracts/Ballot.sol\":1518:1538  voters[voter].weight */\n      0x00\n      add\n        /* \"contracts/Ballot.sol\":1518:1542  voters[voter].weight = 1 */\n      dup2\n      swap1\n      sstore\n      pop\n        /* \"contracts/Ballot.sol\":1105:1551  function giveRightToVote(address voter) public{... */\n      pop\n      jump\t// out\n        /* \"contracts/Ballot.sol\":441:480  mapping(address => Voter) public voters */\n    tag_37:\n      mstore(0x20, 0x01)\n      dup1\n      0x00\n      mstore\n      keccak256(0x00, 0x40)\n      0x00\n      swap2\n      pop\n      swap1\n      pop\n      dup1\n      0x00\n      add\n      sload\n      swap1\n      dup1\n      0x01\n      add\n      0x00\n      swap1\n      sload\n      swap1\n      0x0100\n      exp\n      swap1\n      div\n      0xff\n      and\n      swap1\n      dup1\n      0x01\n      add\n      0x01\n      swap1\n      sload\n      swap1\n      0x0100\n      exp\n      swap1\n      div\n      0xffffffffffffffffffffffffffffffffffffffff\n      and\n      swap1\n      dup1\n      0x02\n      add\n      sload\n      swap1\n      pop\n      dup5\n      jump\t// out\n        /* \"#utility.yul\":88:205   */\n    tag_89:\n        /* \"#utility.yul\":197:198   */\n      0x00\n        /* \"#utility.yul\":194:195   */\n      dup1\n        /* \"#utility.yul\":187:199   */\n      revert\n        /* \"#utility.yul\":334:411   */\n    tag_91:\n        /* \"#utility.yul\":371:378   */\n      0x00\n        /* \"#utility.yul\":400:405   */\n      dup2\n        /* \"#utility.yul\":389:405   */\n      swap1\n      pop\n        /* \"#utility.yul\":334:411   */\n      swap2\n      swap1\n      pop\n      jump\t// out\n        /* \"#utility.yul\":417:539   */\n    tag_92:\n        /* \"#utility.yul\":490:514   */\n      tag_124\n        /* \"#utility.yul\":508:513   */\n      dup2\n        /* \"#utility.yul\":490:514   */\n      tag_91\n      jump\t// in\n    tag_124:\n        /* \"#utility.yul\":483:488   */\n      dup2\n        /* \"#utility.yul\":480:515   */\n      eq\n        /* \"#utility.yul\":470:533   */\n      tag_125\n      jumpi\n        /* \"#utility.yul\":529:530   */\n      0x00\n        /* \"#utility.yul\":526:527   */\n      dup1\n        /* \"#utility.yul\":519:531   */\n      revert\n        /* \"#utility.yul\":470:533   */\n    tag_125:\n        /* \"#utility.yul\":417:539   */\n      pop\n      jump\t// out\n        /* \"#utility.yul\":545:684   */\n    tag_93:\n        /* \"#utility.yul\":591:596   */\n      0x00\n        /* \"#utility.yul\":629:635   */\n      dup2\n        /* \"#utility.yul\":616:636   */\n      calldataload\n        /* \"#utility.yul\":607:636   */\n      swap1\n      pop\n        /* \"#utility.yul\":645:678   */\n      tag_127\n        /* \"#utility.yul\":672:677   */\n      dup2\n        /* \"#utility.yul\":645:678   */\n      tag_92\n      jump\t// in\n    tag_127:\n        /* \"#utility.yul\":545:684   */\n      swap3\n      swap2\n      pop\n      pop\n      jump\t// out\n        /* \"#utility.yul\":690:1019   */\n    tag_13:\n        /* \"#utility.yul\":749:755   */\n      0x00\n        /* \"#utility.yul\":798:800   */\n      0x20\n        /* \"#utility.yul\":786:795   */\n      dup3\n        /* \"#utility.yul\":777:784   */\n      dup5\n        /* \"#utility.yul\":773:796   */\n      sub\n        /* \"#utility.yul\":769:801   */\n      slt\n        /* \"#utility.yul\":766:885   */\n      iszero\n      tag_129\n      jumpi\n        /* \"#utility.yul\":804:883   */\n      tag_130\n      tag_89\n      jump\t// in\n    tag_130:\n        /* \"#utility.yul\":766:885   */\n    tag_129:\n        /* \"#utility.yul\":924:925   */\n      0x00\n        /* \"#utility.yul\":949:1002   */\n      tag_131\n        /* \"#utility.yul\":994:1001   */\n      dup5\n        /* \"#utility.yul\":985:991   */\n      dup3\n        /* \"#utility.yul\":974:983   */\n      dup6\n        /* \"#utility.yul\":970:992   */\n      add\n        /* \"#utility.yul\":949:1002   */\n      tag_93\n      jump\t// in\n    tag_131:\n        /* \"#utility.yul\":939:1002   */\n      swap2\n      pop\n        /* \"#utility.yul\":895:1012   */\n      pop\n        /* \"#utility.yul\":690:1019   */\n      swap3\n      swap2\n      pop\n      pop\n      jump\t// out\n        /* \"#utility.yul\":1025:1102   */\n    tag_94:\n        /* \"#utility.yul\":1062:1069   */\n      0x00\n        /* \"#utility.yul\":1091:1096   */\n      dup2\n        /* \"#utility.yul\":1080:1096   */\n      swap1\n      pop\n        /* \"#utility.yul\":1025:1102   */\n      swap2\n      swap1\n      pop\n      jump\t// out\n        /* \"#utility.yul\":1108:1226   */\n    tag_95:\n        /* \"#utility.yul\":1195:1219   */\n      tag_134\n        /* \"#utility.yul\":1213:1218   */\n      dup2\n        /* \"#utility.yul\":1195:1219   */\n      tag_94\n      jump\t// in\n    tag_134:\n        /* \"#utility.yul\":1190:1193   */\n      dup3\n        /* \"#utility.yul\":1183:1220   */\n      mstore\n        /* \"#utility.yul\":1108:1226   */\n      pop\n      pop\n      jump\t// out\n        /* \"#utility.yul\":1232:1350   */\n    tag_96:\n        /* \"#utility.yul\":1319:1343   */\n      tag_136\n        /* \"#utility.yul\":1337:1342   */\n      dup2\n        /* \"#utility.yul\":1319:1343   */\n      tag_91\n      jump\t// in\n    tag_136:\n        /* \"#utility.yul\":1314:1317   */\n      dup3\n        /* \"#utility.yul\":1307:1344   */\n      mstore\n        /* \"#utility.yul\":1232:1350   */\n      pop\n      pop\n      jump\t// out\n        /* \"#utility.yul\":1356:1688   */\n    tag_19:\n        /* \"#utility.yul\":1477:1481   */\n      0x00\n        /* \"#utility.yul\":1515:1517   */\n      0x40\n        /* \"#utility.yul\":1504:1513   */\n      dup3\n        /* \"#utility.yul\":1500:1518   */\n      add\n        /* \"#utility.yul\":1492:1518   */\n      swap1\n      pop\n        /* \"#utility.yul\":1528:1599   */\n      tag_138\n        /* \"#utility.yul\":1596:1597   */\n      0x00\n        /* \"#utility.yul\":1585:1594   */\n      dup4\n        /* \"#utility.yul\":1581:1598   */\n      add\n        /* \"#utility.yul\":1572:1578   */\n      dup6\n        /* \"#utility.yul\":1528:1599   */\n      tag_95\n      jump\t// in\n    tag_138:\n        /* \"#utility.yul\":1609:1681   */\n      tag_139\n        /* \"#utility.yul\":1677:1679   */\n      0x20\n        /* \"#utility.yul\":1666:1675   */\n      dup4\n        /* \"#utility.yul\":1662:1680   */\n      add\n        /* \"#utility.yul\":1653:1659   */\n      dup5\n        /* \"#utility.yul\":1609:1681   */\n      tag_96\n      jump\t// in\n    tag_139:\n        /* \"#utility.yul\":1356:1688   */\n      swap4\n      swap3\n      pop\n      pop\n      pop\n      jump\t// out\n        /* \"#utility.yul\":1694:1820   */\n    tag_97:\n        /* \"#utility.yul\":1731:1738   */\n      0x00\n        /* \"#utility.yul\":1771:1813   */\n      0xffffffffffffffffffffffffffffffffffffffff\n        /* \"#utility.yul\":1764:1769   */\n      dup3\n        /* \"#utility.yul\":1760:1814   */\n      and\n        /* \"#utility.yul\":1749:1814   */\n      swap1\n      pop\n        /* \"#utility.yul\":1694:1820   */\n      swap2\n      swap1\n      pop\n      jump\t// out\n        /* \"#utility.yul\":1826:1922   */\n    tag_98:\n        /* \"#utility.yul\":1863:1870   */\n      0x00\n        /* \"#utility.yul\":1892:1916   */\n      tag_142\n        /* \"#utility.yul\":1910:1915   */\n      dup3\n        /* \"#utility.yul\":1892:1916   */\n      tag_97\n      jump\t// in\n    tag_142:\n        /* \"#utility.yul\":1881:1916   */\n      swap1\n      pop\n        /* \"#utility.yul\":1826:1922   */\n      swap2\n      swap1\n      pop\n      jump\t// out\n        /* \"#utility.yul\":1928:2046   */\n    tag_99:\n        /* \"#utility.yul\":2015:2039   */\n      tag_144\n        /* \"#utility.yul\":2033:2038   */\n      dup2\n        /* \"#utility.yul\":2015:2039   */\n      tag_98\n      jump\t// in\n    tag_144:\n        /* \"#utility.yul\":2010:2013   */\n      dup3\n        /* \"#utility.yul\":2003:2040   */\n      mstore\n        /* \"#utility.yul\":1928:2046   */\n      pop\n      pop\n      jump\t// out\n        /* \"#utility.yul\":2052:2274   */\n    tag_23:\n        /* \"#utility.yul\":2145:2149   */\n      0x00\n        /* \"#utility.yul\":2183:2185   */\n      0x20\n        /* \"#utility.yul\":2172:2181   */\n      dup3\n        /* \"#utility.yul\":2168:2186   */\n      add\n        /* \"#utility.yul\":2160:2186   */\n      swap1\n      pop\n        /* \"#utility.yul\":2196:2267   */\n      tag_146\n        /* \"#utility.yul\":2264:2265   */\n      0x00\n        /* \"#utility.yul\":2253:2262   */\n      dup4\n        /* \"#utility.yul\":2249:2266   */\n      add\n        /* \"#utility.yul\":2240:2246   */\n      dup5\n        /* \"#utility.yul\":2196:2267   */\n      tag_99\n      jump\t// in\n    tag_146:\n        /* \"#utility.yul\":2052:2274   */\n      swap3\n      swap2\n      pop\n      pop\n      jump\t// out\n        /* \"#utility.yul\":2280:2402   */\n    tag_100:\n        /* \"#utility.yul\":2353:2377   */\n      tag_148\n        /* \"#utility.yul\":2371:2376   */\n      dup2\n        /* \"#utility.yul\":2353:2377   */\n      tag_98\n      jump\t// in\n    tag_148:\n        /* \"#utility.yul\":2346:2351   */\n      dup2\n        /* \"#utility.yul\":2343:2378   */\n      eq\n        /* \"#utility.yul\":2333:2396   */\n      tag_149\n      jumpi\n        /* \"#utility.yul\":2392:2393   */\n      0x00\n        /* \"#utility.yul\":2389:2390   */\n      dup1\n        /* \"#utility.yul\":2382:2394   */\n      revert\n        /* \"#utility.yul\":2333:2396   */\n    tag_149:\n        /* \"#utility.yul\":2280:2402   */\n      pop\n      jump\t// out\n        /* \"#utility.yul\":2408:2547   */\n    tag_101:\n        /* \"#utility.yul\":2454:2459   */\n      0x00\n        /* \"#utility.yul\":2492:2498   */\n      dup2\n        /* \"#utility.yul\":2479:2499   */\n      calldataload\n        /* \"#utility.yul\":2470:2499   */\n      swap1\n      pop\n        /* \"#utility.yul\":2508:2541   */\n      tag_151\n        /* \"#utility.yul\":2535:2540   */\n      dup2\n        /* \"#utility.yul\":2508:2541   */\n      tag_100\n      jump\t// in\n    tag_151:\n        /* \"#utility.yul\":2408:2547   */\n      swap3\n      swap2\n      pop\n      pop\n      jump\t// out\n        /* \"#utility.yul\":2553:2882   */\n    tag_26:\n        /* \"#utility.yul\":2612:2618   */\n      0x00\n        /* \"#utility.yul\":2661:2663   */\n      0x20\n        /* \"#utility.yul\":2649:2658   */\n      dup3\n        /* \"#utility.yul\":2640:2647   */\n      dup5\n        /* \"#utility.yul\":2636:2659   */\n      sub\n        /* \"#utility.yul\":2632:2664   */\n      slt\n        /* \"#utility.yul\":2629:2748   */\n      iszero\n      tag_153\n      jumpi\n        /* \"#utility.yul\":2667:2746   */\n      tag_154\n      tag_89\n      jump\t// in\n    tag_154:\n        /* \"#utility.yul\":2629:2748   */\n    tag_153:\n        /* \"#utility.yul\":2787:2788   */\n      0x00\n        /* \"#utility.yul\":2812:2865   */\n      tag_155\n        /* \"#utility.yul\":2857:2864   */\n      dup5\n        /* \"#utility.yul\":2848:2854   */\n      dup3\n        /* \"#utility.yul\":2837:2846   */\n      dup6\n        /* \"#utility.yul\":2833:2855   */\n      add\n        /* \"#utility.yul\":2812:2865   */\n      tag_101\n      jump\t// in\n    tag_155:\n        /* \"#utility.yul\":2802:2865   */\n      swap2\n      pop\n        /* \"#utility.yul\":2758:2875   */\n      pop\n        /* \"#utility.yul\":2553:2882   */\n      swap3\n      swap2\n      pop\n      pop\n      jump\t// out\n        /* \"#utility.yul\":2888:3110   */\n    tag_31:\n        /* \"#utility.yul\":2981:2985   */\n      0x00\n        /* \"#utility.yul\":3019:3021   */\n      0x20\n        /* \"#utility.yul\":3008:3017   */\n      dup3\n        /* \"#utility.yul\":3004:3022   */\n      add\n        /* \"#utility.yul\":2996:3022   */\n      swap1\n      pop\n        /* \"#utility.yul\":3032:3103   */\n      tag_157\n        /* \"#utility.yul\":3100:3101   */\n      0x00\n        /* \"#utility.yul\":3089:3098   */\n      dup4\n        /* \"#utility.yul\":3085:3102   */\n      add\n        /* \"#utility.yul\":3076:3082   */\n      dup5\n        /* \"#utility.yul\":3032:3103   */\n      tag_96\n      jump\t// in\n    tag_157:\n        /* \"#utility.yul\":2888:3110   */\n      swap3\n      swap2\n      pop\n      pop\n      jump\t// out\n        /* \"#utility.yul\":3116:3206   */\n    tag_102:\n        /* \"#utility.yul\":3150:3157   */\n      0x00\n        /* \"#utility.yul\":3193:3198   */\n      dup2\n        /* \"#utility.yul\":3186:3199   */\n      iszero\n        /* \"#utility.yul\":3179:3200   */\n      iszero\n        /* \"#utility.yul\":3168:3200   */\n      swap1\n      pop\n        /* \"#utility.yul\":3116:3206   */\n      swap2\n      swap1\n      pop\n      jump\t// out\n        /* \"#utility.yul\":3212:3321   */\n    tag_103:\n        /* \"#utility.yul\":3293:3314   */\n      tag_160\n        /* \"#utility.yul\":3308:3313   */\n      dup2\n        /* \"#utility.yul\":3293:3314   */\n      tag_102\n      jump\t// in\n    tag_160:\n        /* \"#utility.yul\":3288:3291   */\n      dup3\n        /* \"#utility.yul\":3281:3315   */\n      mstore\n        /* \"#utility.yul\":3212:3321   */\n      pop\n      pop\n      jump\t// out\n        /* \"#utility.yul\":3327:3868   */\n    tag_39:\n        /* \"#utility.yul\":3498:3502   */\n      0x00\n        /* \"#utility.yul\":3536:3539   */\n      0x80\n        /* \"#utility.yul\":3525:3534   */\n      dup3\n        /* \"#utility.yul\":3521:3540   */\n      add\n        /* \"#utility.yul\":3513:3540   */\n      swap1\n      pop\n        /* \"#utility.yul\":3550:3621   */\n      tag_162\n        /* \"#utility.yul\":3618:3619   */\n      0x00\n        /* \"#utility.yul\":3607:3616   */\n      dup4\n        /* \"#utility.yul\":3603:3620   */\n      add\n        /* \"#utility.yul\":3594:3600   */\n      dup8\n        /* \"#utility.yul\":3550:3621   */\n      tag_96\n      jump\t// in\n    tag_162:\n        /* \"#utility.yul\":3631:3697   */\n      tag_163\n        /* \"#utility.yul\":3693:3695   */\n      0x20\n        /* \"#utility.yul\":3682:3691   */\n      dup4\n        /* \"#utility.yul\":3678:3696   */\n      add\n        /* \"#utility.yul\":3669:3675   */\n      dup7\n        /* \"#utility.yul\":3631:3697   */\n      tag_103\n      jump\t// in\n    tag_163:\n        /* \"#utility.yul\":3707:3779   */\n      tag_164\n        /* \"#utility.yul\":3775:3777   */\n      0x40\n        /* \"#utility.yul\":3764:3773   */\n      dup4\n        /* \"#utility.yul\":3760:3778   */\n      add\n        /* \"#utility.yul\":3751:3757   */\n      dup6\n        /* \"#utility.yul\":3707:3779   */\n      tag_99\n      jump\t// in\n    tag_164:\n        /* \"#utility.yul\":3789:3861   */\n      tag_165\n        /* \"#utility.yul\":3857:3859   */\n      0x60\n        /* \"#utility.yul\":3846:3855   */\n      dup4\n        /* \"#utility.yul\":3842:3860   */\n      add\n        /* \"#utility.yul\":3833:3839   */\n      dup5\n        /* \"#utility.yul\":3789:3861   */\n      tag_96\n      jump\t// in\n    tag_165:\n        /* \"#utility.yul\":3327:3868   */\n      swap6\n      swap5\n      pop\n      pop\n      pop\n      pop\n      pop\n      jump\t// out\n        /* \"#utility.yul\":3874:4043   */\n    tag_104:\n        /* \"#utility.yul\":3958:3969   */\n      0x00\n        /* \"#utility.yul\":3992:3998   */\n      dup3\n        /* \"#utility.yul\":3987:3990   */\n      dup3\n        /* \"#utility.yul\":3980:3999   */\n      mstore\n        /* \"#utility.yul\":4032:4036   */\n      0x20\n        /* \"#utility.yul\":4027:4030   */\n      dup3\n        /* \"#utility.yul\":4023:4037   */\n      add\n        /* \"#utility.yul\":4008:4037   */\n      swap1\n      pop\n        /* \"#utility.yul\":3874:4043   */\n      swap3\n      swap2\n      pop\n      pop\n      jump\t// out\n        /* \"#utility.yul\":4049:4211   */\n    tag_105:\n        /* \"#utility.yul\":4189:4203   */\n      0x416c7265647920766f7465640000000000000000000000000000000000000000\n        /* \"#utility.yul\":4185:4186   */\n      0x00\n        /* \"#utility.yul\":4177:4183   */\n      dup3\n        /* \"#utility.yul\":4173:4187   */\n      add\n        /* \"#utility.yul\":4166:4204   */\n      mstore\n        /* \"#utility.yul\":4049:4211   */\n      pop\n      jump\t// out\n        /* \"#utility.yul\":4217:4583   */\n    tag_106:\n        /* \"#utility.yul\":4359:4362   */\n      0x00\n        /* \"#utility.yul\":4380:4447   */\n      tag_169\n        /* \"#utility.yul\":4444:4446   */\n      0x0c\n        /* \"#utility.yul\":4439:4442   */\n      dup4\n        /* \"#utility.yul\":4380:4447   */\n      tag_104\n      jump\t// in\n    tag_169:\n        /* \"#utility.yul\":4373:4447   */\n      swap2\n      pop\n        /* \"#utility.yul\":4456:4549   */\n      tag_170\n        /* \"#utility.yul\":4545:4548   */\n      dup3\n        /* \"#utility.yul\":4456:4549   */\n      tag_105\n      jump\t// in\n    tag_170:\n        /* \"#utility.yul\":4574:4576   */\n      0x20\n        /* \"#utility.yul\":4569:4572   */\n      dup3\n        /* \"#utility.yul\":4565:4577   */\n      add\n        /* \"#utility.yul\":4558:4577   */\n      swap1\n      pop\n        /* \"#utility.yul\":4217:4583   */\n      swap2\n      swap1\n      pop\n      jump\t// out\n        /* \"#utility.yul\":4589:5008   */\n    tag_43:\n        /* \"#utility.yul\":4755:4759   */\n      0x00\n        /* \"#utility.yul\":4793:4795   */\n      0x20\n        /* \"#utility.yul\":4782:4791   */\n      dup3\n        /* \"#utility.yul\":4778:4796   */\n      add\n        /* \"#utility.yul\":4770:4796   */\n      swap1\n      pop\n        /* \"#utility.yul\":4842:4851   */\n      dup2\n        /* \"#utility.yul\":4836:4840   */\n      dup2\n        /* \"#utility.yul\":4832:4852   */\n      sub\n        /* \"#utility.yul\":4828:4829   */\n      0x00\n        /* \"#utility.yul\":4817:4826   */\n      dup4\n        /* \"#utility.yul\":4813:4830   */\n      add\n        /* \"#utility.yul\":4806:4853   */\n      mstore\n        /* \"#utility.yul\":4870:5001   */\n      tag_172\n        /* \"#utility.yul\":4996:5000   */\n      dup2\n        /* \"#utility.yul\":4870:5001   */\n      tag_106\n      jump\t// in\n    tag_172:\n        /* \"#utility.yul\":4862:5001   */\n      swap1\n      pop\n        /* \"#utility.yul\":4589:5008   */\n      swap2\n      swap1\n      pop\n      jump\t// out\n        /* \"#utility.yul\":5014:5181   */\n    tag_107:\n        /* \"#utility.yul\":5154:5173   */\n      0x596f7520616c726561647920766f746564000000000000000000000000000000\n        /* \"#utility.yul\":5150:5151   */\n      0x00\n        /* \"#utility.yul\":5142:5148   */\n      dup3\n        /* \"#utility.yul\":5138:5152   */\n      add\n        /* \"#utility.yul\":5131:5174   */\n      mstore\n        /* \"#utility.yul\":5014:5181   */\n      pop\n      jump\t// out\n        /* \"#utility.yul\":5187:5553   */\n    tag_108:\n        /* \"#utility.yul\":5329:5332   */\n      0x00\n        /* \"#utility.yul\":5350:5417   */\n      tag_175\n        /* \"#utility.yul\":5414:5416   */\n      0x11\n        /* \"#utility.yul\":5409:5412   */\n      dup4\n        /* \"#utility.yul\":5350:5417   */\n      tag_104\n      jump\t// in\n    tag_175:\n        /* \"#utility.yul\":5343:5417   */\n      swap2\n      pop\n        /* \"#utility.yul\":5426:5519   */\n      tag_176\n        /* \"#utility.yul\":5515:5518   */\n      dup3\n        /* \"#utility.yul\":5426:5519   */\n      tag_107\n      jump\t// in\n    tag_176:\n        /* \"#utility.yul\":5544:5546   */\n      0x20\n        /* \"#utility.yul\":5539:5542   */\n      dup3\n        /* \"#utility.yul\":5535:5547   */\n      add\n        /* \"#utility.yul\":5528:5547   */\n      swap1\n      pop\n        /* \"#utility.yul\":5187:5553   */\n      swap2\n      swap1\n      pop\n      jump\t// out\n        /* \"#utility.yul\":5559:5978   */\n    tag_49:\n        /* \"#utility.yul\":5725:5729   */\n      0x00\n        /* \"#utility.yul\":5763:5765   */\n      0x20\n        /* \"#utility.yul\":5752:5761   */\n      dup3\n        /* \"#utility.yul\":5748:5766   */\n      add\n        /* \"#utility.yul\":5740:5766   */\n      swap1\n      pop\n        /* \"#utility.yul\":5812:5821   */\n      dup2\n        /* \"#utility.yul\":5806:5810   */\n      dup2\n        /* \"#utility.yul\":5802:5822   */\n      sub\n        /* \"#utility.yul\":5798:5799   */\n      0x00\n        /* \"#utility.yul\":5787:5796   */\n      dup4\n        /* \"#utility.yul\":5783:5800   */\n      add\n        /* \"#utility.yul\":5776:5823   */\n      mstore\n        /* \"#utility.yul\":5840:5971   */\n      tag_178\n        /* \"#utility.yul\":5966:5970   */\n      dup2\n        /* \"#utility.yul\":5840:5971   */\n      tag_108\n      jump\t// in\n    tag_178:\n        /* \"#utility.yul\":5832:5971   */\n      swap1\n      pop\n        /* \"#utility.yul\":5559:5978   */\n      swap2\n      swap1\n      pop\n      jump\t// out\n        /* \"#utility.yul\":5984:6164   */\n    tag_109:\n        /* \"#utility.yul\":6124:6156   */\n      0x53656c662d64656c65676174696f6e20697320646973616c6c6f7765642e0000\n        /* \"#utility.yul\":6120:6121   */\n      0x00\n        /* \"#utility.yul\":6112:6118   */\n      dup3\n        /* \"#utility.yul\":6108:6122   */\n      add\n        /* \"#utility.yul\":6101:6157   */\n      mstore\n        /* \"#utility.yul\":5984:6164   */\n      pop\n      jump\t// out\n        /* \"#utility.yul\":6170:6536   */\n    tag_110:\n        /* \"#utility.yul\":6312:6315   */\n      0x00\n        /* \"#utility.yul\":6333:6400   */\n      tag_181\n        /* \"#utility.yul\":6397:6399   */\n      0x1e\n        /* \"#utility.yul\":6392:6395   */\n      dup4\n        /* \"#utility.yul\":6333:6400   */\n      tag_104\n      jump\t// in\n    tag_181:\n        /* \"#utility.yul\":6326:6400   */\n      swap2\n      pop\n        /* \"#utility.yul\":6409:6502   */\n      tag_182\n        /* \"#utility.yul\":6498:6501   */\n      dup3\n        /* \"#utility.yul\":6409:6502   */\n      tag_109\n      jump\t// in\n    tag_182:\n        /* \"#utility.yul\":6527:6529   */\n      0x20\n        /* \"#utility.yul\":6522:6525   */\n      dup3\n        /* \"#utility.yul\":6518:6530   */\n      add\n        /* \"#utility.yul\":6511:6530   */\n      swap1\n      pop\n        /* \"#utility.yul\":6170:6536   */\n      swap2\n      swap1\n      pop\n      jump\t// out\n        /* \"#utility.yul\":6542:6961   */\n    tag_52:\n        /* \"#utility.yul\":6708:6712   */\n      0x00\n        /* \"#utility.yul\":6746:6748   */\n      0x20\n        /* \"#utility.yul\":6735:6744   */\n      dup3\n        /* \"#utility.yul\":6731:6749   */\n      add\n        /* \"#utility.yul\":6723:6749   */\n      swap1\n      pop\n        /* \"#utility.yul\":6795:6804   */\n      dup2\n        /* \"#utility.yul\":6789:6793   */\n      dup2\n        /* \"#utility.yul\":6785:6805   */\n      sub\n        /* \"#utility.yul\":6781:6782   */\n      0x00\n        /* \"#utility.yul\":6770:6779   */\n      dup4\n        /* \"#utility.yul\":6766:6783   */\n      add\n        /* \"#utility.yul\":6759:6806   */\n      mstore\n        /* \"#utility.yul\":6823:6954   */\n      tag_184\n        /* \"#utility.yul\":6949:6953   */\n      dup2\n        /* \"#utility.yul\":6823:6954   */\n      tag_110\n      jump\t// in\n    tag_184:\n        /* \"#utility.yul\":6815:6954   */\n      swap1\n      pop\n        /* \"#utility.yul\":6542:6961   */\n      swap2\n      swap1\n      pop\n      jump\t// out\n        /* \"#utility.yul\":6967:7141   */\n    tag_111:\n        /* \"#utility.yul\":7107:7133   */\n      0x466f756e64206c6f6f7020696e2064656c65676174696f6e0000000000000000\n        /* \"#utility.yul\":7103:7104   */\n      0x00\n        /* \"#utility.yul\":7095:7101   */\n      dup3\n        /* \"#utility.yul\":7091:7105   */\n      add\n        /* \"#utility.yul\":7084:7134   */\n      mstore\n        /* \"#utility.yul\":6967:7141   */\n      pop\n      jump\t// out\n        /* \"#utility.yul\":7147:7513   */\n    tag_112:\n        /* \"#utility.yul\":7289:7292   */\n      0x00\n        /* \"#utility.yul\":7310:7377   */\n      tag_187\n        /* \"#utility.yul\":7374:7376   */\n      0x18\n        /* \"#utility.yul\":7369:7372   */\n      dup4\n        /* \"#utility.yul\":7310:7377   */\n      tag_104\n      jump\t// in\n    tag_187:\n        /* \"#utility.yul\":7303:7377   */\n      swap2\n      pop\n        /* \"#utility.yul\":7386:7479   */\n      tag_188\n        /* \"#utility.yul\":7475:7478   */\n      dup3\n        /* \"#utility.yul\":7386:7479   */\n      tag_111\n      jump\t// in\n    tag_188:\n        /* \"#utility.yul\":7504:7506   */\n      0x20\n        /* \"#utility.yul\":7499:7502   */\n      dup3\n        /* \"#utility.yul\":7495:7507   */\n      add\n        /* \"#utility.yul\":7488:7507   */\n      swap1\n      pop\n        /* \"#utility.yul\":7147:7513   */\n      swap2\n      swap1\n      pop\n      jump\t// out\n        /* \"#utility.yul\":7519:7938   */\n    tag_57:\n        /* \"#utility.yul\":7685:7689   */\n      0x00\n        /* \"#utility.yul\":7723:7725   */\n      0x20\n        /* \"#utility.yul\":7712:7721   */\n      dup3\n        /* \"#utility.yul\":7708:7726   */\n      add\n        /* \"#utility.yul\":7700:7726   */\n      swap1\n      pop\n        /* \"#utility.yul\":7772:7781   */\n      dup2\n        /* \"#utility.yul\":7766:7770   */\n      dup2\n        /* \"#utility.yul\":7762:7782   */\n      sub\n        /* \"#utility.yul\":7758:7759   */\n      0x00\n        /* \"#utility.yul\":7747:7756   */\n      dup4\n        /* \"#utility.yul\":7743:7760   */\n      add\n        /* \"#utility.yul\":7736:7783   */\n      mstore\n        /* \"#utility.yul\":7800:7931   */\n      tag_190\n        /* \"#utility.yul\":7926:7930   */\n      dup2\n        /* \"#utility.yul\":7800:7931   */\n      tag_112\n      jump\t// in\n    tag_190:\n        /* \"#utility.yul\":7792:7931   */\n      swap1\n      pop\n        /* \"#utility.yul\":7519:7938   */\n      swap2\n      swap1\n      pop\n      jump\t// out\n        /* \"#utility.yul\":7944:8124   */\n    tag_61:\n        /* \"#utility.yul\":7992:8069   */\n      0x4e487b7100000000000000000000000000000000000000000000000000000000\n        /* \"#utility.yul\":7989:7990   */\n      0x00\n        /* \"#utility.yul\":7982:8070   */\n      mstore\n        /* \"#utility.yul\":8089:8093   */\n      0x32\n        /* \"#utility.yul\":8086:8087   */\n      0x04\n        /* \"#utility.yul\":8079:8094   */\n      mstore\n        /* \"#utility.yul\":8113:8117   */\n      0x24\n        /* \"#utility.yul\":8110:8111   */\n      0x00\n        /* \"#utility.yul\":8103:8118   */\n      revert\n        /* \"#utility.yul\":8130:8310   */\n    tag_113:\n        /* \"#utility.yul\":8178:8255   */\n      0x4e487b7100000000000000000000000000000000000000000000000000000000\n        /* \"#utility.yul\":8175:8176   */\n      0x00\n        /* \"#utility.yul\":8168:8256   */\n      mstore\n        /* \"#utility.yul\":8275:8279   */\n      0x11\n        /* \"#utility.yul\":8272:8273   */\n      0x04\n        /* \"#utility.yul\":8265:8280   */\n      mstore\n        /* \"#utility.yul\":8299:8303   */\n      0x24\n        /* \"#utility.yul\":8296:8297   */\n      0x00\n        /* \"#utility.yul\":8289:8304   */\n      revert\n        /* \"#utility.yul\":8316:8621   */\n    tag_64:\n        /* \"#utility.yul\":8356:8359   */\n      0x00\n        /* \"#utility.yul\":8375:8395   */\n      tag_194\n        /* \"#utility.yul\":8393:8394   */\n      dup3\n        /* \"#utility.yul\":8375:8395   */\n      tag_91\n      jump\t// in\n    tag_194:\n        /* \"#utility.yul\":8370:8395   */\n      swap2\n      pop\n        /* \"#utility.yul\":8409:8429   */\n      tag_195\n        /* \"#utility.yul\":8427:8428   */\n      dup4\n        /* \"#utility.yul\":8409:8429   */\n      tag_91\n      jump\t// in\n    tag_195:\n        /* \"#utility.yul\":8404:8429   */\n      swap3\n      pop\n        /* \"#utility.yul\":8563:8564   */\n      dup3\n        /* \"#utility.yul\":8495:8561   */\n      0xffffffffffffffffffffffffffffffffffffffffffffffffffffffffffffffff\n        /* \"#utility.yul\":8491:8565   */\n      sub\n        /* \"#utility.yul\":8488:8489   */\n      dup3\n        /* \"#utility.yul\":8485:8566   */\n      gt\n        /* \"#utility.yul\":8482:8589   */\n      iszero\n      tag_196\n      jumpi\n        /* \"#utility.yul\":8569:8587   */\n      tag_197\n      tag_113\n      jump\t// in\n    tag_197:\n        /* \"#utility.yul\":8482:8589   */\n    tag_196:\n        /* \"#utility.yul\":8613:8614   */\n      dup3\n        /* \"#utility.yul\":8610:8611   */\n      dup3\n        /* \"#utility.yul\":8606:8615   */\n      add\n        /* \"#utility.yul\":8599:8615   */\n      swap1\n      pop\n        /* \"#utility.yul\":8316:8621   */\n      swap3\n      swap2\n      pop\n      pop\n      jump\t// out\n        /* \"#utility.yul\":8627:8860   */\n    tag_79:\n        /* \"#utility.yul\":8666:8669   */\n      0x00\n        /* \"#utility.yul\":8689:8713   */\n      tag_199\n        /* \"#utility.yul\":8707:8712   */\n      dup3\n        /* \"#utility.yul\":8689:8713   */\n      tag_91\n      jump\t// in\n    tag_199:\n        /* \"#utility.yul\":8680:8713   */\n      swap2\n      pop\n        /* \"#utility.yul\":8735:8801   */\n      0xffffffffffffffffffffffffffffffffffffffffffffffffffffffffffffffff\n        /* \"#utility.yul\":8728:8733   */\n      dup3\n        /* \"#utility.yul\":8725:8802   */\n      sub\n        /* \"#utility.yul\":8722:8825   */\n      tag_200\n      jumpi\n        /* \"#utility.yul\":8805:8823   */\n      tag_201\n      tag_113\n      jump\t// in\n    tag_201:\n        /* \"#utility.yul\":8722:8825   */\n    tag_200:\n        /* \"#utility.yul\":8852:8853   */\n      0x01\n        /* \"#utility.yul\":8845:8850   */\n      dup3\n        /* \"#utility.yul\":8841:8854   */\n      add\n        /* \"#utility.yul\":8834:8854   */\n      swap1\n      pop\n        /* \"#utility.yul\":8627:8860   */\n      swap2\n      swap1\n      pop\n      jump\t// out\n        /* \"#utility.yul\":8866:9092   */\n    tag_114:\n        /* \"#utility.yul\":9006:9040   */\n      0x4f6e6c79206368616972706572736f6e2063616e206769766520726967687420\n        /* \"#utility.yul\":9002:9003   */\n      0x00\n        /* \"#utility.yul\":8994:9000   */\n      dup3\n        /* \"#utility.yul\":8990:9004   */\n      add\n        /* \"#utility.yul\":8983:9041   */\n      mstore\n        /* \"#utility.yul\":9075:9084   */\n      0x746f20766f746500000000000000000000000000000000000000000000000000\n        /* \"#utility.yul\":9070:9072   */\n      0x20\n        /* \"#utility.yul\":9062:9068   */\n      dup3\n        /* \"#utility.yul\":9058:9073   */\n      add\n        /* \"#utility.yul\":9051:9085   */\n      mstore\n        /* \"#utility.yul\":8866:9092   */\n      pop\n      jump\t// out\n        /* \"#utility.yul\":9098:9464   */\n    tag_115:\n        /* \"#utility.yul\":9240:9243   */\n      0x00\n        /* \"#utility.yul\":9261:9328   */\n      tag_204\n        /* \"#utility.yul\":9325:9327   */\n      0x27\n        /* \"#utility.yul\":9320:9323   */\n      dup4\n        /* \"#utility.yul\":9261:9328   */\n      tag_104\n      jump\t// in\n    tag_204:\n        /* \"#utility.yul\":9254:9328   */\n      swap2\n      pop\n        /* \"#utility.yul\":9337:9430   */\n      tag_205\n        /* \"#utility.yul\":9426:9429   */\n      dup3\n        /* \"#utility.yul\":9337:9430   */\n      tag_114\n      jump\t// in\n    tag_205:\n        /* \"#utility.yul\":9455:9457   */\n      0x40\n        /* \"#utility.yul\":9450:9453   */\n      dup3\n        /* \"#utility.yul\":9446:9458   */\n      add\n        /* \"#utility.yul\":9439:9458   */\n      swap1\n      pop\n        /* \"#utility.yul\":9098:9464   */\n      swap2\n      swap1\n      pop\n      jump\t// out\n        /* \"#utility.yul\":9470:9889   */\n    tag_83:\n        /* \"#utility.yul\":9636:9640   */\n      0x00\n        /* \"#utility.yul\":9674:9676   */\n      0x20\n        /* \"#utility.yul\":9663:9672   */\n      dup3\n        /* \"#utility.yul\":9659:9677   */\n      add\n        /* \"#utility.yul\":9651:9677   */\n      swap1\n      pop\n        /* \"#utility.yul\":9723:9732   */\n      dup2\n        /* \"#utility.yul\":9717:9721   */\n      dup2\n        /* \"#utility.yul\":9713:9733   */\n      sub\n        /* \"#utility.yul\":9709:9710   */\n      0x00\n        /* \"#utility.yul\":9698:9707   */\n      dup4\n        /* \"#utility.yul\":9694:9711   */\n      add\n        /* \"#utility.yul\":9687:9734   */\n      mstore\n        /* \"#utility.yul\":9751:9882   */\n      tag_207\n        /* \"#utility.yul\":9877:9881   */\n      dup2\n        /* \"#utility.yul\":9751:9882   */\n      tag_115\n      jump\t// in\n    tag_207:\n        /* \"#utility.yul\":9743:9882   */\n      swap1\n      pop\n        /* \"#utility.yul\":9470:9889   */\n      swap2\n      swap1\n      pop\n      jump\t// out\n        /* \"#utility.yul\":9895:10068   */\n    tag_116:\n        /* \"#utility.yul\":10035:10060   */\n      0x54686520766f74657220616c726561647920766f746564000000000000000000\n        /* \"#utility.yul\":10031:10032   */\n      0x00\n        /* \"#utility.yul\":10023:10029   */\n      dup3\n        /* \"#utility.yul\":10019:10033   */\n      add\n        /* \"#utility.yul\":10012:10061   */\n      mstore\n        /* \"#utility.yul\":9895:10068   */\n      pop\n      jump\t// out\n        /* \"#utility.yul\":10074:10440   */\n    tag_117:\n        /* \"#utility.yul\":10216:10219   */\n      0x00\n        /* \"#utility.yul\":10237:10304   */\n      tag_210\n        /* \"#utility.yul\":10301:10303   */\n      0x17\n        /* \"#utility.yul\":10296:10299   */\n      dup4\n        /* \"#utility.yul\":10237:10304   */\n      tag_104\n      jump\t// in\n    tag_210:\n        /* \"#utility.yul\":10230:10304   */\n      swap2\n      pop\n        /* \"#utility.yul\":10313:10406   */\n      tag_211\n        /* \"#utility.yul\":10402:10405   */\n      dup3\n        /* \"#utility.yul\":10313:10406   */\n      tag_116\n      jump\t// in\n    tag_211:\n        /* \"#utility.yul\":10431:10433   */\n      0x20\n        /* \"#utility.yul\":10426:10429   */\n      dup3\n        /* \"#utility.yul\":10422:10434   */\n      add\n        /* \"#utility.yul\":10415:10434   */\n      swap1\n      pop\n        /* \"#utility.yul\":10074:10440   */\n      swap2\n      swap1\n      pop\n      jump\t// out\n        /* \"#utility.yul\":10446:10865   */\n    tag_86:\n        /* \"#utility.yul\":10612:10616   */\n      0x00\n        /* \"#utility.yul\":10650:10652   */\n      0x20\n        /* \"#utility.yul\":10639:10648   */\n      dup3\n        /* \"#utility.yul\":10635:10653   */\n      add\n        /* \"#utility.yul\":10627:10653   */\n      swap1\n      pop\n        /* \"#utility.yul\":10699:10708   */\n      dup2\n        /* \"#utility.yul\":10693:10697   */\n      dup2\n        /* \"#utility.yul\":10689:10709   */\n      sub\n        /* \"#utility.yul\":10685:10686   */\n      0x00\n        /* \"#utility.yul\":10674:10683   */\n      dup4\n        /* \"#utility.yul\":10670:10687   */\n      add\n        /* \"#utility.yul\":10663:10710   */\n      mstore\n        /* \"#utility.yul\":10727:10858   */\n      tag_213\n        /* \"#utility.yul\":10853:10857   */\n      dup2\n        /* \"#utility.yul\":10727:10858   */\n      tag_117\n      jump\t// in\n    tag_213:\n        /* \"#utility.yul\":10719:10858   */\n      swap1\n      pop\n        /* \"#utility.yul\":10446:10865   */\n      swap2\n      swap1\n      pop\n      jump\t// out\n\n    auxdata: 0xa2646970667358221220b6bd7a9b78e3ce859815a9f907ef443d645240614da7c2ebb0778558232ae65464736f6c634300080d0033\n}\n",
				"bytecode": {
					"linkReferences": {},
					"object": "60806040523480156200001157600080fd5b50604051620012f5380380620012f5833981810160405281019062000037919062000342565b336000806101000a81548173ffffffffffffffffffffffffffffffffffffffff021916908373ffffffffffffffffffffffffffffffffffffffff16021790555060018060008060009054906101000a900473ffffffffffffffffffffffffffffffffffffffff1673ffffffffffffffffffffffffffffffffffffffff1673ffffffffffffffffffffffffffffffffffffffff1681526020019081526020016000206000018190555060005b81518110156200017657600260405180604001604052808484815181106200010f576200010e62000393565b5b60200260200101518152602001600081525090806001815401808255809150506001900390600052602060002090600202016000909190919091506000820151816000015560208201518160010155505080806200016d90620003fb565b915050620000e2565b505062000448565b6000604051905090565b600080fd5b600080fd5b600080fd5b6000601f19601f8301169050919050565b7f4e487b7100000000000000000000000000000000000000000000000000000000600052604160045260246000fd5b620001e28262000197565b810181811067ffffffffffffffff82111715620002045762000203620001a8565b5b80604052505050565b6000620002196200017e565b9050620002278282620001d7565b919050565b600067ffffffffffffffff8211156200024a5762000249620001a8565b5b602082029050602081019050919050565b600080fd5b6000819050919050565b620002758162000260565b81146200028157600080fd5b50565b60008151905062000295816200026a565b92915050565b6000620002b2620002ac846200022c565b6200020d565b90508083825260208201905060208402830185811115620002d857620002d76200025b565b5b835b81811015620003055780620002f0888262000284565b845260208401935050602081019050620002da565b5050509392505050565b600082601f83011262000327576200032662000192565b5b8151620003398482602086016200029b565b91505092915050565b6000602082840312156200035b576200035a62000188565b5b600082015167ffffffffffffffff8111156200037c576200037b6200018d565b5b6200038a848285016200030f565b91505092915050565b7f4e487b7100000000000000000000000000000000000000000000000000000000600052603260045260246000fd5b7f4e487b7100000000000000000000000000000000000000000000000000000000600052601160045260246000fd5b6000819050919050565b60006200040882620003f1565b91507fffffffffffffffffffffffffffffffffffffffffffffffffffffffffffffffff82036200043d576200043c620003c2565b5b600182019050919050565b610e9d80620004586000396000f3fe608060405234801561001057600080fd5b506004361061007d5760003560e01c80635c19a95c1161005b5780635c19a95c146100ed578063609ff1bd146101095780639e7b8d6114610127578063a3ec138d146101435761007d565b80630121b93f14610082578063013cf08b1461009e5780632e4176cf146100cf575b600080fd5b61009c600480360381019061009791906108fe565b610176565b005b6100b860048036038101906100b391906108fe565b610235565b6040516100c6929190610953565b60405180910390f35b6100d7610269565b6040516100e491906109bd565b60405180910390f35b61010760048036038101906101029190610a04565b61028d565b005b610111610627565b60405161011e9190610a31565b60405180910390f35b610141600480360381019061013c9190610a04565b6106af565b005b61015d60048036038101906101589190610a04565b610866565b60405161016d9493929190610a67565b60405180910390f35b6000600160003373ffffffffffffffffffffffffffffffffffffffff1673ffffffffffffffffffffffffffffffffffffffff16815260200190815260200160002090508060010160009054906101000a900460ff161561020b576040517f08c379a000000000000000000000000000000000000000000000000000000000815260040161020290610b09565b60405180910390fd5b60018160010160006101000a81548160ff0219169083151502179055508181600201819055505050565b6002818154811061024557600080fd5b90600052602060002090600202016000915090508060000154908060010154905082565b60008054906101000a900473ffffffffffffffffffffffffffffffffffffffff1681565b6000600160003373ffffffffffffffffffffffffffffffffffffffff1673ffffffffffffffffffffffffffffffffffffffff16815260200190815260200160002090508060010160009054906101000a900460ff1615610322576040517f08c379a000000000000000000000000000000000000000000000000000000000815260040161031990610b75565b60405180910390fd5b3373ffffffffffffffffffffffffffffffffffffffff168273ffffffffffffffffffffffffffffffffffffffff1603610390576040517f08c379a000000000000000000000000000000000000000000000000000000000815260040161038790610be1565b60405180910390fd5b5b600073ffffffffffffffffffffffffffffffffffffffff16600160008473ffffffffffffffffffffffffffffffffffffffff1673ffffffffffffffffffffffffffffffffffffffff16815260200190815260200160002060010160019054906101000a900473ffffffffffffffffffffffffffffffffffffffff1673ffffffffffffffffffffffffffffffffffffffff16146104ff57600160008373ffffffffffffffffffffffffffffffffffffffff1673ffffffffffffffffffffffffffffffffffffffff16815260200190815260200160002060010160019054906101000a900473ffffffffffffffffffffffffffffffffffffffff1691503373ffffffffffffffffffffffffffffffffffffffff168273ffffffffffffffffffffffffffffffffffffffff16036104fa576040517f08c379a00000000000000000000000000000000000000000000000000000000081526004016104f190610c4d565b60405180910390fd5b610391565b60018160010160006101000a81548160ff021916908315150217905550818160010160016101000a81548173ffffffffffffffffffffffffffffffffffffffff021916908373ffffffffffffffffffffffffffffffffffffffff1602179055506000600160008473ffffffffffffffffffffffffffffffffffffffff1673ffffffffffffffffffffffffffffffffffffffff16815260200190815260200160002090508060010160009054906101000a900460ff161561060257816000015460028260020154815481106105d6576105d5610c6d565b5b906000526020600020906002020160010160008282546105f69190610ccb565b92505081905550610622565b816000015481600001600082825461061a9190610ccb565b925050819055505b505050565b6000806000905060005b6002805490508110156106aa57816002828154811061065357610652610c6d565b5b9060005260206000209060020201600101541115610697576002818154811061067f5761067e610c6d565b5b90600052602060002090600202016001015491508092505b80806106a290610d21565b915050610631565b505090565b60008054906101000a900473ffffffffffffffffffffffffffffffffffffffff1673ffffffffffffffffffffffffffffffffffffffff163373ffffffffffffffffffffffffffffffffffffffff161461073d576040517f08c379a000000000000000000000000000000000000000000000000000000000815260040161073490610ddb565b60405180910390fd5b600160008273ffffffffffffffffffffffffffffffffffffffff1673ffffffffffffffffffffffffffffffffffffffff16815260200190815260200160002060010160009054906101000a900460ff16156107cd576040517f08c379a00000000000000000000000000000000000000000000000000000000081526004016107c490610e47565b60405180910390fd5b6000600160008373ffffffffffffffffffffffffffffffffffffffff1673ffffffffffffffffffffffffffffffffffffffff168152602001908152602001600020600001541461081c57600080fd5b60018060008373ffffffffffffffffffffffffffffffffffffffff1673ffffffffffffffffffffffffffffffffffffffff1681526020019081526020016000206000018190555050565b60016020528060005260406000206000915090508060000154908060010160009054906101000a900460ff16908060010160019054906101000a900473ffffffffffffffffffffffffffffffffffffffff16908060020154905084565b600080fd5b6000819050919050565b6108db816108c8565b81146108e657600080fd5b50565b6000813590506108f8816108d2565b92915050565b600060208284031215610914576109136108c3565b5b6000610922848285016108e9565b91505092915050565b6000819050919050565b61093e8161092b565b82525050565b61094d816108c8565b82525050565b60006040820190506109686000830185610935565b6109756020830184610944565b9392505050565b600073ffffffffffffffffffffffffffffffffffffffff82169050919050565b60006109a78261097c565b9050919050565b6109b78161099c565b82525050565b60006020820190506109d260008301846109ae565b92915050565b6109e18161099c565b81146109ec57600080fd5b50565b6000813590506109fe816109d8565b92915050565b600060208284031215610a1a57610a196108c3565b5b6000610a28848285016109ef565b91505092915050565b6000602082019050610a466000830184610944565b92915050565b60008115159050919050565b610a6181610a4c565b82525050565b6000608082019050610a7c6000830187610944565b610a896020830186610a58565b610a9660408301856109ae565b610aa36060830184610944565b95945050505050565b600082825260208201905092915050565b7f416c7265647920766f7465640000000000000000000000000000000000000000600082015250565b6000610af3600c83610aac565b9150610afe82610abd565b602082019050919050565b60006020820190508181036000830152610b2281610ae6565b9050919050565b7f596f7520616c726561647920766f746564000000000000000000000000000000600082015250565b6000610b5f601183610aac565b9150610b6a82610b29565b602082019050919050565b60006020820190508181036000830152610b8e81610b52565b9050919050565b7f53656c662d64656c65676174696f6e20697320646973616c6c6f7765642e0000600082015250565b6000610bcb601e83610aac565b9150610bd682610b95565b602082019050919050565b60006020820190508181036000830152610bfa81610bbe565b9050919050565b7f466f756e64206c6f6f7020696e2064656c65676174696f6e0000000000000000600082015250565b6000610c37601883610aac565b9150610c4282610c01565b602082019050919050565b60006020820190508181036000830152610c6681610c2a565b9050919050565b7f4e487b7100000000000000000000000000000000000000000000000000000000600052603260045260246000fd5b7f4e487b7100000000000000000000000000000000000000000000000000000000600052601160045260246000fd5b6000610cd6826108c8565b9150610ce1836108c8565b9250827fffffffffffffffffffffffffffffffffffffffffffffffffffffffffffffffff03821115610d1657610d15610c9c565b5b828201905092915050565b6000610d2c826108c8565b91507fffffffffffffffffffffffffffffffffffffffffffffffffffffffffffffffff8203610d5e57610d5d610c9c565b5b600182019050919050565b7f4f6e6c79206368616972706572736f6e2063616e20676976652072696768742060008201527f746f20766f746500000000000000000000000000000000000000000000000000602082015250565b6000610dc5602783610aac565b9150610dd082610d69565b604082019050919050565b60006020820190508181036000830152610df481610db8565b9050919050565b7f54686520766f74657220616c726561647920766f746564000000000000000000600082015250565b6000610e31601783610aac565b9150610e3c82610dfb565b602082019050919050565b60006020820190508181036000830152610e6081610e24565b905091905056fea2646970667358221220b6bd7a9b78e3ce859815a9f907ef443d645240614da7c2ebb0778558232ae65464736f6c634300080d0033",
					"opcodes": "PUSH1 0x80 PUSH1 0x40 MSTORE CALLVALUE DUP1 ISZERO PUSH3 0x11 JUMPI PUSH1 0x0 DUP1 REVERT JUMPDEST POP PUSH1 0x40 MLOAD PUSH3 0x12F5 CODESIZE SUB DUP1 PUSH3 0x12F5 DUP4 CODECOPY DUP2 DUP2 ADD PUSH1 0x40 MSTORE DUP2 ADD SWAP1 PUSH3 0x37 SWAP2 SWAP1 PUSH3 0x342 JUMP JUMPDEST CALLER PUSH1 0x0 DUP1 PUSH2 0x100 EXP DUP2 SLOAD DUP2 PUSH20 0xFFFFFFFFFFFFFFFFFFFFFFFFFFFFFFFFFFFFFFFF MUL NOT AND SWAP1 DUP4 PUSH20 0xFFFFFFFFFFFFFFFFFFFFFFFFFFFFFFFFFFFFFFFF AND MUL OR SWAP1 SSTORE POP PUSH1 0x1 DUP1 PUSH1 0x0 DUP1 PUSH1 0x0 SWAP1 SLOAD SWAP1 PUSH2 0x100 EXP SWAP1 DIV PUSH20 0xFFFFFFFFFFFFFFFFFFFFFFFFFFFFFFFFFFFFFFFF AND PUSH20 0xFFFFFFFFFFFFFFFFFFFFFFFFFFFFFFFFFFFFFFFF AND PUSH20 0xFFFFFFFFFFFFFFFFFFFFFFFFFFFFFFFFFFFFFFFF AND DUP2 MSTORE PUSH1 0x20 ADD SWAP1 DUP2 MSTORE PUSH1 0x20 ADD PUSH1 0x0 KECCAK256 PUSH1 0x0 ADD DUP2 SWAP1 SSTORE POP PUSH1 0x0 JUMPDEST DUP2 MLOAD DUP2 LT ISZERO PUSH3 0x176 JUMPI PUSH1 0x2 PUSH1 0x40 MLOAD DUP1 PUSH1 0x40 ADD PUSH1 0x40 MSTORE DUP1 DUP5 DUP5 DUP2 MLOAD DUP2 LT PUSH3 0x10F JUMPI PUSH3 0x10E PUSH3 0x393 JUMP JUMPDEST JUMPDEST PUSH1 0x20 MUL PUSH1 0x20 ADD ADD MLOAD DUP2 MSTORE PUSH1 0x20 ADD PUSH1 0x0 DUP2 MSTORE POP SWAP1 DUP1 PUSH1 0x1 DUP2 SLOAD ADD DUP1 DUP3 SSTORE DUP1 SWAP2 POP POP PUSH1 0x1 SWAP1 SUB SWAP1 PUSH1 0x0 MSTORE PUSH1 0x20 PUSH1 0x0 KECCAK256 SWAP1 PUSH1 0x2 MUL ADD PUSH1 0x0 SWAP1 SWAP2 SWAP1 SWAP2 SWAP1 SWAP2 POP PUSH1 0x0 DUP3 ADD MLOAD DUP2 PUSH1 0x0 ADD SSTORE PUSH1 0x20 DUP3 ADD MLOAD DUP2 PUSH1 0x1 ADD SSTORE POP POP DUP1 DUP1 PUSH3 0x16D SWAP1 PUSH3 0x3FB JUMP JUMPDEST SWAP2 POP POP PUSH3 0xE2 JUMP JUMPDEST POP POP PUSH3 0x448 JUMP JUMPDEST PUSH1 0x0 PUSH1 0x40 MLOAD SWAP1 POP SWAP1 JUMP JUMPDEST PUSH1 0x0 DUP1 REVERT JUMPDEST PUSH1 0x0 DUP1 REVERT JUMPDEST PUSH1 0x0 DUP1 REVERT JUMPDEST PUSH1 0x0 PUSH1 0x1F NOT PUSH1 0x1F DUP4 ADD AND SWAP1 POP SWAP2 SWAP1 POP JUMP JUMPDEST PUSH32 0x4E487B7100000000000000000000000000000000000000000000000000000000 PUSH1 0x0 MSTORE PUSH1 0x41 PUSH1 0x4 MSTORE PUSH1 0x24 PUSH1 0x0 REVERT JUMPDEST PUSH3 0x1E2 DUP3 PUSH3 0x197 JUMP JUMPDEST DUP2 ADD DUP2 DUP2 LT PUSH8 0xFFFFFFFFFFFFFFFF DUP3 GT OR ISZERO PUSH3 0x204 JUMPI PUSH3 0x203 PUSH3 0x1A8 JUMP JUMPDEST JUMPDEST DUP1 PUSH1 0x40 MSTORE POP POP POP JUMP JUMPDEST PUSH1 0x0 PUSH3 0x219 PUSH3 0x17E JUMP JUMPDEST SWAP1 POP PUSH3 0x227 DUP3 DUP3 PUSH3 0x1D7 JUMP JUMPDEST SWAP2 SWAP1 POP JUMP JUMPDEST PUSH1 0x0 PUSH8 0xFFFFFFFFFFFFFFFF DUP3 GT ISZERO PUSH3 0x24A JUMPI PUSH3 0x249 PUSH3 0x1A8 JUMP JUMPDEST JUMPDEST PUSH1 0x20 DUP3 MUL SWAP1 POP PUSH1 0x20 DUP2 ADD SWAP1 POP SWAP2 SWAP1 POP JUMP JUMPDEST PUSH1 0x0 DUP1 REVERT JUMPDEST PUSH1 0x0 DUP2 SWAP1 POP SWAP2 SWAP1 POP JUMP JUMPDEST PUSH3 0x275 DUP2 PUSH3 0x260 JUMP JUMPDEST DUP2 EQ PUSH3 0x281 JUMPI PUSH1 0x0 DUP1 REVERT JUMPDEST POP JUMP JUMPDEST PUSH1 0x0 DUP2 MLOAD SWAP1 POP PUSH3 0x295 DUP2 PUSH3 0x26A JUMP JUMPDEST SWAP3 SWAP2 POP POP JUMP JUMPDEST PUSH1 0x0 PUSH3 0x2B2 PUSH3 0x2AC DUP5 PUSH3 0x22C JUMP JUMPDEST PUSH3 0x20D JUMP JUMPDEST SWAP1 POP DUP1 DUP4 DUP3 MSTORE PUSH1 0x20 DUP3 ADD SWAP1 POP PUSH1 0x20 DUP5 MUL DUP4 ADD DUP6 DUP2 GT ISZERO PUSH3 0x2D8 JUMPI PUSH3 0x2D7 PUSH3 0x25B JUMP JUMPDEST JUMPDEST DUP4 JUMPDEST DUP2 DUP2 LT ISZERO PUSH3 0x305 JUMPI DUP1 PUSH3 0x2F0 DUP9 DUP3 PUSH3 0x284 JUMP JUMPDEST DUP5 MSTORE PUSH1 0x20 DUP5 ADD SWAP4 POP POP PUSH1 0x20 DUP2 ADD SWAP1 POP PUSH3 0x2DA JUMP JUMPDEST POP POP POP SWAP4 SWAP3 POP POP POP JUMP JUMPDEST PUSH1 0x0 DUP3 PUSH1 0x1F DUP4 ADD SLT PUSH3 0x327 JUMPI PUSH3 0x326 PUSH3 0x192 JUMP JUMPDEST JUMPDEST DUP2 MLOAD PUSH3 0x339 DUP5 DUP3 PUSH1 0x20 DUP7 ADD PUSH3 0x29B JUMP JUMPDEST SWAP2 POP POP SWAP3 SWAP2 POP POP JUMP JUMPDEST PUSH1 0x0 PUSH1 0x20 DUP3 DUP5 SUB SLT ISZERO PUSH3 0x35B JUMPI PUSH3 0x35A PUSH3 0x188 JUMP JUMPDEST JUMPDEST PUSH1 0x0 DUP3 ADD MLOAD PUSH8 0xFFFFFFFFFFFFFFFF DUP2 GT ISZERO PUSH3 0x37C JUMPI PUSH3 0x37B PUSH3 0x18D JUMP JUMPDEST JUMPDEST PUSH3 0x38A DUP5 DUP3 DUP6 ADD PUSH3 0x30F JUMP JUMPDEST SWAP2 POP POP SWAP3 SWAP2 POP POP JUMP JUMPDEST PUSH32 0x4E487B7100000000000000000000000000000000000000000000000000000000 PUSH1 0x0 MSTORE PUSH1 0x32 PUSH1 0x4 MSTORE PUSH1 0x24 PUSH1 0x0 REVERT JUMPDEST PUSH32 0x4E487B7100000000000000000000000000000000000000000000000000000000 PUSH1 0x0 MSTORE PUSH1 0x11 PUSH1 0x4 MSTORE PUSH1 0x24 PUSH1 0x0 REVERT JUMPDEST PUSH1 0x0 DUP2 SWAP1 POP SWAP2 SWAP1 POP JUMP JUMPDEST PUSH1 0x0 PUSH3 0x408 DUP3 PUSH3 0x3F1 JUMP JUMPDEST SWAP2 POP PUSH32 0xFFFFFFFFFFFFFFFFFFFFFFFFFFFFFFFFFFFFFFFFFFFFFFFFFFFFFFFFFFFFFFFF DUP3 SUB PUSH3 0x43D JUMPI PUSH3 0x43C PUSH3 0x3C2 JUMP JUMPDEST JUMPDEST PUSH1 0x1 DUP3 ADD SWAP1 POP SWAP2 SWAP1 POP JUMP JUMPDEST PUSH2 0xE9D DUP1 PUSH3 0x458 PUSH1 0x0 CODECOPY PUSH1 0x0 RETURN INVALID PUSH1 0x80 PUSH1 0x40 MSTORE CALLVALUE DUP1 ISZERO PUSH2 0x10 JUMPI PUSH1 0x0 DUP1 REVERT JUMPDEST POP PUSH1 0x4 CALLDATASIZE LT PUSH2 0x7D JUMPI PUSH1 0x0 CALLDATALOAD PUSH1 0xE0 SHR DUP1 PUSH4 0x5C19A95C GT PUSH2 0x5B JUMPI DUP1 PUSH4 0x5C19A95C EQ PUSH2 0xED JUMPI DUP1 PUSH4 0x609FF1BD EQ PUSH2 0x109 JUMPI DUP1 PUSH4 0x9E7B8D61 EQ PUSH2 0x127 JUMPI DUP1 PUSH4 0xA3EC138D EQ PUSH2 0x143 JUMPI PUSH2 0x7D JUMP JUMPDEST DUP1 PUSH4 0x121B93F EQ PUSH2 0x82 JUMPI DUP1 PUSH4 0x13CF08B EQ PUSH2 0x9E JUMPI DUP1 PUSH4 0x2E4176CF EQ PUSH2 0xCF JUMPI JUMPDEST PUSH1 0x0 DUP1 REVERT JUMPDEST PUSH2 0x9C PUSH1 0x4 DUP1 CALLDATASIZE SUB DUP2 ADD SWAP1 PUSH2 0x97 SWAP2 SWAP1 PUSH2 0x8FE JUMP JUMPDEST PUSH2 0x176 JUMP JUMPDEST STOP JUMPDEST PUSH2 0xB8 PUSH1 0x4 DUP1 CALLDATASIZE SUB DUP2 ADD SWAP1 PUSH2 0xB3 SWAP2 SWAP1 PUSH2 0x8FE JUMP JUMPDEST PUSH2 0x235 JUMP JUMPDEST PUSH1 0x40 MLOAD PUSH2 0xC6 SWAP3 SWAP2 SWAP1 PUSH2 0x953 JUMP JUMPDEST PUSH1 0x40 MLOAD DUP1 SWAP2 SUB SWAP1 RETURN JUMPDEST PUSH2 0xD7 PUSH2 0x269 JUMP JUMPDEST PUSH1 0x40 MLOAD PUSH2 0xE4 SWAP2 SWAP1 PUSH2 0x9BD JUMP JUMPDEST PUSH1 0x40 MLOAD DUP1 SWAP2 SUB SWAP1 RETURN JUMPDEST PUSH2 0x107 PUSH1 0x4 DUP1 CALLDATASIZE SUB DUP2 ADD SWAP1 PUSH2 0x102 SWAP2 SWAP1 PUSH2 0xA04 JUMP JUMPDEST PUSH2 0x28D JUMP JUMPDEST STOP JUMPDEST PUSH2 0x111 PUSH2 0x627 JUMP JUMPDEST PUSH1 0x40 MLOAD PUSH2 0x11E SWAP2 SWAP1 PUSH2 0xA31 JUMP JUMPDEST PUSH1 0x40 MLOAD DUP1 SWAP2 SUB SWAP1 RETURN JUMPDEST PUSH2 0x141 PUSH1 0x4 DUP1 CALLDATASIZE SUB DUP2 ADD SWAP1 PUSH2 0x13C SWAP2 SWAP1 PUSH2 0xA04 JUMP JUMPDEST PUSH2 0x6AF JUMP JUMPDEST STOP JUMPDEST PUSH2 0x15D PUSH1 0x4 DUP1 CALLDATASIZE SUB DUP2 ADD SWAP1 PUSH2 0x158 SWAP2 SWAP1 PUSH2 0xA04 JUMP JUMPDEST PUSH2 0x866 JUMP JUMPDEST PUSH1 0x40 MLOAD PUSH2 0x16D SWAP5 SWAP4 SWAP3 SWAP2 SWAP1 PUSH2 0xA67 JUMP JUMPDEST PUSH1 0x40 MLOAD DUP1 SWAP2 SUB SWAP1 RETURN JUMPDEST PUSH1 0x0 PUSH1 0x1 PUSH1 0x0 CALLER PUSH20 0xFFFFFFFFFFFFFFFFFFFFFFFFFFFFFFFFFFFFFFFF AND PUSH20 0xFFFFFFFFFFFFFFFFFFFFFFFFFFFFFFFFFFFFFFFF AND DUP2 MSTORE PUSH1 0x20 ADD SWAP1 DUP2 MSTORE PUSH1 0x20 ADD PUSH1 0x0 KECCAK256 SWAP1 POP DUP1 PUSH1 0x1 ADD PUSH1 0x0 SWAP1 SLOAD SWAP1 PUSH2 0x100 EXP SWAP1 DIV PUSH1 0xFF AND ISZERO PUSH2 0x20B JUMPI PUSH1 0x40 MLOAD PUSH32 0x8C379A000000000000000000000000000000000000000000000000000000000 DUP2 MSTORE PUSH1 0x4 ADD PUSH2 0x202 SWAP1 PUSH2 0xB09 JUMP JUMPDEST PUSH1 0x40 MLOAD DUP1 SWAP2 SUB SWAP1 REVERT JUMPDEST PUSH1 0x1 DUP2 PUSH1 0x1 ADD PUSH1 0x0 PUSH2 0x100 EXP DUP2 SLOAD DUP2 PUSH1 0xFF MUL NOT AND SWAP1 DUP4 ISZERO ISZERO MUL OR SWAP1 SSTORE POP DUP2 DUP2 PUSH1 0x2 ADD DUP2 SWAP1 SSTORE POP POP POP JUMP JUMPDEST PUSH1 0x2 DUP2 DUP2 SLOAD DUP2 LT PUSH2 0x245 JUMPI PUSH1 0x0 DUP1 REVERT JUMPDEST SWAP1 PUSH1 0x0 MSTORE PUSH1 0x20 PUSH1 0x0 KECCAK256 SWAP1 PUSH1 0x2 MUL ADD PUSH1 0x0 SWAP2 POP SWAP1 POP DUP1 PUSH1 0x0 ADD SLOAD SWAP1 DUP1 PUSH1 0x1 ADD SLOAD SWAP1 POP DUP3 JUMP JUMPDEST PUSH1 0x0 DUP1 SLOAD SWAP1 PUSH2 0x100 EXP SWAP1 DIV PUSH20 0xFFFFFFFFFFFFFFFFFFFFFFFFFFFFFFFFFFFFFFFF AND DUP2 JUMP JUMPDEST PUSH1 0x0 PUSH1 0x1 PUSH1 0x0 CALLER PUSH20 0xFFFFFFFFFFFFFFFFFFFFFFFFFFFFFFFFFFFFFFFF AND PUSH20 0xFFFFFFFFFFFFFFFFFFFFFFFFFFFFFFFFFFFFFFFF AND DUP2 MSTORE PUSH1 0x20 ADD SWAP1 DUP2 MSTORE PUSH1 0x20 ADD PUSH1 0x0 KECCAK256 SWAP1 POP DUP1 PUSH1 0x1 ADD PUSH1 0x0 SWAP1 SLOAD SWAP1 PUSH2 0x100 EXP SWAP1 DIV PUSH1 0xFF AND ISZERO PUSH2 0x322 JUMPI PUSH1 0x40 MLOAD PUSH32 0x8C379A000000000000000000000000000000000000000000000000000000000 DUP2 MSTORE PUSH1 0x4 ADD PUSH2 0x319 SWAP1 PUSH2 0xB75 JUMP JUMPDEST PUSH1 0x40 MLOAD DUP1 SWAP2 SUB SWAP1 REVERT JUMPDEST CALLER PUSH20 0xFFFFFFFFFFFFFFFFFFFFFFFFFFFFFFFFFFFFFFFF AND DUP3 PUSH20 0xFFFFFFFFFFFFFFFFFFFFFFFFFFFFFFFFFFFFFFFF AND SUB PUSH2 0x390 JUMPI PUSH1 0x40 MLOAD PUSH32 0x8C379A000000000000000000000000000000000000000000000000000000000 DUP2 MSTORE PUSH1 0x4 ADD PUSH2 0x387 SWAP1 PUSH2 0xBE1 JUMP JUMPDEST PUSH1 0x40 MLOAD DUP1 SWAP2 SUB SWAP1 REVERT JUMPDEST JUMPDEST PUSH1 0x0 PUSH20 0xFFFFFFFFFFFFFFFFFFFFFFFFFFFFFFFFFFFFFFFF AND PUSH1 0x1 PUSH1 0x0 DUP5 PUSH20 0xFFFFFFFFFFFFFFFFFFFFFFFFFFFFFFFFFFFFFFFF AND PUSH20 0xFFFFFFFFFFFFFFFFFFFFFFFFFFFFFFFFFFFFFFFF AND DUP2 MSTORE PUSH1 0x20 ADD SWAP1 DUP2 MSTORE PUSH1 0x20 ADD PUSH1 0x0 KECCAK256 PUSH1 0x1 ADD PUSH1 0x1 SWAP1 SLOAD SWAP1 PUSH2 0x100 EXP SWAP1 DIV PUSH20 0xFFFFFFFFFFFFFFFFFFFFFFFFFFFFFFFFFFFFFFFF AND PUSH20 0xFFFFFFFFFFFFFFFFFFFFFFFFFFFFFFFFFFFFFFFF AND EQ PUSH2 0x4FF JUMPI PUSH1 0x1 PUSH1 0x0 DUP4 PUSH20 0xFFFFFFFFFFFFFFFFFFFFFFFFFFFFFFFFFFFFFFFF AND PUSH20 0xFFFFFFFFFFFFFFFFFFFFFFFFFFFFFFFFFFFFFFFF AND DUP2 MSTORE PUSH1 0x20 ADD SWAP1 DUP2 MSTORE PUSH1 0x20 ADD PUSH1 0x0 KECCAK256 PUSH1 0x1 ADD PUSH1 0x1 SWAP1 SLOAD SWAP1 PUSH2 0x100 EXP SWAP1 DIV PUSH20 0xFFFFFFFFFFFFFFFFFFFFFFFFFFFFFFFFFFFFFFFF AND SWAP2 POP CALLER PUSH20 0xFFFFFFFFFFFFFFFFFFFFFFFFFFFFFFFFFFFFFFFF AND DUP3 PUSH20 0xFFFFFFFFFFFFFFFFFFFFFFFFFFFFFFFFFFFFFFFF AND SUB PUSH2 0x4FA JUMPI PUSH1 0x40 MLOAD PUSH32 0x8C379A000000000000000000000000000000000000000000000000000000000 DUP2 MSTORE PUSH1 0x4 ADD PUSH2 0x4F1 SWAP1 PUSH2 0xC4D JUMP JUMPDEST PUSH1 0x40 MLOAD DUP1 SWAP2 SUB SWAP1 REVERT JUMPDEST PUSH2 0x391 JUMP JUMPDEST PUSH1 0x1 DUP2 PUSH1 0x1 ADD PUSH1 0x0 PUSH2 0x100 EXP DUP2 SLOAD DUP2 PUSH1 0xFF MUL NOT AND SWAP1 DUP4 ISZERO ISZERO MUL OR SWAP1 SSTORE POP DUP2 DUP2 PUSH1 0x1 ADD PUSH1 0x1 PUSH2 0x100 EXP DUP2 SLOAD DUP2 PUSH20 0xFFFFFFFFFFFFFFFFFFFFFFFFFFFFFFFFFFFFFFFF MUL NOT AND SWAP1 DUP4 PUSH20 0xFFFFFFFFFFFFFFFFFFFFFFFFFFFFFFFFFFFFFFFF AND MUL OR SWAP1 SSTORE POP PUSH1 0x0 PUSH1 0x1 PUSH1 0x0 DUP5 PUSH20 0xFFFFFFFFFFFFFFFFFFFFFFFFFFFFFFFFFFFFFFFF AND PUSH20 0xFFFFFFFFFFFFFFFFFFFFFFFFFFFFFFFFFFFFFFFF AND DUP2 MSTORE PUSH1 0x20 ADD SWAP1 DUP2 MSTORE PUSH1 0x20 ADD PUSH1 0x0 KECCAK256 SWAP1 POP DUP1 PUSH1 0x1 ADD PUSH1 0x0 SWAP1 SLOAD SWAP1 PUSH2 0x100 EXP SWAP1 DIV PUSH1 0xFF AND ISZERO PUSH2 0x602 JUMPI DUP2 PUSH1 0x0 ADD SLOAD PUSH1 0x2 DUP3 PUSH1 0x2 ADD SLOAD DUP2 SLOAD DUP2 LT PUSH2 0x5D6 JUMPI PUSH2 0x5D5 PUSH2 0xC6D JUMP JUMPDEST JUMPDEST SWAP1 PUSH1 0x0 MSTORE PUSH1 0x20 PUSH1 0x0 KECCAK256 SWAP1 PUSH1 0x2 MUL ADD PUSH1 0x1 ADD PUSH1 0x0 DUP3 DUP3 SLOAD PUSH2 0x5F6 SWAP2 SWAP1 PUSH2 0xCCB JUMP JUMPDEST SWAP3 POP POP DUP2 SWAP1 SSTORE POP PUSH2 0x622 JUMP JUMPDEST DUP2 PUSH1 0x0 ADD SLOAD DUP2 PUSH1 0x0 ADD PUSH1 0x0 DUP3 DUP3 SLOAD PUSH2 0x61A SWAP2 SWAP1 PUSH2 0xCCB JUMP JUMPDEST SWAP3 POP POP DUP2 SWAP1 SSTORE POP JUMPDEST POP POP POP JUMP JUMPDEST PUSH1 0x0 DUP1 PUSH1 0x0 SWAP1 POP PUSH1 0x0 JUMPDEST PUSH1 0x2 DUP1 SLOAD SWAP1 POP DUP2 LT ISZERO PUSH2 0x6AA JUMPI DUP2 PUSH1 0x2 DUP3 DUP2 SLOAD DUP2 LT PUSH2 0x653 JUMPI PUSH2 0x652 PUSH2 0xC6D JUMP JUMPDEST JUMPDEST SWAP1 PUSH1 0x0 MSTORE PUSH1 0x20 PUSH1 0x0 KECCAK256 SWAP1 PUSH1 0x2 MUL ADD PUSH1 0x1 ADD SLOAD GT ISZERO PUSH2 0x697 JUMPI PUSH1 0x2 DUP2 DUP2 SLOAD DUP2 LT PUSH2 0x67F JUMPI PUSH2 0x67E PUSH2 0xC6D JUMP JUMPDEST JUMPDEST SWAP1 PUSH1 0x0 MSTORE PUSH1 0x20 PUSH1 0x0 KECCAK256 SWAP1 PUSH1 0x2 MUL ADD PUSH1 0x1 ADD SLOAD SWAP2 POP DUP1 SWAP3 POP JUMPDEST DUP1 DUP1 PUSH2 0x6A2 SWAP1 PUSH2 0xD21 JUMP JUMPDEST SWAP2 POP POP PUSH2 0x631 JUMP JUMPDEST POP POP SWAP1 JUMP JUMPDEST PUSH1 0x0 DUP1 SLOAD SWAP1 PUSH2 0x100 EXP SWAP1 DIV PUSH20 0xFFFFFFFFFFFFFFFFFFFFFFFFFFFFFFFFFFFFFFFF AND PUSH20 0xFFFFFFFFFFFFFFFFFFFFFFFFFFFFFFFFFFFFFFFF AND CALLER PUSH20 0xFFFFFFFFFFFFFFFFFFFFFFFFFFFFFFFFFFFFFFFF AND EQ PUSH2 0x73D JUMPI PUSH1 0x40 MLOAD PUSH32 0x8C379A000000000000000000000000000000000000000000000000000000000 DUP2 MSTORE PUSH1 0x4 ADD PUSH2 0x734 SWAP1 PUSH2 0xDDB JUMP JUMPDEST PUSH1 0x40 MLOAD DUP1 SWAP2 SUB SWAP1 REVERT JUMPDEST PUSH1 0x1 PUSH1 0x0 DUP3 PUSH20 0xFFFFFFFFFFFFFFFFFFFFFFFFFFFFFFFFFFFFFFFF AND PUSH20 0xFFFFFFFFFFFFFFFFFFFFFFFFFFFFFFFFFFFFFFFF AND DUP2 MSTORE PUSH1 0x20 ADD SWAP1 DUP2 MSTORE PUSH1 0x20 ADD PUSH1 0x0 KECCAK256 PUSH1 0x1 ADD PUSH1 0x0 SWAP1 SLOAD SWAP1 PUSH2 0x100 EXP SWAP1 DIV PUSH1 0xFF AND ISZERO PUSH2 0x7CD JUMPI PUSH1 0x40 MLOAD PUSH32 0x8C379A000000000000000000000000000000000000000000000000000000000 DUP2 MSTORE PUSH1 0x4 ADD PUSH2 0x7C4 SWAP1 PUSH2 0xE47 JUMP JUMPDEST PUSH1 0x40 MLOAD DUP1 SWAP2 SUB SWAP1 REVERT JUMPDEST PUSH1 0x0 PUSH1 0x1 PUSH1 0x0 DUP4 PUSH20 0xFFFFFFFFFFFFFFFFFFFFFFFFFFFFFFFFFFFFFFFF AND PUSH20 0xFFFFFFFFFFFFFFFFFFFFFFFFFFFFFFFFFFFFFFFF AND DUP2 MSTORE PUSH1 0x20 ADD SWAP1 DUP2 MSTORE PUSH1 0x20 ADD PUSH1 0x0 KECCAK256 PUSH1 0x0 ADD SLOAD EQ PUSH2 0x81C JUMPI PUSH1 0x0 DUP1 REVERT JUMPDEST PUSH1 0x1 DUP1 PUSH1 0x0 DUP4 PUSH20 0xFFFFFFFFFFFFFFFFFFFFFFFFFFFFFFFFFFFFFFFF AND PUSH20 0xFFFFFFFFFFFFFFFFFFFFFFFFFFFFFFFFFFFFFFFF AND DUP2 MSTORE PUSH1 0x20 ADD SWAP1 DUP2 MSTORE PUSH1 0x20 ADD PUSH1 0x0 KECCAK256 PUSH1 0x0 ADD DUP2 SWAP1 SSTORE POP POP JUMP JUMPDEST PUSH1 0x1 PUSH1 0x20 MSTORE DUP1 PUSH1 0x0 MSTORE PUSH1 0x40 PUSH1 0x0 KECCAK256 PUSH1 0x0 SWAP2 POP SWAP1 POP DUP1 PUSH1 0x0 ADD SLOAD SWAP1 DUP1 PUSH1 0x1 ADD PUSH1 0x0 SWAP1 SLOAD SWAP1 PUSH2 0x100 EXP SWAP1 DIV PUSH1 0xFF AND SWAP1 DUP1 PUSH1 0x1 ADD PUSH1 0x1 SWAP1 SLOAD SWAP1 PUSH2 0x100 EXP SWAP1 DIV PUSH20 0xFFFFFFFFFFFFFFFFFFFFFFFFFFFFFFFFFFFFFFFF AND SWAP1 DUP1 PUSH1 0x2 ADD SLOAD SWAP1 POP DUP5 JUMP JUMPDEST PUSH1 0x0 DUP1 REVERT JUMPDEST PUSH1 0x0 DUP2 SWAP1 POP SWAP2 SWAP1 POP JUMP JUMPDEST PUSH2 0x8DB DUP2 PUSH2 0x8C8 JUMP JUMPDEST DUP2 EQ PUSH2 0x8E6 JUMPI PUSH1 0x0 DUP1 REVERT JUMPDEST POP JUMP JUMPDEST PUSH1 0x0 DUP2 CALLDATALOAD SWAP1 POP PUSH2 0x8F8 DUP2 PUSH2 0x8D2 JUMP JUMPDEST SWAP3 SWAP2 POP POP JUMP JUMPDEST PUSH1 0x0 PUSH1 0x20 DUP3 DUP5 SUB SLT ISZERO PUSH2 0x914 JUMPI PUSH2 0x913 PUSH2 0x8C3 JUMP JUMPDEST JUMPDEST PUSH1 0x0 PUSH2 0x922 DUP5 DUP3 DUP6 ADD PUSH2 0x8E9 JUMP JUMPDEST SWAP2 POP POP SWAP3 SWAP2 POP POP JUMP JUMPDEST PUSH1 0x0 DUP2 SWAP1 POP SWAP2 SWAP1 POP JUMP JUMPDEST PUSH2 0x93E DUP2 PUSH2 0x92B JUMP JUMPDEST DUP3 MSTORE POP POP JUMP JUMPDEST PUSH2 0x94D DUP2 PUSH2 0x8C8 JUMP JUMPDEST DUP3 MSTORE POP POP JUMP JUMPDEST PUSH1 0x0 PUSH1 0x40 DUP3 ADD SWAP1 POP PUSH2 0x968 PUSH1 0x0 DUP4 ADD DUP6 PUSH2 0x935 JUMP JUMPDEST PUSH2 0x975 PUSH1 0x20 DUP4 ADD DUP5 PUSH2 0x944 JUMP JUMPDEST SWAP4 SWAP3 POP POP POP JUMP JUMPDEST PUSH1 0x0 PUSH20 0xFFFFFFFFFFFFFFFFFFFFFFFFFFFFFFFFFFFFFFFF DUP3 AND SWAP1 POP SWAP2 SWAP1 POP JUMP JUMPDEST PUSH1 0x0 PUSH2 0x9A7 DUP3 PUSH2 0x97C JUMP JUMPDEST SWAP1 POP SWAP2 SWAP1 POP JUMP JUMPDEST PUSH2 0x9B7 DUP2 PUSH2 0x99C JUMP JUMPDEST DUP3 MSTORE POP POP JUMP JUMPDEST PUSH1 0x0 PUSH1 0x20 DUP3 ADD SWAP1 POP PUSH2 0x9D2 PUSH1 0x0 DUP4 ADD DUP5 PUSH2 0x9AE JUMP JUMPDEST SWAP3 SWAP2 POP POP JUMP JUMPDEST PUSH2 0x9E1 DUP2 PUSH2 0x99C JUMP JUMPDEST DUP2 EQ PUSH2 0x9EC JUMPI PUSH1 0x0 DUP1 REVERT JUMPDEST POP JUMP JUMPDEST PUSH1 0x0 DUP2 CALLDATALOAD SWAP1 POP PUSH2 0x9FE DUP2 PUSH2 0x9D8 JUMP JUMPDEST SWAP3 SWAP2 POP POP JUMP JUMPDEST PUSH1 0x0 PUSH1 0x20 DUP3 DUP5 SUB SLT ISZERO PUSH2 0xA1A JUMPI PUSH2 0xA19 PUSH2 0x8C3 JUMP JUMPDEST JUMPDEST PUSH1 0x0 PUSH2 0xA28 DUP5 DUP3 DUP6 ADD PUSH2 0x9EF JUMP JUMPDEST SWAP2 POP POP SWAP3 SWAP2 POP POP JUMP JUMPDEST PUSH1 0x0 PUSH1 0x20 DUP3 ADD SWAP1 POP PUSH2 0xA46 PUSH1 0x0 DUP4 ADD DUP5 PUSH2 0x944 JUMP JUMPDEST SWAP3 SWAP2 POP POP JUMP JUMPDEST PUSH1 0x0 DUP2 ISZERO ISZERO SWAP1 POP SWAP2 SWAP1 POP JUMP JUMPDEST PUSH2 0xA61 DUP2 PUSH2 0xA4C JUMP JUMPDEST DUP3 MSTORE POP POP JUMP JUMPDEST PUSH1 0x0 PUSH1 0x80 DUP3 ADD SWAP1 POP PUSH2 0xA7C PUSH1 0x0 DUP4 ADD DUP8 PUSH2 0x944 JUMP JUMPDEST PUSH2 0xA89 PUSH1 0x20 DUP4 ADD DUP7 PUSH2 0xA58 JUMP JUMPDEST PUSH2 0xA96 PUSH1 0x40 DUP4 ADD DUP6 PUSH2 0x9AE JUMP JUMPDEST PUSH2 0xAA3 PUSH1 0x60 DUP4 ADD DUP5 PUSH2 0x944 JUMP JUMPDEST SWAP6 SWAP5 POP POP POP POP POP JUMP JUMPDEST PUSH1 0x0 DUP3 DUP3 MSTORE PUSH1 0x20 DUP3 ADD SWAP1 POP SWAP3 SWAP2 POP POP JUMP JUMPDEST PUSH32 0x416C7265647920766F7465640000000000000000000000000000000000000000 PUSH1 0x0 DUP3 ADD MSTORE POP JUMP JUMPDEST PUSH1 0x0 PUSH2 0xAF3 PUSH1 0xC DUP4 PUSH2 0xAAC JUMP JUMPDEST SWAP2 POP PUSH2 0xAFE DUP3 PUSH2 0xABD JUMP JUMPDEST PUSH1 0x20 DUP3 ADD SWAP1 POP SWAP2 SWAP1 POP JUMP JUMPDEST PUSH1 0x0 PUSH1 0x20 DUP3 ADD SWAP1 POP DUP2 DUP2 SUB PUSH1 0x0 DUP4 ADD MSTORE PUSH2 0xB22 DUP2 PUSH2 0xAE6 JUMP JUMPDEST SWAP1 POP SWAP2 SWAP1 POP JUMP JUMPDEST PUSH32 0x596F7520616C726561647920766F746564000000000000000000000000000000 PUSH1 0x0 DUP3 ADD MSTORE POP JUMP JUMPDEST PUSH1 0x0 PUSH2 0xB5F PUSH1 0x11 DUP4 PUSH2 0xAAC JUMP JUMPDEST SWAP2 POP PUSH2 0xB6A DUP3 PUSH2 0xB29 JUMP JUMPDEST PUSH1 0x20 DUP3 ADD SWAP1 POP SWAP2 SWAP1 POP JUMP JUMPDEST PUSH1 0x0 PUSH1 0x20 DUP3 ADD SWAP1 POP DUP2 DUP2 SUB PUSH1 0x0 DUP4 ADD MSTORE PUSH2 0xB8E DUP2 PUSH2 0xB52 JUMP JUMPDEST SWAP1 POP SWAP2 SWAP1 POP JUMP JUMPDEST PUSH32 0x53656C662D64656C65676174696F6E20697320646973616C6C6F7765642E0000 PUSH1 0x0 DUP3 ADD MSTORE POP JUMP JUMPDEST PUSH1 0x0 PUSH2 0xBCB PUSH1 0x1E DUP4 PUSH2 0xAAC JUMP JUMPDEST SWAP2 POP PUSH2 0xBD6 DUP3 PUSH2 0xB95 JUMP JUMPDEST PUSH1 0x20 DUP3 ADD SWAP1 POP SWAP2 SWAP1 POP JUMP JUMPDEST PUSH1 0x0 PUSH1 0x20 DUP3 ADD SWAP1 POP DUP2 DUP2 SUB PUSH1 0x0 DUP4 ADD MSTORE PUSH2 0xBFA DUP2 PUSH2 0xBBE JUMP JUMPDEST SWAP1 POP SWAP2 SWAP1 POP JUMP JUMPDEST PUSH32 0x466F756E64206C6F6F7020696E2064656C65676174696F6E0000000000000000 PUSH1 0x0 DUP3 ADD MSTORE POP JUMP JUMPDEST PUSH1 0x0 PUSH2 0xC37 PUSH1 0x18 DUP4 PUSH2 0xAAC JUMP JUMPDEST SWAP2 POP PUSH2 0xC42 DUP3 PUSH2 0xC01 JUMP JUMPDEST PUSH1 0x20 DUP3 ADD SWAP1 POP SWAP2 SWAP1 POP JUMP JUMPDEST PUSH1 0x0 PUSH1 0x20 DUP3 ADD SWAP1 POP DUP2 DUP2 SUB PUSH1 0x0 DUP4 ADD MSTORE PUSH2 0xC66 DUP2 PUSH2 0xC2A JUMP JUMPDEST SWAP1 POP SWAP2 SWAP1 POP JUMP JUMPDEST PUSH32 0x4E487B7100000000000000000000000000000000000000000000000000000000 PUSH1 0x0 MSTORE PUSH1 0x32 PUSH1 0x4 MSTORE PUSH1 0x24 PUSH1 0x0 REVERT JUMPDEST PUSH32 0x4E487B7100000000000000000000000000000000000000000000000000000000 PUSH1 0x0 MSTORE PUSH1 0x11 PUSH1 0x4 MSTORE PUSH1 0x24 PUSH1 0x0 REVERT JUMPDEST PUSH1 0x0 PUSH2 0xCD6 DUP3 PUSH2 0x8C8 JUMP JUMPDEST SWAP2 POP PUSH2 0xCE1 DUP4 PUSH2 0x8C8 JUMP JUMPDEST SWAP3 POP DUP3 PUSH32 0xFFFFFFFFFFFFFFFFFFFFFFFFFFFFFFFFFFFFFFFFFFFFFFFFFFFFFFFFFFFFFFFF SUB DUP3 GT ISZERO PUSH2 0xD16 JUMPI PUSH2 0xD15 PUSH2 0xC9C JUMP JUMPDEST JUMPDEST DUP3 DUP3 ADD SWAP1 POP SWAP3 SWAP2 POP POP JUMP JUMPDEST PUSH1 0x0 PUSH2 0xD2C DUP3 PUSH2 0x8C8 JUMP JUMPDEST SWAP2 POP PUSH32 0xFFFFFFFFFFFFFFFFFFFFFFFFFFFFFFFFFFFFFFFFFFFFFFFFFFFFFFFFFFFFFFFF DUP3 SUB PUSH2 0xD5E JUMPI PUSH2 0xD5D PUSH2 0xC9C JUMP JUMPDEST JUMPDEST PUSH1 0x1 DUP3 ADD SWAP1 POP SWAP2 SWAP1 POP JUMP JUMPDEST PUSH32 0x4F6E6C79206368616972706572736F6E2063616E206769766520726967687420 PUSH1 0x0 DUP3 ADD MSTORE PUSH32 0x746F20766F746500000000000000000000000000000000000000000000000000 PUSH1 0x20 DUP3 ADD MSTORE POP JUMP JUMPDEST PUSH1 0x0 PUSH2 0xDC5 PUSH1 0x27 DUP4 PUSH2 0xAAC JUMP JUMPDEST SWAP2 POP PUSH2 0xDD0 DUP3 PUSH2 0xD69 JUMP JUMPDEST PUSH1 0x40 DUP3 ADD SWAP1 POP SWAP2 SWAP1 POP JUMP JUMPDEST PUSH1 0x0 PUSH1 0x20 DUP3 ADD SWAP1 POP DUP2 DUP2 SUB PUSH1 0x0 DUP4 ADD MSTORE PUSH2 0xDF4 DUP2 PUSH2 0xDB8 JUMP JUMPDEST SWAP1 POP SWAP2 SWAP1 POP JUMP JUMPDEST PUSH32 0x54686520766F74657220616C726561647920766F746564000000000000000000 PUSH1 0x0 DUP3 ADD MSTORE POP JUMP JUMPDEST PUSH1 0x0 PUSH2 0xE31 PUSH1 0x17 DUP4 PUSH2 0xAAC JUMP JUMPDEST SWAP2 POP PUSH2 0xE3C DUP3 PUSH2 0xDFB JUMP JUMPDEST PUSH1 0x20 DUP3 ADD SWAP1 POP SWAP2 SWAP1 POP JUMP JUMPDEST PUSH1 0x0 PUSH1 0x20 DUP3 ADD SWAP1 POP DUP2 DUP2 SUB PUSH1 0x0 DUP4 ADD MSTORE PUSH2 0xE60 DUP2 PUSH2 0xE24 JUMP JUMPDEST SWAP1 POP SWAP2 SWAP1 POP JUMP INVALID LOG2 PUSH5 0x6970667358 0x22 SLT KECCAK256 0xB6 0xBD PUSH27 0x9B78E3CE859815A9F907EF443D645240614DA7C2EBB0778558232A 0xE6 SLOAD PUSH5 0x736F6C6343 STOP ADDMOD 0xD STOP CALLER "
				},
				"gasEstimates": {
					"creation": {
						"codeDepositCost": "748200",
						"executionCost": "infinite",
						"totalCost": "infinite"
					},
					"external": {
						"chairperson()": "2556",
						"delegate(address)": "infinite",
						"giveRightToVote(address)": "29347",
						"proposals(uint256)": "infinite",
						"vote(uint256)": "49064",
						"voters(address)": "infinite",
						"winningProposal()": "infinite"
					}
				},
				"methodIdentifiers": {
					"chairperson()": "2e4176cf",
					"delegate(address)": "5c19a95c",
					"giveRightToVote(address)": "9e7b8d61",
					"proposals(uint256)": "013cf08b",
					"vote(uint256)": "0121b93f",
					"voters(address)": "a3ec138d",
					"winningProposal()": "609ff1bd"
				}
			},
			"userdoc": {
				"kind": "user",
				"methods": {},
				"version": 1
			}
		}
	}
}